{
  "abi": [
    {
      "inputs": [],
      "name": "SIGNATURE_LENGTH",
      "outputs": [
        {
          "internalType": "uint8",
          "name": "",
          "type": "uint8"
        }
      ],
      "stateMutability": "view",
      "type": "function"
    }
  ],
  "bytecode": {
    "object": "0x608b610038600b82828239805160001a607314602b57634e487b7160e01b600052600060045260246000fd5b30600052607381538281f3fe730000000000000000000000000000000000000000301460806040526004361060335760003560e01c8063540bc5ea146038575b600080fd5b603f604181565b60405160ff909116815260200160405180910390f3fea26469706673582212205b9298d298b139e58772f3a67bf8a2a77b0dcba8215e77f956eb6e5eb803ab0164736f6c63430008130033",
    "linkReferences": {}
  },
  "methodIdentifiers": {
    "SIGNATURE_LENGTH()": "540bc5ea"
  },
  "id": 55
}