{
  "abi": [
    {
      "inputs": [
        {
          "internalType": "address",
          "name": "_address",
          "type": "address"
        }
      ],
      "name": "isAccount",
      "outputs": [
        {
          "internalType": "bool",
          "name": "",
          "type": "bool"
        }
      ],
      "stateMutability": "view",
      "type": "function"
    },
    {
      "inputs": [
        {
          "internalType": "address",
          "name": "_address",
          "type": "address"
        }
      ],
      "name": "isSystemActor",
      "outputs": [
        {
          "internalType": "bool",
          "name": "",
          "type": "bool"
        }
      ],
      "stateMutability": "pure",
      "type": "function"
    }
  ],
  "bytecode": {
    "object": "0x61018561003a600b82828239805160001a60731461002d57634e487b7160e01b600052600060045260246000fd5b30600052607381538281f3fe73000000000000000000000000000000000000000030146080604052600436106100405760003560e01c806325ca4c9c146100455780635d3f8a691461006c575b600080fd5b610058610053366004610126565b61008c565b604051901515815260200160405180910390f35b61005861007a366004610126565b6001600160a01b031660ff60981b1490565b6000813b801580156100c757507fc5d2460186f7233c927e7db2dcc703c0e500b653ca82273b7bfad8045d85a4706001600160a01b0384163f145b801561011f5750826001600160a01b0316803b806020016040519081016040528181526000908060200190933c80516020909101207fc5d2460186f7233c927e7db2dcc703c0e500b653ca82273b7bfad8045d85a470145b9392505050565b60006020828403121561013857600080fd5b81356001600160a01b038116811461011f57600080fdfea26469706673582212209969f6e3ec13f6f3fa47e4b5e619b60d73bb07ffb83cfbba7a1e54f6acdd95be64736f6c63430008130033",
    "linkReferences": {}
  },
  "methodIdentifiers": {
    "isAccount(address)": "25ca4c9c",
    "isSystemActor(address)": "5d3f8a69"
  },
  "id": 54
}