{"abi":[{"type":"function","name":"addStake","inputs":[],"outputs":[],"stateMutability":"payable"},{"type":"function","name":"fund","inputs":[{"name":"subnetId","type":"tuple","internalType":"struct SubnetID","components":[{"name":"root","type":"uint64","internalType":"uint64"},{"name":"route","type":"address[]","internalType":"address[]"}]},{"name":"to","type":"tuple","internalType":"struct FvmAddress","components":[{"name":"addrType","type":"uint8","internalType":"uint8"},{"name":"payload","type":"bytes","internalType":"bytes"}]}],"outputs":[],"stateMutability":"payable"},{"type":"function","name":"kill","inputs":[],"outputs":[],"stateMutability":"nonpayable"},{"type":"function","name":"register","inputs":[{"name":"genesisCircSupply","type":"uint256","internalType":"uint256"}],"outputs":[],"stateMutability":"payable"},{"type":"function","name":"release","inputs":[{"name":"to","type":"tuple","internalType":"struct FvmAddress","components":[{"name":"addrType","type":"uint8","internalType":"uint8"},{"name":"payload","type":"bytes","internalType":"bytes"}]}],"outputs":[],"stateMutability":"payable"},{"type":"function","name":"releaseRewardForRelayer","inputs":[{"name":"amount","type":"uint256","internalType":"uint256"}],"outputs":[],"stateMutability":"nonpayable"},{"type":"function","name":"releaseStake","inputs":[{"name":"amount","type":"uint256","internalType":"uint256"}],"outputs":[],"stateMutability":"nonpayable"},{"type":"error","name":"AlreadyRegisteredSubnet","inputs":[]},{"type":"error","name":"CallFailed","inputs":[]},{"type":"error","name":"CannotReleaseZero","inputs":[]},{"type":"error","name":"InsufficientFunds","inputs":[]},{"type":"error","name":"InvalidActorAddress","inputs":[]},{"type":"error","name":"InvalidCrossMsgValue","inputs":[]},{"type":"error","name":"MethodNotAllowed","inputs":[{"name":"reason","type":"string","internalType":"string"}]},{"type":"error","name":"NotEmptySubnetCircSupply","inputs":[]},{"type":"error","name":"NotEnoughCollateral","inputs":[]},{"type":"error","name":"NotEnoughFunds","inputs":[]},{"type":"error","name":"NotEnoughFundsToRelease","inputs":[]},{"type":"error","name":"NotRegisteredSubnet","inputs":[]},{"type":"error","name":"ReentrancyError","inputs":[]}],"bytecode":{"object":"0x60808060405234610016576124d8908161001c8239f35b600080fdfe608080604052600436101561001357600080fd5b60003560e01c90816318f44b7014610fa65750806341c0e1b514610e5957806345f5448514610da45780635a627dbc14610d215780636b2c1eef14610505578063d8e25572146103c55763f207564e1461006c57600080fd5b6020806003193601126102a75760043590601a546001908181018091116103af5760ff602c5416111561033657823410610324576100aa8334611396565b92601b548410610313576100f5906100c06113a3565b90600073__$a0fe38a9a81205afccc10810b09a4d3f45$__926040518095819263aa5106cb60e01b83523390600484016115fe565b0381855af49283156102b3576000936102ee575b506101138361236d565b906102dc5760048101966001600160401b0397888651166001600160401b03198254161790556005820187860151908151918a831161026857908983926101608299979a98969584611663565b0190600052866000208960005b8481106102bf575050505050856002916101c0975560038101600160801b60ff60801b198254161790554388820155015560405180809581946390ba52cf60e01b835286600484015260248301906115a3565b03915af49283156102b35760009361027e575b505060185490600160401b821015610268578101806018558110156102525760186000527fb13d2d76d1f4b7be834882e410b3e3a8afaf69f83600ae24db354391d2378d2e0155601d54906102376001600160401b0360881b918360881c16611697565b60881b1667ffffffffffffffff60881b199190911617601d55005b634e487b7160e01b600052603260045260246000fd5b634e487b7160e01b600052604160045260246000fd5b9080929350813d83116102ac575b6102968183611312565b810103126102a757519038806101d3565b600080fd5b503d61028c565b6040513d6000823e3d90fd5b83516001600160a01b0316838201558c99909301928b910161016d565b604051631b538cdf60e11b8152600490fd5b61030c9193503d806000833e6103048183611312565b81019061157b565b9138610109565b60405162d11df360e61b8152600490fd5b604051631036b5ad60e31b8152600490fd5b5060405190606082018281106001600160401b0382111761026857604052602382527f5375626e657420646f6573206e6f7420616c6c6f77206368696c64207375626e818301526265747360e81b60408301526103ab60405192839263015538b160e01b845260048401526024830190611371565b0390fd5b634e487b7160e01b600052601160045260246000fd5b346102a7576020806003193601126102a757600435907f691bb03ffc16c56fc96b82fd16cd1b3715f0bc3cdc6407005f49bb62058600959060018254146104f3576001825582156104e1576104193361224f565b90156104cf578161042f60046104509301611422565b60405180938192632cff562160e11b835284600484015260248301906115a3565b038173__$a0fe38a9a81205afccc10810b09a4d3f45$__5af49182156102b357600092610491575b60008461048e876001600160a01b0387166116af565b55005b90809250813d83116104c8575b6104a88183611312565b810103126102a7576000926104bf61048e926114c4565b91819450610478565b503d61049e565b604051630e991abd60e41b8152600490fd5b60405163c79cad7b60e01b8152600490fd5b6040516329f745a760e01b8152600490fd5b6003196020368201126102a7576004356001600160401b0381116102a75760408282360301126102a7573415610d0f57604051632e82508d60e21b815260a06004820152916000918391829161057a919061056260a48501611947565b913360248601528483030160448501526004016118dc565b346064830152836084830152038173__$33b79814e84bf6cf5e47244090b19ce5f8$__5af49081156102b357600091610cec575b50601f54908115610cd657816001600160401b03431604600181018091116103af578281029281840414901517156103af57601d5468ffffffffffffffff006106096001600160401b038360081c1680606086510152611697565b60081b169068ffffffffffffffff00191617601d55816000526009602052604060002091600283018054156000146107cc57601984036107a0575b55600361064f611fee565b920191805190600160401b8211610268578354828555808310610723575b506020018360005260206000206000915b838310610705575050505061069561069b92611a89565b90611f88565b3447106106f35760008080803460635af13d156106ee573d6106bc81611333565b906106ca6040519283611312565b8152600060203d92013e5b156106dc57005b604051633204506f60e01b8152600490fd5b6106d5565b60405163356680b760e01b8152600490fd5b600d6020826107176001945186611af4565b0192019201919061067e565b600d9080820290828204036103af5783820282810485036103af5786600052602060002091820191015b81811061075b57505061066d565b8061076684926121bb565b610772600482016121bb565b600060088201556000600982015561078c600a8201612172565b6000600b8201556000600c8201550161074d565b6001600160401b03601954166001600160401b03198554161784556107c7600185016121de565b610644565b505060038201546020546001600160401b03168103610cac57506003820154916107f5836114ad565b926108036040519485611312565b808452601f19610812826114ad565b0160005b818110610c44575050604051938460608101106001600160401b03606087011117610268576060850160405261084a6113a3565b8552436020860152604085015260005b818110610b8257506040516020815261087f85516060602084015260808301906115a3565b9060208601516040820152604086015191601f19828203016060830152825180825260208201916020808360051b8301019501926000915b838310610b55575050505050807f39504a936d8c0cbc12ddec43d5f3e7a937285064bed71961953e3de67d86215e9143930390a26108f3611fee565b805191600160401b831161026857826003850155808310610ad1575b506020016003830160005260206000206000915b838310610ab3575050505090610695600361093e9301611a89565b60208101516000526009602052604060002081516001600160401b038151166001600160401b0319835416178255602060018301910151908151916001600160401b038311610268576020906109948484611663565b0190600052602060002060005b838110610a96575050505060036040916020840151600282015501910151805190600160401b8211610268578254828455808310610a19575b506020019160005260206000206000925b8284106109fb575050505061069b565b600d602082610a0d6001945186611af4565b019201930192906109eb565b600d9080820290828204036103af5783820282810485036103af5785600052602060002091820191015b818110610a515750506109da565b80610a5c84926121bb565b610a68600482016121bb565b6000600882015560006009820155610a82600a8201612172565b6000600b8201556000600c82015501610a43565b82516001600160a01b0316818301556020909201916001016109a1565b600d602082610ac56001945186611af4565b01920192019190610923565b600d8181020481036103af57600d8381020483036103af5760038401600052602060002083600d0281015b82600d0282018110610b0f57505061090f565b80610b1b600d926121bb565b610b27600482016121bb565b6000600882015560006009820155610b41600a8201612172565b6000600b8201556000600c82015501610afc565b9091929395602080610b73600193601f198682030187528a516119f0565b980193019301919392906108b7565b80610c3d81610b9660019460038801611a9e565b5060408901519060ff600c60405192610bae846112dc565b604051610bba816112f7565b610bc382612134565b8152610bd160048301612134565b60208201526008820154604082015260098201546001600160401b038116606083015260a01b6001600160e01b0319166080820152610c12600a8301612090565b60a0820152600b82015460c0820152845201541615156020820152610c37838361207c565b5261207c565b500161085a565b602090604051610c53816112dc565b604051610c5f816112f7565b610c67611fc7565b8152610c71611fc7565b84820152600060408201526000606082015260006080820152606060a0820152600060c0820152815260008382015282828901015201610816565b91600160401b83101561026857826003610695926001610cd196018282015501611a9e565b61069b565b634e487b7160e01b600052601260045260246000fd5b610d0991503d806000833e610d018183611312565b8101906117dd565b816105ae565b6040516360ec4e6b60e11b8152600490fd5b60003660031901126102a757341561032457610d3c3361224f565b90156104cf576003610d4f3483546112cf565b91828155019081549060ff8260801c166006811015610d8e57600214610d7157005b601b541115610d7d575b005b60ff60801b1916600160801b179055005b634e487b7160e01b600052602160045260246000fd5b346102a7576020806003193601126102a757600435907f691bb03ffc16c56fc96b82fd16cd1b3715f0bc3cdc6407005f49bb62058600959060018254146104f3576001825582156104e157610df83361224f565b90156104cf578054848110610e475761042f600461045093610e1b888795611396565b808255601b5411610e2d575b01611422565b60038101805460ff60801b1916600160811b179055610e27565b6040516379b33e7960e01b8152600490fd5b346102a75760003660031901126102a757610e733361224f565b90156104cf576002810154610f94578054601d546001600160401b03600019818360881c16019081116103af5767ffffffffffffffff60881b1990911660889190911b67ffffffffffffffff60881b1617601d55610efc91610ed790600401611422565b604051906390ba52cf60e01b82528180602095869384600484015260248301906115a3565b038173__$a0fe38a9a81205afccc10810b09a4d3f45$__5af49081156102b357600091610f65575b50610d7b92600091825252610f5f6005604060002060008155600060018201556000600282015560006003820155600060048201550161163d565b336116af565b90508281813d8311610f8d575b610f7c8183611312565b810103126102a75751610d7b610f24565b503d610f72565b604051637c67c70160e11b8152600490fd5b600319906040368301126102a7576004356001600160401b038082116102a7578136036040858201126102a7576024938435908382116102a75760408783360301126102a75734156112c05750604051936379185f5960e11b855260a0600486015260e485019281600401358581168091036102a75760a48701528187013590602219018112156102a757018560048201359101928482116102a7578160051b360384136102a757908086939492604060c486015252610104830191906000905b80821061128e5750505061109082916000943389850152898483030160448501526004016118dc565b346064830152836084830152038173__$33b79814e84bf6cf5e47244090b19ce5f8$__5af49182156102b357600092611271575b50602093848351015151600061110f73__$a0fe38a9a81205afccc10810b09a4d3f45$__9261111d604051958693849363089032d560e01b85526040600486015260448501906115a3565b90838203018a840152611947565b0381845af49182156102b357600092611254575b5061113b8261236d565b9590156104cf5785879460036111a99801908154906111628183168060608c510152611697565b16906001600160401b031916179055611186600260408851015192019182546112cf565b90556040518096819482936304e384ff60e21b84528760048501528301906115a3565b03915af480156102b357600090611200575b7f392fae29c67f3b47710cb5b84d7a6fd08e0155a4f22565971f7159f12c6f709692506111fb60405192839286845260018060a01b0316958301906119f0565b0390a2005b508282813d831161124d575b6112168183611312565b810103126102a7576112487f392fae29c67f3b47710cb5b84d7a6fd08e0155a4f22565971f7159f12c6f7096926114c4565b6111bb565b503d61120c565b61126a9192503d806000833e6103048183611312565b9086611131565b6112879192503d806000833e610d018183611312565b90846110c4565b919493509184356001600160a01b03811691908290036102a75760019181526020809101950192018693949291611067565b6360ec4e6b60e11b8152600490fd5b919082018092116103af57565b604081019081106001600160401b0382111761026857604052565b60e081019081106001600160401b0382111761026857604052565b90601f801991011681019081106001600160401b0382111761026857604052565b6001600160401b03811161026857601f01601f191660200190565b60005b8381106113615750506000910152565b8181015183820152602001611351565b9060209161138a8151809281855285808601910161134e565b601f01601f1916010190565b919082039182116103af57565b604051906113b0826112dc565b816001600160401b036019541681526040518091601a54808352836020809401601a6000526000805160206124838339815191529260005b86828210611403575050506113ff92500384611312565b0152565b85546001600160a01b03168452600195860195899550930192016113e8565b9060405161142f816112dc565b80926001600160401b03815416825260018091019160405191828481955492838652602080960191600052856000209060005b8786821061147a57505050506113ff92500384611312565b83546001600160a01b0316855289955090930192918101918101611462565b51906001600160401b03821682036102a757565b6001600160401b0381116102685760051b60200190565b51906001600160a01b03821682036102a757565b91906040838203126102a757604051926114f1846112dc565b836114fb82611499565b815260209182810151906001600160401b0382116102a757019280601f850112156102a757835161152b816114ad565b946115396040519687611312565b818652848087019260051b8201019283116102a75784809101915b83831061156357505050500152565b819061156e846114c4565b8152019101908490611554565b906020828203126102a75781516001600160401b0381116102a7576115a092016114d8565b90565b60609060408301906001600160401b03815116845260209283809201519460408382015285518094520193019160005b8281106115e1575050505090565b83516001600160a01b0316855293810193928101926001016115d3565b906116166020919493946040845260408401906115a3565b6001600160a01b03909416910152565b818110611631575050565b60008155600101611626565b8054600082558061164c575050565b61166191600052602060002090810190611626565b565b90600160401b81116102685781549080835581811061168157505050565b6116619260005260206000209182019101611626565b9060016001600160401b03809316019182116103af57565b8147106106f3576000918291829182916001600160a01b03165af13d156116fa573d6116da81611333565b906116e86040519283611312565b8152600060203d92013e5b156106dc57565b6116f3565b81601f820112156102a757805161171581611333565b926117236040519485611312565b818452602082840101116102a7576115a0916020808501910161134e565b91906040838203126102a7576040519261175a846112dc565b838151916001600160401b03928381116102a7578461177a9183016114d8565b82526020810151908382116102a757016040818503126102a757604051936117a1856112dc565b815160ff811681036102a757855260208201519384116102a7576020936117c892016116ff565b828401520152565b519081151582036102a757565b906020828203126102a75781516001600160401b03928382116102a75701916040838303126102a75760405192611813846112dc565b80518281116102a75781019260e0848203126102a75760405190611836826112f7565b84518481116102a7578161184b918701611741565b825260208501518481116102a75781611865918701611741565b60208301526040850151604083015261188060608601611499565b606083015260808501516001600160e01b0319811681036102a757608083015260a08501519384116102a757846118c060c0926020966118d498016116ff565b60a0840152015160c08201528452016117d0565b602082015290565b803560ff81168091036102a75782526020810135601e19823603018112156102a7570190602082359201916001600160401b0381116102a75780360383136102a7578060609360406020850152816040850152848401376000828201840152601f01601f1916010190565b60408101906001600160401b036019541681526060602091604083820152601a548094520191601a600052600080516020612483833981519152916000905b828210611994575050505090565b83546001600160a01b031685529384019360019384019390910190611986565b604060206115a093816119ce8551858452858401906115a3565b940151908281860391015260ff81511684520151918160208201520190611371565b906020808351936040845260c0611a76611a17875160e060408901526101208801906119b4565b611a328589015191603f1992838a83030160608b01526119b4565b90604089015160808901526001600160401b0360608a01511660a089015263ffffffff60e01b60808a0151168489015260a0890151908883030160e0890152611371565b9501516101008501520151151591015290565b80541561025257600052602060002090600090565b805482101561025257600052600d602060002091020190600090565b90600182811c92168015611aea575b6020831014611ad457565b634e487b7160e01b600052602260045260246000fd5b91607f1691611ac9565b81518051918251916001600160401b0380845116906001600160401b0319918285541617845560019182850192602080970151805190848211610268578890611b3d8388611663565b01600095865288862083875b848110611f6d575050505050866002870198015160ff8151169860ff19998a82541617905560039288848901920151918251868111611e875780611b8d8354611aba565b94898d601f9788808211611f40575b505050508c90868311600114611ed5578a92611eca575b505060001982881b1c191690851b1790555b6004880190898801519182519187835116908254161790558960058a0191015190815191878311611eb6578b90611bfc8484611663565b019088528a882085895b848110611e9b57505050505088600689019101519060ff8251168b8254161790558860078901910151805190868211611e87578190611c458454611aba565b8c868211611e5a575b50508b90858311600114611dfb578992611df0575b505060001982871b1c191690841b1790555b6040860151600888015560098701846060880151168154906bffffffff000000000000000060808a015160a01c16916bffffffffffffffffffffffff191617179055600a87019460a0870151908151958611611ddc57611cd58754611aba565b8a848211611da5575b505089928611600114611d3657938560ff9a999794819460c09894600c9b9895611d2b575b50501b92600019911b1c19161790555b0151600b820155019301511515918354169116179055565b015193503880611d03565b9294939190601f1985168785528a8520945b818110611d90575092859260ff9b9a989592600c9a9760c0999610611d76575b50505050811b019055611d13565b01519060f884600019921b161c1916905538808080611d68565b82840151865594870194928b01928b01611d48565b611dcc918984528582852091818b0160051c8301938b10611dd3575b0160051c0190611626565b388a611cde565b92508192611dc1565b634e487b7160e01b81526041600452602490fd5b015190503880611c63565b848a528c8a208794509190601f1984168b8f5b828210611e435750508411611e2b575b505050811b019055611c75565b015160001983891b60f8161c19169055388080611e1e565b8385015186558a979095019493840193018f611e0e565b611e8091868c5287828d209181870160051c8301938710611dd3570160051c0190611626565b388c611c4e565b634e487b7160e01b88526041600452602488fd5b83516001600160a01b031683820155928d0192879101611c06565b634e487b7160e01b89526041600452602489fd5b015190503880611bb3565b879350908d91601f198416868d52838d20938d905b828210611f1f5750508411611f07575b505050811b019055611bc5565b0151600019838a1b60f8161c19169055388080611efa565b91929395968291958786015181550195019301908f918a9695949392611eea565b828489611f649652209181870160051c8301938710611dd3570160051c0190611626565b898d3888611b9c565b83516001600160a01b031683820155928b0192859101611b49565b9190611f975761166191611af4565b634e487b7160e01b600052600060045260246000fd5b60405190611fba826112dc565b6060602083600081520152565b60405190611fd4826112dc565b81611fdd611fad565b81526020611fe9611fad565b910152565b604090815191611ffd836112dc565b60018352829160005b6020808210156120745783516020929161201f826112dc565b855161202a816112f7565b612032611fc7565b815261203c611fc7565b8282015260008782015260606000818301526000608083015260a0820152600060c08201528252600081830152828801015201612006565b505091925050565b80518210156102525760209160051b010190565b90604051918260008254926120a484611aba565b90818452600194858116908160001461211157506001146120ce575b505061166192500383611312565b9093915060005260209081600020936000915b8183106120f9575050611661935082010138806120c0565b855488840185015294850194879450918301916120e1565b91505061166194506020925060ff191682840152151560051b82010138806120c0565b9060405191612142836112dc565b60208361214e83611422565b81526117c8600360405194612162866112dc565b60ff600282015416865201612090565b61217c8154611aba565b9081612186575050565b81601f60009311600114612198575055565b9080839182526121b7601f60208420940160051c840160018501611626565b5555565b600361166191600081556121d16001820161163d565b6000600282015501612172565b601a811461224c57601a54906001600160401b038211610268576122028282611663565b60009081526020812060008051602061248383398151915280545b84841061222b575050505050565b600191820180546001600160a01b039092168486015593909101929061221d565b50565b6001600160a01b0391908281161561235b5760405161226d816112dc565b6001600160401b03601954168152604051918291601a54928385526020809501946000978895601a87526000805160206124838339815191529187905b82821061233f57505050506122c4826122e2970383611312565b82015260405163aa5106cb60e01b81529384928392600484016115fe565b038173__$a0fe38a9a81205afccc10810b09a4d3f45$__5af49081156123345783612315939492612319575b505061236d565b9091565b61232d92503d8091833e6103048183611312565b388061230e565b6040513d85823e3d90fd5b835481168a52988401988b9850600193840193909101906122aa565b6040516370e4510960e01b8152600490fd5b6123ab73__$a0fe38a9a81205afccc10810b09a4d3f45$__91604051906390ba52cf60e01b82528180602094859384600484015260248301906115a3565b0381865af49081156102b357600091612453575b50906124029160005260008152806040600020936123df60048601611422565b906040518080968194630c133d1360e31b835286600484015260248301906115a3565b03915af49081156102b35760009161241c575b5090501591565b82813d831161244c575b6124308183611312565b810103126124495750612442906117d0565b8038612415565b80fd5b503d612426565b908282813d831161247b575b6124698183611312565b810103126124495750516124026123bf565b503d61245f56fe057c384a7d1c54f3a1b2e5e67b2617b8224fdfd1ea7234eea573a6ff665ff63ea2646970667358221220f89a6d79c1b977772acd0bec92bd42f3d148800a84d457c8441ddcb0c914df4464736f6c63430008130033","linkReferences":{"src/lib/CrossMsgHelper.sol":{"CrossMsgHelper":[{"start":1446,"length":20},{"start":4284,"length":20}]},"src/lib/SubnetIDHelper.sol":{"SubnetIDHelper":[{"start":225,"length":20},{"start":1136,"length":20},{"start":3868,"length":20},{"start":4337,"length":20},{"start":8962,"length":20},{"start":9102,"length":20}]}}},"methodIdentifiers":{"addStake()":"5a627dbc","fund((uint64,address[]),(uint8,bytes))":"18f44b70","kill()":"41c0e1b5","register(uint256)":"f207564e","release((uint8,bytes))":"6b2c1eef","releaseRewardForRelayer(uint256)":"d8e25572","releaseStake(uint256)":"45f54485"},"id":45}