{
  "abi": [
    {
      "inputs": [],
      "name": "AlreadyRegisteredSubnet",
      "type": "error"
    },
    {
      "inputs": [],
      "name": "CallFailed",
      "type": "error"
    },
    {
      "inputs": [],
      "name": "CannotReleaseZero",
      "type": "error"
    },
    {
      "inputs": [],
      "name": "InsufficientFunds",
      "type": "error"
    },
    {
      "inputs": [],
      "name": "InvalidActorAddress",
      "type": "error"
    },
    {
      "inputs": [],
      "name": "NotEmptySubnetCircSupply",
      "type": "error"
    },
    {
      "inputs": [],
      "name": "NotEnoughFee",
      "type": "error"
    },
    {
      "inputs": [],
      "name": "NotEnoughFunds",
      "type": "error"
    },
    {
      "inputs": [],
      "name": "NotEnoughFundsToRelease",
      "type": "error"
    },
    {
      "inputs": [],
      "name": "NotRegisteredSubnet",
      "type": "error"
    },
    {
      "inputs": [],
      "name": "ReentrancyError",
      "type": "error"
    },
    {
      "inputs": [],
      "name": "addStake",
      "outputs": [],
      "stateMutability": "payable",
      "type": "function"
    },
    {
      "inputs": [
        {
          "components": [
            {
              "internalType": "uint64",
              "name": "root",
              "type": "uint64"
            },
            {
              "internalType": "address[]",
              "name": "route",
              "type": "address[]"
            }
          ],
          "internalType": "struct SubnetID",
          "name": "subnetId",
          "type": "tuple"
        },
        {
          "components": [
            {
              "internalType": "uint8",
              "name": "addrType",
              "type": "uint8"
            },
            {
              "internalType": "bytes",
              "name": "payload",
              "type": "bytes"
            }
          ],
          "internalType": "struct FvmAddress",
          "name": "to",
          "type": "tuple"
        }
      ],
      "name": "fund",
      "outputs": [],
      "stateMutability": "payable",
      "type": "function"
    },
    {
      "inputs": [],
      "name": "kill",
      "outputs": [],
      "stateMutability": "nonpayable",
      "type": "function"
    },
    {
      "inputs": [
        {
          "internalType": "uint256",
          "name": "genesisCircSupply",
          "type": "uint256"
        }
      ],
      "name": "register",
      "outputs": [],
      "stateMutability": "payable",
      "type": "function"
    },
    {
      "inputs": [
        {
          "components": [
            {
              "internalType": "uint8",
              "name": "addrType",
              "type": "uint8"
            },
            {
              "internalType": "bytes",
              "name": "payload",
              "type": "bytes"
            }
          ],
          "internalType": "struct FvmAddress",
          "name": "to",
          "type": "tuple"
        },
        {
          "internalType": "uint256",
          "name": "fee",
          "type": "uint256"
        }
      ],
      "name": "release",
      "outputs": [],
      "stateMutability": "payable",
      "type": "function"
    },
    {
      "inputs": [
        {
          "internalType": "uint256",
          "name": "amount",
          "type": "uint256"
        }
      ],
      "name": "releaseRewardForRelayer",
      "outputs": [],
      "stateMutability": "nonpayable",
      "type": "function"
    },
    {
      "inputs": [
        {
          "internalType": "uint256",
          "name": "amount",
          "type": "uint256"
        }
      ],
      "name": "releaseStake",
      "outputs": [],
      "stateMutability": "nonpayable",
      "type": "function"
    }
  ],
  "bytecode": {
    "object": "0x608060405234801561001057600080fd5b50611f73806100206000396000f3fe6080604052600436106100705760003560e01c80635a627dbc1161004e5780635a627dbc146100bf5780639ba53580146100c7578063d8e25572146100da578063f207564e146100fa57600080fd5b806318f44b701461007557806341c0e1b51461008a57806345f544851461009f575b600080fd5b610088610083366004611487565b61010d565b005b34801561009657600080fd5b506100886101a4565b3480156100ab57600080fd5b506100886100ba3660046114ea565b6103a4565b6100886105a8565b6100886100d5366004611503565b61065c565b3480156100e657600080fd5b506100886100f53660046114ea565b610712565b6100886101083660046114ea565b6107aa565b6040516379185f5960e11b815260009073__$33b79814e84bf6cf5e47244090b19ce5f8$__9063f230beb29061014f9086903390879034908890600401611609565b600060405180830381865af415801561016c573d6000803e3d6000fd5b505050506040513d6000823e601f3d908101601f1916820160405261019491908101906119bd565b905061019f81610a48565b505050565b6000806101b033610dc1565b91509150816101d257604051630e991abd60e41b815260040160405180910390fd5b6002810154156101f557604051637c67c70160e11b815260040160405180910390fd5b8054601780546001919060119061021d908490600160881b90046001600160401b0316611afc565b82546101009290920a6001600160401b03818102199093169183160217909155604080518082018252600486018054909316815260058601805483516020808302820181019095528181526000965086959394808601939192908301828280156102b057602002820191906000526020600020905b81546001600160a01b03168152600190910190602001808311610292575b5050509190925250506040516390ba52cf60e01b815273__$a0fe38a9a81205afccc10810b09a4d3f45$__926390ba52cf92506102ef91600401611b8c565b602060405180830381865af415801561030c573d6000803e3d6000fd5b505050506040513d601f19601f820116820180604052508101906103309190611b9f565b815260208101919091526040016000908120818155600181018290556002810182905560038101805470ffffffffffffffffffffffffffffffffff1916905560048101805467ffffffffffffffff191681559091908161039360058501826113d7565b5061019f9250339150839050610efc565b7f691bb03ffc16c56fc96b82fd16cd1b3715f0bc3cdc6407005f49bb62058600958054600019016103e8576040516329f745a760e01b815260040160405180910390fd5b60018155600082900361040e5760405163c79cad7b60e01b815260040160405180910390fd5b60008061041a33610dc1565b915091508161043c57604051630e991abd60e41b815260040160405180910390fd5b805484111561045e576040516379b33e7960e01b815260040160405180910390fd5b838160000160008282546104729190611bb8565b9091555050601554815410156104985760038101805460ff60801b1916600160811b1790555b6040805180820182526004830180546001600160401b03168252600584018054845160208281028201810190965281815261059f958a95949381860193909183018282801561051057602002820191906000526020600020905b81546001600160a01b031681526001909101906020018083116104f2575b505050919092525050604051632cff562160e11b815273__$a0fe38a9a81205afccc10810b09a4d3f45$__926359feac42925061054f91600401611b8c565b602060405180830381865af415801561056c573d6000803e3d6000fd5b505050506040513d601f19601f820116820180604052508101906105909190611be1565b6001600160a01b031690610efc565b50506000905550565b600034116105c957604051631036b5ad60e31b815260040160405180910390fd5b6000806105d533610dc1565b91509150816105f757604051630e991abd60e41b815260040160405180910390fd5b3481600001600082825461060b9190611c05565b90915550600290506003820154600160801b900460ff16600581111561063357610633611bcb565b03610658576015548154106106585760038101805460ff60801b1916600160801b1790555b5050565b8061066681610f91565b600073__$33b79814e84bf6cf5e47244090b19ce5f8$__63ba094234601333876106908834611bb8565b886040518663ffffffff1660e01b81526004016106b1959493929190611c85565b600060405180830381865af41580156106ce573d6000803e3d6000fd5b505050506040513d6000823e601f3d908101601f191682016040526106f691908101906119bd565b905061070181610fd8565b61070c606334610efc565b50505050565b7f691bb03ffc16c56fc96b82fd16cd1b3715f0bc3cdc6407005f49bb6205860095805460001901610756576040516329f745a760e01b815260040160405180910390fd5b60018155600082900361077c5760405163c79cad7b60e01b815260040160405180910390fd5b60008061078833610dc1565b915091508161049857604051630e991abd60e41b815260040160405180910390fd5b60006107b68234611bb8565b6015549091508110156107dc57604051631036b5ad60e31b815260040160405180910390fd5b604080518082018252601380546001600160401b031682526014805484516020828102820181019096528181526000958086019391929083018282801561084c57602002820191906000526020600020905b81546001600160a01b0316815260019091019060200180831161082e575b50505091909252505060405163aa5106cb60e01b815273__$a0fe38a9a81205afccc10810b09a4d3f45$__9263aa5106cb925061088d913390600401611cce565b600060405180830381865af41580156108aa573d6000803e3d6000fd5b505050506040513d6000823e601f3d908101601f191682016040526108d29190810190611cf8565b90506000806108e083611219565b91509150811561090357604051631b538cdf60e11b815260040160405180910390fd5b825160048201805467ffffffffffffffff19166001600160401b0390921691909117815560208085015180518693926109439260058701929101906113f5565b50505083815560038101805460ff60801b1916600160801b179055436001820155600281018590556040516390ba52cf60e01b815260129073__$a0fe38a9a81205afccc10810b09a4d3f45$__906390ba52cf906109a5908790600401611b8c565b602060405180830381865af41580156109c2573d6000803e3d6000fd5b505050506040513d601f19601f820116820180604052508101906109e69190611b9f565b81546001808201845560009384526020909320015560178054601190610a1d908490600160881b90046001600160401b0316611d34565b92506101000a8154816001600160401b0302191690836001600160401b031602179055505050505050565b8051602001515160405163089032d560e01b8152600091829173__$a0fe38a9a81205afccc10810b09a4d3f45$__9163089032d591610a8d9190601390600401611d54565b600060405180830381865af4158015610aaa573d6000803e3d6000fd5b505050506040513d6000823e601f3d908101601f19168201604052610ad29190810190611cf8565b9050600080610ae083611219565b9150915081610b0257604051630e991abd60e41b815260040160405180910390fd5b60038101805486516001600160401b03909116606090910181905260019190600090610b2f908490611d34565b92506101000a8154816001600160401b0302191690836001600160401b03160217905550846000015160400151816002016000828254610b6f9190611c05565b90915550506040516390ba52cf60e01b8152600185019060009073__$a0fe38a9a81205afccc10810b09a4d3f45$__906390ba52cf90610bb3908890600401611b8c565b602060405180830381865af4158015610bd0573d6000803e3d6000fd5b505050506040513d601f19601f82011682018060405250810190610bf49190611b9f565b8152602080820192909252604090810160009081204382528352908120805460018082018355918352918390208851805180518051600d909602909301805467ffffffffffffffff19166001600160401b039096169590951785558286015180518c979395879593948694938593610c739385019291909101906113f5565b505050602082810151805160028401805460ff191660ff909216919091178155918101519091906003840190610ca99082611e04565b505050506020838101518051805160048601805467ffffffffffffffff19166001600160401b03909216919091178155818401518051939550909391928492610cf99260058901929101906113f5565b505050602082810151805160028401805460ff191660ff909216919091178155918101519091906003840190610d2f9082611e04565b5050505060408301516008830155506060820151600982018054608085015160e01c600160401b026bffffffffffffffffffffffff199091166001600160401b039093169290921791909117905560a0820151600a820190610d919082611e04565b5060c09190910151600b9091015560209190910151600c909101805460ff19169115159190911790555050505050565b600080806001600160a01b038416610dec576040516370e4510960e01b815260040160405180910390fd5b6040805180820182526013830180546001600160401b03168252601484018054845160208281028201810190965281815260009580860193919290830182828015610e6057602002820191906000526020600020905b81546001600160a01b03168152600190910190602001808311610e42575b50505091909252505060405163aa5106cb60e01b815273__$a0fe38a9a81205afccc10810b09a4d3f45$__9263aa5106cb9250610ea1918990600401611cce565b600060405180830381865af4158015610ebe573d6000803e3d6000fd5b505050506040513d6000823e601f3d908101601f19168201604052610ee69190810190611cf8565b9050610ef181611219565b935093505050915091565b80471015610f1d5760405163356680b760e01b815260040160405180910390fd5b6000826001600160a01b03168260405160006040518083038185875af1925050503d8060008114610f6a576040519150601f19603f3d011682016040523d82523d6000602084013e610f6f565b606091505b505090508061019f57604051633204506f60e01b815260040160405180910390fd5b601654811015610fb4576040516334472ad760e11b815260040160405180910390fd5b80341015610fd557604051631036b5ad60e31b815260040160405180910390fd5b50565b6018546000908190610ff49043906001600160401b03166113ac565b601783015484516001600160401b0361010090920482166060909101528082166000908152600c8501602090815260408220805460018181018355918452928290208851805180518051600d90970290930180549690971667ffffffffffffffff199096169590951786558184015180519798508a979195879590948694938593611084939285019201906113f5565b505050602082810151805160028401805460ff191660ff9092169190911781559181015190919060038401906110ba9082611e04565b505050506020838101518051805160048601805467ffffffffffffffff19166001600160401b0390921691909117815581840151805193955090939192849261110a9260058901929101906113f5565b505050602082810151805160028401805460ff191660ff9092169190911781559181015190919060038401906111409082611e04565b5050505060408301516008830155506060820151600982018054608085015160e01c600160401b026bffffffffffffffffffffffff199091166001600160401b039093169290921791909117905560a0820151600a8201906111a29082611e04565b5060c09190910151600b9091015560209190910151600c909101805460ff19169115159190911790556017820180546001919082906111f090829061010090046001600160401b0316611d34565b92506101000a8154816001600160401b0302191690836001600160401b03160217905550505050565b6040516390ba52cf60e01b8152600090819081908190819073__$a0fe38a9a81205afccc10810b09a4d3f45$__906390ba52cf9061125b908990600401611b8c565b602060405180830381865af4158015611278573d6000803e3d6000fd5b505050506040513d601f19601f8201168201806040525081019061129c9190611b9f565b81526020808201929092526040908101600020815180830183526004820180546001600160401b03168252600583018054855181880281018801909652808652939750919490938582019390929183018282801561132357602002820191906000526020600020905b81546001600160a01b03168152600190910190602001808311611305575b505050919092525050604051630c133d1360e31b815273__$a0fe38a9a81205afccc10810b09a4d3f45$__92636099e898925061136291600401611b8c565b602060405180830381865af415801561137f573d6000803e3d6000fd5b505050506040513d601f19601f820116820180604052508101906113a39190611ec3565b15925050915091565b6000816113b98185611ede565b6113c4906001611d34565b6113ce9190611f12565b90505b92915050565b5080546000825590600052602060002090810190610fd5919061145a565b82805482825590600052602060002090810192821561144a579160200282015b8281111561144a57825182546001600160a01b0319166001600160a01b03909116178255602090920191600190910190611415565b5061145692915061145a565b5090565b5b80821115611456576000815560010161145b565b60006040828403121561148157600080fd5b50919050565b6000806040838503121561149a57600080fd5b82356001600160401b03808211156114b157600080fd5b6114bd8683870161146f565b935060208501359150808211156114d357600080fd5b506114e08582860161146f565b9150509250929050565b6000602082840312156114fc57600080fd5b5035919050565b6000806040838503121561151657600080fd5b82356001600160401b0381111561152c57600080fd5b6115388582860161146f565b95602094909401359450505050565b6001600160401b0381168114610fd557600080fd5b6001600160a01b0381168114610fd557600080fd5b60ff81168114610fd557600080fd5b6000813561158d81611571565b60ff168352602082013536839003601e190181126115aa57600080fd5b82016020810190356001600160401b038111156115c657600080fd5b8036038213156115d557600080fd5b60406020860152806040860152808260608701376000606082870101526060601f19601f8301168601019250505092915050565b60a08152600060e08201873561161e81611547565b6001600160401b0390811660a085015260209089820135368b9003601e1901811261164857600080fd5b8a0182810190358281111561165c57600080fd5b8060051b360382131561166e57600080fd5b604060c08801529384905292610100860191506000905b808210156116b75784356116988161155c565b6001600160a01b03168352938301939183019160019190910190611685565b50506001600160a01b0389168583015284810360408601526116d98189611580565b606086019790975250505050608001529392505050565b634e487b7160e01b600052604160045260246000fd5b604080519081016001600160401b0381118282101715611728576117286116f0565b60405290565b60405160e081016001600160401b0381118282101715611728576117286116f0565b604051601f8201601f191681016001600160401b0381118282101715611778576117786116f0565b604052919050565b805161178b81611547565b919050565b6000604082840312156117a257600080fd5b6117aa611706565b905081516117b781611547565b81526020828101516001600160401b03808211156117d457600080fd5b818501915085601f8301126117e857600080fd5b8151818111156117fa576117fa6116f0565b8060051b915061180b848301611750565b818152918301840191848101908884111561182557600080fd5b938501935b8385101561184f578451925061183f8361155c565b828252938501939085019061182a565b808688015250505050505092915050565b600082601f83011261187157600080fd5b81516001600160401b0381111561188a5761188a6116f0565b602061189e601f8301601f19168201611750565b82815285828487010111156118b257600080fd5b60005b838110156118d05785810183015182820184015282016118b5565b506000928101909101919091529392505050565b6000604082840312156118f657600080fd5b6118fe611706565b905081516001600160401b038082111561191757600080fd5b61192385838601611790565b8352602084015191508082111561193957600080fd5b908301906040828603121561194d57600080fd5b611955611706565b825161196081611571565b815260208301518281111561197457600080fd5b61198087828601611860565b60208301525080602085015250505092915050565b80516001600160e01b03198116811461178b57600080fd5b8051801515811461178b57600080fd5b6000602082840312156119cf57600080fd5b81516001600160401b03808211156119e657600080fd5b90830190604082860312156119fa57600080fd5b611a02611706565b825182811115611a1157600080fd5b830160e08188031215611a2357600080fd5b611a2b61172e565b815184811115611a3a57600080fd5b611a46898285016118e4565b825250602082015184811115611a5b57600080fd5b611a67898285016118e4565b60208301525060408201516040820152611a8360608301611780565b6060820152611a9460808301611995565b608082015260a082015184811115611aab57600080fd5b611ab789828501611860565b60a08301525060c082015160c08201528083525050611ad8602084016119ad565b602082015295945050505050565b634e487b7160e01b600052601160045260246000fd5b6001600160401b03828116828216039080821115611b1c57611b1c611ae6565b5092915050565b6000604083016001600160401b0383511684526020808401516040828701528281518085526060880191508383019450600092505b80831015611b815784516001600160a01b03168252938301936001929092019190830190611b58565b509695505050505050565b6020815260006113ce6020830184611b23565b600060208284031215611bb157600080fd5b5051919050565b818103818111156113d1576113d1611ae6565b634e487b7160e01b600052602160045260246000fd5b600060208284031215611bf357600080fd5b8151611bfe8161155c565b9392505050565b808201808211156113d1576113d1611ae6565b6000604083016001600160401b0383541684526001808401602060408188015283825480865260608901915083600052826000209550600093505b80841015611c795785546001600160a01b03168252948401949284019290820190611c53565b50979650505050505050565b60a081526000611c9860a0830188611c18565b6001600160a01b03871660208401528281036040840152611cb98187611580565b60608401959095525050608001529392505050565b604081526000611ce16040830185611b23565b905060018060a01b03831660208301529392505050565b600060208284031215611d0a57600080fd5b81516001600160401b03811115611d2057600080fd5b611d2c84828501611790565b949350505050565b6001600160401b03818116838216019080821115611b1c57611b1c611ae6565b604081526000611d676040830185611b23565b8281036020840152611d798185611c18565b95945050505050565b600181811c90821680611d9657607f821691505b60208210810361148157634e487b7160e01b600052602260045260246000fd5b601f82111561019f57600081815260208120601f850160051c81016020861015611ddd5750805b601f850160051c820191505b81811015611dfc57828155600101611de9565b505050505050565b81516001600160401b03811115611e1d57611e1d6116f0565b611e3181611e2b8454611d82565b84611db6565b602080601f831160018114611e665760008415611e4e5750858301515b600019600386901b1c1916600185901b178555611dfc565b600085815260208120601f198616915b82811015611e9557888601518255948401946001909101908401611e76565b5085821015611eb35787850151600019600388901b60f8161c191681555b5050505050600190811b01905550565b600060208284031215611ed557600080fd5b6113ce826119ad565b60006001600160401b0380841680611f0657634e487b7160e01b600052601260045260246000fd5b92169190910492915050565b6001600160401b03818116838216028082169190828114611f3557611f35611ae6565b50509291505056fea264697066735822122023984dd7f679403c5d90640ad13e6426e760ee1548a5a8321cb1dbfb345740b664736f6c63430008130033",
    "linkReferences": {
      "src/lib/CrossMsgHelper.sol": {
        "CrossMsgHelper": [
          {
            "start": 319,
            "length": 20
          },
          {
            "start": 1674,
            "length": 20
          }
        ]
      },
      "src/lib/SubnetIDHelper.sol": {
        "SubnetIDHelper": [
          {
            "start": 744,
            "length": 20
          },
          {
            "start": 1352,
            "length": 20
          },
          {
            "start": 2180,
            "length": 20
          },
          {
            "start": 2461,
            "length": 20
          },
          {
            "start": 2691,
            "length": 20
          },
          {
            "start": 2987,
            "length": 20
          },
          {
            "start": 3736,
            "length": 20
          },
          {
            "start": 4691,
            "length": 20
          },
          {
            "start": 4955,
            "length": 20
          }
        ]
      }
    }
  },
  "methodIdentifiers": {
    "addStake()": "5a627dbc",
    "fund((uint64,address[]),(uint8,bytes))": "18f44b70",
    "kill()": "41c0e1b5",
    "register(uint256)": "f207564e",
    "release((uint8,bytes),uint256)": "9ba53580",
    "releaseRewardForRelayer(uint256)": "d8e25572",
    "releaseStake(uint256)": "45f54485"
  },
  "id": 46
}