{"abi":[{"type":"function","name":"addStake","inputs":[],"outputs":[],"stateMutability":"payable"},{"type":"function","name":"fund","inputs":[{"name":"subnetId","type":"tuple","internalType":"struct SubnetID","components":[{"name":"root","type":"uint64","internalType":"uint64"},{"name":"route","type":"address[]","internalType":"address[]"}]},{"name":"to","type":"tuple","internalType":"struct FvmAddress","components":[{"name":"addrType","type":"uint8","internalType":"uint8"},{"name":"payload","type":"bytes","internalType":"bytes"}]}],"outputs":[],"stateMutability":"payable"},{"type":"function","name":"kill","inputs":[],"outputs":[],"stateMutability":"nonpayable"},{"type":"function","name":"register","inputs":[{"name":"genesisCircSupply","type":"uint256","internalType":"uint256"}],"outputs":[],"stateMutability":"payable"},{"type":"function","name":"release","inputs":[{"name":"to","type":"tuple","internalType":"struct FvmAddress","components":[{"name":"addrType","type":"uint8","internalType":"uint8"},{"name":"payload","type":"bytes","internalType":"bytes"}]},{"name":"fee","type":"uint256","internalType":"uint256"}],"outputs":[],"stateMutability":"payable"},{"type":"function","name":"releaseRewardForRelayer","inputs":[{"name":"amount","type":"uint256","internalType":"uint256"}],"outputs":[],"stateMutability":"nonpayable"},{"type":"function","name":"releaseStake","inputs":[{"name":"amount","type":"uint256","internalType":"uint256"}],"outputs":[],"stateMutability":"nonpayable"},{"type":"event","name":"NewTopDownMessage","inputs":[{"name":"subnet","type":"address","indexed":true,"internalType":"address"},{"name":"message","type":"tuple","indexed":false,"internalType":"struct CrossMsg","components":[{"name":"message","type":"tuple","internalType":"struct StorableMsg","components":[{"name":"from","type":"tuple","internalType":"struct IPCAddress","components":[{"name":"subnetId","type":"tuple","internalType":"struct SubnetID","components":[{"name":"root","type":"uint64","internalType":"uint64"},{"name":"route","type":"address[]","internalType":"address[]"}]},{"name":"rawAddress","type":"tuple","internalType":"struct FvmAddress","components":[{"name":"addrType","type":"uint8","internalType":"uint8"},{"name":"payload","type":"bytes","internalType":"bytes"}]}]},{"name":"to","type":"tuple","internalType":"struct IPCAddress","components":[{"name":"subnetId","type":"tuple","internalType":"struct SubnetID","components":[{"name":"root","type":"uint64","internalType":"uint64"},{"name":"route","type":"address[]","internalType":"address[]"}]},{"name":"rawAddress","type":"tuple","internalType":"struct FvmAddress","components":[{"name":"addrType","type":"uint8","internalType":"uint8"},{"name":"payload","type":"bytes","internalType":"bytes"}]}]},{"name":"value","type":"uint256","internalType":"uint256"},{"name":"nonce","type":"uint64","internalType":"uint64"},{"name":"method","type":"bytes4","internalType":"bytes4"},{"name":"params","type":"bytes","internalType":"bytes"},{"name":"fee","type":"uint256","internalType":"uint256"}]},{"name":"wrapped","type":"bool","internalType":"bool"}]}],"anonymous":false},{"type":"error","name":"AlreadyRegisteredSubnet","inputs":[]},{"type":"error","name":"CallFailed","inputs":[]},{"type":"error","name":"CannotReleaseZero","inputs":[]},{"type":"error","name":"InsufficientFunds","inputs":[]},{"type":"error","name":"InvalidActorAddress","inputs":[]},{"type":"error","name":"InvalidCrossMsgValue","inputs":[]},{"type":"error","name":"NotEmptySubnetCircSupply","inputs":[]},{"type":"error","name":"NotEnoughCollateral","inputs":[]},{"type":"error","name":"NotEnoughFee","inputs":[]},{"type":"error","name":"NotEnoughFunds","inputs":[]},{"type":"error","name":"NotEnoughFundsToRelease","inputs":[]},{"type":"error","name":"NotRegisteredSubnet","inputs":[]},{"type":"error","name":"ReentrancyError","inputs":[]}],"bytecode":{"object":"0x6080806040523461001657611c2e908161001c8239f35b600080fdfe608080604052600436101561001357600080fd5b60003560e01c90816318f44b7014610f675750806341c0e1b514610df357806345f5448514610d3e5780635a627dbc14610cbb5780639ba5358014610458578063d8e25572146103185763f207564e1461006c57600080fd5b60208060031936011261028957600435908134106103065761008e82346118ce565b9160135483106102f5576100d9906100a4611712565b90600073__$a0fe38a9a81205afccc10810b09a4d3f45$__926040518095819263aa5106cb60e01b835233906004840161190d565b0381855af4928315610295576000936102d0575b506100f783611ae9565b906102be5760048101956001600160401b0396878651166001600160401b031982541617905560058201868601519081519189831161024c57908883926101448299979a98969584611898565b01906000528660002060005b8381106102a15750505050856002916101a3975560038101600160801b60ff60801b19825416179055436001820155015560405180809581946390ba52cf60e01b83528660048401526024830190611829565b03915af491821561029557600092610262575b5050601054600160401b81101561024c5760018101806010558110156102365760106000527f1b6847dc741a1b0cd08d278845f9d819d87b734759afb55fe2de5cb82a9ae67201556015549061021b6001600160401b0360881b918360881c16611935565b60881b1667ffffffffffffffff60881b199190911617601555005b634e487b7160e01b600052603260045260246000fd5b634e487b7160e01b600052604160045260246000fd5b90809250813d831161028e575b6102798183611395565b81010312610289575138806101b6565b600080fd5b503d61026f565b6040513d6000823e3d90fd5b82516001600160a01b0316818301558a9890920191600101610150565b604051631b538cdf60e11b8152600490fd5b6102ee9193503d806000833e6102e68183611395565b8101906118e8565b91386100ed565b60405162d11df360e61b8152600490fd5b604051631036b5ad60e31b8152600490fd5b346102895760208060031936011261028957600435907f691bb03ffc16c56fc96b82fd16cd1b3715f0bc3cdc6407005f49bb6205860095906001825414610446576001825582156104345761036c336119ff565b9015610422578161038260046103a393016117ac565b60405180938192632cff562160e11b83528460048401526024830190611829565b038173__$a0fe38a9a81205afccc10810b09a4d3f45$__5af4918215610295576000926103e4575b6000846103e1876001600160a01b038716611a99565b55005b90809250813d831161041b575b6103fb8183611395565b81010312610289576000926104126103e1926113ca565b918194506103cb565b503d6103f1565b604051630e991abd60e41b8152600490fd5b60405163c79cad7b60e01b8152600490fd5b6040516329f745a760e01b8152600490fd5b600319604036820112610289576004356001600160401b038111610289576040828236030112610289576024356014548110610ca957803410610306573415610c97576104a581346118ce565b9060405192632e82508d60e21b845260a0600485015260e48401946001600160401b036011541660a4860152604060c486015260125480965261010485019560126000527fbb8a6a4669ba250d26cd7a459eca9d215f8307e33aebe50379bc5a3617ec34449060005b818110610c785787600081808a8a6105398f8c8c3360248801528683030160448701526004016116a7565b9160648401526084830152038173__$33b79814e84bf6cf5e47244090b19ce5f8$__5af490811561029557600091610c55575b506001600160401b03601654168015610c3f576001600160401b036105948282431604611935565b16026001600160401b038116908103610c29576001600160401b0360155460081c16606083510152600052600a6020526040600020805490600160401b82101561024c5760018201808255821015610236576000526020600020908251805180516001600160401b038151166001600160401b0319600d86028701541617600d850286015560206001600d8602870101910151908151916001600160401b03831161024c576020906106468484611898565b0190600052602060002060005b838110610c0c5750505050602090816002600d86028701019101519060ff82511660ff1982541617905501518051906001600160401b03821161024c576003600d85028601015490600182811c92168015610c02575b6020831014610a395781601f849311610bc8575b50602090601f8311600114610b4c57600092610b41575b50508160011b916000199060031b1c1916176003600d8402850101555b60208181015180518051600d8602870160048101805467ffffffffffffffff19166001600160401b03938416179055919093015180519293600590920191831161024c576020906107428484611898565b0190600052602060002060005b838110610b245750505050602090816006600d86028701019101519060ff82511660ff1982541617905501518051906001600160401b03821161024c576007600d85028601015490600182811c92168015610b1a575b6020831014610a395781601f849311610ae0575b50602090601f8311600114610a6457600092610a59575b50508160011b916000199060031b1c1916176007600d8402850101555b60408101516008600d8402850101556009600d83028401016001600160401b036060830151168154906bffffffff0000000000000000608085015160a01c16916bffffffffffffffffffffffff191617179055600a600d830284010160a08201518051906001600160401b03821161024c578254600181811c91168015610a4f575b6020821014610a3957601f81116109fc575b50602090601f83116001146109885793600d9383600c979460c09460209a9860009261097d575b50508160011b916000199060031b1c19161790555b0151600b83830285010155020101910151151560ff8019835416911617905560155468ffffffffffffffff006108fe6001600160401b038360081c16611935565b60081b169068ffffffffffffffff0019161760155534471061096b5760008080803460635af13d15610966573d61093481611483565b906109426040519283611395565b8152600060203d92013e5b1561095457005b604051633204506f60e01b8152600490fd5b61094d565b60405163356680b760e01b8152600490fd5b015190508b806108a8565b90601f198316918460005260206000209260005b8181106109e457508460c09460209a9894600d9894600c9b98600195106109cb575b505050811b0190556108bd565b015160001960f88460031b161c191690558b80806109be565b9293602060018192878601518155019501930161099c565b610a2990846000526020600020601f850160051c81019160208610610a2f575b601f0160051c0190611881565b87610881565b9091508190610a1c565b634e487b7160e01b600052602260045260246000fd5b90607f169061086f565b0151905086806107d0565b92506007600d86028701016000526020600020906000935b601f1984168510610ac5576001945083601f19811610610aac575b505050811b016007600d8402850101556107ed565b015160001960f88460031b161c19169055868080610a97565b81810151835560209485019460019093019290910190610a7c565b610b14906007600d88028901016000526020600020601f850160051c81019160208610610a2f57601f0160051c0190611881565b876107b9565b91607f16916107a5565b82516001600160a01b03168183015560209092019160010161074f565b0151905086806106d4565b92506003600d86028701016000526020600020906000935b601f1984168510610bad576001945083601f19811610610b94575b505050811b016003600d8402850101556106f1565b015160001960f88460031b161c19169055868080610b7f565b81810151835560209485019460019093019290910190610b64565b610bfc906003600d88028901016000526020600020601f850160051c81019160208610610a2f57601f0160051c0190611881565b876106bd565b91607f16916106a9565b82516001600160a01b031681830155602090920191600101610653565b634e487b7160e01b600052601160045260246000fd5b634e487b7160e01b600052601260045260246000fd5b610c7291503d806000833e610c6a8183611395565b8101906115a2565b8161056c565b82546001600160a01b031689526020909801976001928301920161050e565b6040516360ec4e6b60e11b8152600490fd5b6040516334472ad760e11b8152600490fd5b600036600319011261028957341561030657610cd6336119ff565b9015610422576003610ce93483546118db565b91828155019081549060ff8260801c166006811015610d2857600214610d0b57005b6013541115610d17575b005b60ff60801b1916600160801b179055005b634e487b7160e01b600052602160045260246000fd5b346102895760208060031936011261028957600435907f691bb03ffc16c56fc96b82fd16cd1b3715f0bc3cdc6407005f49bb62058600959060018254146104465760018255821561043457610d92336119ff565b9015610422578054848110610de15761038260046103a393610db58887956118ce565b80825560135411610dc7575b016117ac565b60038101805460ff60801b1916600160811b179055610dc1565b6040516379b33e7960e01b8152600490fd5b3461028957600036600319011261028957610e0d336119ff565b9015610422576002810154610f5557805490601554906001600160401b0390600019828460881c1601918211610c295767ffffffffffffffff60881b1990921660889190911b67ffffffffffffffff60881b1617601555610e70906004016117ac565b90610e99604051926390ba52cf60e01b8452838060209384938460048401526024830190611829565b038173__$a0fe38a9a81205afccc10810b09a4d3f45$__5af4801561029557600090610f26575b610d1593506000526000815260056040600020600081556000600182015560006002820155600060038201556000600482015501908154906000835581610f0b575b50505033611a99565b610f1e9260005260002090810190611881565b828080610f02565b508083813d8311610f4e575b610f3c8183611395565b8101031261028957610d159251610ec0565b503d610f32565b604051637c67c70160e11b8152600490fd5b60031990604036830112610289576001600160401b0391600435838111610289578036036040838201126102895760249384359086821161028957604085833603011261028957341561136b5750604051926379185f5960e11b845260a0600485015260e484019281600401358881168091036102895760a48601528187013590602219018112156102895701856004820135910192878211610289578160051b3603841361028957908085939492604060c486015252610104830191906000905b8082106113395750505061105282916000943389850152878483030160448501526004016116a7565b346064830152836084830152038173__$33b79814e84bf6cf5e47244090b19ce5f8$__5af49081156102955760009161131e575b5060209182825101515173__$a0fe38a9a81205afccc10810b09a4d3f45$__916110c86040519263089032d560e01b8452604060048501526044840190611829565b908282030186830152816060604083019289601154168152604088820152601254809452019160126000527fbb8a6a4669ba250d26cd7a459eca9d215f8307e33aebe50379bc5a3617ec34449060005b888282106112fe5750505050806000920381855af4908115610295576000916112e3575b5061114681611ae9565b929015610422576111b39583600387950180548a61116c8183168060608c510152611935565b16906001600160401b031916179055611190600260408851015192019182546118db565b90556040518097819482936304e384ff60e21b8452876004850152830190611829565b03915af480156102955760009061128f575b7f392fae29c67f3b47710cb5b84d7a6fd08e0155a4f22565971f7159f12c6f7096935060405192839281845260c061126e8251986040858801526112168a5160e060608a0152610140890190611972565b611231868c015191605f1992838b83030160808c0152611972565b9160408c015160a08a015260608c0151168489015263ffffffff60e01b60808c01511660e089015260a08b0151908883030161010089015261194d565b9701516101208501520151151560408301526001600160a01b0316930390a2005b508183813d83116112dc575b6112a58183611395565b81010312610289576112d77f392fae29c67f3b47710cb5b84d7a6fd08e0155a4f22565971f7159f12c6f7096936113ca565b6111c5565b503d61129b565b6112f891503d806000833e6102e68183611395565b8661113c565b83546001600160a01b031686529094019385935060019283019201611118565b61133391503d806000833e610c6a8183611395565b84611086565b919493509184356001600160a01b03811691908290036102895760019181526020809101950192018593949291611029565b6360ec4e6b60e11b8152600490fd5b604081019081106001600160401b0382111761024c57604052565b90601f801991011681019081106001600160401b0382111761024c57604052565b51906001600160401b038216820361028957565b51906001600160a01b038216820361028957565b91909160408184031261028957604051926113f88461137a565b83611402836113b6565b8152602091828401516001600160401b0394858211610289570181601f8201121561028957805194851161024c578460051b906040519561144586840188611395565b865284808701928201019283116102895784809101915b83831061146b57505050500152565b8190611476846113ca565b815201910190849061145c565b6001600160401b03811161024c57601f01601f191660200190565b60005b8381106114b15750506000910152565b81810151838201526020016114a1565b81601f820112156102895780516114d781611483565b926114e56040519485611395565b8184526020828401011161028957611503916020808501910161149e565b90565b9190604083820312610289576040519261151f8461137a565b838151916001600160401b0392838111610289578461153f9183016113de565b8252602081015190838211610289570160408185031261028957604051936115668561137a565b815160ff8116810361028957855260208201519384116102895760209361158d92016114c1565b828401520152565b5190811515820361028957565b906020828203126102895781516001600160401b03928382116102895701916040928381840312610289578351936115d98561137a565b81518381116102895782019360e0858203126102895781519160e083018381108682111761024c57815285518581116102895782611618918801611506565b835260208601518581116102895782611632918801611506565b6020840152808601519083015261164b606086016113b6565b606083015260808501516001600160e01b03198116810361028957608083015260a0850151938411610289578461168b60c09260209661169f98016114c1565b60a0840152015160c0820152845201611595565b602082015290565b803560ff81168091036102895782526020810135601e1982360301811215610289570190602082359201916001600160401b038111610289578036038313610289578060609360406020850152816040850152848401376000828201840152601f01601f1916010190565b6040519061171f8261137a565b816001600160401b036011541681526040518091826012549283815260208091019360126000527fbb8a6a4669ba250d26cd7a459eca9d215f8307e33aebe50379bc5a3617ec3444916000905b8282106117895750505050611785906020930384611395565b0152565b83546001600160a01b03168752958601958794506001938401939091019061176c565b90604051916117ba8361137a565b826001600160401b0382541681526001809201916040519283849282548083526020809301936000526020600020926000905b82821061180857505050505060209291611785910384611395565b84546001600160a01b031686528896509485019493830193908301906117ed565b604082016001600160401b0382511683526020606081809401519460408382015285518094520193019160005b828110611864575050505090565b83516001600160a01b031685529381019392810192600101611856565b81811061188c575050565b60008155600101611881565b90600160401b811161024c578154908083558181106118b657505050565b6118cc9260005260206000209182019101611881565b565b91908203918211610c2957565b91908201809211610c2957565b906020828203126102895781516001600160401b0381116102895761150392016113de565b90611925602091949394604084526040840190611829565b6001600160a01b03909416910152565b9060016001600160401b0380931601918211610c2957565b906020916119668151809281855285808601910161149e565b601f01601f1916010190565b91908251906040815260808101936001600160401b038351166040830152602080930151946040606084015285518091528360a0840196019060005b8181106119e2575050509360408381938161150397980151908281860391015260ff8151168452015193820152019061194d565b82516001600160a01b0316885296850196918501916001016119ae565b6001600160a01b03811615611a87576000611a3791611a1c611712565b60405163aa5106cb60e01b815293849283926004840161190d565b038173__$a0fe38a9a81205afccc10810b09a4d3f45$__5af4801561029557611a6891600091611a6c575b50611ae9565b9091565b611a8191503d806000833e6102e68183611395565b38611a62565b6040516370e4510960e01b8152600490fd5b81471061096b576000918291829182916001600160a01b03165af13d15611ae4573d611ac481611483565b90611ad26040519283611395565b8152600060203d92013e5b1561095457565b611add565b611b2773__$a0fe38a9a81205afccc10810b09a4d3f45$__91604051906390ba52cf60e01b8252818060209485938460048401526024830190611829565b0381865af490811561029557600091611bcb575b5060005260008152611b7c81604060002093611b59600486016117ac565b906040518080958194630c133d1360e31b83528660048401526024830190611829565b03915af491821561029557600092611b95575b50501591565b90809250813d8311611bc4575b611bac8183611395565b8101031261028957611bbd90611595565b3880611b8f565b503d611ba2565b90508181813d8311611bf1575b611be28183611395565b81010312610289575138611b3b565b503d611bd856fea2646970667358221220e247ec77c29f04b365a289537e82160f39cef83c9d0d213a70eb8c22446067e164736f6c63430008160033","linkReferences":{"src/lib/CrossMsgHelper.sol":{"CrossMsgHelper":[{"start":1380,"length":20},{"start":4222,"length":20}]},"src/lib/SubnetIDHelper.sol":{"SubnetIDHelper":[{"start":197,"length":20},{"start":963,"length":20},{"start":3769,"length":20},{"start":4270,"length":20},{"start":6743,"length":20},{"start":6922,"length":20}]}}},"methodIdentifiers":{"addStake()":"5a627dbc","fund((uint64,address[]),(uint8,bytes))":"18f44b70","kill()":"41c0e1b5","register(uint256)":"f207564e","release((uint8,bytes),uint256)":"9ba53580","releaseRewardForRelayer(uint256)":"d8e25572","releaseStake(uint256)":"45f54485"},"id":45}