{"abi":[{"type":"function","name":"getGateway","inputs":[],"outputs":[{"name":"","type":"address","internalType":"address"}],"stateMutability":"view"},{"type":"function","name":"getSubnetDeployedByNonce","inputs":[{"name":"owner","type":"address","internalType":"address"},{"name":"nonce","type":"uint64","internalType":"uint64"}],"outputs":[{"name":"subnet","type":"address","internalType":"address"}],"stateMutability":"view"},{"type":"function","name":"getUserLastNonce","inputs":[{"name":"user","type":"address","internalType":"address"}],"outputs":[{"name":"nonce","type":"uint64","internalType":"uint64"}],"stateMutability":"view"},{"type":"function","name":"latestSubnetDeployed","inputs":[{"name":"owner","type":"address","internalType":"address"}],"outputs":[{"name":"subnet","type":"address","internalType":"address"}],"stateMutability":"view"},{"type":"error","name":"CannotFindSubnet","inputs":[]}],"bytecode":{"object":"0x608060405234801561001057600080fd5b50610265806100206000396000f3fe608060405234801561001057600080fd5b506004361061004c5760003560e01c8063030f6051146100515780631163dca5146100a257806342bf3cc1146100cd5780639836b75f146100de575b600080fd5b61008461005f3660046101c9565b6001600160a01b031660009081526006602052604090205467ffffffffffffffff1690565b60405167ffffffffffffffff90911681526020015b60405180910390f35b6100b56100b03660046101c9565b6100f1565b6040516001600160a01b039091168152602001610099565b6000546001600160a01b03166100b5565b6100b56100ec3660046101eb565b610159565b6001600160a01b038082166000908152600660209081526040808320546005835281842060001967ffffffffffffffff9283160191821685529092529091205490911690816101535760405163276e74a760e11b815260040160405180910390fd5b50919050565b6001600160a01b03808316600090815260056020908152604080832067ffffffffffffffff8616845290915290205416806101a75760405163276e74a760e11b815260040160405180910390fd5b92915050565b80356001600160a01b03811681146101c457600080fd5b919050565b6000602082840312156101db57600080fd5b6101e4826101ad565b9392505050565b600080604083850312156101fe57600080fd5b610207836101ad565b9150602083013567ffffffffffffffff8116811461022457600080fd5b80915050925092905056fea2646970667358221220896bdfc783daa32b3884a42a5e36bb55e5896e6e1c2db1f0e781301aaac2c70a64736f6c63430008160033","linkReferences":{}},"methodIdentifiers":{"getGateway()":"42bf3cc1","getSubnetDeployedByNonce(address,uint64)":"9836b75f","getUserLastNonce(address)":"030f6051","latestSubnetDeployed(address)":"1163dca5"},"id":77}