{"abi":[{"type":"function","name":"getGateway","inputs":[],"outputs":[{"name":"","type":"address","internalType":"address"}],"stateMutability":"view"},{"type":"function","name":"getSubnetDeployedByNonce","inputs":[{"name":"owner","type":"address","internalType":"address"},{"name":"nonce","type":"uint64","internalType":"uint64"}],"outputs":[{"name":"subnet","type":"address","internalType":"address"}],"stateMutability":"view"},{"type":"function","name":"getSubnetGetterFacet","inputs":[],"outputs":[{"name":"","type":"address","internalType":"address"}],"stateMutability":"view"},{"type":"function","name":"getSubnetGetterSelectors","inputs":[],"outputs":[{"name":"","type":"bytes4[]","internalType":"bytes4[]"}],"stateMutability":"view"},{"type":"function","name":"getSubnetManagerFacet","inputs":[],"outputs":[{"name":"","type":"address","internalType":"address"}],"stateMutability":"view"},{"type":"function","name":"getSubnetManagerSelectors","inputs":[],"outputs":[{"name":"","type":"bytes4[]","internalType":"bytes4[]"}],"stateMutability":"view"},{"type":"function","name":"getUserLastNonce","inputs":[{"name":"user","type":"address","internalType":"address"}],"outputs":[{"name":"nonce","type":"uint64","internalType":"uint64"}],"stateMutability":"view"},{"type":"function","name":"latestSubnetDeployed","inputs":[{"name":"owner","type":"address","internalType":"address"}],"outputs":[{"name":"subnet","type":"address","internalType":"address"}],"stateMutability":"view"},{"type":"function","name":"updateReferenceSubnetContract","inputs":[{"name":"newGetterFacet","type":"address","internalType":"address"},{"name":"newManagerFacet","type":"address","internalType":"address"},{"name":"newSubnetGetterSelectors","type":"bytes4[]","internalType":"bytes4[]"},{"name":"newSubnetManagerSelectors","type":"bytes4[]","internalType":"bytes4[]"}],"outputs":[],"stateMutability":"nonpayable"},{"type":"error","name":"CannotFindSubnet","inputs":[]},{"type":"error","name":"NotOwner","inputs":[]}],"bytecode":{"object":"0x6080806040523461001657610c00908161001c8239f35b600080fdfe608060408181526004918236101561001657600080fd5b60009260e0908435821c928363030f605114610aa4575082631163dca514610a3f578263408dac391461092357826342bf3cc1146108fa5782635aa0ec61146108d0578263954d6ccc146106ae5782639836b75f1461063b578263a46d044d146100b657505063e144ed821461008b57600080fd5b346100b257816003193601126100b25760015490516001600160a01b039091168152602090f35b5080fd5b91509134610637576080366003190112610637576100d2610ae4565b6024926001600160a01b0391843583811691908290036106335767ffffffffffffffff9060443582811161062f5761010d9036908601610b44565b97909260643581811161062b576101279036908801610b44565b979093817f806e0cbb9fce296bbc336a48f42bf1dbc69722d18d90d6fe705b7582c2bb4bd55416330361061b57169788156105da57851561059957891561054a5787156104fa57506bffffffffffffffffffffffff60a01b94600198868a5416178955600295865416178555808911610393576801000000000000000090818a116104e8576003948a8654818855808210610462575b50508c909a86825280871c90825b82811061041357506007199c818e1690910390816103a5575b505050508711610393578611610382575090849184548386558084106102f6575b509389521c94875b868110610294575083168084039303610224578680f35b9486939291939587915b83831061025657505050505050600080516020610bab83398151915201553880808080808680f35b909192936020610287879961026b8499610b75565b851c9087871b60031b9163ffffffff809116831b921b19161790565b980195949301919061022e565b8590898a5b600881106102ba575081600080516020610bab83398151915201550161020d565b959192906102e96020916102cd85610b75565b8d1c9089891b60031b9163ffffffff809116831b921b19161790565b9201950190879291610299565b909192600701831c6007600080516020610bab8339815191529201841c820191601c88871b1680610348575b5087949392918991015b82811061033a575050610205565b8c815588955089910161032c565b7f8a35acfbc15ff81a39ae7d344fd709f28e8600b4aa8c65c6b64bfe7fe36bd19a83019081549060001990602003881b1c16905538610322565b634e487b7160e01b8a526041855289fd5b50634e487b7160e01b8a526041855289fd5b908e8d8b86925b8484106103d357505050505050600080516020610b8b83398151915201558b3880806101e4565b90859784610403936103e9602096979899610b75565b901c921b60031b9163ffffffff809116831b921b19161790565b950191018f8b8f919493946103ac565b9091928e81905b60088210610441575050600080516020610b8b8339815191528201558e9291908c016101cb565b819f928f92610458918e916020946103e988610b75565b92019e018f61041a565b60078201881c90601c6007600080516020610b8b83398151915292018a1c8201938b1b16806104ae575b508c91018f5b8382106104a35750508c91506101bd565b8155018b908f610492565b7fc2575a0e9e593c00f959f8c92f12db2869c3395a3b0502d05e2516446f71f85a830190815490600019906020038c1b1c1690553861048c565b634e487b7160e01b8c5260418752828cfd5b5162461bcd60e51b81526020818801526026818401527f5375626e65744d616e6167657253656c6563746f72732063616e6e6f7420626560448201526520656d70747960d01b6064820152608490fd5b5162461bcd60e51b81526020818801526025818401527f5375626e657447657474657253656c6563746f72732063616e6e6f7420626520604482015264656d70747960d81b6064820152608490fd5b5162461bcd60e51b8152602081880152601c818401527f496e76616c6964206d616e6167657246616365742061646472657373000000006044820152606490fd5b5162461bcd60e51b8152602081880152601b818401527f496e76616c6964206765747465724661636574206164647265737300000000006044820152606490fd5b89516330cd747160e01b81528890fd5b8b80fd5b8980fd5b8780fd5b8380fd5b8385346106ab57816003193601126106ab57610655610ae4565b9060243567ffffffffffffffff81168091036100b2576001600160a01b0392831682526005602090815284832091835252829020541690811561069c576020925051908152f35b5163276e74a760e11b81529050fd5b80fd5b848285346108cc57826003193601126108cc57805180926003549081835260208093019160038752600080516020610b8b8339815191528488915b83600784011061085f575493838310610842575b50828210610824575b828210610806575b8282106107e8575b8282106107ca575b8282106107ae575b828210610792575b501061077e575b50839003601f01601f1916830193905067ffffffffffffffff84118385101761076b5750829182610767925282610aff565b0390f35b634e487b7160e01b815260418552602490fd5b6001600160e01b0319168152018086610735565b83811b6001600160e01b0319168552909301926001018461072e565b83871b6001600160e01b03191685529093019260010184610726565b606084901b6001600160e01b0319168552909301926001018461071e565b608084901b6001600160e01b03191685529093019260010184610716565b60a084901b6001600160e01b0319168552909301926001018461070e565b60c084901b6001600160e01b03191685529093019260010184610706565b84901b6001600160e01b031916855290930192600101848a6106fd565b9460089150610100600191875463ffffffff60e01b9081818a1b16835260c08282821b168c8501528c838360a0928282851b16818901526080838360608282851b16818d01521b16908901521b169085015282828d1b1690840152168782015201950191019085906106e9565b8280fd5b505050346100b257816003193601126100b25760025490516001600160a01b039091168152602090f35b505050346100b257816003193601126100b257905490516001600160a01b039091168152602090f35b848285346108cc57826003193601126108cc5780518092855490818352602080930191878752600080516020610bab8339815191528488915b8360078401106109d2575493838310610842575082821061082457828210610806578282106107e8578282106107ca578282106107ae5782821061079257501061077e5750839003601f01601f1916830193905067ffffffffffffffff84118385101761076b5750829182610767925282610aff565b9460089150610100600191875463ffffffff60e01b9081818a1b16835260c08282821b168c8501528c838360a0928282851b16818901526080838360608282851b16818d01521b16908901521b169085015282828d1b16908401521687820152019501910190859061095c565b8385346106ab5760203660031901126106ab576001600160a01b0390829082610a66610ae4565b168152600660205267ffffffffffffffff6000198184842054160116600560205282822090825260205220541690811561069c576020925051908152f35b859085346108cc5760203660031901126108cc5760209267ffffffffffffffff91906001600160a01b03610ad6610ae4565b168152600685522054168152f35b600435906001600160a01b0382168203610afa57565b600080fd5b6020908160408183019282815285518094520193019160005b828110610b26575050505090565b83516001600160e01b03191685529381019392810192600101610b18565b9181601f84011215610afa5782359167ffffffffffffffff8311610afa576020808501948460051b010111610afa57565b356001600160e01b031981168103610afa579056fec2575a0e9e593c00f959f8c92f12db2869c3395a3b0502d05e2516446f71f85b8a35acfbc15ff81a39ae7d344fd709f28e8600b4aa8c65c6b64bfe7fe36bd19ba2646970667358221220e75e29c9ea6ad19403c0f96a13bf8f9169b34124c5b5ad580e827e32230181b964736f6c63430008130033","linkReferences":{}},"methodIdentifiers":{"getGateway()":"42bf3cc1","getSubnetDeployedByNonce(address,uint64)":"9836b75f","getSubnetGetterFacet()":"e144ed82","getSubnetGetterSelectors()":"954d6ccc","getSubnetManagerFacet()":"5aa0ec61","getSubnetManagerSelectors()":"408dac39","getUserLastNonce(address)":"030f6051","latestSubnetDeployed(address)":"1163dca5","updateReferenceSubnetContract(address,address,bytes4[],bytes4[])":"a46d044d"},"id":77}