{
  "abi": [
    {
      "inputs": [],
      "name": "CannotFindSubnet",
      "type": "error"
    },
    {
      "inputs": [
        {
          "internalType": "address",
          "name": "owner",
          "type": "address"
        },
        {
          "internalType": "uint64",
          "name": "nonce",
          "type": "uint64"
        }
      ],
      "name": "getSubnetDeployedByNonce",
      "outputs": [
        {
          "internalType": "address",
          "name": "subnet",
          "type": "address"
        }
      ],
      "stateMutability": "view",
      "type": "function"
    },
    {
      "inputs": [
        {
          "internalType": "address",
          "name": "owner",
          "type": "address"
        }
      ],
      "name": "latestSubnetDeployed",
      "outputs": [
        {
          "internalType": "address",
          "name": "subnet",
          "type": "address"
        }
      ],
      "stateMutability": "view",
      "type": "function"
    }
  ],
  "bytecode": {
    "object": "0x608060405234801561001057600080fd5b506101f1806100206000396000f3fe608060405234801561001057600080fd5b50600436106100365760003560e01c80631163dca51461003b5780639836b75f1461006a575b600080fd5b61004e610049366004610155565b61007d565b6040516001600160a01b03909116815260200160405180910390f35b61004e610078366004610177565b6100e5565b6001600160a01b038082166000908152600660209081526040808320546005835281842060001967ffffffffffffffff9283160191821685529092529091205490911690816100df5760405163276e74a760e11b815260040160405180910390fd5b50919050565b6001600160a01b03808316600090815260056020908152604080832067ffffffffffffffff8616845290915290205416806101335760405163276e74a760e11b815260040160405180910390fd5b92915050565b80356001600160a01b038116811461015057600080fd5b919050565b60006020828403121561016757600080fd5b61017082610139565b9392505050565b6000806040838503121561018a57600080fd5b61019383610139565b9150602083013567ffffffffffffffff811681146101b057600080fd5b80915050925092905056fea264697066735822122045db9cfce91cb50eb101270b0e2dc75889cd3a3399dd814506ad5c91c6151fb464736f6c63430008130033",
    "linkReferences": {}
  },
  "methodIdentifiers": {
    "getSubnetDeployedByNonce(address,uint64)": "9836b75f",
    "latestSubnetDeployed(address)": "1163dca5"
  },
  "id": 72
}