{"abi":[{"type":"function","name":"getGateway","inputs":[],"outputs":[{"name":"","type":"address","internalType":"address"}],"stateMutability":"view"},{"type":"function","name":"getSubnetDeployedByNonce","inputs":[{"name":"owner","type":"address","internalType":"address"},{"name":"nonce","type":"uint64","internalType":"uint64"}],"outputs":[{"name":"subnet","type":"address","internalType":"address"}],"stateMutability":"view"},{"type":"function","name":"getSubnetGetterFacet","inputs":[],"outputs":[{"name":"","type":"address","internalType":"address"}],"stateMutability":"view"},{"type":"function","name":"getSubnetGetterSelectors","inputs":[],"outputs":[{"name":"","type":"bytes4[]","internalType":"bytes4[]"}],"stateMutability":"view"},{"type":"function","name":"getSubnetManagerFacet","inputs":[],"outputs":[{"name":"","type":"address","internalType":"address"}],"stateMutability":"view"},{"type":"function","name":"getSubnetManagerSelectors","inputs":[],"outputs":[{"name":"","type":"bytes4[]","internalType":"bytes4[]"}],"stateMutability":"view"},{"type":"function","name":"getUserLastNonce","inputs":[{"name":"user","type":"address","internalType":"address"}],"outputs":[{"name":"nonce","type":"uint64","internalType":"uint64"}],"stateMutability":"view"},{"type":"function","name":"latestSubnetDeployed","inputs":[{"name":"owner","type":"address","internalType":"address"}],"outputs":[{"name":"subnet","type":"address","internalType":"address"}],"stateMutability":"view"},{"type":"function","name":"updateReferenceSubnetContract","inputs":[{"name":"newGetterFacet","type":"address","internalType":"address"},{"name":"newManagerFacet","type":"address","internalType":"address"},{"name":"newSubnetGetterSelectors","type":"bytes4[]","internalType":"bytes4[]"},{"name":"newSubnetManagerSelectors","type":"bytes4[]","internalType":"bytes4[]"}],"outputs":[],"stateMutability":"nonpayable"},{"type":"error","name":"CannotFindSubnet","inputs":[]},{"type":"error","name":"FacetCannotBeZero","inputs":[]},{"type":"error","name":"NotOwner","inputs":[]}],"bytecode":{"object":"0x6080806040523461001657610ade908161001c8239f35b600080fdfe608060408181526004918236101561001657600080fd5b60009260e0908435821c928363030f605114610982575082631163dca51461091d578263408dac391461080157826342bf3cc1146107d85782635aa0ec61146107ae578263954d6ccc1461058c5782639836b75f14610519578263a46d044d146100b657505063e144ed821461008b57600080fd5b346100b257816003193601126100b25760015490516001600160a01b039091168152602090f35b5080fd5b91509134610515576080366003190112610515576100d26109c2565b916001600160a01b0390602435828116908190036105115767ffffffffffffffff60443581811161050d5761010a9036908501610a22565b969091606435818111610509576101249036908701610a22565b969092817f806e0cbb9fce296bbc336a48f42bf1dbc69722d18d90d6fe705b7582c2bb4bd5541633036104f957169687156104ea5784156104ea57506bffffffffffffffffffffffff60a01b93600197858954161788556002948554161784558088116103835768010000000000000000908189116104d75760039384548a8655808b10610453575b508b909985825280861c90825b82811061040457506007199b818d169091039081610396575b5050505086116103835785116103705790849184548386558084106102e4575b509389521c94875b868110610282575083168084039303610212578680f35b9486939291939587915b83831061024457505050505050600080516020610a8983398151915201553880808080808680f35b90919293602061027587996102598499610a53565b851c9087871b60031b9163ffffffff809116831b921b19161790565b980195949301919061021c565b8590898a5b600881106102a8575081600080516020610a898339815191520155016101fb565b959192906102d76020916102bb85610a53565b8d1c9089891b60031b9163ffffffff809116831b921b19161790565b9201950190879291610287565b909192600701831c6007600080516020610a898339815191529201841c820191601c88871b1680610336575b5087949392918991015b8281106103285750506101f3565b8c815588955089910161031a565b7f8a35acfbc15ff81a39ae7d344fd709f28e8600b4aa8c65c6b64bfe7fe36bd19a83019081549060001990602003881b1c16905538610310565b634e487b7160e01b895260418452602489fd5b634e487b7160e01b8a526041855260248afd5b908d8c8a86925b8484106103c457505050505050600080516020610a6983398151915201558a3880806101d3565b908597846103f4936103da602096979899610a53565b901c921b60031b9163ffffffff809116831b921b19161790565b950191018c8f8b9094939461039d565b9091928d81905b60088210610432575050600080516020610a698339815191528201558d9291908b016101ba565b610449829f938f93908d916020946103da88610a53565b92019d018e61040b565b60078b01861c6007600080516020610a698339815191529201871c820191601c8d8a1b168061049d575b508b91018e5b838210610492575050506101ad565b8155018a908e610483565b7fc2575a0e9e593c00f959f8c92f12db2869c3395a3b0502d05e2516446f71f85a830190815490600019906020038b1b1c1690553861047d565b634e487b7160e01b8b526041865260248bfd5b516307a0435160e51b81528590fd5b88516330cd747160e01b81528790fd5b8a80fd5b8880fd5b8680fd5b8380fd5b8385346105895781600319360112610589576105336109c2565b9060243567ffffffffffffffff81168091036100b2576001600160a01b0392831682526005602090815284832091835252829020541690811561057a576020925051908152f35b5163276e74a760e11b81529050fd5b80fd5b848285346107aa57826003193601126107aa57805180926003549081835260208093019160038752600080516020610a698339815191528488915b83600784011061073d575493838310610720575b50828210610702575b8282106106e4575b8282106106c6575b8282106106a8575b82821061068c575b828210610670575b501061065c575b50839003601f01601f1916830193905067ffffffffffffffff84118385101761064957508291826106459252826109dd565b0390f35b634e487b7160e01b815260418552602490fd5b6001600160e01b0319168152018086610613565b83811b6001600160e01b0319168552909301926001018461060c565b83871b6001600160e01b03191685529093019260010184610604565b606084901b6001600160e01b031916855290930192600101846105fc565b608084901b6001600160e01b031916855290930192600101846105f4565b60a084901b6001600160e01b031916855290930192600101846105ec565b60c084901b6001600160e01b031916855290930192600101846105e4565b84901b6001600160e01b031916855290930192600101848a6105db565b9460089150610100600191875463ffffffff60e01b9081818a1b16835260c08282821b168c8501528c838360a0928282851b16818901526080838360608282851b16818d01521b16908901521b169085015282828d1b1690840152168782015201950191019085906105c7565b8280fd5b505050346100b257816003193601126100b25760025490516001600160a01b039091168152602090f35b505050346100b257816003193601126100b257905490516001600160a01b039091168152602090f35b848285346107aa57826003193601126107aa5780518092855490818352602080930191878752600080516020610a898339815191528488915b8360078401106108b05754938383106107205750828210610702578282106106e4578282106106c6578282106106a85782821061068c5782821061067057501061065c5750839003601f01601f1916830193905067ffffffffffffffff84118385101761064957508291826106459252826109dd565b9460089150610100600191875463ffffffff60e01b9081818a1b16835260c08282821b168c8501528c838360a0928282851b16818901526080838360608282851b16818d01521b16908901521b169085015282828d1b16908401521687820152019501910190859061083a565b838534610589576020366003190112610589576001600160a01b03908290826109446109c2565b168152600660205267ffffffffffffffff6000198184842054160116600560205282822090825260205220541690811561057a576020925051908152f35b859085346107aa5760203660031901126107aa5760209267ffffffffffffffff91906001600160a01b036109b46109c2565b168152600685522054168152f35b600435906001600160a01b03821682036109d857565b600080fd5b6020908160408183019282815285518094520193019160005b828110610a04575050505090565b83516001600160e01b031916855293810193928101926001016109f6565b9181601f840112156109d85782359167ffffffffffffffff83116109d8576020808501948460051b0101116109d857565b356001600160e01b0319811681036109d8579056fec2575a0e9e593c00f959f8c92f12db2869c3395a3b0502d05e2516446f71f85b8a35acfbc15ff81a39ae7d344fd709f28e8600b4aa8c65c6b64bfe7fe36bd19ba26469706673582212201cb6b61b35fbeb2c1613369278fb9fb2a9579461bbb6cc63c39c77e2853ea21c64736f6c63430008130033","linkReferences":{}},"methodIdentifiers":{"getGateway()":"42bf3cc1","getSubnetDeployedByNonce(address,uint64)":"9836b75f","getSubnetGetterFacet()":"e144ed82","getSubnetGetterSelectors()":"954d6ccc","getSubnetManagerFacet()":"5aa0ec61","getSubnetManagerSelectors()":"408dac39","getUserLastNonce(address)":"030f6051","latestSubnetDeployed(address)":"1163dca5","updateReferenceSubnetContract(address,address,bytes4[],bytes4[])":"a46d044d"},"id":77}