{
  "abi": [
    {
      "inputs": [],
      "name": "CannotFindSubnet",
      "type": "error"
    },
    {
      "inputs": [],
      "name": "getGateway",
      "outputs": [
        {
          "internalType": "address",
          "name": "",
          "type": "address"
        }
      ],
      "stateMutability": "view",
      "type": "function"
    },
    {
      "inputs": [
        {
          "internalType": "address",
          "name": "owner",
          "type": "address"
        },
        {
          "internalType": "uint64",
          "name": "nonce",
          "type": "uint64"
        }
      ],
      "name": "getSubnetDeployedByNonce",
      "outputs": [
        {
          "internalType": "address",
          "name": "subnet",
          "type": "address"
        }
      ],
      "stateMutability": "view",
      "type": "function"
    },
    {
      "inputs": [
        {
          "internalType": "address",
          "name": "user",
          "type": "address"
        }
      ],
      "name": "getUserLastNonce",
      "outputs": [
        {
          "internalType": "uint64",
          "name": "nonce",
          "type": "uint64"
        }
      ],
      "stateMutability": "view",
      "type": "function"
    },
    {
      "inputs": [
        {
          "internalType": "address",
          "name": "owner",
          "type": "address"
        }
      ],
      "name": "latestSubnetDeployed",
      "outputs": [
        {
          "internalType": "address",
          "name": "subnet",
          "type": "address"
        }
      ],
      "stateMutability": "view",
      "type": "function"
    }
  ],
  "bytecode": {
    "object": "0x60808060405234610016576101e3908161001c8239f35b600080fdfe6080604090808252600436101561001557600080fd5b600090813560e01c908163030f60511461014e575080631163dca5146100ec57806342bf3cc1146100c457639836b75f1461004f57600080fd5b346100c157816003193601126100c157610067610192565b9060243567ffffffffffffffff81168091036100bd576001600160a01b0392831682526005602090815284832091835252829020541680156100ac5760209151908152f35b815163276e74a760e11b8152600490fd5b5080fd5b80fd5b5090346100bd57816003193601126100bd57905490516001600160a01b039091168152602090f35b50346100c15760203660031901126100c1576001600160a01b0390829082610112610192565b168152600660205267ffffffffffffffff6000198184842054160116600560205282822090825260205220541680156100ac5760209151908152f35b9050823461018e57602036600319011261018e5760209267ffffffffffffffff91906001600160a01b03610180610192565b168152600685522054168152f35b8280fd5b600435906001600160a01b03821682036101a857565b600080fdfea2646970667358221220805bf5ab2fc2e63825877bb5d3de7c7b9d80335abbed7420e5d412cf4e81781e64736f6c63430008130033",
    "linkReferences": {}
  },
  "methodIdentifiers": {
    "getGateway()": "42bf3cc1",
    "getSubnetDeployedByNonce(address,uint64)": "9836b75f",
    "getUserLastNonce(address)": "030f6051",
    "latestSubnetDeployed(address)": "1163dca5"
  },
  "id": 77
}