{"abi":[{"type":"function","name":"facetAddress","inputs":[{"name":"_functionSelector","type":"bytes4","internalType":"bytes4"}],"outputs":[{"name":"facetAddress_","type":"address","internalType":"address"}],"stateMutability":"view"},{"type":"function","name":"facetAddresses","inputs":[],"outputs":[{"name":"facetAddresses_","type":"address[]","internalType":"address[]"}],"stateMutability":"view"},{"type":"function","name":"facetFunctionSelectors","inputs":[{"name":"_facet","type":"address","internalType":"address"}],"outputs":[{"name":"_facetFunctionSelectors","type":"bytes4[]","internalType":"bytes4[]"}],"stateMutability":"view"},{"type":"function","name":"facets","inputs":[],"outputs":[{"name":"facets_","type":"tuple[]","internalType":"struct IDiamondLoupe.Facet[]","components":[{"name":"facetAddress","type":"address","internalType":"address"},{"name":"functionSelectors","type":"bytes4[]","internalType":"bytes4[]"}]}],"stateMutability":"view"},{"type":"function","name":"supportsInterface","inputs":[{"name":"_interfaceId","type":"bytes4","internalType":"bytes4"}],"outputs":[{"name":"","type":"bool","internalType":"bool"}],"stateMutability":"view"}],"bytecode":{"object":"0x608060405234801561001057600080fd5b50610a3f806100206000396000f3fe608060405234801561001057600080fd5b50600436106100575760003560e01c806301ffc9a71461005c57806352ef6b2c146100bd5780637a0ed627146100d2578063adfca15e146100e7578063cdffacc614610107575b600080fd5b6100a861006a3660046107ee565b6001600160e01b03191660009081527f806e0cbb9fce296bbc336a48f42bf1dbc69722d18d90d6fe705b7582c2bb4bd4602052604090205460ff1690565b60405190151581526020015b60405180910390f35b6100c561015f565b6040516100b4919061081f565b6100da6102ea565b6040516100b491906108b2565b6100fa6100f5366004610931565b6106b2565b6040516100b4919061095a565b6101476101153660046107ee565b6001600160e01b03191660009081526000805160206109ea83398151915260205260409020546001600160a01b031690565b6040516001600160a01b0390911681526020016100b4565b7f806e0cbb9fce296bbc336a48f42bf1dbc69722d18d90d6fe705b7582c2bb4bd3546060906000805160206109ea833981519152908067ffffffffffffffff8111156101ad576101ad61096d565b6040519080825280602002602001820160405280156101d6578160200160208202803683370190505b5092506000805b828110156102e05760008460010182815481106101fc576101fc610983565b6000918252602080832060088304015460079092166004026101000a90910460e01b6001600160e01b0319811683529087905260408220549092506001600160a01b031690805b8581101561028e5788818151811061025d5761025d610983565b60200260200101516001600160a01b0316836001600160a01b031603610286576001915061028e565b600101610243565b50801561029e57506102d8915050565b818886815181106102b1576102b1610983565b6001600160a01b03909216602092830291909101909101526102d2856109af565b94505050505b6001016101dd565b5080845250505090565b7f806e0cbb9fce296bbc336a48f42bf1dbc69722d18d90d6fe705b7582c2bb4bd3546060906000805160206109ea833981519152908067ffffffffffffffff8111156103385761033861096d565b60405190808252806020026020018201604052801561037e57816020015b6040805180820190915260008152606060208201528152602001906001900390816103565790505b50925060008167ffffffffffffffff81111561039c5761039c61096d565b6040519080825280602002602001820160405280156103c5578160200160208202803683370190505b5090506000805b8381101561064a5760008560010182815481106103eb576103eb610983565b6000918252602080832060088304015460079092166004026101000a90910460e01b6001600160e01b0319811683529088905260408220549092506001600160a01b031690805b8581101561051a57826001600160a01b03168a828151811061045657610456610983565b6020026020010151600001516001600160a01b03160361051257838a828151811061048357610483610983565b6020026020010151602001518883815181106104a1576104a1610983565b602002602001015161ffff16815181106104bd576104bd610983565b60200260200101906001600160e01b03191690816001600160e01b031916815250508681815181106104f1576104f1610983565b602002602001018051610503906109c8565b61ffff1690526001915061051a565b600101610432565b50801561052a5750610642915050565b8189868151811061053d5761053d610983565b60209081029190910101516001600160a01b0390911690528667ffffffffffffffff81111561056e5761056e61096d565b604051908082528060200260200182016040528015610597578160200160208202803683370190505b508986815181106105aa576105aa610983565b602002602001015160200181905250828986815181106105cc576105cc610983565b6020026020010151602001516000815181106105ea576105ea610983565b60200260200101906001600160e01b03191690816001600160e01b03191681525050600186868151811061062057610620610983565b61ffff9092166020928302919091019091015261063c856109af565b94505050505b6001016103cc565b5060005b818110156106a757600083828151811061066a5761066a610983565b602002602001015161ffff169050600087838151811061068c5761068c610983565b6020908102919091018101510151919091525060010161064e565b508085525050505090565b7f806e0cbb9fce296bbc336a48f42bf1dbc69722d18d90d6fe705b7582c2bb4bd3546060906000805160206109ea8339815191529060008167ffffffffffffffff8111156107025761070261096d565b60405190808252806020026020018201604052801561072b578160200160208202803683370190505b50935060005b828110156107e357600084600101828154811061075057610750610983565b6000918252602080832060088304015460079092166004026101000a90910460e01b6001600160e01b031981168352908790526040909120549091506001600160a01b039081169088168190036107d957818785815181106107b4576107b4610983565b6001600160e01b0319909216602092830291909101909101526107d6846109af565b93505b5050600101610731565b508352509092915050565b60006020828403121561080057600080fd5b81356001600160e01b03198116811461081857600080fd5b9392505050565b6020808252825182820181905260009190848201906040850190845b818110156108605783516001600160a01b03168352928401929184019160010161083b565b50909695505050505050565b60008151808452602080850194506020840160005b838110156108a75781516001600160e01b03191687529582019590820190600101610881565b509495945050505050565b600060208083018184528085518083526040925060408601915060408160051b87010184880160005b8381101561092357888303603f19018552815180516001600160a01b031684528701518784018790526109108785018261086c565b95880195935050908601906001016108db565b509098975050505050505050565b60006020828403121561094357600080fd5b81356001600160a01b038116811461081857600080fd5b602081526000610818602083018461086c565b634e487b7160e01b600052604160045260246000fd5b634e487b7160e01b600052603260045260246000fd5b634e487b7160e01b600052601160045260246000fd5b6000600182016109c1576109c1610999565b5060010190565b600061ffff8083168181036109df576109df610999565b600101939250505056fe806e0cbb9fce296bbc336a48f42bf1dbc69722d18d90d6fe705b7582c2bb4bd2a26469706673582212208c6542be90f1438439c37423a08a64e70646f336dd0b6aaaa8155abb282fb99064736f6c63430008160033","linkReferences":{}},"methodIdentifiers":{"facetAddress(bytes4)":"cdffacc6","facetAddresses()":"52ef6b2c","facetFunctionSelectors(address)":"adfca15e","facets()":"7a0ed627","supportsInterface(bytes4)":"01ffc9a7"},"id":33}