{
  "abi": [
    {
      "inputs": [
        {
          "internalType": "address",
          "name": "_gateway",
          "type": "address"
        },
        {
          "internalType": "address",
          "name": "_getterFacet",
          "type": "address"
        },
        {
          "internalType": "address",
          "name": "_managerFacet",
          "type": "address"
        },
        {
          "internalType": "bytes4[]",
          "name": "_subnetGetterSelectors",
          "type": "bytes4[]"
        },
        {
          "internalType": "bytes4[]",
          "name": "_subnetManagerSelectors",
          "type": "bytes4[]"
        }
      ],
      "stateMutability": "nonpayable",
      "type": "constructor"
    },
    {
      "inputs": [],
      "name": "CannotFindSubnet",
      "type": "error"
    },
    {
      "inputs": [],
      "name": "FacetCannotBeZero",
      "type": "error"
    },
    {
      "inputs": [],
      "name": "GatewayCannotBeZero",
      "type": "error"
    },
    {
      "inputs": [],
      "name": "ReentrancyGuardReentrantCall",
      "type": "error"
    },
    {
      "inputs": [],
      "name": "UnknownSubnet",
      "type": "error"
    },
    {
      "inputs": [],
      "name": "WrongGateway",
      "type": "error"
    },
    {
      "anonymous": false,
      "inputs": [
        {
          "indexed": false,
          "internalType": "address",
          "name": "subnetAddr",
          "type": "address"
        }
      ],
      "name": "SubnetDeployed",
      "type": "event"
    },
    {
      "inputs": [],
      "name": "GATEWAY",
      "outputs": [
        {
          "internalType": "address",
          "name": "",
          "type": "address"
        }
      ],
      "stateMutability": "view",
      "type": "function"
    },
    {
      "inputs": [],
      "name": "SUBNET_GETTER_FACET",
      "outputs": [
        {
          "internalType": "address",
          "name": "",
          "type": "address"
        }
      ],
      "stateMutability": "view",
      "type": "function"
    },
    {
      "inputs": [],
      "name": "SUBNET_MANAGER_FACET",
      "outputs": [
        {
          "internalType": "address",
          "name": "",
          "type": "address"
        }
      ],
      "stateMutability": "view",
      "type": "function"
    },
    {
      "inputs": [
        {
          "internalType": "address",
          "name": "owner",
          "type": "address"
        },
        {
          "internalType": "uint64",
          "name": "nonce",
          "type": "uint64"
        }
      ],
      "name": "getSubnetDeployedByNonce",
      "outputs": [
        {
          "internalType": "address",
          "name": "subnet",
          "type": "address"
        }
      ],
      "stateMutability": "view",
      "type": "function"
    },
    {
      "inputs": [
        {
          "internalType": "address",
          "name": "owner",
          "type": "address"
        }
      ],
      "name": "latestSubnetDeployed",
      "outputs": [
        {
          "internalType": "address",
          "name": "subnet",
          "type": "address"
        }
      ],
      "stateMutability": "view",
      "type": "function"
    },
    {
      "inputs": [
        {
          "components": [
            {
              "components": [
                {
                  "internalType": "uint64",
                  "name": "root",
                  "type": "uint64"
                },
                {
                  "internalType": "address[]",
                  "name": "route",
                  "type": "address[]"
                }
              ],
              "internalType": "struct SubnetID",
              "name": "parentId",
              "type": "tuple"
            },
            {
              "internalType": "address",
              "name": "ipcGatewayAddr",
              "type": "address"
            },
            {
              "internalType": "enum ConsensusType",
              "name": "consensus",
              "type": "uint8"
            },
            {
              "internalType": "uint256",
              "name": "minActivationCollateral",
              "type": "uint256"
            },
            {
              "internalType": "uint64",
              "name": "minValidators",
              "type": "uint64"
            },
            {
              "internalType": "uint64",
              "name": "bottomUpCheckPeriod",
              "type": "uint64"
            },
            {
              "internalType": "uint8",
              "name": "majorityPercentage",
              "type": "uint8"
            },
            {
              "internalType": "uint16",
              "name": "activeValidatorsLimit",
              "type": "uint16"
            },
            {
              "internalType": "uint256",
              "name": "minCrossMsgFee",
              "type": "uint256"
            },
            {
              "internalType": "int8",
              "name": "powerScale",
              "type": "int8"
            }
          ],
          "internalType": "struct SubnetActorDiamond.ConstructorParams",
          "name": "_params",
          "type": "tuple"
        }
      ],
      "name": "newSubnetActor",
      "outputs": [
        {
          "internalType": "address",
          "name": "subnetAddr",
          "type": "address"
        }
      ],
      "stateMutability": "nonpayable",
      "type": "function"
    },
    {
      "inputs": [
        {
          "internalType": "uint256",
          "name": "",
          "type": "uint256"
        }
      ],
      "name": "subnetGetterSelectors",
      "outputs": [
        {
          "internalType": "bytes4",
          "name": "",
          "type": "bytes4"
        }
      ],
      "stateMutability": "view",
      "type": "function"
    },
    {
      "inputs": [
        {
          "internalType": "uint256",
          "name": "",
          "type": "uint256"
        }
      ],
      "name": "subnetManagerSelectors",
      "outputs": [
        {
          "internalType": "bytes4",
          "name": "",
          "type": "bytes4"
        }
      ],
      "stateMutability": "view",
      "type": "function"
    },
    {
      "inputs": [
        {
          "internalType": "address",
          "name": "",
          "type": "address"
        },
        {
          "internalType": "uint64",
          "name": "",
          "type": "uint64"
        }
      ],
      "name": "subnets",
      "outputs": [
        {
          "internalType": "address",
          "name": "",
          "type": "address"
        }
      ],
      "stateMutability": "view",
      "type": "function"
    },
    {
      "inputs": [
        {
          "internalType": "address",
          "name": "",
          "type": "address"
        }
      ],
      "name": "userNonces",
      "outputs": [
        {
          "internalType": "uint64",
          "name": "",
          "type": "uint64"
        }
      ],
      "stateMutability": "view",
      "type": "function"
    }
  ],
  "bytecode": {
    "object": "0x60e06040523480156200001157600080fd5b50604051620025f1380380620025f18339810160408190526200003491620002c4565b60016000556001600160a01b0385166200006157604051638b3ddc3360e01b815260040160405180910390fd5b6001600160a01b03841662000089576040516307a0435160e51b815260040160405180910390fd5b6001600160a01b038316620000b1576040516307a0435160e51b815260040160405180910390fd5b6001600160a01b0380861660805284811660a052831660c0528151620000df90600190602085019062000101565b508051620000f590600290602084019062000101565b50505050505062000367565b82805482825590600052602060002090600701600890048101928215620001a25791602002820160005b838211156200016e57835183826101000a81548163ffffffff021916908360e01c021790555092602001926004016020816003010492830192600103026200012b565b8015620001a05782816101000a81549063ffffffff02191690556004016020816003010492830192600103026200016e565b505b50620001b0929150620001b4565b5090565b5b80821115620001b05760008155600101620001b5565b80516001600160a01b0381168114620001e357600080fd5b919050565b634e487b7160e01b600052604160045260246000fd5b80516001600160e01b031981168114620001e357600080fd5b600082601f8301126200022957600080fd5b815160206001600160401b0380831115620002485762000248620001e8565b8260051b604051601f19603f83011681018181108482111715620002705762000270620001e8565b6040529384528581018301938381019250878511156200028f57600080fd5b83870191505b84821015620002b957620002a982620001fe565b8352918301919083019062000295565b979650505050505050565b600080600080600060a08688031215620002dd57600080fd5b620002e886620001cb565b9450620002f860208701620001cb565b93506200030860408701620001cb565b60608701519093506001600160401b03808211156200032657600080fd5b6200033489838a0162000217565b935060808801519150808211156200034b57600080fd5b506200035a8882890162000217565b9150509295509295909350565b60805160a05160c051612245620003ac600039600081816101b5015261049b0152600081816101dd01526103ba015260008181610176015261030301526122456000f3fe60806040523480156200001157600080fd5b5060043610620000aa5760003560e01c80633e2b8ad7116200006e5780633e2b8ad714620001985780636ec26a4914620001af5780637da1d64b14620001d75780639836b75f14620001ff578063b67c7b4a146200021657600080fd5b80629b577514620000af5780631163dca514620000e45780631842679a14620001145780632f7801f4146200012b578063338c53711462000170575b600080fd5b620000c6620000c03660046200073f565b6200024d565b6040516001600160e01b031990911681526020015b60405180910390f35b620000fb620000f536600462000771565b62000285565b6040516001600160a01b039091168152602001620000db565b620000fb6200012536600462000796565b620002ed565b620001576200013c36600462000771565b6004602052600090815260409020546001600160401b031681565b6040516001600160401b039091168152602001620000db565b620000fb7f000000000000000000000000000000000000000000000000000000000000000081565b620000c6620001a93660046200073f565b620006a1565b620000fb7f000000000000000000000000000000000000000000000000000000000000000081565b620000fb7f000000000000000000000000000000000000000000000000000000000000000081565b620000fb62000210366004620007ec565b620006b2565b620000fb62000227366004620007ec565b60036020908152600092835260408084209091529082529020546001600160a01b031681565b600281815481106200025e57600080fd5b9060005260206000209060089182820401919006600402915054906101000a900460e01b81565b6001600160a01b03808216600090815260046020908152604080832054600383528184206000196001600160401b03928316019182168552909252909120549091169081620002e75760405163276e74a760e11b815260040160405180910390fd5b50919050565b6000620002f962000706565b6001600160a01b037f00000000000000000000000000000000000000000000000000000000000000001662000335604084016020850162000771565b6001600160a01b0316146200035d57604051633bed049960e01b815260040160405180910390fd5b60408051600280825260608201909252600091816020015b60408051606080820183526000808352602083015291810191909152815260200190600190039081620003755790505060408051606081019091526001600160a01b037f0000000000000000000000000000000000000000000000000000000000000000168152909150602081016000815260200160018054806020026020016040519081016040528092919081815260200182805480156200046557602002820191906000526020600020906000905b82829054906101000a900460e01b6001600160e01b03191681526020019060040190602082600301049283019260010382029150808411620004265790505b5050505050815250816000815181106200048357620004836200083a565b602002602001018190525060405180606001604052807f00000000000000000000000000000000000000000000000000000000000000006001600160a01b0316815260200160006002811115620004de57620004de62000824565b815260200160028054806020026020016040519081016040528092919081815260200182805480156200055e57602002820191906000526020600020906000905b82829054906101000a900460e01b6001600160e01b031916815260200190600401906020826003010492830192600103820291508084116200051f5790505b5050505050815250816001815181106200057c576200057c6200083a565b60200260200101819052508083604051620005979062000731565b620005a492919062000a84565b604051809103906000f080158015620005c1573d6000803e3d6000fd5b50336000818152600360209081526040808320600480845282852080546001600160401b03908116875292855292852080546001600160a01b0319166001600160a01b03891617905594845293909152805493955092909162000625911662000b6e565b91906101000a8154816001600160401b0302191690836001600160401b031602179055507f0431ea4d93af299b92f2c606ddcaf4b31cb0013c5ed1fdea837b8a912347c965826040516200068891906001600160a01b0391909116815260200190565b60405180910390a1506200069c6001600055565b919050565b600181815481106200025e57600080fd5b6001600160a01b0380831660009081526003602090815260408083206001600160401b03861684529091529020541680620007005760405163276e74a760e11b815260040160405180910390fd5b92915050565b6002600054036200072a57604051633ee5aeb560e01b815260040160405180910390fd5b6002600055565b61166c8062000ba483390190565b6000602082840312156200075257600080fd5b5035919050565b80356001600160a01b03811681146200069c57600080fd5b6000602082840312156200078457600080fd5b6200078f8262000759565b9392505050565b600060208284031215620007a957600080fd5b81356001600160401b03811115620007c057600080fd5b820161014081850312156200078f57600080fd5b80356001600160401b03811681146200069c57600080fd5b600080604083850312156200080057600080fd5b6200080b8362000759565b91506200081b60208401620007d4565b90509250929050565b634e487b7160e01b600052602160045260246000fd5b634e487b7160e01b600052603260045260246000fd5b60008235603e198336030181126200086757600080fd5b90910192915050565b6000604083016001600160401b03806200088a85620007d4565b168552602080850135601e19863603018112620008a657600080fd5b8501818101903583811115620008bb57600080fd5b8060051b3603821315620008ce57600080fd5b60408884015293849052926060870192506000905b8082101562000917576001600160a01b03620008ff8662000759565b168452938201939282019260019190910190620008e3565b50919695505050505050565b8035600181106200069c57600080fd5b6001811062000946576200094662000824565b9052565b803560ff811681146200069c57600080fd5b803561ffff811681146200069c57600080fd5b8035600081900b81146200069c57600080fd5b600061014062000993838462000850565b818552620009a48286018262000870565b915050620009b56020840162000759565b6001600160a01b03166020850152620009d16040840162000923565b620009e0604086018262000933565b5060608301356060850152620009f960808401620007d4565b6001600160401b0316608085015262000a1560a08401620007d4565b6001600160401b031660a085015262000a3160c084016200094a565b60ff1660c085015262000a4760e084016200095c565b61ffff1660e0850152610100838101359085015261012062000a6b8185016200096f565b62000a7a8287018260000b9052565b5090949350505050565b60006040808301818452808651808352606092508286019150828160051b8701016020808a016000805b8581101562000b4b578a8503605f19018752825180516001600160a01b0316865284810151898701906003811062000aea5762000aea62000824565b87870152908a01518a87018a9052805191829052850190839060808801905b8083101562000b355783516001600160e01b031916825292870192600192909201919087019062000b09565b5098860198965050509183019160010162000aae565b5050508782039088015262000b61818962000982565b9998505050505050505050565b60006001600160401b0380831681810362000b9957634e487b7160e01b600052601160045260246000fd5b600101939250505056fe608060405234801561001057600080fd5b5060405161166c38038061166c83398101604081905261002f91610fa0565b60208101516001600160a01b031661005a57604051638b3ddc3360e01b815260040160405180910390fd5b8060a001516001600160401b03166000036100885760405163312f8e0560e01b815260040160405180910390fd5b80606001516000036100ad576040516368f7a67560e11b815260040160405180910390fd5b60338160c0015160ff1610806100ca575060648160c0015160ff16115b156100e8576040516375c3b42760e01b815260040160405180910390fd5b601281610120015160000b1315610112576040516378b177e560e11b815260040160405180910390fd5b7f806e0cbb9fce296bbc336a48f42bf1dbc69722d18d90d6fe705b7582c2bb4bd580546001600160a01b031916331790556040805160008082526020820190925261015e91849161040a565b80518051600b80546001600160401b0319166001600160401b03909216919091178155602080830151805161019792600c920190610c4a565b5050506020810151600980546001600160a01b0319166001600160a01b039092169190911790556040810151600d805460ff191660018380156101dc576101dc61113c565b0217905550606081015160065560808101516007805460a08401516001600160801b0319909116680100000000000000006001600160401b03948516026001600160401b0319161790831617905560c08201516009805460ff60a01b1916600160a01b60ff93841602179055610120830151601b805460ff191691909216179055610100820151600a55604080518082018252600b80549093168152600c80548351602082810282018101909552818152929493808601939291908301828280156102d057602002820191906000526020600020905b81546001600160a01b031681526001909101906020018083116102b2575b50505091909252505060405163aa5106cb60e01b815273__$a0fe38a9a81205afccc10810b09a4d3f45$__9263aa5106cb92506103119130906004016111b9565b600060405180830381865af415801561032e573d6000803e3d6000fd5b505050506040513d6000823e601f3d908101601f1916820160405261035691908101906111e3565b6040516390ba52cf60e01b815273__$a0fe38a9a81205afccc10810b09a4d3f45$__916390ba52cf9161038c919060040161121f565b602060405180830381865af41580156103a9573d6000803e3d6000fd5b505050506040513d601f19601f820116820180604052508101906103cd9190611239565b60085560e00151600e805461ffff191661ffff90921691909117905550601780546001600160801b0319166801000000000000000117905561149e565b825160005b8181101561055757600085828151811061042b5761042b611252565b6020026020010151604001519050600086838151811061044d5761044d611252565b6020026020010151600001519050815160000361048d5760405163e767f91f60e01b81526001600160a01b03821660048201526024015b60405180910390fd5b60008784815181106104a1576104a1611252565b6020026020010151602001519050600060028111156104c2576104c261113c565b8160028111156104d4576104d461113c565b036104e8576104e382846105a3565b610549565b60018160028111156104fc576104fc61113c565b0361050b576104e3828461074e565b600281600281111561051f5761051f61113c565b0361052e576104e382846108d9565b80604051633ff4d20f60e11b8152600401610484919061128a565b83600101935050505061040f565b507f8faa70878671ccd212d20771b795c50af8fd3ff6cf27f4bde57e5d4de0aeb67384848460405161058b93929190611333565b60405180910390a161059d8383610b57565b50505050565b6001600160a01b0382166105cc57806040516302b8da0760e21b815260040161048491906113e7565b6000805160206115e3833981519152546040805160608101909152602180825260008051602061164c8339815191529291610611918691906116036020830139610c1d565b825160005b8181101561074657600085828151811061063257610632611252565b6020908102919091018101516001600160e01b031981166000908152918790526040909120549091506001600160a01b0316801561068f5760405163ebbf5d0760e01b81526001600160e01b031983166004820152602401610484565b6040805180820182526001600160a01b03808b16825261ffff80891660208085019182526001600160e01b0319881660009081528c8252958620945185549251909316600160a01b026001600160b01b0319909216929093169190911717909155600180890180549182018155835291206008820401805460e085901c60046007909416939093026101000a92830263ffffffff909302191691909117905561073785611410565b94508260010192505050610616565b505050505050565b60008051602061164c8339815191526001600160a01b038316610786578160405163cd98a96f60e01b815260040161048491906113e7565b6107a88360405180606001604052806028815260200161162460289139610c1d565b815160005b818110156108d25760008482815181106107c9576107c9611252565b6020908102919091018101516001600160e01b031981166000908152918690526040909120549091506001600160a01b031630810361082757604051632901806d60e11b81526001600160e01b031983166004820152602401610484565b866001600160a01b0316816001600160a01b03160361086557604051631ac6ce8d60e11b81526001600160e01b031983166004820152602401610484565b6001600160a01b03811661089857604051637479f93960e01b81526001600160e01b031983166004820152602401610484565b506001600160e01b031916600090815260208490526040902080546001600160a01b0319166001600160a01b0387161790556001016107ad565b5050505050565b6000805160206115e38339815191525460008051602061164c833981519152906001600160a01b0384161561092c5760405163d091bc8160e01b81526001600160a01b0385166004820152602401610484565b825160005b8181101561074657600085828151811061094d5761094d611252565b6020908102919091018101516001600160e01b0319811660009081528783526040908190208151808301909252546001600160a01b038116808352600160a01b90910461ffff1693820193909352909250906109c857604051637a08a22d60e01b81526001600160e01b031983166004820152602401610484565b8051306001600160a01b0390911603610a0057604051630df5fd6160e31b81526001600160e01b031983166004820152602401610484565b610a0985611431565b945084816020015161ffff1614610ae6576000866001018681548110610a3157610a31611252565b90600052602060002090600891828204019190066004029054906101000a900460e01b90508087600101836020015161ffff1681548110610a7457610a74611252565b600091825260208083206008830401805463ffffffff60079094166004026101000a938402191660e09590951c92909202939093179055838201516001600160e01b03199390931681529088905260409020805461ffff60a01b1916600160a01b61ffff909316929092029190911790555b85600101805480610af957610af9611448565b60008281526020808220600860001990940193840401805463ffffffff600460078716026101000a0219169055919092556001600160e01b0319909316815291869052506040902080546001600160b01b0319169055600101610931565b6001600160a01b038216610b69575050565b610b8b826040518060600160405280602581526020016115be60259139610c1d565b600080836001600160a01b031683604051610ba6919061145e565b600060405180830381855af49150503d8060008114610be1576040519150601f19603f3d011682016040523d82523d6000602084013e610be6565b606091505b50915091508161059d57805115610c005780518082602001fd5b838360405163192105d760e01b815260040161048492919061147a565b813b6000819003610c4557828260405163919834b960e01b815260040161048492919061147a565b505050565b828054828255906000526020600020908101928215610c9f579160200282015b82811115610c9f57825182546001600160a01b0319166001600160a01b03909116178255602090920191600190910190610c6a565b50610cab929150610caf565b5090565b5b80821115610cab5760008155600101610cb0565b634e487b7160e01b600052604160045260246000fd5b604080519081016001600160401b0381118282101715610cfc57610cfc610cc4565b60405290565b60405161014081016001600160401b0381118282101715610cfc57610cfc610cc4565b604051606081016001600160401b0381118282101715610cfc57610cfc610cc4565b604051601f8201601f191681016001600160401b0381118282101715610d6f57610d6f610cc4565b604052919050565b60006001600160401b03821115610d9057610d90610cc4565b5060051b60200190565b80516001600160a01b0381168114610db157600080fd5b919050565b80516001600160401b0381168114610db157600080fd5b600060408284031215610ddf57600080fd5b610de7610cda565b9050610df282610db6565b81526020828101516001600160401b03811115610e0e57600080fd5b8301601f81018513610e1f57600080fd5b8051610e32610e2d82610d77565b610d47565b81815260059190911b82018301908381019087831115610e5157600080fd5b928401925b82841015610e7657610e6784610d9a565b82529284019290840190610e56565b8085870152505050505092915050565b805160018110610db157600080fd5b805160ff81168114610db157600080fd5b805161ffff81168114610db157600080fd5b8051600081900b8114610db157600080fd5b60006101408284031215610edd57600080fd5b610ee5610d02565b82519091506001600160401b03811115610efe57600080fd5b610f0a84828501610dcd565b825250610f1960208301610d9a565b6020820152610f2a60408301610e86565b604082015260608201516060820152610f4560808301610db6565b6080820152610f5660a08301610db6565b60a0820152610f6760c08301610e95565b60c0820152610f7860e08301610ea6565b60e08201526101008281015190820152610120610f96818401610eb8565b9082015292915050565b60008060408385031215610fb357600080fd5b82516001600160401b0380821115610fca57600080fd5b818501915085601f830112610fde57600080fd5b81516020610fee610e2d83610d77565b82815260059290921b8401810191818101908984111561100d57600080fd5b8286015b8481101561110b5780518681111561102857600080fd5b87016060818d03601f1901121561103e57600080fd5b611046610d25565b611051868301610d9a565b815260408201516003811061106557600080fd5b8187015260608201518881111561107b57600080fd5b8083019250508c603f83011261109057600080fd5b858201516110a0610e2d82610d77565b81815260059190911b830160400190878101908f8311156110c057600080fd5b6040850194505b828510156110f65784516001600160e01b0319811681146110e757600080fd5b825293880193908801906110c7565b60408401525050845250918301918301611011565b509188015191965090935050508082111561112557600080fd5b5061113285828601610eca565b9150509250929050565b634e487b7160e01b600052602160045260246000fd5b80516001600160401b03168252602080820151604082850181905281519085018190526000929182019190839060608701905b808310156111ae5784516001600160a01b03168252938301936001929092019190830190611185565b509695505050505050565b6040815260006111cc6040830185611152565b905060018060a01b03831660208301529392505050565b6000602082840312156111f557600080fd5b81516001600160401b0381111561120b57600080fd5b61121784828501610dcd565b949350505050565b6020815260006112326020830184611152565b9392505050565b60006020828403121561124b57600080fd5b5051919050565b634e487b7160e01b600052603260045260246000fd5b6003811061128657634e487b7160e01b600052602160045260246000fd5b9052565b602081016112988284611268565b92915050565b600081518084526020808501945080840160005b838110156112d85781516001600160e01b031916875295820195908201906001016112b2565b509495945050505050565b60005b838110156112fe5781810151838201526020016112e6565b50506000910152565b6000815180845261131f8160208601602086016112e3565b601f01601f19169290920160200192915050565b6000606080830181845280875180835260808601915060808160051b87010192506020808a0160005b838110156113b857888603607f19018552815180516001600160a01b031687528381015161138c85890182611268565b506040908101519087018890526113a58789018261129e565b965050938201939082019060010161135c565b50506001600160a01b03891690870152505083810360408501526113dc8186611307565b979650505050505050565b602081526000611232602083018461129e565b634e487b7160e01b600052601160045260246000fd5b600061ffff808316818103611427576114276113fa565b6001019392505050565b600081611440576114406113fa565b506000190190565b634e487b7160e01b600052603160045260246000fd5b600082516114708184602087016112e3565b9190910192915050565b6001600160a01b038316815260406020820181905260009061121790830184611307565b610111806114ad6000396000f3fe608060405236601057600e6016565b005b600e6042565b6009546001600160a01b0316331460405760405163e7e601db60e01b815260040160405180910390fd5b565b600080356001600160e01b03191681527f806e0cbb9fce296bbc336a48f42bf1dbc69722d18d90d6fe705b7582c2bb4bd2602081905260409091205481906001600160a01b03168060b857604051630a82dd7360e31b81526001600160e01b031960003516600482015260240160405180910390fd5b3660008037600080366000845af43d6000803e80801560d6573d6000f35b3d6000fdfea2646970667358221220bc2e58a86d04ac4f7e6c3f9def43c5b04bb667b2e86fca7b4fb24710049411ae64736f6c634300081300336469616d6f6e644375743a205f696e6974206164647265737320686173206e6f20636f6465806e0cbb9fce296bbc336a48f42bf1dbc69722d18d90d6fe705b7582c2bb4bd36469616d6f6e644375743a2041646420666163657420686173206e6f20636f64654c69624469616d6f6e644375743a205265706c61636520666163657420686173206e6f20636f6465806e0cbb9fce296bbc336a48f42bf1dbc69722d18d90d6fe705b7582c2bb4bd2a2646970667358221220e265a04d17614b62c87d6afca83c2c89622addf275ce0a3e6c8fdd00275a9c1064736f6c63430008130033",
    "linkReferences": {
      "src/lib/SubnetIDHelper.sol": {
        "SubnetIDHelper": [
          {
            "start": 4664,
            "length": 20
          },
          {
            "start": 4789,
            "length": 20
          }
        ]
      }
    }
  },
  "methodIdentifiers": {
    "GATEWAY()": "338c5371",
    "SUBNET_GETTER_FACET()": "7da1d64b",
    "SUBNET_MANAGER_FACET()": "6ec26a49",
    "getSubnetDeployedByNonce(address,uint64)": "9836b75f",
    "latestSubnetDeployed(address)": "1163dca5",
    "newSubnetActor(((uint64,address[]),address,uint8,uint256,uint64,uint64,uint8,uint16,uint256,int8))": "1842679a",
    "subnetGetterSelectors(uint256)": "3e2b8ad7",
    "subnetManagerSelectors(uint256)": "009b5775",
    "subnets(address,uint64)": "b67c7b4a",
    "userNonces(address)": "2f7801f4"
  },
  "id": 37
}