{
  "abi": [
    {
      "inputs": [],
      "name": "AA",
      "outputs": [
        {
          "internalType": "uint256",
          "name": "",
          "type": "uint256"
        }
      ],
      "stateMutability": "view",
      "type": "function"
    },
    {
      "inputs": [],
      "name": "BB",
      "outputs": [
        {
          "internalType": "uint256",
          "name": "",
          "type": "uint256"
        }
      ],
      "stateMutability": "view",
      "type": "function"
    },
    {
      "inputs": [],
      "name": "GX",
      "outputs": [
        {
          "internalType": "uint256",
          "name": "",
          "type": "uint256"
        }
      ],
      "stateMutability": "view",
      "type": "function"
    },
    {
      "inputs": [],
      "name": "GY",
      "outputs": [
        {
          "internalType": "uint256",
          "name": "",
          "type": "uint256"
        }
      ],
      "stateMutability": "view",
      "type": "function"
    },
    {
      "inputs": [],
      "name": "PP",
      "outputs": [
        {
          "internalType": "uint256",
          "name": "",
          "type": "uint256"
        }
      ],
      "stateMutability": "view",
      "type": "function"
    },
    {
      "inputs": [
        {
          "internalType": "uint256",
          "name": "privKey",
          "type": "uint256"
        }
      ],
      "name": "derivePubKey",
      "outputs": [
        {
          "internalType": "uint256",
          "name": "",
          "type": "uint256"
        },
        {
          "internalType": "uint256",
          "name": "",
          "type": "uint256"
        }
      ],
      "stateMutability": "pure",
      "type": "function"
    },
    {
      "inputs": [
        {
          "internalType": "uint256",
          "name": "privKey",
          "type": "uint256"
        }
      ],
      "name": "derivePubKeyBytes",
      "outputs": [
        {
          "internalType": "bytes",
          "name": "",
          "type": "bytes"
        }
      ],
      "stateMutability": "pure",
      "type": "function"
    },
    {
      "inputs": [
        {
          "internalType": "uint256",
          "name": "privKey",
          "type": "uint256"
        }
      ],
      "name": "deriveValidatorPubKeyBytes",
      "outputs": [
        {
          "internalType": "bytes",
          "name": "",
          "type": "bytes"
        }
      ],
      "stateMutability": "pure",
      "type": "function"
    }
  ],
  "bytecode": {
    "object": "0x610a9361003a600b82828239805160001a60731461002d57634e487b7160e01b600052600060045260246000fd5b30600052607381538281f3fe73000000000000000000000000000000000000000030146080604052600436106100925760003560e01c8063997da8d411610065578063997da8d4146100fc578063bc9e2bcf14610104578063eeeac01e1461012c578063f6caf0ac1461013957600080fd5b806303a507be146100975780635727dc5c146100bf578063573081a2146100c75780637a308a4c146100e7575b600080fd5b6100ac600080516020610a3e83398151915281565b6040519081526020015b60405180910390f35b6100ac600781565b6100da6100d536600461093e565b61014c565b6040516100b69190610957565b6100ac600080516020610a1e83398151915281565b6100ac600081565b61011761011236600461093e565b6101bd565b604080519283526020830191909152016100b6565b6100ac6401000003d01981565b6100da61014736600461093e565b6101f9565b606060008061018184600080516020610a3e833981519152600080516020610a1e83398151915260006401000003d01961024c565b604051600160fa1b6020820152602181018390526041810182905291935091506061015b60405160208183030381529060405292505050919050565b6000806101f083600080516020610a3e833981519152600080516020610a1e83398151915260006401000003d01961024c565b91509150915091565b606060008061022e84600080516020610a3e833981519152600080516020610a1e83398151915260006401000003d01961024c565b604080516020810184905290810182905291935091506060016101a5565b60008060008060006102638a8a8a60018b8b610286565b92509250925061027583838389610308565b945094505050509550959350505050565b6000806000886000036102a05750869150859050846102fc565b8860008060015b83156102f35760018416156102cd576102c58383838f8f8f8e610377565b919450925090505b6102d86002856109d1565b93506102e78c8c8c8c8c6106af565b919d509b5099506102a7565b91955093509150505b96509650969350505050565b60008060006103178585610852565b905060008480610329576103296109a5565b82830990506000858061033e5761033e6109a5565b828a09905060008680610353576103536109a5565b8780610361576103616109a5565b8486098a09919a91995090975050505050505050565b6000808089158015610387575088155b156103995750859150849050836106a2565b861580156103a5575085155b156103b75750889150879050866106a2565b6103bf610920565b84806103cd576103cd6109a5565b898a09815284806103e0576103e06109a5565b81518a09602082015284806103f7576103f76109a5565b8687096040820152848061040d5761040d6109a5565b6040820151870960608201526040805160808101909152808680610433576104336109a5565b60408401518e098152602001868061044d5761044d6109a5565b60608401518d0981526020018680610467576104676109a5565b83518b098152602001868061047e5761047e6109a5565b60208401518a099052604081015181519192501415806104a657506060810151602082015114155b6104f75760405162461bcd60e51b815260206004820152601e60248201527f557365206a6163446f75626c652066756e6374696f6e20696e7374656164000060448201526064015b60405180910390fd5b6104ff610920565b858061050d5761050d6109a5565b825161051990886109f3565b6040840151088152858061052f5761052f6109a5565b602083015161053e90886109f3565b60608401510860208201528580610557576105576109a5565b815180096040820152858061056e5761056e6109a5565b815160408301510960608201526000868061058b5761058b6109a5565b606083015161059a90896109f3565b88806105a8576105a86109a5565b6020850151800908905086806105c0576105c06109a5565b87806105ce576105ce6109a5565b88806105dc576105dc6109a5565b60408501518651096002096105f190896109f3565b8208905060008780610605576106056109a5565b8880610613576106136109a5565b61061d848b6109f3565b8a8061062b5761062b6109a5565b6040870151885109086020850151099050878061064a5761064a6109a5565b8880610658576106586109a5565b606085015160208701510961066d908a6109f3565b8208905060008880610681576106816109a5565b898061068f5761068f6109a5565b8b8f098551099297509095509093505050505b9750975097945050505050565b6000806000856000036106c9575086915085905084610847565b600084806106d9576106d96109a5565b898a099050600085806106ee576106ee6109a5565b898a09905060008680610703576107036109a5565b898a09905060008780610718576107186109a5565b8880610726576107266109a5565b848e0960040990506000888061073e5761073e6109a5565b898061074c5761074c6109a5565b8a8061075a5761075a6109a5565b8586098c098a8061076d5761076d6109a5565b876003090890508880610782576107826109a5565b8980610790576107906109a5565b83840861079d908b6109f3565b8a806107ab576107ab6109a5565b83840908945088806107bf576107bf6109a5565b89806107cd576107cd6109a5565b8a806107db576107db6109a5565b8687096008096107eb908b6109f3565b8a806107f9576107f96109a5565b8b80610807576108076109a5565b610811898e6109f3565b860884090893508880610826576108266109a5565b8980610834576108346109a5565b8c8e096002099497509295509293505050505b955095509592505050565b600082158015906108635750818314155b801561086e57508115155b6108ab5760405162461bcd60e51b815260206004820152600e60248201526d24b73b30b634b210373ab6b132b960911b60448201526064016104ee565b6000600183825b8615610913576108c287836109d1565b90508286806108d3576108d36109a5565b87806108e1576108e16109a5565b8584096108ee90896109f3565b86089094509250866109008183610a06565b61090a90846109f3565b975091506108b2565b5091925050505b92915050565b60405180608001604052806004906020820280368337509192915050565b60006020828403121561095057600080fd5b5035919050565b600060208083528351808285015260005b8181101561098457858101830151858201604001528201610968565b506000604082860101526040601f19601f8301168501019250505092915050565b634e487b7160e01b600052601260045260246000fd5b634e487b7160e01b600052601160045260246000fd5b6000826109ee57634e487b7160e01b600052601260045260246000fd5b500490565b8181038181111561091a5761091a6109bb565b808202811582820484141761091a5761091a6109bb56fe483ada7726a3c4655da4fbfc0e1108a8fd17b448a68554199c47d08ffb10d4b879be667ef9dcbbac55a06295ce870b07029bfcdb2dce28d959f2815b16f81798a26469706673582212203f1de59b48ea845539e866d0e18a86131d7781b63a195e9d7548c0209764506464736f6c63430008130033",
    "linkReferences": {}
  },
  "methodIdentifiers": {
    "AA()": "997da8d4",
    "BB()": "5727dc5c",
    "GX()": "03a507be",
    "GY()": "7a308a4c",
    "PP()": "eeeac01e",
    "derivePubKey(uint256)": "bc9e2bcf",
    "derivePubKeyBytes(uint256)": "f6caf0ac",
    "deriveValidatorPubKeyBytes(uint256)": "573081a2"
  },
  "id": 97
}