{"abi":[{"type":"function","name":"newSubnetActor","inputs":[{"name":"_params","type":"tuple","internalType":"struct SubnetActorDiamond.ConstructorParams","components":[{"name":"parentId","type":"tuple","internalType":"struct SubnetID","components":[{"name":"root","type":"uint64","internalType":"uint64"},{"name":"route","type":"address[]","internalType":"address[]"}]},{"name":"ipcGatewayAddr","type":"address","internalType":"address"},{"name":"consensus","type":"uint8","internalType":"enum ConsensusType"},{"name":"minActivationCollateral","type":"uint256","internalType":"uint256"},{"name":"minValidators","type":"uint64","internalType":"uint64"},{"name":"bottomUpCheckPeriod","type":"uint64","internalType":"uint64"},{"name":"majorityPercentage","type":"uint8","internalType":"uint8"},{"name":"activeValidatorsLimit","type":"uint16","internalType":"uint16"},{"name":"minCrossMsgFee","type":"uint256","internalType":"uint256"},{"name":"powerScale","type":"int8","internalType":"int8"},{"name":"permissioned","type":"bool","internalType":"bool"}]}],"outputs":[{"name":"subnetAddr","type":"address","internalType":"address"}],"stateMutability":"nonpayable"},{"type":"event","name":"SubnetDeployed","inputs":[{"name":"subnetAddr","type":"address","indexed":false,"internalType":"address"}],"anonymous":false},{"type":"error","name":"ReentrancyError","inputs":[]},{"type":"error","name":"WrongGateway","inputs":[]}],"bytecode":{"object":"0x608060405234801561001057600080fd5b50611ff6806100206000396000f3fe60806040523480156200001157600080fd5b50600436106200002e5760003560e01c8063a04962a01462000033575b600080fd5b6200004a62000044366004620003f4565b62000066565b6040516001600160a01b03909116815260200160405180910390f35b7f691bb03ffc16c56fc96b82fd16cd1b3715f0bc3cdc6407005f49bb620586009580546000919060001901620000af576040516329f745a760e01b815260040160405180910390fd5b600181556000546001600160a01b0316620000d1604085016020860162000457565b6001600160a01b031614620000f957604051633bed049960e01b815260040160405180910390fd5b60408051600280825260608201909252600091816020015b60408051606080820183526000808352602083015291810191909152815260200190600190039081620001115790505060408051606081019091526001546001600160a01b0316815290915060208101600081526020016000600301805480602002602001604051908101604052809291908181526020018280548015620001e657602002820191906000526020600020906000905b82829054906101000a900460e01b6001600160e01b03191681526020019060040190602082600301049283019260010382029150808411620001a75790505b5050505050815250816000815181106200020457620002046200048b565b602090810291909101810191909152604080516060810182526002546001600160a01b03168152600081840152600480548351818602810186018552818152929493850193830182828015620002a757602002820191906000526020600020906000905b82829054906101000a900460e01b6001600160e01b03191681526020019060040190602082600301049283019260010382029150808411620002685790505b505050505081525081600181518110620002c557620002c56200048b565b60200260200101819052508084604051620002e090620003e6565b620002ed9291906200071b565b604051809103906000f0801580156200030a573d6000803e3d6000fd5b503360008181526005602090815260408083206006808452828520805467ffffffffffffffff908116875292855292852080546001600160a01b0319166001600160a01b0389161790559484529390915280549396509290916200036f911662000808565b91906101000a81548167ffffffffffffffff021916908367ffffffffffffffff1602179055507f0431ea4d93af299b92f2c606ddcaf4b31cb0013c5ed1fdea837b8a912347c96583604051620003d491906001600160a01b0391909116815260200190565b60405180910390a15060009055919050565b611782806200083f83390190565b6000602082840312156200040757600080fd5b813567ffffffffffffffff8111156200041f57600080fd5b820161016081850312156200043357600080fd5b9392505050565b80356001600160a01b03811681146200045257600080fd5b919050565b6000602082840312156200046a57600080fd5b62000433826200043a565b634e487b7160e01b600052602160045260246000fd5b634e487b7160e01b600052603260045260246000fd5b60008235603e19833603018112620004b857600080fd5b90910192915050565b803567ffffffffffffffff811681146200045257600080fd5b60006040830167ffffffffffffffff80620004f585620004c1565b168552602080850135601e198636030181126200051157600080fd5b8501602081019035838111156200052757600080fd5b8060051b36038213156200053a57600080fd5b6040602089015293849052926060870192506000905b8082101562000584576001600160a01b036200056c866200043a565b16845293820193928201926001919091019062000550565b50919695505050505050565b8035600181106200045257600080fd5b60018110620005b357620005b362000475565b9052565b803560ff811681146200045257600080fd5b803561ffff811681146200045257600080fd5b8035600081900b81146200045257600080fd5b803580151581146200045257600080fd5b6000610160620006118384620004a1565b8185526200062282860182620004da565b91505062000633602084016200043a565b6001600160a01b031660208501526200064f6040840162000590565b6200065e6040860182620005a0565b50606083013560608501526200067760808401620004c1565b67ffffffffffffffff1660808501526200069460a08401620004c1565b67ffffffffffffffff1660a0850152620006b160c08401620005b7565b60ff1660c0850152620006c760e08401620005c9565b61ffff1660e08501526101008381013590850152610120620006eb818501620005dc565b620006fa8287018260000b9052565b50506101406200070c818501620005ef565b15159401939093525090919050565b60006040808301604084528086518083526060925060608601915060608160051b8701016020808a016000805b85811015620007e5578a8503605f19018752825180516001600160a01b0316865284810151898701906003811062000784576200078462000475565b87870152908a01518a87018a9052805191829052850190839060808801905b80831015620007cf5783516001600160e01b0319168252928701926001929092019190870190620007a3565b5098860198965050509183019160010162000748565b50505087820390880152620007fb818962000600565b9998505050505050505050565b600067ffffffffffffffff8083168181036200083457634e487b7160e01b600052601160045260246000fd5b600101939250505056fe608060405234801561001057600080fd5b506040516200178238038062001782833981016040819052610031916110b3565b60208101516001600160a01b031661005c57604051638b3ddc3360e01b815260040160405180910390fd5b8060a001516001600160401b031660000361008a5760405163312f8e0560e01b815260040160405180910390fd5b80606001516000036100af576040516368f7a67560e11b815260040160405180910390fd5b60338160c0015160ff1610806100cc575060648160c0015160ff16115b156100ea576040516375c3b42760e01b815260040160405180910390fd5b601281610120015160000b1315610114576040516378b177e560e11b815260040160405180910390fd5b7f806e0cbb9fce296bbc336a48f42bf1dbc69722d18d90d6fe705b7582c2bb4bd580546001600160a01b03191633179055604080516000808252602082019092526101609184916104f3565b7f806e0cbb9fce296bbc336a48f42bf1dbc69722d18d90d6fe705b7582c2bb4bd460209081527f7dfd48dd9def002fa9b4a05bd6b726a6c313c362d3f3e8413d7a7520f0090d258054600160ff1991821681179092557f4d7f4c8a2fb5b35ca3c277c93888b47f0f2229bdcccf66504d1ba48e88b8816480548216831790556348e2b09360e01b6000527f59ba4db4a213e8161de597b8c10db0e7e7ba5ace5c268e36379e249a6d2d42c98054909116909117905581518051600b80546001600160401b0319166001600160401b03909216919091178155818301518051600080516020620017628339815191529461025e92600c92910190610d3b565b5050506020820151600980546001600160a01b0319166001600160a01b039092169190911790556040820151600d805460ff191660018380156102a3576102a361124f565b0217905550606082015160065560808201516007805460a08501516001600160801b0319909116680100000000000000006001600160401b03948516026001600160401b0319161790831617905560c08301516009805460ff60a01b1916600160a01b60ff93841602179055610120840151601b805460ff191691909216179055610100830151600a55604080518082018252600b80549093168152600c805483516020828102820181019095528181529294938086019392919083018282801561039757602002820191906000526020600020905b81546001600160a01b03168152600190910190602001808311610379575b50505091909252505060405163aa5106cb60e01b815273__$a0fe38a9a81205afccc10810b09a4d3f45$__9263aa5106cb92506103d89130906004016112cc565b600060405180830381865af41580156103f5573d6000803e3d6000fd5b505050506040513d6000823e601f3d908101601f1916820160405261041d91908101906112f6565b6040516390ba52cf60e01b815273__$a0fe38a9a81205afccc10810b09a4d3f45$__916390ba52cf916104539190600401611332565b602060405180830381865af4158015610470573d6000803e3d6000fd5b505050506040513d601f19601f82011682018060405250810190610494919061134c565b60085550610140810151600d805462ff00001916620100009215159290920291909117905560e00151600e805461ffff191661ffff90921691909117905550601780546001600160801b031916680100000000000000011790556115b3565b825160005b8181101561064057600085828151811061051457610514611365565b6020026020010151604001519050600086838151811061053657610536611365565b602002602001015160000151905081516000036105765760405163e767f91f60e01b81526001600160a01b03821660048201526024015b60405180910390fd5b600087848151811061058a5761058a611365565b6020026020010151602001519050600060028111156105ab576105ab61124f565b8160028111156105bd576105bd61124f565b036105d1576105cc828461068c565b610632565b60018160028111156105e5576105e561124f565b036105f4576105cc828461083a565b60028160028111156106085761060861124f565b03610617576105cc82846109c7565b80604051633ff4d20f60e11b815260040161056d919061139d565b8360010193505050506104f8565b507f8faa70878671ccd212d20771b795c50af8fd3ff6cf27f4bde57e5d4de0aeb67384848460405161067493929190611447565b60405180910390a16106868383610c47565b50505050565b6001600160a01b0382166106b557806040516302b8da0760e21b815260040161056d91906114fc565b600080516020620016f983398151915254604080516060810190915260218082526000805160206200176283398151915292916106fd91869190620017196020830139610d0e565b825160005b8181101561083257600085828151811061071e5761071e611365565b6020908102919091018101516001600160e01b031981166000908152918790526040909120549091506001600160a01b0316801561077b5760405163ebbf5d0760e01b81526001600160e01b03198316600482015260240161056d565b6040805180820182526001600160a01b03808b16825261ffff80891660208085019182526001600160e01b0319881660009081528c8252958620945185549251909316600160a01b026001600160b01b0319909216929093169190911717909155600180890180549182018155835291206008820401805460e085901c60046007909416939093026101000a92830263ffffffff909302191691909117905561082385611525565b94508260010192505050610702565b505050505050565b600080516020620017628339815191526001600160a01b038316610873578160405163cd98a96f60e01b815260040161056d91906114fc565b610896836040518060600160405280602881526020016200173a60289139610d0e565b815160005b818110156109c05760008482815181106108b7576108b7611365565b6020908102919091018101516001600160e01b031981166000908152918690526040909120549091506001600160a01b031630810361091557604051632901806d60e11b81526001600160e01b03198316600482015260240161056d565b866001600160a01b0316816001600160a01b03160361095357604051631ac6ce8d60e11b81526001600160e01b03198316600482015260240161056d565b6001600160a01b03811661098657604051637479f93960e01b81526001600160e01b03198316600482015260240161056d565b506001600160e01b031916600090815260208490526040902080546001600160a01b0319166001600160a01b03871617905560010161089b565b5050505050565b600080516020620016f98339815191525460008051602062001762833981519152906001600160a01b03841615610a1c5760405163d091bc8160e01b81526001600160a01b038516600482015260240161056d565b825160005b81811015610832576000858281518110610a3d57610a3d611365565b6020908102919091018101516001600160e01b0319811660009081528783526040908190208151808301909252546001600160a01b038116808352600160a01b90910461ffff169382019390935290925090610ab857604051637a08a22d60e01b81526001600160e01b03198316600482015260240161056d565b8051306001600160a01b0390911603610af057604051630df5fd6160e31b81526001600160e01b03198316600482015260240161056d565b610af985611546565b945084816020015161ffff1614610bd6576000866001018681548110610b2157610b21611365565b90600052602060002090600891828204019190066004029054906101000a900460e01b90508087600101836020015161ffff1681548110610b6457610b64611365565b600091825260208083206008830401805463ffffffff60079094166004026101000a938402191660e09590951c92909202939093179055838201516001600160e01b03199390931681529088905260409020805461ffff60a01b1916600160a01b61ffff909316929092029190911790555b85600101805480610be957610be961155d565b60008281526020808220600860001990940193840401805463ffffffff600460078716026101000a0219169055919092556001600160e01b0319909316815291869052506040902080546001600160b01b0319169055600101610a21565b6001600160a01b038216610c59575050565b610c7c82604051806060016040528060258152602001620016d460259139610d0e565b600080836001600160a01b031683604051610c979190611573565b600060405180830381855af49150503d8060008114610cd2576040519150601f19603f3d011682016040523d82523d6000602084013e610cd7565b606091505b50915091508161068657805115610cf15780518082602001fd5b838360405163192105d760e01b815260040161056d92919061158f565b813b6000819003610d3657828260405163919834b960e01b815260040161056d92919061158f565b505050565b828054828255906000526020600020908101928215610d90579160200282015b82811115610d9057825182546001600160a01b0319166001600160a01b03909116178255602090920191600190910190610d5b565b50610d9c929150610da0565b5090565b5b80821115610d9c5760008155600101610da1565b634e487b7160e01b600052604160045260246000fd5b604080519081016001600160401b0381118282101715610ded57610ded610db5565b60405290565b60405161016081016001600160401b0381118282101715610ded57610ded610db5565b604051606081016001600160401b0381118282101715610ded57610ded610db5565b604051601f8201601f191681016001600160401b0381118282101715610e6057610e60610db5565b604052919050565b60006001600160401b03821115610e8157610e81610db5565b5060051b60200190565b80516001600160a01b0381168114610ea257600080fd5b919050565b80516001600160401b0381168114610ea257600080fd5b600060408284031215610ed057600080fd5b610ed8610dcb565b9050610ee382610ea7565b81526020828101516001600160401b03811115610eff57600080fd5b8301601f81018513610f1057600080fd5b8051610f23610f1e82610e68565b610e38565b81815260059190911b82018301908381019087831115610f4257600080fd5b928401925b82841015610f6757610f5884610e8b565b82529284019290840190610f47565b8085870152505050505092915050565b805160018110610ea257600080fd5b805160ff81168114610ea257600080fd5b805161ffff81168114610ea257600080fd5b8051600081900b8114610ea257600080fd5b80518015158114610ea257600080fd5b60006101608284031215610fde57600080fd5b610fe6610df3565b82519091506001600160401b03811115610fff57600080fd5b61100b84828501610ebe565b82525061101a60208301610e8b565b602082015261102b60408301610f77565b60408201526060820151606082015261104660808301610ea7565b608082015261105760a08301610ea7565b60a082015261106860c08301610f86565b60c082015261107960e08301610f97565b60e08201526101008281015190820152610120611097818401610fa9565b908201526101406110a9838201610fbb565b9082015292915050565b600080604083850312156110c657600080fd5b82516001600160401b03808211156110dd57600080fd5b818501915085601f8301126110f157600080fd5b81516020611101610f1e83610e68565b82815260059290921b8401810191818101908984111561112057600080fd5b8286015b8481101561121e5780518681111561113b57600080fd5b87016060818d03601f1901121561115157600080fd5b611159610e16565b611164868301610e8b565b815260408201516003811061117857600080fd5b8187015260608201518881111561118e57600080fd5b8083019250508c603f8301126111a357600080fd5b858201516111b3610f1e82610e68565b81815260059190911b830160400190878101908f8311156111d357600080fd5b6040850194505b828510156112095784516001600160e01b0319811681146111fa57600080fd5b825293880193908801906111da565b60408401525050845250918301918301611124565b509188015191965090935050508082111561123857600080fd5b5061124585828601610fcb565b9150509250929050565b634e487b7160e01b600052602160045260246000fd5b80516001600160401b03168252602080820151604082850181905281519085018190526000929182019190839060608701905b808310156112c15784516001600160a01b03168252938301936001929092019190830190611298565b509695505050505050565b6040815260006112df6040830185611265565b905060018060a01b03831660208301529392505050565b60006020828403121561130857600080fd5b81516001600160401b0381111561131e57600080fd5b61132a84828501610ebe565b949350505050565b6020815260006113456020830184611265565b9392505050565b60006020828403121561135e57600080fd5b5051919050565b634e487b7160e01b600052603260045260246000fd5b6003811061139957634e487b7160e01b600052602160045260246000fd5b9052565b602081016113ab828461137b565b92915050565b60008151808452602080850194506020840160005b838110156113ec5781516001600160e01b031916875295820195908201906001016113c6565b509495945050505050565b60005b838110156114125781810151838201526020016113fa565b50506000910152565b600081518084526114338160208601602086016113f7565b601f01601f19169290920160200192915050565b600060608083016060845280875180835260808601915060808160051b87010192506020808a0160005b838110156114cd57888603607f19018552815180516001600160a01b03168752838101516114a18589018261137b565b506040908101519087018890526114ba878901826113b1565b9650509382019390820190600101611471565b50506001600160a01b03891690870152505083810360408501526114f1818661141b565b979650505050505050565b60208152600061134560208301846113b1565b634e487b7160e01b600052601160045260246000fd5b600061ffff80831681810361153c5761153c61150f565b6001019392505050565b6000816115555761155561150f565b506000190190565b634e487b7160e01b600052603160045260246000fd5b600082516115858184602087016113f7565b9190910192915050565b6001600160a01b038316815260406020820181905260009061132a9083018461141b565b61011180620015c36000396000f3fe608060405236601057600e6016565b005b600e6042565b6009546001600160a01b0316331460405760405163e7e601db60e01b815260040160405180910390fd5b565b600080356001600160e01b03191681527f806e0cbb9fce296bbc336a48f42bf1dbc69722d18d90d6fe705b7582c2bb4bd2602081905260409091205481906001600160a01b03168060b857604051630a82dd7360e31b81526001600160e01b031960003516600482015260240160405180910390fd5b3660008037600080366000845af43d6000803e80801560d6573d6000f35b3d6000fdfea26469706673582212208cf30eaa9f2f9bf3f24ac7fa51edaac0ba288e5ec5090de0c52bade3242df70664736f6c634300081600336469616d6f6e644375743a205f696e6974206164647265737320686173206e6f20636f6465806e0cbb9fce296bbc336a48f42bf1dbc69722d18d90d6fe705b7582c2bb4bd36469616d6f6e644375743a2041646420666163657420686173206e6f20636f64654c69624469616d6f6e644375743a205265706c61636520666163657420686173206e6f20636f6465806e0cbb9fce296bbc336a48f42bf1dbc69722d18d90d6fe705b7582c2bb4bd2a2646970667358221220d8aed8b8d51a72db5118168620ce89e3c0d54a540e327b01aba6354ca97c365b64736f6c63430008160033","linkReferences":{"src/lib/SubnetIDHelper.sol":{"SubnetIDHelper":[{"start":3086,"length":20},{"start":3211,"length":20}]}}},"methodIdentifiers":{"newSubnetActor(((uint64,address[]),address,uint8,uint256,uint64,uint64,uint8,uint16,uint256,int8,bool))":"a04962a0"},"id":76}