{
  "abi": [
    {
      "inputs": [
        {
          "internalType": "address",
          "name": "account",
          "type": "address"
        }
      ],
      "name": "AddressInsufficientBalance",
      "type": "error"
    },
    {
      "inputs": [],
      "name": "AddressShouldBeValidator",
      "type": "error"
    },
    {
      "inputs": [],
      "name": "CannotConfirmFutureChanges",
      "type": "error"
    },
    {
      "inputs": [],
      "name": "CannotReleaseZero",
      "type": "error"
    },
    {
      "inputs": [],
      "name": "CollateralIsZero",
      "type": "error"
    },
    {
      "inputs": [],
      "name": "EmptyAddress",
      "type": "error"
    },
    {
      "inputs": [],
      "name": "FailedInnerCall",
      "type": "error"
    },
    {
      "inputs": [],
      "name": "InvalidCheckpointEpoch",
      "type": "error"
    },
    {
      "inputs": [],
      "name": "InvalidCheckpointMessagesHash",
      "type": "error"
    },
    {
      "inputs": [],
      "name": "InvalidPublicKeyLength",
      "type": "error"
    },
    {
      "inputs": [
        {
          "internalType": "uint8",
          "name": "",
          "type": "uint8"
        }
      ],
      "name": "InvalidSignatureErr",
      "type": "error"
    },
    {
      "inputs": [],
      "name": "NoCollateralToWithdraw",
      "type": "error"
    },
    {
      "inputs": [],
      "name": "NotAllValidatorsHaveLeft",
      "type": "error"
    },
    {
      "inputs": [],
      "name": "NotEnoughBalance",
      "type": "error"
    },
    {
      "inputs": [],
      "name": "NotEnoughCollateral",
      "type": "error"
    },
    {
      "inputs": [],
      "name": "NotEnoughFunds",
      "type": "error"
    },
    {
      "inputs": [],
      "name": "NotGateway",
      "type": "error"
    },
    {
      "inputs": [],
      "name": "NotOwnerOfPublicKey",
      "type": "error"
    },
    {
      "inputs": [],
      "name": "NotStakedBefore",
      "type": "error"
    },
    {
      "inputs": [
        {
          "internalType": "address",
          "name": "",
          "type": "address"
        }
      ],
      "name": "NotValidator",
      "type": "error"
    },
    {
      "inputs": [],
      "name": "PQDoesNotContainAddress",
      "type": "error"
    },
    {
      "inputs": [],
      "name": "PQEmpty",
      "type": "error"
    },
    {
      "inputs": [],
      "name": "ReentrancyError",
      "type": "error"
    },
    {
      "inputs": [],
      "name": "SubnetAlreadyBootstrapped",
      "type": "error"
    },
    {
      "inputs": [],
      "name": "SubnetAlreadyKilled",
      "type": "error"
    },
    {
      "inputs": [],
      "name": "WithdrawExceedingCollateral",
      "type": "error"
    },
    {
      "anonymous": false,
      "inputs": [
        {
          "indexed": false,
          "internalType": "uint64",
          "name": "epoch",
          "type": "uint64"
        },
        {
          "indexed": false,
          "internalType": "address",
          "name": "submitter",
          "type": "address"
        }
      ],
      "name": "BottomUpCheckpointExecuted",
      "type": "event"
    },
    {
      "anonymous": false,
      "inputs": [
        {
          "components": [
            {
              "components": [
                {
                  "internalType": "uint64",
                  "name": "root",
                  "type": "uint64"
                },
                {
                  "internalType": "address[]",
                  "name": "route",
                  "type": "address[]"
                }
              ],
              "internalType": "struct SubnetID",
              "name": "subnetID",
              "type": "tuple"
            },
            {
              "internalType": "uint64",
              "name": "blockHeight",
              "type": "uint64"
            },
            {
              "internalType": "bytes32",
              "name": "blockHash",
              "type": "bytes32"
            },
            {
              "internalType": "uint64",
              "name": "nextConfigurationNumber",
              "type": "uint64"
            },
            {
              "internalType": "bytes32",
              "name": "crossMessagesHash",
              "type": "bytes32"
            }
          ],
          "indexed": false,
          "internalType": "struct BottomUpCheckpoint",
          "name": "checkpoint",
          "type": "tuple"
        },
        {
          "indexed": false,
          "internalType": "address",
          "name": "submitter",
          "type": "address"
        }
      ],
      "name": "BottomUpCheckpointSubmitted",
      "type": "event"
    },
    {
      "anonymous": false,
      "inputs": [
        {
          "indexed": false,
          "internalType": "uint64",
          "name": "epoch",
          "type": "uint64"
        },
        {
          "indexed": false,
          "internalType": "address",
          "name": "submitter",
          "type": "address"
        }
      ],
      "name": "NextBottomUpCheckpointExecuted",
      "type": "event"
    },
    {
      "anonymous": false,
      "inputs": [
        {
          "components": [
            {
              "internalType": "uint256",
              "name": "weight",
              "type": "uint256"
            },
            {
              "internalType": "address",
              "name": "addr",
              "type": "address"
            },
            {
              "internalType": "bytes",
              "name": "metadata",
              "type": "bytes"
            }
          ],
          "indexed": false,
          "internalType": "struct Validator[]",
          "name": "",
          "type": "tuple[]"
        }
      ],
      "name": "SubnetBootstrapped",
      "type": "event"
    },
    {
      "inputs": [
        {
          "internalType": "string",
          "name": "netAddress",
          "type": "string"
        }
      ],
      "name": "addBootstrapNode",
      "outputs": [],
      "stateMutability": "nonpayable",
      "type": "function"
    },
    {
      "inputs": [],
      "name": "claim",
      "outputs": [],
      "stateMutability": "nonpayable",
      "type": "function"
    },
    {
      "inputs": [],
      "name": "claimRewardForRelayer",
      "outputs": [],
      "stateMutability": "nonpayable",
      "type": "function"
    },
    {
      "inputs": [
        {
          "internalType": "uint64",
          "name": "_configurationNumber",
          "type": "uint64"
        }
      ],
      "name": "confirmChange",
      "outputs": [],
      "stateMutability": "nonpayable",
      "type": "function"
    },
    {
      "inputs": [
        {
          "internalType": "uint64",
          "name": "height",
          "type": "uint64"
        },
        {
          "internalType": "uint256",
          "name": "reward",
          "type": "uint256"
        }
      ],
      "name": "distributeRewardToRelayers",
      "outputs": [],
      "stateMutability": "payable",
      "type": "function"
    },
    {
      "inputs": [
        {
          "internalType": "bytes",
          "name": "publicKey",
          "type": "bytes"
        }
      ],
      "name": "join",
      "outputs": [],
      "stateMutability": "payable",
      "type": "function"
    },
    {
      "inputs": [],
      "name": "kill",
      "outputs": [],
      "stateMutability": "nonpayable",
      "type": "function"
    },
    {
      "inputs": [],
      "name": "leave",
      "outputs": [],
      "stateMutability": "nonpayable",
      "type": "function"
    },
    {
      "inputs": [],
      "name": "preFund",
      "outputs": [],
      "stateMutability": "payable",
      "type": "function"
    },
    {
      "inputs": [
        {
          "internalType": "uint256",
          "name": "amount",
          "type": "uint256"
        }
      ],
      "name": "preRelease",
      "outputs": [],
      "stateMutability": "nonpayable",
      "type": "function"
    },
    {
      "inputs": [],
      "name": "stake",
      "outputs": [],
      "stateMutability": "payable",
      "type": "function"
    },
    {
      "inputs": [
        {
          "components": [
            {
              "components": [
                {
                  "internalType": "uint64",
                  "name": "root",
                  "type": "uint64"
                },
                {
                  "internalType": "address[]",
                  "name": "route",
                  "type": "address[]"
                }
              ],
              "internalType": "struct SubnetID",
              "name": "subnetID",
              "type": "tuple"
            },
            {
              "internalType": "uint64",
              "name": "blockHeight",
              "type": "uint64"
            },
            {
              "internalType": "bytes32",
              "name": "blockHash",
              "type": "bytes32"
            },
            {
              "internalType": "uint64",
              "name": "nextConfigurationNumber",
              "type": "uint64"
            },
            {
              "internalType": "bytes32",
              "name": "crossMessagesHash",
              "type": "bytes32"
            }
          ],
          "internalType": "struct BottomUpCheckpoint",
          "name": "checkpoint",
          "type": "tuple"
        },
        {
          "components": [
            {
              "components": [
                {
                  "components": [
                    {
                      "components": [
                        {
                          "internalType": "uint64",
                          "name": "root",
                          "type": "uint64"
                        },
                        {
                          "internalType": "address[]",
                          "name": "route",
                          "type": "address[]"
                        }
                      ],
                      "internalType": "struct SubnetID",
                      "name": "subnetId",
                      "type": "tuple"
                    },
                    {
                      "components": [
                        {
                          "internalType": "uint8",
                          "name": "addrType",
                          "type": "uint8"
                        },
                        {
                          "internalType": "bytes",
                          "name": "payload",
                          "type": "bytes"
                        }
                      ],
                      "internalType": "struct FvmAddress",
                      "name": "rawAddress",
                      "type": "tuple"
                    }
                  ],
                  "internalType": "struct IPCAddress",
                  "name": "from",
                  "type": "tuple"
                },
                {
                  "components": [
                    {
                      "components": [
                        {
                          "internalType": "uint64",
                          "name": "root",
                          "type": "uint64"
                        },
                        {
                          "internalType": "address[]",
                          "name": "route",
                          "type": "address[]"
                        }
                      ],
                      "internalType": "struct SubnetID",
                      "name": "subnetId",
                      "type": "tuple"
                    },
                    {
                      "components": [
                        {
                          "internalType": "uint8",
                          "name": "addrType",
                          "type": "uint8"
                        },
                        {
                          "internalType": "bytes",
                          "name": "payload",
                          "type": "bytes"
                        }
                      ],
                      "internalType": "struct FvmAddress",
                      "name": "rawAddress",
                      "type": "tuple"
                    }
                  ],
                  "internalType": "struct IPCAddress",
                  "name": "to",
                  "type": "tuple"
                },
                {
                  "internalType": "uint256",
                  "name": "value",
                  "type": "uint256"
                },
                {
                  "internalType": "uint64",
                  "name": "nonce",
                  "type": "uint64"
                },
                {
                  "internalType": "bytes4",
                  "name": "method",
                  "type": "bytes4"
                },
                {
                  "internalType": "bytes",
                  "name": "params",
                  "type": "bytes"
                },
                {
                  "internalType": "uint256",
                  "name": "fee",
                  "type": "uint256"
                }
              ],
              "internalType": "struct StorableMsg",
              "name": "message",
              "type": "tuple"
            },
            {
              "internalType": "bool",
              "name": "wrapped",
              "type": "bool"
            }
          ],
          "internalType": "struct CrossMsg[]",
          "name": "messages",
          "type": "tuple[]"
        },
        {
          "internalType": "address[]",
          "name": "signatories",
          "type": "address[]"
        },
        {
          "internalType": "bytes[]",
          "name": "signatures",
          "type": "bytes[]"
        }
      ],
      "name": "submitCheckpoint",
      "outputs": [],
      "stateMutability": "nonpayable",
      "type": "function"
    },
    {
      "inputs": [
        {
          "internalType": "uint256",
          "name": "amount",
          "type": "uint256"
        }
      ],
      "name": "unstake",
      "outputs": [],
      "stateMutability": "nonpayable",
      "type": "function"
    },
    {
      "inputs": [
        {
          "internalType": "address[]",
          "name": "signatories",
          "type": "address[]"
        },
        {
          "internalType": "bytes32",
          "name": "hash",
          "type": "bytes32"
        },
        {
          "internalType": "bytes[]",
          "name": "signatures",
          "type": "bytes[]"
        }
      ],
      "name": "validateActiveQuorumSignatures",
      "outputs": [],
      "stateMutability": "view",
      "type": "function"
    }
  ],
  "bytecode": {
    "object": "0x608060405234801561001057600080fd5b50614344806100206000396000f3fe6080604052600436106100dd5760003560e01c80636170b1621161007f578063cc2dc2b911610059578063cc2dc2b9146101d1578063d66d9e19146101f1578063ed7c4da114610206578063f9002bb11461021b57600080fd5b80636170b1621461017e57806366783c9b14610191578063a8284de3146101b157600080fd5b8063350a14bf116100bb578063350a14bf1461012c5780633a4b66f11461014c57806341c0e1b5146101545780634e71d92d1461016957600080fd5b80630b7fbe60146100e257806310fd4261146100ec5780632e17de781461010c575b600080fd5b6100ea61022e565b005b3480156100f857600080fd5b506100ea61010736600461325c565b610311565b34801561011857600080fd5b506100ea6101273660046132ac565b61038b565b34801561013857600080fd5b506100ea6101473660046132da565b61042f565b6100ea610438565b34801561016057600080fd5b506100ea6104b6565b34801561017557600080fd5b506100ea610559565b6100ea61018c3660046132f7565b61059e565b34801561019d57600080fd5b506100ea6101ac3660046132ac565b610796565b3480156101bd57600080fd5b506100ea6101cc3660046133ac565b6108b5565b3480156101dd57600080fd5b506100ea6101ec366004613556565b610c1e565b3480156101fd57600080fd5b506100ea610caf565b34801561021257600080fd5b506100ea610dc5565b6100ea610229366004613620565b610e64565b3460000361024f57604051631036b5ad60e31b815260040160405180910390fd5b600d54610100900460ff161561027857604051631b39f2f360e11b815260040160405180910390fd5b3360009081526003602052604081205490036102d157600480546001810182556000919091527f8a35acfbc15ff81a39ae7d344fd709f28e8600b4aa8c65c6b64bfe7fe36bd19b0180546001600160a01b031916331790555b33600090815260036020526040812080543492906102f0908490613662565b90915550506002805434919060009061030a908490613662565b9091555050565b61031c600e33610f54565b61034057604051633b4f6e2b60e21b81523360048201526024015b60405180910390fd5b805160000361036257604051637138356f60e01b815260040160405180910390fd5b336000908152601e6020526040902061037b8282613712565b50610387601f33610f6c565b5050565b610393610f81565b806000036103b45760405163c79cad7b60e01b815260040160405180910390fd5b33600090815260106020526040812060010154908190036103ea57604051633b4f6e2b60e21b8152336004820152602401610337565b8181116104095760405162d11df360e61b815260040160405180910390fd5b600d54610100900460ff16610422576103873383610fab565b6103873383610fdf565b50565b61042c81610ffb565b610440610f81565b3460000361046157604051635a78c58160e11b815260040160405180910390fd5b336000908152601060205260409020600101546104915760405163528fc16560e01b815260040160405180910390fd5b600d54610100900460ff166104ac576104aa3334611337565b565b6104aa3334611505565b6104be610f81565b6104c6611521565b61ffff16156104e857604051636b62255160e11b815260040160405180910390fd5b600d805462ff0000191662010000179055600954604080516341c0e1b560e01b815290516001600160a01b03909216916341c0e1b59160048082019260009290919082900301818387803b15801561053f57600080fd5b505af1158015610553573d6000803e3d6000fd5b50505050565b6000805160206142ef83398151915280546000190161058b576040516329f745a760e01b815260040160405180910390fd5b6001815561059833611543565b60009055565b6000805160206142ef8339815191528054600019016105d0576040516329f745a760e01b815260040160405180910390fd5b600181556105dc610f81565b346000036105fd57604051635a78c58160e11b815260040160405180910390fd5b6041821461061e576040516318dca5e960e21b815260040160405180910390fd5b600061062a848461159c565b90506001600160a01b038116331461065557604051634be9251d60e11b815260040160405180910390fd5b600d54610100900460ff166107785761066f3385856115dc565b6106793334611337565b60006106836115eb565b600654909150811061077257600754600160401b90046001600160401b03166106aa6115f8565b61ffff161061077257600d805461ff0019166101001790556040517f4914d88063275a25a13b2df37125e216745d812f94c56504be4bd78cf60c9593906106f3906001906137cb565b60405180910390a16009546002546001600160a01b039091169063f207564e9061071d9084613662565b60025460405160e084901b6001600160e01b031916815260048101919091526024016000604051808303818588803b15801561075857600080fd5b505af115801561076c573d6000803e3d6000fd5b50505050505b5061078d565b610783338585611605565b61078d3334611505565b50600090555050565b6000805160206142ef8339815191528054600019016107c8576040516329f745a760e01b815260040160405180910390fd5b6001815560008290036107ee57604051631036b5ad60e31b815260040160405180910390fd5b600d54610100900460ff161561081757604051631b39f2f360e11b815260040160405180910390fd5b336000908152600360205260409020548211156108475760405163569d45cf60e11b815260040160405180910390fd5b33600090815260036020526040812080548492906108669084906138c7565b9091555050600280548391906000906108809084906138c7565b90915550503360009081526003602052604081205490036108a4576108a433611614565b6108ae338361170e565b6000905550565b6007546005546108d1916001600160401b0390811691166138da565b6001600160401b03166108ea6040890160208a016132da565b6001600160401b03161415801561092457506005546001600160401b03166109186040890160208a016132da565b6001600160401b031614155b156109425760405163fae4eadb60e01b815260040160405180910390fd5b8660800135868660405160200161095a929190613c2a565b604051602081830303815290604052805190602001201461098e57604051632d7f750360e21b815260040160405180910390fd5b6000876040516020016109a19190613cad565b60408051601f1981840301815291905280516020909101206007546005549192506109d8916001600160401b0391821691166138da565b6001600160401b03166109f160408a0160208b016132da565b6001600160401b031603610b6b57610a438585808060200260200160405190810160405280939291908181526020018383602002808284376000920191909152508592506101ec915086905087613cc0565b87600080610a5760408401602085016132da565b6001600160401b031681526020810191909152604001600020610a7a8282613cf1565b50610ab4905033601d6000610a9560408d0160208e016132da565b6001600160401b03168152602081019190915260400160002090610f6c565b50610ac56040890160208a016132da565b6005805467ffffffffffffffff19166001600160401b0392909216919091179055600954604051637a2b59cf60e11b81526001600160a01b039091169063f456b39e90610b1a908b908b908b90600401613e5f565b600060405180830381600087803b158015610b3457600080fd5b505af1158015610b48573d6000803e3d6000fd5b50610b669250610b6191505060808a0160608b016132da565b610ffb565b610c14565b6005546001600160401b0316610b8760408a0160208b016132da565b6001600160401b031603610c145760008080610ba960408c0160208d016132da565b6001600160401b03166001600160401b03168152602001908152602001600020604051602001610bd99190613e85565b604051602081830303815290604052805190602001209050808203610c1257610c1033601d6000610a9560408e0160208f016132da565b505b505b5050505050505050565b6000610c2b600e856117a5565b90506000610c39600e6118d7565b600954909150600090606490610c5990600160a01b900460ff1684613cda565b610c639190613f35565b9050600080610c758886858a8a611942565b9150915081610c1457806006811115610c9057610c90613f57565b60405163282ef1c160e01b815260ff9091166004820152602401610337565b610cb7610f81565b6000805160206142ef833981519152805460001901610ce9576040516329f745a760e01b815260040160405180910390fd5b60018082553360009081526010602052604081209091015490819003610d2457604051633b4f6e2b60e21b8152336004820152602401610337565b610d2f601f33611a8e565b50336000908152601e60205260408120610d4891613171565b600d54610100900460ff16610db457336000908152600360205260409020548015610da357336000908152600360205260028054839290610d8a9084906138c7565b90915550610d99905033611614565b610da3338261170e565b610dad3383610fab565b5050610598565b610dbe3382610fdf565b5060009055565b6000805160206142ef833981519152805460001901610df7576040516329f745a760e01b815260040160405180910390fd5b600181556040516382985e0b60e01b815233600482015273__$4a8700ca5e162cb61a0c4650a4871f1ad5$__906382985e0b9060240160006040518083038186803b158015610e4557600080fd5b505af4158015610e59573d6000803e3d6000fd5b505060009092555050565b610e6c611aa3565b801561038757600754600090610e8b906001600160401b031684613f6d565b6001600160401b0381166000908152601d6020526040812091925090610eb090611ace565b80519091506000819003610ec5575050505050565b80841015610ed4575050505050565b6000610ee08286613f35565b905060005b82811015610f4b57816000601c016000868481518110610f0757610f07613f8d565b60200260200101516001600160a01b03166001600160a01b031681526020019081526020016000206000828254610f3e9190613662565b9091555050600101610ee5565b50505050505050565b6000610f636003840183611ae2565b90505b92915050565b6000610f63836001600160a01b038416611b08565b600d5462010000900460ff16156104aa5760405163248c8efb60e11b815260040160405180910390fd5b6000610fb9600e8484611b57565b610fc7600e82018484611bc5565b610fda6001600160a01b0384168361170e565b505050565b6000610fed60178484611ca0565b610fda600e82018484611b57565b60178054600091906001600160401b039081169084161061102f5760405163040aaa0560e11b815260040160405180910390fd5b80546001600160401b03600160401b9091048116908416101561105157505050565b8054600160401b90046001600160401b0316805b846001600160401b0316816001600160401b0316116112c7576001600160401b0381166000908152600184016020526040812060028181015482549293506001600160a01b03169160ff16818111156110c0576110c0613f57565b036110f5576001600160a01b038116600090815260108701602052604090206002016110ef6001840182613fa3565b506112b3565b600082600101805461110690613675565b80601f016020809104026020016040519081016040528092919081815260200182805461113290613675565b801561117f5780601f106111545761010080835404028352916020019161117f565b820191906000526020600020905b81548152906001019060200180831161116257829003601f168201915b5050505050806020019051810190611197919061406f565b90506001835460ff1660028111156111b1576111b1613f57565b03611237576111c4600e88018383611bc5565b6111d2601988018383611d1c565b60098701546040516345f5448560e01b8152600481018390526001600160a01b03909116906345f5448590602401600060405180830381600087803b15801561121a57600080fd5b505af115801561122e573d6000803e3d6000fd5b505050506112b1565b611245600e88018383611dae565b8660090160009054906101000a90046001600160a01b03166001600160a01b0316635a627dbc826040518263ffffffff1660e01b81526004016000604051808303818588803b15801561129757600080fd5b505af11580156112ab573d6000803e3d6000fd5b50505050505b505b6112bd8584611e1b565b5050600101611065565b506112d38460016138da565b82546fffffffffffffffff00000000000000001916600160401b6001600160401b039283160217835560405190851681527f246f00b61ce672242f33bb680a47147cd54d3dfd04dbb76956ba42f88087bf639060200160405180910390a150505050565b6000611345600e8484611e62565b611353600e82018484611dae565b600d810154610100900460ff16610fda576001810154600090815b818110156113c857856001600160a01b031684600101828154811061139557611395613f8d565b60009182526020909120600160039092020101546001600160a01b0316036113c057600192506113c8565b60010161136e565b50816114fe576001600160a01b038516600081815260108501602081815260408084208054825160608101845281815280850188905296865293909252600290910180549294929183019161141c90613675565b80601f016020809104026020016040519081016040528092919081815260200182805461144890613675565b80156114955780601f1061146a57610100808354040283529160200191611495565b820191906000526020600020905b81548152906001019060200180831161147857829003601f168201915b505050919092525050600186810180548083018255600091825260209182902084516003909202019081559083015191810180546001600160a01b0319166001600160a01b0390931692909217909155604082015191925082916002820190610c109082613712565b5050505050565b600061151360178484611e99565b610fda600e82018484611e62565b601154601454600091829161153d9161ffff9081169116614088565b91505090565b600080611551601984611f06565b604080516001600160a01b0386168152602081018390529192507f197c586353eaed0a1c53e6e540445b94befab8f932c8115d112115ecbeeed51491015b60405180910390a1505050565b6000604182146115ae576115ae6140a3565b60006115bd83600181876140b9565b6040516115cb9291906140e3565b604051908190039020949350505050565b6000610553600e858585611f7e565b600f54600090819061153d565b60008061153d600e611fa6565b60006105536017858585611fb7565b60045460005b81811015610fda57826001600160a01b03166000600401828154811061164257611642613f8d565b6000918252602090912001546001600160a01b0316036117065760046116696001846138c7565b8154811061167957611679613f8d565b600091825260209091200154600480546001600160a01b0390921691839081106116a5576116a5613f8d565b600091825260209091200180546001600160a01b0319166001600160a01b039290921691909117905560048054806116df576116df6140f3565b600082815260209020810160001990810180546001600160a01b0319169055019055505050565b60010161161a565b804710156117315760405163cd78605960e01b8152306004820152602401610337565b6000826001600160a01b03168260405160006040518083038185875af1925050503d806000811461177e576040519150601f19603f3d011682016040523d82523d6000602084013e611783565b606091505b5050905080610fda57604051630a12f52160e11b815260040160405180910390fd5b80516060906000816001600160401b038111156117c4576117c46131bf565b6040519080825280602002602001820160405280156117ed578160200160208202803683370190505b50905060005b828110156118ce5761181e8686838151811061181157611811613f8d565b6020026020010151610f54565b6118655784818151811061183457611834613f8d565b6020026020010151604051633b4f6e2b60e21b815260040161033791906001600160a01b0391909116815260200190565b85600201600086838151811061187d5761187d613f8d565b60200260200101516001600160a01b03166001600160a01b03168152602001908152602001600020600001548282815181106118bb576118bb613f8d565b60209081029190910101526001016117f3565b50949350505050565b6000806118e9836003015461ffff1690565b905060015b8161ffff168161ffff161161193b5761ffff811660009081526005850160205260409020546001600160a01b03166119268582612036565b6119309085613662565b9350506001016118ee565b5050919050565b80516000908190600190829080820361196357505015915060029050611a84565b895181141580611974575088518114155b1561198757505015915060019050611a84565b60005b81811015611a63576000806119b88a8a85815181106119ab576119ab613f8d565b6020026020010151612054565b50909250905060008160038111156119d2576119d2613f57565b146119ea578515600597509750505050505050611a84565b8c83815181106119fc576119fc613f8d565b60200260200101516001600160a01b0316826001600160a01b031614611a2f578515600497509750505050505050611a84565b8b8381518110611a4157611a41613f8d565b602002602001015185611a549190613662565b9450826001019250505061198a565b50878210611a7a5782600094509450505050611a84565b5050159150600690505b9550959350505050565b6000610f63836001600160a01b0384166120a1565b6009546001600160a01b031633146104aa5760405163e7e601db60e01b815260040160405180910390fd5b60606000611adb8361219b565b9392505050565b6001600160a01b038116600090815260018301602052604081205461ffff161515610f63565b6000818152600183016020526040812054611b4f57508154600181810184556000848152602080822090930184905584548482528286019093526040902091909155610f66565b506000610f66565b6001600160a01b038216600090815260028401602052604090206001015481811015611b965760405163ac69360360e01b815260040160405180910390fd5b611ba082826138c7565b6001600160a01b03909316600090815260029094016020525050604090912060010155565b6001600160a01b0382166000908152600284016020526040812054611beb9083906138c7565b6001600160a01b038416600090815260028601602052604090206001015490915081158015611c18575080155b15611c57576001600160a01b0384166000908152600280870160205260408220828155600181018390559190611c5090830182613171565b5050611c75565b6001600160a01b038416600090815260028601602052604090208290555b611c808585846121f7565b82856001016000828254611c9491906138c7565b90915550505050505050565b600081604051602001611cb591815260200190565b60405160208183030381529060405290506000611cd585856001856124b4565b90507f1c593a2b803c3f9038e8b6743ba79fbc4276d2770979a01d2768ed12bea3243f6001858484604051611d0d949392919061412b565b60405180910390a15050505050565b8254600090611d2b9043613662565b60408051808201825282815260208082018690526001600160a01b0387166000908152600189019091529190912091925090611d6790826125ab565b604080516001600160a01b0386168152602081018590529081018390527f083b080788e20bd0930c2bca2ae4fbc51a59ced08c1b5992271f8cb439498a6390606001611d0d565b6001600160a01b0382166000908152600284016020526040812054611dd4908390613662565b6001600160a01b038416600090815260028601602052604081208290556001860180549293508492909190611e0a908490613662565b909155506105539050848483612617565b6001600160401b0381166000908152600180840160205260408220805460ff191681559190611e4c90830182613171565b5060020180546001600160a01b03191690555050565b6001600160a01b038216600090815260028401602052604081206001018054839290611e8f908490613662565b9091555050505050565b600081604051602001611eae91815260200190565b60405160208183030381529060405290506000611ece85856000856124b4565b90507f1c593a2b803c3f9038e8b6743ba79fbc4276d2770979a01d2768ed12bea3243f6000858484604051611d0d949392919061412b565b6001600160a01b0381166000908152600183016020526040812081908190611f2d9061283d565b915091508061ffff16600003611f63576001600160a01b03841660009081526001860160205260409020805463ffffffff191690555b611f766001600160a01b0385168361170e565b509392505050565b6001600160a01b038316600090815260028086016020526040909120016114fe8284836141a7565b6000610f66826003015461ffff1690565b6000611ffc8585600286868080601f0160208091040260200160405190810160405280939291908181526020018383808284376000920191909152506124b492505050565b90507f1c593a2b803c3f9038e8b6743ba79fbc4276d2770979a01d2768ed12bea3243f600285858585604051611d0d959493929190614260565b6001600160a01b031660009081526002909101602052604090205490565b6000806000835160410361208e5760208401516040850151606086015160001a61208088828585612931565b95509550955050505061209a565b50508151600091506002905b9250925092565b6000818152600183016020526040812054801561218a5760006120c56001836138c7565b85549091506000906120d9906001906138c7565b905081811461213e5760008660000182815481106120f9576120f9613f8d565b906000526020600020015490508087600001848154811061211c5761211c613f8d565b6000918252602080832090910192909255918252600188019052604090208390555b855486908061214f5761214f6140f3565b600190038181906000526020600020016000905590558560010160008681526020019081526020016000206000905560019350505050610f66565b6000915050610f66565b5092915050565b6060816000018054806020026020016040519081016040528092919081815260200182805480156121eb57602002820191906000526020600020905b8154815260200190600101908083116121d7575b50505050509050919050565b6122046006840183611ae2565b156122a557806000036122585761221f600684018484612a00565b6040516001600160a01b03831681527f3168ba660eed6ef1dc2258b2247cc05fd0f2f350d39e6ad2e2ebc76a8000b40b9060200161158f565b612266600684018484612a98565b604080516001600160a01b0384168152602081018390527fda148fac2e1063174be7bc0895576bdaba90fd14e575463fa26a967cb895cadd910161158f565b6122b26003840183611ae2565b6122cf57604051632a55ca5360e01b815260040160405180910390fd5b8060000361239e576122e5600384018484612ac0565b6040516001600160a01b03831681527f4a4c5d1a281180eea1e99d8177fa4798b9f7e019d5c57e7d8d73c6a22199aa5b9060200160405180910390a1600683015461ffff1615610fda5760008061233f6006860186612b50565b90925090506123516006860186612b92565b61235f600386018684612bf0565b604080516001600160a01b0384168152602081018390527f2e8038f5812f763c6ef0c5427cb5a05ce6d7064af2ba7d1d270bc02660b019fd9101611d0d565b6123ac600384018484612c76565b600683015461ffff166000036123c157505050565b6000806123d16003860186612b50565b90925090506000806123e66006880188612b50565b9150915080831015612475576123ff6003880188612c90565b61240c6006880188612b92565b61241a600388018884612bf0565b612428600688018886612cee565b604080516001600160a01b038087168252841660208201527ffaeb8de771b867cf357f6b459a7002b62ec45d544a8078a3ecd91200cc826d7591015b60405180910390a150505050505050565b604080516001600160a01b0388168152602081018790527f143db27bc2036653dc6f962ff9d0b803163d4af50c256ca9e6927b3d6dcd01979101612464565b835460408051606081019091526001600160401b0390911690808460028111156124e0576124e0613f57565b815260208082018590526001600160a01b0387166040928301526001600160401b03841660009081526001808a01909252919091208251815491929091839160ff199091169083600281111561253857612538613f57565b0217905550602082015160018201906125519082613712565b5060409190910151600290910180546001600160a01b0319166001600160a01b039092169190911790556125868160016138da565b855467ffffffffffffffff19166001600160401b039190911617909455509192915050565b815461ffff808216916000916125ca9184916201000090910416614088565b61ffff81166000908152600180870160209081526040909220865181559186015191810191909155909150612600908390614088565b845461ffff191661ffff9190911617909355505050565b6126246003840183611ae2565b1561267657612637600384018484612d74565b604080516001600160a01b0384168152602081018390527f143db27bc2036653dc6f962ff9d0b803163d4af50c256ca9e6927b3d6dcd0197910161158f565b825461ffff16600061268d600386015461ffff1690565b90508061ffff168261ffff1611156126ec576126ad600386018686612bf0565b604080516001600160a01b0386168152602081018590527f2e8038f5812f763c6ef0c5427cb5a05ce6d7064af2ba7d1d270bc02660b019fd9101611d0d565b6000806126fc6003880188612b50565b9150915084811015612791576127156003880188612c90565b6127226006880187611ae2565b1561273557612735600688018888612a00565b612743600388018888612bf0565b612751600688018884612cee565b604080516001600160a01b038085168252881660208201527ffaeb8de771b867cf357f6b459a7002b62ec45d544a8078a3ecd91200cc826d759101612464565b61279e6006880187611ae2565b156127f0576127b1600688018888612d9c565b604080516001600160a01b0388168152602081018790527fda148fac2e1063174be7bc0895576bdaba90fd14e575463fa26a967cb895cadd9101612464565b6127fe600688018888612cee565b604080516001600160a01b0388168152602081018790527f19fe3ca603e87854a0747cc10abf06bac64d61bac73d6d15f2fd3ca448f152649101612464565b8054600090819061ffff16808203612868576040516364b0557f60e01b815260040160405180910390fd5b835462010000900461ffff168160005b8361ffff168361ffff1610156129065761ffff831660009081526001808901602090815260409283902083518085019094528054808552920154908301524310156128c35750612906565b60208101516128d29083613662565b61ffff8516600090815260018a81016020526040822082815581019190915590940193600019939093019291506128789050565b865463ffffffff19166201000061ffff9485160261ffff191617928216929092179095559492505050565b600080807f7fffffffffffffffffffffffffffffff5d576e7357a4501ddfe92f46681b20a084111561296c57506000915060039050826129f6565b604080516000808252602082018084528a905260ff891692820192909252606081018790526080810186905260019060a0016020604051602081039080840390855afa1580156129c0573d6000803e3d6000fd5b5050604051601f1901519150506001600160a01b0381166129ec575060009250600191508290506129f6565b9250600091508190505b9450945094915050565b6000612a0c8483612db6565b845490915061ffff16612a20858383612df6565b612a2b6001826142ad565b855461ffff191661ffff91909116178555612a468582612eab565b8161ffff168161ffff1603612a5c575050505050565b6000612a69868685612ef0565b9050612a7786868584612f22565b612a82868685612ef0565b9050612a9086868584612f66565b505050505050565b6000612aa48483612db6565b90506000612ab28484612036565b90506114fe85858484612f66565b6000612acc8483612db6565b845490915061ffff16612ae0858383612df6565b612aeb6001826142ad565b855461ffff191661ffff91909116178555612b068582612eab565b8161ffff168161ffff1603612b1c575050505050565b6000612b29868685612ef0565b9050612b3786868584612ff2565b612b42868685612ef0565b9050612a9086868584613036565b600080612b5c846130c7565b600160009081526002850160205260408120546001600160a01b031690612b838583612036565b919350909150505b9250929050565b612b9b826130c7565b815461ffff16612bad83600183612df6565b612bb86001826142ad565b835461ffff191661ffff91909116178355612bd38382612eab565b6000612be184846001612ef0565b90506105538484600184612f66565b8254600090612c049061ffff166001614088565b6001600160a01b03831660008181526001870160209081526040808320805461ffff871661ffff19918216811790925581855260028b0190935290832080546001600160a01b0319169094179093558754169091178655909150612c688484612036565b90506114fe85858484612ff2565b6000612c828483612db6565b90506000612c688484612036565b612c99826130c7565b815461ffff16612cab83600183612df6565b612cb66001826142ad565b835461ffff191661ffff91909116178355612cd18382612eab565b6000612cdf84846001612ef0565b90506105538484600184613036565b8254600090612d029061ffff166001614088565b6001600160a01b03831660008181526001870160209081526040808320805461ffff871661ffff19918216811790925581855260028b0190935290832080546001600160a01b0319169094179093558754169091178655909150612d668484612036565b90506114fe85858484612f22565b6000612d808483612db6565b90506000612d8e8484612036565b90506114fe85858484613036565b6000612da88483612db6565b90506000612d668484612036565b6001600160a01b038116600090815260018301602052604081205461ffff1690819003610f665760405163f2755e3760e01b815260040160405180910390fd5b825461ffff9081169083161115612e0f57612e0f6140a3565b825461ffff9081169082161115612e2857612e286140a3565b61ffff9182166000818152600285016020818152604080842080549690971680855281852080546001600160a01b039889168088526001909b018552838720805461ffff19908116909417905590971680865291852080549091168617905591905283546001600160a01b03199081169096179093555281549092169091179055565b61ffff166000908152600282016020908152604080832080546001600160a01b031981169091556001600160a01b031683526001909301905220805461ffff19169055565b61ffff811660009081526002840160205260408120546001600160a01b0316612f198482612036565b95945050505050565b6000805b60018461ffff161115612a9057617fff600185901c169150612f49868684612ef0565b905080831115612a9057612f5e868386612df6565b819350612f26565b83546201fffe600184901b169060009061ffff165b8061ffff168361ffff1611610f4b578061ffff168361ffff161015612fba57612fb0878785612fab816001614088565b6130ed565b9093509150612fc8565b612fc5878785612ef0565b91505b83821115610f4b57612fdb878487612df6565b829450846002612feb91906142c8565b9250612f7b565b6000805b60018461ffff161115612a9057617fff600185901c169150613019868684612ef0565b905080831015612a905761302e868386612df6565b819350612ff6565b60006130438360026142c8565b855490915060009061ffff165b8061ffff168361ffff1611610f4b578061ffff168361ffff16101561308f57613085878785613080816001614088565b613131565b909350915061309d565b61309a878785612ef0565b91505b83821015610f4b576130b0878487612df6565b8294508460026130c091906142c8565b9250613050565b805461ffff1660000361042c576040516340d9b01160e01b815260040160405180910390fd5b600080806130fc878787612ef0565b9050600061310b888887612ef0565b9050818111156131215784935091506131289050565b5084925090505b94509492505050565b60008080613140878787612ef0565b9050600061314f888887612ef0565b905081811061316357508492509050613128565b939793965092945050505050565b50805461317d90613675565b6000825580601f1061318d575050565b601f01602090049060005260206000209081019061042c91905b808211156131bb57600081556001016131a7565b5090565b634e487b7160e01b600052604160045260246000fd5b604051601f8201601f191681016001600160401b03811182821017156131fd576131fd6131bf565b604052919050565b60006001600160401b0383111561321e5761321e6131bf565b613231601f8401601f19166020016131d5565b905082815283838301111561324557600080fd5b828260208301376000602084830101529392505050565b60006020828403121561326e57600080fd5b81356001600160401b0381111561328457600080fd5b8201601f8101841361329557600080fd5b6132a484823560208401613205565b949350505050565b6000602082840312156132be57600080fd5b5035919050565b6001600160401b038116811461042c57600080fd5b6000602082840312156132ec57600080fd5b8135611adb816132c5565b6000806020838503121561330a57600080fd5b82356001600160401b038082111561332157600080fd5b818501915085601f83011261333557600080fd5b81358181111561334457600080fd5b86602082850101111561335657600080fd5b60209290920196919550909350505050565b60008083601f84011261337a57600080fd5b5081356001600160401b0381111561339157600080fd5b6020830191508360208260051b8501011115612b8b57600080fd5b60008060008060008060006080888a0312156133c757600080fd5b87356001600160401b03808211156133de57600080fd5b9089019060a0828c0312156133f257600080fd5b9097506020890135908082111561340857600080fd5b6134148b838c01613368565b909850965060408a013591508082111561342d57600080fd5b6134398b838c01613368565b909650945060608a013591508082111561345257600080fd5b5061345f8a828b01613368565b989b979a50959850939692959293505050565b60006001600160401b0382111561348b5761348b6131bf565b5060051b60200190565b6001600160a01b038116811461042c57600080fd5b60006134bd6134b884613472565b6131d5565b8381529050602080820190600585901b8401868111156134dc57600080fd5b845b8181101561352b5780356001600160401b038111156134fd5760008081fd5b8601601f8101891361350f5760008081fd5b61351d898235868401613205565b8552509282019282016134de565b505050509392505050565b600082601f83011261354757600080fd5b610f63838335602085016134aa565b60008060006060848603121561356b57600080fd5b83356001600160401b038082111561358257600080fd5b818601915086601f83011261359657600080fd5b813560206135a66134b883613472565b82815260059290921b8401810191818101908a8411156135c557600080fd5b948201945b838610156135ec5785356135dd81613495565b825294820194908201906135ca565b975050870135945050604086013591508082111561360957600080fd5b5061361686828701613536565b9150509250925092565b6000806040838503121561363357600080fd5b823561363e816132c5565b946020939093013593505050565b634e487b7160e01b600052601160045260246000fd5b80820180821115610f6657610f6661364c565b600181811c9082168061368957607f821691505b6020821081036136a957634e487b7160e01b600052602260045260246000fd5b50919050565b5b8181101561038757600081556001016136b0565b601f821115610fda57806000526020600020601f840160051c810160208510156136eb5750805b6114fe601f850160051c8301826136af565b600019600383901b1c191660019190911b1790565b81516001600160401b0381111561372b5761372b6131bf565b61373f816137398454613675565b846136c4565b602080601f83116001811461376e576000841561375c5750858301515b61376685826136fd565b865550612a90565b600085815260208120601f198616915b8281101561379d5788860151825594840194600190910190840161377e565b50858210156137bb5787850151600019600388901b60f8161c191681555b5050505050600190811b01905550565b6000602080830181845280855480835260408601915060408160051b87010192506000878152848120815b838110156138b957888603603f190185528154865260018201546001600160a01b03168787015260606040870152600282018054849061383581613675565b8060608b0152600182166000811461385457600181146138705761389f565b60ff19831660808c0152608082151560051b8c0101935061389f565b8488528b8820885b838110156138965781548d8201608001526001909101908d01613878565b8c016080019450505b5091985050509487019450600391909101906001016137f6565b509398975050505050505050565b81810381811115610f6657610f6661364c565b6001600160401b038181168382160190808211156121945761219461364c565b60008235603e1983360301811261391057600080fd5b90910192915050565b600060408301823561392a816132c5565b6001600160401b0390811685526020908482013536869003601e1901811261395157600080fd5b850182810190358281111561396557600080fd5b8060051b360382131561397757600080fd5b60408885015293849052926060870191506000905b808210156139be57843561399f81613495565b6001600160a01b0316835293830193918301916001919091019061398c565b50909695505050505050565b6000808335601e198436030181126139e157600080fd5b83016020810192503590506001600160401b03811115613a0057600080fd5b803603821315612b8b57600080fd5b81835281816020850137506000828201602090810191909152601f909101601f19169091010190565b6000613a4482836138fa565b60408452613a556040850182613919565b9050613a6460208401846138fa565b8482036020860152803560ff8116808214613a7e57600080fd5b835250613a8e60208201826139ca565b915060406020840152613aa5604084018383613a0f565b9695505050505050565b80356001600160e01b031981168114613ac757600080fd5b919050565b80358015158114613ac757600080fd5b81835260006020808501808196508560051b81019150846000805b88811015613c1c578385038a52613b0e83896138fa565b6040813560de19833603018112613b23578485fd5b8188528201613b3281806138fa565b60e080848b0152613b476101208b0183613a38565b9150613b558b8401846138fa565b603f196060818d860301818e0152613b6d8584613a38565b94506080925086860135838e015280860135965050613b8b866132c5565b60a06001600160401b038716818e0152613ba6838701613aaf565b965060c09250613bc1838e01886001600160e01b0319169052565b613bcd818701876139ca565b97509050818d860301848e0152613be5858883613a0f565b96505050808401356101008c015250505050613c02888301613acc565b151596880196909652509885019891850191600101613af7565b509298975050505050505050565b6020815260006132a4602083018486613adc565b6000613c4a82836138fa565b60a08452613c5b60a0850182613919565b90506020830135613c6b816132c5565b6001600160401b0380821660208701526040850135604087015260608501359150613c95826132c5565b16606085015260809283013592909301919091525090565b602081526000610f636020830184613c3e565b6000610f633684846134aa565b60008135610f66816132c5565b8082028115828204841417610f6657610f6661364c565b8135603e19833603018112613d0557600080fd5b82018035613d12816132c5565b825467ffffffffffffffff19166001600160401b038216178355506001808301602080840135601e19853603018112613d4a57600080fd5b939093019283356001600160401b03811115613d6557600080fd5b81850194508060051b3603851315613d7c57600080fd5b600160401b811115613d9057613d906131bf565b825481845580821015613db5578360005282600020613db38282018483016136af565b505b506000928352818320925b81811015613de2578535613dd381613495565b84820155948201948401613dc0565b5050613e13613df2828801613ccd565b600287016001600160401b0382166001600160401b03198254161781555050565b5050505060408201356003820155613e51613e3060608401613ccd565b600483016001600160401b0382166001600160401b03198254161781555050565b608082013560058201555050565b604081526000613e726040830186613c3e565b8281036020840152613aa5818587613adc565b602080825260a08282015282546001600160401b031660c0830152604060e083015260018084018054610100850181905260009182528382209193929084906101208701905b80831015613ef15784546001600160a01b03168252938301939183019190850190613ecb565b5060028801546001600160401b03908116604089015260038901546060890152600489015416608088015260059097015460a0909601959095525093949350505050565b600082613f5257634e487b7160e01b600052601260045260246000fd5b500490565b634e487b7160e01b600052602160045260246000fd5b6001600160401b038281168282160390808211156121945761219461364c565b634e487b7160e01b600052603260045260246000fd5b818103613fae575050565b613fb88254613675565b6001600160401b03811115613fcf57613fcf6131bf565b613fdd816137398454613675565b6000601f82116001811461400b5760008315613ff95750848201545b61400384826136fd565b8555506114fe565b600085815260209020601f19841690600086815260209020845b838110156140455782860154825560019586019590910190602001614025565b50858310156137bb5793015460001960f8600387901b161c19169092555050600190811b01905550565b60006020828403121561408157600080fd5b5051919050565b61ffff8181168382160190808211156121945761219461364c565b634e487b7160e01b600052600160045260246000fd5b600080858511156140c957600080fd5b838611156140d657600080fd5b5050820193919092039150565b8183823760009101908152919050565b634e487b7160e01b600052603160045260246000fd5b6003811061412757634e487b7160e01b600052602160045260246000fd5b9052565b6141358186614109565b6000602060018060a01b0386168184015260806040840152845180608085015260005b818110156141745786810183015185820160a001528201614158565b50600060a0828601015260a0601f19601f830116850101925050506001600160401b038316606083015295945050505050565b6001600160401b038311156141be576141be6131bf565b6141d2836141cc8354613675565b836136c4565b6000601f84116001811461420057600085156141ee5750838201355b6141f886826136fd565b8455506114fe565b600083815260209020601f19861690835b828110156142315786850135825560209485019460019092019101614211565b508682101561424e5760001960f88860031b161c19848701351681555b505060018560011b0183555050505050565b61426a8187614109565b6001600160a01b03851660208201526080604082018190526000906142929083018587613a0f565b90506001600160401b03831660608301529695505050505050565b61ffff8281168282160390808211156121945761219461364c565b61ffff8181168382160280821691908281146142e6576142e661364c565b50509291505056fe691bb03ffc16c56fc96b82fd16cd1b3715f0bc3cdc6407005f49bb6205860095a26469706673582212206939b8e38e0d715712558b19b8f70d441356fe8e3e07971aa6bb4344a937f93e64736f6c63430008130033",
    "linkReferences": {
      "src/lib/LibStaking.sol": {
        "LibStaking": [
          {
            "start": 3632,
            "length": 20
          }
        ]
      }
    }
  },
  "methodIdentifiers": {
    "addBootstrapNode(string)": "10fd4261",
    "claim()": "4e71d92d",
    "claimRewardForRelayer()": "ed7c4da1",
    "confirmChange(uint64)": "350a14bf",
    "distributeRewardToRelayers(uint64,uint256)": "f9002bb1",
    "join(bytes)": "6170b162",
    "kill()": "41c0e1b5",
    "leave()": "d66d9e19",
    "preFund()": "0b7fbe60",
    "preRelease(uint256)": "66783c9b",
    "stake()": "3a4b66f1",
    "submitCheckpoint(((uint64,address[]),uint64,bytes32,uint64,bytes32),((((uint64,address[]),(uint8,bytes)),((uint64,address[]),(uint8,bytes)),uint256,uint64,bytes4,bytes,uint256),bool)[],address[],bytes[])": "a8284de3",
    "unstake(uint256)": "2e17de78",
    "validateActiveQuorumSignatures(address[],bytes32,bytes[])": "cc2dc2b9"
  },
  "id": 97
}