{"abi":[{"type":"function","name":"addBootstrapNode","inputs":[{"name":"netAddress","type":"string","internalType":"string"}],"outputs":[],"stateMutability":"nonpayable"},{"type":"function","name":"claim","inputs":[],"outputs":[],"stateMutability":"nonpayable"},{"type":"function","name":"claimRewardForRelayer","inputs":[],"outputs":[],"stateMutability":"nonpayable"},{"type":"function","name":"distributeRewardToRelayers","inputs":[{"name":"height","type":"uint256","internalType":"uint256"},{"name":"reward","type":"uint256","internalType":"uint256"}],"outputs":[],"stateMutability":"payable"},{"type":"function","name":"join","inputs":[{"name":"publicKey","type":"bytes","internalType":"bytes"}],"outputs":[],"stateMutability":"payable"},{"type":"function","name":"kill","inputs":[],"outputs":[],"stateMutability":"nonpayable"},{"type":"function","name":"leave","inputs":[],"outputs":[],"stateMutability":"nonpayable"},{"type":"function","name":"preFund","inputs":[],"outputs":[],"stateMutability":"payable"},{"type":"function","name":"preRelease","inputs":[{"name":"amount","type":"uint256","internalType":"uint256"}],"outputs":[],"stateMutability":"nonpayable"},{"type":"function","name":"setFederatedPower","inputs":[{"name":"validators","type":"address[]","internalType":"address[]"},{"name":"publicKeys","type":"bytes[]","internalType":"bytes[]"},{"name":"powers","type":"uint256[]","internalType":"uint256[]"}],"outputs":[],"stateMutability":"nonpayable"},{"type":"function","name":"stake","inputs":[],"outputs":[],"stateMutability":"payable"},{"type":"function","name":"submitCheckpoint","inputs":[{"name":"checkpoint","type":"tuple","internalType":"struct BottomUpCheckpoint","components":[{"name":"subnetID","type":"tuple","internalType":"struct SubnetID","components":[{"name":"root","type":"uint64","internalType":"uint64"},{"name":"route","type":"address[]","internalType":"address[]"}]},{"name":"blockHeight","type":"uint256","internalType":"uint256"},{"name":"blockHash","type":"bytes32","internalType":"bytes32"},{"name":"nextConfigurationNumber","type":"uint64","internalType":"uint64"}]},{"name":"signatories","type":"address[]","internalType":"address[]"},{"name":"signatures","type":"bytes[]","internalType":"bytes[]"}],"outputs":[],"stateMutability":"nonpayable"},{"type":"function","name":"unstake","inputs":[{"name":"amount","type":"uint256","internalType":"uint256"}],"outputs":[],"stateMutability":"nonpayable"},{"type":"function","name":"validateActiveQuorumSignatures","inputs":[{"name":"signatories","type":"address[]","internalType":"address[]"},{"name":"hash","type":"bytes32","internalType":"bytes32"},{"name":"signatures","type":"bytes[]","internalType":"bytes[]"}],"outputs":[],"stateMutability":"view"},{"type":"event","name":"BottomUpCheckpointExecuted","inputs":[{"name":"epoch","type":"uint256","indexed":false,"internalType":"uint256"},{"name":"submitter","type":"address","indexed":false,"internalType":"address"}],"anonymous":false},{"type":"event","name":"BottomUpCheckpointSubmitted","inputs":[{"name":"checkpoint","type":"tuple","indexed":false,"internalType":"struct BottomUpCheckpoint","components":[{"name":"subnetID","type":"tuple","internalType":"struct SubnetID","components":[{"name":"root","type":"uint64","internalType":"uint64"},{"name":"route","type":"address[]","internalType":"address[]"}]},{"name":"blockHeight","type":"uint256","internalType":"uint256"},{"name":"blockHash","type":"bytes32","internalType":"bytes32"},{"name":"nextConfigurationNumber","type":"uint64","internalType":"uint64"}]},{"name":"submitter","type":"address","indexed":false,"internalType":"address"}],"anonymous":false},{"type":"event","name":"NextBottomUpCheckpointExecuted","inputs":[{"name":"epoch","type":"uint256","indexed":false,"internalType":"uint256"},{"name":"submitter","type":"address","indexed":false,"internalType":"address"}],"anonymous":false},{"type":"event","name":"SubnetBootstrapped","inputs":[{"name":"","type":"tuple[]","indexed":false,"internalType":"struct Validator[]","components":[{"name":"weight","type":"uint256","internalType":"uint256"},{"name":"addr","type":"address","internalType":"address"},{"name":"metadata","type":"bytes","internalType":"bytes"}]}],"anonymous":false},{"type":"error","name":"AddressInsufficientBalance","inputs":[{"name":"account","type":"address","internalType":"address"}]},{"type":"error","name":"AddressShouldBeValidator","inputs":[]},{"type":"error","name":"CannotConfirmFutureChanges","inputs":[]},{"type":"error","name":"CannotReleaseZero","inputs":[]},{"type":"error","name":"CollateralIsZero","inputs":[]},{"type":"error","name":"EmptyAddress","inputs":[]},{"type":"error","name":"FailedInnerCall","inputs":[]},{"type":"error","name":"InvalidCheckpointEpoch","inputs":[]},{"type":"error","name":"InvalidFederationPayload","inputs":[]},{"type":"error","name":"InvalidPublicKeyLength","inputs":[]},{"type":"error","name":"InvalidSignatureErr","inputs":[{"name":"","type":"uint8","internalType":"uint8"}]},{"type":"error","name":"MethodNotAllowed","inputs":[{"name":"reason","type":"string","internalType":"string"}]},{"type":"error","name":"NoCollateralToWithdraw","inputs":[]},{"type":"error","name":"NotAllValidatorsHaveLeft","inputs":[]},{"type":"error","name":"NotEnoughBalance","inputs":[]},{"type":"error","name":"NotEnoughCollateral","inputs":[]},{"type":"error","name":"NotEnoughFunds","inputs":[]},{"type":"error","name":"NotGateway","inputs":[]},{"type":"error","name":"NotOwner","inputs":[]},{"type":"error","name":"NotOwnerOfPublicKey","inputs":[]},{"type":"error","name":"NotStakedBefore","inputs":[]},{"type":"error","name":"NotValidator","inputs":[{"name":"","type":"address","internalType":"address"}]},{"type":"error","name":"PQDoesNotContainAddress","inputs":[]},{"type":"error","name":"PQEmpty","inputs":[]},{"type":"error","name":"ReentrancyError","inputs":[]},{"type":"error","name":"SubnetAlreadyBootstrapped","inputs":[]},{"type":"error","name":"SubnetAlreadyKilled","inputs":[]},{"type":"error","name":"WithdrawExceedingCollateral","inputs":[]}],"bytecode":{"object":"0x6080806040523461001657614413908161001c8239f35b600080fdfe608080604052600436101561001357600080fd5b600090813560e01c9081630b7fbe60146114a35750806310fd4261146113345780632e17de781461130f5780633a4b66f1146112f357806341c0e1b5146112595780634e71d92d146110cd57806350fd89691461108e5780636170b16214610b2a57806366783c9b14610a49578063b9ee2bb914610627578063cc2dc2b9146105a7578063d66d9e1914610564578063da5d09ee146101715763ed7c4da1146100bb57600080fd5b3461016e578060031936011261016e576000805160206143be833981519152600181541461015c5780600183925573__$4a8700ca5e162cb61a0c4650a4871f1ad5$__803b156101585782602491604051928380926382985e0b60e01b82523360048301525af490811561014d578391610136575b50505580f35b61013f9061156a565b61014a578138610130565b50fd5b6040513d85823e3d90fd5b5050fd5b6040516329f745a760e01b8152600490fd5b80fd5b503461016e57606036600319011261016e576004356001600160401b038111610560576101a290369060040161162b565b906024356001600160401b03811161055c576101c290369060040161162b565b916044356001600160401b038111610558576101e290369060040161162b565b90946101ec61345e565b7f806e0cbb9fce296bbc336a48f42bf1dbc69722d18d90d6fe705b7582c2bb4bd5546001600160a01b031633036105465760ff600f5416600281101561053257600103610502578181036104f0578481036104f057865b81811061024e578780f35b61026261025c8288886133c7565b9061427a565b6001600160a01b0361027d610278848689613408565b611891565b166001600160a01b03909116036104de576102e761029f610278838588613408565b6102aa8389896133c7565b6102b885888d969496613408565b356102d3604051958693604060208601526060850191613418565b90604083015203601f1981018452836115b3565b6001600160401b03601854166040516102ff81611598565b600381526020810184815260018060a01b0384166040830152826000526019602052604060002090825161033281611a17565b61033b81611a17565b60ff80198454169116178255518051906001600160401b0382116104c8576103738261036a6001860154611a37565b60018601611b2a565b602090601f831160011461044157928260008051602061439e83398151915297959360029360019b9a9896600092610436575b5050600019600383901b1c1916908a1b17818a01555b01906040888060a01b03910151166001600160601b0360a01b8254161790556001600160401b036103ec82611c4f565b166001600160401b0319601854161760185561042760405193849360038552888060a01b031660208501526080806040860152840190613439565b9060608301520390a101610243565b0151905038806103a6565b906001840160005260206000209160005b601f19851681106104b057508360029360019b9a9896938c9360008051602061439e8339815191529b9997601f19811610610497575b505050811b01898201556103bc565b015160001960f88460031b161c19169055388080610488565b91926020600181928685015181550194019201610452565b634e487b7160e01b600052604160045260246000fd5b604051634be9251d60e11b8152600490fd5b604051637e65935960e01b8152600490fd5b61052e61050d61347f565b60405163015538b160e01b8152602060048201529182916024830190613439565b0390fd5b634e487b7160e01b88526021600452602488fd5b6040516330cd747160e01b8152600490fd5b8580fd5b8380fd5b5080fd5b503461016e578060031936011261016e576000805160206143be833981519152600181541461015c5780600183925561059b61345e565b6105a3613c83565b5580f35b503461016e57606036600319011261016e576001600160401b036004358181116106235736602382011215610623576105ea903690602481600401359101611686565b6044359182116106235736602383011215610623576106166106209236906024816004013591016116dc565b9060243590613f3f565b80f35b8280fd5b503461016e57600319606036820112610560576001600160401b03600435116105605760806004356004019160043536030112610560576024356001600160401b0381116106235761067d90369060040161162b565b91906044356001600160401b038111610a455761069e90369060040161162b565b9160055494600754956106b1878261175b565b60246004350135141580610a35575b610a2357604051906106f860208301836106da8a83611792565b03936106ee601f19958681018352826115b3565b519020988261175b565b60043560240135036109205750509161071b610723926107299697943691611686565b9336916116dc565b91613f3f565b602460043501358252816020526040822090803560421960043536030181121561055c5760043501916001600160401b0361076660048501611866565b16926001600160401b03199384835416178255600190818301906024810135906022198136030182121561091c5701906004820135916001600160401b03831161091c576024018260051b3603811361091c57600160401b83116109085781548383558084106108ed575b509087959493929190865260208620865b8381106108c6575050505050600480356024810135600284015560448101356003840155606401949101906001600160401b0361081e86611866565b1690825416179055602460043501358252601e602052610842604083203390611992565b5060043560240135600555600a546001600160a01b0316803b15610623576040516347dc9b4f60e01b815291839183918290849082906108859060048301611792565b03925af180156108bb576108a7575b50506108a261062091611866565b611c67565b6108b09061156a565b610560578138610894565b6040513d84823e3d90fd5b849596975060206108da8495969394611891565b848301558a9897969594019291016107e2565b8289526020892061090291810190850161187a565b386107d1565b634e487b7160e01b88526041600452602488fd5b8780fd5b94509450505050602460043501351461093857505080f35b60246004350135835282602052604083206040519060208201926020845260806040840152826101008101926001600160401b0381541660c083015260019081810191604060e085015282548096526101208401928a5260208a20908a5b878110610a02575050506002810154606084015260038101546080840152600401546001600160401b031660a08301520390810183526109d79150826115b3565b519020146109e25780f35b602460043501358152601e6020526109fe604082203390611992565b5080f35b82546001600160a01b03168552889550602090940193918101918101610996565b60405163fae4eadb60e01b8152600490fd5b50806024600435013514156106c0565b8480fd5b503461016e57602036600319011261016e576004356000805160206143be833981519152600181541461015c57600181558115610b185760ff600e5460081c16610b0657338352600360205281604084205410610af4576105a38392338452600360205260408420610abc8282546121d4565b9055610aca816002546121d4565b6002553384526003602052604084205415610ae6575b3361334d565b610aef336142b6565b610ae0565b60405163569d45cf60e11b8152600490fd5b604051631b39f2f360e11b8152600490fd5b604051631036b5ad60e31b8152600490fd5b50602036600319011261016e57600435906001600160401b03821161016e573660238301121561016e576001600160401b0382600401351161016e57602436818460040135850101116105605760016000805160206143be833981519152541461015c5760016000805160206143be83398151915255610ba861345e565b60ff600e5460081c1680611081575b341561106f57604184600401350361105d57610bd9846004013583860161427a565b336001600160a01b03909116036104de57610e5b5733600090815260116020526040902060039390840190610c1c8160040135610c168454611a37565b84611b2a565b83601f826004013511600114610de6578385918360040135610dd9575b5050816004013560011b916000199060040135871b1c19161790555b610c5f3433613537565b601054600654811015610c86575b505090505b806000805160206143be8339815191525580f35b61ffff601254166001600160401b036008541611610c6d5761010061ff0019600e541617600e5560405193602085019060208652600154809252604086019160408160051b88010192600187527fb10e2d527612073b26eecdfd717e6a320cf44b4afac2b0732d9fcbe2b7fa0cf69287915b838310610d8c5750505050508484957f4914d88063275a25a13b2df37125e216745d812f94c56504be4bd78cf60c9593920390a160018060a01b03600a5416610d44600254809361175b565b92813b15610a455784926040519485938492637903ab2760e11b845260048401525af180156108bb57610d78575b80610c6d565b610d819061156a565b61016e578038610d72565b9091929394602083610dca6001938d603f1990820301865289548152848060a01b03858b015416848201526060908160408201520160028a01611a71565b97019201930191909392610cf8565b8301013590508338610c39565b828552602085208592916004830135601f19165b808510610e3e5760019450836004013511610e20575b505060040135811b019055610c55565b82018501356000196004840135891b60f8161c191690553880610e10565b838201870135835560209485019460019093019290910190610dfa565b610e6c3684600401358386016115ef565b926001600160401b0360185416604051610e8581611598565b60028152602081019586523360408201528160005260196020526040600020958151610eb081611a17565b610eb981611a17565b60ff80198954169116178755519586516001600160401b03811161104857610ef181610ee86001850154611a37565b60018501611b2a565b6020601f8211600114610fc65790806002939260008051602061439e833981519152999a600092610fbb575b50508160011b916000199060031b1c19161760018201555b0190604060018060a01b03910151166001600160601b0360a01b8254161790556001600160401b03610f6682611c4f565b166001600160401b03196018541617601855610fa36040519384936002855233602086015260806040860152608085019181600401359101613418565b9060608301520390a1610fb63433613748565b610c72565b015190503880610f1d565b6001830160005260206000209860005b601f198416811061103057509160008051602061439e83398151915298996001926002959483601f19811610611017575b505050811b016001820155610f35565b015160001960f88460031b161c19169055388080611007565b828201518b556001909a019960209283019201610fd6565b85634e487b7160e01b60005260416004526000fd5b6040516318dca5e960e21b8152600490fd5b604051635a78c58160e11b8152600490fd5b611089613944565b610bb7565b50604036600319011261016e57600a546001600160a01b031633036110bb57610620602435600435613e7e565b60405163e7e601db60e01b8152600490fd5b503461016e578060031936011261016e576001906000805160206143be8339815191528281541461015c57828155336000908152601b602052604090209283549061ffff9081831692831561124757829060101c16918391808795818a01915b6111c1575b505050866111a3937f197c586353eaed0a1c53e6e540445b94befab8f932c8115d112115ecbeeed514959363ffff000093899a54911693849260101b169063ffffffff191617179055156111aa575b61118b813361334d565b60408051338152602081019290925290918291820190565b0390a15580f35b336000908152601b60205260409020859055611181565b90919394838116968288101561123e57876000526020809185825260406000206040516111ed8161157d565b89825492838352015493849101524310611233578594938896889461121486958a9561175b565b9c6000525260008260408220828155015501169660001901169461112d565b985050509493611132565b96509493611132565b6040516364b0557f60e01b8152600490fd5b503461016e578060031936011261016e5761127261345e565b61ffff611288816015541682601254169061212a565b166112e157600e805462ff0000191662010000179055600a5481906001600160a01b0316803b1561014a5781906004604051809481936341c0e1b560e01b83525af180156108bb576112d8575080f35b6106209061156a565b604051636b62255160e11b8152600490fd5b508060031936011261016e5761130761345e565b610620613959565b503461016e57602036600319011261016e5761132961345e565b6106206004356139b3565b503461016e576020908160031936011261016e576001600160401b039160043583811161062357366023820112156106235761137a9036906024816004013591016115ef565b923383526013825261ffff6040842054161561148b5783511561147957338352601f825260408320918451918211611465576113c0826113ba8554611a37565b85611b2a565b80601f831160011461140157508394829394926113f6575b50508160011b916000199060031b1c19161790555b6109fe33611929565b0151905038806113d8565b90601f198316958486528286209286905b88821061144d57505083600195969710611434575b505050811b0190556113ed565b015160001960f88460031b161c19169055388080611427565b80600185968294968601518155019501930190611412565b634e487b7160e01b84526041600452602484fd5b604051637138356f60e01b8152600490fd5b604051633b4f6e2b60e21b8152336004820152602490fd5b90508160031936011261056057341561155b575060ff600e5460081c16610b06573381526003602052604081205415611502575b3381526003602052604081206114ee34825461175b565b90556114fc3460025461175b565b60025580f35b600454600160401b8110156115475761152481600161154293016004556118a5565b81546001600160a01b0360039290921b91821b19163390911b179055565b6114d7565b634e487b7160e01b82526041600452602482fd5b631036b5ad60e31b8152600490fd5b6001600160401b0381116104c857604052565b604081019081106001600160401b038211176104c857604052565b606081019081106001600160401b038211176104c857604052565b90601f801991011681019081106001600160401b038211176104c857604052565b6001600160401b0381116104c857601f01601f191660200190565b9291926115fb826115d4565b9161160960405193846115b3565b829481845281830111611626578281602093846000960137010152565b600080fd5b9181601f84011215611626578235916001600160401b038311611626576020808501948460051b01011161162657565b6001600160401b0381116104c85760051b60200190565b35906001600160a01b038216820361162657565b92916116918261165b565b9161169f60405193846115b3565b829481845260208094019160051b810192831161162657905b8282106116c55750505050565b8380916116d184611672565b8152019101906116b8565b929190926116e98461165b565b916116f760405193846115b3565b829480845260208094019060051b8301928284116116265780915b84831061172157505050505050565b82356001600160401b03811161162657820184601f8201121561162657869161175086838580953591016115ef565b815201920191611712565b9190820180921161176857565b634e487b7160e01b600052601160045260246000fd5b35906001600160401b038216820361162657565b6020918282528035603e19823603018112156116265781019060808484015260e08301936001600160401b0392836117c98261177e565b1660a086015281810135601e19823603018112156116265701818135910195848211611626578160051b36038713611626578190604060c0880152526101008501959060005b8181106118415750505060608261183a9260809594013560408701526040810135828701520161177e565b1691015290565b9091968380600192838060a01b036118588c611672565b16815201980192910161180f565b356001600160401b03811681036116265790565b818110611885575050565b6000815560010161187a565b356001600160a01b03811681036116265790565b6004548110156118dc5760046000527f8a35acfbc15ff81a39ae7d344fd709f28e8600b4aa8c65c6b64bfe7fe36bd19b0190600090565b634e487b7160e01b600052603260045260246000fd5b6020548110156118dc5760206000527fc97bfaf2f8ee708c303a06d134f5ecd8389ae0432af62dc132a24118292866bb0190600090565b60008181526021602052604081205461198d57602054600160401b811015611547579082611979611962846001604096016020556118f2565b819391549060031b91821b91600019901b19161790565b905560205492815260216020522055600190565b905090565b91906001830160009082825280602052604082205415600014611a1157845494600160401b8610156119fd57600186018082558610156119e957836040949596828552602085200155549382526020522055600190565b634e487b7160e01b83526032600452602483fd5b634e487b7160e01b83526041600452602483fd5b50925050565b60041115611a2157565b634e487b7160e01b600052602160045260246000fd5b90600182811c92168015611a67575b6020831014611a5157565b634e487b7160e01b600052602260045260246000fd5b91607f1691611a46565b9060009291805491611a8283611a37565b918282526001938481169081600014611ae45750600114611aa4575b50505050565b90919394506000526020928360002092846000945b838610611ad0575050505001019038808080611a9e565b805485870183015294019385908201611ab9565b9294505050602093945060ff191683830152151560051b01019038808080611a9e565b60005b838110611b1a5750506000910152565b8181015183820152602001611b0a565b9190601f8111611b3957505050565b611b65926000526020600020906020601f840160051c83019310611b67575b601f0160051c019061187a565b565b9091508190611b58565b90808214611c4b57611b838154611a37565b906001600160401b0382116104c8578190611ba882611ba28654611a37565b86611b2a565b600090601f8311600114611bdf57600092611bd4575b50508160011b916000199060031b1c1916179055565b015490503880611bbe565b81526020808220858352818320935090601f1985169083905b828210611c32575050908460019594939210611c19575b505050811b019055565b015460001960f88460031b161c19169055388080611c0f565b8495819295850154815560018091019601940190611bf8565b5050565b9060016001600160401b038093160191821161176857565b6018546001600160401b0382811692908083168410611c925760405163040aaa0560e11b8152600490fd5b808360401c168410611a9e5780604093841c165b848282161115611d0d57505091602091611ce07f246f00b61ce672242f33bb680a47147cd54d3dfd04dbb76956ba42f88087bf6394611c4f565b67ffffffffffffffff60401b60185491831b169067ffffffffffffffff60401b19161760185551908152a1565b81611d2b826001600160401b03166000526019602052604060002090565b6002808201548254929491926001600160a01b03918216919060ff16611d5081611a17565b808503611dc25750506003611d816001611d8794959697019260018060a01b03166000526011602052604060002090565b01611b71565b611da4816001600160401b03166000526019602052604060002090565b91600090818455600193611db98582016121e1565b01550116611ca6565b90919450611dcf81611a17565b600391818303611f6d575050875193611df785611df0816001809a01611a71565b03866115b3565b84518501916020928a8785830192031261162657838701518981116116265787019681603f890112156116265787858d99015192611e40611e37856115d4565b9a519a8b6115b3565b838a528d8483010111611626578c92611e5e9184888c019101611b07565b01519281611e7e8460018060a01b03166000526011602052604060002090565b01918751918a8311611f58578a98611ea084611e9a8754611a37565b87611b2a565b81601f8511600114611ee55750611ed59798999a8493928492600095611eda575b50501b92600019911b1c1916179055612140565b611d87565b015193503880611ec1565b91601f9b9493919b1984169b866000528c84600020946000915b8210611f3d57505084611ed59a9b9c9d10611f23575b50505050811b019055612140565b01519060f884600019921b161c1916905538808080611f15565b8383015186558f9d509487019492830192908101908e611eff565b60246000634e487b7160e01b81526041600452fd5b91509193889593955193611f8985611df0816001809501611a71565b602080868051810103126116265781818c97015195611fa781611a17565b036120cc578490611fb8828561222a565b601a54611fc5904361175b565b92875190611fd28261157d565b8482528282018481526001600160a01b0387166000908152601b602052604090209091909283549161ffff9384848180961695869160101c16906120159161212a565b169c60009d8e5282870188528d20925183555191015561203490612117565b1661ffff198254161790558b519384528301528982015260607f083b080788e20bd0930c2bca2ae4fbc51a59ced08c1b5992271f8cb439498a6391a1600a541690813b15610623578291602483928a5195869384926345f5448560e01b845260048401525af19081156120c1575090849392916120b2575b50611d87565b6120bb9061156a565b386120ac565b8751903d90823e3d90fd5b5050829350916120dc9192612184565b600a541690813b15611626578651916316989f6f60e21b83528260048160009485945af19081156120c1575090849392916120b25750611d87565b90600161ffff8093160191821161176857565b91909161ffff8080941691160191821161176857565b9060018060a01b03821660005260116020526040600020818154915581811460001461216b57505050565b81111561217b57611b65916122b9565b611b65916125ff565b90611b65916121cc60018060a01b038216928360005260116020526121b18160016040600020015461175b565b9360005260116020528360016040600020015560105461175b565b6010556122b9565b9190820391821161176857565b6121eb8154611a37565b90816121f5575050565b81601f60009311600114612207575055565b908083918252612226601f60208420940160051c84016001850161187a565b5555565b9061229761229f9260018060a01b03811690600082815260116020526122578560016040842001546121d4565b92815260116020526040812060028101848154811590816122b0575b50156122a45750908260039261229294835581600184015555016121e1565b6125ff565b6010546121d4565b601055565b925050600101556125ff565b90501538612273565b919060018060a01b03928381166000948186526020916013835261ffff916040978389822054166124ea5783600f5460081c168460125416106124b6576122fe61310c565b60019283825260148652828a8320541688612318826129ea565b1061243057508152601685528389822054166123875750505050506123827f19fe3ca603e87854a0747cc10abf06bac64d61bac73d6d15f2fd3ca448f15264939461236283612975565b516001600160a01b03909216825260208201929092529081906040820190565b0390a1565b6123908661315f565b9261239a876129ea565b935b81868216116123f2575b505097516001600160a01b0390951685525050505060208101919091529091507fda148fac2e1063174be7bc0895576bdaba90fd14e575463fa26a967cb895cadd908060408101612382565b808561241186617fff8f95871c169485885260178c52872054166129ea565b101561242a57906124238392826132be565b905061239c565b506123a6565b969750899493507ffaeb8de771b867cf357f6b459a7002b62ec45d544a8078a3ecd91200cc826d75989992506123829560169161246b612e04565b8352522054166124a8575b61247f84612d8f565b61248883612975565b516001600160a01b03928316815292909116602083015281906040820190565b6124b184612bb4565b612476565b50505050506123827f2e8038f5812f763c6ef0c5427cb5a05ce6d7064af2ba7d1d270bc02660b019fd939461236283612d8f565b979291506124fb8594979695613128565b97612505856129ea565b9761250f8a612d20565b8460125416905b8581168281116125c857828110156125ac57508061253661253c92612117565b906130bc565b9b909b5b8b111561255f57612551908c613225565b61255a8b612d20565b612516565b505093516001600160a01b0390951685525050505060208101919091529092507f143db27bc2036653dc6f962ff9d0b803163d4af50c256ca9e6927b3d6dcd019791508060408101612382565b849c919c52601483526125c38588862054166129ea565b612540565b5050505050505061238291929395507f143db27bc2036653dc6f962ff9d0b803163d4af50c256ca9e6927b3d6dcd01979450612362565b909160018060a01b03928383169060009382855260206016815261ffff95604094878683205416612839578082526013835287868320541615612828578415612780575061264c83613128565b97612656846129ea565b985b6001808a831611156127715781617fff911c1690818452601485528a612682848a872054166129ea565b1115612697576126929082613225565b612658565b505091939597509193955b6015541615612769576126b361310c565b6001825260148352858181842054169260176126ce856129ea565b956126d761311a565b6001835252205416916126e9836129ea565b1161273057505091516001600160a01b03909216825260208201527f143db27bc2036653dc6f962ff9d0b803163d4af50c256ca9e6927b3d6dcd0197908060408101612382565b915091506123827ffaeb8de771b867cf357f6b459a7002b62ec45d544a8078a3ecd91200cc826d7593612761612e04565b612476612a4d565b505050505050565b505091939597509193956126a2565b8294506127b47f4a4c5d1a281180eea1e99d8177fa4798b9f7e019d5c57e7d8d73c6a22199aa5b9392989499969799612f4d565b8651908152a1601554166127c85750505050565b7f2e8038f5812f763c6ef0c5427cb5a05ce6d7064af2ba7d1d270bc02660b019fd93601784926127f661311a565b600183525220541661281c61280a826129ea565b92612813612a4d565b61236283612d8f565b0390a138808080611a9e565b8551632a55ca5360e01b8152600490fd5b8496979293959891941561293a575061fffe91936128568661315f565b93612860876129ea565b9480966001958692831b168160155416925b6128c6575b505099516001600160a01b039097168752505050506020830193909352509192507fda148fac2e1063174be7bc0895576bdaba90fd14e575463fa26a967cb895cadd9190508060408101612382565b818116838111612934578d9084811015612918575050806128e96128ef92612117565b90612d37565b9890985b8810156129135761290490896132be565b61290d88612d20565b86612872565b612877565b86526017855285205490989061292f9087166129ea565b6128f3565b50612877565b9491505061296e9194507f3168ba660eed6ef1dc2258b2247cc05fd0f2f350d39e6ad2e2ebc76a8000b40b95969250612bb4565b51908152a1565b611b65906129e461ffff9161298d8360155416612117565b9260018060a01b0382169081600052601660205260406000209085169161ffff199183838254161790558260005260176020526040600020906001600160601b0360a01b82541617905560155416176015556129ea565b90612ccb565b60ff600f54166002811015611a2157600103612a1b576001600160a01b031660009081526011602052604090205490565b6001600160a01b031660009081526011602052604090206001015490565b61ffff908116600019019190821161176857565b61ffff8060155416908115612ba25790600190612a6c81831115613208565b6000828152601760208181526040808420805486865282862080546001600160a01b0392831680895260168752858920805461ffff199081168c17909155918416808a52868a20805484168d17905588885283546001600160a01b03199081169092179093558a895284541690911790925592958795939492939291612b0691908a612af783612a39565b16906015541617601555613184565b848252808652612b1a8484842054166129ea565b95859860028160155416995b612b38575b5050505050505050505050565b8181168a8111612b9c578a811015612b815750806128e9612b5892612117565b9a909a5b891015612b7c57612b6d908b6132be565b612b768a612d20565b87612b26565b612b2b565b859b919b52838352612b978787872054166129ea565b612b5c565b50612b2b565b6040516340d9b01160e01b8152600490fd5b612bbd9061315f565b61ffff90816015541691612bd183836132be565b80612bdb84612a39565b1661ffff196015541617601555612bf183613184565b808216809314612cc6579161fffe9160009180835260179060209382855260018060a01b0392604092612c31612c2b8686862054166129ea565b87612ccb565b8252808652612c448484842054166129ea565b9585986001988997881b168160155416995b612c67575050505050505050505050565b8181168a8111612b9c578a811015612cab5750806128e9612c8792612117565b9a909a5b891015612b7c57612c9c908b6132be565b612ca58a612d20565b87612c56565b859b919b52838352612cc18787872054166129ea565b612c8b565b505050565b9190915b60018061ffff83161115612d1a5781617fff911c169083612d0560008481526017602052604060018060a01b03912054166129ea565b1015612d1a57612d1590826132be565b612ccf565b50509050565b60011b906201fffe61fffe83169216820361176857565b91909161ffff928382166000526017602052612d7a60018060a01b03612d6381604060002054166129ea565b9583166000526017602052604060002054166129ea565b90818510612d885750509190565b9350919050565b611b6590612dfe61ffff91612da78360125416612117565b9260018060a01b0382169081600052601360205260406000209085169161ffff199183838254161790558260005260146020526040600020906001600160601b0360a01b82541617905560125416176012556129ea565b9061306d565b61ffff8060125416908115612ba25790600190612e2381831115613208565b6000828152601460208181526040808420805486865282862080546001600160a01b0392831680895260138752858920805461ffff199081168c17909155918416808a52868a20805484168d17905588885283546001600160a01b03199081169092179093558a895284541690911790925592958795939492939291612ebd91908a612eae83612a39565b169060125416176012556131c6565b848252808652612ed18484842054166129ea565b95859860028160125416995b612eee575050505050505050505050565b8181168a8111612b9c578a811015612f32575080612536612f0e92612117565b9a909a5b891115612b7c57612f23908b613225565b612f2c8a612d20565b87612edd565b859b919b52838352612f488787872054166129ea565b612f12565b612f5690613128565b9061ffff90816012541690612f6b8285613225565b82612f7583612a39565b1661ffff196012541617601255612f8b826131c6565b8284168092146130675760009291929183835260149260209484865260018060a01b0391604091612fc9612fc38585852054166129ea565b8a61306d565b8152858752612fdc8383832054166129ea565b95612fe689612d20565b978560125416985b8681168a8111613059578a81101561303e57508061253661300e92612117565b9a909a5b89111561303157613023908b613225565b61302c8a612d20565b612fee565b5050505050505092505050565b849b919b528282526130548686862054166129ea565b613012565b505050505050505092505050565b92505050565b9190915b60018061ffff83161115612d1a5781617fff911c1690836130a760008481526014602052604060018060a01b03912054166129ea565b1115612d1a576130b79082613225565b613071565b919061ffff80841660005260146020526130fd60018060a01b036130e681604060002054166129ea565b9284166000526014602052604060002054166129ea565b9384821115612d885750509190565b61ffff6012541615612ba257565b61ffff6015541615612ba257565b6001600160a01b031660009081526013602052604090205461ffff1690811561314d57565b60405163f2755e3760e01b8152600490fd5b6001600160a01b031660009081526016602052604090205461ffff1690811561314d57565b61ffff16600090815260176020908152604080832080546001600160a01b031981169091556001600160a01b0316835260169091529020805461ffff19169055565b61ffff16600090815260146020908152604080832080546001600160a01b031981169091556001600160a01b0316835260139091529020805461ffff19169055565b1561320f57565b634e487b7160e01b600052600160045260246000fd5b61324a61ffff80806012541693169361324084861115613208565b1691821115613208565b6000828152601460208181526040808420805486865282862080546001600160a01b0392831680895260138752858920805461ffff19908116909b1790559216808852938720805490981689179097559390925284546001600160a01b031990811690931790945593909152825416179055565b6132d961ffff80806015541693169361324084861115613208565b6000828152601760208181526040808420805486865282862080546001600160a01b0392831680895260168752858920805461ffff19908116909b1790559216808852938720805490981689179097559390925284546001600160a01b031990811690931790945593909152825416179055565b8147106133af576000918291829182916001600160a01b03165af13d156133aa573d613378816115d4565b9061338660405192836115b3565b8152600060203d92013e5b1561339857565b604051630a12f52160e11b8152600490fd5b613391565b60405163cd78605960e01b8152306004820152602490fd5b91908110156118dc5760051b81013590601e19813603018212156116265701908135916001600160401b038311611626576020018236038113611626579190565b91908110156118dc5760051b0190565b908060209392818452848401376000828201840152601f01601f1916010190565b9060209161345281518092818552858086019101611b07565b601f01601f1916010190565b60ff600e5460101c1661346d57565b60405163248c8efb60e11b8152600490fd5b60405190608082018281106001600160401b038211176104c8576040526045825264185c1c195960da1b6060837f4d6574686f64206e6f7420616c6c6f776564206966207065726d697373696f6e60208201527f656420697320656e61626c656420616e64207375626e657420626f6f7473747260408201520152565b6001548110156118dc576003906001600052027fb10e2d527612073b26eecdfd717e6a320cf44b4afac2b0732d9fcbe2b7fa0cf60190600090565b9061354c906135468184613721565b82612184565b60ff600e5460081c161561355d5750565b60018054600082815b8381106136f0575b50501561357a57505050565b6001600160a01b0383166000908152601160205260409020828101546135d0949091600301604051926135ac84611598565b83526020936135d78585019260018060a01b03809516845260405198898092611a71565b03886115b3565b60408401968752600160401b8110156104c85780866135f8920187556134fc565b9290926136da576002935183558583019151166001600160601b0360a01b825416179055019251908151916001600160401b0383116104c85761363f83611e9a8754611a37565b81601f8411600114613678575092829391839260009461366d575b50501b916000199060031b1c1916179055565b01519250388061365a565b919083601f1981168760005284600020946000905b888383106136c057505050106136a757505050811b019055565b015160001960f88460031b161c19169055388080611c0f565b85870151885590960195948501948793509081019061368d565b634e487b7160e01b600052600060045260246000fd5b816136fa826134fc565b5001546001600160a01b0387811691161461371757018390613566565b509050823861356e565b60018060a01b03166000526011602052613744600260406000200191825461175b565b9055565b919060405192816020850152602084526137618461157d565b6001600160401b0360185416936040519461377b86611598565b60008652602086019582875260018060a01b038416604082015281600052601960205260406000209681516137af81611a17565b6137b881611a17565b60ff80198a54169116178855519687516001600160401b0381116104c8576137e781610ee86001850154611a37565b6020601f82116001146138b9576138a094928260008051602061439e833981519152979593600293611b659c9d6000926138ae575b50508160011b916000199060031b1c19161760018201555b0190604060018060a01b03910151166001600160601b0360a01b8254161790556001600160401b0361386582611c4f565b166001600160401b031960185416176018556040519283926000845260018060a01b0387166020850152608060408501526080840190613439565b9060608301520390a1613721565b01519050388061381c565b6001830160005260206000209960005b601f198416811061392c575092600183611b659b9c6002946138a0999760008051602061439e8339815191529b9997601f19811610613913575b505050811b016001820155613834565b015160001960f88460031b161c19169055388080613903565b828201518c556001909b019a602092830192016138c9565b60ff600f54166002811015611a215761050257565b613961613944565b341561106f5733600090815260116020526040902060020154156139a15760ff600e5460081c161561399757611b653433613748565b611b653433613537565b60405163528fc16560e01b8152600490fd5b6139bb613944565b8015613a225733600090815260116020526040902060020154801561148b57811015613a115760ff600e5460081c16156139f957611b659033613a87565b80613a07611b659233613a34565b610ae0813361222a565b60405162d11df360e61b8152600490fd5b60405163c79cad7b60e01b8152600490fd5b6001600160a01b03166000818152601160205260409020600201549091808210613a7557613a61916121d4565b906000526011602052600260406000200155565b60405163ac69360360e01b8152600490fd5b91906040519281602085015260208452613aa08461157d565b6001600160401b03601854169360405194613aba86611598565b60018652602086019582875260018060a01b03841660408201528160005260196020526040600020968151613aee81611a17565b613af781611a17565b60ff80198a54169116178855519687516001600160401b0381116104c857613b2681610ee86001850154611a37565b6020601f8211600114613bf857613bdf94928260008051602061439e833981519152979593600293611b659c9d600092613bed575b50508160011b916000199060031b1c19161760018201555b0190604060018060a01b03910151166001600160601b0360a01b8254161790556001600160401b03613ba482611c4f565b166001600160401b031960185416176018556040519283926001845260018060a01b0387166020850152608060408501526080840190613439565b9060608301520390a1613a34565b015190503880613b5b565b6001830160005260206000209960005b601f1984168110613c6b575092600183611b659b9c600294613bdf999760008051602061439e8339815191529b9997601f19811610613c52575b505050811b016001820155613b73565b015160001960f88460031b161c19169055388080613c42565b828201518c556001909b019a60209283019201613c08565b60ff600e5460081c16613d70575b33600090815260116020526040902060020154801561148b57613cb333613d7d565b50600090338252601f6020528160408120613cce8154611a37565b80613d33575b50505060ff600e5460081c1615613cf057611b65915033613a87565b6040611b65923381526003602052205480613d11575b50613a078133613a34565b80613d21613d2d926002546121d4565b600255610ae0336142b6565b38613d06565b82601f8211600114613d4b575050555b813880613cd4565b9091808252613d69601f60208420940160051c84016001850161187a565b5555613d43565b613d78613944565b613c91565b600090808252602090602182526040832054801515600014613e645760001990808201818111613e5057845490838201918211613e3c57808203613e09575b50505082548015613df557908060219493920190613dd9826118f2565b909182549160031b1b1916905582558352526040812055600190565b634e487b7160e01b85526031600452602485fd5b613e27613e18611962936118f2565b90549060031b1c9283926118f2565b90558552602184526040852055388080613dbc565b634e487b7160e01b87526011600452602487fd5b634e487b7160e01b86526011600452602486fd5b50505090565b80518210156118dc5760209160051b010190565b8115611c4b57600754613e90916121d4565b6000908152602090601e8252604090818120928251808583829754938481520190855283852092855b85828210613f2957505050613ed0925003856115b3565b8351948515612769578581106127695785900493825b868110613ef65750505050505050565b6001906001600160a01b03613f0b8285613e6a565b51168552601d8452858520613f2188825461175b565b905501613ee6565b855484526001958601958a955093019201613eb9565b91825191613f4c8361165b565b93604094613f5c865191826115b3565b848152601f19613f6b8661165b565b0194602095368784013760005b81811061404257505060009461ffff8060125416600192839182945b613ff1575b505050505060ff600a5460a01c1694858102958187041490151715611768576064613fc59504916140b9565b9015613fcf575050565b6007811015611a215760ff602492519163282ef1c160e01b8352166004820152fd5b90919293988a858b1683811161403a57600090815260148552205484939291869185916140309161402a906001600160a01b03166129ea565b9061175b565b9b01169493613f94565b505098613f99565b6001600160a01b03806140558387613e6a565b51166000526013885261ffff89600020541615614095579061408460019261407d8388613e6a565b51166129ea565b61408e8286613e6a565b5201613f78565b88906140a360249387613e6a565b519151633b4f6e2b60e21b815291166004820152fd5b845192946000949084156141a15782518514801590614196575b614189579392919085945b8486106141015750505050505010156140f957600090600690565b600190600090565b90919293949561411b6141148884613e6a565b51846141ae565b5061412581611a17565b614178576001600160a01b038061413c8a88613e6a565b51169116036141685761415c6001916141558988613e6a565b519061175b565b960194939291906140de565b5050505050505050600090600490565b505050505050505050600090600590565b5050505050905090600190565b5083518514156140d3565b5050505050905090600290565b81519190604183036141df576141d892506020820151906060604084015193015160001a906141ea565b9192909190565b505060009160029190565b91907f7fffffffffffffffffffffffffffffff5d576e7357a4501ddfe92f46681b20a0841161426e57926020929160ff608095604051948552168484015260408301526060820152600092839182805260015afa156142625780516001600160a01b0381161561425957918190565b50809160019190565b604051903d90823e3d90fd5b50505060009160039190565b9061428760418214613208565b80600111611626576142a291369160001901906001016115ef565b80516020909101206001600160a01b031690565b60049081549160005b8381106142cc5750505050565b6142d5816118a5565b90546003916001600160a01b039190831b1c8116858216146142fb5750506001016142bf565b929350939060001991828101908111614388579061432c8461431f61434b946118a5565b905490891b1c16916118a5565b90919082549060031b9160018060a01b03809116831b921b1916179055565b8254801561437357019261435e846118a5565b81939154921b1b191690555538808080611a9e565b603184634e487b7160e01b6000525260246000fd5b601185634e487b7160e01b6000525260246000fdfe1c593a2b803c3f9038e8b6743ba79fbc4276d2770979a01d2768ed12bea3243f691bb03ffc16c56fc96b82fd16cd1b3715f0bc3cdc6407005f49bb6205860095a26469706673582212200a729f9fc5e39a81ee3ce2c17137f848a2380932154bb40056b5e7d5eec6580564736f6c63430008130033","linkReferences":{"src/lib/LibStaking.sol":{"LibStaking":[{"start":263,"length":20}]}}},"methodIdentifiers":{"addBootstrapNode(string)":"10fd4261","claim()":"4e71d92d","claimRewardForRelayer()":"ed7c4da1","distributeRewardToRelayers(uint256,uint256)":"50fd8969","join(bytes)":"6170b162","kill()":"41c0e1b5","leave()":"d66d9e19","preFund()":"0b7fbe60","preRelease(uint256)":"66783c9b","setFederatedPower(address[],bytes[],uint256[])":"da5d09ee","stake()":"3a4b66f1","submitCheckpoint(((uint64,address[]),uint256,bytes32,uint64),address[],bytes[])":"b9ee2bb9","unstake(uint256)":"2e17de78","validateActiveQuorumSignatures(address[],bytes32,bytes[])":"cc2dc2b9"},"id":77}