{"abi":[{"type":"function","name":"addBootstrapNode","inputs":[{"name":"netAddress","type":"string","internalType":"string"}],"outputs":[],"stateMutability":"nonpayable"},{"type":"function","name":"claim","inputs":[],"outputs":[],"stateMutability":"nonpayable"},{"type":"function","name":"claimRewardForRelayer","inputs":[],"outputs":[],"stateMutability":"nonpayable"},{"type":"function","name":"distributeRewardToRelayers","inputs":[{"name":"height","type":"uint256","internalType":"uint256"},{"name":"reward","type":"uint256","internalType":"uint256"},{"name":"kind","type":"uint8","internalType":"enum QuorumObjKind"}],"outputs":[],"stateMutability":"payable"},{"type":"function","name":"join","inputs":[{"name":"publicKey","type":"bytes","internalType":"bytes"}],"outputs":[],"stateMutability":"payable"},{"type":"function","name":"kill","inputs":[],"outputs":[],"stateMutability":"nonpayable"},{"type":"function","name":"leave","inputs":[],"outputs":[],"stateMutability":"nonpayable"},{"type":"function","name":"pause","inputs":[],"outputs":[],"stateMutability":"nonpayable"},{"type":"function","name":"paused","inputs":[],"outputs":[{"name":"","type":"bool","internalType":"bool"}],"stateMutability":"view"},{"type":"function","name":"preFund","inputs":[],"outputs":[],"stateMutability":"payable"},{"type":"function","name":"preRelease","inputs":[{"name":"amount","type":"uint256","internalType":"uint256"}],"outputs":[],"stateMutability":"nonpayable"},{"type":"function","name":"setFederatedPower","inputs":[{"name":"validators","type":"address[]","internalType":"address[]"},{"name":"publicKeys","type":"bytes[]","internalType":"bytes[]"},{"name":"powers","type":"uint256[]","internalType":"uint256[]"}],"outputs":[],"stateMutability":"nonpayable"},{"type":"function","name":"stake","inputs":[],"outputs":[],"stateMutability":"payable"},{"type":"function","name":"submitBottomUpMsgBatch","inputs":[{"name":"batch","type":"tuple","internalType":"struct BottomUpMsgBatch","components":[{"name":"subnetID","type":"tuple","internalType":"struct SubnetID","components":[{"name":"root","type":"uint64","internalType":"uint64"},{"name":"route","type":"address[]","internalType":"address[]"}]},{"name":"blockHeight","type":"uint256","internalType":"uint256"},{"name":"msgs","type":"tuple[]","internalType":"struct CrossMsg[]","components":[{"name":"message","type":"tuple","internalType":"struct StorableMsg","components":[{"name":"from","type":"tuple","internalType":"struct IPCAddress","components":[{"name":"subnetId","type":"tuple","internalType":"struct SubnetID","components":[{"name":"root","type":"uint64","internalType":"uint64"},{"name":"route","type":"address[]","internalType":"address[]"}]},{"name":"rawAddress","type":"tuple","internalType":"struct FvmAddress","components":[{"name":"addrType","type":"uint8","internalType":"uint8"},{"name":"payload","type":"bytes","internalType":"bytes"}]}]},{"name":"to","type":"tuple","internalType":"struct IPCAddress","components":[{"name":"subnetId","type":"tuple","internalType":"struct SubnetID","components":[{"name":"root","type":"uint64","internalType":"uint64"},{"name":"route","type":"address[]","internalType":"address[]"}]},{"name":"rawAddress","type":"tuple","internalType":"struct FvmAddress","components":[{"name":"addrType","type":"uint8","internalType":"uint8"},{"name":"payload","type":"bytes","internalType":"bytes"}]}]},{"name":"value","type":"uint256","internalType":"uint256"},{"name":"nonce","type":"uint64","internalType":"uint64"},{"name":"method","type":"bytes4","internalType":"bytes4"},{"name":"params","type":"bytes","internalType":"bytes"},{"name":"fee","type":"uint256","internalType":"uint256"}]},{"name":"wrapped","type":"bool","internalType":"bool"}]}]},{"name":"signatories","type":"address[]","internalType":"address[]"},{"name":"signatures","type":"bytes[]","internalType":"bytes[]"}],"outputs":[],"stateMutability":"nonpayable"},{"type":"function","name":"submitCheckpoint","inputs":[{"name":"checkpoint","type":"tuple","internalType":"struct BottomUpCheckpoint","components":[{"name":"subnetID","type":"tuple","internalType":"struct SubnetID","components":[{"name":"root","type":"uint64","internalType":"uint64"},{"name":"route","type":"address[]","internalType":"address[]"}]},{"name":"blockHeight","type":"uint256","internalType":"uint256"},{"name":"blockHash","type":"bytes32","internalType":"bytes32"},{"name":"nextConfigurationNumber","type":"uint64","internalType":"uint64"}]},{"name":"signatories","type":"address[]","internalType":"address[]"},{"name":"signatures","type":"bytes[]","internalType":"bytes[]"}],"outputs":[],"stateMutability":"nonpayable"},{"type":"function","name":"unpause","inputs":[],"outputs":[],"stateMutability":"nonpayable"},{"type":"function","name":"unstake","inputs":[{"name":"amount","type":"uint256","internalType":"uint256"}],"outputs":[],"stateMutability":"nonpayable"},{"type":"function","name":"validateActiveQuorumSignatures","inputs":[{"name":"signatories","type":"address[]","internalType":"address[]"},{"name":"hash","type":"bytes32","internalType":"bytes32"},{"name":"signatures","type":"bytes[]","internalType":"bytes[]"}],"outputs":[],"stateMutability":"view"},{"type":"event","name":"BottomUpCheckpointExecuted","inputs":[{"name":"epoch","type":"uint256","indexed":false,"internalType":"uint256"},{"name":"submitter","type":"address","indexed":false,"internalType":"address"}],"anonymous":false},{"type":"event","name":"BottomUpCheckpointSubmitted","inputs":[{"name":"checkpoint","type":"tuple","indexed":false,"internalType":"struct BottomUpCheckpoint","components":[{"name":"subnetID","type":"tuple","internalType":"struct SubnetID","components":[{"name":"root","type":"uint64","internalType":"uint64"},{"name":"route","type":"address[]","internalType":"address[]"}]},{"name":"blockHeight","type":"uint256","internalType":"uint256"},{"name":"blockHash","type":"bytes32","internalType":"bytes32"},{"name":"nextConfigurationNumber","type":"uint64","internalType":"uint64"}]},{"name":"submitter","type":"address","indexed":false,"internalType":"address"}],"anonymous":false},{"type":"event","name":"NextBottomUpCheckpointExecuted","inputs":[{"name":"epoch","type":"uint256","indexed":false,"internalType":"uint256"},{"name":"submitter","type":"address","indexed":false,"internalType":"address"}],"anonymous":false},{"type":"event","name":"Paused","inputs":[{"name":"account","type":"address","indexed":false,"internalType":"address"}],"anonymous":false},{"type":"event","name":"SubnetBootstrapped","inputs":[{"name":"","type":"tuple[]","indexed":false,"internalType":"struct Validator[]","components":[{"name":"weight","type":"uint256","internalType":"uint256"},{"name":"addr","type":"address","internalType":"address"},{"name":"metadata","type":"bytes","internalType":"bytes"}]}],"anonymous":false},{"type":"event","name":"Unpaused","inputs":[{"name":"account","type":"address","indexed":false,"internalType":"address"}],"anonymous":false},{"type":"error","name":"AddressInsufficientBalance","inputs":[{"name":"account","type":"address","internalType":"address"}]},{"type":"error","name":"AddressShouldBeValidator","inputs":[]},{"type":"error","name":"BatchWithNoMessages","inputs":[]},{"type":"error","name":"CannotConfirmFutureChanges","inputs":[]},{"type":"error","name":"CannotReleaseZero","inputs":[]},{"type":"error","name":"CollateralIsZero","inputs":[]},{"type":"error","name":"EmptyAddress","inputs":[]},{"type":"error","name":"EnforcedPause","inputs":[]},{"type":"error","name":"ExpectedPause","inputs":[]},{"type":"error","name":"FailedInnerCall","inputs":[]},{"type":"error","name":"InvalidBatchEpoch","inputs":[]},{"type":"error","name":"InvalidCheckpointEpoch","inputs":[]},{"type":"error","name":"InvalidFederationPayload","inputs":[]},{"type":"error","name":"InvalidPublicKeyLength","inputs":[]},{"type":"error","name":"InvalidSignatureErr","inputs":[{"name":"","type":"uint8","internalType":"uint8"}]},{"type":"error","name":"MaxMsgsPerBatchExceeded","inputs":[]},{"type":"error","name":"MethodNotAllowed","inputs":[{"name":"reason","type":"string","internalType":"string"}]},{"type":"error","name":"NoCollateralToWithdraw","inputs":[]},{"type":"error","name":"NotAllValidatorsHaveLeft","inputs":[]},{"type":"error","name":"NotEnoughBalance","inputs":[]},{"type":"error","name":"NotEnoughCollateral","inputs":[]},{"type":"error","name":"NotEnoughFunds","inputs":[]},{"type":"error","name":"NotGateway","inputs":[]},{"type":"error","name":"NotOwner","inputs":[]},{"type":"error","name":"NotOwnerOfPublicKey","inputs":[]},{"type":"error","name":"NotStakedBefore","inputs":[]},{"type":"error","name":"NotValidator","inputs":[{"name":"","type":"address","internalType":"address"}]},{"type":"error","name":"PQDoesNotContainAddress","inputs":[]},{"type":"error","name":"PQEmpty","inputs":[]},{"type":"error","name":"ReentrancyError","inputs":[]},{"type":"error","name":"SubnetAlreadyBootstrapped","inputs":[]},{"type":"error","name":"SubnetAlreadyKilled","inputs":[]},{"type":"error","name":"WithdrawExceedingCollateral","inputs":[]}],"bytecode":{"object":"0x6080806040523461001657614c8d908161001c8239f35b600080fdfe608080604052600436101561001357600080fd5b600090813560e01c9081630b7fbe60146117f35750806310fd42611461167c57806326811936146114695780632e17de781461143c5780633a4b66f1146114185780633f4ba83a146113a057806341c0e1b5146112ff5780634c860af6146112ab5780634e71d92d146111175780635c975abb146110e75780636170b16214610b7b57806366783c9b14610a9a5780638456cb5914610a32578063b9ee2bb914610628578063cc2dc2b9146105a8578063d66d9e191461055d578063da5d09ee146101a55763ed7c4da1146100e757600080fd5b346101a257806003193601126101a257600080516020614c3883398151915260018154146101905780600183925561011d611af0565b73__$4a8700ca5e162cb61a0c4650a4871f1ad5$__803b1561018c5782602491604051928380926382985e0b60e01b82523360048301525af490811561018157839161016a575b50505580f35b610173906118d5565b61017e578138610164565b50fd5b6040513d85823e3d90fd5b5050fd5b6040516329f745a760e01b8152600490fd5b80fd5b50346101a25760603660031901126101a2576004356001600160401b038111610559576101d690369060040161197b565b906024356001600160401b038111610555576101f690369060040161197b565b916044356001600160401b0381116105515761021690369060040161197b565b9094610220613bd1565b610228611aab565b60ff60135416600381101561053d5760010361050d578181036104fb578481036104fb57865b818110610259578780f35b61026d610267828888613b5b565b90614ad4565b6001600160a01b03610288610283848689613b9c565b611cbb565b166001600160a01b03909116036104e9576102f26102aa610283838588613b9c565b6102b5838989613b5b565b6102c385888d969496613b9c565b356102de6040519586936040602086015260608501916138d5565b90604083015203601f198101845283611903565b6001600160401b03601c541660405161030a816118e8565b600381526020810184815260018060a01b038416604083015282600052601d602052604060002090825161033d81611e41565b61034681611e41565b60ff80198454169116178255518051906001600160401b0382116104d35761037e826103756001860154611e61565b60018601611f54565b602090601f831160011461044c579282600080516020614bf883398151915297959360029360019b9a9896600092610441575b5050600019600383901b1c1916908a1b17818a01555b01906040888060a01b03910151166001600160601b0360a01b8254161790556001600160401b036103f782612079565b166001600160401b0319601c541617601c5561043260405193849360038552888060a01b031660208501526080806040860152840190613bac565b9060608301520390a10161024e565b0151905038806103b1565b906001840160005260206000209160005b601f19851681106104bb57508360029360019b9a9896938c93600080516020614bf88339815191529b9997601f198116106104a2575b505050811b01898201556103c7565b015160001960f88460031b161c19169055388080610493565b9192602060018192868501518155019401920161045d565b634e487b7160e01b600052604160045260246000fd5b604051634be9251d60e11b8152600490fd5b604051637e65935960e01b8152600490fd5b610539610518613bf2565b60405163015538b160e01b8152602060048201529182916024830190613bac565b0390fd5b634e487b7160e01b88526021600452602488fd5b8580fd5b8380fd5b5080fd5b50346101a257806003193601126101a257600080516020614c38833981519152600181541461019057806001839255610594611af0565b61059c613bd1565b6105a46143f6565b5580f35b50346101a25760603660031901126101a2576001600160401b036004358181116106245736602382011215610624576105eb9036906024816004013591016119d6565b604435918211610624573660238301121561062457610617610621923690602481600401359101611a2c565b9060243590614799565b80f35b8280fd5b50346101a257600319606036820112610559576001600160401b03600435116105595760806004356004019160043536030112610559576024356001600160401b0381116106245761067e90369060040161197b565b91906044356001600160401b038111610a2e5761069f90369060040161197b565b916106a8611af0565b60055494600b54956106ba8782611b1b565b60246004350135141580610a1e575b610a0c576040519061070160208301836106e38a83611c0a565b03936106f7601f1995868101835282611903565b5190209882611b1b565b60043560240135036109095750509161072461072c9261073296979436916119d6565b933691611a2c565b91614799565b6024600435013582528160205260408220908035604219600435360301811215610555576004350191600483016001600160401b0361077082611c5b565b16936001600160401b031994858454161783556107966001926024848601930190611c6f565b91906001600160401b0383116108f557600160401b83116108f55781548383558084106108da575b509087959493929190865260208620865b8381106108b3575050505050600480356024810135600284015560448101356003840155606401949101906001600160401b0361080b86611c5b565b1690825416179055602460043501358252602260205261082f604083203390611dbc565b5060043560240135600555600e546001600160a01b0316803b15610624576040516347dc9b4f60e01b815291839183918290849082906108729060048301611c0a565b03925af180156108a857610894575b505061088f61062191611c5b565b612091565b61089d906118d5565b610559578138610881565b6040513d84823e3d90fd5b849596975060206108c78495969394611cbb565b848301558a9897969594019291016107cf565b828952602089206108ef918101908501611ca4565b386107be565b634e487b7160e01b88526041600452602488fd5b94509450505050602460043501351461092157505080f35b60246004350135835282602052604083206040519060208201926020845260806040840152826101008101926001600160401b0381541660c083015260019081810191604060e085015282548096526101208401928a5260208a20908a5b8781106109eb575050506002810154606084015260038101546080840152600401546001600160401b031660a08301520390810183526109c0915082611903565b519020146109cb5780f35b60246004350135815260226020526109e7604082203390611dbc565b5080f35b82546001600160a01b0316855288955060209094019391810191810161097f565b60405163fae4eadb60e01b8152600490fd5b50806024600435013514156106c9565b8480fd5b50346101a257806003193601126101a257610a4b611aab565b610a53611af0565b600080516020614c18833981519152600160ff198254161790557f5db9ee0a495bf2e6ff9c91a7834c1ba4fdd244a5e8aa4e537bd38aeae4b073aa6020604051338152a180f35b50346101a25760203660031901126101a257600435600080516020614c38833981519152600181541461019057600181558115610b695760ff60125460081c16610b5757338352600360205281604084205410610b45576105a48392338452600360205260408420610b0d8282546125fe565b9055610b1b816002546125fe565b6002553384526003602052604084205415610b37575b33613ae1565b610b4033614b10565b610b31565b60405163569d45cf60e11b8152600490fd5b604051631b39f2f360e11b8152600490fd5b604051631036b5ad60e31b8152600490fd5b5060203660031901126101a257600435906001600160401b0382116101a257366023830112156101a2576001600160401b038260040135116101a25760243681846004013585010111610559576001600080516020614c388339815191525414610190576001600080516020614c3883398151915255610bf9611af0565b610c01613bd1565b60ff60125460081c16806110da575b34156110c85760418460040135036110b657610c328460040135838601614ad4565b336001600160a01b03909116036104e957610eb45733600090815260156020526040902060039390840190610c758160040135610c6f8454611e61565b84611f54565b83601f826004013511600114610e3f578385918360040135610e32575b5050816004013560011b916000199060040135871b1c19161790555b610cb83433613caa565b601454600a54811015610cdf575b505090505b80600080516020614c388339815191525580f35b61ffff601654166001600160401b03600c541611610cc65761010061ff0019601254161760125560405193602085019060208652600154809252604086019160408160051b88010192600187527fb10e2d527612073b26eecdfd717e6a320cf44b4afac2b0732d9fcbe2b7fa0cf69287915b838310610de55750505050508484957f4914d88063275a25a13b2df37125e216745d812f94c56504be4bd78cf60c9593920390a160018060a01b03600e5416610d9d6002548093611b1b565b92813b15610a2e5784926040519485938492637903ab2760e11b845260048401525af180156108a857610dd1575b80610cc6565b610dda906118d5565b6101a2578038610dcb565b9091929394602083610e236001938d603f1990820301865289548152848060a01b03858b015416848201526060908160408201520160028a01611e9b565b97019201930191909392610d51565b8301013590508338610c92565b828552602085208592916004830135601f19165b808510610e975760019450836004013511610e79575b505060040135811b019055610cae565b82018501356000196004840135891b60f8161c191690553880610e69565b838201870135835560209485019460019093019290910190610e53565b610ec536846004013583860161193f565b926001600160401b03601c5416604051610ede816118e8565b600281526020810195865233604082015281600052601d6020526040600020958151610f0981611e41565b610f1281611e41565b60ff80198954169116178755519586516001600160401b0381116110a157610f4a81610f416001850154611e61565b60018501611f54565b6020601f821160011461101f57908060029392600080516020614bf8833981519152999a600092611014575b50508160011b916000199060031b1c19161760018201555b0190604060018060a01b03910151166001600160601b0360a01b8254161790556001600160401b03610fbf82612079565b166001600160401b0319601c541617601c55610ffc60405193849360028552336020860152608060408601526080850191816004013591016138d5565b9060608301520390a161100f3433613ebb565b610ccb565b015190503880610f76565b6001830160005260206000209860005b601f1984168110611089575091600080516020614bf883398151915298996001926002959483601f19811610611070575b505050811b016001820155610f8e565b015160001960f88460031b161c19169055388080611060565b828201518b556001909a01996020928301920161102f565b85634e487b7160e01b60005260416004526000fd5b6040516318dca5e960e21b8152600490fd5b604051635a78c58160e11b8152600490fd5b6110e26140b7565b610c10565b50346101a257806003193601126101a257602060ff600080516020614c1883398151915254166040519015158152f35b50346101a257806003193601126101a257600190600080516020614c38833981519152828154146101905782815561114d611af0565b336000908152601f602052604090209283549061ffff9081831692831561129957829060101c16918391808795818a01915b611213575b505050866111f5937f197c586353eaed0a1c53e6e540445b94befab8f932c8115d112115ecbeeed514959363ffff000093899a54911693849260101b169063ffffffff191617179055156111fc575b6111dd8133613ae1565b60408051338152602081019290925290918291820190565b0390a15580f35b336000908152601f602052604090208590556111d3565b909193948381169682881015611290578760005260208091858252604060002060405161123f816118ba565b89825492838352015493849101524310611285578594938896889461126686958a95611b1b565b9c6000525260008260408220828155015501169660001901169461117f565b985050509493611184565b96509493611184565b6040516364b0557f60e01b8152600490fd5b5060603660031901126101a2576044356002811015610559576112cc611af0565b600e546001600160a01b031633036112ed57610621906024356004356145ee565b60405163e7e601db60e01b8152600490fd5b50346101a257806003193601126101a257611318613bd1565b61ffff61132e8160195416826016541690612554565b1661138e576012805462ff0000191662010000179055600e5481906001600160a01b0316803b1561017e578180916004604051809481936341c0e1b560e01b83525af180156108a85761137e5750f35b611387906118d5565b6101a25780f35b604051636b62255160e11b8152600490fd5b50346101a257806003193601126101a2576113b9611aab565b600080516020614c18833981519152805460ff8116156114065760ff191690557f5db9ee0a495bf2e6ff9c91a7834c1ba4fdd244a5e8aa4e537bd38aeae4b073aa6020604051338152a180f35b604051638dfc202b60e01b8152600490fd5b50806003193601126101a25761142c611af0565b611434613bd1565b6106216140cc565b50346101a25760203660031901126101a257611456611af0565b61145e613bd1565b610621600435614126565b50346101a257600319606036820112610559576004356001600160401b03918282116105555760608260040191833603011261055557602435838111610a2e576114b790369060040161197b565b9190604435858111611678576114d190369060040161197b565b916024860135966006549687891061162d57604401906114f18287611c6f565b91905060095416809111611666576115098287611c6f565b905014158061163f575b61162d576115219085611c6f565b90501561161b578794604051602081019061154e81611540898561395f565b03601f198101835282611903565b51902096880361157f575050505050506007541461156a575080f35b815260236020526109e7604082203390611dbc565b61159993926107248896989361072c939a989a36916119d6565b8060206040516115a8816118ba565b848152015281600655600755825260236020526115c9604083203390611dbc565b50600e546001600160a01b031690813b1561018c57829161160091604051948580948193630bed761560e01b83526004830161395f565b03925af180156108a857611612575080f35b610621906118d5565b6040516338d2307f60e01b8152600490fd5b60405163200c52f760e21b8152600490fd5b5060085480156116525788061515611513565b634e487b7160e01b8a52601260045260248afd5b60405163351c700760e01b8152600490fd5b8680fd5b50346101a257602090816003193601126101a2576001600160401b03916004358381116106245736602382011215610624576116c290369060248160040135910161193f565b926116cb611af0565b3383526017825261ffff604084205416156117db578351156117c95733835260248252604083209184519182116117b5576117108261170a8554611e61565b85611f54565b80601f83116001146117515750839482939492611746575b50508160011b916000199060031b1c19161790555b6109e733611d53565b015190503880611728565b90601f198316958486528286209286905b88821061179d57505083600195969710611784575b505050811b01905561173d565b015160001960f88460031b161c19169055388080611777565b80600185968294968601518155019501930190611762565b634e487b7160e01b84526041600452602484fd5b604051637138356f60e01b8152600490fd5b604051633b4f6e2b60e21b8152336004820152602490fd5b9050816003193601126105595734156118ab575060ff60125460081c16610b57573381526003602052604081205415611852575b33815260036020526040812061183e348254611b1b565b905561184c34600254611b1b565b60025580f35b600454600160401b811015611897576118748160016118929301600455611ccf565b81546001600160a01b0360039290921b91821b19163390911b179055565b611827565b634e487b7160e01b82526041600452602482fd5b631036b5ad60e31b8152600490fd5b604081019081106001600160401b038211176104d357604052565b6001600160401b0381116104d357604052565b606081019081106001600160401b038211176104d357604052565b90601f801991011681019081106001600160401b038211176104d357604052565b6001600160401b0381116104d357601f01601f191660200190565b92919261194b82611924565b916119596040519384611903565b829481845281830111611976578281602093846000960137010152565b600080fd5b9181601f84011215611976578235916001600160401b038311611976576020808501948460051b01011161197657565b6001600160401b0381116104d35760051b60200190565b35906001600160a01b038216820361197657565b92916119e1826119ab565b916119ef6040519384611903565b829481845260208094019160051b810192831161197657905b828210611a155750505050565b838091611a21846119c2565b815201910190611a08565b92919092611a39846119ab565b91611a476040519384611903565b829480845260208094019060051b8301928284116119765780915b848310611a7157505050505050565b82356001600160401b03811161197657820184601f82011215611976578691611aa0868385809535910161193f565b815201920191611a62565b7f806e0cbb9fce296bbc336a48f42bf1dbc69722d18d90d6fe705b7582c2bb4bd5546001600160a01b03163303611ade57565b6040516330cd747160e01b8152600490fd5b60ff600080516020614c188339815191525416611b0957565b60405163d93c066560e01b8152600490fd5b91908201809211611b2857565b634e487b7160e01b600052601160045260246000fd5b9035603e1982360301811215611976570190565b35906001600160401b038216820361197657565b9035601e19823603018112156119765701602081359101916001600160401b038211611976578160051b3603831361197657565b60408201916001600160401b03611bb083611b52565b1681526060611bc460209384810190611b66565b839195604086839601525201929160005b828110611be3575050505090565b909192938280600192838060a01b03611bfb896119c2565b16815201950193929101611bd5565b6020815260806001600160401b03611c546060611c3a611c2a8780611b3e565b85602088015260a0870190611b9a565b956020810135604087015260408101358287015201611b52565b1691015290565b356001600160401b03811681036119765790565b903590601e198136030182121561197657018035906001600160401b03821161197657602001918160051b3603831361197657565b818110611caf575050565b60008155600101611ca4565b356001600160a01b03811681036119765790565b600454811015611d065760046000527f8a35acfbc15ff81a39ae7d344fd709f28e8600b4aa8c65c6b64bfe7fe36bd19b0190600090565b634e487b7160e01b600052603260045260246000fd5b602554811015611d065760256000527f401968ff42a154441da5f6c4c935ac46b8671f0e062baaa62a7545ba53bb6e4c0190600090565b600081815260266020526040812054611db757602554600160401b811015611897579082611da3611d8c84600160409601602555611d1c565b819391549060031b91821b91600019901b19161790565b905560255492815260266020522055600190565b905090565b91906001830160009082825280602052604082205415600014611e3b57845494600160401b861015611e275760018601808255861015611e1357836040949596828552602085200155549382526020522055600190565b634e487b7160e01b83526032600452602483fd5b634e487b7160e01b83526041600452602483fd5b50925050565b60041115611e4b57565b634e487b7160e01b600052602160045260246000fd5b90600182811c92168015611e91575b6020831014611e7b57565b634e487b7160e01b600052602260045260246000fd5b91607f1691611e70565b9060009291805491611eac83611e61565b918282526001938481169081600014611f0e5750600114611ece575b50505050565b90919394506000526020928360002092846000945b838610611efa575050505001019038808080611ec8565b805485870183015294019385908201611ee3565b9294505050602093945060ff191683830152151560051b01019038808080611ec8565b60005b838110611f445750506000910152565b8181015183820152602001611f34565b9190601f8111611f6357505050565b611f8f926000526020600020906020601f840160051c83019310611f91575b601f0160051c0190611ca4565b565b9091508190611f82565b9080821461207557611fad8154611e61565b906001600160401b0382116104d3578190611fd282611fcc8654611e61565b86611f54565b600090601f831160011461200957600092611ffe575b50508160011b916000199060031b1c1916179055565b015490503880611fe8565b81526020808220858352818320935090601f1985169083905b82821061205c575050908460019594939210612043575b505050811b019055565b015460001960f88460031b161c19169055388080612039565b8495819295850154815560018091019601940190612022565b5050565b9060016001600160401b0380931601918211611b2857565b601c546001600160401b03828116929080831684106120bc5760405163040aaa0560e11b8152600490fd5b808360401c168410611ec85780604093841c165b8482821611156121375750509160209161210a7f246f00b61ce672242f33bb680a47147cd54d3dfd04dbb76956ba42f88087bf6394612079565b67ffffffffffffffff60401b601c5491831b169067ffffffffffffffff60401b191617601c5551908152a1565b81612155826001600160401b0316600052601d602052604060002090565b6002808201548254929491926001600160a01b03918216919060ff1661217a81611e41565b8085036121ec57505060036121ab60016121b194959697019260018060a01b03166000526015602052604060002090565b01611f9b565b6121ce816001600160401b0316600052601d602052604060002090565b916000908184556001936121e385820161260b565b015501166120d0565b909194506121f981611e41565b6003918183036123975750508751936122218561221a816001809a01611e9b565b0386611903565b84518501916020928a8785830192031261197657838701518981116119765787019681603f890112156119765787858d9901519261226a61226185611924565b9a519a8b611903565b838a528d8483010111611976578c926122889184888c019101611f31565b015192816122a88460018060a01b03166000526015602052604060002090565b01918751918a8311612382578a986122ca846122c48754611e61565b87611f54565b81601f851160011461230f57506122ff9798999a8493928492600095612304575b50501b92600019911b1c191617905561256a565b6121b1565b0151935038806122eb565b91601f9b9493919b1984169b866000528c84600020946000915b8210612367575050846122ff9a9b9c9d1061234d575b50505050811b01905561256a565b01519060f884600019921b161c191690553880808061233f565b8383015186558f9d509487019492830192908101908e612329565b60246000634e487b7160e01b81526041600452fd5b915091938895939551936123b38561221a816001809501611e9b565b602080868051810103126119765781818c970151956123d181611e41565b036124f65784906123e28285612654565b601e546123ef9043611b1b565b928751906123fc826118ba565b8482528282018481526001600160a01b0387166000908152601f602052604090209091909283549161ffff9384848180961695869160101c169061243f91612554565b169c60009d8e5282870188528d20925183555191015561245e90612541565b1661ffff198254161790558b519384528301528982015260607f083b080788e20bd0930c2bca2ae4fbc51a59ced08c1b5992271f8cb439498a6391a1600e541690813b15610624578291602483928a5195869384926345f5448560e01b845260048401525af19081156124eb575090849392916124dc575b506121b1565b6124e5906118d5565b386124d6565b8751903d90823e3d90fd5b50508293509161250691926125ae565b600e541690813b15611976578651916316989f6f60e21b83528260048160009485945af19081156124eb575090849392916124dc57506121b1565b90600161ffff80931601918211611b2857565b91909161ffff80809416911601918211611b2857565b9060018060a01b03821660005260156020526040600020818154915581811460001461259557505050565b8111156125a557611f8f916126e3565b611f8f91612b08565b90611f8f916125f660018060a01b038216928360005260156020526125db81600160406000200154611b1b565b93600052601560205283600160406000200155601454611b1b565b6014556126e3565b91908203918211611b2857565b6126158154611e61565b908161261f575050565b81601f60009311600114612631575055565b908083918252612650601f60208420940160051c840160018501611ca4565b5555565b906126c16126c99260018060a01b03811690600082815260156020526126818560016040842001546125fe565b92815260156020526040812060028101848154811590816126da575b50156126ce575090826003926126bc948355816001840155550161260b565b612b08565b6014546125fe565b601455565b92505060010155612b08565b9050153861269d565b919060018060a01b03928381166000948186526020916017835261ffff916040978389822054166129f9578360135460081c168460165416106129c5576127286135b4565b6001928382526018808752838b84205416908961274483612fdb565b1061285d5750508152601a85528389822054166127b45750505050506127af7f19fe3ca603e87854a0747cc10abf06bac64d61bac73d6d15f2fd3ca448f15264939461278f83612f66565b516001600160a01b03909216825260208201929092529081906040820190565b0390a1565b6127bd86613607565b926127c787612fdb565b935b818682161161281f575b505097516001600160a01b0390951685525050505060208101919091529091507fda148fac2e1063174be7bc0895576bdaba90fd14e575463fa26a967cb895cadd9080604081016127af565b808561283e86617fff8f95871c1694858852601b8c5287205416612fdb565b10156128575790612850839282613815565b90506127c9565b506127d3565b9295809795919899506016949294541680156129b4578061288061289c926136cd565b8861288a8261302a565b1661ffff19601654161760165561362c565b8086528285526128b0828c88205416612fdb565b9181938260028a60165416915b612941575b505050505050509682601a6127af95937ffaeb8de771b867cf357f6b459a7002b62ec45d544a8078a3ecd91200cc826d75999a84965252205416612933575b61290a84613380565b61291383612f66565b516001600160a01b03928316815292909116602083015281906040820190565b61293c846131a5565b612901565b8a81168281116129ae578f90838110156129935750508061296461296a92612541565b90613564565b9690965b86111561298e5761297f9087613786565b61298886613311565b846128bd565b6128c2565b8b52838a528a20549096906129a9908516612fdb565b61296e565b506128c2565b8b516340d9b01160e01b8152600490fd5b50505050506127af7f2e8038f5812f763c6ef0c5427cb5a05ce6d7064af2ba7d1d270bc02660b019fd939461278f83613380565b97929150612a0a85949796956135d0565b97612a1485612fdb565b97612a1e8a613311565b8460165416905b858116828111612ad15782811015612ab5575080612964612a4592612541565b9b909b5b8b1115612a6857612a5a908c613786565b612a638b613311565b612a25565b505093516001600160a01b0390951685525050505060208101919091529092507f143db27bc2036653dc6f962ff9d0b803163d4af50c256ca9e6927b3d6dcd0197915080604081016127af565b849c919c5260188352612acc858886205416612fdb565b612a49565b505050505050506127af91929395507f143db27bc2036653dc6f962ff9d0b803163d4af50c256ca9e6927b3d6dcd0197945061278f565b919060018060a01b039182841691600094838652602094601a865261ffff96604095888783205416612e29578082526017885288878320541615612e18578415612d715750612b56836135d0565b97612b6084612fdb565b985b6001808383161115612d625781617fff911c169081845260188a528a612b8c868b87205416612fdb565b1115612ba157612b9c9082613786565b612b62565b505091939597509193955b816019541615612d5857612bbe6135b4565b600191828452601894858352808a8620541694612bda86612fdb565b96612be36135c2565b858252601b8552828c8320541697612bfa89612fdb565b11612c4d57505098516001600160a01b0390961686525050505060208201929092529192507f143db27bc2036653dc6f962ff9d0b803163d4af50c256ca9e6927b3d6dcd019791905080604081016127af565b9193959750918094969850601654168015612d475780612c72612c7c929896986136cd565b8761288a8261302a565b838252808552612c90838b84205416612fdb565b9484809760028160165416925b612cda575b505050505050505050506127af7ffaeb8de771b867cf357f6b459a7002b62ec45d544a8078a3ecd91200cc826d75939461290161303e565b818116838111612d41578e9080851115612d2657505080612964612cfd92612541565b9990995b891115612d2157612d12908a613786565b612d1b89613311565b87612c9d565b612ca2565b8752858552862054909990612d3c908816612fdb565b612d01565b50612ca2565b8a516340d9b01160e01b8152600490fd5b5050505050509050565b50509193959750919395612bac565b879450612da47f4a4c5d1a281180eea1e99d8177fa4798b9f7e019d5c57e7d8d73c6a22199aa5b939699949892986133f5565b8651908152a160195416612db85750505050565b7f2e8038f5812f763c6ef0c5427cb5a05ce6d7064af2ba7d1d270bc02660b019fd93601b8492612de66135c2565b6001835252205416612e0c612dfa82612fdb565b92612e0361303e565b61278f83613380565b0390a138808080611ec8565b8651632a55ca5360e01b8152600490fd5b8496989291949793959715612f2b575061fffe9193612e4786613607565b93612e5187612fdb565b9480966001958692831b168160195416925b612eb7575b505099516001600160a01b039097168752505050506020830193909352509192507fda148fac2e1063174be7bc0895576bdaba90fd14e575463fa26a967cb895cadd91905080604081016127af565b818116838111612f25578d9084811015612f0957505080612eda612ee092612541565b90613328565b9890985b881015612f0457612ef59089613815565b612efe88613311565b86612e63565b612e68565b8652601b8552852054909890612f20908716612fdb565b612ee4565b50612e68565b94915050612f5f9194507f3168ba660eed6ef1dc2258b2247cc05fd0f2f350d39e6ad2e2ebc76a8000b40b959692506131a5565b51908152a1565b611f8f90612fd561ffff91612f7e8360195416612541565b9260018060a01b0382169081600052601a60205260406000209085169161ffff1991838382541617905582600052601b6020526040600020906001600160601b0360a01b8254161790556019541617601955612fdb565b906132bc565b60ff601354166003811015611e4b5760010361300c576001600160a01b031660009081526015602052604090205490565b6001600160a01b031660009081526015602052604090206001015490565b61ffff9081166000190191908211611b2857565b61ffff8060195416908115613193579060019061305d818311156136b0565b6000828152601b60208181526040808420805486865282862080546001600160a01b03928316808952601a8752858920805461ffff199081168c17909155918416808a52868a20805484168d17905588885283546001600160a01b03199081169092179093558a8952845416909117909255929587959394929392916130f791908a6130e88361302a565b1690601954161760195561366e565b84825280865261310b848484205416612fdb565b95859860028160195416995b613129575b5050505050505050505050565b8181168a811161318d578a811015613172575080612eda61314992612541565b9a909a5b89101561316d5761315e908b613815565b6131678a613311565b87613117565b61311c565b859b919b52838352613188878787205416612fdb565b61314d565b5061311c565b6040516340d9b01160e01b8152600490fd5b6131ae90613607565b61ffff908160195416916131c28383613815565b806131cc8461302a565b1661ffff1960195416176019556131e28361366e565b8082168093146132b7579161fffe91600091808352601b9060209382855260018060a01b039260409261322261321c868686205416612fdb565b876132bc565b8252808652613235848484205416612fdb565b9585986001988997881b168160195416995b613258575050505050505050505050565b8181168a811161318d578a81101561329c575080612eda61327892612541565b9a909a5b89101561316d5761328d908b613815565b6132968a613311565b87613247565b859b919b528383526132b2878787205416612fdb565b61327c565b505050565b9190915b60018061ffff8316111561330b5781617fff911c1690836132f66000848152601b602052604060018060a01b0391205416612fdb565b101561330b576133069082613815565b6132c0565b50509050565b60011b906201fffe61fffe831692168203611b2857565b91909161ffff92838216600052601b60205261336b60018060a01b036133548160406000205416612fdb565b958316600052601b60205260406000205416612fdb565b908185106133795750509190565b9350919050565b611f8f906133ef61ffff916133988360165416612541565b9260018060a01b0382169081600052601760205260406000209085169161ffff199183838254161790558260005260186020526040600020906001600160601b0360a01b8254161790556016541617601655612fdb565b90613515565b6133fe906135d0565b9061ffff908160165416906134138285613786565b8261341d8361302a565b1661ffff1960165416176016556134338261362c565b82841680921461350f5760009291929183835260189260209484865260018060a01b039160409161347161346b858585205416612fdb565b8a613515565b8152858752613484838383205416612fdb565b9561348e89613311565b978560165416985b8681168a8111613501578a8110156134e65750806129646134b692612541565b9a909a5b8911156134d9576134cb908b613786565b6134d48a613311565b613496565b5050505050505092505050565b849b919b528282526134fc868686205416612fdb565b6134ba565b505050505050505092505050565b92505050565b9190915b60018061ffff8316111561330b5781617fff911c16908361354f60008481526018602052604060018060a01b0391205416612fdb565b111561330b5761355f9082613786565b613519565b919061ffff80841660005260186020526135a560018060a01b0361358e8160406000205416612fdb565b928416600052601860205260406000205416612fdb565b93848211156133795750509190565b61ffff601654161561319357565b61ffff601954161561319357565b6001600160a01b031660009081526017602052604090205461ffff169081156135f557565b60405163f2755e3760e01b8152600490fd5b6001600160a01b03166000908152601a602052604090205461ffff169081156135f557565b61ffff16600090815260186020908152604080832080546001600160a01b031981169091556001600160a01b0316835260179091529020805461ffff19169055565b61ffff166000908152601b6020908152604080832080546001600160a01b031981169091556001600160a01b03168352601a9091529020805461ffff19169055565b156136b757565b634e487b7160e01b600052600160045260246000fd5b6136f061ffff8060165416926136e684600111156136b0565b16918211156136b0565b601860208181527ff3794665d3af9b6fb6f858b70185898134f96768ef31c325d52e04f0ac195a4d80546000858152604080822080546001600160a01b0394851680855260178852838520805461ffff19908116909b1790559416808452918320805490981660019081179098559590945284546001600160a01b03199081169092179094559390925281549092169091179055565b6137a161ffff8080601654169316936136e6848611156136b0565b6000828152601860208181526040808420805486865282862080546001600160a01b0392831680895260178752858920805461ffff19908116909b1790559216808852938720805490981689179097559390925284546001600160a01b031990811690931790945593909152825416179055565b61383061ffff8080601954169316936136e6848611156136b0565b6000828152601b60208181526040808420805486865282862080546001600160a01b03928316808952601a8752858920805461ffff19908116909b1790559216808852938720805490981689179097559390925284546001600160a01b031990811690931790945593909152825416179055565b9035601e19823603018112156119765701602081359101916001600160401b03821161197657813603831361197657565b908060209392818452848401376000828201840152601f01601f1916010190565b61391f6139146139068380611b3e565b604085526040850190611b9a565b916020810190611b3e565b91602081830391015281359160ff83168093036119765761394c60409161395c94845260208101906138a4565b91909281602082015201916138d5565b90565b602080825261396e8380611b3e565b606091828185015261398560809283860190611b9a565b61399c604096838101358888015287810190611b66565b939096601f199686888286030191015284835283830191848660051b8501019880986000955b8887106139d757505050505050505050505090565b909192939495969798999a828282030187526139f38c85611b3e565b90813560de1983360301811215611976578782528201918a90888e6001600160401b03613a6a613a5a613a47613a3e613a2c8b80611b3e565b60e080988c01526101208b01906138f6565b978a018a611b3e565b96603f1997888a830301868b01526138f6565b928d8901358d8901528801611b52565b169060a091828701528a8701359263ffffffff60e01b8416809403611976578f95613aa1613ab19460c096878b01528a018a6138a4565b92909189850301908901526138d5565b940135610100840152013590811515809203611976578a01529a88019998979660010195870194939291906139c2565b814710613b43576000918291829182916001600160a01b03165af13d15613b3e573d613b0c81611924565b90613b1a6040519283611903565b8152600060203d92013e5b15613b2c57565b604051630a12f52160e11b8152600490fd5b613b25565b60405163cd78605960e01b8152306004820152602490fd5b9190811015611d065760051b81013590601e19813603018212156119765701908135916001600160401b038311611976576020018236038113611976579190565b9190811015611d065760051b0190565b90602091613bc581518092818552858086019101611f31565b601f01601f1916010190565b60ff60125460101c16613be057565b60405163248c8efb60e11b8152600490fd5b60405190608082018281106001600160401b038211176104d3576040526045825264185c1c195960da1b6060837f4d6574686f64206e6f7420616c6c6f776564206966207065726d697373696f6e60208201527f656420697320656e61626c656420616e64207375626e657420626f6f7473747260408201520152565b600154811015611d06576003906001600052027fb10e2d527612073b26eecdfd717e6a320cf44b4afac2b0732d9fcbe2b7fa0cf60190600090565b90613cbf90613cb98184613e94565b826125ae565b60ff60125460081c1615613cd05750565b60018054600082815b838110613e63575b505015613ced57505050565b6001600160a01b038316600090815260156020526040902082810154613d4394909160030160405192613d1f846118e8565b8352602093613d4a8585019260018060a01b03809516845260405198898092611e9b565b0388611903565b60408401968752600160401b8110156104d3578086613d6b92018755613c6f565b929092613e4d576002935183558583019151166001600160601b0360a01b825416179055019251908151916001600160401b0383116104d357613db2836122c48754611e61565b81601f8411600114613deb5750928293918392600094613de0575b50501b916000199060031b1c1916179055565b015192503880613dcd565b919083601f1981168760005284600020946000905b88838310613e335750505010613e1a57505050811b019055565b015160001960f88460031b161c19169055388080612039565b858701518855909601959485019487935090810190613e00565b634e487b7160e01b600052600060045260246000fd5b81613e6d82613c6f565b5001546001600160a01b03878116911614613e8a57018390613cd9565b5090508238613ce1565b60018060a01b03166000526015602052613eb76002604060002001918254611b1b565b9055565b91906040519281602085015260208452613ed4846118ba565b6001600160401b03601c54169360405194613eee866118e8565b60008652602086019582875260018060a01b038416604082015281600052601d6020526040600020968151613f2281611e41565b613f2b81611e41565b60ff80198a54169116178855519687516001600160401b0381116104d357613f5a81610f416001850154611e61565b6020601f821160011461402c57614013949282600080516020614bf8833981519152979593600293611f8f9c9d600092614021575b50508160011b916000199060031b1c19161760018201555b0190604060018060a01b03910151166001600160601b0360a01b8254161790556001600160401b03613fd882612079565b166001600160401b0319601c541617601c556040519283926000845260018060a01b0387166020850152608060408501526080840190613bac565b9060608301520390a1613e94565b015190503880613f8f565b6001830160005260206000209960005b601f198416811061409f575092600183611f8f9b9c6002946140139997600080516020614bf88339815191529b9997601f19811610614086575b505050811b016001820155613fa7565b015160001960f88460031b161c19169055388080614076565b828201518c556001909b019a6020928301920161403c565b60ff601354166003811015611e4b5761050d57565b6140d46140b7565b34156110c85733600090815260156020526040902060020154156141145760ff60125460081c161561410a57611f8f3433613ebb565b611f8f3433613caa565b60405163528fc16560e01b8152600490fd5b61412e6140b7565b8015614195573360009081526015602052604090206002015480156117db578110156141845760ff60125460081c161561416c57611f8f90336141fa565b8061417a611f8f92336141a7565b610b318133612654565b60405162d11df360e61b8152600490fd5b60405163c79cad7b60e01b8152600490fd5b6001600160a01b031660008181526015602052604090206002015490918082106141e8576141d4916125fe565b906000526015602052600260406000200155565b60405163ac69360360e01b8152600490fd5b91906040519281602085015260208452614213846118ba565b6001600160401b03601c5416936040519461422d866118e8565b60018652602086019582875260018060a01b038416604082015281600052601d602052604060002096815161426181611e41565b61426a81611e41565b60ff80198a54169116178855519687516001600160401b0381116104d35761429981610f416001850154611e61565b6020601f821160011461436b57614352949282600080516020614bf8833981519152979593600293611f8f9c9d600092614360575b50508160011b916000199060031b1c19161760018201555b0190604060018060a01b03910151166001600160601b0360a01b8254161790556001600160401b0361431782612079565b166001600160401b0319601c541617601c556040519283926001845260018060a01b0387166020850152608060408501526080840190613bac565b9060608301520390a16141a7565b0151905038806142ce565b6001830160005260206000209960005b601f19841681106143de575092600183611f8f9b9c6002946143529997600080516020614bf88339815191529b9997601f198116106143c5575b505050811b0160018201556142e6565b015160001960f88460031b161c191690553880806143b5565b828201518c556001909b019a6020928301920161437b565b60ff60125460081c166144e3575b3360009081526015602052604090206002015480156117db57614426336144f0565b50600090338252602460205281604081206144418154611e61565b806144a6575b50505060ff60125460081c161561446357611f8f9150336141fa565b6040611f8f923381526003602052205480614484575b5061417a81336141a7565b806144946144a0926002546125fe565b600255610b3133614b10565b38614479565b82601f82116001146144be575050555b813880614447565b90918082526144dc601f60208420940160051c840160018501611ca4565b55556144b6565b6144eb6140b7565b614404565b60008181526026602052604081205490919080156145d557600019908082018181116145c157602554908382019182116145ad57808203614579575b50505060255480156145655781019061454482611d1c565b909182549160031b1b19169055602555815260266020526040812055600190565b634e487b7160e01b84526031600452602484fd5b614597614588611d8c93611d1c565b90549060031b1c928392611d1c565b905584526026602052604084205538808061452c565b634e487b7160e01b86526011600452602486fd5b634e487b7160e01b85526011600452602485fd5b505090565b8051821015611d065760209160051b010190565b91909182156132b7576040908151906020938483018381106001600160401b038211176104d3578452600092839052600281101561478557806146e65750600b54614638916125fe565b8152602283528181208251808286829454938481520190855286852092855b888282106146d05750505061466e92500382611903565b9283519485156146c8578581106146c85785900493825b8681106146955750505050505050565b6001906001600160a01b036146aa82856145da565b51168552602184528585206146c0888254611b1b565b905501614685565b505050505050565b8554845260019586019587955093019201614657565b84600185921460001461473657606491519063015538b160e01b82526004820152601f60248201527f72657761726473206e6f7420646566696e656420666f722062617463686573006044820152fd5b608491519063015538b160e01b82526004820152602360248201527f72657761726473206e6f7420646566696e656420666f72206f626a656374206b6044820152621a5b9960ea1b6064820152fd5b634e487b7160e01b83526021600452602483fd5b918251916147a6836119ab565b936040946147b686519182611903565b848152601f196147c5866119ab565b0194602095368784013760005b81811061489c57505060009461ffff8060165416600192839182945b61484b575b505050505060ff600e5460a01c1694858102958187041490151715611b2857606461481f950491614913565b9015614829575050565b6006811015611e4b5760ff602492519163282ef1c160e01b8352166004820152fd5b90919293988a858b16838111614894576000908152601885522054849392918691859161488a91614884906001600160a01b0316612fdb565b90611b1b565b9b011694936147ee565b5050986147f3565b6001600160a01b03806148af83876145da565b51166000526017885261ffff896000205416156148ef57906148de6001926148d783886145da565b5116612fdb565b6148e882866145da565b52016147d2565b88906148fd602493876145da565b519151633b4f6e2b60e21b815291166004820152fd5b845192946000949084156149fb57825185148015906149f0575b6149e3579392919085945b84861061495b57505050505050101561495357600090600590565b600190600090565b90919293949561497561496e88846145da565b5184614a08565b5061497f81611e41565b6149d2576001600160a01b03806149968a886145da565b51169116036149c2576149b66001916149af89886145da565b5190611b1b565b96019493929190614938565b5050505050505050600090600390565b505050505050505050600090600490565b5050505050905090600190565b50835185141561492d565b5050505050905090600290565b8151919060418303614a3957614a3292506020820151906060604084015193015160001a90614a44565b9192909190565b505060009160029190565b91907f7fffffffffffffffffffffffffffffff5d576e7357a4501ddfe92f46681b20a08411614ac857926020929160ff608095604051948552168484015260408301526060820152600092839182805260015afa15614abc5780516001600160a01b03811615614ab357918190565b50809160019190565b604051903d90823e3d90fd5b50505060009160039190565b90614ae1604182146136b0565b8060011161197657614afc913691600019019060010161193f565b80516020909101206001600160a01b031690565b60049081549160005b838110614b265750505050565b614b2f81611ccf565b90546003916001600160a01b039190831b1c811685821614614b55575050600101614b19565b929350939060001991828101908111614be25790614b8684614b79614ba594611ccf565b905490891b1c1691611ccf565b90919082549060031b9160018060a01b03809116831b921b1916179055565b82548015614bcd570192614bb884611ccf565b81939154921b1b191690555538808080611ec8565b603184634e487b7160e01b6000525260246000fd5b601185634e487b7160e01b6000525260246000fdfe1c593a2b803c3f9038e8b6743ba79fbc4276d2770979a01d2768ed12bea3243fc451c9429c27db68f286ab8a68f311f1dccab703ba9423aed29cd397ae63f863691bb03ffc16c56fc96b82fd16cd1b3715f0bc3cdc6407005f49bb6205860095a26469706673582212202e76471d89ea1a4fae6469639a17b9d83cde34172491903ac69d82c7ca5c63df64736f6c63430008130033","linkReferences":{"src/lib/LibStaking.sol":{"LibStaking":[{"start":315,"length":20}]}}},"methodIdentifiers":{"addBootstrapNode(string)":"10fd4261","claim()":"4e71d92d","claimRewardForRelayer()":"ed7c4da1","distributeRewardToRelayers(uint256,uint256,uint8)":"4c860af6","join(bytes)":"6170b162","kill()":"41c0e1b5","leave()":"d66d9e19","pause()":"8456cb59","paused()":"5c975abb","preFund()":"0b7fbe60","preRelease(uint256)":"66783c9b","setFederatedPower(address[],bytes[],uint256[])":"da5d09ee","stake()":"3a4b66f1","submitBottomUpMsgBatch(((uint64,address[]),uint256,((((uint64,address[]),(uint8,bytes)),((uint64,address[]),(uint8,bytes)),uint256,uint64,bytes4,bytes,uint256),bool)[]),address[],bytes[])":"26811936","submitCheckpoint(((uint64,address[]),uint256,bytes32,uint64),address[],bytes[])":"b9ee2bb9","unpause()":"3f4ba83a","unstake(uint256)":"2e17de78","validateActiveQuorumSignatures(address[],bytes32,bytes[])":"cc2dc2b9"},"id":78}