{"abi":[{"type":"function","name":"addBootstrapNode","inputs":[{"name":"netAddress","type":"string","internalType":"string"}],"outputs":[],"stateMutability":"nonpayable"},{"type":"function","name":"claim","inputs":[],"outputs":[],"stateMutability":"nonpayable"},{"type":"function","name":"claimRewardForRelayer","inputs":[],"outputs":[],"stateMutability":"nonpayable"},{"type":"function","name":"confirmChange","inputs":[{"name":"_configurationNumber","type":"uint64","internalType":"uint64"}],"outputs":[],"stateMutability":"nonpayable"},{"type":"function","name":"confirmNextChange","inputs":[],"outputs":[],"stateMutability":"nonpayable"},{"type":"function","name":"distributeRewardToRelayers","inputs":[{"name":"height","type":"uint256","internalType":"uint256"},{"name":"reward","type":"uint256","internalType":"uint256"},{"name":"kind","type":"uint8","internalType":"enum QuorumObjKind"}],"outputs":[],"stateMutability":"payable"},{"type":"function","name":"join","inputs":[{"name":"publicKey","type":"bytes","internalType":"bytes"}],"outputs":[],"stateMutability":"payable"},{"type":"function","name":"kill","inputs":[],"outputs":[],"stateMutability":"nonpayable"},{"type":"function","name":"leave","inputs":[],"outputs":[],"stateMutability":"nonpayable"},{"type":"function","name":"pause","inputs":[],"outputs":[],"stateMutability":"nonpayable"},{"type":"function","name":"paused","inputs":[],"outputs":[{"name":"","type":"bool","internalType":"bool"}],"stateMutability":"view"},{"type":"function","name":"preFund","inputs":[],"outputs":[],"stateMutability":"payable"},{"type":"function","name":"preRelease","inputs":[{"name":"amount","type":"uint256","internalType":"uint256"}],"outputs":[],"stateMutability":"nonpayable"},{"type":"function","name":"setFederatedPower","inputs":[{"name":"validators","type":"address[]","internalType":"address[]"},{"name":"publicKeys","type":"bytes[]","internalType":"bytes[]"},{"name":"powers","type":"uint256[]","internalType":"uint256[]"}],"outputs":[],"stateMutability":"nonpayable"},{"type":"function","name":"stake","inputs":[],"outputs":[],"stateMutability":"payable"},{"type":"function","name":"submitBottomUpMsgBatch","inputs":[{"name":"batch","type":"tuple","internalType":"struct BottomUpMsgBatch","components":[{"name":"subnetID","type":"tuple","internalType":"struct SubnetID","components":[{"name":"root","type":"uint64","internalType":"uint64"},{"name":"route","type":"address[]","internalType":"address[]"}]},{"name":"blockHeight","type":"uint256","internalType":"uint256"},{"name":"msgs","type":"tuple[]","internalType":"struct CrossMsg[]","components":[{"name":"message","type":"tuple","internalType":"struct StorableMsg","components":[{"name":"from","type":"tuple","internalType":"struct IPCAddress","components":[{"name":"subnetId","type":"tuple","internalType":"struct SubnetID","components":[{"name":"root","type":"uint64","internalType":"uint64"},{"name":"route","type":"address[]","internalType":"address[]"}]},{"name":"rawAddress","type":"tuple","internalType":"struct FvmAddress","components":[{"name":"addrType","type":"uint8","internalType":"uint8"},{"name":"payload","type":"bytes","internalType":"bytes"}]}]},{"name":"to","type":"tuple","internalType":"struct IPCAddress","components":[{"name":"subnetId","type":"tuple","internalType":"struct SubnetID","components":[{"name":"root","type":"uint64","internalType":"uint64"},{"name":"route","type":"address[]","internalType":"address[]"}]},{"name":"rawAddress","type":"tuple","internalType":"struct FvmAddress","components":[{"name":"addrType","type":"uint8","internalType":"uint8"},{"name":"payload","type":"bytes","internalType":"bytes"}]}]},{"name":"value","type":"uint256","internalType":"uint256"},{"name":"nonce","type":"uint64","internalType":"uint64"},{"name":"method","type":"bytes4","internalType":"bytes4"},{"name":"params","type":"bytes","internalType":"bytes"},{"name":"fee","type":"uint256","internalType":"uint256"}]},{"name":"wrapped","type":"bool","internalType":"bool"}]}]},{"name":"signatories","type":"address[]","internalType":"address[]"},{"name":"signatures","type":"bytes[]","internalType":"bytes[]"}],"outputs":[],"stateMutability":"nonpayable"},{"type":"function","name":"submitCheckpoint","inputs":[{"name":"checkpoint","type":"tuple","internalType":"struct BottomUpCheckpoint","components":[{"name":"subnetID","type":"tuple","internalType":"struct SubnetID","components":[{"name":"root","type":"uint64","internalType":"uint64"},{"name":"route","type":"address[]","internalType":"address[]"}]},{"name":"blockHeight","type":"uint256","internalType":"uint256"},{"name":"blockHash","type":"bytes32","internalType":"bytes32"},{"name":"nextConfigurationNumber","type":"uint64","internalType":"uint64"}]},{"name":"signatories","type":"address[]","internalType":"address[]"},{"name":"signatures","type":"bytes[]","internalType":"bytes[]"}],"outputs":[],"stateMutability":"nonpayable"},{"type":"function","name":"unpause","inputs":[],"outputs":[],"stateMutability":"nonpayable"},{"type":"function","name":"unstake","inputs":[{"name":"amount","type":"uint256","internalType":"uint256"}],"outputs":[],"stateMutability":"nonpayable"},{"type":"function","name":"validateActiveQuorumSignatures","inputs":[{"name":"signatories","type":"address[]","internalType":"address[]"},{"name":"hash","type":"bytes32","internalType":"bytes32"},{"name":"signatures","type":"bytes[]","internalType":"bytes[]"}],"outputs":[],"stateMutability":"view"},{"type":"event","name":"BottomUpCheckpointExecuted","inputs":[{"name":"epoch","type":"uint256","indexed":false,"internalType":"uint256"},{"name":"submitter","type":"address","indexed":false,"internalType":"address"}],"anonymous":false},{"type":"event","name":"BottomUpCheckpointSubmitted","inputs":[{"name":"checkpoint","type":"tuple","indexed":false,"internalType":"struct BottomUpCheckpoint","components":[{"name":"subnetID","type":"tuple","internalType":"struct SubnetID","components":[{"name":"root","type":"uint64","internalType":"uint64"},{"name":"route","type":"address[]","internalType":"address[]"}]},{"name":"blockHeight","type":"uint256","internalType":"uint256"},{"name":"blockHash","type":"bytes32","internalType":"bytes32"},{"name":"nextConfigurationNumber","type":"uint64","internalType":"uint64"}]},{"name":"submitter","type":"address","indexed":false,"internalType":"address"}],"anonymous":false},{"type":"event","name":"NextBottomUpCheckpointExecuted","inputs":[{"name":"epoch","type":"uint256","indexed":false,"internalType":"uint256"},{"name":"submitter","type":"address","indexed":false,"internalType":"address"}],"anonymous":false},{"type":"event","name":"Paused","inputs":[{"name":"account","type":"address","indexed":false,"internalType":"address"}],"anonymous":false},{"type":"event","name":"SubnetBootstrapped","inputs":[{"name":"","type":"tuple[]","indexed":false,"internalType":"struct Validator[]","components":[{"name":"weight","type":"uint256","internalType":"uint256"},{"name":"addr","type":"address","internalType":"address"},{"name":"metadata","type":"bytes","internalType":"bytes"}]}],"anonymous":false},{"type":"event","name":"Unpaused","inputs":[{"name":"account","type":"address","indexed":false,"internalType":"address"}],"anonymous":false},{"type":"error","name":"AddressInsufficientBalance","inputs":[{"name":"account","type":"address","internalType":"address"}]},{"type":"error","name":"AddressShouldBeValidator","inputs":[]},{"type":"error","name":"BatchWithNoMessages","inputs":[]},{"type":"error","name":"CannotConfirmFutureChanges","inputs":[]},{"type":"error","name":"CannotReleaseZero","inputs":[]},{"type":"error","name":"CollateralIsZero","inputs":[]},{"type":"error","name":"EmptyAddress","inputs":[]},{"type":"error","name":"EnforcedPause","inputs":[]},{"type":"error","name":"ExpectedPause","inputs":[]},{"type":"error","name":"FailedInnerCall","inputs":[]},{"type":"error","name":"InvalidBatchEpoch","inputs":[]},{"type":"error","name":"InvalidCheckpointEpoch","inputs":[]},{"type":"error","name":"InvalidFederationPayload","inputs":[]},{"type":"error","name":"InvalidPublicKeyLength","inputs":[]},{"type":"error","name":"InvalidSignatureErr","inputs":[{"name":"","type":"uint8","internalType":"uint8"}]},{"type":"error","name":"MaxMsgsPerBatchExceeded","inputs":[]},{"type":"error","name":"MethodNotAllowed","inputs":[{"name":"reason","type":"string","internalType":"string"}]},{"type":"error","name":"NoCollateralToWithdraw","inputs":[]},{"type":"error","name":"NotAllValidatorsHaveLeft","inputs":[]},{"type":"error","name":"NotEnoughBalance","inputs":[]},{"type":"error","name":"NotEnoughCollateral","inputs":[]},{"type":"error","name":"NotEnoughFunds","inputs":[]},{"type":"error","name":"NotGateway","inputs":[]},{"type":"error","name":"NotOwner","inputs":[]},{"type":"error","name":"NotOwnerOfPublicKey","inputs":[]},{"type":"error","name":"NotStakedBefore","inputs":[]},{"type":"error","name":"NotValidator","inputs":[{"name":"","type":"address","internalType":"address"}]},{"type":"error","name":"PQDoesNotContainAddress","inputs":[]},{"type":"error","name":"PQEmpty","inputs":[]},{"type":"error","name":"ReentrancyError","inputs":[]},{"type":"error","name":"SubnetAlreadyBootstrapped","inputs":[]},{"type":"error","name":"SubnetAlreadyKilled","inputs":[]},{"type":"error","name":"WithdrawExceedingCollateral","inputs":[]}],"bytecode":{"object":"0x6080806040523461001657614be2908161001c8239f35b600080fdfe608080604052600436101561001357600080fd5b600090813560e01c9081630b7fbe60146118825750806310fd42611461170b57806326811936146114f85780632e17de78146114cb578063350a14bf146114985780633a4b66f1146114745780633f4ba83a146113fc57806341c0e1b51461135b5780634c860af6146113075780634e71d92d146111735780635c975abb146111435780636170b16214610bd757806366783c9b14610af65780638456cb5914610a8e578063b9ee2bb914610684578063c7ebdaef1461063e578063cc2dc2b9146105be578063d66d9e1914610573578063da5d09ee146101bb5763ed7c4da1146100fd57600080fd5b346101b857806003193601126101b857600080516020614b8d83398151915260018154146101a657806001839255610133611b8e565b73__$4a8700ca5e162cb61a0c4650a4871f1ad5$__803b156101a25782602491604051928380926382985e0b60e01b82523360048301525af4908115610197578391610180575b50505580f35b61018990611964565b61019457813861017a565b50fd5b6040513d85823e3d90fd5b5050fd5b6040516329f745a760e01b8152600490fd5b80fd5b50346101b85760603660031901126101b8576004356001600160401b03811161056f576101ec903690600401611a05565b906024356001600160401b03811161056b5761020c903690600401611a05565b916044356001600160401b0381116105675761022c903690600401611a05565b9094610236613b2e565b61023e611b49565b60ff60135416600381101561055357600103610523578181036105115784810361051157865b81811061026f578780f35b61028361027d828888613ab8565b90614a29565b6001600160a01b0361029e610299848689613af9565b611d45565b166001600160a01b03909116036104ff576103086102c0610299838588613af9565b6102cb838989613ab8565b6102d985888d969496613af9565b356102f4604051958693604060208601526060850191613832565b90604083015203601f198101845283611992565b6001600160401b03601c541660405161032081611977565b600381526020810184815260018060a01b038416604083015282600052601d602052604060002090825161035381611ecb565b61035c81611ecb565b60ff80198454169116178255518051906001600160401b0382116104e9576103948261038b6001860154611eeb565b60018601611fde565b602090601f8311600114610462579282600080516020614b4d83398151915297959360029360019b9a9896600092610457575b5050600019600383901b1c1916908a1b17818a01555b01906040888060a01b03910151166001600160601b0360a01b8254161790556001600160401b0361040d82612103565b166001600160401b0319601c541617601c5561044860405193849360038552888060a01b031660208501526080806040860152840190613b09565b9060608301520390a101610264565b0151905038806103c7565b906001840160005260206000209160005b601f19851681106104d157508360029360019b9a9896938c93600080516020614b4d8339815191529b9997601f198116106104b8575b505050811b01898201556103dd565b015160001960f88460031b161c191690553880806104a9565b91926020600181928685015181550194019201610473565b634e487b7160e01b600052604160045260246000fd5b604051634be9251d60e11b8152600490fd5b604051637e65935960e01b8152600490fd5b61054f61052e613b4f565b60405163015538b160e01b8152602060048201529182916024830190613b09565b0390fd5b634e487b7160e01b88526021600452602488fd5b8580fd5b8380fd5b5080fd5b50346101b857806003193601126101b857600080516020614b8d83398151915260018154146101a6578060018392556105aa611b8e565b6105b2613b2e565b6105ba614353565b5580f35b50346101b85760603660031901126101b8576001600160401b0360043581811161063a573660238201121561063a57610601903690602481600401359101611a74565b60443591821161063a573660238301121561063a5761062d610637923690602481600401359101611aca565b90602435906146ee565b80f35b8280fd5b50346101b857806003193601126101b8576001600160401b0360001981601c541601908111610670576106379061211b565b634e487b7160e01b82526011600452602482fd5b50346101b85760031960603682011261056f576001600160401b036004351161056f576080600435600401916004353603011261056f576024356001600160401b03811161063a576106da903690600401611a05565b91906044356001600160401b038111610a8a576106fb903690600401611a05565b91610704611b8e565b60055494600b54956107168782611bb9565b60246004350135141580610a7a575b610a68576040519061075d602083018361073f8a83611c94565b0393610753601f1995868101835282611992565b5190209882611bb9565b6004356024013503610965575050916107806107889261078e9697943691611a74565b933691611aca565b916146ee565b602460043501358252816020526040822090803560421960043536030181121561056b576004350191600483016001600160401b036107cc82611ce5565b16936001600160401b031994858454161783556107f26001926024848601930190611cf9565b91906001600160401b03831161095157600160401b8311610951578154838355808410610936575b509087959493929190865260208620865b83811061090f575050505050600480356024810135600284015560448101356003840155606401949101906001600160401b0361086786611ce5565b1690825416179055602460043501358252602260205261088b604083203390611e46565b5060043560240135600555600e546001600160a01b0316803b1561063a576040516347dc9b4f60e01b815291839183918290849082906108ce9060048301611c94565b03925af18015610904576108f0575b50506108eb61063791611ce5565b61211b565b6108f990611964565b61056f5781386108dd565b6040513d84823e3d90fd5b849596975060206109238495969394611d45565b848301558a98979695940192910161082b565b8289526020892061094b918101908501611d2e565b3861081a565b634e487b7160e01b88526041600452602488fd5b94509450505050602460043501351461097d57505080f35b60246004350135835282602052604083206040519060208201926020845260806040840152826101008101926001600160401b0381541660c083015260019081810191604060e085015282548096526101208401928a5260208a20908a5b878110610a47575050506002810154606084015260038101546080840152600401546001600160401b031660a0830152039081018352610a1c915082611992565b51902014610a275780f35b6024600435013581526022602052610a43604082203390611e46565b5080f35b82546001600160a01b031685528895506020909401939181019181016109db565b60405163fae4eadb60e01b8152600490fd5b5080602460043501351415610725565b8480fd5b50346101b857806003193601126101b857610aa7611b49565b610aaf611b8e565b600080516020614b6d833981519152600160ff198254161790557f5db9ee0a495bf2e6ff9c91a7834c1ba4fdd244a5e8aa4e537bd38aeae4b073aa6020604051338152a180f35b50346101b85760203660031901126101b857600435600080516020614b8d83398151915260018154146101a657600181558115610bc55760ff60125460081c16610bb357338352600360205281604084205410610ba1576105ba8392338452600360205260408420610b69828254612688565b9055610b7781600254612688565b6002553384526003602052604084205415610b93575b33613a3e565b610b9c33614a65565b610b8d565b60405163569d45cf60e11b8152600490fd5b604051631b39f2f360e11b8152600490fd5b604051631036b5ad60e31b8152600490fd5b5060203660031901126101b857600435906001600160401b0382116101b857366023830112156101b8576001600160401b038260040135116101b8576024368184600401358501011161056f576001600080516020614b8d83398151915254146101a6576001600080516020614b8d83398151915255610c55611b8e565b610c5d613b2e565b60ff60125460081c1680611136575b341561112457604184600401350361111257610c8e8460040135838601614a29565b336001600160a01b03909116036104ff57610f105733600090815260156020526040902060039390840190610cd18160040135610ccb8454611eeb565b84611fde565b83601f826004013511600114610e9b578385918360040135610e8e575b5050816004013560011b916000199060040135871b1c19161790555b610d143433613c07565b601454600a54811015610d3b575b505090505b80600080516020614b8d8339815191525580f35b61ffff601654166001600160401b03600c541611610d225761010061ff0019601254161760125560405193602085019060208652600154809252604086019160408160051b88010192600187527fb10e2d527612073b26eecdfd717e6a320cf44b4afac2b0732d9fcbe2b7fa0cf69287915b838310610e415750505050508484957f4914d88063275a25a13b2df37125e216745d812f94c56504be4bd78cf60c9593920390a160018060a01b03600e5416610df96002548093611bb9565b92813b15610a8a5784926040519485938492637903ab2760e11b845260048401525af1801561090457610e2d575b80610d22565b610e3690611964565b6101b8578038610e27565b9091929394602083610e7f6001938d603f1990820301865289548152848060a01b03858b015416848201526060908160408201520160028a01611f25565b97019201930191909392610dad565b8301013590508338610cee565b828552602085208592916004830135601f19165b808510610ef35760019450836004013511610ed5575b505060040135811b019055610d0a565b82018501356000196004840135891b60f8161c191690553880610ec5565b838201870135835560209485019460019093019290910190610eaf565b610f213684600401358386016119ce565b926001600160401b03601c5416604051610f3a81611977565b600281526020810195865233604082015281600052601d6020526040600020958151610f6581611ecb565b610f6e81611ecb565b60ff80198954169116178755519586516001600160401b0381116110fd57610fa681610f9d6001850154611eeb565b60018501611fde565b6020601f821160011461107b57908060029392600080516020614b4d833981519152999a600092611070575b50508160011b916000199060031b1c19161760018201555b0190604060018060a01b03910151166001600160601b0360a01b8254161790556001600160401b0361101b82612103565b166001600160401b0319601c541617601c556110586040519384936002855233602086015260806040860152608085019181600401359101613832565b9060608301520390a161106b3433613e18565b610d27565b015190503880610fd2565b6001830160005260206000209860005b601f19841681106110e5575091600080516020614b4d83398151915298996001926002959483601f198116106110cc575b505050811b016001820155610fea565b015160001960f88460031b161c191690553880806110bc565b828201518b556001909a01996020928301920161108b565b85634e487b7160e01b60005260416004526000fd5b6040516318dca5e960e21b8152600490fd5b604051635a78c58160e11b8152600490fd5b61113e614014565b610c6c565b50346101b857806003193601126101b857602060ff600080516020614b6d83398151915254166040519015158152f35b50346101b857806003193601126101b857600190600080516020614b8d833981519152828154146101a6578281556111a9611b8e565b336000908152601f602052604090209283549061ffff908183169283156112f557829060101c16918391808795818a01915b61126f575b50505086611251937f197c586353eaed0a1c53e6e540445b94befab8f932c8115d112115ecbeeed514959363ffff000093899a54911693849260101b169063ffffffff19161717905515611258575b6112398133613a3e565b60408051338152602081019290925290918291820190565b0390a15580f35b336000908152601f6020526040902085905561122f565b9091939483811696828810156112ec578760005260208091858252604060002060405161129b81611949565b898254928383520154938491015243106112e157859493889688946112c286958a95611bb9565b9c600052526000826040822082815501550116966000190116946111db565b9850505094936111e0565b965094936111e0565b6040516364b0557f60e01b8152600490fd5b5060603660031901126101b857604435600281101561056f57611328611b8e565b600e546001600160a01b03163303611349576106379060243560043561454b565b60405163e7e601db60e01b8152600490fd5b50346101b857806003193601126101b857611374613b2e565b61ffff61138a81601954168260165416906125de565b166113ea576012805462ff0000191662010000179055600e5481906001600160a01b0316803b15610194578180916004604051809481936341c0e1b560e01b83525af18015610904576113da5750f35b6113e390611964565b6101b85780f35b604051636b62255160e11b8152600490fd5b50346101b857806003193601126101b857611415611b49565b600080516020614b6d833981519152805460ff8116156114625760ff191690557f5db9ee0a495bf2e6ff9c91a7834c1ba4fdd244a5e8aa4e537bd38aeae4b073aa6020604051338152a180f35b604051638dfc202b60e01b8152600490fd5b50806003193601126101b857611488611b8e565b611490613b2e565b610637614029565b50346101b85760203660031901126101b8576004356001600160401b03811681036114c6576106379061211b565b600080fd5b50346101b85760203660031901126101b8576114e5611b8e565b6114ed613b2e565b610637600435614083565b50346101b85760031960603682011261056f576004356001600160401b039182821161056b5760608260040191833603011261056b57602435838111610a8a57611546903690600401611a05565b919060443585811161170757611560903690600401611a05565b91602486013596600654968789106116bc57604401906115808287611cf9565b919050600954168091116116f5576115988287611cf9565b90501415806116ce575b6116bc576115b09085611cf9565b9050156116aa57879460405160208101906115dd816115cf89856138bc565b03601f198101835282611992565b51902096880361160e57505050505050600754146115f9575080f35b81526023602052610a43604082203390611e46565b611628939261078088969893610788939a989a3691611a74565b80602060405161163781611949565b84815201528160065560075582526023602052611658604083203390611e46565b50600e546001600160a01b031690813b156101a257829161168f91604051948580948193630bed761560e01b8352600483016138bc565b03925af18015610904576116a1575080f35b61063790611964565b6040516338d2307f60e01b8152600490fd5b60405163200c52f760e21b8152600490fd5b5060085480156116e157880615156115a2565b634e487b7160e01b8a52601260045260248afd5b60405163351c700760e01b8152600490fd5b8680fd5b50346101b857602090816003193601126101b8576001600160401b039160043583811161063a573660238201121561063a576117519036906024816004013591016119ce565b9261175a611b8e565b3383526017825261ffff6040842054161561186a578351156118585733835260248252604083209184519182116118445761179f826117998554611eeb565b85611fde565b80601f83116001146117e057508394829394926117d5575b50508160011b916000199060031b1c19161790555b610a4333611ddd565b0151905038806117b7565b90601f198316958486528286209286905b88821061182c57505083600195969710611813575b505050811b0190556117cc565b015160001960f88460031b161c19169055388080611806565b806001859682949686015181550195019301906117f1565b634e487b7160e01b84526041600452602484fd5b604051637138356f60e01b8152600490fd5b604051633b4f6e2b60e21b8152336004820152602490fd5b90508160031936011261056f57341561193a575060ff60125460081c16610bb35733815260036020526040812054156118e1575b3381526003602052604081206118cd348254611bb9565b90556118db34600254611bb9565b60025580f35b600454600160401b811015611926576119038160016119219301600455611d59565b81546001600160a01b0360039290921b91821b19163390911b179055565b6118b6565b634e487b7160e01b82526041600452602482fd5b631036b5ad60e31b8152600490fd5b604081019081106001600160401b038211176104e957604052565b6001600160401b0381116104e957604052565b606081019081106001600160401b038211176104e957604052565b90601f801991011681019081106001600160401b038211176104e957604052565b6001600160401b0381116104e957601f01601f191660200190565b9291926119da826119b3565b916119e86040519384611992565b8294818452818301116114c6578281602093846000960137010152565b9181601f840112156114c6578235916001600160401b0383116114c6576020808501948460051b0101116114c657565b35906001600160401b03821682036114c657565b6001600160401b0381116104e95760051b60200190565b35906001600160a01b03821682036114c657565b9291611a7f82611a49565b91611a8d6040519384611992565b829481845260208094019160051b81019283116114c657905b828210611ab35750505050565b838091611abf84611a60565b815201910190611aa6565b92919092611ad784611a49565b91611ae56040519384611992565b829480845260208094019060051b8301928284116114c65780915b848310611b0f57505050505050565b82356001600160401b0381116114c657820184601f820112156114c6578691611b3e86838580953591016119ce565b815201920191611b00565b7f806e0cbb9fce296bbc336a48f42bf1dbc69722d18d90d6fe705b7582c2bb4bd5546001600160a01b03163303611b7c57565b6040516330cd747160e01b8152600490fd5b60ff600080516020614b6d8339815191525416611ba757565b60405163d93c066560e01b8152600490fd5b91908201809211611bc657565b634e487b7160e01b600052601160045260246000fd5b9035603e19823603018112156114c6570190565b9035601e19823603018112156114c65701602081359101916001600160401b0382116114c6578160051b360383136114c657565b60408201916001600160401b03611c3a83611a35565b1681526060611c4e60209384810190611bf0565b839195604086839601525201929160005b828110611c6d575050505090565b909192938280600192838060a01b03611c8589611a60565b16815201950193929101611c5f565b6020815260806001600160401b03611cde6060611cc4611cb48780611bdc565b85602088015260a0870190611c24565b956020810135604087015260408101358287015201611a35565b1691015290565b356001600160401b03811681036114c65790565b903590601e19813603018212156114c657018035906001600160401b0382116114c657602001918160051b360383136114c657565b818110611d39575050565b60008155600101611d2e565b356001600160a01b03811681036114c65790565b600454811015611d905760046000527f8a35acfbc15ff81a39ae7d344fd709f28e8600b4aa8c65c6b64bfe7fe36bd19b0190600090565b634e487b7160e01b600052603260045260246000fd5b602554811015611d905760256000527f401968ff42a154441da5f6c4c935ac46b8671f0e062baaa62a7545ba53bb6e4c0190600090565b600081815260266020526040812054611e4157602554600160401b811015611926579082611e2d611e1684600160409601602555611da6565b819391549060031b91821b91600019901b19161790565b905560255492815260266020522055600190565b905090565b91906001830160009082825280602052604082205415600014611ec557845494600160401b861015611eb15760018601808255861015611e9d57836040949596828552602085200155549382526020522055600190565b634e487b7160e01b83526032600452602483fd5b634e487b7160e01b83526041600452602483fd5b50925050565b60041115611ed557565b634e487b7160e01b600052602160045260246000fd5b90600182811c92168015611f1b575b6020831014611f0557565b634e487b7160e01b600052602260045260246000fd5b91607f1691611efa565b9060009291805491611f3683611eeb565b918282526001938481169081600014611f985750600114611f58575b50505050565b90919394506000526020928360002092846000945b838610611f84575050505001019038808080611f52565b805485870183015294019385908201611f6d565b9294505050602093945060ff191683830152151560051b01019038808080611f52565b60005b838110611fce5750506000910152565b8181015183820152602001611fbe565b9190601f8111611fed57505050565b612019926000526020600020906020601f840160051c8301931061201b575b601f0160051c0190611d2e565b565b909150819061200c565b908082146120ff576120378154611eeb565b906001600160401b0382116104e957819061205c826120568654611eeb565b86611fde565b600090601f831160011461209357600092612088575b50508160011b916000199060031b1c1916179055565b015490503880612072565b81526020808220858352818320935090601f1985169083905b8282106120e65750509084600195949392106120cd575b505050811b019055565b015460001960f88460031b161c191690553880806120c3565b84958192958501548155600180910196019401906120ac565b5050565b9060016001600160401b0380931601918211611bc657565b601c546001600160401b03828116929080831684106121465760405163040aaa0560e11b8152600490fd5b808360401c168410611f525780604093841c165b8482821611156121c1575050916020916121947f246f00b61ce672242f33bb680a47147cd54d3dfd04dbb76956ba42f88087bf6394612103565b67ffffffffffffffff60401b601c5491831b169067ffffffffffffffff60401b191617601c5551908152a1565b816121df826001600160401b0316600052601d602052604060002090565b6002808201548254929491926001600160a01b03918216919060ff1661220481611ecb565b8085036122765750506003612235600161223b94959697019260018060a01b03166000526015602052604060002090565b01612025565b612258816001600160401b0316600052601d602052604060002090565b9160009081845560019361226d858201612695565b0155011661215a565b9091945061228381611ecb565b6003918183036124215750508751936122ab856122a4816001809a01611f25565b0386611992565b84518501916020928a878583019203126114c657838701518981116114c65787019681603f890112156114c65787858d990151926122f46122eb856119b3565b9a519a8b611992565b838a528d84830101116114c6578c926123129184888c019101611fbb565b015192816123328460018060a01b03166000526015602052604060002090565b01918751918a831161240c578a986123548461234e8754611eeb565b87611fde565b81601f851160011461239957506123899798999a849392849260009561238e575b50501b92600019911b1c19161790556125f4565b61223b565b015193503880612375565b91601f9b9493919b1984169b866000528c84600020946000915b82106123f1575050846123899a9b9c9d106123d7575b50505050811b0190556125f4565b01519060f884600019921b161c19169055388080806123c9565b8383015186558f9d509487019492830192908101908e6123b3565b60246000634e487b7160e01b81526041600452fd5b9150919388959395519361243d856122a4816001809501611f25565b602080868051810103126114c65781818c9701519561245b81611ecb565b0361258057849061246c82856126de565b601e546124799043611bb9565b9287519061248682611949565b8482528282018481526001600160a01b0387166000908152601f602052604090209091909283549161ffff9384848180961695869160101c16906124c9916125de565b169c60009d8e5282870188528d2092518355519101556124e8906125cb565b1661ffff198254161790558b519384528301528982015260607f083b080788e20bd0930c2bca2ae4fbc51a59ced08c1b5992271f8cb439498a6391a1600e541690813b1561063a578291602483928a5195869384926345f5448560e01b845260048401525af190811561257557509084939291612566575b5061223b565b61256f90611964565b38612560565b8751903d90823e3d90fd5b5050829350916125909192612638565b600e541690813b156114c6578651916316989f6f60e21b83528260048160009485945af190811561257557509084939291612566575061223b565b90600161ffff80931601918211611bc657565b91909161ffff80809416911601918211611bc657565b9060018060a01b03821660005260156020526040600020818154915581811460001461261f57505050565b81111561262f576120199161276d565b61201991612ab3565b906120199161268060018060a01b0382169283600052601560205261266581600160406000200154611bb9565b93600052601560205283600160406000200155601454611bb9565b60145561276d565b91908203918211611bc657565b61269f8154611eeb565b90816126a9575050565b81601f600093116001146126bb575055565b9080839182526126da601f60208420940160051c840160018501611d2e565b5555565b9061274b6127539260018060a01b038116906000828152601560205261270b856001604084200154612688565b9281526015602052604081206002810184815481159081612764575b5015612758575090826003926127469483558160018401555501612695565b612ab3565b601454612688565b601455565b92505060010155612ab3565b90501538612727565b919060018060a01b03928381166000948186526020916017835261ffff9160409783898220541661299e578360135460081c1684601654161061296a576127b26135c0565b60019283825260188652828a83205416886127cc82612e9e565b106128e457508152601a855283898220541661283b5750505050506128367f19fe3ca603e87854a0747cc10abf06bac64d61bac73d6d15f2fd3ca448f15264939461281683612e29565b516001600160a01b03909216825260208201929092529081906040820190565b0390a1565b61284486613613565b9261284e87612e9e565b935b81868216116128a6575b505097516001600160a01b0390951685525050505060208101919091529091507fda148fac2e1063174be7bc0895576bdaba90fd14e575463fa26a967cb895cadd908060408101612836565b80856128c586617fff8f95871c1694858852601b8c5287205416612e9e565b10156128de57906128d7839282613772565b9050612850565b5061285a565b969750899493507ffaeb8de771b867cf357f6b459a7002b62ec45d544a8078a3ecd91200cc826d759899925061283695601a9161291f6132b8565b83525220541661295c575b61293384613243565b61293c83612e29565b516001600160a01b03928316815292909116602083015281906040820190565b61296584613068565b61292a565b50505050506128367f2e8038f5812f763c6ef0c5427cb5a05ce6d7064af2ba7d1d270bc02660b019fd939461281683613243565b979291506129af85949796956135dc565b976129b985612e9e565b976129c38a6131d4565b8460165416905b858116828111612a7c5782811015612a605750806129ea6129f0926125cb565b90613570565b9b909b5b8b1115612a1357612a05908c6136d9565b612a0e8b6131d4565b6129ca565b505093516001600160a01b0390951685525050505060208101919091529092507f143db27bc2036653dc6f962ff9d0b803163d4af50c256ca9e6927b3d6dcd019791508060408101612836565b849c919c5260188352612a77858886205416612e9e565b6129f4565b5050505050505061283691929395507f143db27bc2036653dc6f962ff9d0b803163d4af50c256ca9e6927b3d6dcd01979450612816565b909160018060a01b0392838316906000938285526020601a815261ffff95604094878683205416612ced578082526017835287868320541615612cdc578415612c345750612b00836135dc565b97612b0a84612e9e565b985b6001808a83161115612c255781617fff911c1690818452601885528a612b36848a87205416612e9e565b1115612b4b57612b4690826136d9565b612b0c565b505091939597509193955b6019541615612c1d57612b676135c0565b60018252601883528581818420541692601b612b8285612e9e565b95612b8b6135ce565b600183525220541691612b9d83612e9e565b11612be457505091516001600160a01b03909216825260208201527f143db27bc2036653dc6f962ff9d0b803163d4af50c256ca9e6927b3d6dcd0197908060408101612836565b915091506128367ffaeb8de771b867cf357f6b459a7002b62ec45d544a8078a3ecd91200cc826d7593612c156132b8565b61292a612f01565b505050505050565b50509193959750919395612b56565b829450612c687f4a4c5d1a281180eea1e99d8177fa4798b9f7e019d5c57e7d8d73c6a22199aa5b9392989499969799613401565b8651908152a160195416612c7c5750505050565b7f2e8038f5812f763c6ef0c5427cb5a05ce6d7064af2ba7d1d270bc02660b019fd93601b8492612caa6135ce565b6001835252205416612cd0612cbe82612e9e565b92612cc7612f01565b61281683613243565b0390a138808080611f52565b8551632a55ca5360e01b8152600490fd5b84969792939598919415612dee575061fffe9193612d0a86613613565b93612d1487612e9e565b9480966001958692831b168160195416925b612d7a575b505099516001600160a01b039097168752505050506020830193909352509192507fda148fac2e1063174be7bc0895576bdaba90fd14e575463fa26a967cb895cadd9190508060408101612836565b818116838111612de8578d9084811015612dcc57505080612d9d612da3926125cb565b906131eb565b9890985b881015612dc757612db89089613772565b612dc1886131d4565b86612d26565b612d2b565b8652601b8552852054909890612de3908716612e9e565b612da7565b50612d2b565b94915050612e229194507f3168ba660eed6ef1dc2258b2247cc05fd0f2f350d39e6ad2e2ebc76a8000b40b95969250613068565b51908152a1565b61201990612e9861ffff91612e4183601954166125cb565b9260018060a01b0382169081600052601a60205260406000209085169161ffff1991838382541617905582600052601b6020526040600020906001600160601b0360a01b8254161790556019541617601955612e9e565b9061317f565b60ff601354166003811015611ed557600103612ecf576001600160a01b031660009081526015602052604090205490565b6001600160a01b031660009081526015602052604090206001015490565b61ffff9081166000190191908211611bc657565b61ffff80601954169081156130565790600190612f20818311156136bc565b6000828152601b60208181526040808420805486865282862080546001600160a01b03928316808952601a8752858920805461ffff199081168c17909155918416808a52868a20805484168d17905588885283546001600160a01b03199081169092179093558a895284541690911790925592958795939492939291612fba91908a612fab83612eed565b16906019541617601955613638565b848252808652612fce848484205416612e9e565b95859860028160195416995b612fec575b5050505050505050505050565b8181168a8111613050578a811015613035575080612d9d61300c926125cb565b9a909a5b89101561303057613021908b613772565b61302a8a6131d4565b87612fda565b612fdf565b859b919b5283835261304b878787205416612e9e565b613010565b50612fdf565b6040516340d9b01160e01b8152600490fd5b61307190613613565b61ffff908160195416916130858383613772565b8061308f84612eed565b1661ffff1960195416176019556130a583613638565b80821680931461317a579161fffe91600091808352601b9060209382855260018060a01b03926040926130e56130df868686205416612e9e565b8761317f565b82528086526130f8848484205416612e9e565b9585986001988997881b168160195416995b61311b575050505050505050505050565b8181168a8111613050578a81101561315f575080612d9d61313b926125cb565b9a909a5b89101561303057613150908b613772565b6131598a6131d4565b8761310a565b859b919b52838352613175878787205416612e9e565b61313f565b505050565b9190915b60018061ffff831611156131ce5781617fff911c1690836131b96000848152601b602052604060018060a01b0391205416612e9e565b10156131ce576131c99082613772565b613183565b50509050565b60011b906201fffe61fffe831692168203611bc657565b91909161ffff92838216600052601b60205261322e60018060a01b036132178160406000205416612e9e565b958316600052601b60205260406000205416612e9e565b9081851061323c5750509190565b9350919050565b612019906132b261ffff9161325b83601654166125cb565b9260018060a01b0382169081600052601760205260406000209085169161ffff199183838254161790558260005260186020526040600020906001600160601b0360a01b8254161790556016541617601655612e9e565b90613521565b61ffff806016541690811561305657906001906132d7818311156136bc565b6000828152601860208181526040808420805486865282862080546001600160a01b0392831680895260178752858920805461ffff199081168c17909155918416808a52868a20805484168d17905588885283546001600160a01b03199081169092179093558a89528454169091179092559295879593949293929161337191908a61336283612eed565b1690601654161760165561367a565b848252808652613385848484205416612e9e565b95859860028160165416995b6133a2575050505050505050505050565b8181168a8111613050578a8110156133e65750806129ea6133c2926125cb565b9a909a5b891115613030576133d7908b6136d9565b6133e08a6131d4565b87613391565b859b919b528383526133fc878787205416612e9e565b6133c6565b61340a906135dc565b9061ffff9081601654169061341f82856136d9565b8261342983612eed565b1661ffff19601654161760165561343f8261367a565b82841680921461351b5760009291929183835260189260209484865260018060a01b039160409161347d613477858585205416612e9e565b8a613521565b8152858752613490838383205416612e9e565b9561349a896131d4565b978560165416985b8681168a811161350d578a8110156134f25750806129ea6134c2926125cb565b9a909a5b8911156134e5576134d7908b6136d9565b6134e08a6131d4565b6134a2565b5050505050505092505050565b849b919b52828252613508868686205416612e9e565b6134c6565b505050505050505092505050565b92505050565b9190915b60018061ffff831611156131ce5781617fff911c16908361355b60008481526018602052604060018060a01b0391205416612e9e565b11156131ce5761356b90826136d9565b613525565b919061ffff80841660005260186020526135b160018060a01b0361359a8160406000205416612e9e565b928416600052601860205260406000205416612e9e565b938482111561323c5750509190565b61ffff601654161561305657565b61ffff601954161561305657565b6001600160a01b031660009081526017602052604090205461ffff1690811561360157565b60405163f2755e3760e01b8152600490fd5b6001600160a01b03166000908152601a602052604090205461ffff1690811561360157565b61ffff166000908152601b6020908152604080832080546001600160a01b031981169091556001600160a01b03168352601a9091529020805461ffff19169055565b61ffff16600090815260186020908152604080832080546001600160a01b031981169091556001600160a01b0316835260179091529020805461ffff19169055565b156136c357565b634e487b7160e01b600052600160045260246000fd5b6136fe61ffff8080601654169316936136f4848611156136bc565b16918211156136bc565b6000828152601860208181526040808420805486865282862080546001600160a01b0392831680895260178752858920805461ffff19908116909b1790559216808852938720805490981689179097559390925284546001600160a01b031990811690931790945593909152825416179055565b61378d61ffff8080601954169316936136f4848611156136bc565b6000828152601b60208181526040808420805486865282862080546001600160a01b03928316808952601a8752858920805461ffff19908116909b1790559216808852938720805490981689179097559390925284546001600160a01b031990811690931790945593909152825416179055565b9035601e19823603018112156114c65701602081359101916001600160401b0382116114c65781360383136114c657565b908060209392818452848401376000828201840152601f01601f1916010190565b61387c6138716138638380611bdc565b604085526040850190611c24565b916020810190611bdc565b91602081830391015281359160ff83168093036114c6576138a96040916138b99484526020810190613801565b9190928160208201520191613832565b90565b60208082526138cb8380611bdc565b60609182818501526138e260809283860190611c24565b6138f9604096838101358888015287810190611bf0565b939096601f199686888286030191015284835283830191848660051b8501019880986000955b88871061393457505050505050505050505090565b909192939495969798999a828282030187526139508c85611bdc565b90813560de19833603018112156114c6578782528201918a90888e6001600160401b036139c76139b76139a461399b6139898b80611bdc565b60e080988c01526101208b0190613853565b978a018a611bdc565b96603f1997888a830301868b0152613853565b928d8901358d8901528801611a35565b169060a091828701528a8701359263ffffffff60e01b84168094036114c6578f956139fe613a0e9460c096878b01528a018a613801565b9290918985030190890152613832565b9401356101008401520135908115158092036114c6578a01529a880199989796600101958701949392919061391f565b814710613aa0576000918291829182916001600160a01b03165af13d15613a9b573d613a69816119b3565b90613a776040519283611992565b8152600060203d92013e5b15613a8957565b604051630a12f52160e11b8152600490fd5b613a82565b60405163cd78605960e01b8152306004820152602490fd5b9190811015611d905760051b81013590601e19813603018212156114c65701908135916001600160401b0383116114c65760200182360381136114c6579190565b9190811015611d905760051b0190565b90602091613b2281518092818552858086019101611fbb565b601f01601f1916010190565b60ff60125460101c16613b3d57565b60405163248c8efb60e11b8152600490fd5b60405190608082018281106001600160401b038211176104e9576040526045825264185c1c195960da1b6060837f4d6574686f64206e6f7420616c6c6f776564206966207065726d697373696f6e60208201527f656420697320656e61626c656420616e64207375626e657420626f6f7473747260408201520152565b600154811015611d90576003906001600052027fb10e2d527612073b26eecdfd717e6a320cf44b4afac2b0732d9fcbe2b7fa0cf60190600090565b90613c1c90613c168184613df1565b82612638565b60ff60125460081c1615613c2d5750565b60018054600082815b838110613dc0575b505015613c4a57505050565b6001600160a01b038316600090815260156020526040902082810154613ca094909160030160405192613c7c84611977565b8352602093613ca78585019260018060a01b03809516845260405198898092611f25565b0388611992565b60408401968752600160401b8110156104e9578086613cc892018755613bcc565b929092613daa576002935183558583019151166001600160601b0360a01b825416179055019251908151916001600160401b0383116104e957613d0f8361234e8754611eeb565b81601f8411600114613d485750928293918392600094613d3d575b50501b916000199060031b1c1916179055565b015192503880613d2a565b919083601f1981168760005284600020946000905b88838310613d905750505010613d7757505050811b019055565b015160001960f88460031b161c191690553880806120c3565b858701518855909601959485019487935090810190613d5d565b634e487b7160e01b600052600060045260246000fd5b81613dca82613bcc565b5001546001600160a01b03878116911614613de757018390613c36565b5090508238613c3e565b60018060a01b03166000526015602052613e146002604060002001918254611bb9565b9055565b91906040519281602085015260208452613e3184611949565b6001600160401b03601c54169360405194613e4b86611977565b60008652602086019582875260018060a01b038416604082015281600052601d6020526040600020968151613e7f81611ecb565b613e8881611ecb565b60ff80198a54169116178855519687516001600160401b0381116104e957613eb781610f9d6001850154611eeb565b6020601f8211600114613f8957613f70949282600080516020614b4d8339815191529795936002936120199c9d600092613f7e575b50508160011b916000199060031b1c19161760018201555b0190604060018060a01b03910151166001600160601b0360a01b8254161790556001600160401b03613f3582612103565b166001600160401b0319601c541617601c556040519283926000845260018060a01b0387166020850152608060408501526080840190613b09565b9060608301520390a1613df1565b015190503880613eec565b6001830160005260206000209960005b601f1984168110613ffc5750926001836120199b9c600294613f709997600080516020614b4d8339815191529b9997601f19811610613fe3575b505050811b016001820155613f04565b015160001960f88460031b161c19169055388080613fd3565b828201518c556001909b019a60209283019201613f99565b60ff601354166003811015611ed55761052357565b614031614014565b34156111245733600090815260156020526040902060020154156140715760ff60125460081c1615614067576120193433613e18565b6120193433613c07565b60405163528fc16560e01b8152600490fd5b61408b614014565b80156140f25733600090815260156020526040902060020154801561186a578110156140e15760ff60125460081c16156140c9576120199033614157565b806140d76120199233614104565b610b8d81336126de565b60405162d11df360e61b8152600490fd5b60405163c79cad7b60e01b8152600490fd5b6001600160a01b031660008181526015602052604090206002015490918082106141455761413191612688565b906000526015602052600260406000200155565b60405163ac69360360e01b8152600490fd5b9190604051928160208501526020845261417084611949565b6001600160401b03601c5416936040519461418a86611977565b60018652602086019582875260018060a01b038416604082015281600052601d60205260406000209681516141be81611ecb565b6141c781611ecb565b60ff80198a54169116178855519687516001600160401b0381116104e9576141f681610f9d6001850154611eeb565b6020601f82116001146142c8576142af949282600080516020614b4d8339815191529795936002936120199c9d6000926142bd575b50508160011b916000199060031b1c19161760018201555b0190604060018060a01b03910151166001600160601b0360a01b8254161790556001600160401b0361427482612103565b166001600160401b0319601c541617601c556040519283926001845260018060a01b0387166020850152608060408501526080840190613b09565b9060608301520390a1614104565b01519050388061422b565b6001830160005260206000209960005b601f198416811061433b5750926001836120199b9c6002946142af9997600080516020614b4d8339815191529b9997601f19811610614322575b505050811b016001820155614243565b015160001960f88460031b161c19169055388080614312565b828201518c556001909b019a602092830192016142d8565b60ff60125460081c16614440575b33600090815260156020526040902060020154801561186a576143833361444d565b506000903382526024602052816040812061439e8154611eeb565b80614403575b50505060ff60125460081c16156143c057612019915033614157565b60406120199233815260036020522054806143e1575b506140d78133614104565b806143f16143fd92600254612688565b600255610b8d33614a65565b386143d6565b82601f821160011461441b575050555b8138806143a4565b9091808252614439601f60208420940160051c840160018501611d2e565b5555614413565b614448614014565b614361565b6000818152602660205260408120549091908015614532576000199080820181811161451e576025549083820191821161450a578082036144d6575b50505060255480156144c2578101906144a182611da6565b909182549160031b1b19169055602555815260266020526040812055600190565b634e487b7160e01b84526031600452602484fd5b6144f46144e5611e1693611da6565b90549060031b1c928392611da6565b9055845260266020526040842055388080614489565b634e487b7160e01b86526011600452602486fd5b634e487b7160e01b85526011600452602485fd5b505090565b8051821015611d905760209160051b010190565b919091821561317a576040908151906020938483018381106001600160401b038211176104e957845260009283905260028110156146da578061463b5750600b5461459591612688565b8152602283528181208251808286829454938481520190855286852092855b88828210614625575050506145cb92500382611992565b928351948515612c1d57858110612c1d5785900493825b8681106145f25750505050505050565b6001906001600160a01b036146078285614537565b511685526021845285852061461d888254611bb9565b9055016145e2565b85548452600195860195879550930192016145b4565b84600185921460001461468b57606491519063015538b160e01b82526004820152601f60248201527f72657761726473206e6f7420646566696e656420666f722062617463686573006044820152fd5b608491519063015538b160e01b82526004820152602360248201527f72657761726473206e6f7420646566696e656420666f72206f626a656374206b6044820152621a5b9960ea1b6064820152fd5b634e487b7160e01b83526021600452602483fd5b918251916146fb83611a49565b9360409461470b86519182611992565b848152601f1961471a86611a49565b0194602095368784013760005b8181106147f157505060009461ffff8060165416600192839182945b6147a0575b505050505060ff600e5460a01c1694858102958187041490151715611bc6576064614774950491614868565b901561477e575050565b6006811015611ed55760ff602492519163282ef1c160e01b8352166004820152fd5b90919293988a858b168381116147e957600090815260188552205484939291869185916147df916147d9906001600160a01b0316612e9e565b90611bb9565b9b01169493614743565b505098614748565b6001600160a01b03806148048387614537565b51166000526017885261ffff89600020541615614844579061483360019261482c8388614537565b5116612e9e565b61483d8286614537565b5201614727565b889061485260249387614537565b519151633b4f6e2b60e21b815291166004820152fd5b845192946000949084156149505782518514801590614945575b614938579392919085945b8486106148b05750505050505010156148a857600090600590565b600190600090565b9091929394956148ca6148c38884614537565b518461495d565b506148d481611ecb565b614927576001600160a01b03806148eb8a88614537565b51169116036149175761490b6001916149048988614537565b5190611bb9565b9601949392919061488d565b5050505050505050600090600390565b505050505050505050600090600490565b5050505050905090600190565b508351851415614882565b5050505050905090600290565b815191906041830361498e5761498792506020820151906060604084015193015160001a90614999565b9192909190565b505060009160029190565b91907f7fffffffffffffffffffffffffffffff5d576e7357a4501ddfe92f46681b20a08411614a1d57926020929160ff608095604051948552168484015260408301526060820152600092839182805260015afa15614a115780516001600160a01b03811615614a0857918190565b50809160019190565b604051903d90823e3d90fd5b50505060009160039190565b90614a36604182146136bc565b806001116114c657614a5191369160001901906001016119ce565b80516020909101206001600160a01b031690565b60049081549160005b838110614a7b5750505050565b614a8481611d59565b90546003916001600160a01b039190831b1c811685821614614aaa575050600101614a6e565b929350939060001991828101908111614b375790614adb84614ace614afa94611d59565b905490891b1c1691611d59565b90919082549060031b9160018060a01b03809116831b921b1916179055565b82548015614b22570192614b0d84611d59565b81939154921b1b191690555538808080611f52565b603184634e487b7160e01b6000525260246000fd5b601185634e487b7160e01b6000525260246000fdfe1c593a2b803c3f9038e8b6743ba79fbc4276d2770979a01d2768ed12bea3243fc451c9429c27db68f286ab8a68f311f1dccab703ba9423aed29cd397ae63f863691bb03ffc16c56fc96b82fd16cd1b3715f0bc3cdc6407005f49bb6205860095a2646970667358221220c312876e66de44ce3c9b54a4b0aef9c8def8f62ab3f10846b5ea1be841390b3964736f6c63430008130033","linkReferences":{"src/lib/LibStaking.sol":{"LibStaking":[{"start":337,"length":20}]}}},"methodIdentifiers":{"addBootstrapNode(string)":"10fd4261","claim()":"4e71d92d","claimRewardForRelayer()":"ed7c4da1","confirmChange(uint64)":"350a14bf","confirmNextChange()":"c7ebdaef","distributeRewardToRelayers(uint256,uint256,uint8)":"4c860af6","join(bytes)":"6170b162","kill()":"41c0e1b5","leave()":"d66d9e19","pause()":"8456cb59","paused()":"5c975abb","preFund()":"0b7fbe60","preRelease(uint256)":"66783c9b","setFederatedPower(address[],bytes[],uint256[])":"da5d09ee","stake()":"3a4b66f1","submitBottomUpMsgBatch(((uint64,address[]),uint256,((((uint64,address[]),(uint8,bytes)),((uint64,address[]),(uint8,bytes)),uint256,uint64,bytes4,bytes,uint256),bool)[]),address[],bytes[])":"26811936","submitCheckpoint(((uint64,address[]),uint256,bytes32,uint64),address[],bytes[])":"b9ee2bb9","unpause()":"3f4ba83a","unstake(uint256)":"2e17de78","validateActiveQuorumSignatures(address[],bytes32,bytes[])":"cc2dc2b9"},"id":89}