{"abi":[{"type":"function","name":"addBootstrapNode","inputs":[{"name":"netAddress","type":"string","internalType":"string"}],"outputs":[],"stateMutability":"nonpayable"},{"type":"function","name":"claim","inputs":[],"outputs":[],"stateMutability":"nonpayable"},{"type":"function","name":"claimRewardForRelayer","inputs":[],"outputs":[],"stateMutability":"nonpayable"},{"type":"function","name":"confirmChange","inputs":[{"name":"_configurationNumber","type":"uint64","internalType":"uint64"}],"outputs":[],"stateMutability":"nonpayable"},{"type":"function","name":"confirmNextChange","inputs":[],"outputs":[],"stateMutability":"nonpayable"},{"type":"function","name":"distributeRewardToRelayers","inputs":[{"name":"height","type":"uint256","internalType":"uint256"},{"name":"reward","type":"uint256","internalType":"uint256"}],"outputs":[],"stateMutability":"payable"},{"type":"function","name":"join","inputs":[{"name":"publicKey","type":"bytes","internalType":"bytes"}],"outputs":[],"stateMutability":"payable"},{"type":"function","name":"kill","inputs":[],"outputs":[],"stateMutability":"nonpayable"},{"type":"function","name":"leave","inputs":[],"outputs":[],"stateMutability":"nonpayable"},{"type":"function","name":"preFund","inputs":[],"outputs":[],"stateMutability":"payable"},{"type":"function","name":"preRelease","inputs":[{"name":"amount","type":"uint256","internalType":"uint256"}],"outputs":[],"stateMutability":"nonpayable"},{"type":"function","name":"setFederatedPower","inputs":[{"name":"validators","type":"address[]","internalType":"address[]"},{"name":"publicKeys","type":"bytes[]","internalType":"bytes[]"},{"name":"powers","type":"uint256[]","internalType":"uint256[]"}],"outputs":[],"stateMutability":"nonpayable"},{"type":"function","name":"stake","inputs":[],"outputs":[],"stateMutability":"payable"},{"type":"function","name":"submitCheckpoint","inputs":[{"name":"checkpoint","type":"tuple","internalType":"struct BottomUpCheckpoint","components":[{"name":"subnetID","type":"tuple","internalType":"struct SubnetID","components":[{"name":"root","type":"uint64","internalType":"uint64"},{"name":"route","type":"address[]","internalType":"address[]"}]},{"name":"blockHeight","type":"uint256","internalType":"uint256"},{"name":"blockHash","type":"bytes32","internalType":"bytes32"},{"name":"nextConfigurationNumber","type":"uint64","internalType":"uint64"}]},{"name":"signatories","type":"address[]","internalType":"address[]"},{"name":"signatures","type":"bytes[]","internalType":"bytes[]"}],"outputs":[],"stateMutability":"nonpayable"},{"type":"function","name":"unstake","inputs":[{"name":"amount","type":"uint256","internalType":"uint256"}],"outputs":[],"stateMutability":"nonpayable"},{"type":"function","name":"validateActiveQuorumSignatures","inputs":[{"name":"signatories","type":"address[]","internalType":"address[]"},{"name":"hash","type":"bytes32","internalType":"bytes32"},{"name":"signatures","type":"bytes[]","internalType":"bytes[]"}],"outputs":[],"stateMutability":"view"},{"type":"event","name":"BottomUpCheckpointExecuted","inputs":[{"name":"epoch","type":"uint256","indexed":false,"internalType":"uint256"},{"name":"submitter","type":"address","indexed":false,"internalType":"address"}],"anonymous":false},{"type":"event","name":"BottomUpCheckpointSubmitted","inputs":[{"name":"checkpoint","type":"tuple","indexed":false,"internalType":"struct BottomUpCheckpoint","components":[{"name":"subnetID","type":"tuple","internalType":"struct SubnetID","components":[{"name":"root","type":"uint64","internalType":"uint64"},{"name":"route","type":"address[]","internalType":"address[]"}]},{"name":"blockHeight","type":"uint256","internalType":"uint256"},{"name":"blockHash","type":"bytes32","internalType":"bytes32"},{"name":"nextConfigurationNumber","type":"uint64","internalType":"uint64"}]},{"name":"submitter","type":"address","indexed":false,"internalType":"address"}],"anonymous":false},{"type":"event","name":"NextBottomUpCheckpointExecuted","inputs":[{"name":"epoch","type":"uint256","indexed":false,"internalType":"uint256"},{"name":"submitter","type":"address","indexed":false,"internalType":"address"}],"anonymous":false},{"type":"event","name":"SubnetBootstrapped","inputs":[{"name":"","type":"tuple[]","indexed":false,"internalType":"struct Validator[]","components":[{"name":"weight","type":"uint256","internalType":"uint256"},{"name":"addr","type":"address","internalType":"address"},{"name":"metadata","type":"bytes","internalType":"bytes"}]}],"anonymous":false},{"type":"error","name":"AddressInsufficientBalance","inputs":[{"name":"account","type":"address","internalType":"address"}]},{"type":"error","name":"AddressShouldBeValidator","inputs":[]},{"type":"error","name":"CannotConfirmFutureChanges","inputs":[]},{"type":"error","name":"CannotReleaseZero","inputs":[]},{"type":"error","name":"CollateralIsZero","inputs":[]},{"type":"error","name":"EmptyAddress","inputs":[]},{"type":"error","name":"FailedInnerCall","inputs":[]},{"type":"error","name":"InvalidCheckpointEpoch","inputs":[]},{"type":"error","name":"InvalidFederationPayload","inputs":[]},{"type":"error","name":"InvalidPublicKeyLength","inputs":[]},{"type":"error","name":"InvalidSignatureErr","inputs":[{"name":"","type":"uint8","internalType":"uint8"}]},{"type":"error","name":"MethodNotAllowed","inputs":[{"name":"reason","type":"string","internalType":"string"}]},{"type":"error","name":"NoCollateralToWithdraw","inputs":[]},{"type":"error","name":"NotAllValidatorsHaveLeft","inputs":[]},{"type":"error","name":"NotEnoughBalance","inputs":[]},{"type":"error","name":"NotEnoughCollateral","inputs":[]},{"type":"error","name":"NotEnoughFunds","inputs":[]},{"type":"error","name":"NotGateway","inputs":[]},{"type":"error","name":"NotOwner","inputs":[]},{"type":"error","name":"NotOwnerOfPublicKey","inputs":[]},{"type":"error","name":"NotStakedBefore","inputs":[]},{"type":"error","name":"NotValidator","inputs":[{"name":"","type":"address","internalType":"address"}]},{"type":"error","name":"PQDoesNotContainAddress","inputs":[]},{"type":"error","name":"PQEmpty","inputs":[]},{"type":"error","name":"ReentrancyError","inputs":[]},{"type":"error","name":"SubnetAlreadyBootstrapped","inputs":[]},{"type":"error","name":"SubnetAlreadyKilled","inputs":[]},{"type":"error","name":"WithdrawExceedingCollateral","inputs":[]}],"bytecode":{"object":"0x60808060405234610016576145d2908161001c8239f35b600080fdfe608080604052600436101561001357600080fd5b600090813560e01c9081630b7fbe601461152d5750806310fd4261146113be5780632e17de7814611399578063350a14bf1461136b5780633a4b66f11461134f57806341c0e1b5146112b55780634e71d92d1461112957806350fd8969146110ea5780636170b16214610b8657806366783c9b14610aa5578063b9ee2bb914610683578063c7ebdaef1461063d578063cc2dc2b9146105bd578063d66d9e191461057a578063da5d09ee146101875763ed7c4da1146100d157600080fd5b3461018457806003193601126101845760008051602061457d83398151915260018154146101725780600183925573__$4a8700ca5e162cb61a0c4650a4871f1ad5$__803b1561016e5782602491604051928380926382985e0b60e01b82523360048301525af490811561016357839161014c575b50505580f35b610155906115f4565b610160578138610146565b50fd5b6040513d85823e3d90fd5b5050fd5b6040516329f745a760e01b8152600490fd5b80fd5b5034610184576060366003190112610184576004356001600160401b038111610576576101b89036906004016116c9565b906024356001600160401b038111610572576101d89036906004016116c9565b916044356001600160401b03811161056e576101f89036906004016116c9565b9094610202613615565b7f806e0cbb9fce296bbc336a48f42bf1dbc69722d18d90d6fe705b7582c2bb4bd5546001600160a01b0316330361055c5760ff600f5416600281101561054857600103610518578181036105065784810361050657865b818110610264578780f35b61027861027282888861357e565b90614439565b6001600160a01b0361029361028e8486896135bf565b61191b565b166001600160a01b03909116036104f4576102fd6102b561028e8385886135bf565b6102c083898961357e565b6102ce85888d9694966135bf565b356102e96040519586936040602086015260608501916135cf565b90604083015203601f19810184528361163d565b6001600160401b036018541660405161031581611622565b600381526020810184815260018060a01b0384166040830152826000526019602052604060002090825161034881611aa1565b61035181611aa1565b60ff80198454169116178255518051906001600160401b0382116104de57610389826103806001860154611ac1565b60018601611bb4565b602090601f831160011461045757928260008051602061455d83398151915297959360029360019b9a989660009261044c575b5050600019600383901b1c1916908a1b17818a01555b01906040888060a01b03910151166001600160601b0360a01b8254161790556001600160401b0361040282611cd9565b166001600160401b0319601854161760185561043d60405193849360038552888060a01b0316602085015260808060408601528401906135f0565b9060608301520390a101610259565b0151905038806103bc565b906001840160005260206000209160005b601f19851681106104c657508360029360019b9a9896938c9360008051602061455d8339815191529b9997601f198116106104ad575b505050811b01898201556103d2565b015160001960f88460031b161c1916905538808061049e565b91926020600181928685015181550194019201610468565b634e487b7160e01b600052604160045260246000fd5b604051634be9251d60e11b8152600490fd5b604051637e65935960e01b8152600490fd5b610544610523613636565b60405163015538b160e01b81526020600482015291829160248301906135f0565b0390fd5b634e487b7160e01b88526021600452602488fd5b6040516330cd747160e01b8152600490fd5b8580fd5b8380fd5b5080fd5b503461018457806003193601126101845760008051602061457d8339815191526001815414610172578060018392556105b1613615565b6105b9613e3a565b5580f35b5034610184576060366003190112610184576001600160401b03600435818111610639573660238201121561063957610600903690602481600401359101611724565b60443591821161063957366023830112156106395761062c61063692369060248160040135910161177a565b90602435906140fe565b80f35b8280fd5b50346101845780600319360112610184576001600160401b0360001981601854160190811161066f5761063690611cf1565b634e487b7160e01b82526011600452602482fd5b503461018457600319606036820112610576576001600160401b03600435116105765760806004356004019160043536030112610576576024356001600160401b038111610639576106d99036906004016116c9565b91906044356001600160401b038111610aa1576106fa9036906004016116c9565b91600554946007549561070d87826117f9565b60246004350135141580610a91575b610a7f576040519061075460208301836107368a8361181c565b039361074a601f199586810183528261163d565b51902098826117f9565b600435602401350361097c5750509161077761077f926107859697943691611724565b93369161177a565b916140fe565b60246004350135825281602052604082209080356042196004353603018112156105725760043501916001600160401b036107c2600485016118f0565b16926001600160401b0319938483541617825560019081830190602481013590602219813603018212156109785701906004820135916001600160401b038311610978576024018260051b3603811361097857600160401b8311610964578154838355808410610949575b509087959493929190865260208620865b838110610922575050505050600480356024810135600284015560448101356003840155606401949101906001600160401b0361087a866118f0565b1690825416179055602460043501358252601e60205261089e604083203390611a1c565b5060043560240135600555600a546001600160a01b0316803b15610639576040516347dc9b4f60e01b815291839183918290849082906108e1906004830161181c565b03925af1801561091757610903575b50506108fe610636916118f0565b611cf1565b61090c906115f4565b6105765781386108f0565b6040513d84823e3d90fd5b84959697506020610936849596939461191b565b848301558a98979695940192910161083e565b8289526020892061095e918101908501611904565b3861082d565b634e487b7160e01b88526041600452602488fd5b8780fd5b94509450505050602460043501351461099457505080f35b60246004350135835282602052604083206040519060208201926020845260806040840152826101008101926001600160401b0381541660c083015260019081810191604060e085015282548096526101208401928a5260208a20908a5b878110610a5e575050506002810154606084015260038101546080840152600401546001600160401b031660a0830152039081018352610a3391508261163d565b51902014610a3e5780f35b602460043501358152601e602052610a5a604082203390611a1c565b5080f35b82546001600160a01b031685528895506020909401939181019181016109f2565b60405163fae4eadb60e01b8152600490fd5b508060246004350135141561071c565b8480fd5b50346101845760203660031901126101845760043560008051602061457d833981519152600181541461017257600181558115610b745760ff600e5460081c16610b6257338352600360205281604084205410610b50576105b98392338452600360205260408420610b1882825461225e565b9055610b268160025461225e565b6002553384526003602052604084205415610b42575b33613504565b610b4b33614475565b610b3c565b60405163569d45cf60e11b8152600490fd5b604051631b39f2f360e11b8152600490fd5b604051631036b5ad60e31b8152600490fd5b50602036600319011261018457600435906001600160401b0382116101845736602383011215610184576001600160401b03826004013511610184576024368184600401358501011161057657600160008051602061457d833981519152541461017257600160008051602061457d83398151915255610c04613615565b60ff600e5460081c16806110dd575b34156110cb5760418460040135036110b957610c358460040135838601614439565b336001600160a01b03909116036104f457610eb75733600090815260116020526040902060039390840190610c788160040135610c728454611ac1565b84611bb4565b83601f826004013511600114610e42578385918360040135610e35575b5050816004013560011b916000199060040135871b1c19161790555b610cbb34336136ee565b601054600654811015610ce2575b505090505b8060008051602061457d8339815191525580f35b61ffff601254166001600160401b036008541611610cc95761010061ff0019600e541617600e5560405193602085019060208652600154809252604086019160408160051b88010192600187527fb10e2d527612073b26eecdfd717e6a320cf44b4afac2b0732d9fcbe2b7fa0cf69287915b838310610de85750505050508484957f4914d88063275a25a13b2df37125e216745d812f94c56504be4bd78cf60c9593920390a160018060a01b03600a5416610da060025480936117f9565b92813b15610aa15784926040519485938492637903ab2760e11b845260048401525af1801561091757610dd4575b80610cc9565b610ddd906115f4565b610184578038610dce565b9091929394602083610e266001938d603f1990820301865289548152848060a01b03858b015416848201526060908160408201520160028a01611afb565b97019201930191909392610d54565b8301013590508338610c95565b828552602085208592916004830135601f19165b808510610e9a5760019450836004013511610e7c575b505060040135811b019055610cb1565b82018501356000196004840135891b60f8161c191690553880610e6c565b838201870135835560209485019460019093019290910190610e56565b610ec8368460040135838601611679565b926001600160401b0360185416604051610ee181611622565b60028152602081019586523360408201528160005260196020526040600020958151610f0c81611aa1565b610f1581611aa1565b60ff80198954169116178755519586516001600160401b0381116110a457610f4d81610f446001850154611ac1565b60018501611bb4565b6020601f82116001146110225790806002939260008051602061455d833981519152999a600092611017575b50508160011b916000199060031b1c19161760018201555b0190604060018060a01b03910151166001600160601b0360a01b8254161790556001600160401b03610fc282611cd9565b166001600160401b03196018541617601855610fff60405193849360028552336020860152608060408601526080850191816004013591016135cf565b9060608301520390a161101234336138ff565b610cce565b015190503880610f79565b6001830160005260206000209860005b601f198416811061108c57509160008051602061455d83398151915298996001926002959483601f19811610611073575b505050811b016001820155610f91565b015160001960f88460031b161c19169055388080611063565b828201518b556001909a019960209283019201611032565b85634e487b7160e01b60005260416004526000fd5b6040516318dca5e960e21b8152600490fd5b604051635a78c58160e11b8152600490fd5b6110e5613afb565b610c13565b50604036600319011261018457600a546001600160a01b0316330361111757610636602435600435614035565b60405163e7e601db60e01b8152600490fd5b503461018457806003193601126101845760019060008051602061457d8339815191528281541461017257828155336000908152601b602052604090209283549061ffff908183169283156112a357829060101c16918391808795818a01915b61121d575b505050866111ff937f197c586353eaed0a1c53e6e540445b94befab8f932c8115d112115ecbeeed514959363ffff000093899a54911693849260101b169063ffffffff19161717905515611206575b6111e78133613504565b60408051338152602081019290925290918291820190565b0390a15580f35b336000908152601b602052604090208590556111dd565b90919394838116968288101561129a578760005260208091858252604060002060405161124981611607565b8982549283835201549384910152431061128f578594938896889461127086958a956117f9565b9c60005252600082604082208281550155011696600019011694611189565b98505050949361118e565b9650949361118e565b6040516364b0557f60e01b8152600490fd5b50346101845780600319360112610184576112ce613615565b61ffff6112e481601554168260125416906121b4565b1661133d57600e805462ff0000191662010000179055600a5481906001600160a01b0316803b156101605781906004604051809481936341c0e1b560e01b83525af1801561091757611334575080f35b610636906115f4565b604051636b62255160e11b8152600490fd5b508060031936011261018457611363613615565b610636613b10565b5034610184576020366003190112610184576004356001600160401b03811681036105765761063690611cf1565b5034610184576020366003190112610184576113b3613615565b610636600435613b6a565b50346101845760209081600319360112610184576001600160401b0391600435838111610639573660238201121561063957611404903690602481600401359101611679565b923383526013825261ffff604084205416156115155783511561150357338352601f8252604083209184519182116114ef5761144a826114448554611ac1565b85611bb4565b80601f831160011461148b5750839482939492611480575b50508160011b916000199060031b1c19161790555b610a5a336119b3565b015190503880611462565b90601f198316958486528286209286905b8882106114d7575050836001959697106114be575b505050811b019055611477565b015160001960f88460031b161c191690553880806114b1565b8060018596829496860151815501950193019061149c565b634e487b7160e01b84526041600452602484fd5b604051637138356f60e01b8152600490fd5b604051633b4f6e2b60e21b8152336004820152602490fd5b9050816003193601126105765734156115e5575060ff600e5460081c16610b6257338152600360205260408120541561158c575b3381526003602052604081206115783482546117f9565b9055611586346002546117f9565b60025580f35b600454600160401b8110156115d1576115ae8160016115cc930160045561192f565b81546001600160a01b0360039290921b91821b19163390911b179055565b611561565b634e487b7160e01b82526041600452602482fd5b631036b5ad60e31b8152600490fd5b6001600160401b0381116104de57604052565b604081019081106001600160401b038211176104de57604052565b606081019081106001600160401b038211176104de57604052565b90601f801991011681019081106001600160401b038211176104de57604052565b6001600160401b0381116104de57601f01601f191660200190565b9291926116858261165e565b91611693604051938461163d565b8294818452818301116116b0578281602093846000960137010152565b600080fd5b35906001600160401b03821682036116b057565b9181601f840112156116b0578235916001600160401b0383116116b0576020808501948460051b0101116116b057565b6001600160401b0381116104de5760051b60200190565b35906001600160a01b03821682036116b057565b929161172f826116f9565b9161173d604051938461163d565b829481845260208094019160051b81019283116116b057905b8282106117635750505050565b83809161176f84611710565b815201910190611756565b92919092611787846116f9565b91611795604051938461163d565b829480845260208094019060051b8301928284116116b05780915b8483106117bf57505050505050565b82356001600160401b0381116116b057820184601f820112156116b05786916117ee8683858095359101611679565b8152019201916117b0565b9190820180921161180657565b634e487b7160e01b600052601160045260246000fd5b6020918282528035603e19823603018112156116b05781019060808484015260e08301936001600160401b039283611853826116b5565b1660a086015281810135601e19823603018112156116b057018181359101958482116116b0578160051b360387136116b0578190604060c0880152526101008501959060005b8181106118cb575050506060826118c4926080959401356040870152604081013582870152016116b5565b1691015290565b9091968380600192838060a01b036118e28c611710565b168152019801929101611899565b356001600160401b03811681036116b05790565b81811061190f575050565b60008155600101611904565b356001600160a01b03811681036116b05790565b6004548110156119665760046000527f8a35acfbc15ff81a39ae7d344fd709f28e8600b4aa8c65c6b64bfe7fe36bd19b0190600090565b634e487b7160e01b600052603260045260246000fd5b6020548110156119665760206000527fc97bfaf2f8ee708c303a06d134f5ecd8389ae0432af62dc132a24118292866bb0190600090565b600081815260216020526040812054611a1757602054600160401b8110156115d1579082611a036119ec8460016040960160205561197c565b819391549060031b91821b91600019901b19161790565b905560205492815260216020522055600190565b905090565b91906001830160009082825280602052604082205415600014611a9b57845494600160401b861015611a875760018601808255861015611a7357836040949596828552602085200155549382526020522055600190565b634e487b7160e01b83526032600452602483fd5b634e487b7160e01b83526041600452602483fd5b50925050565b60041115611aab57565b634e487b7160e01b600052602160045260246000fd5b90600182811c92168015611af1575b6020831014611adb57565b634e487b7160e01b600052602260045260246000fd5b91607f1691611ad0565b9060009291805491611b0c83611ac1565b918282526001938481169081600014611b6e5750600114611b2e575b50505050565b90919394506000526020928360002092846000945b838610611b5a575050505001019038808080611b28565b805485870183015294019385908201611b43565b9294505050602093945060ff191683830152151560051b01019038808080611b28565b60005b838110611ba45750506000910152565b8181015183820152602001611b94565b9190601f8111611bc357505050565b611bef926000526020600020906020601f840160051c83019310611bf1575b601f0160051c0190611904565b565b9091508190611be2565b90808214611cd557611c0d8154611ac1565b906001600160401b0382116104de578190611c3282611c2c8654611ac1565b86611bb4565b600090601f8311600114611c6957600092611c5e575b50508160011b916000199060031b1c1916179055565b015490503880611c48565b81526020808220858352818320935090601f1985169083905b828210611cbc575050908460019594939210611ca3575b505050811b019055565b015460001960f88460031b161c19169055388080611c99565b8495819295850154815560018091019601940190611c82565b5050565b9060016001600160401b038093160191821161180657565b6018546001600160401b0382811692908083168410611d1c5760405163040aaa0560e11b8152600490fd5b808360401c168410611b285780604093841c165b848282161115611d9757505091602091611d6a7f246f00b61ce672242f33bb680a47147cd54d3dfd04dbb76956ba42f88087bf6394611cd9565b67ffffffffffffffff60401b60185491831b169067ffffffffffffffff60401b19161760185551908152a1565b81611db5826001600160401b03166000526019602052604060002090565b6002808201548254929491926001600160a01b03918216919060ff16611dda81611aa1565b808503611e4c5750506003611e0b6001611e1194959697019260018060a01b03166000526011602052604060002090565b01611bfb565b611e2e816001600160401b03166000526019602052604060002090565b91600090818455600193611e4385820161226b565b01550116611d30565b90919450611e5981611aa1565b600391818303611ff7575050875193611e8185611e7a816001809a01611afb565b038661163d565b84518501916020928a878583019203126116b057838701518981116116b05787019681603f890112156116b05787858d99015192611eca611ec18561165e565b9a519a8b61163d565b838a528d84830101116116b0578c92611ee89184888c019101611b91565b01519281611f088460018060a01b03166000526011602052604060002090565b01918751918a8311611fe2578a98611f2a84611f248754611ac1565b87611bb4565b81601f8511600114611f6f5750611f5f9798999a8493928492600095611f64575b50501b92600019911b1c19161790556121ca565b611e11565b015193503880611f4b565b91601f9b9493919b1984169b866000528c84600020946000915b8210611fc757505084611f5f9a9b9c9d10611fad575b50505050811b0190556121ca565b01519060f884600019921b161c1916905538808080611f9f565b8383015186558f9d509487019492830192908101908e611f89565b60246000634e487b7160e01b81526041600452fd5b9150919388959395519361201385611e7a816001809501611afb565b602080868051810103126116b05781818c9701519561203181611aa1565b0361215657849061204282856122b4565b601a5461204f90436117f9565b9287519061205c82611607565b8482528282018481526001600160a01b0387166000908152601b602052604090209091909283549161ffff9384848180961695869160101c169061209f916121b4565b169c60009d8e5282870188528d2092518355519101556120be906121a1565b1661ffff198254161790558b519384528301528982015260607f083b080788e20bd0930c2bca2ae4fbc51a59ced08c1b5992271f8cb439498a6391a1600a541690813b15610639578291602483928a5195869384926345f5448560e01b845260048401525af190811561214b5750908493929161213c575b50611e11565b612145906115f4565b38612136565b8751903d90823e3d90fd5b505082935091612166919261220e565b600a541690813b156116b0578651916316989f6f60e21b83528260048160009485945af190811561214b5750908493929161213c5750611e11565b90600161ffff8093160191821161180657565b91909161ffff8080941691160191821161180657565b9060018060a01b0382166000526011602052604060002081815491558181146000146121f557505050565b81111561220557611bef91612343565b611bef91612768565b90611bef9161225660018060a01b0382169283600052601160205261223b816001604060002001546117f9565b936000526011602052836001604060002001556010546117f9565b601055612343565b9190820391821161180657565b6122758154611ac1565b908161227f575050565b81601f60009311600114612291575055565b9080839182526122b0601f60208420940160051c840160018501611904565b5555565b906123216123299260018060a01b03811690600082815260116020526122e185600160408420015461225e565b928152601160205260408120600281018481548115908161233a575b501561232e5750908260039261231c948355816001840155550161226b565b612768565b60105461225e565b601055565b92505060010155612768565b905015386122fd565b919060018060a01b03928381166000948186526020916013835261ffff916040978389822054166126595783600f5460081c1684601254161061262557612388613214565b6001928382526014808752838b8420541690896123a483612c3b565b106124bd57505081526016855283898220541661241457505050505061240f7f19fe3ca603e87854a0747cc10abf06bac64d61bac73d6d15f2fd3ca448f1526493946123ef83612bc6565b516001600160a01b03909216825260208201929092529081906040820190565b0390a1565b61241d86613267565b9261242787612c3b565b935b818682161161247f575b505097516001600160a01b0390951685525050505060208101919091529091507fda148fac2e1063174be7bc0895576bdaba90fd14e575463fa26a967cb895cadd90806040810161240f565b808561249e86617fff8f95871c169485885260178c5287205416612c3b565b10156124b757906124b0839282613475565b9050612429565b50612433565b92958097959198995060129492945416801561261457806124e06124fc9261332d565b886124ea82612c8a565b1661ffff19601254161760125561328c565b808652828552612510828c88205416612c3b565b9181938260028a60125416915b6125a1575b505050505050509682601661240f95937ffaeb8de771b867cf357f6b459a7002b62ec45d544a8078a3ecd91200cc826d75999a84965252205416612593575b61256a84612fe0565b61257383612bc6565b516001600160a01b03928316815292909116602083015281906040820190565b61259c84612e05565b612561565b8a811682811161260e578f90838110156125f3575050806125c46125ca926121a1565b906131c4565b9690965b8611156125ee576125df90876133e6565b6125e886612f71565b8461251d565b612522565b8b52838a528a2054909690612609908516612c3b565b6125ce565b50612522565b8b516340d9b01160e01b8152600490fd5b505050505061240f7f2e8038f5812f763c6ef0c5427cb5a05ce6d7064af2ba7d1d270bc02660b019fd93946123ef83612fe0565b9792915061266a8594979695613230565b9761267485612c3b565b9761267e8a612f71565b8460125416905b85811682811161273157828110156127155750806125c46126a5926121a1565b9b909b5b8b11156126c8576126ba908c6133e6565b6126c38b612f71565b612685565b505093516001600160a01b0390951685525050505060208101919091529092507f143db27bc2036653dc6f962ff9d0b803163d4af50c256ca9e6927b3d6dcd01979150806040810161240f565b849c919c526014835261272c858886205416612c3b565b6126a9565b5050505050505061240f91929395507f143db27bc2036653dc6f962ff9d0b803163d4af50c256ca9e6927b3d6dcd019794506123ef565b919060018060a01b0391828416916000948386526020946016865261ffff96604095888783205416612a89578082526013885288878320541615612a785784156129d157506127b683613230565b976127c084612c3b565b985b60018083831611156129c25781617fff911c169081845260148a528a6127ec868b87205416612c3b565b1115612801576127fc90826133e6565b6127c2565b505091939597509193955b8160155416156129b85761281e613214565b600191828452601494858352808a862054169461283a86612c3b565b96612843613222565b85825260178552828c832054169761285a89612c3b565b116128ad57505098516001600160a01b0390961686525050505060208201929092529192507f143db27bc2036653dc6f962ff9d0b803163d4af50c256ca9e6927b3d6dcd0197919050806040810161240f565b91939597509180949698506012541680156129a757806128d26128dc9298969861332d565b876124ea82612c8a565b8382528085526128f0838b84205416612c3b565b9484809760028160125416925b61293a575b5050505050505050505061240f7ffaeb8de771b867cf357f6b459a7002b62ec45d544a8078a3ecd91200cc826d759394612561612c9e565b8181168381116129a1578e9080851115612986575050806125c461295d926121a1565b9990995b89111561298157612972908a6133e6565b61297b89612f71565b876128fd565b612902565b875285855286205490999061299c908816612c3b565b612961565b50612902565b8a516340d9b01160e01b8152600490fd5b5050505050509050565b5050919395975091939561280c565b879450612a047f4a4c5d1a281180eea1e99d8177fa4798b9f7e019d5c57e7d8d73c6a22199aa5b93969994989298613055565b8651908152a160155416612a185750505050565b7f2e8038f5812f763c6ef0c5427cb5a05ce6d7064af2ba7d1d270bc02660b019fd9360178492612a46613222565b6001835252205416612a6c612a5a82612c3b565b92612a63612c9e565b6123ef83612fe0565b0390a138808080611b28565b8651632a55ca5360e01b8152600490fd5b8496989291949793959715612b8b575061fffe9193612aa786613267565b93612ab187612c3b565b9480966001958692831b168160155416925b612b17575b505099516001600160a01b039097168752505050506020830193909352509192507fda148fac2e1063174be7bc0895576bdaba90fd14e575463fa26a967cb895cadd919050806040810161240f565b818116838111612b85578d9084811015612b6957505080612b3a612b40926121a1565b90612f88565b9890985b881015612b6457612b559089613475565b612b5e88612f71565b86612ac3565b612ac8565b865260178552852054909890612b80908716612c3b565b612b44565b50612ac8565b94915050612bbf9194507f3168ba660eed6ef1dc2258b2247cc05fd0f2f350d39e6ad2e2ebc76a8000b40b95969250612e05565b51908152a1565b611bef90612c3561ffff91612bde83601554166121a1565b9260018060a01b0382169081600052601660205260406000209085169161ffff199183838254161790558260005260176020526040600020906001600160601b0360a01b8254161790556015541617601555612c3b565b90612f1c565b60ff600f54166002811015611aab57600103612c6c576001600160a01b031660009081526011602052604090205490565b6001600160a01b031660009081526011602052604090206001015490565b61ffff908116600019019190821161180657565b61ffff8060155416908115612df35790600190612cbd81831115613310565b6000828152601760208181526040808420805486865282862080546001600160a01b0392831680895260168752858920805461ffff199081168c17909155918416808a52868a20805484168d17905588885283546001600160a01b03199081169092179093558a895284541690911790925592958795939492939291612d5791908a612d4883612c8a565b169060155416176015556132ce565b848252808652612d6b848484205416612c3b565b95859860028160155416995b612d89575b5050505050505050505050565b8181168a8111612ded578a811015612dd2575080612b3a612da9926121a1565b9a909a5b891015612dcd57612dbe908b613475565b612dc78a612f71565b87612d77565b612d7c565b859b919b52838352612de8878787205416612c3b565b612dad565b50612d7c565b6040516340d9b01160e01b8152600490fd5b612e0e90613267565b61ffff90816015541691612e228383613475565b80612e2c84612c8a565b1661ffff196015541617601555612e42836132ce565b808216809314612f17579161fffe9160009180835260179060209382855260018060a01b0392604092612e82612e7c868686205416612c3b565b87612f1c565b8252808652612e95848484205416612c3b565b9585986001988997881b168160155416995b612eb8575050505050505050505050565b8181168a8111612ded578a811015612efc575080612b3a612ed8926121a1565b9a909a5b891015612dcd57612eed908b613475565b612ef68a612f71565b87612ea7565b859b919b52838352612f12878787205416612c3b565b612edc565b505050565b9190915b60018061ffff83161115612f6b5781617fff911c169083612f5660008481526017602052604060018060a01b0391205416612c3b565b1015612f6b57612f669082613475565b612f20565b50509050565b60011b906201fffe61fffe83169216820361180657565b91909161ffff928382166000526017602052612fcb60018060a01b03612fb48160406000205416612c3b565b958316600052601760205260406000205416612c3b565b90818510612fd95750509190565b9350919050565b611bef9061304f61ffff91612ff883601254166121a1565b9260018060a01b0382169081600052601360205260406000209085169161ffff199183838254161790558260005260146020526040600020906001600160601b0360a01b8254161790556012541617601255612c3b565b90613175565b61305e90613230565b9061ffff9081601254169061307382856133e6565b8261307d83612c8a565b1661ffff1960125416176012556130938261328c565b82841680921461316f5760009291929183835260149260209484865260018060a01b03916040916130d16130cb858585205416612c3b565b8a613175565b81528587526130e4838383205416612c3b565b956130ee89612f71565b978560125416985b8681168a8111613161578a8110156131465750806125c4613116926121a1565b9a909a5b8911156131395761312b908b6133e6565b6131348a612f71565b6130f6565b5050505050505092505050565b849b919b5282825261315c868686205416612c3b565b61311a565b505050505050505092505050565b92505050565b9190915b60018061ffff83161115612f6b5781617fff911c1690836131af60008481526014602052604060018060a01b0391205416612c3b565b1115612f6b576131bf90826133e6565b613179565b919061ffff808416600052601460205261320560018060a01b036131ee8160406000205416612c3b565b928416600052601460205260406000205416612c3b565b9384821115612fd95750509190565b61ffff6012541615612df357565b61ffff6015541615612df357565b6001600160a01b031660009081526013602052604090205461ffff1690811561325557565b60405163f2755e3760e01b8152600490fd5b6001600160a01b031660009081526016602052604090205461ffff1690811561325557565b61ffff16600090815260146020908152604080832080546001600160a01b031981169091556001600160a01b0316835260139091529020805461ffff19169055565b61ffff16600090815260176020908152604080832080546001600160a01b031981169091556001600160a01b0316835260169091529020805461ffff19169055565b1561331757565b634e487b7160e01b600052600160045260246000fd5b61335061ffff8060125416926133468460011115613310565b1691821115613310565b601460208181527fb6c61a840592cc84133e4b25bd509abf4659307c57b160799b38490a5aa48f2c80546000858152604080822080546001600160a01b0394851680855260138852838520805461ffff19908116909b1790559416808452918320805490981660019081179098559590945284546001600160a01b03199081169092179094559390925281549092169091179055565b61340161ffff80806012541693169361334684861115613310565b6000828152601460208181526040808420805486865282862080546001600160a01b0392831680895260138752858920805461ffff19908116909b1790559216808852938720805490981689179097559390925284546001600160a01b031990811690931790945593909152825416179055565b61349061ffff80806015541693169361334684861115613310565b6000828152601760208181526040808420805486865282862080546001600160a01b0392831680895260168752858920805461ffff19908116909b1790559216808852938720805490981689179097559390925284546001600160a01b031990811690931790945593909152825416179055565b814710613566576000918291829182916001600160a01b03165af13d15613561573d61352f8161165e565b9061353d604051928361163d565b8152600060203d92013e5b1561354f57565b604051630a12f52160e11b8152600490fd5b613548565b60405163cd78605960e01b8152306004820152602490fd5b91908110156119665760051b81013590601e19813603018212156116b05701908135916001600160401b0383116116b05760200182360381136116b0579190565b91908110156119665760051b0190565b908060209392818452848401376000828201840152601f01601f1916010190565b9060209161360981518092818552858086019101611b91565b601f01601f1916010190565b60ff600e5460101c1661362457565b60405163248c8efb60e11b8152600490fd5b60405190608082018281106001600160401b038211176104de576040526045825264185c1c195960da1b6060837f4d6574686f64206e6f7420616c6c6f776564206966207065726d697373696f6e60208201527f656420697320656e61626c656420616e64207375626e657420626f6f7473747260408201520152565b600154811015611966576003906001600052027fb10e2d527612073b26eecdfd717e6a320cf44b4afac2b0732d9fcbe2b7fa0cf60190600090565b90613703906136fd81846138d8565b8261220e565b60ff600e5460081c16156137145750565b60018054600082815b8381106138a7575b50501561373157505050565b6001600160a01b0383166000908152601160205260409020828101546137879490916003016040519261376384611622565b835260209361378e8585019260018060a01b03809516845260405198898092611afb565b038861163d565b60408401968752600160401b8110156104de5780866137af920187556136b3565b929092613891576002935183558583019151166001600160601b0360a01b825416179055019251908151916001600160401b0383116104de576137f683611f248754611ac1565b81601f841160011461382f5750928293918392600094613824575b50501b916000199060031b1c1916179055565b015192503880613811565b919083601f1981168760005284600020946000905b88838310613877575050501061385e57505050811b019055565b015160001960f88460031b161c19169055388080611c99565b858701518855909601959485019487935090810190613844565b634e487b7160e01b600052600060045260246000fd5b816138b1826136b3565b5001546001600160a01b038781169116146138ce5701839061371d565b5090508238613725565b60018060a01b031660005260116020526138fb60026040600020019182546117f9565b9055565b9190604051928160208501526020845261391884611607565b6001600160401b0360185416936040519461393286611622565b60008652602086019582875260018060a01b0384166040820152816000526019602052604060002096815161396681611aa1565b61396f81611aa1565b60ff80198a54169116178855519687516001600160401b0381116104de5761399e81610f446001850154611ac1565b6020601f8211600114613a7057613a5794928260008051602061455d833981519152979593600293611bef9c9d600092613a65575b50508160011b916000199060031b1c19161760018201555b0190604060018060a01b03910151166001600160601b0360a01b8254161790556001600160401b03613a1c82611cd9565b166001600160401b031960185416176018556040519283926000845260018060a01b03871660208501526080604085015260808401906135f0565b9060608301520390a16138d8565b0151905038806139d3565b6001830160005260206000209960005b601f1984168110613ae3575092600183611bef9b9c600294613a57999760008051602061455d8339815191529b9997601f19811610613aca575b505050811b0160018201556139eb565b015160001960f88460031b161c19169055388080613aba565b828201518c556001909b019a60209283019201613a80565b60ff600f54166002811015611aab5761051857565b613b18613afb565b34156110cb573360009081526011602052604090206002015415613b585760ff600e5460081c1615613b4e57611bef34336138ff565b611bef34336136ee565b60405163528fc16560e01b8152600490fd5b613b72613afb565b8015613bd95733600090815260116020526040902060020154801561151557811015613bc85760ff600e5460081c1615613bb057611bef9033613c3e565b80613bbe611bef9233613beb565b610b3c81336122b4565b60405162d11df360e61b8152600490fd5b60405163c79cad7b60e01b8152600490fd5b6001600160a01b03166000818152601160205260409020600201549091808210613c2c57613c189161225e565b906000526011602052600260406000200155565b60405163ac69360360e01b8152600490fd5b91906040519281602085015260208452613c5784611607565b6001600160401b03601854169360405194613c7186611622565b60018652602086019582875260018060a01b03841660408201528160005260196020526040600020968151613ca581611aa1565b613cae81611aa1565b60ff80198a54169116178855519687516001600160401b0381116104de57613cdd81610f446001850154611ac1565b6020601f8211600114613daf57613d9694928260008051602061455d833981519152979593600293611bef9c9d600092613da4575b50508160011b916000199060031b1c19161760018201555b0190604060018060a01b03910151166001600160601b0360a01b8254161790556001600160401b03613d5b82611cd9565b166001600160401b031960185416176018556040519283926001845260018060a01b03871660208501526080604085015260808401906135f0565b9060608301520390a1613beb565b015190503880613d12565b6001830160005260206000209960005b601f1984168110613e22575092600183611bef9b9c600294613d96999760008051602061455d8339815191529b9997601f19811610613e09575b505050811b016001820155613d2a565b015160001960f88460031b161c19169055388080613df9565b828201518c556001909b019a60209283019201613dbf565b60ff600e5460081c16613f27575b33600090815260116020526040902060020154801561151557613e6a33613f34565b50600090338252601f6020528160408120613e858154611ac1565b80613eea575b50505060ff600e5460081c1615613ea757611bef915033613c3e565b6040611bef923381526003602052205480613ec8575b50613bbe8133613beb565b80613ed8613ee49260025461225e565b600255610b3c33614475565b38613ebd565b82601f8211600114613f02575050555b813880613e8b565b9091808252613f20601f60208420940160051c840160018501611904565b5555613efa565b613f2f613afb565b613e48565b60009080825260209060218252604083205480151560001461401b576000199080820181811161400757845490838201918211613ff357808203613fc0575b50505082548015613fac57908060219493920190613f908261197c565b909182549160031b1b1916905582558352526040812055600190565b634e487b7160e01b85526031600452602485fd5b613fde613fcf6119ec9361197c565b90549060031b1c92839261197c565b90558552602184526040852055388080613f73565b634e487b7160e01b87526011600452602487fd5b634e487b7160e01b86526011600452602486fd5b50505090565b80518210156119665760209160051b010190565b8115611cd5576007546140479161225e565b6000908152602090601e8252604090818120928251808583829754938481520190855283852092855b858282106140e8575050506140879250038561163d565b83519485156140e0578581106140e05785900493825b8681106140ad5750505050505050565b6001906001600160a01b036140c28285614021565b51168552601d84528585206140d88882546117f9565b90550161409d565b505050505050565b855484526001958601958a955093019201614070565b9182519161410b836116f9565b9360409461411b8651918261163d565b848152601f1961412a866116f9565b0194602095368784013760005b81811061420157505060009461ffff8060125416600192839182945b6141b0575b505050505060ff600a5460a01c1694858102958187041490151715611806576064614184950491614278565b901561418e575050565b6007811015611aab5760ff602492519163282ef1c160e01b8352166004820152fd5b90919293988a858b168381116141f957600090815260148552205484939291869185916141ef916141e9906001600160a01b0316612c3b565b906117f9565b9b01169493614153565b505098614158565b6001600160a01b03806142148387614021565b51166000526013885261ffff89600020541615614254579061424360019261423c8388614021565b5116612c3b565b61424d8286614021565b5201614137565b889061426260249387614021565b519151633b4f6e2b60e21b815291166004820152fd5b845192946000949084156143605782518514801590614355575b614348579392919085945b8486106142c05750505050505010156142b857600090600690565b600190600090565b9091929394956142da6142d38884614021565b518461436d565b506142e481611aa1565b614337576001600160a01b03806142fb8a88614021565b51169116036143275761431b6001916143148988614021565b51906117f9565b9601949392919061429d565b5050505050505050600090600490565b505050505050505050600090600590565b5050505050905090600190565b508351851415614292565b5050505050905090600290565b815191906041830361439e5761439792506020820151906060604084015193015160001a906143a9565b9192909190565b505060009160029190565b91907f7fffffffffffffffffffffffffffffff5d576e7357a4501ddfe92f46681b20a0841161442d57926020929160ff608095604051948552168484015260408301526060820152600092839182805260015afa156144215780516001600160a01b0381161561441857918190565b50809160019190565b604051903d90823e3d90fd5b50505060009160039190565b9061444660418214613310565b806001116116b0576144619136916000190190600101611679565b80516020909101206001600160a01b031690565b60049081549160005b83811061448b5750505050565b6144948161192f565b90546003916001600160a01b039190831b1c8116858216146144ba57505060010161447e565b92935093906000199182810190811161454757906144eb846144de61450a9461192f565b905490891b1c169161192f565b90919082549060031b9160018060a01b03809116831b921b1916179055565b8254801561453257019261451d8461192f565b81939154921b1b191690555538808080611b28565b603184634e487b7160e01b6000525260246000fd5b601185634e487b7160e01b6000525260246000fdfe1c593a2b803c3f9038e8b6743ba79fbc4276d2770979a01d2768ed12bea3243f691bb03ffc16c56fc96b82fd16cd1b3715f0bc3cdc6407005f49bb6205860095a2646970667358221220fc20602f7704969a45421e443d534b840e71dba23a96da0d0ac45f9abb88ca2264736f6c63430008130033","linkReferences":{"src/lib/LibStaking.sol":{"LibStaking":[{"start":285,"length":20}]}}},"methodIdentifiers":{"addBootstrapNode(string)":"10fd4261","claim()":"4e71d92d","claimRewardForRelayer()":"ed7c4da1","confirmChange(uint64)":"350a14bf","confirmNextChange()":"c7ebdaef","distributeRewardToRelayers(uint256,uint256)":"50fd8969","join(bytes)":"6170b162","kill()":"41c0e1b5","leave()":"d66d9e19","preFund()":"0b7fbe60","preRelease(uint256)":"66783c9b","setFederatedPower(address[],bytes[],uint256[])":"da5d09ee","stake()":"3a4b66f1","submitCheckpoint(((uint64,address[]),uint256,bytes32,uint64),address[],bytes[])":"b9ee2bb9","unstake(uint256)":"2e17de78","validateActiveQuorumSignatures(address[],bytes32,bytes[])":"cc2dc2b9"},"id":88}