{"abi":[{"type":"function","name":"appliedTopDownNonce","inputs":[],"outputs":[{"name":"","type":"uint64","internalType":"uint64"}],"stateMutability":"view"},{"type":"function","name":"bottomUpCheckPeriod","inputs":[],"outputs":[{"name":"","type":"uint256","internalType":"uint256"}],"stateMutability":"view"},{"type":"function","name":"bottomUpCheckpoint","inputs":[{"name":"e","type":"uint256","internalType":"uint256"}],"outputs":[{"name":"","type":"tuple","internalType":"struct BottomUpCheckpoint","components":[{"name":"subnetID","type":"tuple","internalType":"struct SubnetID","components":[{"name":"root","type":"uint64","internalType":"uint64"},{"name":"route","type":"address[]","internalType":"address[]"}]},{"name":"blockHeight","type":"uint256","internalType":"uint256"},{"name":"blockHash","type":"bytes32","internalType":"bytes32"},{"name":"nextConfigurationNumber","type":"uint64","internalType":"uint64"}]}],"stateMutability":"view"},{"type":"function","name":"bottomUpMsgsBatch","inputs":[{"name":"e","type":"uint256","internalType":"uint256"}],"outputs":[{"name":"","type":"tuple","internalType":"struct BottomUpMsgBatch","components":[{"name":"subnetID","type":"tuple","internalType":"struct SubnetID","components":[{"name":"root","type":"uint64","internalType":"uint64"},{"name":"route","type":"address[]","internalType":"address[]"}]},{"name":"blockHeight","type":"uint256","internalType":"uint256"},{"name":"msgs","type":"tuple[]","internalType":"struct CrossMsg[]","components":[{"name":"message","type":"tuple","internalType":"struct StorableMsg","components":[{"name":"from","type":"tuple","internalType":"struct IPCAddress","components":[{"name":"subnetId","type":"tuple","internalType":"struct SubnetID","components":[{"name":"root","type":"uint64","internalType":"uint64"},{"name":"route","type":"address[]","internalType":"address[]"}]},{"name":"rawAddress","type":"tuple","internalType":"struct FvmAddress","components":[{"name":"addrType","type":"uint8","internalType":"uint8"},{"name":"payload","type":"bytes","internalType":"bytes"}]}]},{"name":"to","type":"tuple","internalType":"struct IPCAddress","components":[{"name":"subnetId","type":"tuple","internalType":"struct SubnetID","components":[{"name":"root","type":"uint64","internalType":"uint64"},{"name":"route","type":"address[]","internalType":"address[]"}]},{"name":"rawAddress","type":"tuple","internalType":"struct FvmAddress","components":[{"name":"addrType","type":"uint8","internalType":"uint8"},{"name":"payload","type":"bytes","internalType":"bytes"}]}]},{"name":"value","type":"uint256","internalType":"uint256"},{"name":"nonce","type":"uint64","internalType":"uint64"},{"name":"method","type":"bytes4","internalType":"bytes4"},{"name":"params","type":"bytes","internalType":"bytes"},{"name":"fee","type":"uint256","internalType":"uint256"}]},{"name":"wrapped","type":"bool","internalType":"bool"}]}]}],"stateMutability":"view"},{"type":"function","name":"bottomUpMsgsBatchPeriod","inputs":[],"outputs":[{"name":"","type":"uint256","internalType":"uint256"}],"stateMutability":"view"},{"type":"function","name":"bottomUpNonce","inputs":[],"outputs":[{"name":"","type":"uint64","internalType":"uint64"}],"stateMutability":"view"},{"type":"function","name":"crossMsgFee","inputs":[],"outputs":[{"name":"","type":"uint256","internalType":"uint256"}],"stateMutability":"view"},{"type":"function","name":"getAppliedTopDownNonce","inputs":[{"name":"subnetId","type":"tuple","internalType":"struct SubnetID","components":[{"name":"root","type":"uint64","internalType":"uint64"},{"name":"route","type":"address[]","internalType":"address[]"}]}],"outputs":[{"name":"","type":"bool","internalType":"bool"},{"name":"","type":"uint64","internalType":"uint64"}],"stateMutability":"view"},{"type":"function","name":"getBatchMsgsRetentionHeight","inputs":[],"outputs":[{"name":"","type":"uint256","internalType":"uint256"}],"stateMutability":"view"},{"type":"function","name":"getBatchMsgsSignatureBundle","inputs":[{"name":"h","type":"uint256","internalType":"uint256"}],"outputs":[{"name":"batch","type":"tuple","internalType":"struct BottomUpMsgBatch","components":[{"name":"subnetID","type":"tuple","internalType":"struct SubnetID","components":[{"name":"root","type":"uint64","internalType":"uint64"},{"name":"route","type":"address[]","internalType":"address[]"}]},{"name":"blockHeight","type":"uint256","internalType":"uint256"},{"name":"msgs","type":"tuple[]","internalType":"struct CrossMsg[]","components":[{"name":"message","type":"tuple","internalType":"struct StorableMsg","components":[{"name":"from","type":"tuple","internalType":"struct IPCAddress","components":[{"name":"subnetId","type":"tuple","internalType":"struct SubnetID","components":[{"name":"root","type":"uint64","internalType":"uint64"},{"name":"route","type":"address[]","internalType":"address[]"}]},{"name":"rawAddress","type":"tuple","internalType":"struct FvmAddress","components":[{"name":"addrType","type":"uint8","internalType":"uint8"},{"name":"payload","type":"bytes","internalType":"bytes"}]}]},{"name":"to","type":"tuple","internalType":"struct IPCAddress","components":[{"name":"subnetId","type":"tuple","internalType":"struct SubnetID","components":[{"name":"root","type":"uint64","internalType":"uint64"},{"name":"route","type":"address[]","internalType":"address[]"}]},{"name":"rawAddress","type":"tuple","internalType":"struct FvmAddress","components":[{"name":"addrType","type":"uint8","internalType":"uint8"},{"name":"payload","type":"bytes","internalType":"bytes"}]}]},{"name":"value","type":"uint256","internalType":"uint256"},{"name":"nonce","type":"uint64","internalType":"uint64"},{"name":"method","type":"bytes4","internalType":"bytes4"},{"name":"params","type":"bytes","internalType":"bytes"},{"name":"fee","type":"uint256","internalType":"uint256"}]},{"name":"wrapped","type":"bool","internalType":"bool"}]}]},{"name":"info","type":"tuple","internalType":"struct QuorumInfo","components":[{"name":"hash","type":"bytes32","internalType":"bytes32"},{"name":"rootHash","type":"bytes32","internalType":"bytes32"},{"name":"threshold","type":"uint256","internalType":"uint256"},{"name":"currentWeight","type":"uint256","internalType":"uint256"},{"name":"reached","type":"bool","internalType":"bool"}]},{"name":"signatories","type":"address[]","internalType":"address[]"},{"name":"signatures","type":"bytes[]","internalType":"bytes[]"}],"stateMutability":"view"},{"type":"function","name":"getCheckpointCurrentWeight","inputs":[{"name":"h","type":"uint256","internalType":"uint256"}],"outputs":[{"name":"","type":"uint256","internalType":"uint256"}],"stateMutability":"view"},{"type":"function","name":"getCheckpointInfo","inputs":[{"name":"h","type":"uint256","internalType":"uint256"}],"outputs":[{"name":"","type":"tuple","internalType":"struct QuorumInfo","components":[{"name":"hash","type":"bytes32","internalType":"bytes32"},{"name":"rootHash","type":"bytes32","internalType":"bytes32"},{"name":"threshold","type":"uint256","internalType":"uint256"},{"name":"currentWeight","type":"uint256","internalType":"uint256"},{"name":"reached","type":"bool","internalType":"bool"}]}],"stateMutability":"view"},{"type":"function","name":"getCheckpointRetentionHeight","inputs":[],"outputs":[{"name":"","type":"uint256","internalType":"uint256"}],"stateMutability":"view"},{"type":"function","name":"getCheckpointSignatureBundle","inputs":[{"name":"h","type":"uint256","internalType":"uint256"}],"outputs":[{"name":"ch","type":"tuple","internalType":"struct BottomUpCheckpoint","components":[{"name":"subnetID","type":"tuple","internalType":"struct SubnetID","components":[{"name":"root","type":"uint64","internalType":"uint64"},{"name":"route","type":"address[]","internalType":"address[]"}]},{"name":"blockHeight","type":"uint256","internalType":"uint256"},{"name":"blockHash","type":"bytes32","internalType":"bytes32"},{"name":"nextConfigurationNumber","type":"uint64","internalType":"uint64"}]},{"name":"info","type":"tuple","internalType":"struct QuorumInfo","components":[{"name":"hash","type":"bytes32","internalType":"bytes32"},{"name":"rootHash","type":"bytes32","internalType":"bytes32"},{"name":"threshold","type":"uint256","internalType":"uint256"},{"name":"currentWeight","type":"uint256","internalType":"uint256"},{"name":"reached","type":"bool","internalType":"bool"}]},{"name":"signatories","type":"address[]","internalType":"address[]"},{"name":"signatures","type":"bytes[]","internalType":"bytes[]"}],"stateMutability":"view"},{"type":"function","name":"getCurrentBottomUpCheckpoint","inputs":[],"outputs":[{"name":"exists","type":"bool","internalType":"bool"},{"name":"epoch","type":"uint256","internalType":"uint256"},{"name":"checkpoint","type":"tuple","internalType":"struct BottomUpCheckpoint","components":[{"name":"subnetID","type":"tuple","internalType":"struct SubnetID","components":[{"name":"root","type":"uint64","internalType":"uint64"},{"name":"route","type":"address[]","internalType":"address[]"}]},{"name":"blockHeight","type":"uint256","internalType":"uint256"},{"name":"blockHash","type":"bytes32","internalType":"bytes32"},{"name":"nextConfigurationNumber","type":"uint64","internalType":"uint64"}]}],"stateMutability":"view"},{"type":"function","name":"getCurrentConfigurationNumber","inputs":[],"outputs":[{"name":"","type":"uint64","internalType":"uint64"}],"stateMutability":"view"},{"type":"function","name":"getCurrentMembership","inputs":[],"outputs":[{"name":"","type":"tuple","internalType":"struct Membership","components":[{"name":"validators","type":"tuple[]","internalType":"struct Validator[]","components":[{"name":"weight","type":"uint256","internalType":"uint256"},{"name":"addr","type":"address","internalType":"address"},{"name":"metadata","type":"bytes","internalType":"bytes"}]},{"name":"configurationNumber","type":"uint64","internalType":"uint64"}]}],"stateMutability":"view"},{"type":"function","name":"getIncompleteBatchMsgs","inputs":[],"outputs":[{"name":"","type":"tuple[]","internalType":"struct BottomUpMsgBatch[]","components":[{"name":"subnetID","type":"tuple","internalType":"struct SubnetID","components":[{"name":"root","type":"uint64","internalType":"uint64"},{"name":"route","type":"address[]","internalType":"address[]"}]},{"name":"blockHeight","type":"uint256","internalType":"uint256"},{"name":"msgs","type":"tuple[]","internalType":"struct CrossMsg[]","components":[{"name":"message","type":"tuple","internalType":"struct StorableMsg","components":[{"name":"from","type":"tuple","internalType":"struct IPCAddress","components":[{"name":"subnetId","type":"tuple","internalType":"struct SubnetID","components":[{"name":"root","type":"uint64","internalType":"uint64"},{"name":"route","type":"address[]","internalType":"address[]"}]},{"name":"rawAddress","type":"tuple","internalType":"struct FvmAddress","components":[{"name":"addrType","type":"uint8","internalType":"uint8"},{"name":"payload","type":"bytes","internalType":"bytes"}]}]},{"name":"to","type":"tuple","internalType":"struct IPCAddress","components":[{"name":"subnetId","type":"tuple","internalType":"struct SubnetID","components":[{"name":"root","type":"uint64","internalType":"uint64"},{"name":"route","type":"address[]","internalType":"address[]"}]},{"name":"rawAddress","type":"tuple","internalType":"struct FvmAddress","components":[{"name":"addrType","type":"uint8","internalType":"uint8"},{"name":"payload","type":"bytes","internalType":"bytes"}]}]},{"name":"value","type":"uint256","internalType":"uint256"},{"name":"nonce","type":"uint64","internalType":"uint64"},{"name":"method","type":"bytes4","internalType":"bytes4"},{"name":"params","type":"bytes","internalType":"bytes"},{"name":"fee","type":"uint256","internalType":"uint256"}]},{"name":"wrapped","type":"bool","internalType":"bool"}]}]}],"stateMutability":"view"},{"type":"function","name":"getIncompleteCheckpointHeights","inputs":[],"outputs":[{"name":"","type":"uint256[]","internalType":"uint256[]"}],"stateMutability":"view"},{"type":"function","name":"getIncompleteCheckpoints","inputs":[],"outputs":[{"name":"","type":"tuple[]","internalType":"struct BottomUpCheckpoint[]","components":[{"name":"subnetID","type":"tuple","internalType":"struct SubnetID","components":[{"name":"root","type":"uint64","internalType":"uint64"},{"name":"route","type":"address[]","internalType":"address[]"}]},{"name":"blockHeight","type":"uint256","internalType":"uint256"},{"name":"blockHash","type":"bytes32","internalType":"bytes32"},{"name":"nextConfigurationNumber","type":"uint64","internalType":"uint64"}]}],"stateMutability":"view"},{"type":"function","name":"getLastConfigurationNumber","inputs":[],"outputs":[{"name":"","type":"uint64","internalType":"uint64"}],"stateMutability":"view"},{"type":"function","name":"getLastMembership","inputs":[],"outputs":[{"name":"","type":"tuple","internalType":"struct Membership","components":[{"name":"validators","type":"tuple[]","internalType":"struct Validator[]","components":[{"name":"weight","type":"uint256","internalType":"uint256"},{"name":"addr","type":"address","internalType":"address"},{"name":"metadata","type":"bytes","internalType":"bytes"}]},{"name":"configurationNumber","type":"uint64","internalType":"uint64"}]}],"stateMutability":"view"},{"type":"function","name":"getLatestParentFinality","inputs":[],"outputs":[{"name":"","type":"tuple","internalType":"struct ParentFinality","components":[{"name":"height","type":"uint256","internalType":"uint256"},{"name":"blockHash","type":"bytes32","internalType":"bytes32"}]}],"stateMutability":"view"},{"type":"function","name":"getNetworkName","inputs":[],"outputs":[{"name":"","type":"tuple","internalType":"struct SubnetID","components":[{"name":"root","type":"uint64","internalType":"uint64"},{"name":"route","type":"address[]","internalType":"address[]"}]}],"stateMutability":"view"},{"type":"function","name":"getParentFinality","inputs":[{"name":"blockNumber","type":"uint256","internalType":"uint256"}],"outputs":[{"name":"","type":"tuple","internalType":"struct ParentFinality","components":[{"name":"height","type":"uint256","internalType":"uint256"},{"name":"blockHash","type":"bytes32","internalType":"bytes32"}]}],"stateMutability":"view"},{"type":"function","name":"getQuorumThreshold","inputs":[{"name":"totalWeight","type":"uint256","internalType":"uint256"}],"outputs":[{"name":"","type":"uint256","internalType":"uint256"}],"stateMutability":"view"},{"type":"function","name":"getSubnet","inputs":[{"name":"subnetId","type":"tuple","internalType":"struct SubnetID","components":[{"name":"root","type":"uint64","internalType":"uint64"},{"name":"route","type":"address[]","internalType":"address[]"}]}],"outputs":[{"name":"","type":"bool","internalType":"bool"},{"name":"","type":"tuple","internalType":"struct Subnet","components":[{"name":"stake","type":"uint256","internalType":"uint256"},{"name":"genesisEpoch","type":"uint256","internalType":"uint256"},{"name":"circSupply","type":"uint256","internalType":"uint256"},{"name":"topDownNonce","type":"uint64","internalType":"uint64"},{"name":"appliedBottomUpNonce","type":"uint64","internalType":"uint64"},{"name":"status","type":"uint8","internalType":"enum Status"},{"name":"id","type":"tuple","internalType":"struct SubnetID","components":[{"name":"root","type":"uint64","internalType":"uint64"},{"name":"route","type":"address[]","internalType":"address[]"}]}]}],"stateMutability":"view"},{"type":"function","name":"getSubnetTopDownMsgsLength","inputs":[{"name":"subnetId","type":"tuple","internalType":"struct SubnetID","components":[{"name":"root","type":"uint64","internalType":"uint64"},{"name":"route","type":"address[]","internalType":"address[]"}]}],"outputs":[{"name":"","type":"uint256","internalType":"uint256"}],"stateMutability":"view"},{"type":"function","name":"listSubnets","inputs":[],"outputs":[{"name":"","type":"tuple[]","internalType":"struct Subnet[]","components":[{"name":"stake","type":"uint256","internalType":"uint256"},{"name":"genesisEpoch","type":"uint256","internalType":"uint256"},{"name":"circSupply","type":"uint256","internalType":"uint256"},{"name":"topDownNonce","type":"uint64","internalType":"uint64"},{"name":"appliedBottomUpNonce","type":"uint64","internalType":"uint64"},{"name":"status","type":"uint8","internalType":"enum Status"},{"name":"id","type":"tuple","internalType":"struct SubnetID","components":[{"name":"root","type":"uint64","internalType":"uint64"},{"name":"route","type":"address[]","internalType":"address[]"}]}]}],"stateMutability":"view"},{"type":"function","name":"majorityPercentage","inputs":[],"outputs":[{"name":"","type":"uint64","internalType":"uint64"}],"stateMutability":"view"},{"type":"function","name":"maxMsgsPerBottomUpBatch","inputs":[],"outputs":[{"name":"","type":"uint64","internalType":"uint64"}],"stateMutability":"view"},{"type":"function","name":"minStake","inputs":[],"outputs":[{"name":"","type":"uint256","internalType":"uint256"}],"stateMutability":"view"},{"type":"function","name":"postbox","inputs":[{"name":"id","type":"bytes32","internalType":"bytes32"}],"outputs":[{"name":"storableMsg","type":"tuple","internalType":"struct StorableMsg","components":[{"name":"from","type":"tuple","internalType":"struct IPCAddress","components":[{"name":"subnetId","type":"tuple","internalType":"struct SubnetID","components":[{"name":"root","type":"uint64","internalType":"uint64"},{"name":"route","type":"address[]","internalType":"address[]"}]},{"name":"rawAddress","type":"tuple","internalType":"struct FvmAddress","components":[{"name":"addrType","type":"uint8","internalType":"uint8"},{"name":"payload","type":"bytes","internalType":"bytes"}]}]},{"name":"to","type":"tuple","internalType":"struct IPCAddress","components":[{"name":"subnetId","type":"tuple","internalType":"struct SubnetID","components":[{"name":"root","type":"uint64","internalType":"uint64"},{"name":"route","type":"address[]","internalType":"address[]"}]},{"name":"rawAddress","type":"tuple","internalType":"struct FvmAddress","components":[{"name":"addrType","type":"uint8","internalType":"uint8"},{"name":"payload","type":"bytes","internalType":"bytes"}]}]},{"name":"value","type":"uint256","internalType":"uint256"},{"name":"nonce","type":"uint64","internalType":"uint64"},{"name":"method","type":"bytes4","internalType":"bytes4"},{"name":"params","type":"bytes","internalType":"bytes"},{"name":"fee","type":"uint256","internalType":"uint256"}]},{"name":"wrapped","type":"bool","internalType":"bool"}],"stateMutability":"view"},{"type":"function","name":"subnets","inputs":[{"name":"h","type":"bytes32","internalType":"bytes32"}],"outputs":[{"name":"subnet","type":"tuple","internalType":"struct Subnet","components":[{"name":"stake","type":"uint256","internalType":"uint256"},{"name":"genesisEpoch","type":"uint256","internalType":"uint256"},{"name":"circSupply","type":"uint256","internalType":"uint256"},{"name":"topDownNonce","type":"uint64","internalType":"uint64"},{"name":"appliedBottomUpNonce","type":"uint64","internalType":"uint64"},{"name":"status","type":"uint8","internalType":"enum Status"},{"name":"id","type":"tuple","internalType":"struct SubnetID","components":[{"name":"root","type":"uint64","internalType":"uint64"},{"name":"route","type":"address[]","internalType":"address[]"}]}]}],"stateMutability":"view"},{"type":"function","name":"totalSubnets","inputs":[],"outputs":[{"name":"","type":"uint64","internalType":"uint64"}],"stateMutability":"view"}],"bytecode":{"object":"0x6080806040523461001657612186908161001c8239f35b600080fdfe6040608081526004908136101561001557600080fd5b600091823560e01c90816302e30f9a146113fb5781630338150f146113b557816305aff0b31461138e57816306572c1a1461135d57816306c468531461133e5781630d4e898c1461131f57816313652d321461118357816324729425146111645781632da5794a146110eb578163375b3c0a146110cc5781633a5a17f7146110ad57816341b6a2e8146110825781634aa8f8a514611063578163544dddff1461103b578163599c7bd1146110195781635d02968514610f025781636ad21bb014610e245781637edeac9214610dd55781638481474e14610d045781638789f83b14610cd95781638cfd78e714610c4957816394074b0314610b9357816397042766146109f95781639d3070b5146109b35781639e530b5714610981578163a2b6715814610956578163a517218f146108a3578163ac12d76314610806578163b1ba49b0146107de578163b3ab3f74146107b3578163c66c66a114610762578163ca41d5ce146105fa578163d6c5c3971461048a57508063d7acdd54146102875763f3229131146101a457600080fd5b346102835781600319360112610283576101bc611d77565b508051906101c982611857565b6006546101d5816118e4565b6101e1835191826118c3565b818152602091828201600687527ff652222313e28459528d920b65115c16c04f3efc82aaedc97be59f3f377c0d3f96905b8282106102415750505061023d945083526001600160401b0360075416908301525191829182611786565b0390f35b600385600192885161025281611826565b8b548152848060a01b03858d0154168382015261027160028d01611ac2565b8a820152815201980191019096610212565b5080fd5b503461028357816003193601126102835780518092601454808352846020809401601484527fce6d7b5282bd9a3661ae061feed1dbda4e52ab073b1f9285be6e155d9c38d4ec92845b86828210610474575050506102e7925003856118c3565b8351916102f3836118e4565b91610300855193846118c3565b838352601f1961030f856118e4565b0182825b82811061045e57505050805b6001600160401b039081811686811015610402578261033e828b611d4d565b5116845260098552878420600389519161035783611826565b610360816119f4565b8352600281015488840152018054610377816118e4565b916103848c5193846118c3565b818352875287872087898085018e5b8584106103c75792505050846103bf9593506001979694925001526103b8828a611d4d565b5287611d4d565b50011661031f565b91600d91600193516103d881611857565b6103e187611bd9565b815260ff600c880154161515838201528152019301910190918a908e610393565b87518581528651818701819052859190600581901b82018b01908989019089848e015b8287106104325785850386f35b90919293828061044e600193603f198a82030186528851611617565b9601920196019592919092610425565b610466611a9b565b828288010152018390610313565b855484526001958601958a9550930192016102d0565b8383346102835781600319360112610283576104a4611a6f565b506104ad611a6f565b50601e549081156105e7576001600160401b03918083431604600181018091116105d457906104db91612127565b8084526105396020809660088252848720908551966104f988611872565b81610503846119f4565b808a526002850154868b01526003850154898b01529301541660608801528551630c133d1360e31b815293849283928301611f79565b038173__$a0fe38a9a81205afccc10810b09a4d3f45$__5af49485156105c9578095610582575b50508160609161023d9493519687961587528601528401526060830190611749565b909194508582813d83116105c2575b61059b81836118c3565b810103126105bf575061023d92916105b4606092611dbc565b949181939450610560565b80fd5b503d610591565b8351903d90823e3d90fd5b634e487b7160e01b855260118652602485fd5b634e487b7160e01b835260128452602483fd5b9190503461075e57602036600319011261075e57813591610619611a6f565b50610622611d91565b508284526008602052818420926001600160401b038284519561064487611872565b61064d816119f4565b8752600281015460208801526003810154868801520154166060850152600a8351926308a6ad2560e01b84528301526024820152838160448173__$dd40c2ca5826d197ed7e2b6aae8146ec7b$__5af4908115610754579061023d9291856106d49691818094610724575b5050610709610716939451978897610100808a52890190611749565b926020880190608080918051845260208101516020850152604081015160408501526060810151606085015201511515910152565b85820360c08701526116b0565b9083820360e08501526116ed565b6107169450610709935061074a92503d8091833e61074281836118c3565b810190611dc9565b91929091936106b8565b82513d86823e3d90fd5b8280fd5b8284346105bf575061079c61023d61079461078f61077f366119a9565b610787611c50565b5036906118fb565b612017565b929092611c8f565b83519384931515845280602085015283019061149b565b90503461075e57602036600319011261075e5781602093600392358152600c85522001549051908152f35b5050346102835781600319360112610283576020906001600160401b03600754169051908152f35b9190503461075e57602036600319011261075e578060ff6108a19260a09561082c611d91565b5085358152600c6020522093825194610844866118a8565b80548652600181015460208701526002810154848701526003810154606087015201541615156080840152518092608080918051845260208101516020850152604081015160408501526060810151606085015201511515910152565bf35b8284346105bf57806003193601126105bf57908051918290600d549182855260208095018093600d84527fd7b6990105719101dabeb77144f2a3385c8033acd3af97e9423a695e81ad1eb590845b81811061094257505050816109079103826118c3565b83519485948186019282875251809352850193925b82811061092b57505050500390f35b83518552869550938101939281019260010161091c565b8254845292880192600192830192016108f1565b5050346102835781600319360112610283576020906001600160401b03601d5460881c169051908152f35b8284346105bf57506001600160401b036109a261099d366119a9565b611cf9565b835191151582529091166020820152f35b8284346105bf5760203660031901126105bf5782356001600160401b03918282116105bf57506109ed61078f6020956003933691016118fb565b90500154169051908152f35b905082346105bf57806003193601126105bf5782518092600d54808352846020809401600d86527fd7b6990105719101dabeb77144f2a3385c8033acd3af97e9423a695e81ad1eb592865b86828210610b7d57505050610a5b925003856118c3565b835191610a67836118e4565b91610a74875193846118c3565b838352601f19610a83856118e4565b0182865b828110610b6757505050845b6001600160401b039081811686811015610b0a5790610b028284610ab96001958d611d4d565b51168a52600887528b8587828d20835193610ad385611872565b610adc826119f4565b855260028201548c86015260038201549085015201541660608201526103b8828a611d4d565b500116610a93565b8985878a83519280840190808552835180925280868601968360051b870101940192955b828710610b3b5785850386f35b909192938280610b57600193603f198a82030186528851611749565b9601920196019592919092610b2e565b610b6f611a6f565b828288010152018390610a87565b855484526001958601958a955093019201610a44565b8284346105bf57806003193601126105bf57610bad6119da565b50815191610bba83611857565b6019546001600160401b031683528051601a8054808352908452602093848301917f057c384a7d1c54f3a1b2e5e67b2617b8224fdfd1ea7234eea573a6ff665ff63e915b86828210610c2c57889061023d8888610c19818a03826118c3565b8385015251928284938452830190611440565b83546001600160a01b031685529093019260019283019201610bfe565b90503461075e57602036600319011261075e579181928160c08451610c6d8161188d565b610c75611d2b565b8152610c7f611d2b565b60208201528286820152826060820152826080820152606060a0820152015235815260036020522090610cb960ff600c8401541692611bd9565b91610ccd825193838594855284019061159d565b90151560208301520390f35b5050346102835781600319360112610283576020906001600160401b03601d5460481c169051908152f35b9190503461075e5760209182600319360112610dd157610d22611a9b565b5035835260098252808320926003825194610d3c86611826565b610d45816119f4565b865260028101548587015201805490610d5d826118e4565b92610d6a855194856118c3565b828452908152848120858085015b848410610d975786890186905286518281528061023d8185018c611617565b600191600d918851610da881611857565b610db186611bd9565b815260ff600c870154161515838201528152019201920191908690610d78565b8380fd5b90503461075e57602036600319011261075e57610e089061023d9360208451610dfd81611857565b828152015235611fd8565b9051918291829190916020806040830194805184520151910152565b8383346102835781600319360112610283578290610e40611d77565b50805191610e4d83611857565b8054610e58816118e4565b90610e65845192836118c3565b8082526020928383019087527f8a35acfbc15ff81a39ae7d344fd709f28e8600b4aa8c65c6b64bfe7fe36bd19b96905b828210610ec05750505061023d945083526001600160401b0360055416908301525191829182611786565b6003856001928851610ed181611826565b8b548152848060a01b03858d01541683820152610ef060028d01611ac2565b8a820152815201980191019096610e95565b8284346105bf57806003193601126105bf57601854610f20816118e4565b90610f2d845192836118c3565b808252601f19610f3c826118e4565b01835b818110611002575050825b818110610fae575050825191602080840190808552835180925280868601968360051b870101940192955b828710610f825785850386f35b909192938280610f9e600193603f198a8203018652885161149b565b9601920196019592919092610f75565b806001917fb13d2d76d1f4b7be834882e410b3e3a8afaf69f83600ae24db354391d2378d2e0154855284602052610fe6868620611c8f565b610ff08286611d4d565b52610ffb8185611d4d565b5001610f4a565b60209061100d611c50565b82828701015201610f3f565b50503461028357816003193601126102835760209060ff601d54169051908152f35b5050346102835781600319360112610283576020906001600160401b03600554169051908152f35b505034610283578160031936011261028357602090600b549051908152f35b5050346102835781600319360112610283576020906001600160401b03601d5460081c169051908152f35b5050346102835781600319360112610283576020906012549051908152f35b505034610283578160031936011261028357602090601b549051908152f35b9190503461075e57602036600319011261075e576001600160401b038161023d94611114611a6f565b50843581526008602052209282519361112c85611872565b611135816119f4565b855260028101546020860152600381015484860152015416606083015251918291602083526020830190611749565b505034610283578160031936011261028357602090601c549051908152f35b9190503461075e5760209182600319360112610dd1578035926111a4611a9b565b506111ad611d91565b50838552600981528285209360038451956111c787611826565b6111d0816119f4565b87526002810154848801520180546111e7816118e4565b916111f4875193846118c3565b81835288528388208890858085015b8484106112e55750505050508486015260118451936308a6ad2560e01b85528401526024830152848260448173__$dd40c2ca5826d197ed7e2b6aae8146ec7b$__5af49182156112db57908561023d94939261127f97908280956112b2575b505061070990610716949551988998610100808b528a0190611617565b93880190608080918051845260208101516020850152604081015160408501526060810151606085015201511515910152565b610716955061070993506112d092503d8091833e61074281836118c3565b949092508190611262565b83513d87823e3d90fd5b600191600d918b516112f681611857565b6112ff86611bd9565b815260ff600c870154161515838201528152019201920191908690611203565b505034610283578160031936011261028357602090601f549051908152f35b505034610283578160031936011261028357602090601e549051908152f35b8284346105bf5760203660031901126105bf5750606461138660209360ff601d54169035612127565b049051908152f35b5050346102835781600319360112610283576020906001600160401b038254169051908152f35b5050346102835781600319360112610283578161023d92602083516113d981611857565b8281520152602082516113eb81611857565b8281520152610e08600254611fd8565b90503461075e57602036600319011261075e578161023d9361142d9261141f611c50565b503581528060205220611c8f565b905191829160208352602083019061149b565b60609060408301906001600160401b03815116845260209283809201519460408382015285518094520193019160005b82811061147e575050505090565b83516001600160a01b031685529381019392810192600101611470565b908151815260208201516020820152604082015160408201526001600160401b03806060840151166060830152608083015116608082015260a08201519160068310156115035760c060e0916115009460a08501520151918160c08201520190611440565b90565b634e487b7160e01b600052602160045260246000fd5b60005b83811061152c5750506000910152565b818101518382015260200161151c565b9060209161155581518092818552858086019101611519565b601f01601f1916010190565b60406020611500938161157b855185845285840190611440565b940151908281860391015260ff8151168452015191816020820152019061153c565b9060c08061160e6115cc6115ba865160e0875260e0870190611561565b60208701518682036020880152611561565b604086015160408601526001600160401b03606087015116606086015263ffffffff60e01b608087015116608086015260a086015185820360a087015261153c565b93015191015290565b61162a8151606084526060840190611440565b60208083015181850152604080930151938381840391015283519182815281810182808560051b8401019601946000925b85841061166c575050505050505090565b909192939495968580600192601f198582030187528a5190828061169784518a85528a85019061159d565b930151151591015299019401940192959493919061165b565b90815180825260208080930193019160005b8281106116d0575050505090565b83516001600160a01b0316855293810193928101926001016116c2565b908082519081815260208091019281808460051b8301019501936000915b84831061171b5750505050505090565b9091929394958480611739600193601f198682030187528a5161153c565b980193019301919493929061170b565b9060606001600160401b03816117688551608086526080860190611440565b94602081015160208601526040810151604086015201511691015290565b602091828252606092838301918051946040938484870152865180915260808601918460808360051b8901019801926000915b8383106117d8575050505050906001600160401b039101511691015290565b909192939886806118178a856001958f8f83918591607f19908503018c525180518452898060a01b03888201511688850152015193820152019061153c565b9b0193019301919392906117b9565b606081019081106001600160401b0382111761184157604052565b634e487b7160e01b600052604160045260246000fd5b604081019081106001600160401b0382111761184157604052565b608081019081106001600160401b0382111761184157604052565b60e081019081106001600160401b0382111761184157604052565b60a081019081106001600160401b0382111761184157604052565b90601f801991011681019081106001600160401b0382111761184157604052565b6001600160401b0381116118415760051b60200190565b91906040838203126119a4576040519261191484611857565b836001600160401b03823581811681036119a4578252602092838101359182116119a457019280601f850112156119a4578335611950816118e4565b9461195e60405196876118c3565b818652848087019260051b8201019283116119a4578401905b828210611985575050500152565b81356001600160a01b03811681036119a4578152908401908401611977565b600080fd5b600319906020818301126119a457600435916001600160401b0383116119a457826040920301126119a45760040190565b604051906119e782611857565b6060602083600081520152565b90604051611a0181611857565b80926001600160401b03815416825260018091019160405191828481955492838652602080960191600052856000209060005b87868210611a505750505050611a4c925003846118c3565b0152565b83546001600160a01b0316855289955090930192918101918101611a34565b60405190611a7c82611872565b6000606083611a896119da565b81528260208201528260408201520152565b60405190611aa882611826565b6060604083611ab56119da565b8152600060208201520152565b90604051906000835490600182811c90808416968715611b89575b6020948584108914611b755787988489979899529081600014611b535750600114611b14575b505050611b12925003836118c3565b565b600090815285812095935091905b818310611b3b575050611b129350820101388080611b03565b85548884018501529485019487945091830191611b22565b92505050611b1294925060ff191682840152151560051b820101388080611b03565b634e487b7160e01b85526022600452602485fd5b91607f1691611add565b9060405191611ba183611857565b602083611bad836119f4565b8152611bd1600360405194611bc186611857565b60ff600282015416865201611ac2565b828401520152565b90604051611be68161188d565b60c0600b8294611bf581611b93565b8452611c0360048201611b93565b60208501526008810154604085015260098101546001600160401b038116606086015260a01b6001600160e01b0319166080850152611c44600a8201611ac2565b60a08501520154910152565b60405190611c5d8261188d565b81600080825280602083015280604083015280606083015280608083015260a082015260c0611c8a6119da565b910152565b90604051611c9c8161188d565b809280548252600181015460208301526002810154604083015260ff60038201546001600160401b0380821660608601528160401c16608085015260801c16906006821015611503576004611c8a9160c09360a0860152016119f4565b61078f611d079136906118fb565b9015611d225760036001600160401b03910154169060019190565b50600090600090565b60405190611d3882611857565b81611d416119da565b81526020611c8a6119da565b8051821015611d615760209160051b010190565b634e487b7160e01b600052603260045260246000fd5b60405190611d8482611857565b6000602083606081520152565b60405190611d9e826118a8565b60006080838281528260208201528260408201528260608201520152565b519081151582036119a457565b909181830360e081126119a45760a0136119a4576040928351611deb816118a8565b835181526020908185015182820152858501518682015260608501516060820152611e1860808601611dbc565b60808201529460a0850151926001600160401b03938481116119a457860191601f928284820112156119a457805190611e50826118e4565b91611e5d845193846118c3565b808352868084019160051b830101918583116119a4578701905b828210611f5a575050509660c0810151908682116119a45701928281850112156119a457835191611ea7836118e4565b96611eb4825198896118c3565b838852868089019460051b870101958587116119a457878101945b878610611ee25750505050505050505090565b85518381116119a45782019087603f830112156119a4578982015190848211611f45578551611f19838901601f19168d01826118c3565b828152898784860101116119a457611f3a8c94938594898685019101611519565b815201950194611ecf565b60246000634e487b7160e01b81526041600452fd5b81516001600160a01b03811681036119a4578152908701908701611e77565b906020908183528160808160608601936001600160401b038151168288015201519460408082015285518094520193019160005b828110611fbb575050505090565b83516001600160a01b031685529381019392810192600101611fad565b60006020604051611fe881611857565b82815201526000526001602052604060002060016040519161200983611857565b805483520154602082015290565b61204e73__$a0fe38a9a81205afccc10810b09a4d3f45$__91604051906390ba52cf60e01b82528180602094859360048301611f79565b0381865af49081156120ec576000916120f8575b509061209e916000526000815280604060002093612082600486016119f4565b906040518080968194630c133d1360e31b835260048301611f79565b03915af49081156120ec576000916120b8575b5090501591565b82813d83116120e5575b6120cc81836118c3565b810103126105bf57506120de90611dbc565b80386120b1565b503d6120c2565b6040513d6000823e3d90fd5b908282813d8311612120575b61210e81836118c3565b810103126105bf57505161209e612062565b503d612104565b8181029291811591840414171561213a57565b634e487b7160e01b600052601160045260246000fdfea2646970667358221220d2d62927e139e23c0aa6d49830bb5585a9f68be25b82f3d086a501509d51c3d864736f6c63430008130033","linkReferences":{"src/lib/LibQuorum.sol":{"LibQuorum":[{"start":1700,"length":20},{"start":4685,"length":20}]},"src/lib/SubnetIDHelper.sol":{"SubnetIDHelper":[{"start":1369,"length":20},{"start":8248,"length":20}]}}},"methodIdentifiers":{"appliedTopDownNonce()":"8789f83b","bottomUpCheckPeriod()":"06c46853","bottomUpCheckpoint(uint256)":"2da5794a","bottomUpMsgsBatch(uint256)":"8481474e","bottomUpMsgsBatchPeriod()":"0d4e898c","bottomUpNonce()":"41b6a2e8","crossMsgFee()":"24729425","getAppliedTopDownNonce((uint64,address[]))":"9e530b57","getBatchMsgsRetentionHeight()":"3a5a17f7","getBatchMsgsSignatureBundle(uint256)":"13652d32","getCheckpointCurrentWeight(uint256)":"b3ab3f74","getCheckpointInfo(uint256)":"ac12d763","getCheckpointRetentionHeight()":"4aa8f8a5","getCheckpointSignatureBundle(uint256)":"ca41d5ce","getCurrentBottomUpCheckpoint()":"d6c5c397","getCurrentConfigurationNumber()":"544dddff","getCurrentMembership()":"6ad21bb0","getIncompleteBatchMsgs()":"d7acdd54","getIncompleteCheckpointHeights()":"a517218f","getIncompleteCheckpoints()":"97042766","getLastConfigurationNumber()":"b1ba49b0","getLastMembership()":"f3229131","getLatestParentFinality()":"0338150f","getNetworkName()":"94074b03","getParentFinality(uint256)":"7edeac92","getQuorumThreshold(uint256)":"06572c1a","getSubnet((uint64,address[]))":"c66c66a1","getSubnetTopDownMsgsLength((uint64,address[]))":"9d3070b5","listSubnets()":"5d029685","majorityPercentage()":"599c7bd1","maxMsgsPerBottomUpBatch()":"05aff0b3","minStake()":"375b3c0a","postbox(bytes32)":"8cfd78e7","subnets(bytes32)":"02e30f9a","totalSubnets()":"a2b67158"},"id":44}