{"abi":[{"type":"function","name":"appliedTopDownNonce","inputs":[],"outputs":[{"name":"","type":"uint64","internalType":"uint64"}],"stateMutability":"view"},{"type":"function","name":"bottomUpCheckPeriod","inputs":[],"outputs":[{"name":"","type":"uint64","internalType":"uint64"}],"stateMutability":"view"},{"type":"function","name":"bottomUpCheckpoint","inputs":[{"name":"e","type":"uint64","internalType":"uint64"}],"outputs":[{"name":"","type":"tuple","internalType":"struct BottomUpCheckpoint","components":[{"name":"subnetID","type":"tuple","internalType":"struct SubnetID","components":[{"name":"root","type":"uint64","internalType":"uint64"},{"name":"route","type":"address[]","internalType":"address[]"}]},{"name":"blockHeight","type":"uint64","internalType":"uint64"},{"name":"blockHash","type":"bytes32","internalType":"bytes32"},{"name":"nextConfigurationNumber","type":"uint64","internalType":"uint64"},{"name":"crossMessagesHash","type":"bytes32","internalType":"bytes32"}]}],"stateMutability":"view"},{"type":"function","name":"bottomUpMessages","inputs":[{"name":"e","type":"uint64","internalType":"uint64"}],"outputs":[{"name":"","type":"tuple[]","internalType":"struct CrossMsg[]","components":[{"name":"message","type":"tuple","internalType":"struct StorableMsg","components":[{"name":"from","type":"tuple","internalType":"struct IPCAddress","components":[{"name":"subnetId","type":"tuple","internalType":"struct SubnetID","components":[{"name":"root","type":"uint64","internalType":"uint64"},{"name":"route","type":"address[]","internalType":"address[]"}]},{"name":"rawAddress","type":"tuple","internalType":"struct FvmAddress","components":[{"name":"addrType","type":"uint8","internalType":"uint8"},{"name":"payload","type":"bytes","internalType":"bytes"}]}]},{"name":"to","type":"tuple","internalType":"struct IPCAddress","components":[{"name":"subnetId","type":"tuple","internalType":"struct SubnetID","components":[{"name":"root","type":"uint64","internalType":"uint64"},{"name":"route","type":"address[]","internalType":"address[]"}]},{"name":"rawAddress","type":"tuple","internalType":"struct FvmAddress","components":[{"name":"addrType","type":"uint8","internalType":"uint8"},{"name":"payload","type":"bytes","internalType":"bytes"}]}]},{"name":"value","type":"uint256","internalType":"uint256"},{"name":"nonce","type":"uint64","internalType":"uint64"},{"name":"method","type":"bytes4","internalType":"bytes4"},{"name":"params","type":"bytes","internalType":"bytes"},{"name":"fee","type":"uint256","internalType":"uint256"}]},{"name":"wrapped","type":"bool","internalType":"bool"}]}],"stateMutability":"view"},{"type":"function","name":"bottomUpNonce","inputs":[],"outputs":[{"name":"","type":"uint64","internalType":"uint64"}],"stateMutability":"view"},{"type":"function","name":"crossMsgFee","inputs":[],"outputs":[{"name":"","type":"uint256","internalType":"uint256"}],"stateMutability":"view"},{"type":"function","name":"getAppliedTopDownNonce","inputs":[{"name":"subnetId","type":"tuple","internalType":"struct SubnetID","components":[{"name":"root","type":"uint64","internalType":"uint64"},{"name":"route","type":"address[]","internalType":"address[]"}]}],"outputs":[{"name":"","type":"bool","internalType":"bool"},{"name":"","type":"uint64","internalType":"uint64"}],"stateMutability":"view"},{"type":"function","name":"getBottomUpRetentionHeight","inputs":[],"outputs":[{"name":"","type":"uint64","internalType":"uint64"}],"stateMutability":"view"},{"type":"function","name":"getCheckpointCurrentWeight","inputs":[{"name":"h","type":"uint64","internalType":"uint64"}],"outputs":[{"name":"","type":"uint256","internalType":"uint256"}],"stateMutability":"view"},{"type":"function","name":"getCheckpointInfo","inputs":[{"name":"h","type":"uint64","internalType":"uint64"}],"outputs":[{"name":"","type":"tuple","internalType":"struct CheckpointInfo","components":[{"name":"hash","type":"bytes32","internalType":"bytes32"},{"name":"rootHash","type":"bytes32","internalType":"bytes32"},{"name":"threshold","type":"uint256","internalType":"uint256"},{"name":"currentWeight","type":"uint256","internalType":"uint256"},{"name":"reached","type":"bool","internalType":"bool"}]}],"stateMutability":"view"},{"type":"function","name":"getCurrentBottomUpCheckpoint","inputs":[],"outputs":[{"name":"exists","type":"bool","internalType":"bool"},{"name":"epoch","type":"uint64","internalType":"uint64"},{"name":"checkpoint","type":"tuple","internalType":"struct BottomUpCheckpoint","components":[{"name":"subnetID","type":"tuple","internalType":"struct SubnetID","components":[{"name":"root","type":"uint64","internalType":"uint64"},{"name":"route","type":"address[]","internalType":"address[]"}]},{"name":"blockHeight","type":"uint64","internalType":"uint64"},{"name":"blockHash","type":"bytes32","internalType":"bytes32"},{"name":"nextConfigurationNumber","type":"uint64","internalType":"uint64"},{"name":"crossMessagesHash","type":"bytes32","internalType":"bytes32"}]}],"stateMutability":"view"},{"type":"function","name":"getCurrentConfigurationNumber","inputs":[],"outputs":[{"name":"","type":"uint64","internalType":"uint64"}],"stateMutability":"view"},{"type":"function","name":"getCurrentMembership","inputs":[],"outputs":[{"name":"","type":"tuple","internalType":"struct Membership","components":[{"name":"validators","type":"tuple[]","internalType":"struct Validator[]","components":[{"name":"weight","type":"uint256","internalType":"uint256"},{"name":"addr","type":"address","internalType":"address"},{"name":"metadata","type":"bytes","internalType":"bytes"}]},{"name":"configurationNumber","type":"uint64","internalType":"uint64"}]}],"stateMutability":"view"},{"type":"function","name":"getIncompleteCheckpointHeights","inputs":[],"outputs":[{"name":"","type":"uint256[]","internalType":"uint256[]"}],"stateMutability":"view"},{"type":"function","name":"getIncompleteCheckpoints","inputs":[],"outputs":[{"name":"","type":"tuple[]","internalType":"struct BottomUpCheckpoint[]","components":[{"name":"subnetID","type":"tuple","internalType":"struct SubnetID","components":[{"name":"root","type":"uint64","internalType":"uint64"},{"name":"route","type":"address[]","internalType":"address[]"}]},{"name":"blockHeight","type":"uint64","internalType":"uint64"},{"name":"blockHash","type":"bytes32","internalType":"bytes32"},{"name":"nextConfigurationNumber","type":"uint64","internalType":"uint64"},{"name":"crossMessagesHash","type":"bytes32","internalType":"bytes32"}]}],"stateMutability":"view"},{"type":"function","name":"getLastConfigurationNumber","inputs":[],"outputs":[{"name":"","type":"uint64","internalType":"uint64"}],"stateMutability":"view"},{"type":"function","name":"getLastMembership","inputs":[],"outputs":[{"name":"","type":"tuple","internalType":"struct Membership","components":[{"name":"validators","type":"tuple[]","internalType":"struct Validator[]","components":[{"name":"weight","type":"uint256","internalType":"uint256"},{"name":"addr","type":"address","internalType":"address"},{"name":"metadata","type":"bytes","internalType":"bytes"}]},{"name":"configurationNumber","type":"uint64","internalType":"uint64"}]}],"stateMutability":"view"},{"type":"function","name":"getLatestParentFinality","inputs":[],"outputs":[{"name":"","type":"tuple","internalType":"struct ParentFinality","components":[{"name":"height","type":"uint256","internalType":"uint256"},{"name":"blockHash","type":"bytes32","internalType":"bytes32"}]}],"stateMutability":"view"},{"type":"function","name":"getNetworkName","inputs":[],"outputs":[{"name":"","type":"tuple","internalType":"struct SubnetID","components":[{"name":"root","type":"uint64","internalType":"uint64"},{"name":"route","type":"address[]","internalType":"address[]"}]}],"stateMutability":"view"},{"type":"function","name":"getParentFinality","inputs":[{"name":"blockNumber","type":"uint256","internalType":"uint256"}],"outputs":[{"name":"","type":"tuple","internalType":"struct ParentFinality","components":[{"name":"height","type":"uint256","internalType":"uint256"},{"name":"blockHash","type":"bytes32","internalType":"bytes32"}]}],"stateMutability":"view"},{"type":"function","name":"getQuorumThreshold","inputs":[{"name":"totalWeight","type":"uint256","internalType":"uint256"}],"outputs":[{"name":"","type":"uint256","internalType":"uint256"}],"stateMutability":"view"},{"type":"function","name":"getSignatureBundle","inputs":[{"name":"h","type":"uint64","internalType":"uint64"}],"outputs":[{"name":"ch","type":"tuple","internalType":"struct BottomUpCheckpoint","components":[{"name":"subnetID","type":"tuple","internalType":"struct SubnetID","components":[{"name":"root","type":"uint64","internalType":"uint64"},{"name":"route","type":"address[]","internalType":"address[]"}]},{"name":"blockHeight","type":"uint64","internalType":"uint64"},{"name":"blockHash","type":"bytes32","internalType":"bytes32"},{"name":"nextConfigurationNumber","type":"uint64","internalType":"uint64"},{"name":"crossMessagesHash","type":"bytes32","internalType":"bytes32"}]},{"name":"info","type":"tuple","internalType":"struct CheckpointInfo","components":[{"name":"hash","type":"bytes32","internalType":"bytes32"},{"name":"rootHash","type":"bytes32","internalType":"bytes32"},{"name":"threshold","type":"uint256","internalType":"uint256"},{"name":"currentWeight","type":"uint256","internalType":"uint256"},{"name":"reached","type":"bool","internalType":"bool"}]},{"name":"signatories","type":"address[]","internalType":"address[]"},{"name":"signatures","type":"bytes[]","internalType":"bytes[]"}],"stateMutability":"view"},{"type":"function","name":"getSubnet","inputs":[{"name":"subnetId","type":"tuple","internalType":"struct SubnetID","components":[{"name":"root","type":"uint64","internalType":"uint64"},{"name":"route","type":"address[]","internalType":"address[]"}]}],"outputs":[{"name":"","type":"bool","internalType":"bool"},{"name":"","type":"tuple","internalType":"struct Subnet","components":[{"name":"stake","type":"uint256","internalType":"uint256"},{"name":"genesisEpoch","type":"uint256","internalType":"uint256"},{"name":"circSupply","type":"uint256","internalType":"uint256"},{"name":"topDownNonce","type":"uint64","internalType":"uint64"},{"name":"appliedBottomUpNonce","type":"uint64","internalType":"uint64"},{"name":"status","type":"uint8","internalType":"enum Status"},{"name":"id","type":"tuple","internalType":"struct SubnetID","components":[{"name":"root","type":"uint64","internalType":"uint64"},{"name":"route","type":"address[]","internalType":"address[]"}]}]}],"stateMutability":"view"},{"type":"function","name":"getSubnetTopDownMsgsLength","inputs":[{"name":"subnetId","type":"tuple","internalType":"struct SubnetID","components":[{"name":"root","type":"uint64","internalType":"uint64"},{"name":"route","type":"address[]","internalType":"address[]"}]}],"outputs":[{"name":"","type":"uint256","internalType":"uint256"}],"stateMutability":"view"},{"type":"function","name":"listSubnets","inputs":[],"outputs":[{"name":"","type":"tuple[]","internalType":"struct Subnet[]","components":[{"name":"stake","type":"uint256","internalType":"uint256"},{"name":"genesisEpoch","type":"uint256","internalType":"uint256"},{"name":"circSupply","type":"uint256","internalType":"uint256"},{"name":"topDownNonce","type":"uint64","internalType":"uint64"},{"name":"appliedBottomUpNonce","type":"uint64","internalType":"uint64"},{"name":"status","type":"uint8","internalType":"enum Status"},{"name":"id","type":"tuple","internalType":"struct SubnetID","components":[{"name":"root","type":"uint64","internalType":"uint64"},{"name":"route","type":"address[]","internalType":"address[]"}]}]}],"stateMutability":"view"},{"type":"function","name":"majorityPercentage","inputs":[],"outputs":[{"name":"","type":"uint64","internalType":"uint64"}],"stateMutability":"view"},{"type":"function","name":"minStake","inputs":[],"outputs":[{"name":"","type":"uint256","internalType":"uint256"}],"stateMutability":"view"},{"type":"function","name":"postbox","inputs":[{"name":"id","type":"bytes32","internalType":"bytes32"}],"outputs":[{"name":"storableMsg","type":"tuple","internalType":"struct StorableMsg","components":[{"name":"from","type":"tuple","internalType":"struct IPCAddress","components":[{"name":"subnetId","type":"tuple","internalType":"struct SubnetID","components":[{"name":"root","type":"uint64","internalType":"uint64"},{"name":"route","type":"address[]","internalType":"address[]"}]},{"name":"rawAddress","type":"tuple","internalType":"struct FvmAddress","components":[{"name":"addrType","type":"uint8","internalType":"uint8"},{"name":"payload","type":"bytes","internalType":"bytes"}]}]},{"name":"to","type":"tuple","internalType":"struct IPCAddress","components":[{"name":"subnetId","type":"tuple","internalType":"struct SubnetID","components":[{"name":"root","type":"uint64","internalType":"uint64"},{"name":"route","type":"address[]","internalType":"address[]"}]},{"name":"rawAddress","type":"tuple","internalType":"struct FvmAddress","components":[{"name":"addrType","type":"uint8","internalType":"uint8"},{"name":"payload","type":"bytes","internalType":"bytes"}]}]},{"name":"value","type":"uint256","internalType":"uint256"},{"name":"nonce","type":"uint64","internalType":"uint64"},{"name":"method","type":"bytes4","internalType":"bytes4"},{"name":"params","type":"bytes","internalType":"bytes"},{"name":"fee","type":"uint256","internalType":"uint256"}]},{"name":"wrapped","type":"bool","internalType":"bool"}],"stateMutability":"view"},{"type":"function","name":"subnets","inputs":[{"name":"h","type":"bytes32","internalType":"bytes32"}],"outputs":[{"name":"subnet","type":"tuple","internalType":"struct Subnet","components":[{"name":"stake","type":"uint256","internalType":"uint256"},{"name":"genesisEpoch","type":"uint256","internalType":"uint256"},{"name":"circSupply","type":"uint256","internalType":"uint256"},{"name":"topDownNonce","type":"uint64","internalType":"uint64"},{"name":"appliedBottomUpNonce","type":"uint64","internalType":"uint64"},{"name":"status","type":"uint8","internalType":"enum Status"},{"name":"id","type":"tuple","internalType":"struct SubnetID","components":[{"name":"root","type":"uint64","internalType":"uint64"},{"name":"route","type":"address[]","internalType":"address[]"}]}]}],"stateMutability":"view"},{"type":"function","name":"totalSubnets","inputs":[],"outputs":[{"name":"","type":"uint64","internalType":"uint64"}],"stateMutability":"view"}],"bytecode":{"object":"0x608060405234801561001057600080fd5b506129f2806100206000396000f3fe608060405234801561001057600080fd5b50600436106101da5760003560e01c80638cfd78e711610104578063ad8c4f74116100a2578063c66c66a111610071578063c66c66a1146104f3578063d6c5c39714610514578063f32291311461052b578063f7ceaf761461053357600080fd5b8063ad8c4f741461047f578063b1ba49b0146104a2578063b45ff172146104b3578063b932488f146104d357600080fd5b80639d3070b5116100de5780639d3070b51461040d5780639e530b5714610420578063a2b6715814610452578063a517218f1461046a57600080fd5b80638cfd78e7146103c257806394074b03146103e357806397042766146103f857600080fd5b806341b6a2e81161017c5780635d0296851161014b5780635d029685146103675780636ad21bb01461037c5780637edeac92146103915780638789f83b146103a457600080fd5b806341b6a2e8146102925780634512ff63146102a8578063544dddff1461034b578063599c7bd11461035c57600080fd5b806306c46853116101b857806306c468531461024c5780632472942514610271578063375b3c0a146102795780633e37cfa21461028157600080fd5b806302e30f9a146101df5780630338150f1461020857806306572c1a1461022b575b600080fd5b6101f26101ed366004611f8f565b61055f565b6040516101ff91906120b1565b60405180910390f35b610210610680565b604080518251815260209283015192810192909252016101ff565b61023e610239366004611f8f565b6106e4565b6040519081526020016101ff565b6016546001600160401b03165b6040516001600160401b0390911681526020016101ff565b60145461023e565b60135461023e565b600b546001600160401b0316610259565b60155461010090046001600160401b0316610259565b61033e6102b63660046120e0565b6040805160a081018252600080825260208201819052918101829052606081018290526080810191909152506001600160401b0316600090815260096020908152604091829020825160a081018452815481526001820154928101929092526002810154928201929092526003820154606082015260049091015460ff161515608082015290565b6040516101ff91906120fb565b6005546001600160401b0316610259565b60155460ff16610259565b61036f6106fe565b6040516101ff9190612136565b6103846108ca565b6040516101ff91906121e0565b61021061039f366004611f8f565b610a0f565b601554690100000000000000000090046001600160401b0316610259565b6103d56103d0366004611f8f565b610a5a565b6040516101ff92919061235c565b6103eb610def565b6040516101ff9190612380565b610400610e84565b6040516101ff91906123eb565b61023e61041b36600461258b565b61102f565b61043361042e3660046125bf565b611050565b6040805192151583526001600160401b039091166020830152016101ff565b601554600160881b90046001600160401b0316610259565b610472611096565b6040516101ff91906125f9565b61049261048d3660046120e0565b6110a2565b6040516101ff949392919061263d565b6007546001600160401b0316610259565b6104c66104c13660046120e0565b611384565b6040516101ff919061272c565b6104e66104e13660046120e0565b611462565b6040516101ff919061273f565b6105066105013660046125bf565b61184e565b6040516101ff9291906127b9565b61051c611971565b6040516101ff939291906127d4565b610384611990565b61023e6105413660046120e0565b6001600160401b031660009081526009602052604090206003015490565b610567611e79565b60008281526020818152604091829020825160e0810184528154815260018201549281019290925260028101549282019290925260038201546001600160401b038082166060840152600160401b820416608083015290919060a0830190600160801b900460ff1660058111156105e0576105e0611fa8565b60058111156105f1576105f1611fa8565b81526040805180820182526004840180546001600160401b0316825260058501805484516020828102820181019096528181529585019593949293858401939092919083018282801561066d57602002820191906000526020600020905b81546001600160a01b0316815260019091019060200180831161064f575b5050509190925250505090525092915050565b60408051808201909152600080825260208201526106df60408051808201825260008082526020918201819052600254835180850185528281528301829052815260018083529083902083518085019094528054845201549082015290565b905090565b6015546000906106f890839060ff16611ab3565b92915050565b6010546060906000816001600160401b0381111561071e5761071e612442565b60405190808252806020026020018201604052801561075757816020015b610744611e79565b81526020019060019003908161073c5790505b50905060005b828110156108c357600080601001828154811061077c5761077c6127fe565b6000918252602080832090910154808352828252604092839020835160e0810185528154815260018201549381019390935260028101549383019390935260038301546001600160401b038082166060850152600160401b820416608084015290935090919060a083019060ff600160801b90910416600581111561080357610803611fa8565b600581111561081457610814611fa8565b81526040805180820182526004840180546001600160401b0316825260058501805484516020828102820181019096528181529585019593949293858401939092919083018282801561089057602002820191906000526020600020905b81546001600160a01b03168152600190910190602001808311610872575b505050505081525050815250508383815181106108af576108af6127fe565b60209081029190910101525060010161075d565b5092915050565b60408051808201909152606081526000602082015260408051600480546060602082028401810185529383018181529293919284929091849160009085015b828210156109ed57600084815260209081902060408051606081018252600386029092018054835260018101546001600160a01b0316938301939093526002830180549293929184019161095c90612814565b80601f016020809104026020016040519081016040528092919081815260200182805461098890612814565b80156109d55780601f106109aa576101008083540402835291602001916109d5565b820191906000526020600020905b8154815290600101906020018083116109b857829003601f168201915b50505050508152505081526020019060010190610909565b50505090825250600191909101546001600160401b0316602090910152919050565b604080518082018252600080825260208083018290528351808501855282815281018290528482526001808252918490208451808601909552805485529091015490830152906106f8565b610a62611ec8565b6000828152600360209081526040808320600c81015482516101608101845282546001600160401b03166101208201908152600184018054865181890281018901909752808752949660ff9094169592948794869460e086019487948694919386936101408a0193909291830182828015610b0657602002820191906000526020600020905b81546001600160a01b03168152600190910190602001808311610ae8575b5050509190925250505081526040805180820190915260028301805460ff16825260038401805460209485019484019190610b4090612814565b80601f0160208091040260200160405190810160405280929190818152602001828054610b6c90612814565b8015610bb95780601f10610b8e57610100808354040283529160200191610bb9565b820191906000526020600020905b815481529060010190602001808311610b9c57829003601f168201915b505050919092525050509052508152604080516080810182526004840180546001600160401b0316828401908152600586018054855160208281028201810190975281815296860196949593948694869360608701939091830182828015610c4a57602002820191906000526020600020905b81546001600160a01b03168152600190910190602001808311610c2c575b5050509190925250505081526040805180820190915260028301805460ff16825260038401805460209485019484019190610c8490612814565b80601f0160208091040260200160405190810160405280929190818152602001828054610cb090612814565b8015610cfd5780601f10610cd257610100808354040283529160200191610cfd565b820191906000526020600020905b815481529060010190602001808311610ce057829003601f168201915b5050509190925250505090525081526008820154602082015260098201546001600160401b0381166040830152600160401b900460e01b6001600160e01b0319166060820152600a82018054608090920191610d5890612814565b80601f0160208091040260200160405190810160405280929190818152602001828054610d8490612814565b8015610dd15780601f10610da657610100808354040283529160200191610dd1565b820191906000526020600020905b815481529060010190602001808311610db457829003601f168201915b50505050508152602001600b82015481525050915091509150915091565b604080518082019091526000815260606020820152604080518082018252601180546001600160401b03168252601280548451602082810282018101909652818152939492938386019390929190830182828015610e7657602002820191906000526020600020905b81546001600160a01b03168152600190910190602001808311610e58575b505050505081525050905090565b60606000610e92600c611ad2565b80519091506000816001600160401b03811115610eb157610eb1612442565b604051908082528060200260200182016040528015610eea57816020015b610ed7611f10565b815260200190600190039081610ecf5790505b50905060005b82816001600160401b03161015611027576000600801600085836001600160401b031681518110610f2357610f236127fe565b6020908102919091018101516001600160401b039081168352828201939093526040918201600020825160e081018452815490941660a08501908152600182018054855181860281018601909652808652929486949293869360c08701939190830182828015610fbc57602002820191906000526020600020905b81546001600160a01b03168152600190910190602001808311610f9e575b50505091909252505050815260028201546001600160401b03908116602083015260038301546040830152600483015481166060830152600590920154608090910152835184918416908110611014576110146127fe565b6020908102919091010152600101610ef0565b509392505050565b60008061103b83611adf565b600301546001600160401b0316949350505050565b60008080806110666110618661284e565b611adf565b915091508161107c575060009485945092505050565b600301546001956001600160401b03909116945092505050565b60606106df600c611ad2565b6110aa611f10565b6040805160a0810182526000808252602082018190529181018290526060810182905260808101919091526001600160401b03808416600090815260086020908152604091829020825160e081018452815490941660a0850190815260018201805485518186028101860190965280865260609687969095869493869360c08701939283018282801561116657602002820191906000526020600020905b81546001600160a01b03168152600190910190602001808311611148575b5050509190925250505081526002828101546001600160401b039081166020808501919091526003808601546040808701919091526004808801548516606080890191909152600590980154608097880152938d16600081815260098552828120835160a0810185528154815260018201548188015297810154888501529384015498870198909852919093015460ff16151594840194909452928452600e9092529120919550935061121890611ad2565b8051909250806001600160401b0381111561123557611235612442565b60405190808252806020026020018201604052801561126857816020015b60608152602001906001900390816112535790505b50915060005b8181101561137b576001600160401b0387166000908152600f6020526040812085519091908690849081106112a5576112a56127fe565b60200260200101516001600160a01b03166001600160a01b0316815260200190815260200160002080546112d890612814565b80601f016020809104026020016040519081016040528092919081815260200182805461130490612814565b80156113515780601f1061132657610100808354040283529160200191611351565b820191906000526020600020905b81548152906001019060200180831161133457829003601f168201915b5050505050838281518110611368576113686127fe565b602090810291909101015260010161126e565b50509193509193565b61138c611f10565b6001600160401b03808316600090815260086020908152604091829020825160e081018452815490941660a08501908152600182018054855181860281018601909652808652929486949293869360c0870193919083018282801561141a57602002820191906000526020600020905b81546001600160a01b031681526001909101906020018083116113fc575b50505091909252505050815260028201546001600160401b03908116602083015260038301546040830152600483015416606082015260059091015460809091015292915050565b6001600160401b0381166000908152600a60209081526040808320805482518185028101850190935280835260609492939192909184015b82821015611843576000848152602090819020604080516101a081018252600d860290920180546001600160401b031661016084019081526001820180548451818802810188018652818152959693958795860194879486946101208901948794869486936101808d0193909183018282801561154057602002820191906000526020600020905b81546001600160a01b03168152600190910190602001808311611522575b5050509190925250505081526040805180820190915260028301805460ff1682526003840180546020948501948401919061157a90612814565b80601f01602080910402602001604051908101604052809291908181526020018280546115a690612814565b80156115f35780601f106115c8576101008083540402835291602001916115f3565b820191906000526020600020905b8154815290600101906020018083116115d657829003601f168201915b505050919092525050509052508152604080516080810182526004840180546001600160401b031682840190815260058601805485516020828102820181019097528181529686019694959394869486936060870193909183018282801561168457602002820191906000526020600020905b81546001600160a01b03168152600190910190602001808311611666575b5050509190925250505081526040805180820190915260028301805460ff168252600384018054602094850194840191906116be90612814565b80601f01602080910402602001604051908101604052809291908181526020018280546116ea90612814565b80156117375780601f1061170c57610100808354040283529160200191611737565b820191906000526020600020905b81548152906001019060200180831161171a57829003601f168201915b5050509190925250505090525081526008820154602082015260098201546001600160401b0381166040830152600160401b900460e01b6001600160e01b0319166060820152600a8201805460809092019161179290612814565b80601f01602080910402602001604051908101604052809291908181526020018280546117be90612814565b801561180b5780601f106117e05761010080835404028352916020019161180b565b820191906000526020600020905b8154815290600101906020018083116117ee57829003601f168201915b5050509183525050600b9190910154602091820152908252600c929092015460ff16151590820152908252600192909201910161149a565b505050509050919050565b6000611858611e79565b6118646110618461284e565b6040805160e081018252825481526001830154602082015260028301549181019190915260038201546001600160401b038082166060840152600160401b8204166080830152829060a0830190600160801b900460ff1660058111156118cc576118cc611fa8565b60058111156118dd576118dd611fa8565b81526040805180820182526004840180546001600160401b0316825260058501805484516020828102820181019096528181529585019593949293858401939092919083018282801561195957602002820191906000526020600020905b81546001600160a01b0316815260019091019060200180831161193b575b50505050508152505081525050905091509150915091565b60008061197c611f10565b611984611c72565b91959094509092509050565b60408051808201909152606081526000602082015260408051600680546060602082028401810185529383018181529293919284929091849160009085015b828210156109ed57600084815260209081902060408051606081018252600386029092018054835260018101546001600160a01b03169383019390935260028301805492939291840191611a2290612814565b80601f0160208091040260200160405190810160405280929190818152602001828054611a4e90612814565b8015611a9b5780601f10611a7057610100808354040283529160200191611a9b565b820191906000526020600020905b815481529060010190602001808311611a7e57829003601f168201915b505050505081525050815260200190600101906119cf565b60006064611ac18385612870565b611acb919061289d565b9392505050565b60606000611acb83611dfb565b6040516390ba52cf60e01b8152600090819081908190819073__$a0fe38a9a81205afccc10810b09a4d3f45$__906390ba52cf90611b219089906004016128b1565b602060405180830381865af4158015611b3e573d6000803e3d6000fd5b505050506040513d601f19601f82011682018060405250810190611b629190612910565b81526020808201929092526040908101600020815180830183526004820180546001600160401b031682526005830180548551818802810188019096528086529397509194909385820193909291830182828015611be957602002820191906000526020600020905b81546001600160a01b03168152600190910190602001808311611bcb575b505050919092525050604051630c133d1360e31b815273__$a0fe38a9a81205afccc10810b09a4d3f45$__92636099e8989250611c28916004016128b1565b602060405180830381865af4158015611c45573d6000803e3d6000fd5b505050506040513d601f19601f82011682018060405250810190611c699190612929565b15925050915091565b600080611c7d611f10565b601654600090611c979043906001600160401b0316611e57565b6001600160401b038082166000908152600884016020908152604091829020825160e081018452815490941660a085019081526001820180548551818602810186019096528086529699509495919486949193869360c08701939291830182828015611d2c57602002820191906000526020600020905b81546001600160a01b03168152600190910190602001808311611d0e575b50505091909252505050815260028201546001600160401b0390811660208301526003830154604080840191909152600480850154909216606084015260059093015460809092019190915282519151630c133d1360e31b815292945073__$a0fe38a9a81205afccc10810b09a4d3f45$__92636099e89892611db1929091016128b1565b602060405180830381865af4158015611dce573d6000803e3d6000fd5b505050506040513d601f19601f82011682018060405250810190611df29190612929565b15935050909192565b606081600001805480602002602001604051908101604052809291908181526020018280548015611e4b57602002820191906000526020600020905b815481526020019060010190808311611e37575b50505050509050919050565b600081611e64818561294b565b611e6f906001612971565b611acb9190612991565b6040805160e0810182526000808252602080830182905282840182905260608084018390526080840183905260a0840183905284518086019095529184528301529060c082015290565b905290565b6040518060e00160405280611edb611f4f565b8152602001611ee8611f4f565b8152600060208201819052604082018190526060808301829052608083015260a09091015290565b6040805160e08101909152600060a08201908152606060c083015281908152600060208201819052604082018190526060820181905260809091015290565b6040805160808101825260009181019182526060808201529081908152602001611ec36040518060400160405280600060ff168152602001606081525090565b600060208284031215611fa157600080fd5b5035919050565b634e487b7160e01b600052602160045260246000fd5b6000604083016001600160401b03835116845260208084015160406020870152828151808552606088019150602083019450600092505b8083101561201e5784516001600160a01b03168252938301936001929092019190830190611ff5565b509695505050505050565b805182526020810151602083015260408101516040830152600060608201516001600160401b038082166060860152806080850151166080860152505060a08201516006811061208957634e487b7160e01b600052602160045260246000fd5b8060a08501525060c082015160e060c08501526120a960e0850182611fbe565b949350505050565b602081526000611acb6020830184612029565b80356001600160401b03811681146120db57600080fd5b919050565b6000602082840312156120f257600080fd5b611acb826120c4565b60a081016106f88284805182526020810151602083015260408101516040830152606081015160608301526080810151151560808301525050565b600060208083016020845280855180835260408601915060408160051b87010192506020870160005b8281101561218d57603f1988860301845261217b858351612029565b9450928501929085019060010161215f565b5092979650505050505050565b6000815180845260005b818110156121c0576020818501810151868301820152016121a4565b506000602082860101526020601f19601f83011685010191505092915050565b60006020808352606080840185516040808588015282825180855260808901915060808160051b8a01019450868401935060005b8181101561226457898603607f19018352845180518752888101516001600160a01b0316898801528401518487018890526122518888018261219a565b9650509387019391870191600101612214565b50505050928601516001600160401b038116604087015292505b95945050505050565b600081516040845261229c6040850182611fbe565b90506020830151848203602086015260ff8151168252602081015190506040602083015261227e604083018261219a565b6000815160e084526122e260e0850182612287565b9050602083015184820360208601526122fb8282612287565b915050604083015160408501526001600160401b03606084015116606085015263ffffffff60e01b608084015116608085015260a083015184820360a0860152612345828261219a565b91505060c083015160c08501528091505092915050565b60408152600061236f60408301856122cd565b905082151560208301529392505050565b602081526000611acb6020830184611fbe565b6000815160a084526123a860a0850182611fbe565b905060208301516001600160401b038082166020870152604085015160408701528060608601511660608701525050608083015160808501528091505092915050565b600060208083016020845280855180835260408601915060408160051b87010192506020870160005b8281101561218d57603f19888603018452612430858351612393565b94509285019290850190600101612414565b634e487b7160e01b600052604160045260246000fd5b604080519081016001600160401b038111828210171561247a5761247a612442565b60405290565b604051601f8201601f191681016001600160401b03811182821017156124a8576124a8612442565b604052919050565b6000604082840312156124c257600080fd5b6124ca612458565b90506124d5826120c4565b81526020808301356001600160401b03808211156124f257600080fd5b818501915085601f83011261250657600080fd5b81358181111561251857612518612442565b8060051b9150612529848301612480565b818152918301840191848101908884111561254357600080fd5b938501935b8385101561257a57843592506001600160a01b038316831461256a5760008081fd5b8282529385019390850190612548565b808688015250505050505092915050565b60006020828403121561259d57600080fd5b81356001600160401b038111156125b357600080fd5b6120a9848285016124b0565b6000602082840312156125d157600080fd5b81356001600160401b038111156125e757600080fd5b820160408185031215611acb57600080fd5b6020808252825182820181905260009190848201906040850190845b8181101561263157835183529284019291840191600101612615565b50909695505050505050565b600061010080835261265181840188612393565b9050602061268e81850188805182526020810151602083015260408101516040830152606081015160608301526080810151151560808301525050565b83820360c085015285518083528187019282019060005b818110156126ca5784516001600160a01b0316835293830193918301916001016126a5565b505084810360e086015285518082528282019350600581901b8201830183880160005b8381101561271b57601f1985840301875261270983835161219a565b968601969250908501906001016126ed565b50909b9a5050505050505050505050565b602081526000611acb6020830184612393565b600060208083018184528085518083526040925060408601915060408160051b87010184880160005b838110156127ab57888303603f190185528151805187855261278c888601826122cd565b9189015115159489019490945294870194925090860190600101612768565b509098975050505050505050565b82151581526040602082015260006120a96040830184612029565b83151581526001600160401b038316602082015260606040820152600061227e6060830184612393565b634e487b7160e01b600052603260045260246000fd5b600181811c9082168061282857607f821691505b60208210810361284857634e487b7160e01b600052602260045260246000fd5b50919050565b60006106f836836124b0565b634e487b7160e01b600052601160045260246000fd5b80820281158282048414176106f8576106f861285a565b634e487b7160e01b600052601260045260246000fd5b6000826128ac576128ac612887565b500490565b602080825282516001600160401b0316828201528281015160408084015280516060840181905260009291820190839060808601905b8083101561201e5783516001600160a01b031682529284019260019290920191908401906128e7565b60006020828403121561292257600080fd5b5051919050565b60006020828403121561293b57600080fd5b81518015158114611acb57600080fd5b60006001600160401b038084168061296557612965612887565b92169190910492915050565b6001600160401b038181168382160190808211156108c3576108c361285a565b6001600160401b038181168382160280821691908281146129b4576129b461285a565b50509291505056fea264697066735822122022bfd5bed0be806ac4e73325807f49c2eb6501b4d63c4b6ed942147f2ab2e00c64736f6c63430008160033","linkReferences":{"src/lib/SubnetIDHelper.sol":{"SubnetIDHelper":[{"start":6937,"length":20},{"start":7201,"length":20},{"start":7595,"length":20}]}}},"methodIdentifiers":{"appliedTopDownNonce()":"8789f83b","bottomUpCheckPeriod()":"06c46853","bottomUpCheckpoint(uint64)":"b45ff172","bottomUpMessages(uint64)":"b932488f","bottomUpNonce()":"41b6a2e8","crossMsgFee()":"24729425","getAppliedTopDownNonce((uint64,address[]))":"9e530b57","getBottomUpRetentionHeight()":"3e37cfa2","getCheckpointCurrentWeight(uint64)":"f7ceaf76","getCheckpointInfo(uint64)":"4512ff63","getCurrentBottomUpCheckpoint()":"d6c5c397","getCurrentConfigurationNumber()":"544dddff","getCurrentMembership()":"6ad21bb0","getIncompleteCheckpointHeights()":"a517218f","getIncompleteCheckpoints()":"97042766","getLastConfigurationNumber()":"b1ba49b0","getLastMembership()":"f3229131","getLatestParentFinality()":"0338150f","getNetworkName()":"94074b03","getParentFinality(uint256)":"7edeac92","getQuorumThreshold(uint256)":"06572c1a","getSignatureBundle(uint64)":"ad8c4f74","getSubnet((uint64,address[]))":"c66c66a1","getSubnetTopDownMsgsLength((uint64,address[]))":"9d3070b5","listSubnets()":"5d029685","majorityPercentage()":"599c7bd1","minStake()":"375b3c0a","postbox(bytes32)":"8cfd78e7","subnets(bytes32)":"02e30f9a","totalSubnets()":"a2b67158"},"id":44}