{"abi":[{"type":"function","name":"appliedTopDownNonce","inputs":[],"outputs":[{"name":"","type":"uint64","internalType":"uint64"}],"stateMutability":"view"},{"type":"function","name":"bottomUpCheckPeriod","inputs":[],"outputs":[{"name":"","type":"uint256","internalType":"uint256"}],"stateMutability":"view"},{"type":"function","name":"bottomUpCheckpoint","inputs":[{"name":"e","type":"uint256","internalType":"uint256"}],"outputs":[{"name":"","type":"tuple","internalType":"struct BottomUpCheckpoint","components":[{"name":"subnetID","type":"tuple","internalType":"struct SubnetID","components":[{"name":"root","type":"uint64","internalType":"uint64"},{"name":"route","type":"address[]","internalType":"address[]"}]},{"name":"blockHeight","type":"uint256","internalType":"uint256"},{"name":"blockHash","type":"bytes32","internalType":"bytes32"},{"name":"nextConfigurationNumber","type":"uint64","internalType":"uint64"}]}],"stateMutability":"view"},{"type":"function","name":"bottomUpMsgBatch","inputs":[{"name":"e","type":"uint256","internalType":"uint256"}],"outputs":[{"name":"","type":"tuple","internalType":"struct BottomUpMsgBatch","components":[{"name":"subnetID","type":"tuple","internalType":"struct SubnetID","components":[{"name":"root","type":"uint64","internalType":"uint64"},{"name":"route","type":"address[]","internalType":"address[]"}]},{"name":"blockHeight","type":"uint256","internalType":"uint256"},{"name":"msgs","type":"tuple[]","internalType":"struct CrossMsg[]","components":[{"name":"message","type":"tuple","internalType":"struct StorableMsg","components":[{"name":"from","type":"tuple","internalType":"struct IPCAddress","components":[{"name":"subnetId","type":"tuple","internalType":"struct SubnetID","components":[{"name":"root","type":"uint64","internalType":"uint64"},{"name":"route","type":"address[]","internalType":"address[]"}]},{"name":"rawAddress","type":"tuple","internalType":"struct FvmAddress","components":[{"name":"addrType","type":"uint8","internalType":"uint8"},{"name":"payload","type":"bytes","internalType":"bytes"}]}]},{"name":"to","type":"tuple","internalType":"struct IPCAddress","components":[{"name":"subnetId","type":"tuple","internalType":"struct SubnetID","components":[{"name":"root","type":"uint64","internalType":"uint64"},{"name":"route","type":"address[]","internalType":"address[]"}]},{"name":"rawAddress","type":"tuple","internalType":"struct FvmAddress","components":[{"name":"addrType","type":"uint8","internalType":"uint8"},{"name":"payload","type":"bytes","internalType":"bytes"}]}]},{"name":"value","type":"uint256","internalType":"uint256"},{"name":"nonce","type":"uint64","internalType":"uint64"},{"name":"method","type":"bytes4","internalType":"bytes4"},{"name":"params","type":"bytes","internalType":"bytes"},{"name":"fee","type":"uint256","internalType":"uint256"}]},{"name":"wrapped","type":"bool","internalType":"bool"}]}]}],"stateMutability":"view"},{"type":"function","name":"bottomUpMsgBatchPeriod","inputs":[],"outputs":[{"name":"","type":"uint256","internalType":"uint256"}],"stateMutability":"view"},{"type":"function","name":"bottomUpNonce","inputs":[],"outputs":[{"name":"","type":"uint64","internalType":"uint64"}],"stateMutability":"view"},{"type":"function","name":"crossMsgFee","inputs":[],"outputs":[{"name":"","type":"uint256","internalType":"uint256"}],"stateMutability":"view"},{"type":"function","name":"getAppliedTopDownNonce","inputs":[{"name":"subnetId","type":"tuple","internalType":"struct SubnetID","components":[{"name":"root","type":"uint64","internalType":"uint64"},{"name":"route","type":"address[]","internalType":"address[]"}]}],"outputs":[{"name":"","type":"bool","internalType":"bool"},{"name":"","type":"uint64","internalType":"uint64"}],"stateMutability":"view"},{"type":"function","name":"getBottomUpMsgBatchCurrentWeight","inputs":[{"name":"h","type":"uint256","internalType":"uint256"}],"outputs":[{"name":"","type":"uint256","internalType":"uint256"}],"stateMutability":"view"},{"type":"function","name":"getBottomUpMsgBatchInfo","inputs":[{"name":"h","type":"uint256","internalType":"uint256"}],"outputs":[{"name":"","type":"tuple","internalType":"struct QuorumInfo","components":[{"name":"hash","type":"bytes32","internalType":"bytes32"},{"name":"rootHash","type":"bytes32","internalType":"bytes32"},{"name":"threshold","type":"uint256","internalType":"uint256"},{"name":"currentWeight","type":"uint256","internalType":"uint256"},{"name":"reached","type":"bool","internalType":"bool"}]}],"stateMutability":"view"},{"type":"function","name":"getBottomUpMsgBatchSignatureBundle","inputs":[{"name":"h","type":"uint256","internalType":"uint256"}],"outputs":[{"name":"batch","type":"tuple","internalType":"struct BottomUpMsgBatch","components":[{"name":"subnetID","type":"tuple","internalType":"struct SubnetID","components":[{"name":"root","type":"uint64","internalType":"uint64"},{"name":"route","type":"address[]","internalType":"address[]"}]},{"name":"blockHeight","type":"uint256","internalType":"uint256"},{"name":"msgs","type":"tuple[]","internalType":"struct CrossMsg[]","components":[{"name":"message","type":"tuple","internalType":"struct StorableMsg","components":[{"name":"from","type":"tuple","internalType":"struct IPCAddress","components":[{"name":"subnetId","type":"tuple","internalType":"struct SubnetID","components":[{"name":"root","type":"uint64","internalType":"uint64"},{"name":"route","type":"address[]","internalType":"address[]"}]},{"name":"rawAddress","type":"tuple","internalType":"struct FvmAddress","components":[{"name":"addrType","type":"uint8","internalType":"uint8"},{"name":"payload","type":"bytes","internalType":"bytes"}]}]},{"name":"to","type":"tuple","internalType":"struct IPCAddress","components":[{"name":"subnetId","type":"tuple","internalType":"struct SubnetID","components":[{"name":"root","type":"uint64","internalType":"uint64"},{"name":"route","type":"address[]","internalType":"address[]"}]},{"name":"rawAddress","type":"tuple","internalType":"struct FvmAddress","components":[{"name":"addrType","type":"uint8","internalType":"uint8"},{"name":"payload","type":"bytes","internalType":"bytes"}]}]},{"name":"value","type":"uint256","internalType":"uint256"},{"name":"nonce","type":"uint64","internalType":"uint64"},{"name":"method","type":"bytes4","internalType":"bytes4"},{"name":"params","type":"bytes","internalType":"bytes"},{"name":"fee","type":"uint256","internalType":"uint256"}]},{"name":"wrapped","type":"bool","internalType":"bool"}]}]},{"name":"info","type":"tuple","internalType":"struct QuorumInfo","components":[{"name":"hash","type":"bytes32","internalType":"bytes32"},{"name":"rootHash","type":"bytes32","internalType":"bytes32"},{"name":"threshold","type":"uint256","internalType":"uint256"},{"name":"currentWeight","type":"uint256","internalType":"uint256"},{"name":"reached","type":"bool","internalType":"bool"}]},{"name":"signatories","type":"address[]","internalType":"address[]"},{"name":"signatures","type":"bytes[]","internalType":"bytes[]"}],"stateMutability":"view"},{"type":"function","name":"getBottomUpMsgRetentionHeight","inputs":[],"outputs":[{"name":"","type":"uint256","internalType":"uint256"}],"stateMutability":"view"},{"type":"function","name":"getCheckpointCurrentWeight","inputs":[{"name":"h","type":"uint256","internalType":"uint256"}],"outputs":[{"name":"","type":"uint256","internalType":"uint256"}],"stateMutability":"view"},{"type":"function","name":"getCheckpointInfo","inputs":[{"name":"h","type":"uint256","internalType":"uint256"}],"outputs":[{"name":"","type":"tuple","internalType":"struct QuorumInfo","components":[{"name":"hash","type":"bytes32","internalType":"bytes32"},{"name":"rootHash","type":"bytes32","internalType":"bytes32"},{"name":"threshold","type":"uint256","internalType":"uint256"},{"name":"currentWeight","type":"uint256","internalType":"uint256"},{"name":"reached","type":"bool","internalType":"bool"}]}],"stateMutability":"view"},{"type":"function","name":"getCheckpointRetentionHeight","inputs":[],"outputs":[{"name":"","type":"uint256","internalType":"uint256"}],"stateMutability":"view"},{"type":"function","name":"getCheckpointSignatureBundle","inputs":[{"name":"h","type":"uint256","internalType":"uint256"}],"outputs":[{"name":"ch","type":"tuple","internalType":"struct BottomUpCheckpoint","components":[{"name":"subnetID","type":"tuple","internalType":"struct SubnetID","components":[{"name":"root","type":"uint64","internalType":"uint64"},{"name":"route","type":"address[]","internalType":"address[]"}]},{"name":"blockHeight","type":"uint256","internalType":"uint256"},{"name":"blockHash","type":"bytes32","internalType":"bytes32"},{"name":"nextConfigurationNumber","type":"uint64","internalType":"uint64"}]},{"name":"info","type":"tuple","internalType":"struct QuorumInfo","components":[{"name":"hash","type":"bytes32","internalType":"bytes32"},{"name":"rootHash","type":"bytes32","internalType":"bytes32"},{"name":"threshold","type":"uint256","internalType":"uint256"},{"name":"currentWeight","type":"uint256","internalType":"uint256"},{"name":"reached","type":"bool","internalType":"bool"}]},{"name":"signatories","type":"address[]","internalType":"address[]"},{"name":"signatures","type":"bytes[]","internalType":"bytes[]"}],"stateMutability":"view"},{"type":"function","name":"getCurrentBottomUpCheckpoint","inputs":[],"outputs":[{"name":"exists","type":"bool","internalType":"bool"},{"name":"epoch","type":"uint256","internalType":"uint256"},{"name":"checkpoint","type":"tuple","internalType":"struct BottomUpCheckpoint","components":[{"name":"subnetID","type":"tuple","internalType":"struct SubnetID","components":[{"name":"root","type":"uint64","internalType":"uint64"},{"name":"route","type":"address[]","internalType":"address[]"}]},{"name":"blockHeight","type":"uint256","internalType":"uint256"},{"name":"blockHash","type":"bytes32","internalType":"bytes32"},{"name":"nextConfigurationNumber","type":"uint64","internalType":"uint64"}]}],"stateMutability":"view"},{"type":"function","name":"getCurrentConfigurationNumber","inputs":[],"outputs":[{"name":"","type":"uint64","internalType":"uint64"}],"stateMutability":"view"},{"type":"function","name":"getCurrentMembership","inputs":[],"outputs":[{"name":"","type":"tuple","internalType":"struct Membership","components":[{"name":"validators","type":"tuple[]","internalType":"struct Validator[]","components":[{"name":"weight","type":"uint256","internalType":"uint256"},{"name":"addr","type":"address","internalType":"address"},{"name":"metadata","type":"bytes","internalType":"bytes"}]},{"name":"configurationNumber","type":"uint64","internalType":"uint64"}]}],"stateMutability":"view"},{"type":"function","name":"getIncompleteCheckpointHeights","inputs":[],"outputs":[{"name":"","type":"uint256[]","internalType":"uint256[]"}],"stateMutability":"view"},{"type":"function","name":"getIncompleteCheckpoints","inputs":[],"outputs":[{"name":"","type":"tuple[]","internalType":"struct BottomUpCheckpoint[]","components":[{"name":"subnetID","type":"tuple","internalType":"struct SubnetID","components":[{"name":"root","type":"uint64","internalType":"uint64"},{"name":"route","type":"address[]","internalType":"address[]"}]},{"name":"blockHeight","type":"uint256","internalType":"uint256"},{"name":"blockHash","type":"bytes32","internalType":"bytes32"},{"name":"nextConfigurationNumber","type":"uint64","internalType":"uint64"}]}],"stateMutability":"view"},{"type":"function","name":"getIncompleteMsgBatchHeights","inputs":[],"outputs":[{"name":"","type":"uint256[]","internalType":"uint256[]"}],"stateMutability":"view"},{"type":"function","name":"getIncompleteMsgBatches","inputs":[],"outputs":[{"name":"","type":"tuple[]","internalType":"struct BottomUpMsgBatch[]","components":[{"name":"subnetID","type":"tuple","internalType":"struct SubnetID","components":[{"name":"root","type":"uint64","internalType":"uint64"},{"name":"route","type":"address[]","internalType":"address[]"}]},{"name":"blockHeight","type":"uint256","internalType":"uint256"},{"name":"msgs","type":"tuple[]","internalType":"struct CrossMsg[]","components":[{"name":"message","type":"tuple","internalType":"struct StorableMsg","components":[{"name":"from","type":"tuple","internalType":"struct IPCAddress","components":[{"name":"subnetId","type":"tuple","internalType":"struct SubnetID","components":[{"name":"root","type":"uint64","internalType":"uint64"},{"name":"route","type":"address[]","internalType":"address[]"}]},{"name":"rawAddress","type":"tuple","internalType":"struct FvmAddress","components":[{"name":"addrType","type":"uint8","internalType":"uint8"},{"name":"payload","type":"bytes","internalType":"bytes"}]}]},{"name":"to","type":"tuple","internalType":"struct IPCAddress","components":[{"name":"subnetId","type":"tuple","internalType":"struct SubnetID","components":[{"name":"root","type":"uint64","internalType":"uint64"},{"name":"route","type":"address[]","internalType":"address[]"}]},{"name":"rawAddress","type":"tuple","internalType":"struct FvmAddress","components":[{"name":"addrType","type":"uint8","internalType":"uint8"},{"name":"payload","type":"bytes","internalType":"bytes"}]}]},{"name":"value","type":"uint256","internalType":"uint256"},{"name":"nonce","type":"uint64","internalType":"uint64"},{"name":"method","type":"bytes4","internalType":"bytes4"},{"name":"params","type":"bytes","internalType":"bytes"},{"name":"fee","type":"uint256","internalType":"uint256"}]},{"name":"wrapped","type":"bool","internalType":"bool"}]}]}],"stateMutability":"view"},{"type":"function","name":"getLastConfigurationNumber","inputs":[],"outputs":[{"name":"","type":"uint64","internalType":"uint64"}],"stateMutability":"view"},{"type":"function","name":"getLastMembership","inputs":[],"outputs":[{"name":"","type":"tuple","internalType":"struct Membership","components":[{"name":"validators","type":"tuple[]","internalType":"struct Validator[]","components":[{"name":"weight","type":"uint256","internalType":"uint256"},{"name":"addr","type":"address","internalType":"address"},{"name":"metadata","type":"bytes","internalType":"bytes"}]},{"name":"configurationNumber","type":"uint64","internalType":"uint64"}]}],"stateMutability":"view"},{"type":"function","name":"getLatestParentFinality","inputs":[],"outputs":[{"name":"","type":"tuple","internalType":"struct ParentFinality","components":[{"name":"height","type":"uint256","internalType":"uint256"},{"name":"blockHash","type":"bytes32","internalType":"bytes32"}]}],"stateMutability":"view"},{"type":"function","name":"getNetworkName","inputs":[],"outputs":[{"name":"","type":"tuple","internalType":"struct SubnetID","components":[{"name":"root","type":"uint64","internalType":"uint64"},{"name":"route","type":"address[]","internalType":"address[]"}]}],"stateMutability":"view"},{"type":"function","name":"getParentFinality","inputs":[{"name":"blockNumber","type":"uint256","internalType":"uint256"}],"outputs":[{"name":"","type":"tuple","internalType":"struct ParentFinality","components":[{"name":"height","type":"uint256","internalType":"uint256"},{"name":"blockHash","type":"bytes32","internalType":"bytes32"}]}],"stateMutability":"view"},{"type":"function","name":"getQuorumThreshold","inputs":[{"name":"totalWeight","type":"uint256","internalType":"uint256"}],"outputs":[{"name":"","type":"uint256","internalType":"uint256"}],"stateMutability":"view"},{"type":"function","name":"getSubnet","inputs":[{"name":"subnetId","type":"tuple","internalType":"struct SubnetID","components":[{"name":"root","type":"uint64","internalType":"uint64"},{"name":"route","type":"address[]","internalType":"address[]"}]}],"outputs":[{"name":"","type":"bool","internalType":"bool"},{"name":"","type":"tuple","internalType":"struct Subnet","components":[{"name":"stake","type":"uint256","internalType":"uint256"},{"name":"genesisEpoch","type":"uint256","internalType":"uint256"},{"name":"circSupply","type":"uint256","internalType":"uint256"},{"name":"topDownNonce","type":"uint64","internalType":"uint64"},{"name":"appliedBottomUpNonce","type":"uint64","internalType":"uint64"},{"name":"status","type":"uint8","internalType":"enum Status"},{"name":"id","type":"tuple","internalType":"struct SubnetID","components":[{"name":"root","type":"uint64","internalType":"uint64"},{"name":"route","type":"address[]","internalType":"address[]"}]}]}],"stateMutability":"view"},{"type":"function","name":"getSubnetTopDownMsgsLength","inputs":[{"name":"subnetId","type":"tuple","internalType":"struct SubnetID","components":[{"name":"root","type":"uint64","internalType":"uint64"},{"name":"route","type":"address[]","internalType":"address[]"}]}],"outputs":[{"name":"","type":"uint256","internalType":"uint256"}],"stateMutability":"view"},{"type":"function","name":"listSubnets","inputs":[],"outputs":[{"name":"","type":"tuple[]","internalType":"struct Subnet[]","components":[{"name":"stake","type":"uint256","internalType":"uint256"},{"name":"genesisEpoch","type":"uint256","internalType":"uint256"},{"name":"circSupply","type":"uint256","internalType":"uint256"},{"name":"topDownNonce","type":"uint64","internalType":"uint64"},{"name":"appliedBottomUpNonce","type":"uint64","internalType":"uint64"},{"name":"status","type":"uint8","internalType":"enum Status"},{"name":"id","type":"tuple","internalType":"struct SubnetID","components":[{"name":"root","type":"uint64","internalType":"uint64"},{"name":"route","type":"address[]","internalType":"address[]"}]}]}],"stateMutability":"view"},{"type":"function","name":"majorityPercentage","inputs":[],"outputs":[{"name":"","type":"uint64","internalType":"uint64"}],"stateMutability":"view"},{"type":"function","name":"maxMsgsPerBottomUpBatch","inputs":[],"outputs":[{"name":"","type":"uint64","internalType":"uint64"}],"stateMutability":"view"},{"type":"function","name":"minStake","inputs":[],"outputs":[{"name":"","type":"uint256","internalType":"uint256"}],"stateMutability":"view"},{"type":"function","name":"postbox","inputs":[{"name":"id","type":"bytes32","internalType":"bytes32"}],"outputs":[{"name":"storableMsg","type":"tuple","internalType":"struct StorableMsg","components":[{"name":"from","type":"tuple","internalType":"struct IPCAddress","components":[{"name":"subnetId","type":"tuple","internalType":"struct SubnetID","components":[{"name":"root","type":"uint64","internalType":"uint64"},{"name":"route","type":"address[]","internalType":"address[]"}]},{"name":"rawAddress","type":"tuple","internalType":"struct FvmAddress","components":[{"name":"addrType","type":"uint8","internalType":"uint8"},{"name":"payload","type":"bytes","internalType":"bytes"}]}]},{"name":"to","type":"tuple","internalType":"struct IPCAddress","components":[{"name":"subnetId","type":"tuple","internalType":"struct SubnetID","components":[{"name":"root","type":"uint64","internalType":"uint64"},{"name":"route","type":"address[]","internalType":"address[]"}]},{"name":"rawAddress","type":"tuple","internalType":"struct FvmAddress","components":[{"name":"addrType","type":"uint8","internalType":"uint8"},{"name":"payload","type":"bytes","internalType":"bytes"}]}]},{"name":"value","type":"uint256","internalType":"uint256"},{"name":"nonce","type":"uint64","internalType":"uint64"},{"name":"method","type":"bytes4","internalType":"bytes4"},{"name":"params","type":"bytes","internalType":"bytes"},{"name":"fee","type":"uint256","internalType":"uint256"}]},{"name":"wrapped","type":"bool","internalType":"bool"}],"stateMutability":"view"},{"type":"function","name":"subnets","inputs":[{"name":"h","type":"bytes32","internalType":"bytes32"}],"outputs":[{"name":"subnet","type":"tuple","internalType":"struct Subnet","components":[{"name":"stake","type":"uint256","internalType":"uint256"},{"name":"genesisEpoch","type":"uint256","internalType":"uint256"},{"name":"circSupply","type":"uint256","internalType":"uint256"},{"name":"topDownNonce","type":"uint64","internalType":"uint64"},{"name":"appliedBottomUpNonce","type":"uint64","internalType":"uint64"},{"name":"status","type":"uint8","internalType":"enum Status"},{"name":"id","type":"tuple","internalType":"struct SubnetID","components":[{"name":"root","type":"uint64","internalType":"uint64"},{"name":"route","type":"address[]","internalType":"address[]"}]}]}],"stateMutability":"view"},{"type":"function","name":"totalSubnets","inputs":[],"outputs":[{"name":"","type":"uint64","internalType":"uint64"}],"stateMutability":"view"}],"bytecode":{"object":"0x6080806040523461001657612290908161001c8239f35b600080fdfe6040608081526004908136101561001557600080fd5b600091823560e01c90816302e30f9a146114d15781630338150f1461148b57816305aff0b31461146457816306572c1a1461143357816306c468531461141457816322180594146113f557816324729425146113d65781632da5794a1461135d578163335eb62a14611160578163375b3c0a1461114157816341b6a2e8146111165781634aa8f8a5146110f7578163544dddff146110cf578163599c7bd1146110ad5781635d02968514610f965781636547cd6414610f6b57816369e737fd14610f4c5781636ad21bb014610e6e578163767ee5f414610df45781637edeac9214610da55781638789f83b14610d7a5781638cfd78e714610cea57816394074b0314610c345781639704276614610a935781639d3070b514610a4d5781639e530b5714610a1b578163a2b67158146109f0578163a517218f1461096c578163a9294bdd146107d0578163ac12d76314610792578163b1ba49b01461076a578163b3ab3f741461073f578163b9ee5842146106a2578163c66c66a114610651578163ca41d5ce146104ed578163d6c5c3971461037d578163dd81b5cf146102a8575063f3229131146101c557600080fd5b346102a457816003193601126102a4576101dd611e81565b508051906101ea826118ea565b6006546101f68161195c565b6102028351918261193b565b818152602091828201600687527ff652222313e28459528d920b65115c16c04f3efc82aaedc97be59f3f377c0d3f96905b8282106102625750505061025e945083526001600160401b03600754169083015251918291826117c3565b0390f35b6003856001928851610273816118cf565b8b548152848060a01b03858d0154168382015261029260028d01611bcc565b8a820152815201980191019096610233565b5080fd5b919050346103795760209182600319360112610375576102c6611ba5565b50358352600982528083209260038251946102e0866118cf565b6102e981611afe565b8652600281015485870152018054906103018261195c565b9261030e8551948561193b565b828452908152848120858085015b84841061033b5786890186905286518281528061025e8185018c61172a565b600191600d91885161034c816118ea565b61035586611ce3565b815260ff600c87015416151583820152815201920192019190869061031c565b8380fd5b8280fd5b8383346102a457816003193601126102a457610397611b79565b506103a0611b79565b50601e549081156104da576001600160401b03918083431604600181018091116104c757906103ce91612231565b80845261042c6020809660088252848720908551966103ec8861189e565b816103f684611afe565b808a526002850154868b01526003850154898b01529301541660608801528551630c133d1360e31b815293849283928301612083565b038173__$a0fe38a9a81205afccc10810b09a4d3f45$__5af49485156104bc578095610475575b50508160609161025e94935196879615875286015284015260608301906115ef565b909194508582813d83116104b5575b61048e818361193b565b810103126104b2575061025e92916104a7606092611ec6565b949181939450610453565b80fd5b503d610484565b8351903d90823e3d90fd5b634e487b7160e01b855260118652602485fd5b634e487b7160e01b835260128452602483fd5b919050346103795760203660031901126103795781359161050c611b79565b50610515611e9b565b508284526008602052818420926001600160401b03828451956105378761189e565b61054081611afe565b8752600281015460208801526003810154868801520154166060850152600a8351926308a6ad2560e01b84528301526024820152838160448173__$dd40c2ca5826d197ed7e2b6aae8146ec7b$__5af4908115610647579061025e9291856105c79691818094610617575b50506105fc610609939451978897610100808a528901906115ef565b926020880190608080918051845260208101516020850152604081015160408501526060810151606085015201511515910152565b85820360c0870152611a52565b9083820360e0850152611a8f565b61060994506105fc935061063d92503d8091833e610635818361193b565b810190611ed3565b91929091936105ab565b82513d86823e3d90fd5b8284346104b2575061068b61025e61068361067e61066e36611a21565b610676611d5a565b503690611973565b612121565b929092611d99565b835193849315158452806020850152830190611571565b91905034610379576020366003190112610379578060ff61073d9260a0956106c8611e9b565b5085358152601360205220938251946106e086611920565b80548652600181015460208701526002810154848701526003810154606087015201541615156080840152518092608080918051845260208101516020850152604081015160408501526060810151606085015201511515910152565bf35b9050346103795760203660031901126103795781602093600392358152600c85522001549051908152f35b5050346102a457816003193601126102a4576020906001600160401b03600754169051908152f35b91905034610379576020366003190112610379578060ff61073d9260a0956107b8611e9b565b5085358152600c60205220938251946106e086611920565b919050346103795760209182600319360112610375578035926107f1611ba5565b506107fa611e9b565b5083855260098152828520936003845195610814876118cf565b61081d81611afe565b87526002810154848801520180546108348161195c565b916108418751938461193b565b81835288528388208890858085015b8484106109325750505050508486015260118451936308a6ad2560e01b85528401526024830152848260448173__$dd40c2ca5826d197ed7e2b6aae8146ec7b$__5af491821561092857908561025e9493926108cc97908280956108ff575b50506105fc90610609949551988998610100808b528a019061172a565b93880190608080918051845260208101516020850152604081015160408501526060810151606085015201511515910152565b61060995506105fc935061091d92503d8091833e610635818361193b565b9490925081906108af565b83513d87823e3d90fd5b600191600d918b51610943816118ea565b61094c86611ce3565b815260ff600c870154161515838201528152019201920191908690610850565b8284346104b257806003193601126104b2578151918291600d54808552602080950194600d83527fd7b6990105719101dabeb77144f2a3385c8033acd3af97e9423a695e81ad1eb592905b8282106109d95761025e86866109cf828b038361193b565b5191829182611863565b8354875295860195600193840193909101906109b7565b5050346102a457816003193601126102a4576020906001600160401b03601d5460881c169051908152f35b8284346104b257506001600160401b03610a3c610a3736611a21565b611e03565b835191151582529091166020820152f35b8284346104b25760203660031901126104b25782356001600160401b03918282116104b25750610a8761067e602095600393369101611973565b90500154169051908152f35b905082346104b257806003193601126104b25782518092600d54808352846020809401600d86527fd7b6990105719101dabeb77144f2a3385c8033acd3af97e9423a695e81ad1eb592865b86828210610c1e57505050610af59250038561193b565b835191610b018361195c565b91610b0e8751938461193b565b838352601f19610b1d8561195c565b0182865b828110610c0857505050845b6001600160401b039081811686811015610bab5790610ba38284610b536001958d611e57565b51168a52600887528b8587828d20835193610b6d8561189e565b610b7682611afe565b855260028201548c8601526003820154908501520154166060820152610b9c828a611e57565b5287611e57565b500116610b2d565b8985878a83519280840190808552835180925280868601968360051b870101940192955b828710610bdc5785850386f35b909192938280610bf8600193603f198a820301865288516115ef565b9601920196019592919092610bcf565b610c10611b79565b828288010152018390610b21565b855484526001958601958a955093019201610ade565b8284346104b257806003193601126104b257610c4e611ae4565b50815191610c5b836118ea565b6019546001600160401b031683528051601a8054808352908452602093848301917f057c384a7d1c54f3a1b2e5e67b2617b8224fdfd1ea7234eea573a6ff665ff63e915b86828210610ccd57889061025e8888610cba818a038261193b565b8385015251928284938452830190611516565b83546001600160a01b031685529093019260019283019201610c9f565b905034610379576020366003190112610379579181928160c08451610d0e81611905565b610d16611e35565b8152610d20611e35565b60208201528286820152826060820152826080820152606060a0820152015235815260036020522090610d5a60ff600c8401541692611ce3565b91610d6e82519383859485528401906116b0565b90151560208301520390f35b5050346102a457816003193601126102a4576020906001600160401b03601d5460481c169051908152f35b90503461037957602036600319011261037957610dd89061025e9360208451610dcd816118ea565b8281520152356120e2565b9051918291829190916020806040830194805184520151910152565b8284346104b257806003193601126104b2578151918291601454808552602080950194601483527fce6d7b5282bd9a3661ae061feed1dbda4e52ab073b1f9285be6e155d9c38d4ec92905b828210610e575761025e86866109cf828b038361193b565b835487529586019560019384019390910190610e3f565b8383346102a457816003193601126102a4578290610e8a611e81565b50805191610e97836118ea565b8054610ea28161195c565b90610eaf8451928361193b565b8082526020928383019087527f8a35acfbc15ff81a39ae7d344fd709f28e8600b4aa8c65c6b64bfe7fe36bd19b96905b828210610f0a5750505061025e945083526001600160401b03600554169083015251918291826117c3565b6003856001928851610f1b816118cf565b8b548152848060a01b03858d01541683820152610f3a60028d01611bcc565b8a820152815201980191019096610edf565b5050346102a457816003193601126102a457602090601f549051908152f35b9050346103795760203660031901126103795781602093600392358152601385522001549051908152f35b8284346104b257806003193601126104b257601854610fb48161195c565b90610fc18451928361193b565b808252601f19610fd08261195c565b01835b818110611096575050825b818110611042575050825191602080840190808552835180925280868601968360051b870101940192955b8287106110165785850386f35b909192938280611032600193603f198a82030186528851611571565b9601920196019592919092611009565b806001917fb13d2d76d1f4b7be834882e410b3e3a8afaf69f83600ae24db354391d2378d2e015485528460205261107a868620611d99565b6110848286611e57565b5261108f8185611e57565b5001610fde565b6020906110a1611d5a565b82828701015201610fd3565b5050346102a457816003193601126102a45760209060ff601d54169051908152f35b5050346102a457816003193601126102a4576020906001600160401b03600554169051908152f35b5050346102a457816003193601126102a457602090600b549051908152f35b5050346102a457816003193601126102a4576020906001600160401b03601d5460081c169051908152f35b5050346102a457816003193601126102a457602090601b549051908152f35b5050346102a457816003193601126102a45780518092601454808352846020809401601484527fce6d7b5282bd9a3661ae061feed1dbda4e52ab073b1f9285be6e155d9c38d4ec92845b86828210611347575050506111c19250038561193b565b8351916111cd8361195c565b916111da8551938461193b565b838352601f196111e98561195c565b0182825b82811061133157505050805b6001600160401b0390818116868110156112d55782611218828b611e57565b51168452600985528784206003895191611231836118cf565b61123a81611afe565b83526002810154888401520180546112518161195c565b9161125e8c51938461193b565b818352875287872087898085018e5b85841061129a579250505084611292959350600197969492500152610b9c828a611e57565b5001166111f9565b91600d91600193516112ab816118ea565b6112b487611ce3565b815260ff600c880154161515838201528152019301910190918a908e61126d565b87518581528651818701819052859190600581901b82018b01908989019089848e015b8287106113055785850386f35b909192938280611321600193603f198a8203018652885161172a565b96019201960195929190926112f8565b611339611ba5565b8282880101520183906111ed565b855484526001958601958a9550930192016111aa565b91905034610379576020366003190112610379576001600160401b038161025e94611386611b79565b50843581526008602052209282519361139e8561189e565b6113a781611afe565b8552600281015460208601526003810154848601520154166060830152519182916020835260208301906115ef565b5050346102a457816003193601126102a457602090601c549051908152f35b5050346102a457816003193601126102a4576020906012549051908152f35b5050346102a457816003193601126102a457602090601e549051908152f35b8284346104b25760203660031901126104b25750606461145c60209360ff601d54169035612231565b049051908152f35b5050346102a457816003193601126102a4576020906001600160401b038254169051908152f35b5050346102a457816003193601126102a4578161025e92602083516114af816118ea565b8281520152602082516114c1816118ea565b8281520152610dd86002546120e2565b905034610379576020366003190112610379578161025e93611503926114f5611d5a565b503581528060205220611d99565b9051918291602083526020830190611571565b60609060408301906001600160401b03815116845260209283809201519460408382015285518094520193019160005b828110611554575050505090565b83516001600160a01b031685529381019392810192600101611546565b908151815260208201516020820152604082015160408201526001600160401b03806060840151166060830152608083015116608082015260a08201519160068310156115d95760c060e0916115d69460a08501520151918160c08201520190611516565b90565b634e487b7160e01b600052602160045260246000fd5b9060606001600160401b038161160e8551608086526080860190611516565b94602081015160208601526040810151604086015201511691015290565b60005b83811061163f5750506000910152565b818101518382015260200161162f565b906020916116688151809281855285808601910161162c565b601f01601f1916010190565b604060206115d6938161168e855185845285840190611516565b940151908281860391015260ff8151168452015191816020820152019061164f565b9060c0806117216116df6116cd865160e0875260e0870190611674565b60208701518682036020880152611674565b604086015160408601526001600160401b03606087015116606086015263ffffffff60e01b608087015116608086015260a086015185820360a087015261164f565b93015191015290565b61173d8151606084526060840190611516565b60208083015181850152604080930151938381840391015283519182815281810182808560051b8401019601946000925b85841061177f575050505050505090565b909192939495968580600192601f198582030187528a519082806117aa84518a85528a8501906116b0565b930151151591015299019401940192959493919061176e565b602091828252606092838301918051946040938484870152865180915260808601918460808360051b8901019801926000915b838310611815575050505050906001600160401b039101511691015290565b909192939886806118548a856001958f8f83918591607f19908503018c525180518452898060a01b03888201511688850152015193820152019061164f565b9b0193019301919392906117f6565b6020908160408183019282815285518094520193019160005b82811061188a575050505090565b83518552938101939281019260010161187c565b608081019081106001600160401b038211176118b957604052565b634e487b7160e01b600052604160045260246000fd5b606081019081106001600160401b038211176118b957604052565b604081019081106001600160401b038211176118b957604052565b60e081019081106001600160401b038211176118b957604052565b60a081019081106001600160401b038211176118b957604052565b90601f801991011681019081106001600160401b038211176118b957604052565b6001600160401b0381116118b95760051b60200190565b9190604083820312611a1c576040519261198c846118ea565b836001600160401b0382358181168103611a1c57825260209283810135918211611a1c57019280601f85011215611a1c5783356119c88161195c565b946119d6604051968761193b565b818652848087019260051b820101928311611a1c578401905b8282106119fd575050500152565b81356001600160a01b0381168103611a1c5781529084019084016119ef565b600080fd5b60031990602081830112611a1c57600435916001600160401b038311611a1c5782604092030112611a1c5760040190565b90815180825260208080930193019160005b828110611a72575050505090565b83516001600160a01b031685529381019392810192600101611a64565b90815180825260208092019182818360051b85019501936000915b848310611aba5750505050505090565b9091929394958480611ad483856001950387528a5161164f565b9801930193019194939290611aaa565b60405190611af1826118ea565b6060602083600081520152565b90604051611b0b816118ea565b80926001600160401b03815416825260018091019160405191828481955492838652602080960191600052856000209060005b87868210611b5a5750505050611b569250038461193b565b0152565b83546001600160a01b0316855289955090930192918101918101611b3e565b60405190611b868261189e565b6000606083611b93611ae4565b81528260208201528260408201520152565b60405190611bb2826118cf565b6060604083611bbf611ae4565b8152600060208201520152565b90604051906000835490600182811c90808416968715611c93575b6020948584108914611c7f5787988489979899529081600014611c5d5750600114611c1e575b505050611c1c9250038361193b565b565b600090815285812095935091905b818310611c45575050611c1c9350820101388080611c0d565b85548884018501529485019487945091830191611c2c565b92505050611c1c94925060ff191682840152151560051b820101388080611c0d565b634e487b7160e01b85526022600452602485fd5b91607f1691611be7565b9060405191611cab836118ea565b602083611cb783611afe565b8152611cdb600360405194611ccb866118ea565b60ff600282015416865201611bcc565b828401520152565b90604051611cf081611905565b60c0600b8294611cff81611c9d565b8452611d0d60048201611c9d565b60208501526008810154604085015260098101546001600160401b038116606086015260a01b6001600160e01b0319166080850152611d4e600a8201611bcc565b60a08501520154910152565b60405190611d6782611905565b81600080825280602083015280604083015280606083015280608083015260a082015260c0611d94611ae4565b910152565b90604051611da681611905565b809280548252600181015460208301526002810154604083015260ff60038201546001600160401b0380821660608601528160401c16608085015260801c169060068210156115d9576004611d949160c09360a086015201611afe565b61067e611e11913690611973565b9015611e2c5760036001600160401b03910154169060019190565b50600090600090565b60405190611e42826118ea565b81611e4b611ae4565b81526020611d94611ae4565b8051821015611e6b5760209160051b010190565b634e487b7160e01b600052603260045260246000fd5b60405190611e8e826118ea565b6000602083606081520152565b60405190611ea882611920565b60006080838281528260208201528260408201528260608201520152565b51908115158203611a1c57565b909181830360e08112611a1c5760a013611a1c576040928351611ef581611920565b835181526020908185015182820152858501518682015260608501516060820152611f2260808601611ec6565b60808201529460a0850151926001600160401b0393848111611a1c57860191601f92828482011215611a1c57805190611f5a8261195c565b91611f678451938461193b565b808352868084019160051b83010191858311611a1c578701905b828210612064575050509660c081015190868211611a1c570192828185011215611a1c57835191611fb18361195c565b96611fbe8251988961193b565b838852868089019460051b87010195858711611a1c57878101945b878610611fec5750505050505050505090565b8551838111611a1c5782019087603f83011215611a1c57898201519084821161204f578551612023838901601f19168d018261193b565b82815289878486010111611a1c576120448c9493859489868501910161162c565b815201950194611fd9565b60246000634e487b7160e01b81526041600452fd5b81516001600160a01b0381168103611a1c578152908701908701611f81565b906020908183528160808160608601936001600160401b038151168288015201519460408082015285518094520193019160005b8281106120c5575050505090565b83516001600160a01b0316855293810193928101926001016120b7565b600060206040516120f2816118ea565b828152015260005260016020526040600020600160405191612113836118ea565b805483520154602082015290565b61215873__$a0fe38a9a81205afccc10810b09a4d3f45$__91604051906390ba52cf60e01b82528180602094859360048301612083565b0381865af49081156121f657600091612202575b50906121a891600052600081528060406000209361218c60048601611afe565b906040518080968194630c133d1360e31b835260048301612083565b03915af49081156121f6576000916121c2575b5090501591565b82813d83116121ef575b6121d6818361193b565b810103126104b257506121e890611ec6565b80386121bb565b503d6121cc565b6040513d6000823e3d90fd5b908282813d831161222a575b612218818361193b565b810103126104b25750516121a861216c565b503d61220e565b8181029291811591840414171561224457565b634e487b7160e01b600052601160045260246000fdfea2646970667358221220aa28c035bfc9cb63bb9bfea3809b9494c3fa30a1fbc13fb4ecd05132df69c31864736f6c63430008130033","linkReferences":{"src/lib/LibQuorum.sol":{"LibQuorum":[{"start":1431,"length":20},{"start":2202,"length":20}]},"src/lib/SubnetIDHelper.sol":{"SubnetIDHelper":[{"start":1100,"length":20},{"start":8514,"length":20}]}}},"methodIdentifiers":{"appliedTopDownNonce()":"8789f83b","bottomUpCheckPeriod()":"06c46853","bottomUpCheckpoint(uint256)":"2da5794a","bottomUpMsgBatch(uint256)":"dd81b5cf","bottomUpMsgBatchPeriod()":"69e737fd","bottomUpNonce()":"41b6a2e8","crossMsgFee()":"24729425","getAppliedTopDownNonce((uint64,address[]))":"9e530b57","getBottomUpMsgBatchCurrentWeight(uint256)":"6547cd64","getBottomUpMsgBatchInfo(uint256)":"b9ee5842","getBottomUpMsgBatchSignatureBundle(uint256)":"a9294bdd","getBottomUpMsgRetentionHeight()":"22180594","getCheckpointCurrentWeight(uint256)":"b3ab3f74","getCheckpointInfo(uint256)":"ac12d763","getCheckpointRetentionHeight()":"4aa8f8a5","getCheckpointSignatureBundle(uint256)":"ca41d5ce","getCurrentBottomUpCheckpoint()":"d6c5c397","getCurrentConfigurationNumber()":"544dddff","getCurrentMembership()":"6ad21bb0","getIncompleteCheckpointHeights()":"a517218f","getIncompleteCheckpoints()":"97042766","getIncompleteMsgBatchHeights()":"767ee5f4","getIncompleteMsgBatches()":"335eb62a","getLastConfigurationNumber()":"b1ba49b0","getLastMembership()":"f3229131","getLatestParentFinality()":"0338150f","getNetworkName()":"94074b03","getParentFinality(uint256)":"7edeac92","getQuorumThreshold(uint256)":"06572c1a","getSubnet((uint64,address[]))":"c66c66a1","getSubnetTopDownMsgsLength((uint64,address[]))":"9d3070b5","listSubnets()":"5d029685","majorityPercentage()":"599c7bd1","maxMsgsPerBottomUpBatch()":"05aff0b3","minStake()":"375b3c0a","postbox(bytes32)":"8cfd78e7","subnets(bytes32)":"02e30f9a","totalSubnets()":"a2b67158"},"id":44}