{
  "abi": [
    {
      "inputs": [],
      "name": "appliedTopDownNonce",
      "outputs": [
        {
          "internalType": "uint64",
          "name": "",
          "type": "uint64"
        }
      ],
      "stateMutability": "view",
      "type": "function"
    },
    {
      "inputs": [],
      "name": "bottomUpCheckPeriod",
      "outputs": [
        {
          "internalType": "uint64",
          "name": "",
          "type": "uint64"
        }
      ],
      "stateMutability": "view",
      "type": "function"
    },
    {
      "inputs": [
        {
          "internalType": "uint64",
          "name": "e",
          "type": "uint64"
        }
      ],
      "name": "bottomUpCheckpoint",
      "outputs": [
        {
          "components": [
            {
              "components": [
                {
                  "internalType": "uint64",
                  "name": "root",
                  "type": "uint64"
                },
                {
                  "internalType": "address[]",
                  "name": "route",
                  "type": "address[]"
                }
              ],
              "internalType": "struct SubnetID",
              "name": "subnetID",
              "type": "tuple"
            },
            {
              "internalType": "uint64",
              "name": "blockHeight",
              "type": "uint64"
            },
            {
              "internalType": "bytes32",
              "name": "blockHash",
              "type": "bytes32"
            },
            {
              "internalType": "uint64",
              "name": "nextConfigurationNumber",
              "type": "uint64"
            },
            {
              "internalType": "bytes32",
              "name": "crossMessagesHash",
              "type": "bytes32"
            }
          ],
          "internalType": "struct BottomUpCheckpoint",
          "name": "",
          "type": "tuple"
        }
      ],
      "stateMutability": "view",
      "type": "function"
    },
    {
      "inputs": [
        {
          "internalType": "uint64",
          "name": "e",
          "type": "uint64"
        }
      ],
      "name": "bottomUpMessages",
      "outputs": [
        {
          "components": [
            {
              "components": [
                {
                  "components": [
                    {
                      "components": [
                        {
                          "internalType": "uint64",
                          "name": "root",
                          "type": "uint64"
                        },
                        {
                          "internalType": "address[]",
                          "name": "route",
                          "type": "address[]"
                        }
                      ],
                      "internalType": "struct SubnetID",
                      "name": "subnetId",
                      "type": "tuple"
                    },
                    {
                      "components": [
                        {
                          "internalType": "uint8",
                          "name": "addrType",
                          "type": "uint8"
                        },
                        {
                          "internalType": "bytes",
                          "name": "payload",
                          "type": "bytes"
                        }
                      ],
                      "internalType": "struct FvmAddress",
                      "name": "rawAddress",
                      "type": "tuple"
                    }
                  ],
                  "internalType": "struct IPCAddress",
                  "name": "from",
                  "type": "tuple"
                },
                {
                  "components": [
                    {
                      "components": [
                        {
                          "internalType": "uint64",
                          "name": "root",
                          "type": "uint64"
                        },
                        {
                          "internalType": "address[]",
                          "name": "route",
                          "type": "address[]"
                        }
                      ],
                      "internalType": "struct SubnetID",
                      "name": "subnetId",
                      "type": "tuple"
                    },
                    {
                      "components": [
                        {
                          "internalType": "uint8",
                          "name": "addrType",
                          "type": "uint8"
                        },
                        {
                          "internalType": "bytes",
                          "name": "payload",
                          "type": "bytes"
                        }
                      ],
                      "internalType": "struct FvmAddress",
                      "name": "rawAddress",
                      "type": "tuple"
                    }
                  ],
                  "internalType": "struct IPCAddress",
                  "name": "to",
                  "type": "tuple"
                },
                {
                  "internalType": "uint256",
                  "name": "value",
                  "type": "uint256"
                },
                {
                  "internalType": "uint64",
                  "name": "nonce",
                  "type": "uint64"
                },
                {
                  "internalType": "bytes4",
                  "name": "method",
                  "type": "bytes4"
                },
                {
                  "internalType": "bytes",
                  "name": "params",
                  "type": "bytes"
                },
                {
                  "internalType": "uint256",
                  "name": "fee",
                  "type": "uint256"
                }
              ],
              "internalType": "struct StorableMsg",
              "name": "message",
              "type": "tuple"
            },
            {
              "internalType": "bool",
              "name": "wrapped",
              "type": "bool"
            }
          ],
          "internalType": "struct CrossMsg[]",
          "name": "",
          "type": "tuple[]"
        }
      ],
      "stateMutability": "view",
      "type": "function"
    },
    {
      "inputs": [],
      "name": "bottomUpNonce",
      "outputs": [
        {
          "internalType": "uint64",
          "name": "",
          "type": "uint64"
        }
      ],
      "stateMutability": "view",
      "type": "function"
    },
    {
      "inputs": [],
      "name": "crossMsgFee",
      "outputs": [
        {
          "internalType": "uint256",
          "name": "",
          "type": "uint256"
        }
      ],
      "stateMutability": "view",
      "type": "function"
    },
    {
      "inputs": [
        {
          "components": [
            {
              "internalType": "uint64",
              "name": "root",
              "type": "uint64"
            },
            {
              "internalType": "address[]",
              "name": "route",
              "type": "address[]"
            }
          ],
          "internalType": "struct SubnetID",
          "name": "subnetId",
          "type": "tuple"
        }
      ],
      "name": "getAppliedTopDownNonce",
      "outputs": [
        {
          "internalType": "bool",
          "name": "",
          "type": "bool"
        },
        {
          "internalType": "uint64",
          "name": "",
          "type": "uint64"
        }
      ],
      "stateMutability": "view",
      "type": "function"
    },
    {
      "inputs": [],
      "name": "getBottomUpRetentionHeight",
      "outputs": [
        {
          "internalType": "uint64",
          "name": "",
          "type": "uint64"
        }
      ],
      "stateMutability": "view",
      "type": "function"
    },
    {
      "inputs": [
        {
          "internalType": "uint64",
          "name": "h",
          "type": "uint64"
        }
      ],
      "name": "getCheckpointCurrentWeight",
      "outputs": [
        {
          "internalType": "uint256",
          "name": "",
          "type": "uint256"
        }
      ],
      "stateMutability": "view",
      "type": "function"
    },
    {
      "inputs": [
        {
          "internalType": "uint64",
          "name": "h",
          "type": "uint64"
        }
      ],
      "name": "getCheckpointInfo",
      "outputs": [
        {
          "components": [
            {
              "internalType": "bytes32",
              "name": "hash",
              "type": "bytes32"
            },
            {
              "internalType": "bytes32",
              "name": "rootHash",
              "type": "bytes32"
            },
            {
              "internalType": "uint256",
              "name": "threshold",
              "type": "uint256"
            },
            {
              "internalType": "uint256",
              "name": "currentWeight",
              "type": "uint256"
            },
            {
              "internalType": "bool",
              "name": "reached",
              "type": "bool"
            }
          ],
          "internalType": "struct CheckpointInfo",
          "name": "",
          "type": "tuple"
        }
      ],
      "stateMutability": "view",
      "type": "function"
    },
    {
      "inputs": [],
      "name": "getCurrentConfigurationNumber",
      "outputs": [
        {
          "internalType": "uint64",
          "name": "",
          "type": "uint64"
        }
      ],
      "stateMutability": "view",
      "type": "function"
    },
    {
      "inputs": [],
      "name": "getCurrentMembership",
      "outputs": [
        {
          "components": [
            {
              "components": [
                {
                  "internalType": "uint256",
                  "name": "weight",
                  "type": "uint256"
                },
                {
                  "internalType": "address",
                  "name": "addr",
                  "type": "address"
                },
                {
                  "internalType": "bytes",
                  "name": "metadata",
                  "type": "bytes"
                }
              ],
              "internalType": "struct Validator[]",
              "name": "validators",
              "type": "tuple[]"
            },
            {
              "internalType": "uint64",
              "name": "configurationNumber",
              "type": "uint64"
            }
          ],
          "internalType": "struct Membership",
          "name": "",
          "type": "tuple"
        }
      ],
      "stateMutability": "view",
      "type": "function"
    },
    {
      "inputs": [],
      "name": "getIncompleteCheckpointHeights",
      "outputs": [
        {
          "internalType": "uint256[]",
          "name": "",
          "type": "uint256[]"
        }
      ],
      "stateMutability": "view",
      "type": "function"
    },
    {
      "inputs": [],
      "name": "getIncompleteCheckpoints",
      "outputs": [
        {
          "components": [
            {
              "components": [
                {
                  "internalType": "uint64",
                  "name": "root",
                  "type": "uint64"
                },
                {
                  "internalType": "address[]",
                  "name": "route",
                  "type": "address[]"
                }
              ],
              "internalType": "struct SubnetID",
              "name": "subnetID",
              "type": "tuple"
            },
            {
              "internalType": "uint64",
              "name": "blockHeight",
              "type": "uint64"
            },
            {
              "internalType": "bytes32",
              "name": "blockHash",
              "type": "bytes32"
            },
            {
              "internalType": "uint64",
              "name": "nextConfigurationNumber",
              "type": "uint64"
            },
            {
              "internalType": "bytes32",
              "name": "crossMessagesHash",
              "type": "bytes32"
            }
          ],
          "internalType": "struct BottomUpCheckpoint[]",
          "name": "",
          "type": "tuple[]"
        }
      ],
      "stateMutability": "view",
      "type": "function"
    },
    {
      "inputs": [],
      "name": "getLastConfigurationNumber",
      "outputs": [
        {
          "internalType": "uint64",
          "name": "",
          "type": "uint64"
        }
      ],
      "stateMutability": "view",
      "type": "function"
    },
    {
      "inputs": [],
      "name": "getLastMembership",
      "outputs": [
        {
          "components": [
            {
              "components": [
                {
                  "internalType": "uint256",
                  "name": "weight",
                  "type": "uint256"
                },
                {
                  "internalType": "address",
                  "name": "addr",
                  "type": "address"
                },
                {
                  "internalType": "bytes",
                  "name": "metadata",
                  "type": "bytes"
                }
              ],
              "internalType": "struct Validator[]",
              "name": "validators",
              "type": "tuple[]"
            },
            {
              "internalType": "uint64",
              "name": "configurationNumber",
              "type": "uint64"
            }
          ],
          "internalType": "struct Membership",
          "name": "",
          "type": "tuple"
        }
      ],
      "stateMutability": "view",
      "type": "function"
    },
    {
      "inputs": [],
      "name": "getLatestParentFinality",
      "outputs": [
        {
          "components": [
            {
              "internalType": "uint256",
              "name": "height",
              "type": "uint256"
            },
            {
              "internalType": "bytes32",
              "name": "blockHash",
              "type": "bytes32"
            }
          ],
          "internalType": "struct ParentFinality",
          "name": "",
          "type": "tuple"
        }
      ],
      "stateMutability": "view",
      "type": "function"
    },
    {
      "inputs": [],
      "name": "getNetworkName",
      "outputs": [
        {
          "components": [
            {
              "internalType": "uint64",
              "name": "root",
              "type": "uint64"
            },
            {
              "internalType": "address[]",
              "name": "route",
              "type": "address[]"
            }
          ],
          "internalType": "struct SubnetID",
          "name": "",
          "type": "tuple"
        }
      ],
      "stateMutability": "view",
      "type": "function"
    },
    {
      "inputs": [
        {
          "internalType": "uint256",
          "name": "blockNumber",
          "type": "uint256"
        }
      ],
      "name": "getParentFinality",
      "outputs": [
        {
          "components": [
            {
              "internalType": "uint256",
              "name": "height",
              "type": "uint256"
            },
            {
              "internalType": "bytes32",
              "name": "blockHash",
              "type": "bytes32"
            }
          ],
          "internalType": "struct ParentFinality",
          "name": "",
          "type": "tuple"
        }
      ],
      "stateMutability": "view",
      "type": "function"
    },
    {
      "inputs": [
        {
          "internalType": "uint256",
          "name": "totalWeight",
          "type": "uint256"
        }
      ],
      "name": "getQuorumThreshold",
      "outputs": [
        {
          "internalType": "uint256",
          "name": "",
          "type": "uint256"
        }
      ],
      "stateMutability": "view",
      "type": "function"
    },
    {
      "inputs": [
        {
          "internalType": "uint64",
          "name": "h",
          "type": "uint64"
        }
      ],
      "name": "getSignatureBundle",
      "outputs": [
        {
          "components": [
            {
              "components": [
                {
                  "internalType": "uint64",
                  "name": "root",
                  "type": "uint64"
                },
                {
                  "internalType": "address[]",
                  "name": "route",
                  "type": "address[]"
                }
              ],
              "internalType": "struct SubnetID",
              "name": "subnetID",
              "type": "tuple"
            },
            {
              "internalType": "uint64",
              "name": "blockHeight",
              "type": "uint64"
            },
            {
              "internalType": "bytes32",
              "name": "blockHash",
              "type": "bytes32"
            },
            {
              "internalType": "uint64",
              "name": "nextConfigurationNumber",
              "type": "uint64"
            },
            {
              "internalType": "bytes32",
              "name": "crossMessagesHash",
              "type": "bytes32"
            }
          ],
          "internalType": "struct BottomUpCheckpoint",
          "name": "ch",
          "type": "tuple"
        },
        {
          "components": [
            {
              "internalType": "bytes32",
              "name": "hash",
              "type": "bytes32"
            },
            {
              "internalType": "bytes32",
              "name": "rootHash",
              "type": "bytes32"
            },
            {
              "internalType": "uint256",
              "name": "threshold",
              "type": "uint256"
            },
            {
              "internalType": "uint256",
              "name": "currentWeight",
              "type": "uint256"
            },
            {
              "internalType": "bool",
              "name": "reached",
              "type": "bool"
            }
          ],
          "internalType": "struct CheckpointInfo",
          "name": "info",
          "type": "tuple"
        },
        {
          "internalType": "address[]",
          "name": "signatories",
          "type": "address[]"
        },
        {
          "internalType": "bytes[]",
          "name": "signatures",
          "type": "bytes[]"
        }
      ],
      "stateMutability": "view",
      "type": "function"
    },
    {
      "inputs": [
        {
          "components": [
            {
              "internalType": "uint64",
              "name": "root",
              "type": "uint64"
            },
            {
              "internalType": "address[]",
              "name": "route",
              "type": "address[]"
            }
          ],
          "internalType": "struct SubnetID",
          "name": "subnetId",
          "type": "tuple"
        }
      ],
      "name": "getSubnet",
      "outputs": [
        {
          "internalType": "bool",
          "name": "",
          "type": "bool"
        },
        {
          "components": [
            {
              "internalType": "uint256",
              "name": "stake",
              "type": "uint256"
            },
            {
              "internalType": "uint256",
              "name": "genesisEpoch",
              "type": "uint256"
            },
            {
              "internalType": "uint256",
              "name": "circSupply",
              "type": "uint256"
            },
            {
              "internalType": "uint64",
              "name": "topDownNonce",
              "type": "uint64"
            },
            {
              "internalType": "uint64",
              "name": "appliedBottomUpNonce",
              "type": "uint64"
            },
            {
              "internalType": "enum Status",
              "name": "status",
              "type": "uint8"
            },
            {
              "components": [
                {
                  "internalType": "uint64",
                  "name": "root",
                  "type": "uint64"
                },
                {
                  "internalType": "address[]",
                  "name": "route",
                  "type": "address[]"
                }
              ],
              "internalType": "struct SubnetID",
              "name": "id",
              "type": "tuple"
            }
          ],
          "internalType": "struct Subnet",
          "name": "",
          "type": "tuple"
        }
      ],
      "stateMutability": "view",
      "type": "function"
    },
    {
      "inputs": [
        {
          "components": [
            {
              "internalType": "uint64",
              "name": "root",
              "type": "uint64"
            },
            {
              "internalType": "address[]",
              "name": "route",
              "type": "address[]"
            }
          ],
          "internalType": "struct SubnetID",
          "name": "subnetId",
          "type": "tuple"
        }
      ],
      "name": "getSubnetTopDownMsgsLength",
      "outputs": [
        {
          "internalType": "uint256",
          "name": "",
          "type": "uint256"
        }
      ],
      "stateMutability": "view",
      "type": "function"
    },
    {
      "inputs": [],
      "name": "listSubnets",
      "outputs": [
        {
          "components": [
            {
              "internalType": "uint256",
              "name": "stake",
              "type": "uint256"
            },
            {
              "internalType": "uint256",
              "name": "genesisEpoch",
              "type": "uint256"
            },
            {
              "internalType": "uint256",
              "name": "circSupply",
              "type": "uint256"
            },
            {
              "internalType": "uint64",
              "name": "topDownNonce",
              "type": "uint64"
            },
            {
              "internalType": "uint64",
              "name": "appliedBottomUpNonce",
              "type": "uint64"
            },
            {
              "internalType": "enum Status",
              "name": "status",
              "type": "uint8"
            },
            {
              "components": [
                {
                  "internalType": "uint64",
                  "name": "root",
                  "type": "uint64"
                },
                {
                  "internalType": "address[]",
                  "name": "route",
                  "type": "address[]"
                }
              ],
              "internalType": "struct SubnetID",
              "name": "id",
              "type": "tuple"
            }
          ],
          "internalType": "struct Subnet[]",
          "name": "",
          "type": "tuple[]"
        }
      ],
      "stateMutability": "view",
      "type": "function"
    },
    {
      "inputs": [],
      "name": "majorityPercentage",
      "outputs": [
        {
          "internalType": "uint64",
          "name": "",
          "type": "uint64"
        }
      ],
      "stateMutability": "view",
      "type": "function"
    },
    {
      "inputs": [],
      "name": "minStake",
      "outputs": [
        {
          "internalType": "uint256",
          "name": "",
          "type": "uint256"
        }
      ],
      "stateMutability": "view",
      "type": "function"
    },
    {
      "inputs": [
        {
          "internalType": "bytes32",
          "name": "id",
          "type": "bytes32"
        }
      ],
      "name": "postbox",
      "outputs": [
        {
          "components": [
            {
              "components": [
                {
                  "components": [
                    {
                      "internalType": "uint64",
                      "name": "root",
                      "type": "uint64"
                    },
                    {
                      "internalType": "address[]",
                      "name": "route",
                      "type": "address[]"
                    }
                  ],
                  "internalType": "struct SubnetID",
                  "name": "subnetId",
                  "type": "tuple"
                },
                {
                  "components": [
                    {
                      "internalType": "uint8",
                      "name": "addrType",
                      "type": "uint8"
                    },
                    {
                      "internalType": "bytes",
                      "name": "payload",
                      "type": "bytes"
                    }
                  ],
                  "internalType": "struct FvmAddress",
                  "name": "rawAddress",
                  "type": "tuple"
                }
              ],
              "internalType": "struct IPCAddress",
              "name": "from",
              "type": "tuple"
            },
            {
              "components": [
                {
                  "components": [
                    {
                      "internalType": "uint64",
                      "name": "root",
                      "type": "uint64"
                    },
                    {
                      "internalType": "address[]",
                      "name": "route",
                      "type": "address[]"
                    }
                  ],
                  "internalType": "struct SubnetID",
                  "name": "subnetId",
                  "type": "tuple"
                },
                {
                  "components": [
                    {
                      "internalType": "uint8",
                      "name": "addrType",
                      "type": "uint8"
                    },
                    {
                      "internalType": "bytes",
                      "name": "payload",
                      "type": "bytes"
                    }
                  ],
                  "internalType": "struct FvmAddress",
                  "name": "rawAddress",
                  "type": "tuple"
                }
              ],
              "internalType": "struct IPCAddress",
              "name": "to",
              "type": "tuple"
            },
            {
              "internalType": "uint256",
              "name": "value",
              "type": "uint256"
            },
            {
              "internalType": "uint64",
              "name": "nonce",
              "type": "uint64"
            },
            {
              "internalType": "bytes4",
              "name": "method",
              "type": "bytes4"
            },
            {
              "internalType": "bytes",
              "name": "params",
              "type": "bytes"
            },
            {
              "internalType": "uint256",
              "name": "fee",
              "type": "uint256"
            }
          ],
          "internalType": "struct StorableMsg",
          "name": "storableMsg",
          "type": "tuple"
        },
        {
          "internalType": "bool",
          "name": "wrapped",
          "type": "bool"
        }
      ],
      "stateMutability": "view",
      "type": "function"
    },
    {
      "inputs": [
        {
          "internalType": "bytes32",
          "name": "h",
          "type": "bytes32"
        }
      ],
      "name": "subnets",
      "outputs": [
        {
          "components": [
            {
              "internalType": "uint256",
              "name": "stake",
              "type": "uint256"
            },
            {
              "internalType": "uint256",
              "name": "genesisEpoch",
              "type": "uint256"
            },
            {
              "internalType": "uint256",
              "name": "circSupply",
              "type": "uint256"
            },
            {
              "internalType": "uint64",
              "name": "topDownNonce",
              "type": "uint64"
            },
            {
              "internalType": "uint64",
              "name": "appliedBottomUpNonce",
              "type": "uint64"
            },
            {
              "internalType": "enum Status",
              "name": "status",
              "type": "uint8"
            },
            {
              "components": [
                {
                  "internalType": "uint64",
                  "name": "root",
                  "type": "uint64"
                },
                {
                  "internalType": "address[]",
                  "name": "route",
                  "type": "address[]"
                }
              ],
              "internalType": "struct SubnetID",
              "name": "id",
              "type": "tuple"
            }
          ],
          "internalType": "struct Subnet",
          "name": "subnet",
          "type": "tuple"
        }
      ],
      "stateMutability": "view",
      "type": "function"
    },
    {
      "inputs": [],
      "name": "totalSubnets",
      "outputs": [
        {
          "internalType": "uint64",
          "name": "",
          "type": "uint64"
        }
      ],
      "stateMutability": "view",
      "type": "function"
    }
  ],
  "bytecode": {
    "object": "0x608060405234801561001057600080fd5b50612750806100206000396000f3fe608060405234801561001057600080fd5b50600436106101cf5760003560e01c80638789f83b11610104578063a517218f116100a2578063b932488f11610071578063b932488f146104c8578063c66c66a1146104e8578063f322913114610509578063f7ceaf761461051157600080fd5b8063a517218f1461045f578063ad8c4f7414610474578063b1ba49b014610497578063b45ff172146104a857600080fd5b806397042766116100de57806397042766146103ed5780639d3070b5146104025780639e530b5714610415578063a2b671581461044757600080fd5b80638789f83b146103995780638cfd78e7146103b757806394074b03146103d857600080fd5b806341b6a2e811610171578063599c7bd11161014b578063599c7bd1146103515780635d0296851461035c5780636ad21bb0146103715780637edeac921461038657600080fd5b806341b6a2e8146102875780634512ff631461029d578063544dddff1461034057600080fd5b806306c46853116101ad57806306c46853146102415780632472942514610266578063375b3c0a1461026e5780633e37cfa21461027657600080fd5b806302e30f9a146101d45780630338150f146101fd57806306572c1a14610220575b600080fd5b6101e76101e2366004611da3565b61053d565b6040516101f49190611ec3565b60405180910390f35b61020561065e565b604080518251815260209283015192810192909252016101f4565b61023361022e366004611da3565b6106c2565b6040519081526020016101f4565b6017546001600160401b03165b6040516001600160401b0390911681526020016101f4565b601554610233565b601454610233565b600c546001600160401b031661024e565b60165461010090046001600160401b031661024e565b6103336102ab366004611ef2565b6040805160a081018252600080825260208201819052918101829052606081018290526080810191909152506001600160401b03166000908152600a6020908152604091829020825160a081018452815481526001820154928101929092526002810154928201929092526003820154606082015260049091015460ff161515608082015290565b6040516101f49190611f0d565b6006546001600160401b031661024e565b60165460ff1661024e565b6103646106dc565b6040516101f49190611f48565b6103796108a8565b6040516101f49190611ff0565b610205610394366004611da3565b6109ed565b601654690100000000000000000090046001600160401b031661024e565b6103ca6103c5366004611da3565b610a38565b6040516101f4929190612175565b6103e0610dcd565b6040516101f49190612199565b6103f5610e62565b6040516101f49190612204565b6102336104103660046123a2565b61100d565b6104286104233660046123d6565b61102e565b6040805192151583526001600160401b039091166020830152016101f4565b601654600160881b90046001600160401b031661024e565b610467611074565b6040516101f49190612410565b610487610482366004611ef2565b611080565b6040516101f49493929190612448565b6008546001600160401b031661024e565b6104bb6104b6366004611ef2565b611362565b6040516101f49190612537565b6104db6104d6366004611ef2565b611440565b6040516101f4919061254a565b6104fb6104f63660046123d6565b61182c565b6040516101f49291906125c2565b61037961194f565b61023361051f366004611ef2565b6001600160401b03166000908152600a602052604090206003015490565b610545611c8d565b60008281526020818152604091829020825160e0810184528154815260018201549281019290925260028101549282019290925260038201546001600160401b038082166060840152600160401b820416608083015290919060a0830190600160801b900460ff1660058111156105be576105be611dbc565b60058111156105cf576105cf611dbc565b81526040805180820182526004840180546001600160401b0316825260058501805484516020828102820181019096528181529585019593949293858401939092919083018282801561064b57602002820191906000526020600020905b81546001600160a01b0316815260019091019060200180831161062d575b5050509190925250505090525092915050565b60408051808201909152600080825260208201526106bd60408051808201825260008082526020918201819052600254835180850185528281528301829052815260018083529083902083518085019094528054845201549082015290565b905090565b6016546000906106d690839060ff16611a72565b92915050565b6011546060906000816001600160401b038111156106fc576106fc612259565b60405190808252806020026020018201604052801561073557816020015b610722611c8d565b81526020019060019003908161071a5790505b50905060005b828110156108a157600080601101828154811061075a5761075a6125dd565b6000918252602080832090910154808352828252604092839020835160e0810185528154815260018201549381019390935260028101549383019390935260038301546001600160401b038082166060850152600160401b820416608084015290935090919060a083019060ff600160801b9091041660058111156107e1576107e1611dbc565b60058111156107f2576107f2611dbc565b81526040805180820182526004840180546001600160401b0316825260058501805484516020828102820181019096528181529585019593949293858401939092919083018282801561086e57602002820191906000526020600020905b81546001600160a01b03168152600190910190602001808311610850575b5050505050815250508152505083838151811061088d5761088d6125dd565b60209081029190910101525060010161073b565b5092915050565b60408051808201909152606081526000602082015260408051600580546060602082028401810185529383018181529293919284929091849160009085015b828210156109cb57600084815260209081902060408051606081018252600386029092018054835260018101546001600160a01b0316938301939093526002830180549293929184019161093a906125f3565b80601f0160208091040260200160405190810160405280929190818152602001828054610966906125f3565b80156109b35780601f10610988576101008083540402835291602001916109b3565b820191906000526020600020905b81548152906001019060200180831161099657829003601f168201915b505050505081525050815260200190600101906108e7565b50505090825250600191909101546001600160401b0316602090910152919050565b604080518082018252600080825260208083018290528351808501855282815281018290528482526001808252918490208451808601909552805485529091015490830152906106d6565b610a40611cdc565b6000828152600360209081526040808320600c81015482516101608101845282546001600160401b03166101208201908152600184018054865181890281018901909752808752949660ff9094169592948794869460e086019487948694919386936101408a0193909291830182828015610ae457602002820191906000526020600020905b81546001600160a01b03168152600190910190602001808311610ac6575b5050509190925250505081526040805180820190915260028301805460ff16825260038401805460209485019484019190610b1e906125f3565b80601f0160208091040260200160405190810160405280929190818152602001828054610b4a906125f3565b8015610b975780601f10610b6c57610100808354040283529160200191610b97565b820191906000526020600020905b815481529060010190602001808311610b7a57829003601f168201915b505050919092525050509052508152604080516080810182526004840180546001600160401b0316828401908152600586018054855160208281028201810190975281815296860196949593948694869360608701939091830182828015610c2857602002820191906000526020600020905b81546001600160a01b03168152600190910190602001808311610c0a575b5050509190925250505081526040805180820190915260028301805460ff16825260038401805460209485019484019190610c62906125f3565b80601f0160208091040260200160405190810160405280929190818152602001828054610c8e906125f3565b8015610cdb5780601f10610cb057610100808354040283529160200191610cdb565b820191906000526020600020905b815481529060010190602001808311610cbe57829003601f168201915b5050509190925250505090525081526008820154602082015260098201546001600160401b0381166040830152600160401b900460e01b6001600160e01b0319166060820152600a82018054608090920191610d36906125f3565b80601f0160208091040260200160405190810160405280929190818152602001828054610d62906125f3565b8015610daf5780601f10610d8457610100808354040283529160200191610daf565b820191906000526020600020905b815481529060010190602001808311610d9257829003601f168201915b50505050508152602001600b82015481525050915091509150915091565b604080518082019091526000815260606020820152604080518082018252601280546001600160401b03168252601380548451602082810282018101909652818152939492938386019390929190830182828015610e5457602002820191906000526020600020905b81546001600160a01b03168152600190910190602001808311610e36575b505050505081525050905090565b60606000610e70600d611a91565b80519091506000816001600160401b03811115610e8f57610e8f612259565b604051908082528060200260200182016040528015610ec857816020015b610eb5611d24565b815260200190600190039081610ead5790505b50905060005b82816001600160401b03161015611005576000600901600085836001600160401b031681518110610f0157610f016125dd565b6020908102919091018101516001600160401b039081168352828201939093526040918201600020825160e081018452815490941660a08501908152600182018054855181860281018601909652808652929486949293869360c08701939190830182828015610f9a57602002820191906000526020600020905b81546001600160a01b03168152600190910190602001808311610f7c575b50505091909252505050815260028201546001600160401b03908116602083015260038301546040830152600483015481166060830152600590920154608090910152835184918416908110610ff257610ff26125dd565b6020908102919091010152600101610ece565b509392505050565b60008061101983611a9e565b600301546001600160401b0316949350505050565b600080808061104461103f8661262d565b611a9e565b915091508161105a575060009485945092505050565b600301546001956001600160401b03909116945092505050565b60606106bd600d611a91565b611088611d24565b6040805160a0810182526000808252602082018190529181018290526060810182905260808101919091526001600160401b03808416600090815260096020908152604091829020825160e081018452815490941660a0850190815260018201805485518186028101860190965280865260609687969095869493869360c08701939283018282801561114457602002820191906000526020600020905b81546001600160a01b03168152600190910190602001808311611126575b5050509190925250505081526002828101546001600160401b039081166020808501919091526003808601546040808701919091526004808801548516606080890191909152600590980154608097880152938d166000818152600a8552828120835160a0810185528154815260018201548188015297810154888501529384015498870198909852919093015460ff16151594840194909452928452600f909252912091955093506111f690611a91565b8051909250806001600160401b0381111561121357611213612259565b60405190808252806020026020018201604052801561124657816020015b60608152602001906001900390816112315790505b50915060005b81811015611359576001600160401b03871660009081526010602052604081208551909190869084908110611283576112836125dd565b60200260200101516001600160a01b03166001600160a01b0316815260200190815260200160002080546112b6906125f3565b80601f01602080910402602001604051908101604052809291908181526020018280546112e2906125f3565b801561132f5780601f106113045761010080835404028352916020019161132f565b820191906000526020600020905b81548152906001019060200180831161131257829003601f168201915b5050505050838281518110611346576113466125dd565b602090810291909101015260010161124c565b50509193509193565b61136a611d24565b6001600160401b03808316600090815260096020908152604091829020825160e081018452815490941660a08501908152600182018054855181860281018601909652808652929486949293869360c087019391908301828280156113f857602002820191906000526020600020905b81546001600160a01b031681526001909101906020018083116113da575b50505091909252505050815260028201546001600160401b03908116602083015260038301546040830152600483015416606082015260059091015460809091015292915050565b6001600160401b0381166000908152600b60209081526040808320805482518185028101850190935280835260609492939192909184015b82821015611821576000848152602090819020604080516101a081018252600d860290920180546001600160401b031661016084019081526001820180548451818802810188018652818152959693958795860194879486946101208901948794869486936101808d0193909183018282801561151e57602002820191906000526020600020905b81546001600160a01b03168152600190910190602001808311611500575b5050509190925250505081526040805180820190915260028301805460ff16825260038401805460209485019484019190611558906125f3565b80601f0160208091040260200160405190810160405280929190818152602001828054611584906125f3565b80156115d15780601f106115a6576101008083540402835291602001916115d1565b820191906000526020600020905b8154815290600101906020018083116115b457829003601f168201915b505050919092525050509052508152604080516080810182526004840180546001600160401b031682840190815260058601805485516020828102820181019097528181529686019694959394869486936060870193909183018282801561166257602002820191906000526020600020905b81546001600160a01b03168152600190910190602001808311611644575b5050509190925250505081526040805180820190915260028301805460ff1682526003840180546020948501948401919061169c906125f3565b80601f01602080910402602001604051908101604052809291908181526020018280546116c8906125f3565b80156117155780601f106116ea57610100808354040283529160200191611715565b820191906000526020600020905b8154815290600101906020018083116116f857829003601f168201915b5050509190925250505090525081526008820154602082015260098201546001600160401b0381166040830152600160401b900460e01b6001600160e01b0319166060820152600a82018054608090920191611770906125f3565b80601f016020809104026020016040519081016040528092919081815260200182805461179c906125f3565b80156117e95780601f106117be576101008083540402835291602001916117e9565b820191906000526020600020905b8154815290600101906020018083116117cc57829003601f168201915b5050509183525050600b9190910154602091820152908252600c929092015460ff161515908201529082526001929092019101611478565b505050509050919050565b6000611836611c8d565b61184261103f8461262d565b6040805160e081018252825481526001830154602082015260028301549181019190915260038201546001600160401b038082166060840152600160401b8204166080830152829060a0830190600160801b900460ff1660058111156118aa576118aa611dbc565b60058111156118bb576118bb611dbc565b81526040805180820182526004840180546001600160401b0316825260058501805484516020828102820181019096528181529585019593949293858401939092919083018282801561193757602002820191906000526020600020905b81546001600160a01b03168152600190910190602001808311611919575b50505050508152505081525050905091509150915091565b60408051808201909152606081526000602082015260408051600780546060602082028401810185529383018181529293919284929091849160009085015b828210156109cb57600084815260209081902060408051606081018252600386029092018054835260018101546001600160a01b031693830193909352600283018054929392918401916119e1906125f3565b80601f0160208091040260200160405190810160405280929190818152602001828054611a0d906125f3565b8015611a5a5780601f10611a2f57610100808354040283529160200191611a5a565b820191906000526020600020905b815481529060010190602001808311611a3d57829003601f168201915b5050505050815250508152602001906001019061198e565b60006064611a808385612639565b611a8a919061265e565b9392505050565b60606000611a8a83611c31565b6040516390ba52cf60e01b8152600090819081908190819073__$a0fe38a9a81205afccc10810b09a4d3f45$__906390ba52cf90611ae0908990600401612680565b602060405180830381865af4158015611afd573d6000803e3d6000fd5b505050506040513d601f19601f82011682018060405250810190611b2191906126df565b81526020808201929092526040908101600020815180830183526004820180546001600160401b031682526005830180548551818802810188019096528086529397509194909385820193909291830182828015611ba857602002820191906000526020600020905b81546001600160a01b03168152600190910190602001808311611b8a575b505050919092525050604051630c133d1360e31b815273__$a0fe38a9a81205afccc10810b09a4d3f45$__92636099e8989250611be791600401612680565b602060405180830381865af4158015611c04573d6000803e3d6000fd5b505050506040513d601f19601f82011682018060405250810190611c2891906126f8565b15925050915091565b606081600001805480602002602001604051908101604052809291908181526020018280548015611c8157602002820191906000526020600020905b815481526020019060010190808311611c6d575b50505050509050919050565b6040805160e0810182526000808252602080830182905282840182905260608084018390526080840183905260a0840183905284518086019095529184528301529060c082015290565b905290565b6040518060e00160405280611cef611d63565b8152602001611cfc611d63565b8152600060208201819052604082018190526060808301829052608083015260a09091015290565b6040805160e08101909152600060a08201908152606060c083015281908152600060208201819052604082018190526060820181905260809091015290565b6040805160808101825260009181019182526060808201529081908152602001611cd76040518060400160405280600060ff168152602001606081525090565b600060208284031215611db557600080fd5b5035919050565b634e487b7160e01b600052602160045260246000fd5b6000604083016001600160401b0383511684526020808401516040828701528281518085526060880191508383019450600092505b80831015611e305784516001600160a01b03168252938301936001929092019190830190611e07565b509695505050505050565b805182526020810151602083015260408101516040830152600060608201516001600160401b038082166060860152806080850151166080860152505060a082015160068110611e9b57634e487b7160e01b600052602160045260246000fd5b8060a08501525060c082015160e060c0850152611ebb60e0850182611dd2565b949350505050565b602081526000611a8a6020830184611e3b565b80356001600160401b0381168114611eed57600080fd5b919050565b600060208284031215611f0457600080fd5b611a8a82611ed6565b60a081016106d68284805182526020810151602083015260408101516040830152606081015160608301526080810151151560808301525050565b6000602080830181845280855180835260408601915060408160051b870101925083870160005b82811015611f9d57603f19888603018452611f8b858351611e3b565b94509285019290850190600101611f6f565b5092979650505050505050565b6000815180845260005b81811015611fd057602081850181015186830182015201611fb4565b506000602082860101526020601f19601f83011685010191505092915050565b60006020808352606080840185516040808588015282825180855260808901915060808160051b8a01019450868401935060005b8181101561207457898603607f19018352845180518752888101516001600160a01b03168988015284015184870188905261206188880182611faa565b9650509387019391870191600101612024565b505050938701516001600160401b03811687860152935b50909695505050505050565b60008151604084526120ac6040850182611dd2565b90506020830151848203602086015260ff815116825260208101519050604060208301526120dd6040830182611faa565b95945050505050565b6000815160e084526120fb60e0850182612097565b9050602083015184820360208601526121148282612097565b915050604083015160408501526001600160401b03606084015116606085015263ffffffff60e01b608084015116608085015260a083015184820360a086015261215e8282611faa565b91505060c083015160c08501528091505092915050565b60408152600061218860408301856120e6565b905082151560208301529392505050565b602081526000611a8a6020830184611dd2565b6000815160a084526121c160a0850182611dd2565b905060208301516001600160401b038082166020870152604085015160408701528060608601511660608701525050608083015160808501528091505092915050565b6000602080830181845280855180835260408601915060408160051b870101925083870160005b82811015611f9d57603f198886030184526122478583516121ac565b9450928501929085019060010161222b565b634e487b7160e01b600052604160045260246000fd5b604080519081016001600160401b038111828210171561229157612291612259565b60405290565b604051601f8201601f191681016001600160401b03811182821017156122bf576122bf612259565b604052919050565b6000604082840312156122d957600080fd5b6122e161226f565b90506122ec82611ed6565b81526020808301356001600160401b038082111561230957600080fd5b818501915085601f83011261231d57600080fd5b81358181111561232f5761232f612259565b8060051b9150612340848301612297565b818152918301840191848101908884111561235a57600080fd5b938501935b8385101561239157843592506001600160a01b03831683146123815760008081fd5b828252938501939085019061235f565b808688015250505050505092915050565b6000602082840312156123b457600080fd5b81356001600160401b038111156123ca57600080fd5b611ebb848285016122c7565b6000602082840312156123e857600080fd5b81356001600160401b038111156123fe57600080fd5b820160408185031215611a8a57600080fd5b6020808252825182820181905260009190848201906040850190845b8181101561208b5783518352928401929184019160010161242c565b600061010080835261245c818401886121ac565b9050602061249981850188805182526020810151602083015260408101516040830152606081015160608301526080810151151560808301525050565b83820360c085015285518083528187019282019060005b818110156124d55784516001600160a01b0316835293830193918301916001016124b0565b505084810360e086015285518082528282019350600581901b8201830183880160005b8381101561252657601f19858403018752612514838351611faa565b968601969250908501906001016124f8565b50909b9a5050505050505050505050565b602081526000611a8a60208301846121ac565b60006020808301818452808551808352604092508286019150828160051b87010184880160005b838110156125b457888303603f1901855281518051878552612595888601826120e6565b9189015115159489019490945294870194925090860190600101612571565b509098975050505050505050565b8215158152604060208201526000611ebb6040830184611e3b565b634e487b7160e01b600052603260045260246000fd5b600181811c9082168061260757607f821691505b60208210810361262757634e487b7160e01b600052602260045260246000fd5b50919050565b60006106d636836122c7565b80820281158282048414176106d657634e487b7160e01b600052601160045260246000fd5b60008261267b57634e487b7160e01b600052601260045260246000fd5b500490565b602080825282516001600160401b0316828201528281015160408084015280516060840181905260009291820190839060808601905b80831015611e305783516001600160a01b031682529284019260019290920191908401906126b6565b6000602082840312156126f157600080fd5b5051919050565b60006020828403121561270a57600080fd5b81518015158114611a8a57600080fdfea2646970667358221220a848bf055545334d5f8716ea946c94267b692e4bb0cf463a49615e1689fe0f4564736f6c63430008130033",
    "linkReferences": {
      "src/lib/SubnetIDHelper.sol": {
        "SubnetIDHelper": [
          {
            "start": 6872,
            "length": 20
          },
          {
            "start": 7136,
            "length": 20
          }
        ]
      }
    }
  },
  "methodIdentifiers": {
    "appliedTopDownNonce()": "8789f83b",
    "bottomUpCheckPeriod()": "06c46853",
    "bottomUpCheckpoint(uint64)": "b45ff172",
    "bottomUpMessages(uint64)": "b932488f",
    "bottomUpNonce()": "41b6a2e8",
    "crossMsgFee()": "24729425",
    "getAppliedTopDownNonce((uint64,address[]))": "9e530b57",
    "getBottomUpRetentionHeight()": "3e37cfa2",
    "getCheckpointCurrentWeight(uint64)": "f7ceaf76",
    "getCheckpointInfo(uint64)": "4512ff63",
    "getCurrentConfigurationNumber()": "544dddff",
    "getCurrentMembership()": "6ad21bb0",
    "getIncompleteCheckpointHeights()": "a517218f",
    "getIncompleteCheckpoints()": "97042766",
    "getLastConfigurationNumber()": "b1ba49b0",
    "getLastMembership()": "f3229131",
    "getLatestParentFinality()": "0338150f",
    "getNetworkName()": "94074b03",
    "getParentFinality(uint256)": "7edeac92",
    "getQuorumThreshold(uint256)": "06572c1a",
    "getSignatureBundle(uint64)": "ad8c4f74",
    "getSubnet((uint64,address[]))": "c66c66a1",
    "getSubnetTopDownMsgsLength((uint64,address[]))": "9d3070b5",
    "listSubnets()": "5d029685",
    "majorityPercentage()": "599c7bd1",
    "minStake()": "375b3c0a",
    "postbox(bytes32)": "8cfd78e7",
    "subnets(bytes32)": "02e30f9a",
    "totalSubnets()": "a2b67158"
  },
  "id": 38
}