{
  "abi": [
    {
      "inputs": [],
      "name": "appliedTopDownNonce",
      "outputs": [
        {
          "internalType": "uint64",
          "name": "",
          "type": "uint64"
        }
      ],
      "stateMutability": "view",
      "type": "function"
    },
    {
      "inputs": [],
      "name": "bottomUpCheckPeriod",
      "outputs": [
        {
          "internalType": "uint64",
          "name": "",
          "type": "uint64"
        }
      ],
      "stateMutability": "view",
      "type": "function"
    },
    {
      "inputs": [
        {
          "internalType": "uint64",
          "name": "e",
          "type": "uint64"
        }
      ],
      "name": "bottomUpCheckpoint",
      "outputs": [
        {
          "components": [
            {
              "components": [
                {
                  "internalType": "uint64",
                  "name": "root",
                  "type": "uint64"
                },
                {
                  "internalType": "address[]",
                  "name": "route",
                  "type": "address[]"
                }
              ],
              "internalType": "struct SubnetID",
              "name": "subnetID",
              "type": "tuple"
            },
            {
              "internalType": "uint64",
              "name": "blockHeight",
              "type": "uint64"
            },
            {
              "internalType": "bytes32",
              "name": "blockHash",
              "type": "bytes32"
            },
            {
              "internalType": "uint64",
              "name": "nextConfigurationNumber",
              "type": "uint64"
            },
            {
              "internalType": "bytes32",
              "name": "crossMessagesHash",
              "type": "bytes32"
            }
          ],
          "internalType": "struct BottomUpCheckpoint",
          "name": "",
          "type": "tuple"
        }
      ],
      "stateMutability": "view",
      "type": "function"
    },
    {
      "inputs": [
        {
          "internalType": "uint64",
          "name": "e",
          "type": "uint64"
        }
      ],
      "name": "bottomUpMessages",
      "outputs": [
        {
          "components": [
            {
              "components": [
                {
                  "components": [
                    {
                      "components": [
                        {
                          "internalType": "uint64",
                          "name": "root",
                          "type": "uint64"
                        },
                        {
                          "internalType": "address[]",
                          "name": "route",
                          "type": "address[]"
                        }
                      ],
                      "internalType": "struct SubnetID",
                      "name": "subnetId",
                      "type": "tuple"
                    },
                    {
                      "components": [
                        {
                          "internalType": "uint8",
                          "name": "addrType",
                          "type": "uint8"
                        },
                        {
                          "internalType": "bytes",
                          "name": "payload",
                          "type": "bytes"
                        }
                      ],
                      "internalType": "struct FvmAddress",
                      "name": "rawAddress",
                      "type": "tuple"
                    }
                  ],
                  "internalType": "struct IPCAddress",
                  "name": "from",
                  "type": "tuple"
                },
                {
                  "components": [
                    {
                      "components": [
                        {
                          "internalType": "uint64",
                          "name": "root",
                          "type": "uint64"
                        },
                        {
                          "internalType": "address[]",
                          "name": "route",
                          "type": "address[]"
                        }
                      ],
                      "internalType": "struct SubnetID",
                      "name": "subnetId",
                      "type": "tuple"
                    },
                    {
                      "components": [
                        {
                          "internalType": "uint8",
                          "name": "addrType",
                          "type": "uint8"
                        },
                        {
                          "internalType": "bytes",
                          "name": "payload",
                          "type": "bytes"
                        }
                      ],
                      "internalType": "struct FvmAddress",
                      "name": "rawAddress",
                      "type": "tuple"
                    }
                  ],
                  "internalType": "struct IPCAddress",
                  "name": "to",
                  "type": "tuple"
                },
                {
                  "internalType": "uint256",
                  "name": "value",
                  "type": "uint256"
                },
                {
                  "internalType": "uint64",
                  "name": "nonce",
                  "type": "uint64"
                },
                {
                  "internalType": "bytes4",
                  "name": "method",
                  "type": "bytes4"
                },
                {
                  "internalType": "bytes",
                  "name": "params",
                  "type": "bytes"
                },
                {
                  "internalType": "uint256",
                  "name": "fee",
                  "type": "uint256"
                }
              ],
              "internalType": "struct StorableMsg",
              "name": "message",
              "type": "tuple"
            },
            {
              "internalType": "bool",
              "name": "wrapped",
              "type": "bool"
            }
          ],
          "internalType": "struct CrossMsg[]",
          "name": "",
          "type": "tuple[]"
        }
      ],
      "stateMutability": "view",
      "type": "function"
    },
    {
      "inputs": [],
      "name": "bottomUpNonce",
      "outputs": [
        {
          "internalType": "uint64",
          "name": "",
          "type": "uint64"
        }
      ],
      "stateMutability": "view",
      "type": "function"
    },
    {
      "inputs": [],
      "name": "crossMsgFee",
      "outputs": [
        {
          "internalType": "uint256",
          "name": "",
          "type": "uint256"
        }
      ],
      "stateMutability": "view",
      "type": "function"
    },
    {
      "inputs": [
        {
          "components": [
            {
              "internalType": "uint64",
              "name": "root",
              "type": "uint64"
            },
            {
              "internalType": "address[]",
              "name": "route",
              "type": "address[]"
            }
          ],
          "internalType": "struct SubnetID",
          "name": "subnetId",
          "type": "tuple"
        }
      ],
      "name": "getAppliedTopDownNonce",
      "outputs": [
        {
          "internalType": "bool",
          "name": "",
          "type": "bool"
        },
        {
          "internalType": "uint64",
          "name": "",
          "type": "uint64"
        }
      ],
      "stateMutability": "view",
      "type": "function"
    },
    {
      "inputs": [],
      "name": "getBottomUpRetentionHeight",
      "outputs": [
        {
          "internalType": "uint64",
          "name": "",
          "type": "uint64"
        }
      ],
      "stateMutability": "view",
      "type": "function"
    },
    {
      "inputs": [
        {
          "internalType": "uint64",
          "name": "h",
          "type": "uint64"
        }
      ],
      "name": "getCheckpointCurrentWeight",
      "outputs": [
        {
          "internalType": "uint256",
          "name": "",
          "type": "uint256"
        }
      ],
      "stateMutability": "view",
      "type": "function"
    },
    {
      "inputs": [
        {
          "internalType": "uint64",
          "name": "h",
          "type": "uint64"
        }
      ],
      "name": "getCheckpointInfo",
      "outputs": [
        {
          "components": [
            {
              "internalType": "bytes32",
              "name": "hash",
              "type": "bytes32"
            },
            {
              "internalType": "bytes32",
              "name": "rootHash",
              "type": "bytes32"
            },
            {
              "internalType": "uint256",
              "name": "threshold",
              "type": "uint256"
            },
            {
              "internalType": "uint256",
              "name": "currentWeight",
              "type": "uint256"
            },
            {
              "internalType": "bool",
              "name": "reached",
              "type": "bool"
            }
          ],
          "internalType": "struct CheckpointInfo",
          "name": "",
          "type": "tuple"
        }
      ],
      "stateMutability": "view",
      "type": "function"
    },
    {
      "inputs": [],
      "name": "getCurrentConfigurationNumber",
      "outputs": [
        {
          "internalType": "uint64",
          "name": "",
          "type": "uint64"
        }
      ],
      "stateMutability": "view",
      "type": "function"
    },
    {
      "inputs": [],
      "name": "getCurrentMembership",
      "outputs": [
        {
          "components": [
            {
              "components": [
                {
                  "internalType": "uint256",
                  "name": "weight",
                  "type": "uint256"
                },
                {
                  "internalType": "address",
                  "name": "addr",
                  "type": "address"
                },
                {
                  "internalType": "bytes",
                  "name": "metadata",
                  "type": "bytes"
                }
              ],
              "internalType": "struct Validator[]",
              "name": "validators",
              "type": "tuple[]"
            },
            {
              "internalType": "uint64",
              "name": "configurationNumber",
              "type": "uint64"
            }
          ],
          "internalType": "struct Membership",
          "name": "",
          "type": "tuple"
        }
      ],
      "stateMutability": "view",
      "type": "function"
    },
    {
      "inputs": [],
      "name": "getIncompleteCheckpointHeights",
      "outputs": [
        {
          "internalType": "uint256[]",
          "name": "",
          "type": "uint256[]"
        }
      ],
      "stateMutability": "view",
      "type": "function"
    },
    {
      "inputs": [],
      "name": "getIncompleteCheckpoints",
      "outputs": [
        {
          "components": [
            {
              "components": [
                {
                  "internalType": "uint64",
                  "name": "root",
                  "type": "uint64"
                },
                {
                  "internalType": "address[]",
                  "name": "route",
                  "type": "address[]"
                }
              ],
              "internalType": "struct SubnetID",
              "name": "subnetID",
              "type": "tuple"
            },
            {
              "internalType": "uint64",
              "name": "blockHeight",
              "type": "uint64"
            },
            {
              "internalType": "bytes32",
              "name": "blockHash",
              "type": "bytes32"
            },
            {
              "internalType": "uint64",
              "name": "nextConfigurationNumber",
              "type": "uint64"
            },
            {
              "internalType": "bytes32",
              "name": "crossMessagesHash",
              "type": "bytes32"
            }
          ],
          "internalType": "struct BottomUpCheckpoint[]",
          "name": "",
          "type": "tuple[]"
        }
      ],
      "stateMutability": "view",
      "type": "function"
    },
    {
      "inputs": [],
      "name": "getLastConfigurationNumber",
      "outputs": [
        {
          "internalType": "uint64",
          "name": "",
          "type": "uint64"
        }
      ],
      "stateMutability": "view",
      "type": "function"
    },
    {
      "inputs": [],
      "name": "getLastMembership",
      "outputs": [
        {
          "components": [
            {
              "components": [
                {
                  "internalType": "uint256",
                  "name": "weight",
                  "type": "uint256"
                },
                {
                  "internalType": "address",
                  "name": "addr",
                  "type": "address"
                },
                {
                  "internalType": "bytes",
                  "name": "metadata",
                  "type": "bytes"
                }
              ],
              "internalType": "struct Validator[]",
              "name": "validators",
              "type": "tuple[]"
            },
            {
              "internalType": "uint64",
              "name": "configurationNumber",
              "type": "uint64"
            }
          ],
          "internalType": "struct Membership",
          "name": "",
          "type": "tuple"
        }
      ],
      "stateMutability": "view",
      "type": "function"
    },
    {
      "inputs": [],
      "name": "getLatestParentFinality",
      "outputs": [
        {
          "components": [
            {
              "internalType": "uint256",
              "name": "height",
              "type": "uint256"
            },
            {
              "internalType": "bytes32",
              "name": "blockHash",
              "type": "bytes32"
            }
          ],
          "internalType": "struct ParentFinality",
          "name": "",
          "type": "tuple"
        }
      ],
      "stateMutability": "view",
      "type": "function"
    },
    {
      "inputs": [],
      "name": "getNetworkName",
      "outputs": [
        {
          "components": [
            {
              "internalType": "uint64",
              "name": "root",
              "type": "uint64"
            },
            {
              "internalType": "address[]",
              "name": "route",
              "type": "address[]"
            }
          ],
          "internalType": "struct SubnetID",
          "name": "",
          "type": "tuple"
        }
      ],
      "stateMutability": "view",
      "type": "function"
    },
    {
      "inputs": [
        {
          "internalType": "uint256",
          "name": "blockNumber",
          "type": "uint256"
        }
      ],
      "name": "getParentFinality",
      "outputs": [
        {
          "components": [
            {
              "internalType": "uint256",
              "name": "height",
              "type": "uint256"
            },
            {
              "internalType": "bytes32",
              "name": "blockHash",
              "type": "bytes32"
            }
          ],
          "internalType": "struct ParentFinality",
          "name": "",
          "type": "tuple"
        }
      ],
      "stateMutability": "view",
      "type": "function"
    },
    {
      "inputs": [
        {
          "internalType": "uint256",
          "name": "totalWeight",
          "type": "uint256"
        }
      ],
      "name": "getQuorumThreshold",
      "outputs": [
        {
          "internalType": "uint256",
          "name": "",
          "type": "uint256"
        }
      ],
      "stateMutability": "view",
      "type": "function"
    },
    {
      "inputs": [
        {
          "internalType": "uint64",
          "name": "h",
          "type": "uint64"
        }
      ],
      "name": "getSignatureBundle",
      "outputs": [
        {
          "components": [
            {
              "components": [
                {
                  "internalType": "uint64",
                  "name": "root",
                  "type": "uint64"
                },
                {
                  "internalType": "address[]",
                  "name": "route",
                  "type": "address[]"
                }
              ],
              "internalType": "struct SubnetID",
              "name": "subnetID",
              "type": "tuple"
            },
            {
              "internalType": "uint64",
              "name": "blockHeight",
              "type": "uint64"
            },
            {
              "internalType": "bytes32",
              "name": "blockHash",
              "type": "bytes32"
            },
            {
              "internalType": "uint64",
              "name": "nextConfigurationNumber",
              "type": "uint64"
            },
            {
              "internalType": "bytes32",
              "name": "crossMessagesHash",
              "type": "bytes32"
            }
          ],
          "internalType": "struct BottomUpCheckpoint",
          "name": "ch",
          "type": "tuple"
        },
        {
          "components": [
            {
              "internalType": "bytes32",
              "name": "hash",
              "type": "bytes32"
            },
            {
              "internalType": "bytes32",
              "name": "rootHash",
              "type": "bytes32"
            },
            {
              "internalType": "uint256",
              "name": "threshold",
              "type": "uint256"
            },
            {
              "internalType": "uint256",
              "name": "currentWeight",
              "type": "uint256"
            },
            {
              "internalType": "bool",
              "name": "reached",
              "type": "bool"
            }
          ],
          "internalType": "struct CheckpointInfo",
          "name": "info",
          "type": "tuple"
        },
        {
          "internalType": "address[]",
          "name": "signatories",
          "type": "address[]"
        },
        {
          "internalType": "bytes[]",
          "name": "signatures",
          "type": "bytes[]"
        }
      ],
      "stateMutability": "view",
      "type": "function"
    },
    {
      "inputs": [
        {
          "components": [
            {
              "internalType": "uint64",
              "name": "root",
              "type": "uint64"
            },
            {
              "internalType": "address[]",
              "name": "route",
              "type": "address[]"
            }
          ],
          "internalType": "struct SubnetID",
          "name": "subnetId",
          "type": "tuple"
        }
      ],
      "name": "getSubnet",
      "outputs": [
        {
          "internalType": "bool",
          "name": "",
          "type": "bool"
        },
        {
          "components": [
            {
              "internalType": "uint256",
              "name": "stake",
              "type": "uint256"
            },
            {
              "internalType": "uint256",
              "name": "genesisEpoch",
              "type": "uint256"
            },
            {
              "internalType": "uint256",
              "name": "circSupply",
              "type": "uint256"
            },
            {
              "internalType": "uint64",
              "name": "topDownNonce",
              "type": "uint64"
            },
            {
              "internalType": "uint64",
              "name": "appliedBottomUpNonce",
              "type": "uint64"
            },
            {
              "internalType": "enum Status",
              "name": "status",
              "type": "uint8"
            },
            {
              "components": [
                {
                  "internalType": "uint64",
                  "name": "root",
                  "type": "uint64"
                },
                {
                  "internalType": "address[]",
                  "name": "route",
                  "type": "address[]"
                }
              ],
              "internalType": "struct SubnetID",
              "name": "id",
              "type": "tuple"
            }
          ],
          "internalType": "struct Subnet",
          "name": "",
          "type": "tuple"
        }
      ],
      "stateMutability": "view",
      "type": "function"
    },
    {
      "inputs": [
        {
          "components": [
            {
              "internalType": "uint64",
              "name": "root",
              "type": "uint64"
            },
            {
              "internalType": "address[]",
              "name": "route",
              "type": "address[]"
            }
          ],
          "internalType": "struct SubnetID",
          "name": "subnetId",
          "type": "tuple"
        }
      ],
      "name": "getSubnetTopDownMsgsLength",
      "outputs": [
        {
          "internalType": "uint256",
          "name": "",
          "type": "uint256"
        }
      ],
      "stateMutability": "view",
      "type": "function"
    },
    {
      "inputs": [],
      "name": "listSubnets",
      "outputs": [
        {
          "components": [
            {
              "internalType": "uint256",
              "name": "stake",
              "type": "uint256"
            },
            {
              "internalType": "uint256",
              "name": "genesisEpoch",
              "type": "uint256"
            },
            {
              "internalType": "uint256",
              "name": "circSupply",
              "type": "uint256"
            },
            {
              "internalType": "uint64",
              "name": "topDownNonce",
              "type": "uint64"
            },
            {
              "internalType": "uint64",
              "name": "appliedBottomUpNonce",
              "type": "uint64"
            },
            {
              "internalType": "enum Status",
              "name": "status",
              "type": "uint8"
            },
            {
              "components": [
                {
                  "internalType": "uint64",
                  "name": "root",
                  "type": "uint64"
                },
                {
                  "internalType": "address[]",
                  "name": "route",
                  "type": "address[]"
                }
              ],
              "internalType": "struct SubnetID",
              "name": "id",
              "type": "tuple"
            }
          ],
          "internalType": "struct Subnet[]",
          "name": "",
          "type": "tuple[]"
        }
      ],
      "stateMutability": "view",
      "type": "function"
    },
    {
      "inputs": [],
      "name": "majorityPercentage",
      "outputs": [
        {
          "internalType": "uint64",
          "name": "",
          "type": "uint64"
        }
      ],
      "stateMutability": "view",
      "type": "function"
    },
    {
      "inputs": [],
      "name": "minStake",
      "outputs": [
        {
          "internalType": "uint256",
          "name": "",
          "type": "uint256"
        }
      ],
      "stateMutability": "view",
      "type": "function"
    },
    {
      "inputs": [
        {
          "internalType": "bytes32",
          "name": "id",
          "type": "bytes32"
        }
      ],
      "name": "postbox",
      "outputs": [
        {
          "components": [
            {
              "components": [
                {
                  "components": [
                    {
                      "internalType": "uint64",
                      "name": "root",
                      "type": "uint64"
                    },
                    {
                      "internalType": "address[]",
                      "name": "route",
                      "type": "address[]"
                    }
                  ],
                  "internalType": "struct SubnetID",
                  "name": "subnetId",
                  "type": "tuple"
                },
                {
                  "components": [
                    {
                      "internalType": "uint8",
                      "name": "addrType",
                      "type": "uint8"
                    },
                    {
                      "internalType": "bytes",
                      "name": "payload",
                      "type": "bytes"
                    }
                  ],
                  "internalType": "struct FvmAddress",
                  "name": "rawAddress",
                  "type": "tuple"
                }
              ],
              "internalType": "struct IPCAddress",
              "name": "from",
              "type": "tuple"
            },
            {
              "components": [
                {
                  "components": [
                    {
                      "internalType": "uint64",
                      "name": "root",
                      "type": "uint64"
                    },
                    {
                      "internalType": "address[]",
                      "name": "route",
                      "type": "address[]"
                    }
                  ],
                  "internalType": "struct SubnetID",
                  "name": "subnetId",
                  "type": "tuple"
                },
                {
                  "components": [
                    {
                      "internalType": "uint8",
                      "name": "addrType",
                      "type": "uint8"
                    },
                    {
                      "internalType": "bytes",
                      "name": "payload",
                      "type": "bytes"
                    }
                  ],
                  "internalType": "struct FvmAddress",
                  "name": "rawAddress",
                  "type": "tuple"
                }
              ],
              "internalType": "struct IPCAddress",
              "name": "to",
              "type": "tuple"
            },
            {
              "internalType": "uint256",
              "name": "value",
              "type": "uint256"
            },
            {
              "internalType": "uint64",
              "name": "nonce",
              "type": "uint64"
            },
            {
              "internalType": "bytes4",
              "name": "method",
              "type": "bytes4"
            },
            {
              "internalType": "bytes",
              "name": "params",
              "type": "bytes"
            },
            {
              "internalType": "uint256",
              "name": "fee",
              "type": "uint256"
            }
          ],
          "internalType": "struct StorableMsg",
          "name": "storableMsg",
          "type": "tuple"
        },
        {
          "internalType": "bool",
          "name": "wrapped",
          "type": "bool"
        }
      ],
      "stateMutability": "view",
      "type": "function"
    },
    {
      "inputs": [
        {
          "internalType": "bytes32",
          "name": "h",
          "type": "bytes32"
        }
      ],
      "name": "subnets",
      "outputs": [
        {
          "components": [
            {
              "internalType": "uint256",
              "name": "stake",
              "type": "uint256"
            },
            {
              "internalType": "uint256",
              "name": "genesisEpoch",
              "type": "uint256"
            },
            {
              "internalType": "uint256",
              "name": "circSupply",
              "type": "uint256"
            },
            {
              "internalType": "uint64",
              "name": "topDownNonce",
              "type": "uint64"
            },
            {
              "internalType": "uint64",
              "name": "appliedBottomUpNonce",
              "type": "uint64"
            },
            {
              "internalType": "enum Status",
              "name": "status",
              "type": "uint8"
            },
            {
              "components": [
                {
                  "internalType": "uint64",
                  "name": "root",
                  "type": "uint64"
                },
                {
                  "internalType": "address[]",
                  "name": "route",
                  "type": "address[]"
                }
              ],
              "internalType": "struct SubnetID",
              "name": "id",
              "type": "tuple"
            }
          ],
          "internalType": "struct Subnet",
          "name": "subnet",
          "type": "tuple"
        }
      ],
      "stateMutability": "view",
      "type": "function"
    },
    {
      "inputs": [],
      "name": "totalSubnets",
      "outputs": [
        {
          "internalType": "uint64",
          "name": "",
          "type": "uint64"
        }
      ],
      "stateMutability": "view",
      "type": "function"
    }
  ],
  "bytecode": {
    "object": "0x6080806040523461001657611a40908161001c8239f35b600080fdfe6040608081526004908136101561001557600080fd5b600091823560e01c90816302e30f9a14610f855781630338150f14610f3f57816306572c1a14610ef257816306c4685314610eca5781632472942514610eab578163375b3c0a14610e8c5781633e37cfa214610e6457816341b6a2e814610e395781634512ff6314610d8d578163544dddff14610d65578163599c7bd114610d435781635d02968514610c2c5781636ad21bb014610b4f5781637edeac9214610b005781638789f83b14610ad55781638cfd78e714610a4557816394074b031461098f578163970427661461083e5781639d3070b5146107f85781639e530b57146107c6578163a2b671581461079b578163a517218f14610741578163ad8c4f741461049c578163b1ba49b014610474578163b45ff172146103e157508063b932488f146102d2578063c66c66a11461027e578063f32291311461019e5763f7ceaf761461016257600080fd5b3461019a57602036600319011261019a576003816020936001600160401b036101896110a3565b168152600a85522001549051908152f35b5080fd5b503461019a578160031936011261019a576101b76117ad565b508051906101c4826112e9565b6007546101d081611340565b6101dc8351918261131f565b818152602091828201600787527fa66cc928b5edb82af9bd49922954155ab7b0942694bea4ce44661d9a8736c68896905b82821061023c57505050610238945083526001600160401b03600854169083015251918291826110fe565b0390f35b600385600192885161024d81611304565b8b548152848060a01b03858d0154168382015261026c60028d016114f8565b8a82015281520198019101909661020d565b5090346102cf57506102b86102386102b06102ab61029b36611400565b6102a3611686565b503690611357565b6118fd565b9290926116c5565b835193849315158452806020850152830190611025565b80fd5b5090346102cf5760208060031936011261019a57906001600160401b036102f76110a3565b168152600b825282812090815461030d81611340565b9061031a8651928361131f565b8082528482018094845285842084915b8383106103a157505050508451938085019181865251809252858501868360051b8701019493965b83881061035f5786860387f35b90919293948380600192603f198a820301865288519082806103888451898552898501906111da565b9301511515910152970193019701969093929193610352565b600d886001928b9a97989a516103b6816112e9565b6103bf8661160f565b815260ff600c870154161515838201528152019201920191909694939661032a565b9190503461047057602036600319011261047057600561023893826104046110a3565b9161040d6114c6565b506001600160401b0380931681526009602052209083519461042e8661129d565b6104378361144b565b86528160028401541660208701526003830154858701528201541660608501520154608083015251918291602083526020830190611254565b8280fd5b50503461019a578160031936011261019a576020906001600160401b03600854169051908152f35b83833461019a57602091826003193601126102cf5783906104bb6110a3565b926104c46114c6565b506104cd6117c7565b506001600160401b0380941694858352600981528183209160058151966104f38861129d565b6104fc8561144b565b885280600286015416848901526003850154838901528685015416936060948589015201546080870152868452600a82528084209460ff82519161053f8361129d565b87548352600197888101548685015260028101548585015260038101548785015201541615156080820152878552600f835281852091805190818585549182815201908195895286892090895b81811061072e57505050826105a291038361131f565b81516105ad81611340565b9a6105ba83519c8d61131f565b818c52601f1997886105cb84611340565b01908a5b82811061071f57505050885b8281106106c657505050906106326105fe8693519a610100808d528c0190611254565b93838b0190608080918051845260208101516020850152604081015160408501526060810151606085015201511515910152565b88830360c08a01525191828152019190855b8181106106aa5750505085810360e08701528651928382528282019083808660051b850101990195925b85841061067b57888a0389f35b9091929394959685806106978c8686869f030188528b516110be565b9b9901979695919091019301919061066e565b82516001600160a01b0316845292840192918401918701610644565b99809c9a828b98999a9b5260108a5284882060018060a01b036106e98389611783565b511689528a528b610705826106ff888c206114f8565b92611783565b52610710818d611783565b50019b999b98979695986105db565b8e81018a0182905289016105cf565b8254845292880192918b01918b0161058c565b50503461019a578160031936011261019a5761075b6117f2565b815192839260208080860192818752855180945286019401925b82811061078457505050500390f35b835185528695509381019392810192600101610775565b50503461019a578160031936011261019a576020906001600160401b0360165460881c169051908152f35b8284346102cf57506001600160401b036107e76107e236611400565b61172f565b835191151582529091166020820152f35b8284346102cf5760203660031901126102cf5782356001600160401b03918282116102cf57506108326102ab602095600393369101611357565b90500154169051908152f35b8391503461019a578160031936011261019a576108596117f2565b9182519061086682611340565b906108738651928361131f565b828252601f1961088284611340565b01815b818110610978575050805b6001600160401b03908181168581101561091b579061091382846108b66001958c611783565b5116865260206009815260058c88208d51926108d18461129d565b6108da8261144b565b8452600282015489169084015260038101548e8401528b810154881660608401520154608082015261090c8289611783565b5286611783565b500116610890565b885160208082528651818301819052869291600582901b83018d0191818a0191848f015b82871061094c5785850386f35b909192938280610968600193603f198a82030186528851611254565b960192019601959291909261093f565b6020906109836114c6565b82828701015201610885565b8284346102cf57806003193601126102cf576109a9611431565b508151916109b6836112e9565b6012546001600160401b03168352805160138054808352908452602093848301917f66de8ffda797e3de9c05e8fc57b3bf0ec28a930d40b0d285d93c06501cf6a090915b86828210610a285788906102388888610a15818a038261131f565b8385015251928284938452830190610fca565b83546001600160a01b0316855290930192600192830192016109fa565b905034610470576020366003190112610470579181928160c08451610a69816112ce565b610a71611761565b8152610a7b611761565b60208201528286820152826060820152826080820152606060a0820152015235815260036020522090610ab560ff600c840154169261160f565b91610ac982519383859485528401906111da565b90151560208301520390f35b50503461019a578160031936011261019a576020906001600160401b0360165460481c169051908152f35b90503461047057602036600319011261047057610b33906102389360208451610b28816112e9565b82815201523561185f565b9051918291829190916020806040830194805184520151910152565b50503461019a578160031936011261019a57610b696117ad565b50805190610b76826112e9565b600554610b8281611340565b610b8e8351918261131f565b818152602091828201600587527f036b6384b5eca791c62761152d0c79bb0604c104a5fb6f4eb0703f3154bb3db096905b828210610bea57505050610238945083526001600160401b03600654169083015251918291826110fe565b6003856001928851610bfb81611304565b8b548152848060a01b03858d01541683820152610c1a60028d016114f8565b8a820152815201980191019096610bbf565b8284346102cf57806003193601126102cf57601154610c4a81611340565b90610c578451928361131f565b808252601f19610c6682611340565b01835b818110610d2c575050825b818110610cd8575050825191602080840190808552835180925280868601968360051b870101940192955b828710610cac5785850386f35b909192938280610cc8600193603f198a82030186528851611025565b9601920196019592919092610c9f565b806001917f31ecc21a745e3968a04e9570e4425bc18fa8019c68028196b546d1669c200c680154855284602052610d108686206116c5565b610d1a8286611783565b52610d258185611783565b5001610c74565b602090610d37611686565b82828701015201610c69565b50503461019a578160031936011261019a5760209060ff601654169051908152f35b50503461019a578160031936011261019a576020906001600160401b03600654169051908152f35b91905034610470576020366003190112610470578060ff610e379260a0956001600160401b03610dbb6110a3565b610dc36117c7565b50168152600a6020522093825194610dda8661129d565b80548652600181015460208701526002810154848701526003810154606087015201541615156080840152518092608080918051845260208101516020850152604081015160408501526060810151606085015201511515910152565bf35b50503461019a578160031936011261019a576020906001600160401b0360165460081c169051908152f35b50503461019a578160031936011261019a576020906001600160401b03600c54169051908152f35b50503461019a578160031936011261019a576020906014549051908152f35b50503461019a578160031936011261019a576020906015549051908152f35b50503461019a578160031936011261019a576020906001600160401b03601754169051908152f35b905082346102cf5760203660031901126102cf5760165460ff16823581810293918115918504141715610f2c576020836064865191048152f35b634e487b7160e01b825260119052602490fd5b50503461019a578160031936011261019a57816102389260208351610f63816112e9565b828152015260208251610f75816112e9565b8281520152610b3360025461185f565b905034610470576020366003190112610470578161023893610fb792610fa9611686565b5035815280602052206116c5565b9051918291602083526020830190611025565b60609060408301906001600160401b03815116845260209283809201519460408382015285518094520193019160005b828110611008575050505090565b83516001600160a01b031685529381019392810192600101610ffa565b908151815260208201516020820152604082015160408201526001600160401b03806060840151166060830152608083015116608082015260a082015191600683101561108d5760c060e09161108a9460a08501520151918160c08201520190610fca565b90565b634e487b7160e01b600052602160045260246000fd5b600435906001600160401b03821682036110b957565b600080fd5b919082519283825260005b8481106110ea575050826000602080949584010152601f8019910116010190565b6020818301810151848301820152016110c9565b602091828252606092838301918051946040938484870152865180915260808601918460808360051b8901019801926000915b838310611150575050505050906001600160401b039101511691015290565b9091929398868061118f8a856001958f8f83918591607f19908503018c525180518452898060a01b0388820151168885015201519382015201906110be565b9b019301930191939290611131565b6040602061108a93816111b8855185845285840190610fca565b940151908281860391015260ff815116845201519181602082015201906110be565b9060c08061124b6112096111f7865160e0875260e087019061119e565b6020870151868203602088015261119e565b604086015160408601526001600160401b03606087015116606086015263ffffffff60e01b608087015116608086015260a086015185820360a08701526110be565b93015191015290565b9060808061126b845160a0855260a0850190610fca565b936001600160401b03806020830151166020860152604082015160408601526060820151166060850152015191015290565b60a081019081106001600160401b038211176112b857604052565b634e487b7160e01b600052604160045260246000fd5b60e081019081106001600160401b038211176112b857604052565b604081019081106001600160401b038211176112b857604052565b606081019081106001600160401b038211176112b857604052565b90601f801991011681019081106001600160401b038211176112b857604052565b6001600160401b0381116112b85760051b60200190565b91906040838203126110b95760405192611370846112e9565b836001600160401b03823581811681036110b9578252602092838101359182116110b957019280601f850112156110b95783356113ac81611340565b946113ba604051968761131f565b818652848087019260051b8201019283116110b9578401905b8282106113e1575050500152565b81356001600160a01b03811681036110b95781529084019084016113d3565b600319906020818301126110b957600435916001600160401b0383116110b957826040920301126110b95760040190565b6040519061143e826112e9565b6060602083600081520152565b90604051611458816112e9565b80926001600160401b03815416825260018091019160405191828481955492838652602080960191600052856000209060005b878682106114a757505050506114a39250038461131f565b0152565b83546001600160a01b031685528995509093019291810191810161148b565b604051906114d38261129d565b60006080836114e0611431565b81528260208201528260408201528260608201520152565b90604051906000835490600182811c908084169687156115bf575b60209485841089146115ab5787988489979899529081600014611589575060011461154a575b5050506115489250038361131f565b565b600090815285812095935091905b8183106115715750506115489350820101388080611539565b85548884018501529485019487945091830191611558565b9250505061154894925060ff191682840152151560051b820101388080611539565b634e487b7160e01b85526022600452602485fd5b91607f1691611513565b90604051916115d7836112e9565b6020836115e38361144b565b81526116076003604051946115f7866112e9565b60ff6002820154168652016114f8565b828401520152565b9060405161161c816112ce565b60c0600b829461162b816115c9565b8452611639600482016115c9565b60208501526008810154604085015260098101546001600160401b038116606086015260a01b6001600160e01b031916608085015261167a600a82016114f8565b60a08501520154910152565b60405190611693826112ce565b81600080825280602083015280604083015280606083015280608083015260a082015260c06116c0611431565b910152565b906040516116d2816112ce565b809280548252600181015460208301526002810154604083015260ff60038201546001600160401b0380821660608601528160401c16608085015260801c1690600682101561108d5760046116c09160c09360a08601520161144b565b6102ab61173d913690611357565b90156117585760036001600160401b03910154169060019190565b50600090600090565b6040519061176e826112e9565b81611777611431565b815260206116c0611431565b80518210156117975760209160051b010190565b634e487b7160e01b600052603260045260246000fd5b604051906117ba826112e9565b6000602083606081520152565b604051906117d48261129d565b60006080838281528260208201528260408201528260608201520152565b60405190600d548083528260209182820190600d6000527fd7b6990105719101dabeb77144f2a3385c8033acd3af97e9423a695e81ad1eb5936000905b828210611845575050506115489250038361131f565b85548452600195860195889550938101939091019061182f565b6000602060405161186f816112e9565b828152015260005260016020526040600020600160405191611890836112e9565b805483520154602082015290565b906020908183528160808160608601936001600160401b038151168288015201519460408082015285518094520193019160005b8281106118e0575050505090565b83516001600160a01b0316855293810193928101926001016118d2565b61193473__$a0fe38a9a81205afccc10810b09a4d3f45$__91604051906390ba52cf60e01b8252818060209485936004830161189e565b0381865af49081156119d1576000916119dd575b5060005260008152611982816040600020936119666004860161144b565b906040518080958194630c133d1360e31b83526004830161189e565b03915af49182156119d15760009261199b575b50501591565b81813d83116119ca575b6119af818361131f565b8101031261019a57519081151582036102cf57503880611995565b503d6119a5565b6040513d6000823e3d90fd5b908282813d8311611a03575b6119f3818361131f565b810103126102cf57505138611948565b503d6119e956fea2646970667358221220bd49b1fcbdbaeb89ddf97da95336e8e5f89205b81d96762ec6f9509c429d00f264736f6c63430008130033",
    "linkReferences": {
      "src/lib/SubnetIDHelper.sol": {
        "SubnetIDHelper": [
          {
            "start": 6430,
            "length": 20
          }
        ]
      }
    }
  },
  "methodIdentifiers": {
    "appliedTopDownNonce()": "8789f83b",
    "bottomUpCheckPeriod()": "06c46853",
    "bottomUpCheckpoint(uint64)": "b45ff172",
    "bottomUpMessages(uint64)": "b932488f",
    "bottomUpNonce()": "41b6a2e8",
    "crossMsgFee()": "24729425",
    "getAppliedTopDownNonce((uint64,address[]))": "9e530b57",
    "getBottomUpRetentionHeight()": "3e37cfa2",
    "getCheckpointCurrentWeight(uint64)": "f7ceaf76",
    "getCheckpointInfo(uint64)": "4512ff63",
    "getCurrentConfigurationNumber()": "544dddff",
    "getCurrentMembership()": "6ad21bb0",
    "getIncompleteCheckpointHeights()": "a517218f",
    "getIncompleteCheckpoints()": "97042766",
    "getLastConfigurationNumber()": "b1ba49b0",
    "getLastMembership()": "f3229131",
    "getLatestParentFinality()": "0338150f",
    "getNetworkName()": "94074b03",
    "getParentFinality(uint256)": "7edeac92",
    "getQuorumThreshold(uint256)": "06572c1a",
    "getSignatureBundle(uint64)": "ad8c4f74",
    "getSubnet((uint64,address[]))": "c66c66a1",
    "getSubnetTopDownMsgsLength((uint64,address[]))": "9d3070b5",
    "listSubnets()": "5d029685",
    "majorityPercentage()": "599c7bd1",
    "minStake()": "375b3c0a",
    "postbox(bytes32)": "8cfd78e7",
    "subnets(bytes32)": "02e30f9a",
    "totalSubnets()": "a2b67158"
  },
  "id": 44
}