{
  "abi": [
    {
      "inputs": [],
      "name": "appliedTopDownNonce",
      "outputs": [
        {
          "internalType": "uint64",
          "name": "",
          "type": "uint64"
        }
      ],
      "stateMutability": "view",
      "type": "function"
    },
    {
      "inputs": [],
      "name": "bottomUpCheckPeriod",
      "outputs": [
        {
          "internalType": "uint64",
          "name": "",
          "type": "uint64"
        }
      ],
      "stateMutability": "view",
      "type": "function"
    },
    {
      "inputs": [
        {
          "internalType": "uint64",
          "name": "e",
          "type": "uint64"
        }
      ],
      "name": "bottomUpCheckpoint",
      "outputs": [
        {
          "components": [
            {
              "components": [
                {
                  "internalType": "uint64",
                  "name": "root",
                  "type": "uint64"
                },
                {
                  "internalType": "address[]",
                  "name": "route",
                  "type": "address[]"
                }
              ],
              "internalType": "struct SubnetID",
              "name": "subnetID",
              "type": "tuple"
            },
            {
              "internalType": "uint64",
              "name": "blockHeight",
              "type": "uint64"
            },
            {
              "internalType": "bytes32",
              "name": "blockHash",
              "type": "bytes32"
            },
            {
              "internalType": "uint64",
              "name": "nextConfigurationNumber",
              "type": "uint64"
            },
            {
              "internalType": "bytes32",
              "name": "crossMessagesHash",
              "type": "bytes32"
            }
          ],
          "internalType": "struct BottomUpCheckpoint",
          "name": "",
          "type": "tuple"
        }
      ],
      "stateMutability": "view",
      "type": "function"
    },
    {
      "inputs": [
        {
          "internalType": "uint64",
          "name": "e",
          "type": "uint64"
        }
      ],
      "name": "bottomUpMessages",
      "outputs": [
        {
          "components": [
            {
              "components": [
                {
                  "components": [
                    {
                      "components": [
                        {
                          "internalType": "uint64",
                          "name": "root",
                          "type": "uint64"
                        },
                        {
                          "internalType": "address[]",
                          "name": "route",
                          "type": "address[]"
                        }
                      ],
                      "internalType": "struct SubnetID",
                      "name": "subnetId",
                      "type": "tuple"
                    },
                    {
                      "components": [
                        {
                          "internalType": "uint8",
                          "name": "addrType",
                          "type": "uint8"
                        },
                        {
                          "internalType": "bytes",
                          "name": "payload",
                          "type": "bytes"
                        }
                      ],
                      "internalType": "struct FvmAddress",
                      "name": "rawAddress",
                      "type": "tuple"
                    }
                  ],
                  "internalType": "struct IPCAddress",
                  "name": "from",
                  "type": "tuple"
                },
                {
                  "components": [
                    {
                      "components": [
                        {
                          "internalType": "uint64",
                          "name": "root",
                          "type": "uint64"
                        },
                        {
                          "internalType": "address[]",
                          "name": "route",
                          "type": "address[]"
                        }
                      ],
                      "internalType": "struct SubnetID",
                      "name": "subnetId",
                      "type": "tuple"
                    },
                    {
                      "components": [
                        {
                          "internalType": "uint8",
                          "name": "addrType",
                          "type": "uint8"
                        },
                        {
                          "internalType": "bytes",
                          "name": "payload",
                          "type": "bytes"
                        }
                      ],
                      "internalType": "struct FvmAddress",
                      "name": "rawAddress",
                      "type": "tuple"
                    }
                  ],
                  "internalType": "struct IPCAddress",
                  "name": "to",
                  "type": "tuple"
                },
                {
                  "internalType": "uint256",
                  "name": "value",
                  "type": "uint256"
                },
                {
                  "internalType": "uint64",
                  "name": "nonce",
                  "type": "uint64"
                },
                {
                  "internalType": "bytes4",
                  "name": "method",
                  "type": "bytes4"
                },
                {
                  "internalType": "bytes",
                  "name": "params",
                  "type": "bytes"
                },
                {
                  "internalType": "uint256",
                  "name": "fee",
                  "type": "uint256"
                }
              ],
              "internalType": "struct StorableMsg",
              "name": "message",
              "type": "tuple"
            },
            {
              "internalType": "bool",
              "name": "wrapped",
              "type": "bool"
            }
          ],
          "internalType": "struct CrossMsg[]",
          "name": "",
          "type": "tuple[]"
        }
      ],
      "stateMutability": "view",
      "type": "function"
    },
    {
      "inputs": [],
      "name": "bottomUpNonce",
      "outputs": [
        {
          "internalType": "uint64",
          "name": "",
          "type": "uint64"
        }
      ],
      "stateMutability": "view",
      "type": "function"
    },
    {
      "inputs": [],
      "name": "crossMsgFee",
      "outputs": [
        {
          "internalType": "uint256",
          "name": "",
          "type": "uint256"
        }
      ],
      "stateMutability": "view",
      "type": "function"
    },
    {
      "inputs": [
        {
          "components": [
            {
              "internalType": "uint64",
              "name": "root",
              "type": "uint64"
            },
            {
              "internalType": "address[]",
              "name": "route",
              "type": "address[]"
            }
          ],
          "internalType": "struct SubnetID",
          "name": "subnetId",
          "type": "tuple"
        }
      ],
      "name": "getAppliedTopDownNonce",
      "outputs": [
        {
          "internalType": "bool",
          "name": "",
          "type": "bool"
        },
        {
          "internalType": "uint64",
          "name": "",
          "type": "uint64"
        }
      ],
      "stateMutability": "view",
      "type": "function"
    },
    {
      "inputs": [],
      "name": "getBottomUpRetentionHeight",
      "outputs": [
        {
          "internalType": "uint64",
          "name": "",
          "type": "uint64"
        }
      ],
      "stateMutability": "view",
      "type": "function"
    },
    {
      "inputs": [
        {
          "internalType": "uint64",
          "name": "h",
          "type": "uint64"
        }
      ],
      "name": "getCheckpointCurrentWeight",
      "outputs": [
        {
          "internalType": "uint256",
          "name": "",
          "type": "uint256"
        }
      ],
      "stateMutability": "view",
      "type": "function"
    },
    {
      "inputs": [
        {
          "internalType": "uint64",
          "name": "h",
          "type": "uint64"
        }
      ],
      "name": "getCheckpointInfo",
      "outputs": [
        {
          "components": [
            {
              "internalType": "bytes32",
              "name": "hash",
              "type": "bytes32"
            },
            {
              "internalType": "bytes32",
              "name": "rootHash",
              "type": "bytes32"
            },
            {
              "internalType": "uint256",
              "name": "threshold",
              "type": "uint256"
            },
            {
              "internalType": "uint256",
              "name": "currentWeight",
              "type": "uint256"
            },
            {
              "internalType": "bool",
              "name": "reached",
              "type": "bool"
            }
          ],
          "internalType": "struct CheckpointInfo",
          "name": "",
          "type": "tuple"
        }
      ],
      "stateMutability": "view",
      "type": "function"
    },
    {
      "inputs": [],
      "name": "getCurrentConfigurationNumber",
      "outputs": [
        {
          "internalType": "uint64",
          "name": "",
          "type": "uint64"
        }
      ],
      "stateMutability": "view",
      "type": "function"
    },
    {
      "inputs": [],
      "name": "getCurrentMembership",
      "outputs": [
        {
          "components": [
            {
              "components": [
                {
                  "internalType": "uint256",
                  "name": "weight",
                  "type": "uint256"
                },
                {
                  "internalType": "address",
                  "name": "addr",
                  "type": "address"
                },
                {
                  "internalType": "bytes",
                  "name": "metadata",
                  "type": "bytes"
                }
              ],
              "internalType": "struct Validator[]",
              "name": "validators",
              "type": "tuple[]"
            },
            {
              "internalType": "uint64",
              "name": "configurationNumber",
              "type": "uint64"
            }
          ],
          "internalType": "struct Membership",
          "name": "",
          "type": "tuple"
        }
      ],
      "stateMutability": "view",
      "type": "function"
    },
    {
      "inputs": [],
      "name": "getIncompleteCheckpointHeights",
      "outputs": [
        {
          "internalType": "uint256[]",
          "name": "",
          "type": "uint256[]"
        }
      ],
      "stateMutability": "view",
      "type": "function"
    },
    {
      "inputs": [],
      "name": "getIncompleteCheckpoints",
      "outputs": [
        {
          "components": [
            {
              "components": [
                {
                  "internalType": "uint64",
                  "name": "root",
                  "type": "uint64"
                },
                {
                  "internalType": "address[]",
                  "name": "route",
                  "type": "address[]"
                }
              ],
              "internalType": "struct SubnetID",
              "name": "subnetID",
              "type": "tuple"
            },
            {
              "internalType": "uint64",
              "name": "blockHeight",
              "type": "uint64"
            },
            {
              "internalType": "bytes32",
              "name": "blockHash",
              "type": "bytes32"
            },
            {
              "internalType": "uint64",
              "name": "nextConfigurationNumber",
              "type": "uint64"
            },
            {
              "internalType": "bytes32",
              "name": "crossMessagesHash",
              "type": "bytes32"
            }
          ],
          "internalType": "struct BottomUpCheckpoint[]",
          "name": "",
          "type": "tuple[]"
        }
      ],
      "stateMutability": "view",
      "type": "function"
    },
    {
      "inputs": [],
      "name": "getLastConfigurationNumber",
      "outputs": [
        {
          "internalType": "uint64",
          "name": "",
          "type": "uint64"
        }
      ],
      "stateMutability": "view",
      "type": "function"
    },
    {
      "inputs": [],
      "name": "getLastMembership",
      "outputs": [
        {
          "components": [
            {
              "components": [
                {
                  "internalType": "uint256",
                  "name": "weight",
                  "type": "uint256"
                },
                {
                  "internalType": "address",
                  "name": "addr",
                  "type": "address"
                },
                {
                  "internalType": "bytes",
                  "name": "metadata",
                  "type": "bytes"
                }
              ],
              "internalType": "struct Validator[]",
              "name": "validators",
              "type": "tuple[]"
            },
            {
              "internalType": "uint64",
              "name": "configurationNumber",
              "type": "uint64"
            }
          ],
          "internalType": "struct Membership",
          "name": "",
          "type": "tuple"
        }
      ],
      "stateMutability": "view",
      "type": "function"
    },
    {
      "inputs": [],
      "name": "getLatestParentFinality",
      "outputs": [
        {
          "components": [
            {
              "internalType": "uint256",
              "name": "height",
              "type": "uint256"
            },
            {
              "internalType": "bytes32",
              "name": "blockHash",
              "type": "bytes32"
            }
          ],
          "internalType": "struct ParentFinality",
          "name": "",
          "type": "tuple"
        }
      ],
      "stateMutability": "view",
      "type": "function"
    },
    {
      "inputs": [],
      "name": "getNetworkName",
      "outputs": [
        {
          "components": [
            {
              "internalType": "uint64",
              "name": "root",
              "type": "uint64"
            },
            {
              "internalType": "address[]",
              "name": "route",
              "type": "address[]"
            }
          ],
          "internalType": "struct SubnetID",
          "name": "",
          "type": "tuple"
        }
      ],
      "stateMutability": "view",
      "type": "function"
    },
    {
      "inputs": [
        {
          "internalType": "uint256",
          "name": "blockNumber",
          "type": "uint256"
        }
      ],
      "name": "getParentFinality",
      "outputs": [
        {
          "components": [
            {
              "internalType": "uint256",
              "name": "height",
              "type": "uint256"
            },
            {
              "internalType": "bytes32",
              "name": "blockHash",
              "type": "bytes32"
            }
          ],
          "internalType": "struct ParentFinality",
          "name": "",
          "type": "tuple"
        }
      ],
      "stateMutability": "view",
      "type": "function"
    },
    {
      "inputs": [
        {
          "internalType": "uint256",
          "name": "totalWeight",
          "type": "uint256"
        }
      ],
      "name": "getQuorumThreshold",
      "outputs": [
        {
          "internalType": "uint256",
          "name": "",
          "type": "uint256"
        }
      ],
      "stateMutability": "view",
      "type": "function"
    },
    {
      "inputs": [
        {
          "internalType": "uint64",
          "name": "h",
          "type": "uint64"
        }
      ],
      "name": "getSignatureBundle",
      "outputs": [
        {
          "components": [
            {
              "components": [
                {
                  "internalType": "uint64",
                  "name": "root",
                  "type": "uint64"
                },
                {
                  "internalType": "address[]",
                  "name": "route",
                  "type": "address[]"
                }
              ],
              "internalType": "struct SubnetID",
              "name": "subnetID",
              "type": "tuple"
            },
            {
              "internalType": "uint64",
              "name": "blockHeight",
              "type": "uint64"
            },
            {
              "internalType": "bytes32",
              "name": "blockHash",
              "type": "bytes32"
            },
            {
              "internalType": "uint64",
              "name": "nextConfigurationNumber",
              "type": "uint64"
            },
            {
              "internalType": "bytes32",
              "name": "crossMessagesHash",
              "type": "bytes32"
            }
          ],
          "internalType": "struct BottomUpCheckpoint",
          "name": "ch",
          "type": "tuple"
        },
        {
          "components": [
            {
              "internalType": "bytes32",
              "name": "hash",
              "type": "bytes32"
            },
            {
              "internalType": "bytes32",
              "name": "rootHash",
              "type": "bytes32"
            },
            {
              "internalType": "uint256",
              "name": "threshold",
              "type": "uint256"
            },
            {
              "internalType": "uint256",
              "name": "currentWeight",
              "type": "uint256"
            },
            {
              "internalType": "bool",
              "name": "reached",
              "type": "bool"
            }
          ],
          "internalType": "struct CheckpointInfo",
          "name": "info",
          "type": "tuple"
        },
        {
          "internalType": "address[]",
          "name": "signatories",
          "type": "address[]"
        },
        {
          "internalType": "bytes[]",
          "name": "signatures",
          "type": "bytes[]"
        }
      ],
      "stateMutability": "view",
      "type": "function"
    },
    {
      "inputs": [
        {
          "components": [
            {
              "internalType": "uint64",
              "name": "root",
              "type": "uint64"
            },
            {
              "internalType": "address[]",
              "name": "route",
              "type": "address[]"
            }
          ],
          "internalType": "struct SubnetID",
          "name": "subnetId",
          "type": "tuple"
        }
      ],
      "name": "getSubnet",
      "outputs": [
        {
          "internalType": "bool",
          "name": "",
          "type": "bool"
        },
        {
          "components": [
            {
              "internalType": "uint256",
              "name": "stake",
              "type": "uint256"
            },
            {
              "internalType": "uint256",
              "name": "genesisEpoch",
              "type": "uint256"
            },
            {
              "internalType": "uint256",
              "name": "circSupply",
              "type": "uint256"
            },
            {
              "internalType": "uint64",
              "name": "topDownNonce",
              "type": "uint64"
            },
            {
              "internalType": "uint64",
              "name": "appliedBottomUpNonce",
              "type": "uint64"
            },
            {
              "internalType": "enum Status",
              "name": "status",
              "type": "uint8"
            },
            {
              "components": [
                {
                  "internalType": "uint64",
                  "name": "root",
                  "type": "uint64"
                },
                {
                  "internalType": "address[]",
                  "name": "route",
                  "type": "address[]"
                }
              ],
              "internalType": "struct SubnetID",
              "name": "id",
              "type": "tuple"
            }
          ],
          "internalType": "struct Subnet",
          "name": "",
          "type": "tuple"
        }
      ],
      "stateMutability": "view",
      "type": "function"
    },
    {
      "inputs": [
        {
          "components": [
            {
              "internalType": "uint64",
              "name": "root",
              "type": "uint64"
            },
            {
              "internalType": "address[]",
              "name": "route",
              "type": "address[]"
            }
          ],
          "internalType": "struct SubnetID",
          "name": "subnetId",
          "type": "tuple"
        }
      ],
      "name": "getSubnetTopDownMsgsLength",
      "outputs": [
        {
          "internalType": "uint256",
          "name": "",
          "type": "uint256"
        }
      ],
      "stateMutability": "view",
      "type": "function"
    },
    {
      "inputs": [
        {
          "components": [
            {
              "internalType": "uint64",
              "name": "root",
              "type": "uint64"
            },
            {
              "internalType": "address[]",
              "name": "route",
              "type": "address[]"
            }
          ],
          "internalType": "struct SubnetID",
          "name": "subnetId",
          "type": "tuple"
        },
        {
          "internalType": "uint256",
          "name": "blockNumber",
          "type": "uint256"
        }
      ],
      "name": "getTopDownMsgs",
      "outputs": [
        {
          "components": [
            {
              "components": [
                {
                  "components": [
                    {
                      "components": [
                        {
                          "internalType": "uint64",
                          "name": "root",
                          "type": "uint64"
                        },
                        {
                          "internalType": "address[]",
                          "name": "route",
                          "type": "address[]"
                        }
                      ],
                      "internalType": "struct SubnetID",
                      "name": "subnetId",
                      "type": "tuple"
                    },
                    {
                      "components": [
                        {
                          "internalType": "uint8",
                          "name": "addrType",
                          "type": "uint8"
                        },
                        {
                          "internalType": "bytes",
                          "name": "payload",
                          "type": "bytes"
                        }
                      ],
                      "internalType": "struct FvmAddress",
                      "name": "rawAddress",
                      "type": "tuple"
                    }
                  ],
                  "internalType": "struct IPCAddress",
                  "name": "from",
                  "type": "tuple"
                },
                {
                  "components": [
                    {
                      "components": [
                        {
                          "internalType": "uint64",
                          "name": "root",
                          "type": "uint64"
                        },
                        {
                          "internalType": "address[]",
                          "name": "route",
                          "type": "address[]"
                        }
                      ],
                      "internalType": "struct SubnetID",
                      "name": "subnetId",
                      "type": "tuple"
                    },
                    {
                      "components": [
                        {
                          "internalType": "uint8",
                          "name": "addrType",
                          "type": "uint8"
                        },
                        {
                          "internalType": "bytes",
                          "name": "payload",
                          "type": "bytes"
                        }
                      ],
                      "internalType": "struct FvmAddress",
                      "name": "rawAddress",
                      "type": "tuple"
                    }
                  ],
                  "internalType": "struct IPCAddress",
                  "name": "to",
                  "type": "tuple"
                },
                {
                  "internalType": "uint256",
                  "name": "value",
                  "type": "uint256"
                },
                {
                  "internalType": "uint64",
                  "name": "nonce",
                  "type": "uint64"
                },
                {
                  "internalType": "bytes4",
                  "name": "method",
                  "type": "bytes4"
                },
                {
                  "internalType": "bytes",
                  "name": "params",
                  "type": "bytes"
                },
                {
                  "internalType": "uint256",
                  "name": "fee",
                  "type": "uint256"
                }
              ],
              "internalType": "struct StorableMsg",
              "name": "message",
              "type": "tuple"
            },
            {
              "internalType": "bool",
              "name": "wrapped",
              "type": "bool"
            }
          ],
          "internalType": "struct CrossMsg[]",
          "name": "msgs",
          "type": "tuple[]"
        }
      ],
      "stateMutability": "view",
      "type": "function"
    },
    {
      "inputs": [],
      "name": "listSubnets",
      "outputs": [
        {
          "components": [
            {
              "internalType": "uint256",
              "name": "stake",
              "type": "uint256"
            },
            {
              "internalType": "uint256",
              "name": "genesisEpoch",
              "type": "uint256"
            },
            {
              "internalType": "uint256",
              "name": "circSupply",
              "type": "uint256"
            },
            {
              "internalType": "uint64",
              "name": "topDownNonce",
              "type": "uint64"
            },
            {
              "internalType": "uint64",
              "name": "appliedBottomUpNonce",
              "type": "uint64"
            },
            {
              "internalType": "enum Status",
              "name": "status",
              "type": "uint8"
            },
            {
              "components": [
                {
                  "internalType": "uint64",
                  "name": "root",
                  "type": "uint64"
                },
                {
                  "internalType": "address[]",
                  "name": "route",
                  "type": "address[]"
                }
              ],
              "internalType": "struct SubnetID",
              "name": "id",
              "type": "tuple"
            }
          ],
          "internalType": "struct Subnet[]",
          "name": "",
          "type": "tuple[]"
        }
      ],
      "stateMutability": "view",
      "type": "function"
    },
    {
      "inputs": [],
      "name": "majorityPercentage",
      "outputs": [
        {
          "internalType": "uint64",
          "name": "",
          "type": "uint64"
        }
      ],
      "stateMutability": "view",
      "type": "function"
    },
    {
      "inputs": [],
      "name": "minStake",
      "outputs": [
        {
          "internalType": "uint256",
          "name": "",
          "type": "uint256"
        }
      ],
      "stateMutability": "view",
      "type": "function"
    },
    {
      "inputs": [
        {
          "internalType": "bytes32",
          "name": "id",
          "type": "bytes32"
        }
      ],
      "name": "postbox",
      "outputs": [
        {
          "components": [
            {
              "components": [
                {
                  "components": [
                    {
                      "internalType": "uint64",
                      "name": "root",
                      "type": "uint64"
                    },
                    {
                      "internalType": "address[]",
                      "name": "route",
                      "type": "address[]"
                    }
                  ],
                  "internalType": "struct SubnetID",
                  "name": "subnetId",
                  "type": "tuple"
                },
                {
                  "components": [
                    {
                      "internalType": "uint8",
                      "name": "addrType",
                      "type": "uint8"
                    },
                    {
                      "internalType": "bytes",
                      "name": "payload",
                      "type": "bytes"
                    }
                  ],
                  "internalType": "struct FvmAddress",
                  "name": "rawAddress",
                  "type": "tuple"
                }
              ],
              "internalType": "struct IPCAddress",
              "name": "from",
              "type": "tuple"
            },
            {
              "components": [
                {
                  "components": [
                    {
                      "internalType": "uint64",
                      "name": "root",
                      "type": "uint64"
                    },
                    {
                      "internalType": "address[]",
                      "name": "route",
                      "type": "address[]"
                    }
                  ],
                  "internalType": "struct SubnetID",
                  "name": "subnetId",
                  "type": "tuple"
                },
                {
                  "components": [
                    {
                      "internalType": "uint8",
                      "name": "addrType",
                      "type": "uint8"
                    },
                    {
                      "internalType": "bytes",
                      "name": "payload",
                      "type": "bytes"
                    }
                  ],
                  "internalType": "struct FvmAddress",
                  "name": "rawAddress",
                  "type": "tuple"
                }
              ],
              "internalType": "struct IPCAddress",
              "name": "to",
              "type": "tuple"
            },
            {
              "internalType": "uint256",
              "name": "value",
              "type": "uint256"
            },
            {
              "internalType": "uint64",
              "name": "nonce",
              "type": "uint64"
            },
            {
              "internalType": "bytes4",
              "name": "method",
              "type": "bytes4"
            },
            {
              "internalType": "bytes",
              "name": "params",
              "type": "bytes"
            },
            {
              "internalType": "uint256",
              "name": "fee",
              "type": "uint256"
            }
          ],
          "internalType": "struct StorableMsg",
          "name": "storableMsg",
          "type": "tuple"
        },
        {
          "internalType": "bool",
          "name": "wrapped",
          "type": "bool"
        }
      ],
      "stateMutability": "view",
      "type": "function"
    },
    {
      "inputs": [
        {
          "internalType": "bytes32",
          "name": "h",
          "type": "bytes32"
        }
      ],
      "name": "subnets",
      "outputs": [
        {
          "components": [
            {
              "internalType": "uint256",
              "name": "stake",
              "type": "uint256"
            },
            {
              "internalType": "uint256",
              "name": "genesisEpoch",
              "type": "uint256"
            },
            {
              "internalType": "uint256",
              "name": "circSupply",
              "type": "uint256"
            },
            {
              "internalType": "uint64",
              "name": "topDownNonce",
              "type": "uint64"
            },
            {
              "internalType": "uint64",
              "name": "appliedBottomUpNonce",
              "type": "uint64"
            },
            {
              "internalType": "enum Status",
              "name": "status",
              "type": "uint8"
            },
            {
              "components": [
                {
                  "internalType": "uint64",
                  "name": "root",
                  "type": "uint64"
                },
                {
                  "internalType": "address[]",
                  "name": "route",
                  "type": "address[]"
                }
              ],
              "internalType": "struct SubnetID",
              "name": "id",
              "type": "tuple"
            }
          ],
          "internalType": "struct Subnet",
          "name": "subnet",
          "type": "tuple"
        }
      ],
      "stateMutability": "view",
      "type": "function"
    },
    {
      "inputs": [],
      "name": "totalSubnets",
      "outputs": [
        {
          "internalType": "uint64",
          "name": "",
          "type": "uint64"
        }
      ],
      "stateMutability": "view",
      "type": "function"
    }
  ],
  "bytecode": {
    "object": "0x608060405234801561001057600080fd5b50612d73806100206000396000f3fe608060405234801561001057600080fd5b50600436106101da5760003560e01c80638cfd78e711610104578063a823cb23116100a2578063b932488f11610071578063b932488f14610540578063c66c66a114610553578063f322913114610574578063f7ceaf761461057c57600080fd5b8063a823cb23146104cc578063ad8c4f74146104ec578063b1ba49b01461050f578063b45ff1721461052057600080fd5b80639d3070b5116100de5780639d3070b51461045a5780639e530b571461046d578063a2b671581461049f578063a517218f146104b757600080fd5b80638cfd78e71461040f57806394074b0314610430578063970427661461044557600080fd5b806341b6a2e81161017c5780635d0296851161014b5780635d029685146103b45780636ad21bb0146103c95780637edeac92146103de5780638789f83b146103f157600080fd5b806341b6a2e8146102df5780634512ff63146102f5578063544dddff14610398578063599c7bd1146103a957600080fd5b806306c46853116101b857806306c468531461029957806324729425146102be578063375b3c0a146102c65780633e37cfa2146102ce57600080fd5b806302e30f9a146101df5780630338150f1461020857806306572c1a14610278575b600080fd5b6101f26101ed366004612369565b6105a8565b6040516101ff9190612489565b60405180910390f35b6040805180820182526000808252602091820181905282518084018452818152820181905260035483518085018552828152830182905281526002825282902082518084019093528054835260010154908201525b604080518251815260209283015192810192909252016101ff565b61028b610286366004612369565b6106ce565b6040519081526020016101ff565b6018546001600160401b03165b6040516001600160401b0390911681526020016101ff565b60165461028b565b60155461028b565b600d546001600160401b03166102a6565b60175461010090046001600160401b03166102a6565b61038b6103033660046124b8565b6040805160a081018252600080825260208201819052918101829052606081018290526080810191909152506001600160401b03166000908152600b6020908152604091829020825160a081018452815481526001820154928101929092526002810154928201929092526003820154606082015260049091015460ff161515608082015290565b6040516101ff91906124d3565b6007546001600160401b03166102a6565b60175460ff166102a6565b6103bc6106e8565b6040516101ff919061250e565b6103d16108b4565b6040516101ff91906125b6565b61025d6103ec366004612369565b6109f9565b601754690100000000000000000090046001600160401b03166102a6565b61042261041d366004612369565b610a43565b6040516101ff92919061273b565b610438610dd8565b6040516101ff919061275f565b61044d610e6d565b6040516101ff91906127ca565b61028b610468366004612968565b611018565b61048061047b3660046129b4565b611039565b6040805192151583526001600160401b039091166020830152016101ff565b601754600160881b90046001600160401b03166102a6565b6104bf61107f565b6040516101ff91906129e8565b6104df6104da366004612a20565b61108b565b6040516101ff9190612a64565b6104ff6104fa3660046124b8565b61109f565b6040516101ff9493929190612ace565b6009546001600160401b03166102a6565b61053361052e3660046124b8565b611381565b6040516101ff9190612bbd565b6104df61054e3660046124b8565b61145f565b6105666105613660046129b4565b61184b565b6040516101ff929190612bd0565b6103d161196e565b61028b61058a3660046124b8565b6001600160401b03166000908152600b602052604090206003015490565b6105b0612233565b60008281526020818152604091829020825160e0810184528154815260018201549281019290925260028101549282019290925260038201546001600160401b038082166060840152600160401b820416608083015290919060a0830190600160801b900460ff16600581111561062957610629612382565b600581111561063a5761063a612382565b81526040805180820182526004840180546001600160401b031682526005850180548451602082810282018101909652818152958501959394929385840193909291908301828280156106b657602002820191906000526020600020905b81546001600160a01b03168152600190910190602001808311610698575b5050509190925250505090525092915050565b905090565b6017546000906106e290839060ff16611a91565b92915050565b6012546060906000816001600160401b038111156107085761070861281f565b60405190808252806020026020018201604052801561074157816020015b61072e612233565b8152602001906001900390816107265790505b50905060005b828110156108ad57600080601201828154811061076657610766612beb565b6000918252602080832090910154808352828252604092839020835160e0810185528154815260018201549381019390935260028101549383019390935260038301546001600160401b038082166060850152600160401b820416608084015290935090919060a083019060ff600160801b9091041660058111156107ed576107ed612382565b60058111156107fe576107fe612382565b81526040805180820182526004840180546001600160401b0316825260058501805484516020828102820181019096528181529585019593949293858401939092919083018282801561087a57602002820191906000526020600020905b81546001600160a01b0316815260019091019060200180831161085c575b5050505050815250508152505083838151811061089957610899612beb565b602090810291909101015250600101610747565b5092915050565b60408051808201909152606081526000602082015260408051600680546060602082028401810185529383018181529293919284929091849160009085015b828210156109d757600084815260209081902060408051606081018252600386029092018054835260018101546001600160a01b0316938301939093526002830180549293929184019161094690612c01565b80601f016020809104026020016040519081016040528092919081815260200182805461097290612c01565b80156109bf5780601f10610994576101008083540402835291602001916109bf565b820191906000526020600020905b8154815290600101906020018083116109a257829003601f168201915b505050505081525050815260200190600101906108f3565b50505090825250600191909101546001600160401b0316602090910152919050565b6040805180820182526000808252602080830182905283518085018552828152810182905284825260028152908390208351808501909452805484526001015490830152906106e2565b610a4b612282565b6000828152600460209081526040808320600c81015482516101608101845282546001600160401b03166101208201908152600184018054865181890281018901909752808752949660ff9094169592948794869460e086019487948694919386936101408a0193909291830182828015610aef57602002820191906000526020600020905b81546001600160a01b03168152600190910190602001808311610ad1575b5050509190925250505081526040805180820190915260028301805460ff16825260038401805460209485019484019190610b2990612c01565b80601f0160208091040260200160405190810160405280929190818152602001828054610b5590612c01565b8015610ba25780601f10610b7757610100808354040283529160200191610ba2565b820191906000526020600020905b815481529060010190602001808311610b8557829003601f168201915b505050919092525050509052508152604080516080810182526004840180546001600160401b0316828401908152600586018054855160208281028201810190975281815296860196949593948694869360608701939091830182828015610c3357602002820191906000526020600020905b81546001600160a01b03168152600190910190602001808311610c15575b5050509190925250505081526040805180820190915260028301805460ff16825260038401805460209485019484019190610c6d90612c01565b80601f0160208091040260200160405190810160405280929190818152602001828054610c9990612c01565b8015610ce65780601f10610cbb57610100808354040283529160200191610ce6565b820191906000526020600020905b815481529060010190602001808311610cc957829003601f168201915b5050509190925250505090525081526008820154602082015260098201546001600160401b0381166040830152600160401b900460e01b6001600160e01b0319166060820152600a82018054608090920191610d4190612c01565b80601f0160208091040260200160405190810160405280929190818152602001828054610d6d90612c01565b8015610dba5780601f10610d8f57610100808354040283529160200191610dba565b820191906000526020600020905b815481529060010190602001808311610d9d57829003601f168201915b50505050508152602001600b82015481525050915091509150915091565b604080518082019091526000815260606020820152604080518082018252601380546001600160401b03168252601480548451602082810282018101909652818152939492938386019390929190830182828015610e5f57602002820191906000526020600020905b81546001600160a01b03168152600190910190602001808311610e41575b505050505081525050905090565b60606000610e7b600e611aa9565b80519091506000816001600160401b03811115610e9a57610e9a61281f565b604051908082528060200260200182016040528015610ed357816020015b610ec06122ca565b815260200190600190039081610eb85790505b50905060005b82816001600160401b03161015611010576000600a01600085836001600160401b031681518110610f0c57610f0c612beb565b6020908102919091018101516001600160401b039081168352828201939093526040918201600020825160e081018452815490941660a08501908152600182018054855181860281018601909652808652929486949293869360c08701939190830182828015610fa557602002820191906000526020600020905b81546001600160a01b03168152600190910190602001808311610f87575b50505091909252505050815260028201546001600160401b03908116602083015260038301546040830152600483015481166060830152600590920154608090910152835184918416908110610ffd57610ffd612beb565b6020908102919091010152600101610ed9565b509392505050565b60008061102483611ab6565b600301546001600160401b0316949350505050565b600080808061104f61104a86612c35565b611ab6565b9150915081611065575060009485945092505050565b600301546001956001600160401b03909116945092505050565b60606106c9600e611aa9565b6060611098838384611c49565b9392505050565b6110a76122ca565b6040805160a0810182526000808252602082018190529181018290526060810182905260808101919091526001600160401b038084166000908152600a6020908152604091829020825160e081018452815490941660a0850190815260018201805485518186028101860190965280865260609687969095869493869360c08701939283018282801561116357602002820191906000526020600020905b81546001600160a01b03168152600190910190602001808311611145575b5050509190925250505081526002828101546001600160401b039081166020808501919091526003808601546040808701919091526004808801548516606080890191909152600590980154608097880152938d166000818152600b8552828120835160a0810185528154815260018201548188015297810154888501529384015498870198909852919093015460ff1615159484019490945292845260109092529120919550935061121590611aa9565b8051909250806001600160401b038111156112325761123261281f565b60405190808252806020026020018201604052801561126557816020015b60608152602001906001900390816112505790505b50915060005b81811015611378576001600160401b038716600090815260116020526040812085519091908690849081106112a2576112a2612beb565b60200260200101516001600160a01b03166001600160a01b0316815260200190815260200160002080546112d590612c01565b80601f016020809104026020016040519081016040528092919081815260200182805461130190612c01565b801561134e5780601f106113235761010080835404028352916020019161134e565b820191906000526020600020905b81548152906001019060200180831161133157829003601f168201915b505050505083828151811061136557611365612beb565b602090810291909101015260010161126b565b50509193509193565b6113896122ca565b6001600160401b038083166000908152600a6020908152604091829020825160e081018452815490941660a08501908152600182018054855181860281018601909652808652929486949293869360c0870193919083018282801561141757602002820191906000526020600020905b81546001600160a01b031681526001909101906020018083116113f9575b50505091909252505050815260028201546001600160401b03908116602083015260038301546040830152600483015416606082015260059091015460809091015292915050565b6001600160401b0381166000908152600c60209081526040808320805482518185028101850190935280835260609492939192909184015b82821015611840576000848152602090819020604080516101a081018252600d860290920180546001600160401b031661016084019081526001820180548451818802810188018652818152959693958795860194879486946101208901948794869486936101808d0193909183018282801561153d57602002820191906000526020600020905b81546001600160a01b0316815260019091019060200180831161151f575b5050509190925250505081526040805180820190915260028301805460ff1682526003840180546020948501948401919061157790612c01565b80601f01602080910402602001604051908101604052809291908181526020018280546115a390612c01565b80156115f05780601f106115c5576101008083540402835291602001916115f0565b820191906000526020600020905b8154815290600101906020018083116115d357829003601f168201915b505050919092525050509052508152604080516080810182526004840180546001600160401b031682840190815260058601805485516020828102820181019097528181529686019694959394869486936060870193909183018282801561168157602002820191906000526020600020905b81546001600160a01b03168152600190910190602001808311611663575b5050509190925250505081526040805180820190915260028301805460ff168252600384018054602094850194840191906116bb90612c01565b80601f01602080910402602001604051908101604052809291908181526020018280546116e790612c01565b80156117345780601f1061170957610100808354040283529160200191611734565b820191906000526020600020905b81548152906001019060200180831161171757829003601f168201915b5050509190925250505090525081526008820154602082015260098201546001600160401b0381166040830152600160401b900460e01b6001600160e01b0319166060820152600a8201805460809092019161178f90612c01565b80601f01602080910402602001604051908101604052809291908181526020018280546117bb90612c01565b80156118085780601f106117dd57610100808354040283529160200191611808565b820191906000526020600020905b8154815290600101906020018083116117eb57829003601f168201915b5050509183525050600b9190910154602091820152908252600c929092015460ff161515908201529082526001929092019101611497565b505050509050919050565b6000611855612233565b61186161104a84612c35565b6040805160e081018252825481526001830154602082015260028301549181019190915260038201546001600160401b038082166060840152600160401b8204166080830152829060a0830190600160801b900460ff1660058111156118c9576118c9612382565b60058111156118da576118da612382565b81526040805180820182526004840180546001600160401b0316825260058501805484516020828102820181019096528181529585019593949293858401939092919083018282801561195657602002820191906000526020600020905b81546001600160a01b03168152600190910190602001808311611938575b50505050508152505081525050905091509150915091565b60408051808201909152606081526000602082015260408051600880546060602082028401810185529383018181529293919284929091849160009085015b828210156109d757600084815260209081902060408051606081018252600386029092018054835260018101546001600160a01b03169383019390935260028301805492939291840191611a0090612c01565b80601f0160208091040260200160405190810160405280929190818152602001828054611a2c90612c01565b8015611a795780601f10611a4e57610100808354040283529160200191611a79565b820191906000526020600020905b815481529060010190602001808311611a5c57829003601f168201915b505050505081525050815260200190600101906119ad565b60006064611a9f8385612c57565b6110989190612c6e565b60606000611098836121d7565b6040516390ba52cf60e01b8152600090819081908190819073__$a0fe38a9a81205afccc10810b09a4d3f45$__906390ba52cf90611af8908990600401612c90565b602060405180830381865af4158015611b15573d6000803e3d6000fd5b505050506040513d601f19601f82011682018060405250810190611b399190612cef565b81526020808201929092526040908101600020815180830183526004820180546001600160401b031682526005830180548551818802810188019096528086529397509194909385820193909291830182828015611bc057602002820191906000526020600020905b81546001600160a01b03168152600190910190602001808311611ba2575b505050919092525050604051630c133d1360e31b815273__$a0fe38a9a81205afccc10810b09a4d3f45$__92636099e8989250611bff91600401612c90565b602060405180830381865af4158015611c1c573d6000803e3d6000fd5b505050506040513d601f19601f82011682018060405250810190611c409190612d08565b15925050915091565b6060600082841115611c8f576040805160008082526020820190925290611c86565b611c73612309565b815260200190600190039081611c6b5790505b50915050611098565b6000611c9a86612c35565b6040516390ba52cf60e01b815273__$a0fe38a9a81205afccc10810b09a4d3f45$__916390ba52cf91611cd09190600401612c90565b602060405180830381865af4158015611ced573d6000803e3d6000fd5b505050506040513d601f19601f82011682018060405250810190611d119190612cef565b90506000855b858111611d4e5760008381526001850160209081526040808320848452909152902054611d449083612d2a565b9150600101611d17565b506000816001600160401b03811115611d6957611d6961281f565b604051908082528060200260200182016040528015611da257816020015b611d8f612309565b815260200190600190039081611d875790505b5090506000875b8781116121c95760008581526001870160209081526040808320848452909152812054905b818110156121bf57600087815260018901602090815260408083208684529091529020805482908110611e0357611e03612beb565b6000918252602091829020604080516101a081018252600d90930290910180546001600160401b031661016084019081526001820180548451818802810188018652818152959693958795860194879486946101208901948794869486936101808d01939091830182828015611ea257602002820191906000526020600020905b81546001600160a01b03168152600190910190602001808311611e84575b5050509190925250505081526040805180820190915260028301805460ff16825260038401805460209485019484019190611edc90612c01565b80601f0160208091040260200160405190810160405280929190818152602001828054611f0890612c01565b8015611f555780601f10611f2a57610100808354040283529160200191611f55565b820191906000526020600020905b815481529060010190602001808311611f3857829003601f168201915b505050919092525050509052508152604080516080810182526004840180546001600160401b0316828401908152600586018054855160208281028201810190975281815296860196949593948694869360608701939091830182828015611fe657602002820191906000526020600020905b81546001600160a01b03168152600190910190602001808311611fc8575b5050509190925250505081526040805180820190915260028301805460ff1682526003840180546020948501948401919061202090612c01565b80601f016020809104026020016040519081016040528092919081815260200182805461204c90612c01565b80156120995780601f1061206e57610100808354040283529160200191612099565b820191906000526020600020905b81548152906001019060200180831161207c57829003601f168201915b5050509190925250505090525081526008820154602082015260098201546001600160401b0381166040830152600160401b900460e01b6001600160e01b0319166060820152600a820180546080909201916120f490612c01565b80601f016020809104026020016040519081016040528092919081815260200182805461212090612c01565b801561216d5780601f106121425761010080835404028352916020019161216d565b820191906000526020600020905b81548152906001019060200180831161215057829003601f168201915b5050509183525050600b9190910154602091820152908252600c929092015460ff16151591015285518690869081106121a8576121a8612beb565b602090810291909101015260019384019301611dce565b5050600101611da9565b509098975050505050505050565b60608160000180548060200260200160405190810160405280929190818152602001828054801561222757602002820191906000526020600020905b815481526020019060010190808311612213575b50505050509050919050565b6040805160e0810182526000808252602080830182905282840182905260608084018390526080840183905260a0840183905284518086019095529184528301529060c082015290565b905290565b6040518060e00160405280612295612329565b81526020016122a2612329565b8152600060208201819052604082018190526060808301829052608083015260a09091015290565b6040805160e08101909152600060a08201908152606060c083015281908152600060208201819052604082018190526060820181905260809091015290565b604051806040016040528061231c612282565b8152600060209091015290565b604080516080810182526000918101918252606080820152908190815260200161227d6040518060400160405280600060ff168152602001606081525090565b60006020828403121561237b57600080fd5b5035919050565b634e487b7160e01b600052602160045260246000fd5b6000604083016001600160401b0383511684526020808401516040828701528281518085526060880191508383019450600092505b808310156123f65784516001600160a01b031682529383019360019290920191908301906123cd565b509695505050505050565b805182526020810151602083015260408101516040830152600060608201516001600160401b038082166060860152806080850151166080860152505060a08201516006811061246157634e487b7160e01b600052602160045260246000fd5b8060a08501525060c082015160e060c085015261248160e0850182612398565b949350505050565b6020815260006110986020830184612401565b80356001600160401b03811681146124b357600080fd5b919050565b6000602082840312156124ca57600080fd5b6110988261249c565b60a081016106e28284805182526020810151602083015260408101516040830152606081015160608301526080810151151560808301525050565b6000602080830181845280855180835260408601915060408160051b870101925083870160005b8281101561256357603f19888603018452612551858351612401565b94509285019290850190600101612535565b5092979650505050505050565b6000815180845260005b818110156125965760208185018101518683018201520161257a565b506000602082860101526020601f19601f83011685010191505092915050565b60006020808352606080840185516040808588015282825180855260808901915060808160051b8a01019450868401935060005b8181101561263a57898603607f19018352845180518752888101516001600160a01b03168988015284015184870188905261262788880182612570565b96505093870193918701916001016125ea565b505050938701516001600160401b03811687860152935b50909695505050505050565b60008151604084526126726040850182612398565b90506020830151848203602086015260ff815116825260208101519050604060208301526126a36040830182612570565b95945050505050565b6000815160e084526126c160e085018261265d565b9050602083015184820360208601526126da828261265d565b915050604083015160408501526001600160401b03606084015116606085015263ffffffff60e01b608084015116608085015260a083015184820360a08601526127248282612570565b91505060c083015160c08501528091505092915050565b60408152600061274e60408301856126ac565b905082151560208301529392505050565b6020815260006110986020830184612398565b6000815160a0845261278760a0850182612398565b905060208301516001600160401b038082166020870152604085015160408701528060608601511660608701525050608083015160808501528091505092915050565b6000602080830181845280855180835260408601915060408160051b870101925083870160005b8281101561256357603f1988860301845261280d858351612772565b945092850192908501906001016127f1565b634e487b7160e01b600052604160045260246000fd5b604080519081016001600160401b03811182821017156128575761285761281f565b60405290565b604051601f8201601f191681016001600160401b03811182821017156128855761288561281f565b604052919050565b60006040828403121561289f57600080fd5b6128a7612835565b90506128b28261249c565b81526020808301356001600160401b03808211156128cf57600080fd5b818501915085601f8301126128e357600080fd5b8135818111156128f5576128f561281f565b8060051b915061290684830161285d565b818152918301840191848101908884111561292057600080fd5b938501935b8385101561295757843592506001600160a01b03831683146129475760008081fd5b8282529385019390850190612925565b808688015250505050505092915050565b60006020828403121561297a57600080fd5b81356001600160401b0381111561299057600080fd5b6124818482850161288d565b6000604082840312156129ae57600080fd5b50919050565b6000602082840312156129c657600080fd5b81356001600160401b038111156129dc57600080fd5b6124818482850161299c565b6020808252825182820181905260009190848201906040850190845b8181101561265157835183529284019291840191600101612a04565b60008060408385031215612a3357600080fd5b82356001600160401b03811115612a4957600080fd5b612a558582860161299c565b95602094909401359450505050565b60006020808301818452808551808352604092508286019150828160051b87010184880160005b838110156121c957888303603f1901855281518051878552612aaf888601826126ac565b9189015115159489019490945294870194925090860190600101612a8b565b6000610100808352612ae281840188612772565b90506020612b1f81850188805182526020810151602083015260408101516040830152606081015160608301526080810151151560808301525050565b83820360c085015285518083528187019282019060005b81811015612b5b5784516001600160a01b031683529383019391830191600101612b36565b505084810360e086015285518082528282019350600581901b8201830183880160005b83811015612bac57601f19858403018752612b9a838351612570565b96860196925090850190600101612b7e565b50909b9a5050505050505050505050565b6020815260006110986020830184612772565b82151581526040602082015260006124816040830184612401565b634e487b7160e01b600052603260045260246000fd5b600181811c90821680612c1557607f821691505b6020821081036129ae57634e487b7160e01b600052602260045260246000fd5b60006106e2368361288d565b634e487b7160e01b600052601160045260246000fd5b80820281158282048414176106e2576106e2612c41565b600082612c8b57634e487b7160e01b600052601260045260246000fd5b500490565b602080825282516001600160401b0316828201528281015160408084015280516060840181905260009291820190839060808601905b808310156123f65783516001600160a01b03168252928401926001929092019190840190612cc6565b600060208284031215612d0157600080fd5b5051919050565b600060208284031215612d1a57600080fd5b8151801515811461109857600080fd5b808201808211156106e2576106e2612c4156fea264697066735822122064ba6e08a1b8af8bfb7c98887c2eca6581e4426dd2bc8738cbf214dee1eefddb64736f6c63430008130033",
    "linkReferences": {
      "src/lib/SubnetIDHelper.sol": {
        "SubnetIDHelper": [
          {
            "start": 6896,
            "length": 20
          },
          {
            "start": 7160,
            "length": 20
          },
          {
            "start": 7369,
            "length": 20
          }
        ]
      }
    }
  },
  "methodIdentifiers": {
    "appliedTopDownNonce()": "8789f83b",
    "bottomUpCheckPeriod()": "06c46853",
    "bottomUpCheckpoint(uint64)": "b45ff172",
    "bottomUpMessages(uint64)": "b932488f",
    "bottomUpNonce()": "41b6a2e8",
    "crossMsgFee()": "24729425",
    "getAppliedTopDownNonce((uint64,address[]))": "9e530b57",
    "getBottomUpRetentionHeight()": "3e37cfa2",
    "getCheckpointCurrentWeight(uint64)": "f7ceaf76",
    "getCheckpointInfo(uint64)": "4512ff63",
    "getCurrentConfigurationNumber()": "544dddff",
    "getCurrentMembership()": "6ad21bb0",
    "getIncompleteCheckpointHeights()": "a517218f",
    "getIncompleteCheckpoints()": "97042766",
    "getLastConfigurationNumber()": "b1ba49b0",
    "getLastMembership()": "f3229131",
    "getLatestParentFinality()": "0338150f",
    "getNetworkName()": "94074b03",
    "getParentFinality(uint256)": "7edeac92",
    "getQuorumThreshold(uint256)": "06572c1a",
    "getSignatureBundle(uint64)": "ad8c4f74",
    "getSubnet((uint64,address[]))": "c66c66a1",
    "getSubnetTopDownMsgsLength((uint64,address[]))": "9d3070b5",
    "getTopDownMsgs((uint64,address[]),uint256)": "a823cb23",
    "listSubnets()": "5d029685",
    "majorityPercentage()": "599c7bd1",
    "minStake()": "375b3c0a",
    "postbox(bytes32)": "8cfd78e7",
    "subnets(bytes32)": "02e30f9a",
    "totalSubnets()": "a2b67158"
  },
  "id": 39
}