{
  "abi": [
    {
      "inputs": [
        {
          "internalType": "string",
          "name": "_name",
          "type": "string"
        },
        {
          "internalType": "string",
          "name": "_symbol",
          "type": "string"
        },
        {
          "internalType": "uint256",
          "name": "_initialSupply",
          "type": "uint256"
        }
      ],
      "stateMutability": "nonpayable",
      "type": "constructor"
    },
    {
      "inputs": [
        {
          "internalType": "address",
          "name": "spender",
          "type": "address"
        },
        {
          "internalType": "uint256",
          "name": "currentAllowance",
          "type": "uint256"
        },
        {
          "internalType": "uint256",
          "name": "requestedDecrease",
          "type": "uint256"
        }
      ],
      "name": "ERC20FailedDecreaseAllowance",
      "type": "error"
    },
    {
      "inputs": [
        {
          "internalType": "address",
          "name": "spender",
          "type": "address"
        },
        {
          "internalType": "uint256",
          "name": "allowance",
          "type": "uint256"
        },
        {
          "internalType": "uint256",
          "name": "needed",
          "type": "uint256"
        }
      ],
      "name": "ERC20InsufficientAllowance",
      "type": "error"
    },
    {
      "inputs": [
        {
          "internalType": "address",
          "name": "sender",
          "type": "address"
        },
        {
          "internalType": "uint256",
          "name": "balance",
          "type": "uint256"
        },
        {
          "internalType": "uint256",
          "name": "needed",
          "type": "uint256"
        }
      ],
      "name": "ERC20InsufficientBalance",
      "type": "error"
    },
    {
      "inputs": [
        {
          "internalType": "address",
          "name": "approver",
          "type": "address"
        }
      ],
      "name": "ERC20InvalidApprover",
      "type": "error"
    },
    {
      "inputs": [
        {
          "internalType": "address",
          "name": "receiver",
          "type": "address"
        }
      ],
      "name": "ERC20InvalidReceiver",
      "type": "error"
    },
    {
      "inputs": [
        {
          "internalType": "address",
          "name": "sender",
          "type": "address"
        }
      ],
      "name": "ERC20InvalidSender",
      "type": "error"
    },
    {
      "inputs": [
        {
          "internalType": "address",
          "name": "spender",
          "type": "address"
        }
      ],
      "name": "ERC20InvalidSpender",
      "type": "error"
    },
    {
      "inputs": [
        {
          "internalType": "address",
          "name": "owner",
          "type": "address"
        }
      ],
      "name": "OwnableInvalidOwner",
      "type": "error"
    },
    {
      "inputs": [
        {
          "internalType": "address",
          "name": "account",
          "type": "address"
        }
      ],
      "name": "OwnableUnauthorizedAccount",
      "type": "error"
    },
    {
      "anonymous": false,
      "inputs": [
        {
          "indexed": true,
          "internalType": "address",
          "name": "owner",
          "type": "address"
        },
        {
          "indexed": true,
          "internalType": "address",
          "name": "spender",
          "type": "address"
        },
        {
          "indexed": false,
          "internalType": "uint256",
          "name": "value",
          "type": "uint256"
        }
      ],
      "name": "Approval",
      "type": "event"
    },
    {
      "anonymous": false,
      "inputs": [
        {
          "indexed": true,
          "internalType": "address",
          "name": "previousOwner",
          "type": "address"
        },
        {
          "indexed": true,
          "internalType": "address",
          "name": "newOwner",
          "type": "address"
        }
      ],
      "name": "OwnershipTransferred",
      "type": "event"
    },
    {
      "anonymous": false,
      "inputs": [
        {
          "indexed": true,
          "internalType": "address",
          "name": "from",
          "type": "address"
        },
        {
          "indexed": true,
          "internalType": "address",
          "name": "to",
          "type": "address"
        },
        {
          "indexed": false,
          "internalType": "uint256",
          "name": "value",
          "type": "uint256"
        }
      ],
      "name": "Transfer",
      "type": "event"
    },
    {
      "inputs": [
        {
          "internalType": "address",
          "name": "owner",
          "type": "address"
        },
        {
          "internalType": "address",
          "name": "spender",
          "type": "address"
        }
      ],
      "name": "allowance",
      "outputs": [
        {
          "internalType": "uint256",
          "name": "",
          "type": "uint256"
        }
      ],
      "stateMutability": "view",
      "type": "function"
    },
    {
      "inputs": [
        {
          "internalType": "address",
          "name": "spender",
          "type": "address"
        },
        {
          "internalType": "uint256",
          "name": "amount",
          "type": "uint256"
        }
      ],
      "name": "approve",
      "outputs": [
        {
          "internalType": "bool",
          "name": "",
          "type": "bool"
        }
      ],
      "stateMutability": "nonpayable",
      "type": "function"
    },
    {
      "inputs": [
        {
          "internalType": "address",
          "name": "account",
          "type": "address"
        }
      ],
      "name": "balanceOf",
      "outputs": [
        {
          "internalType": "uint256",
          "name": "",
          "type": "uint256"
        }
      ],
      "stateMutability": "view",
      "type": "function"
    },
    {
      "inputs": [],
      "name": "currentSupply",
      "outputs": [
        {
          "internalType": "uint256",
          "name": "",
          "type": "uint256"
        }
      ],
      "stateMutability": "view",
      "type": "function"
    },
    {
      "inputs": [],
      "name": "decimals",
      "outputs": [
        {
          "internalType": "uint8",
          "name": "",
          "type": "uint8"
        }
      ],
      "stateMutability": "view",
      "type": "function"
    },
    {
      "inputs": [
        {
          "internalType": "address",
          "name": "spender",
          "type": "address"
        },
        {
          "internalType": "uint256",
          "name": "requestedDecrease",
          "type": "uint256"
        }
      ],
      "name": "decreaseAllowance",
      "outputs": [
        {
          "internalType": "bool",
          "name": "",
          "type": "bool"
        }
      ],
      "stateMutability": "nonpayable",
      "type": "function"
    },
    {
      "inputs": [
        {
          "internalType": "address",
          "name": "spender",
          "type": "address"
        },
        {
          "internalType": "uint256",
          "name": "addedValue",
          "type": "uint256"
        }
      ],
      "name": "increaseAllowance",
      "outputs": [
        {
          "internalType": "bool",
          "name": "",
          "type": "bool"
        }
      ],
      "stateMutability": "nonpayable",
      "type": "function"
    },
    {
      "inputs": [
        {
          "internalType": "address",
          "name": "_to",
          "type": "address"
        },
        {
          "internalType": "uint256",
          "name": "_amount",
          "type": "uint256"
        }
      ],
      "name": "mint",
      "outputs": [],
      "stateMutability": "nonpayable",
      "type": "function"
    },
    {
      "inputs": [],
      "name": "name",
      "outputs": [
        {
          "internalType": "string",
          "name": "",
          "type": "string"
        }
      ],
      "stateMutability": "view",
      "type": "function"
    },
    {
      "inputs": [],
      "name": "owner",
      "outputs": [
        {
          "internalType": "address",
          "name": "",
          "type": "address"
        }
      ],
      "stateMutability": "view",
      "type": "function"
    },
    {
      "inputs": [],
      "name": "renounceOwnership",
      "outputs": [],
      "stateMutability": "nonpayable",
      "type": "function"
    },
    {
      "inputs": [],
      "name": "symbol",
      "outputs": [
        {
          "internalType": "string",
          "name": "",
          "type": "string"
        }
      ],
      "stateMutability": "view",
      "type": "function"
    },
    {
      "inputs": [],
      "name": "totalSupply",
      "outputs": [
        {
          "internalType": "uint256",
          "name": "",
          "type": "uint256"
        }
      ],
      "stateMutability": "view",
      "type": "function"
    },
    {
      "inputs": [
        {
          "internalType": "address",
          "name": "to",
          "type": "address"
        },
        {
          "internalType": "uint256",
          "name": "amount",
          "type": "uint256"
        }
      ],
      "name": "transfer",
      "outputs": [
        {
          "internalType": "bool",
          "name": "",
          "type": "bool"
        }
      ],
      "stateMutability": "nonpayable",
      "type": "function"
    },
    {
      "inputs": [
        {
          "internalType": "address",
          "name": "from",
          "type": "address"
        },
        {
          "internalType": "address",
          "name": "to",
          "type": "address"
        },
        {
          "internalType": "uint256",
          "name": "amount",
          "type": "uint256"
        }
      ],
      "name": "transferFrom",
      "outputs": [
        {
          "internalType": "bool",
          "name": "",
          "type": "bool"
        }
      ],
      "stateMutability": "nonpayable",
      "type": "function"
    },
    {
      "inputs": [
        {
          "internalType": "address",
          "name": "newOwner",
          "type": "address"
        }
      ],
      "name": "transferOwnership",
      "outputs": [],
      "stateMutability": "nonpayable",
      "type": "function"
    }
  ],
  "bytecode": {
    "object": "0x608060405260006006553480156200001657600080fd5b5060405162000e7638038062000e76833981016040819052620000399162000321565b33838360036200004a838262000423565b50600462000059828262000423565b5050506200006d816200009560201b60201c565b506200008c620000856005546001600160a01b031690565b82620000e7565b50505062000517565b600580546001600160a01b038381166001600160a01b0319831681179093556040519116919082907f8be0079c531659141344cd1fd0a4f28419497f9722a3daafe3b4186f6b6457e090600090a35050565b6001600160a01b038216620001175760405163ec442f0560e01b8152600060048201526024015b60405180910390fd5b620001256000838362000129565b5050565b6001600160a01b038316620001585780600260008282546200014c9190620004ef565b90915550620001cc9050565b6001600160a01b03831660009081526020819052604090205481811015620001ad5760405163391434e360e21b81526001600160a01b038516600482015260248101829052604481018390526064016200010e565b6001600160a01b03841660009081526020819052604090209082900390555b6001600160a01b038216620001ea5760028054829003905562000209565b6001600160a01b03821660009081526020819052604090208054820190555b816001600160a01b0316836001600160a01b03167fddf252ad1be2c89b69c2b068fc378daa952ba7f163c4a11628f55a4df523b3ef836040516200024f91815260200190565b60405180910390a3505050565b634e487b7160e01b600052604160045260246000fd5b600082601f8301126200028457600080fd5b81516001600160401b0380821115620002a157620002a16200025c565b604051601f8301601f19908116603f01168101908282118183101715620002cc57620002cc6200025c565b81604052838152602092508683858801011115620002e957600080fd5b600091505b838210156200030d5785820183015181830184015290820190620002ee565b600093810190920192909252949350505050565b6000806000606084860312156200033757600080fd5b83516001600160401b03808211156200034f57600080fd5b6200035d8783880162000272565b945060208601519150808211156200037457600080fd5b50620003838682870162000272565b925050604084015190509250925092565b600181811c90821680620003a957607f821691505b602082108103620003ca57634e487b7160e01b600052602260045260246000fd5b50919050565b601f8211156200041e57600081815260208120601f850160051c81016020861015620003f95750805b601f850160051c820191505b818110156200041a5782815560010162000405565b5050505b505050565b81516001600160401b038111156200043f576200043f6200025c565b620004578162000450845462000394565b84620003d0565b602080601f8311600181146200048f5760008415620004765750858301515b600019600386901b1c1916600185901b1785556200041a565b600085815260208120601f198616915b82811015620004c0578886015182559484019460019091019084016200049f565b5085821015620004df5787850151600019600388901b60f8161c191681555b5050505050600190811b01905550565b808201808211156200051157634e487b7160e01b600052601160045260246000fd5b92915050565b61094f80620005276000396000f3fe608060405234801561001057600080fd5b50600436106101005760003560e01c8063715018a611610097578063a457c2d711610066578063a457c2d7146101ff578063a9059cbb14610212578063dd62ed3e14610225578063f2fde38b1461023857600080fd5b8063715018a6146101cb578063771282f6146101d35780638da5cb5b146101dc57806395d89b41146101f757600080fd5b8063313ce567116100d3578063313ce5671461016b578063395093511461017a57806340c10f191461018d57806370a08231146101a257600080fd5b806306fdde0314610105578063095ea7b31461012357806318160ddd1461014657806323b872dd14610158575b600080fd5b61010d61024b565b60405161011a9190610799565b60405180910390f35b610136610131366004610803565b6102dd565b604051901515815260200161011a565b6002545b60405190815260200161011a565b61013661016636600461082d565b6102f7565b6040516012815260200161011a565b610136610188366004610803565b61031b565b6101a061019b366004610803565b61033d565b005b61014a6101b0366004610869565b6001600160a01b031660009081526020819052604090205490565b6101a0610353565b61014a60065481565b6005546040516001600160a01b03909116815260200161011a565b61010d610367565b61013661020d366004610803565b610376565b610136610220366004610803565b6103d2565b61014a61023336600461088b565b6103e0565b6101a0610246366004610869565b61040b565b60606003805461025a906108be565b80601f0160208091040260200160405190810160405280929190818152602001828054610286906108be565b80156102d35780601f106102a8576101008083540402835291602001916102d3565b820191906000526020600020905b8154815290600101906020018083116102b657829003601f168201915b5050505050905090565b6000336102eb818585610449565b60019150505b92915050565b6000336103058582856104ff565b610310858585610563565b506001949350505050565b6000336102eb81858561032e83836103e0565b61033891906108f8565b610449565b6103456105c7565b61034f82826105f4565b5050565b61035b6105c7565b610365600061062a565b565b60606004805461025a906108be565b6000338161038482866103e0565b9050838110156103c557604051632983c0c360e21b81526001600160a01b038616600482015260248101829052604481018590526064015b60405180910390fd5b6103108286868403610449565b6000336102eb818585610563565b6001600160a01b03918216600090815260016020908152604080832093909416825291909152205490565b6104136105c7565b6001600160a01b03811661043d57604051631e4fbdf760e01b8152600060048201526024016103bc565b6104468161062a565b50565b6001600160a01b0383166104735760405163e602df0560e01b8152600060048201526024016103bc565b6001600160a01b03821661049d57604051634a1406b160e11b8152600060048201526024016103bc565b6001600160a01b0383811660008181526001602090815260408083209487168084529482529182902085905590518481527f8c5be1e5ebec7d5bd14f71427d1e84f3dd0314c0f7b2291e5b200ac8c7c3b92591015b60405180910390a3505050565b600061050b84846103e0565b9050600019811461055d578181101561055057604051637dc7a0d960e11b81526001600160a01b038416600482015260248101829052604481018390526064016103bc565b61055d8484848403610449565b50505050565b6001600160a01b03831661058d57604051634b637e8f60e11b8152600060048201526024016103bc565b6001600160a01b0382166105b75760405163ec442f0560e01b8152600060048201526024016103bc565b6105c283838361067c565b505050565b6005546001600160a01b031633146103655760405163118cdaa760e01b81523360048201526024016103bc565b6001600160a01b03821661061e5760405163ec442f0560e01b8152600060048201526024016103bc565b61034f6000838361067c565b600580546001600160a01b038381166001600160a01b0319831681179093556040519116919082907f8be0079c531659141344cd1fd0a4f28419497f9722a3daafe3b4186f6b6457e090600090a35050565b6001600160a01b0383166106a757806002600082825461069c91906108f8565b909155506107199050565b6001600160a01b038316600090815260208190526040902054818110156106fa5760405163391434e360e21b81526001600160a01b038516600482015260248101829052604481018390526064016103bc565b6001600160a01b03841660009081526020819052604090209082900390555b6001600160a01b03821661073557600280548290039055610754565b6001600160a01b03821660009081526020819052604090208054820190555b816001600160a01b0316836001600160a01b03167fddf252ad1be2c89b69c2b068fc378daa952ba7f163c4a11628f55a4df523b3ef836040516104f291815260200190565b600060208083528351808285015260005b818110156107c6578581018301518582016040015282016107aa565b506000604082860101526040601f19601f8301168501019250505092915050565b80356001600160a01b03811681146107fe57600080fd5b919050565b6000806040838503121561081657600080fd5b61081f836107e7565b946020939093013593505050565b60008060006060848603121561084257600080fd5b61084b846107e7565b9250610859602085016107e7565b9150604084013590509250925092565b60006020828403121561087b57600080fd5b610884826107e7565b9392505050565b6000806040838503121561089e57600080fd5b6108a7836107e7565b91506108b5602084016107e7565b90509250929050565b600181811c908216806108d257607f821691505b6020821081036108f257634e487b7160e01b600052602260045260246000fd5b50919050565b808201808211156102f157634e487b7160e01b600052601160045260246000fdfea2646970667358221220550b4bc4ed79cca17662fc87b22a1ed930fa69300591de1dfeee20fa2b97b12e64736f6c63430008130033",
    "linkReferences": {}
  },
  "methodIdentifiers": {
    "allowance(address,address)": "dd62ed3e",
    "approve(address,uint256)": "095ea7b3",
    "balanceOf(address)": "70a08231",
    "currentSupply()": "771282f6",
    "decimals()": "313ce567",
    "decreaseAllowance(address,uint256)": "a457c2d7",
    "increaseAllowance(address,uint256)": "39509351",
    "mint(address,uint256)": "40c10f19",
    "name()": "06fdde03",
    "owner()": "8da5cb5b",
    "renounceOwnership()": "715018a6",
    "symbol()": "95d89b41",
    "totalSupply()": "18160ddd",
    "transfer(address,uint256)": "a9059cbb",
    "transferFrom(address,address,uint256)": "23b872dd",
    "transferOwnership(address)": "f2fde38b"
  },
  "id": 80
}