{"abi":[{"type":"function","name":"addBatchSignature","inputs":[{"name":"height","type":"uint256","internalType":"uint256"},{"name":"membershipProof","type":"bytes32[]","internalType":"bytes32[]"},{"name":"weight","type":"uint256","internalType":"uint256"},{"name":"signature","type":"bytes","internalType":"bytes"}],"outputs":[],"stateMutability":"nonpayable"},{"type":"function","name":"addCheckpointSignature","inputs":[{"name":"height","type":"uint256","internalType":"uint256"},{"name":"membershipProof","type":"bytes32[]","internalType":"bytes32[]"},{"name":"weight","type":"uint256","internalType":"uint256"},{"name":"signature","type":"bytes","internalType":"bytes"}],"outputs":[],"stateMutability":"nonpayable"},{"type":"function","name":"applyCrossMessages","inputs":[{"name":"crossMsgs","type":"tuple[]","internalType":"struct CrossMsg[]","components":[{"name":"message","type":"tuple","internalType":"struct StorableMsg","components":[{"name":"from","type":"tuple","internalType":"struct IPCAddress","components":[{"name":"subnetId","type":"tuple","internalType":"struct SubnetID","components":[{"name":"root","type":"uint64","internalType":"uint64"},{"name":"route","type":"address[]","internalType":"address[]"}]},{"name":"rawAddress","type":"tuple","internalType":"struct FvmAddress","components":[{"name":"addrType","type":"uint8","internalType":"uint8"},{"name":"payload","type":"bytes","internalType":"bytes"}]}]},{"name":"to","type":"tuple","internalType":"struct IPCAddress","components":[{"name":"subnetId","type":"tuple","internalType":"struct SubnetID","components":[{"name":"root","type":"uint64","internalType":"uint64"},{"name":"route","type":"address[]","internalType":"address[]"}]},{"name":"rawAddress","type":"tuple","internalType":"struct FvmAddress","components":[{"name":"addrType","type":"uint8","internalType":"uint8"},{"name":"payload","type":"bytes","internalType":"bytes"}]}]},{"name":"value","type":"uint256","internalType":"uint256"},{"name":"nonce","type":"uint64","internalType":"uint64"},{"name":"method","type":"bytes4","internalType":"bytes4"},{"name":"params","type":"bytes","internalType":"bytes"},{"name":"fee","type":"uint256","internalType":"uint256"}]},{"name":"wrapped","type":"bool","internalType":"bool"}]}],"outputs":[],"stateMutability":"nonpayable"},{"type":"function","name":"applyFinalityChanges","inputs":[],"outputs":[{"name":"","type":"uint64","internalType":"uint64"}],"stateMutability":"nonpayable"},{"type":"function","name":"commitCheckpoint","inputs":[{"name":"checkpoint","type":"tuple","internalType":"struct BottomUpCheckpoint","components":[{"name":"subnetID","type":"tuple","internalType":"struct SubnetID","components":[{"name":"root","type":"uint64","internalType":"uint64"},{"name":"route","type":"address[]","internalType":"address[]"}]},{"name":"blockHeight","type":"uint256","internalType":"uint256"},{"name":"blockHash","type":"bytes32","internalType":"bytes32"},{"name":"nextConfigurationNumber","type":"uint64","internalType":"uint64"}]}],"outputs":[],"stateMutability":"nonpayable"},{"type":"function","name":"commitParentFinality","inputs":[{"name":"finality","type":"tuple","internalType":"struct ParentFinality","components":[{"name":"height","type":"uint256","internalType":"uint256"},{"name":"blockHash","type":"bytes32","internalType":"bytes32"}]}],"outputs":[{"name":"hasCommittedBefore","type":"bool","internalType":"bool"},{"name":"previousFinality","type":"tuple","internalType":"struct ParentFinality","components":[{"name":"height","type":"uint256","internalType":"uint256"},{"name":"blockHash","type":"bytes32","internalType":"bytes32"}]}],"stateMutability":"nonpayable"},{"type":"function","name":"createBottomUpCheckpoint","inputs":[{"name":"checkpoint","type":"tuple","internalType":"struct BottomUpCheckpoint","components":[{"name":"subnetID","type":"tuple","internalType":"struct SubnetID","components":[{"name":"root","type":"uint64","internalType":"uint64"},{"name":"route","type":"address[]","internalType":"address[]"}]},{"name":"blockHeight","type":"uint256","internalType":"uint256"},{"name":"blockHash","type":"bytes32","internalType":"bytes32"},{"name":"nextConfigurationNumber","type":"uint64","internalType":"uint64"}]},{"name":"membershipRootHash","type":"bytes32","internalType":"bytes32"},{"name":"membershipWeight","type":"uint256","internalType":"uint256"}],"outputs":[],"stateMutability":"nonpayable"},{"type":"function","name":"createBottomUpMsgBatch","inputs":[{"name":"batch","type":"tuple","internalType":"struct BottomUpMsgBatch","components":[{"name":"subnetID","type":"tuple","internalType":"struct SubnetID","components":[{"name":"root","type":"uint64","internalType":"uint64"},{"name":"route","type":"address[]","internalType":"address[]"}]},{"name":"blockHeight","type":"uint256","internalType":"uint256"},{"name":"msgs","type":"tuple[]","internalType":"struct CrossMsg[]","components":[{"name":"message","type":"tuple","internalType":"struct StorableMsg","components":[{"name":"from","type":"tuple","internalType":"struct IPCAddress","components":[{"name":"subnetId","type":"tuple","internalType":"struct SubnetID","components":[{"name":"root","type":"uint64","internalType":"uint64"},{"name":"route","type":"address[]","internalType":"address[]"}]},{"name":"rawAddress","type":"tuple","internalType":"struct FvmAddress","components":[{"name":"addrType","type":"uint8","internalType":"uint8"},{"name":"payload","type":"bytes","internalType":"bytes"}]}]},{"name":"to","type":"tuple","internalType":"struct IPCAddress","components":[{"name":"subnetId","type":"tuple","internalType":"struct SubnetID","components":[{"name":"root","type":"uint64","internalType":"uint64"},{"name":"route","type":"address[]","internalType":"address[]"}]},{"name":"rawAddress","type":"tuple","internalType":"struct FvmAddress","components":[{"name":"addrType","type":"uint8","internalType":"uint8"},{"name":"payload","type":"bytes","internalType":"bytes"}]}]},{"name":"value","type":"uint256","internalType":"uint256"},{"name":"nonce","type":"uint64","internalType":"uint64"},{"name":"method","type":"bytes4","internalType":"bytes4"},{"name":"params","type":"bytes","internalType":"bytes"},{"name":"fee","type":"uint256","internalType":"uint256"}]},{"name":"wrapped","type":"bool","internalType":"bool"}]}]},{"name":"membershipRootHash","type":"bytes32","internalType":"bytes32"},{"name":"membershipWeight","type":"uint256","internalType":"uint256"}],"outputs":[],"stateMutability":"nonpayable"},{"type":"function","name":"execBottomUpMsgBatch","inputs":[{"name":"batch","type":"tuple","internalType":"struct BottomUpMsgBatch","components":[{"name":"subnetID","type":"tuple","internalType":"struct SubnetID","components":[{"name":"root","type":"uint64","internalType":"uint64"},{"name":"route","type":"address[]","internalType":"address[]"}]},{"name":"blockHeight","type":"uint256","internalType":"uint256"},{"name":"msgs","type":"tuple[]","internalType":"struct CrossMsg[]","components":[{"name":"message","type":"tuple","internalType":"struct StorableMsg","components":[{"name":"from","type":"tuple","internalType":"struct IPCAddress","components":[{"name":"subnetId","type":"tuple","internalType":"struct SubnetID","components":[{"name":"root","type":"uint64","internalType":"uint64"},{"name":"route","type":"address[]","internalType":"address[]"}]},{"name":"rawAddress","type":"tuple","internalType":"struct FvmAddress","components":[{"name":"addrType","type":"uint8","internalType":"uint8"},{"name":"payload","type":"bytes","internalType":"bytes"}]}]},{"name":"to","type":"tuple","internalType":"struct IPCAddress","components":[{"name":"subnetId","type":"tuple","internalType":"struct SubnetID","components":[{"name":"root","type":"uint64","internalType":"uint64"},{"name":"route","type":"address[]","internalType":"address[]"}]},{"name":"rawAddress","type":"tuple","internalType":"struct FvmAddress","components":[{"name":"addrType","type":"uint8","internalType":"uint8"},{"name":"payload","type":"bytes","internalType":"bytes"}]}]},{"name":"value","type":"uint256","internalType":"uint256"},{"name":"nonce","type":"uint64","internalType":"uint64"},{"name":"method","type":"bytes4","internalType":"bytes4"},{"name":"params","type":"bytes","internalType":"bytes"},{"name":"fee","type":"uint256","internalType":"uint256"}]},{"name":"wrapped","type":"bool","internalType":"bool"}]}]}],"outputs":[],"stateMutability":"nonpayable"},{"type":"function","name":"pruneBottomUpCheckpoints","inputs":[{"name":"newRetentionHeight","type":"uint256","internalType":"uint256"}],"outputs":[],"stateMutability":"nonpayable"},{"type":"function","name":"pruneBottomUpMsgBatches","inputs":[{"name":"newRetentionHeight","type":"uint256","internalType":"uint256"}],"outputs":[],"stateMutability":"nonpayable"},{"type":"function","name":"storeValidatorChanges","inputs":[{"name":"changeRequests","type":"tuple[]","internalType":"struct StakingChangeRequest[]","components":[{"name":"change","type":"tuple","internalType":"struct StakingChange","components":[{"name":"op","type":"uint8","internalType":"enum StakingOperation"},{"name":"payload","type":"bytes","internalType":"bytes"},{"name":"validator","type":"address","internalType":"address"}]},{"name":"configurationNumber","type":"uint64","internalType":"uint64"}]}],"outputs":[],"stateMutability":"nonpayable"},{"type":"error","name":"AddressEmptyCode","inputs":[{"name":"target","type":"address","internalType":"address"}]},{"type":"error","name":"AddressInsufficientBalance","inputs":[{"name":"account","type":"address","internalType":"address"}]},{"type":"error","name":"AddressShouldBeValidator","inputs":[]},{"type":"error","name":"BatchAlreadyExists","inputs":[]},{"type":"error","name":"BatchNotCreated","inputs":[]},{"type":"error","name":"CannotConfirmFutureChanges","inputs":[]},{"type":"error","name":"CheckpointAlreadyExists","inputs":[]},{"type":"error","name":"CheckpointNotCreated","inputs":[]},{"type":"error","name":"FailedAddIncompleteQuorum","inputs":[]},{"type":"error","name":"FailedAddSignatory","inputs":[]},{"type":"error","name":"FailedInnerCall","inputs":[]},{"type":"error","name":"FailedRemoveIncompleteQuorum","inputs":[]},{"type":"error","name":"InvalidActorAddress","inputs":[]},{"type":"error","name":"InvalidBatchEpoch","inputs":[]},{"type":"error","name":"InvalidBatchSource","inputs":[]},{"type":"error","name":"InvalidCheckpointEpoch","inputs":[]},{"type":"error","name":"InvalidCheckpointSource","inputs":[]},{"type":"error","name":"InvalidConfigurationNumber","inputs":[]},{"type":"error","name":"InvalidCrossMsgDstSubnet","inputs":[]},{"type":"error","name":"InvalidCrossMsgNonce","inputs":[]},{"type":"error","name":"InvalidRetentionHeight","inputs":[]},{"type":"error","name":"InvalidSignature","inputs":[]},{"type":"error","name":"InvalidSubnet","inputs":[]},{"type":"error","name":"MaxMsgsPerBatchExceeded","inputs":[]},{"type":"error","name":"NotAuthorized","inputs":[{"name":"","type":"address","internalType":"address"}]},{"type":"error","name":"NotEnoughBalance","inputs":[]},{"type":"error","name":"NotEnoughSubnetCircSupply","inputs":[]},{"type":"error","name":"NotRegisteredSubnet","inputs":[]},{"type":"error","name":"NotSystemActor","inputs":[]},{"type":"error","name":"OldConfigurationNumber","inputs":[]},{"type":"error","name":"PQDoesNotContainAddress","inputs":[]},{"type":"error","name":"PQEmpty","inputs":[]},{"type":"error","name":"ParentFinalityAlreadyCommitted","inputs":[]},{"type":"error","name":"QuorumAlreadyProcessed","inputs":[]},{"type":"error","name":"SignatureReplay","inputs":[]},{"type":"error","name":"SubnetNotActive","inputs":[]},{"type":"error","name":"SubnetNotFound","inputs":[]},{"type":"error","name":"ZeroMembershipWeight","inputs":[]}],"bytecode":{"object":"0x60808060405234610016576154dd908161001c8239f35b600080fdfe6080604052600436101561001257600080fd5b60003560e01c80630bed7615146116e15780630df14461146116ad57806311196974146115e957806332e7661f1461114457806347dc9b4f14610e7857806353b4e7bf14610b7357806374303771146108d1578063ac81837914610742578063bacc656d1461052a578063c62eb4d5146104ab578063e49a547d1461046a5763fa0fe184146100a057600080fd5b34610465576100ae36611a41565b90929160125483106104535782600052602060098152600260406000200154156104415783600052601381526040600020926100eb818554613bd6565b50600481949294101561042b576104195760008681526016825260408082206001600160a01b038616808452600190910160205291205461040757604080516001600160a01b03909516838601908152602081018a90529085908201039461015b601f1996878101835282611999565b51902060405183810191825283815261017381611948565b519020600195868801549190876000905b61039e575b5050036103865786600052601682526101a6816040600020613dc6565b1561037457866000526017825260406000209060005281526040600020928251926001600160401b03841161035e5783926101eb846101e58854612092565b886124e3565b8092601f85116001146102fb5750506000926102f0575b5050600019600383901b1c191690831b1790555b61022560038301948554611dc1565b90818555600283015482101561023757005b600483018054909260ff82166102b1575060ff191617905561025882613f0d565b1561029f576102997fc08568b61a3224ac0d48121f065552f2f645d3777d353bd87291108bc36514949360ff60115416925490549060405194859485613bb1565b0390a15b005b6040516344a7b48760e11b8152600490fd5b9150507f103355808c87614c31e835c1a86487b17b1e54cf36e0ac4469c8d1e892239cbc9450610299915060ff60115416925460405194859485613bb1565b015190503880610202565b879593929193168660005283600020936000905b828210610345575050841161032c575b505050811b019055610216565b015160001960f88460031b161c1916905538808061031f565b848401518655899790950194938401939081019061030f565b634e487b7160e01b600052604160045260246000fd5b604051633363140f60e01b8152600490fd5b60249060405190634a0bfec160e01b82526004820152fd5b90918251821015610401576103b3828461207e565b5190818110156103f157600052855260406000205b9160001982146103db5790880188610184565b634e487b7160e01b600052601160045260246000fd5b90600052855260406000206103c8565b91610189565b604051635a3fd0d960e11b8152600490fd5b604051638baa579f60e01b8152600490fd5b634e487b7160e01b600052602160045260246000fd5b60405163a88f96f160e01b8152600490fd5b604051630108e13760e21b8152600490fd5b600080fd5b34610465576020366003190112610465576004356001600160401b0381116104655761049d61029d913690600401611ae0565b906104a6613b3a565b613fca565b34610465576020366003190112610465576001600160401b03600435818111610465576104dc903690600401611ae0565b916104e5613b3a565b60405191602083019182118383101761035e5761029d9361052492604052600084526040519361051485611948565b6000855260208501523691611f12565b90612333565b34610465576020806003193601126104655760043590610548613b3a565b6012545b828110610693575060125480831115610681575b82811061056e576012839055005b8060005260138252604060002090600082556000600460019382858201558260028201558260038201550155601683526040600020805490600081558161065b575b505080600052604060002060405180828682945493848152019060005286600020926000905b878982841061064257505050506105ef92500382611999565b8051908360005b838110610607575050505001610560565b600085815260178852604090206001600160a01b03610626838661207e565b5116600052875261063a6040600020612fcb565b0184906105f6565b90929450829193865481520194019201849293916105d6565b6000528284600020918201915b82811061067557506105b0565b60008155018390610668565b604051636819a3a960e01b8152600490fd5b806000526009908183526040600020916000835560036001936106b785820161248b565b60006002820155019081549060008355816106d6575b5050500161054c565b600d9282840292848404036103db5760005285600020918201915b8281106106fe57506106cd565b806107098592613014565b61071560048201613014565b6000600882015560008382015561072e600a8201612fcb565b6000600b8201556000600c820155016106f1565b34610465576020806003193601126104655760043590610760613b3a565b600b545b8281106108995750600b5480831115610681575b82811061078657600b839055005b80600052600c8252604060002090600082556000600460019382858201558260028201558260038201550155600f835260406000208054906000815581610873575b505080600052604060002060405180828682945493848152019060005286600020926000905b878982841061085a575050505061080792500382611999565b8051908360005b83811061081f575050505001610778565b600085815260108852604090206001600160a01b0361083e838661207e565b511660005287526108526040600020612fcb565b01849061080e565b90929450829193865481520194019201849293916107ee565b6000528284600020918201915b82811061088d57506107c8565b60008155018390610880565b806000526008825260406000209060008255600060046001936108bd85820161248b565b826002820155826003820155015501610764565b3461046557600319606036820112610465576004356001600160401b03808211610465576080826004019383360301126104655760443592610911613b3a565b602483013593610923601e5486612e40565b610b61578460005260209360088552600260406000200154610b4f5760405191858301918683526109686109578680612e60565b6080604087015260c0860190612ea8565b928860608601526044820135948560808201526109a28160648501968a61098e89611b25565b1660a083015203601f198101835282611999565b5190209160ff601d541690600b548a10610453578015610b3d576064916109c891612461565b04916109d389613d79565b15610b2b57604051610a48916109e88261197e565b8152600489820160243581526040830195865260608301600081526080840191600083528d600052600c8d5260406000209451855551966001978886015551600285015551600384015551151591019060ff801983541691151516179055565b60405194608086018681108882111761035e576040523590868211610465576004610a769236920101611b4d565b8452610a8e8685019288845260408601948552611b25565b966060850197885260005260088652604060002093519585875116966001600160401b03199788875416178655818387019101519182519288841161035e578190610ad985856124af565b0191600052806000209060005b848110610b11578b8b8b60048c8c8c5160028301555160038201550192511690825416179055600080f35b83516001600160a01b031683820155928101928501610ae6565b604051630cbd1cd360e11b8152600490fd5b604051634e8ac6e560e01b8152600490fd5b60405163b8a1eae160e01b8152600490fd5b60405163fae4eadb60e01b8152600490fd5b3461046557610b8136611a41565b909291600b548310610453578260005260206008815260026040600020015415610e665783600052600c8152604060002092610bbe818554613bd6565b50600481949294101561042b57610419576000868152600f825260408082206001600160a01b038616808452600190910160205291205461040757604080516001600160a01b03909516838601908152602081018a905290859082010394610c2e601f1996878101835282611999565b519020604051838101918252838152610c4681611948565b519020600195868801549190876000905b610e13575b5050036103865786600052600f8252610c79816040600020613dc6565b1561037457866000526010825260406000209060005281526040600020928251926001600160401b03841161035e578392610cb8846101e58854612092565b8092601f8511600114610db0575050600092610da5575b5050600019600383901b1c191690831b1790555b610cf260038301948554611dc1565b908185556002830154821015610d0457005b600483018054909260ff8216610d66575060ff1916179055610d2582613e23565b1561029f576102997fc08568b61a3224ac0d48121f065552f2f645d3777d353bd87291108bc36514949360ff600a5416925490549060405194859485613bb1565b9150507f103355808c87614c31e835c1a86487b17b1e54cf36e0ac4469c8d1e892239cbc9450610299915060ff600a5416925460405194859485613bb1565b015190508780610ccf565b879593929193168660005283600020936000905b828210610dfa5750508411610de1575b505050811b019055610ce3565b015160001960f88460031b161c19169055878080610dd4565b8484015186558997909501949384019390810190610dc4565b90918251821015610e6057610e28828461207e565b519081811015610e5057600052855260406000205b9160001982146103db5790880188610c57565b9060005285526040600020610e3d565b91610c5c565b6040516358cdd2e760e01b8152600490fd5b34610465576003196020368201811361046557600435916001600160401b0390818411610465578360040191608082863603011261046557610f0091610ec736610ec28680611b10565b611b4d565b918573__$a0fe38a9a81205afccc10810b09a4d3f45$__9360405180968192632cff562160e11b83528460048401526024830190611c04565b0381865af49384156110c05760009461110d575b506001600160a01b039333908516036110fb57610f303361384c565b9590156110ea5791610f7094610f4e88959394610ec2369180611b10565b9360405196879563c836244d60e01b8752604060048801526044870190611c04565b9285840301602486015260408301906004890154168352606060058901936040888201528454809352019260005285600020916000905b8282106110cc575050505082809103915af49081156110c057600091611093575b5015611081576003015460801c60ff16600681101561042b5760010361106f5760ff602c5460181c16610ff757005b60008061029d93604051602485820192632643057b60e11b845201356024820152826044820152826064820152606481526110318161197e565b519082335af13d15611066573d611047816119d1565b906110556040519283611999565b8152600081933d92013e5b33611d00565b60609150611060565b60405163c18316bf60e01b8152600490fd5b6040516303b5db8360e11b8152600490fd5b6110b39150833d85116110b9575b6110ab8183611999565b810190611c5f565b84610fc8565b503d6110a1565b6040513d6000823e3d90fd5b8354811685528a978997509094019360019384019390910190610fa7565b6040516208ed5b60e31b8152600490fd5b604051637f39132760e11b8152600490fd5b9093508581813d831161113d575b6111258183611999565b810103126104655761113690611bf0565b9287610f14565b503d61111b565b3461046557600319606036820112610465576001600160401b036004351161046557606090600435360301126104655761117c613b3a565b611190604460043501600435600401611d60565b90506001600160401b0360205416106115d7576111b5601f5460246004350135612e40565b6115c5576024600435013560005260096020526002604060002001546115b3576040516020808201526112006111ef600480350180612e60565b6060604084015260a0830190612ea8565b60246004350135606083015281611221604460043501600435600401612e74565b603f93919319838303016080840152808252602082019060208160051b84010192856000915b8383106114ac5786611262818803601f198101835282611999565b6020815191012060ff601d54166012546024600435013510610453576044358015610b3d5760649161129391612461565b046112a360246004350135613d10565b15610b2b57604051916112b58361197e565b8252602435602083015260408201526113236060820160008152600460808401600081526024823501356000526013602052604060002092855184556040602087015196600197888701550151600285015551600384015551151591019060ff801983541691151516179055565b60405161132f81611963565b600435600401356001600160401b03811161046557611355906004369181350101611b4d565b815260208101602460043501358152604460043501356001600160401b0381116104655760043501366023820112156104655761139c903690602460048201359101611f12565b604083019081528151600052600960205260406000209251916001600160401b038351166001600160401b03198554161784556020858501930151928351906001600160401b03821161035e57602087956113f784846124af565b019060005260206000208560005b84811061148f575050505050516002840155600360009301915b61142557005b8051805184101561029d578361143a9161207e565b51825493600160401b85101561035e5785850180855585101561147957611472869592869386600052600d6020600020910201612528565b019261141f565b634e487b7160e01b600052603260045260246000fd5b83516001600160a01b031681840155602090930192879101611405565b919395509193601f198282030186526114c58784612e60565b90813560de198336030181121561046557826020928361159c81600197819601946040855261152961150c6114fa8880612e60565b60e06040890152610120880190612f6a565b61151884890189612e60565b878203603f19016060890152612f6a565b604087013560808701526001600160401b0361154760608901611b25565b1660a087015261158d6001600160e01b031961156560808a01611ef0565b169160c0928389015261157b60a08a018a612f18565b898303603f190160e08b015290612f49565b96013561010086015201611f05565b151591015298019601930190918795969492611247565b60405163d15f973b60e01b8152600490fd5b60405163200c52f760e21b8152600490fd5b60405163351c700760e01b8152600490fd5b346104655760403660031901126104655760405161160681611948565b60008152600060208092015261161a613b3a565b60008160405161162981611948565b82815201526002549060043580831161169b576060926000526001825260406000209160016040519361165b85611948565b8054855201549181840192835280600052600182526040600020818155600160243591015560025582511515926040519384525190830152516040820152f35b60405163153ad84160e11b8152600490fd5b34610465576000366003190112610465576116c6613b3a565b60206116d0612172565b6001600160401b0360405191168152f35b34610465576003196020368201811361046557600435916001600160401b03831161046557606083600401918436030112610465576117498261172836610ec28580611b10565b60405180938192632cff562160e11b83528460048401526024830190611c04565b038173__$a0fe38a9a81205afccc10810b09a4d3f45$__5af49081156110c057600091611913575b50336001600160a01b03909116036118fe5761178c3361384c565b9190156110ea5760ff600383015460801c1691600683101561042b57600180930361106f576000604460009601936117c48585611d60565b60009291505b8083106118af575050506117de9086611dc1565b90600281019182549080821061189d5761182195600495610524956118096118109461181996611dce565b9055611d60565b94909201611ddb565b923691611f12565b60ff602c54821c1661182f57005b60405181810190632643057b60e11b825243602482015283604482015260006064820152606481526118608161197e565b8347106118855761029d9360009283925191335af13d15611066573d611047816119d1565b60405163cd78605960e01b8152306004820152602490fd5b604051631d36ca1560e21b8152600490fd5b906118f56118e1849a9560406118d96118d386986118cd8e8e611d60565b90611d95565b80611dac565b013590611dc1565b9460c06118d96118d38d6118cd8d8d611d60565b980191906117ca565b60405160016201ad9360e61b03198152600490fd5b90508281813d8311611941575b61192a8183611999565b810103126104655761193b90611bf0565b84611771565b503d611920565b604081019081106001600160401b0382111761035e57604052565b606081019081106001600160401b0382111761035e57604052565b60a081019081106001600160401b0382111761035e57604052565b90601f801991011681019081106001600160401b0382111761035e57604052565b6001600160401b03811161035e5760051b60200190565b6001600160401b03811161035e57601f01601f191660200190565b9291926119f8826119d1565b91611a066040519384611999565b829481845281830111610465578281602093846000960137010152565b9080601f8301121561046557816020611a3e933591016119ec565b90565b90608060031983011261046557600435916001600160401b03916024358381116104655782602382011215610465578060040135611a7e816119ba565b91611a8c6040519384611999565b81835260209160248385019160051b8301019186831161046557602401905b828210611ad15750505050926044359260643591821161046557611a3e91600401611a23565b81358152908301908301611aab565b9181601f84011215610465578235916001600160401b038311610465576020808501948460051b01011161046557565b903590603e1981360301821215610465570190565b35906001600160401b038216820361046557565b35906001600160a01b038216820361046557565b91906040838203126104655760405192611b6684611948565b83611b7082611b25565b815260209182810135906001600160401b03821161046557019280601f85011215610465578335611ba0816119ba565b94611bae6040519687611999565b818652848087019260051b8201019283116104655784809101915b838310611bd857505050500152565b8190611be384611b39565b8152019101908490611bc9565b51906001600160a01b038216820361046557565b60609060408301906001600160401b03815116845260209283809201519460408382015285518094520193019160005b828110611c42575050505090565b83516001600160a01b031685529381019392810192600101611c34565b90816020910312610465575180151581036104655790565b60408101906001600160401b036019541681526060602091604083820152601a548094520191601a6000527f057c384a7d1c54f3a1b2e5e67b2617b8224fdfd1ea7234eea573a6ff665ff63e916000905b828210611cd6575050505090565b83546001600160a01b031685529384019360019384019390910190611cc8565b6002111561042b57565b9015611d3e57815115611d11575090565b803b15611d1c575090565b604051639996b31560e01b81526001600160a01b039091166004820152602490fd5b50805115611d4e57805190602001fd5b604051630a12f52160e11b8152600490fd5b903590601e198136030182121561046557018035906001600160401b03821161046557602001918160051b3603831361046557565b9082101561147957611a3e9160051b810190611b10565b90359060de1981360301821215610465570190565b919082018092116103db57565b919082039182116103db57565b90604051611de881611948565b80926001600160401b03815416825260018091019160405191828481955492838652602080960191600052856000209060005b87868210611e375750505050611e3392500384611999565b0152565b83546001600160a01b0316855289955090930192918101918101611e1b565b359060ff8216820361046557565b91906040838203126104655760405192611e7d84611948565b838135916001600160401b03928381116104655784611e9d918301611b4d565b825260208101359083821161046557016040818503126104655760405193611ec485611948565b611ecd82611e56565b8552602082013593841161046557602093611ee89201611a23565b828401520152565b35906001600160e01b03198216820361046557565b3590811515820361046557565b929192611f1e826119ba565b91604090611f2e82519485611999565b839581855260208095019160051b8401938185116104655780925b858410611f595750505050505050565b6001600160401b03908435828111610465578301908682860312610465578651611f8281611948565b82358481116104655783019260e094858589031261046557895195860186811082821117612051578a5284358181116104655788611fc1918701611e64565b86528b8501358181116104655788611fda918701611e64565b8c870152898501358a8701526060611ff3818701611b25565b908701526080612004818701611ef0565b9087015260a09182860135918211610465578c96866120429461202c8c8b9a968b9701611a23565b9083015260c08091013590820152845201611f05565b83820152815201930192611f49565b60246000634e487b7160e01b81526041600452fd5b9060016001600160401b03809316019182116103db57565b80518210156114795760209160051b010190565b90600182811c921680156120c2575b60208310146120ac57565b634e487b7160e01b600052602260045260246000fd5b91607f16916120a1565b90604051918260008254926120e084612092565b90818452600194858116908160001461214f575060011461210c575b505061210a92500383611999565b565b9093915060005260209081600020936000915b81831061213757505061210a935082010138806120fc565b8554888401850152948501948794509183019161211f565b91505061210a94506020925060ff191682840152151560051b82010138806120fc565b602a546001600160401b03919082811660001901908382116103db5761219782612066565b8480604093841c1691161461232b576121af82614201565b61ffff8060245416946121c1866119ba565b926121ce81519485611999565b868452601f1993846121df896119ba565b019360209436868401376001809981805b6122e4575b50505050805190612205826119ba565b9561221284519788611999565b82875261221e836119ba565b018560005b8281106122bb5750505060005b82811061225957505050611a3e94959650519261224c84611948565b8352841690820152613365565b89906001600160a01b0361226d828561207e565b5116806000526023885261229b60028760002080549389519461228f86611963565b85528b850152016120cc565b868201526122a9828a61207e565b526122b4818961207e565b5001612230565b85516122c681611963565b6000815260008382015260608782015282828b010152018690612223565b8381168281116123255760009081526026895286902054849184916001600160a01b031661231c8461231584613fb6565b168961207e565b520116826121f0565b506121f5565b506000925050565b81519160005b8381106123465750505050565b8061235d6123566001938561207e565b518561291e565b01612339565b60005b8381106123765750506000910152565b8181015183820152602001612366565b9060209161239f81518092818552858086019101612363565b601f01601f1916010190565b60406020611a3e93816123c5855185845285840190611c04565b940151908281860391015260ff81511684520151918160208201520190612386565b9060c080612458612416612404865160e0875260e08701906123ab565b602087015186820360208801526123ab565b604086015160408601526001600160401b03606087015116606086015263ffffffff60e01b608087015116608086015260a086015185820360a0870152612386565b93015191015290565b818102929181159184041417156103db57565b81811061247f575050565b60008155600101612474565b8054600082558061249a575050565b61210a91600052602060002090810190612474565b90600160401b811161035e578154908083558181106124cd57505050565b61210a9260005260206000209182019101612474565b9190601f81116124f257505050565b61210a926000526020600020906020601f840160051c8301931061251e575b601f0160051c0190612474565b9091508190612511565b908051908151918251926001600160401b03808551166001600160401b0319908188541617875560018088019360208098015180519085821161035e57899061257183896124af565b01600096875289872084885b8481106129035750505050508760028a019101519260ff8451169160ff19928382541617905560039389858c019101518051908782116128795781906125cd826125c78654612092565b866124e3565b8c90601f8311600114612898578a9261288d575b505060001982881b1c191690851b1790555b60048a0190898801519182519187835116908254161790558960058c0191015190815191878311612879578b9061262a84846124af565b019088528a882085895b84811061285e5750505050508860068b019101519160ff835116908254161790558760078a0191015180519085821161284a578190612677826125c78654612092565b8a90601f83116001146127eb5788926127e0575b505060001982861b1c191690831b1790555b6040850151600889015560098801836060870151168154906bffffffff0000000000000000608089015160a01c16916001600160601b03191617179055600a88019360a086015180519485116127cc576126fb856101e58854612092565b8891601f861160011461275b579385600c999794819460c0989461210a9e9d9b9895612750575b50501b92600019911b1c19161790555b0151600b8501550151151591019060ff801983541691151516179055565b015193503880612722565b9294939190601f1985168785528a8520945b8181106127b75750928592600c9a98959261210a9d9c9a9760c099961061279d575b50505050811b019055612732565b01519060f884600019921b161c191690553880808061278f565b82840151865594870194928b01928b0161276d565b634e487b7160e01b82526041600452602482fd5b01519050388061268b565b8489528b89208694509190601f1984168a8e5b828210612833575050841161281b575b505050811b01905561269d565b015160001983881b60f8161c1916905538808061280e565b83850151865589979095019493840193018e6127fe565b634e487b7160e01b87526041600452602487fd5b83516001600160a01b031683820155928d0192879101612634565b634e487b7160e01b89526041600452602489fd5b0151905038806125e1565b879350908d91601f198416868d52838d20938d905b8282106128e257505084116128ca575b505050811b0190556125f3565b0151600019838a1b60f8161c191690553880806128bd565b91929395968291958786015181550195019301908f918a96959493926128ad565b83516001600160a01b031683820155928c019286910161257d565b90602080825101515173__$a0fe38a9a81205afccc10810b09a4d3f45$__90604094855190630c133d1360e31b9182815285818061296760049784898401526024830190611c04565b0381885af4908115612e3557600091612e18575b50612e0857855160808101516001600160e01b031995918991871615612de9575b50508651926129c089519463f47ad7eb60e01b86528a8787015260448601906123e7565b8785806129d96003199485838203016024840152611c77565b038173__$386b5c41ce93e8b832daf8008b3d30ae09$__5af4948515612d9a57908891600096612da5575b508951820151518b5163c836244d60e01b81528881018d9052929183918291612a4491612a35906044850190611c04565b90838203016024840152611c77565b0381865af4908115612d9a57600091612d7d575b50612b24575050505050839160039161210a9551612b15818481019385855260c0612af38a51928a80860152612a9b845160e06080880152610160870190613037565b612ab68a86015191607f1992838983030160a08a0152613037565b918c860151858801526001600160401b0360608701511660e088015260808601511661010087015260a08501519086830301610120870152612386565b910151610140830152858901511515606083015203601f198101835282611999565b51902060005252600020612528565b86949550612b3184611cf6565b60018414612c8a575b505050612b4681611cf6565b15612c22575b60009185519485928392635c46fefb60e11b845283015284612b79825189602486015260648501906123e7565b91015115156044830152038173__$33b79814e84bf6cf5e47244090b19ce5f8$__5af48015612c1757612bab57505050565b3d806000843e612bbb8184611999565b8201918181840312610465578051906001600160401b03821161046557019082601f8301121561046557815192612bfd612bf4856119d1565b95519586611999565b838552818484010111610465578061210a94019101612363565b83513d6000823e3d90fd5b50601d546001600160401b03808260481c1690606086510151168103612c7a5791839167ffffffffffffffff60481b612c5c600095612066565b60481b169067ffffffffffffffff60481b191617601d559150612b4c565b855163a57cadff60e01b81528390fd5b88949192939451928391825282878301528180612caa6024820188611c04565b03915af4908115612d72579085939291600091612d55575b5015612cd0575b8080612b3a565b612cdb919250613a44565b9015612d455760030180546001600160401b038082891c1690606088510151168103612d35579067ffffffffffffffff60401b612d1a87959493612066565b891b169067ffffffffffffffff60401b191617905538612cc9565b875163a57cadff60e01b81528590fd5b8551630e991abd60e41b81528390fd5b612d6c9150843d86116110b9576110ab8183611999565b38612cc2565b87513d6000823e3d90fd5b612d949150883d8a116110b9576110ab8183611999565b38612a58565b8a513d6000823e3d90fd5b90959181813d8311612de2575b612dbc8183611999565b81010312612dde5751906002821015612ddb5750938790612a35612a04565b80fd5b5080fd5b503d612db2565b01514710612df857873861299c565b875163569d45cf60e11b81528490fd5b865163c5f563eb60e01b81528390fd5b612e2f9150863d88116110b9576110ab8183611999565b3861297b565b88513d6000823e3d90fd5b8115612e4a570690565b634e487b7160e01b600052601260045260246000fd5b9035603e1982360301811215610465570190565b9035601e19823603018112156104655701602081359101916001600160401b038211610465578160051b3603831361046557565b60408201916001600160401b03612ebe83611b25565b1681526060612ed260209384810190612e74565b839195604086839601525201929160005b828110612ef1575050505090565b909192938280600192838060a01b03612f0989611b39565b16815201950193929101612ee3565b9035601e19823603018112156104655701602081359101916001600160401b03821161046557813603831361046557565b908060209392818452848401376000828201840152601f01601f1916010190565b6040612fbb611a3e93612f9a612f8f612f838680612e60565b85845285840190612ea8565b946020810190612e60565b90602081860391015260ff612fae82611e56565b1684526020810190612f18565b9190928160208201520191612f49565b612fd58154612092565b9081612fdf575050565b81601f60009311600114612ff1575055565b908083918252613010601f60208420940160051c840160018501612474565b5555565b600361210a916000815561302a6001820161248b565b6000600282015501612fcb565b91908251906040815260808101936001600160401b038351166040830152602080930151946040606084015285518091528360a0840196019060005b8181106130a75750505093604083819381611a3e97980151908281860391015260ff81511684520151938201520190612386565b82516001600160a01b031688529685019691850191600101613073565b908082519081815260208091019281808460051b8301019501936000915b8483106130f25750505050505090565b9091929394958480613133600193601f198682030187528a5180518252858060a01b0384820151168483015260408091015191606080928201520190612386565b98019301930191949392906130e2565b90808214613217576131558154612092565b906001600160401b03821161035e578190613174826125c78654612092565b600090601f83116001146131ab576000926131a0575b50508160011b916000199060031b1c1916179055565b01549050388061318a565b81526020808220858352818320935090601f1985169083905b8282106131fe5750509084600195949392106131e5575b505050811b019055565b015460001960f88460031b161c191690553880806131db565b84958192958501548155600180910196019401906131c4565b5050565b600454811015611479576003906004600052027f8a35acfbc15ff81a39ae7d344fd709f28e8600b4aa8c65c6b64bfe7fe36bd19b0190600090565b9061334f5781518155600190604060028383019260209360018060a01b0385880151166001600160601b0360a01b82541617905501930151908151916001600160401b03831161035e576132b4836132ae8754612092565b876124e3565b81601f84116001146132ed57509282939183926000946132e2575b50501b916000199060031b1c1916179055565b0151925038806132cf565b919083601f1981168760005284600020946000905b88838310613335575050501061331c57505050811b019055565b015160001960f88460031b161c191690553880806131db565b858701518855909601959485019487935090810190613302565b634e487b7160e01b600052600060045260246000fd5b60408051916020918284526133848251828587015260608601906130c4565b927f7ecdac482334c36fccbe374318cfe74ea0c8181394890ddec894a10f0fcc748181840195806001600160401b039687895116868301520390a183600554169081613670575b505050600490815493600160401b9384861161365b57600654866006558087106135bc575b5060066000908152957ff652222313e28459528d920b65115c16c04f3efc82aaedc97be59f3f377c0d3f877f8a35acfbc15ff81a39ae7d344fd709f28e8600b4aa8c65c6b64bfe7fe36bd19b5b83821061356757505050508060055416916001600160401b03199283600754161760075583515193855496885b8681106134f557505050511690600554161760055580831161348d575b50505050565b8281101561348757815480156134e25760001901906134ab8261321b565b9290926134d0578583556134c86002600194888682015501612fcb565b83550161348d565b634e487b7160e01b8652858452602486fd5b634e487b7160e01b855260318352602485fd5b88811015613524578061351e61350e600193865161207e565b516135188361321b565b90613256565b0161346a565b61352f81845161207e565b518854838110156135545760019291613518828561354f94018d5561321b565b61351e565b634e487b7160e01b8c5260418a5260248cfd5b806001918403613582575b600380910193019101909161343d565b805484558180850190838060a01b0390830154166001600160601b0360a01b8254161790556135b76002808301908601613143565b613572565b600390808202908282040361364657878202828104890361363157600090600682527ff652222313e28459528d920b65115c16c04f3efc82aaedc97be59f3f377c0d3f92830192015b828110613614575050506133f0565b808285925582600182015561362b60028201612fcb565b01613605565b601187634e487b7160e01b6000525260246000fd5b601186634e487b7160e01b6000525260246000fd5b604184634e487b7160e01b6000525260246000fd5b8486511685600754169081811461375d571061374c5782519261369284611948565b60045461369e816119ba565b916136ab81519384611999565b8183528383019060046000527f8a35acfbc15ff81a39ae7d344fd709f28e8600b4aa8c65c6b64bfe7fe36bd19b906000925b84841061370a5750505091855250508201526136f99082613767565b613705573880806133cb565b505050565b600387600192845161371b81611963565b86548152848060a01b0385880154168382015261373a600288016120cc565b868201528152019301930192916136dd565b8251633746be2560e11b8152600490fd5b5050505050505050565b6001600160401b0390602091808383015116908385015116036138085761378d81613810565b61379684613810565b036138085751805183515103613808576138016137f59160405190816137c68682019287845260408301906130c4565b03916137da601f1993848101835282611999565b519020945160405193849186830196875260408301906130c4565b03908101835282611999565b5190201490565b505050600090565b8051519060009182915b8183106138275750505090565b90919261384360019161383b86855161207e565b515190611dc1565b9301919061381a565b6001600160a01b0390811691908215613a325760409283519361386e85611948565b6001600160401b0391826019541686528151958690601a54908189526020809901926000978893601a85527f057c384a7d1c54f3a1b2e5e67b2617b8224fdfd1ea7234eea573a6ff665ff63e9185905b8d838310613a155750505050506138db8161390194950382611999565b818a0152845163aa5106cb60e01b81526004810186905293849283926044840190611c04565b906024830152038173__$a0fe38a9a81205afccc10810b09a4d3f45$__5af4938415613a0a578094613941575b5050505061393d919250613a44565b9091565b90919293503d8082843e6139558184611999565b8201918681840312612dde57805190858211613a025701938385840312612dde5783519461398286611948565b80518281168103613a0657865287810151918211613a02570182601f82011215612dde578051916139b5612bf4846119ba565b828552878086019360051b830101938411612ddb57508601905b8282106139eb5750505061393d9293820152829138808061392e565b8680916139f784611bf0565b8152019101906139cf565b8280fd5b8380fd5b8251903d90823e3d90fd5b845482168952909701968b965060019384019391909101906138be565b6040516370e4510960e01b8152600490fd5b613a8273__$a0fe38a9a81205afccc10810b09a4d3f45$__91604051906390ba52cf60e01b8252818060209485938460048401526024830190611c04565b0381865af49081156110c057600091613b0d575b5060005260008152613ad781604060002093613ab460048601611ddb565b906040518080958194630c133d1360e31b83528660048401526024830190611c04565b03915af49182156110c057600092613af0575b50501591565b613b069250803d106110b9576110ab8183611999565b3880613aea565b908282813d8311613b33575b613b238183611999565b81010312612ddb57505138613a96565b503d613b19565b604051635d3f8a6960e01b815233600482015260208160248173__$e800e3908cdbb6b1b5bd452383a17b18f7$__5af49081156110c057600091613b93575b5015613b8157565b60405163f0d97f3b60e01b8152600490fd5b613bab915060203d81116110b9576110ab8183611999565b38613b79565b909493926060926080830196613bc681611cf6565b8352602083015260408201520152565b8151919060418303613c0757613c0092506020820151906060604084015193015160001a90613c12565b9192909190565b505060009160029190565b91907f7fffffffffffffffffffffffffffffff5d576e7357a4501ddfe92f46681b20a08411613c9657926020929160ff608095604051948552168484015260408301526060820152600092839182805260015afa15613c8a5780516001600160a01b03811615613c8157918190565b50809160019190565b604051903d90823e3d90fd5b50505060009160039190565b6014548110156114795760146000527fce6d7b5282bd9a3661ae061feed1dbda4e52ab073b1f9285be6e155d9c38d4ec0190600090565b600d5481101561147957600d6000527fd7b6990105719101dabeb77144f2a3385c8033acd3af97e9423a695e81ad1eb50190600090565b600081815260156020526040812054613d7457601454600160401b8110156127cc579082613d60613d4984600160409601601455613ca2565b819391549060031b91821b91600019901b19161790565b905560145492815260156020522055600190565b905090565b6000818152600e6020526040812054613d7457600d54600160401b8110156127cc579082613db2613d4984600160409601600d55613cd9565b9055600d54928152600e6020522055600190565b6000828152600182016020526040902054613e1c57805490600160401b82101561035e57600182018082558210156114795782600192826000526020600020015580549260005201602052604060002055600190565b5050600090565b6000818152600e60205260408120549091908015613f085760001990808201818111613ef457600d5490838201918211613ee057808203613eac575b505050600d548015613e9857810190613e7782613cd9565b909182549160031b1b19169055600d558152600e6020526040812055600190565b634e487b7160e01b84526031600452602484fd5b613eca613ebb613d4993613cd9565b90549060031b1c928392613cd9565b90558452600e6020526040842055388080613e5f565b634e487b7160e01b86526011600452602486fd5b634e487b7160e01b85526011600452602485fd5b505090565b6000818152601560205260408120549091908015613f085760001990808201818111613ef45760145490838201918211613ee057808203613f82575b5050506014548015613e9857810190613f6182613ca2565b909182549160031b1b19169055601455815260156020526040812055600190565b613fa0613f91613d4993613ca2565b90549060031b1c928392613ca2565b9055845260156020526040842055388080613f49565b61ffff90811660001901919082116103db57565b919080156141e75760005b818110613fe25750509050565b613fed818386611d95565b906040613ffa83806141ec565b01356001600160a01b03818116918290036104655761401984806141ec565b359360038510156104655761402e81806141ec565b906020918281013590601e198136030182121561046557019384356001600160401b039586821161046557840181360381136104655761406f9136916119ec565b9385602a541694604051986140838a611963565b89528489019081526040890192835285600052602b855260406000209851600381101561042b5760ff80198b541691161789555197885198878a1161035e576001998a8301916140dd826140d78554612092565b856124e3565b8790601f83116001146141725760029493929160009183614167575b5050600019600383901b1c1916908c1b1790555b019151166001600160601b0360a01b8254161790558361412c84612066565b166001600160401b0319602a541617602a55013591821680920361046557036141555701613fd5565b604051631aba532960e21b8152600490fd5b0151905038806140f9565b9392918c918360005289600020906000601f198416905b8c8282106141c45750509683600298106141ab575b505050811b01905561410d565b015160001960f88460031b161c1916905538808061419e565b919295899487849397999a9b015181550195019301908f94929796959391614189565b509050565b903590605e1981360301821215610465570190565b602a546001600160401b0392838316929190848216841061422e5760405163040aaa0560e11b8152600490fd5b848260401c168410614403579392919083604091821c16945b8486168481116143cc57600096818852602b97602098808a528582209960029460018060a01b03868d01541660ff8d541660038110156143b8578088036142ce575060018c9d6142a892879e9a9b9c9d9e526023855201878b872001613143565b835252858120928184556001936142c0858201612fcb565b015501169493929190614247565b906142dc60019e8f016120cc565b84818051810103126143b457908e8e9f8c9d9e9f9b9c938701519414600014614376579061434f92918189528a6023918289528a61431d8887832054611dce565b9586948683528b52812091820180548515908161436d575b50156143635761434a94508183555501612fcb565b614777565b61435c6022918254611dce565b90556142a8565b5050905055614777565b90501538614335565b506143af92818852614390816023948589528a2054611dc1565b928289528652828d8920556143a86022918254611dc1565b905561440a565b6142a8565b8680fd5b634e487b7160e01b86526021600452602486fd5b509450925067ffffffffffffffff60401b91506143e890612066565b602a54921b169067ffffffffffffffff60401b191617602a55565b9350505050565b919060018060a01b03928381169360008581526020956025875261ffff9160409783898320541661465b578360215416846024541610614627578661444d614da2565b919091106145a15750828252602881528389832054166144c05750505050506144bb7f19fe3ca603e87854a0747cc10abf06bac64d61bac73d6d15f2fd3ca448f15264939461449b83614ab3565b516001600160a01b03909216825260208201929092529081906040820190565b0390a1565b6144cf869599949897966152b9565b92825260239081815284832054935b6001808b8316111561456b5781617fff911c1690818552602983528b878620541685528383528587862054101561451e576145199082615418565b6144de565b505093516001600160a01b0390951685525050505060208101919091529092507fda148fac2e1063174be7bc0895576bdaba90fd14e575463fa26a967cb895cadd915080604081016144bb565b5050505050506144bb91929395507fda148fac2e1063174be7bc0895576bdaba90fd14e575463fa26a967cb895cadd945061449b565b9596506144bb9450906028899493927ffaeb8de771b867cf357f6b459a7002b62ec45d544a8078a3ecd91200cc826d75999a936145dc614f71565b835252205416614619575b6145f084614eff565b6145f983614ab3565b516001600160a01b03928316815292909116602083015281906040820190565b61462284614c8c565b6145e7565b50505050506144bb7f2e8038f5812f763c6ef0c5427cb5a05ce6d7064af2ba7d1d270bc02660b019fd939461449b83614eff565b61466c869598979699949399615282565b98825260239081815284832054986146838b614e8e565b8560245416905b86811682811161473f57828110156147225750806146aa6146b092614aa0565b90615230565b9c909c5b8c11156146d3576146c5908d61537f565b6146ce8c614e8e565b61468a565b505094516001600160a01b0390961686525050505060208201929092529193507f143db27bc2036653dc6f962ff9d0b803163d4af50c256ca9e6927b3d6dcd01979250819050604081016144bb565b869d919d52602684528288872054168652848452878620546146b4565b50505050505050506144bb91929395507f143db27bc2036653dc6f962ff9d0b803163d4af50c256ca9e6927b3d6dcd0197945061449b565b9160018060a01b0392838116926000918483526020946028865261ffff906040948286822054166149615781815260258852828682205416156149505784156148cb576147c384615282565b918152602380895286822054925b60018086831611156148ba5781617fff911c169081845260268b528b89852054168452828b52848985205411156148115761480c908261537f565b6147d1565b5050505050919395509193505b60275416156137055761482f614da2565b90614838614dec565b90921061488157505091516001600160a01b03909216825260208201527f143db27bc2036653dc6f962ff9d0b803163d4af50c256ca9e6927b3d6dcd01979080604081016144bb565b915091506144bb7ffaeb8de771b867cf357f6b459a7002b62ec45d544a8078a3ecd91200cc826d75936148b2614f71565b6145e7614b25565b50505050509193955091935061481e565b50916148fe919597507f4a4c5d1a281180eea1e99d8177fa4798b9f7e019d5c57e7d8d73c6a22199aa5b949693506150ba565b8451908152a16027541661490f5750565b6144bb7f2e8038f5812f763c6ef0c5427cb5a05ce6d7064af2ba7d1d270bc02660b019fd9161493c614dec565b929091614947614b25565b61449b83614eff565b8551632a55ca5360e01b8152600490fd5b90939596869893959815614a67579261fffe92949361497f876152b9565b9483526023918282528a8420549580976001968792831b168160275416925b6149f3575b50509a516001600160a01b039098168852505050506020840194909452509293507fda148fac2e1063174be7bc0895576bdaba90fd14e575463fa26a967cb895cadd9250905080604081016144bb565b818116838111614a61578e9080851115614a4557505080614a16614a1c92614aa0565b90614ea5565b9990995b891015614a4057614a31908a615418565b614a3a89614e8e565b8761499e565b6149a3565b885260298652872054841687528585528d872054909990614a20565b506149a3565b95505050509093614a997f3168ba660eed6ef1dc2258b2247cc05fd0f2f350d39e6ad2e2ebc76a8000b40b9495614c8c565b51908152a1565b90600161ffff809316019182116103db57565b61210a90604061ffff614ac98160275416614aa0565b9260018060a01b031660009181835260286020528383209085169061ffff199082828254161790558184526029602052848420836001600160601b0360a01b825416179055602754161760275581526023602052205490614e36565b61ffff80602754168015614c7a576001614b4182821115615362565b6000818152602960208181526040808420805487865282862080546001600160a01b0392831680895260288752858920805461ffff199081168d17909155918416808a52868a20805484168c17905588885283546001600160a01b031990811690921790935589895284541690911790925593969194939291614bd79189614bc883613fb6565b169060275416176027556152de565b8483528581528184842054168352602391828252848420549686809960028160275416925b614c0f575b505050505050505050505050565b818116838111614c745783811015614c58575080614a16614c2f92614aa0565b9b909b5b8b1015614c5357614c44908c615418565b614c4d8b614e8e565b89614bfc565b614c01565b889c919c52838652848989205416885286865288882054614c33565b50614c01565b6040516340d9b01160e01b8152600490fd5b614c95906152b9565b61ffff806027541690614ca88284615418565b80614cb283613fb6565b1661ffff196027541617602755614cc8826152de565b80831680921461370557919061fffe906000818152602991602083815260018060a01b036040948186862054168552602393848452614d0a878720548a614e36565b85528083528186862054168552838352858520549780996001988992831b168160275416925b614d4257505050505050505050505050565b818116838111614c745783811015614d86575080614a16614d6292614aa0565b9b909b5b8b1015614c5357614d77908c615418565b614d808b614e8e565b89614d30565b889c919c52838652848989205416885286865288882054614d66565b61ffff6024541615614c7a577f5db1dfd2ced311e642486f0e890a646498a1bdee1ad9403b0a73141af8a4c411546001600160a01b03166000818152602360205260409020549091565b61ffff6027541615614c7a577f6e777cacfc4ad3a3cac3b8e17ccbbe9f6893bdc61d89783315eee44e3959da21546001600160a01b03166000818152602360205260409020549091565b9190915b60018061ffff83161115614e885781617fff911c169083600083815260209060298252602360409260018060a01b03848420541683525220541015614e8857614e839082615418565b614e3a565b50509050565b60011b906201fffe61fffe8316921682036103db57565b91909161ffff92604060008584168152602960205260018060a01b03808383205416825260236020528282205496841682526029602052828220541681526023602052205490818510614ef85750509190565b9350919050565b61210a90604061ffff614f158160245416614aa0565b9260018060a01b031660009181835260256020528383209085169061ffff199082828254161790558184526026602052848420836001600160601b0360a01b8254161790556024541617602455815260236020522054906151de565b61ffff80602454168015614c7a576001614f8d82821115615362565b6000818152602660208181526040808420805487865282862080546001600160a01b0392831680895260258752858920805461ffff199081168d17909155918416808a52868a20805484168c17905588885283546001600160a01b031990811690921790935589895284541690911790925593969194939291615023918961501483613fb6565b16906024541617602455615320565b8483528581528184842054168352602391828252848420549686809960028160245416925b61505a57505050505050505050505050565b818116838111614c74578381101561509e5750806146aa61507a92614aa0565b9b909b5b8b1115614c535761508f908c61537f565b6150988b614e8e565b89615048565b889c919c5283865284898920541688528686528888205461507e565b6150c390615282565b9061ffff908160245416916150d8838561537f565b806150e284613fb6565b1661ffff1960245416176024556150f883615320565b8084168093146151d85760009280845260269360209185835260018060a01b03926040938085852054168452602392838352615137868620548b6151de565b8452878252808585205416845282825284842054976151558a614e8e565b8760245416905b8881168281116151c957828110156151ad5750806146aa61517c92614aa0565b9b909b5b8b111561519f57615191908c61537f565b61519a8b614e8e565b61515c565b505050505050505050915050565b879c919c52828552838888205416875285855287872054615180565b50505050505050505050915050565b50915050565b9190915b60018061ffff83161115614e885781617fff911c169083600083815260209060268252602360409260018060a01b03848420541683525220541115614e885761522b908261537f565b6151e2565b919061ffff604060008286168152602660205260018060a01b0380838320541682526023602052828220549385168252602660205282822054168152602360205220549384821115614ef85750509190565b6001600160a01b031660009081526025602052604090205461ffff169081156152a757565b60405163f2755e3760e01b8152600490fd5b6001600160a01b031660009081526028602052604090205461ffff169081156152a757565b61ffff16600090815260296020908152604080832080546001600160a01b031981169091556001600160a01b0316835260289091529020805461ffff19169055565b61ffff16600090815260266020908152604080832080546001600160a01b031981169091556001600160a01b0316835260259091529020805461ffff19169055565b1561536957565b634e487b7160e01b600052600160045260246000fd5b6153a461ffff80806024541693169361539a84861115615362565b1691821115615362565b6000828152602660208181526040808420805486865282862080546001600160a01b0392831680895260258752858920805461ffff19908116909b1790559216808852938720805490981689179097559390925284546001600160a01b031990811690931790945593909152825416179055565b61543361ffff80806027541693169361539a84861115615362565b6000828152602960208181526040808420805486865282862080546001600160a01b0392831680895260288752858920805461ffff19908116909b1790559216808852938720805490981689179097559390925284546001600160a01b03199081169093179094559390915282541617905556fea2646970667358221220c3ca79bf4b702fc18c0dc20b28706c45ddca93a5d144c19b3fb94fb8eabcdbda64736f6c63430008130033","linkReferences":{"src/lib/AccountHelper.sol":{"AccountHelper":[{"start":15217,"length":20}]},"src/lib/CrossMsgHelper.sol":{"CrossMsgHelper":[{"start":11171,"length":20}]},"src/lib/StorableMsgHelper.sol":{"StorableMsgHelper":[{"start":10745,"length":20}]},"src/lib/SubnetIDHelper.sol":{"SubnetIDHelper":[{"start":3815,"length":20},{"start":5993,"length":20},{"start":10565,"length":20},{"start":14631,"length":20},{"start":14949,"length":20}]}}},"methodIdentifiers":{"addBatchSignature(uint256,bytes32[],uint256,bytes)":"fa0fe184","addCheckpointSignature(uint256,bytes32[],uint256,bytes)":"53b4e7bf","applyCrossMessages(((((uint64,address[]),(uint8,bytes)),((uint64,address[]),(uint8,bytes)),uint256,uint64,bytes4,bytes,uint256),bool)[])":"c62eb4d5","applyFinalityChanges()":"0df14461","commitCheckpoint(((uint64,address[]),uint256,bytes32,uint64))":"47dc9b4f","commitParentFinality((uint256,bytes32))":"11196974","createBottomUpCheckpoint(((uint64,address[]),uint256,bytes32,uint64),bytes32,uint256)":"74303771","createBottomUpMsgBatch(((uint64,address[]),uint256,((((uint64,address[]),(uint8,bytes)),((uint64,address[]),(uint8,bytes)),uint256,uint64,bytes4,bytes,uint256),bool)[]),bytes32,uint256)":"32e7661f","execBottomUpMsgBatch(((uint64,address[]),uint256,((((uint64,address[]),(uint8,bytes)),((uint64,address[]),(uint8,bytes)),uint256,uint64,bytes4,bytes,uint256),bool)[]))":"0bed7615","pruneBottomUpCheckpoints(uint256)":"ac818379","pruneBottomUpMsgBatches(uint256)":"bacc656d","storeValidatorChanges(((uint8,bytes,address),uint64)[])":"e49a547d"},"id":47}