{
    "abi": [
        {
            "inputs": [
                {
                    "internalType": "address",
                    "name": "target",
                    "type": "address"
                }
            ],
            "name": "AddressEmptyCode",
            "type": "error"
        },
        {
            "inputs": [
                {
                    "internalType": "address",
                    "name": "account",
                    "type": "address"
                }
            ],
            "name": "AddressInsufficientBalance",
            "type": "error"
        },
        {
            "inputs": [],
            "name": "AddressShouldBeValidator",
            "type": "error"
        },
        {
            "inputs": [],
            "name": "CannotConfirmFutureChanges",
            "type": "error"
        },
        {
            "inputs": [],
            "name": "CheckpointAlreadyExists",
            "type": "error"
        },
        {
            "inputs": [],
            "name": "CheckpointAlreadyProcessed",
            "type": "error"
        },
        {
            "inputs": [],
            "name": "CheckpointNotCreated",
            "type": "error"
        },
        {
            "inputs": [],
            "name": "FailedAddIncompleteCheckpoint",
            "type": "error"
        },
        {
            "inputs": [],
            "name": "FailedAddSignatory",
            "type": "error"
        },
        {
            "inputs": [],
            "name": "FailedInnerCall",
            "type": "error"
        },
        {
            "inputs": [],
            "name": "FailedRemoveIncompleteCheckpoint",
            "type": "error"
        },
        {
            "inputs": [],
            "name": "InvalidActorAddress",
            "type": "error"
        },
        {
            "inputs": [],
            "name": "InvalidCheckpointEpoch",
            "type": "error"
        },
        {
            "inputs": [],
            "name": "InvalidCheckpointSource",
            "type": "error"
        },
        {
            "inputs": [],
            "name": "InvalidConfigurationNumber",
            "type": "error"
        },
        {
            "inputs": [],
            "name": "InvalidCrossMsgDstSubnet",
            "type": "error"
        },
        {
            "inputs": [],
            "name": "InvalidCrossMsgNonce",
            "type": "error"
        },
        {
            "inputs": [],
            "name": "InvalidRetentionHeight",
            "type": "error"
        },
        {
            "inputs": [],
            "name": "InvalidSignature",
            "type": "error"
        },
        {
            "inputs": [],
            "name": "InvalidSubnet",
            "type": "error"
        },
        {
            "inputs": [
                {
                    "internalType": "address",
                    "name": "",
                    "type": "address"
                }
            ],
            "name": "NotAuthorized",
            "type": "error"
        },
        {
            "inputs": [],
            "name": "NotEnoughBalance",
            "type": "error"
        },
        {
            "inputs": [],
            "name": "NotEnoughSubnetCircSupply",
            "type": "error"
        },
        {
            "inputs": [],
            "name": "NotRegisteredSubnet",
            "type": "error"
        },
        {
            "inputs": [],
            "name": "NotSystemActor",
            "type": "error"
        },
        {
            "inputs": [],
            "name": "OldConfigurationNumber",
            "type": "error"
        },
        {
            "inputs": [],
            "name": "PQDoesNotContainAddress",
            "type": "error"
        },
        {
            "inputs": [],
            "name": "PQEmpty",
            "type": "error"
        },
        {
            "inputs": [],
            "name": "ParentFinalityAlreadyCommitted",
            "type": "error"
        },
        {
            "inputs": [],
            "name": "SignatureReplay",
            "type": "error"
        },
        {
            "inputs": [],
            "name": "SubnetNotActive",
            "type": "error"
        },
        {
            "inputs": [],
            "name": "SubnetNotFound",
            "type": "error"
        },
        {
            "inputs": [],
            "name": "ZeroMembershipWeight",
            "type": "error"
        },
        {
            "anonymous": false,
            "inputs": [
                {
                    "indexed": false,
                    "internalType": "uint64",
                    "name": "height",
                    "type": "uint64"
                },
                {
                    "indexed": false,
                    "internalType": "bytes32",
                    "name": "checkpoint",
                    "type": "bytes32"
                },
                {
                    "indexed": false,
                    "internalType": "uint256",
                    "name": "quorumWeight",
                    "type": "uint256"
                }
            ],
            "name": "QuorumReached",
            "type": "event"
        },
        {
            "anonymous": false,
            "inputs": [
                {
                    "indexed": false,
                    "internalType": "uint64",
                    "name": "height",
                    "type": "uint64"
                },
                {
                    "indexed": false,
                    "internalType": "bytes32",
                    "name": "checkpoint",
                    "type": "bytes32"
                },
                {
                    "indexed": false,
                    "internalType": "uint256",
                    "name": "newWeight",
                    "type": "uint256"
                }
            ],
            "name": "QuorumWeightUpdated",
            "type": "event"
        },
        {
            "inputs": [
                {
                    "internalType": "uint64",
                    "name": "height",
                    "type": "uint64"
                },
                {
                    "internalType": "bytes32[]",
                    "name": "membershipProof",
                    "type": "bytes32[]"
                },
                {
                    "internalType": "uint256",
                    "name": "weight",
                    "type": "uint256"
                },
                {
                    "internalType": "bytes",
                    "name": "signature",
                    "type": "bytes"
                }
            ],
            "name": "addCheckpointSignature",
            "outputs": [],
            "stateMutability": "nonpayable",
            "type": "function"
        },
        {
            "inputs": [
                {
                    "components": [
                        {
                            "components": [
                                {
                                    "components": [
                                        {
                                            "components": [
                                                {
                                                    "internalType": "uint64",
                                                    "name": "root",
                                                    "type": "uint64"
                                                },
                                                {
                                                    "internalType": "address[]",
                                                    "name": "route",
                                                    "type": "address[]"
                                                }
                                            ],
                                            "internalType": "struct SubnetID",
                                            "name": "subnetId",
                                            "type": "tuple"
                                        },
                                        {
                                            "components": [
                                                {
                                                    "internalType": "uint8",
                                                    "name": "addrType",
                                                    "type": "uint8"
                                                },
                                                {
                                                    "internalType": "bytes",
                                                    "name": "payload",
                                                    "type": "bytes"
                                                }
                                            ],
                                            "internalType": "struct FvmAddress",
                                            "name": "rawAddress",
                                            "type": "tuple"
                                        }
                                    ],
                                    "internalType": "struct IPCAddress",
                                    "name": "from",
                                    "type": "tuple"
                                },
                                {
                                    "components": [
                                        {
                                            "components": [
                                                {
                                                    "internalType": "uint64",
                                                    "name": "root",
                                                    "type": "uint64"
                                                },
                                                {
                                                    "internalType": "address[]",
                                                    "name": "route",
                                                    "type": "address[]"
                                                }
                                            ],
                                            "internalType": "struct SubnetID",
                                            "name": "subnetId",
                                            "type": "tuple"
                                        },
                                        {
                                            "components": [
                                                {
                                                    "internalType": "uint8",
                                                    "name": "addrType",
                                                    "type": "uint8"
                                                },
                                                {
                                                    "internalType": "bytes",
                                                    "name": "payload",
                                                    "type": "bytes"
                                                }
                                            ],
                                            "internalType": "struct FvmAddress",
                                            "name": "rawAddress",
                                            "type": "tuple"
                                        }
                                    ],
                                    "internalType": "struct IPCAddress",
                                    "name": "to",
                                    "type": "tuple"
                                },
                                {
                                    "internalType": "uint256",
                                    "name": "value",
                                    "type": "uint256"
                                },
                                {
                                    "internalType": "uint64",
                                    "name": "nonce",
                                    "type": "uint64"
                                },
                                {
                                    "internalType": "bytes4",
                                    "name": "method",
                                    "type": "bytes4"
                                },
                                {
                                    "internalType": "bytes",
                                    "name": "params",
                                    "type": "bytes"
                                },
                                {
                                    "internalType": "uint256",
                                    "name": "fee",
                                    "type": "uint256"
                                }
                            ],
                            "internalType": "struct StorableMsg",
                            "name": "message",
                            "type": "tuple"
                        },
                        {
                            "internalType": "bool",
                            "name": "wrapped",
                            "type": "bool"
                        }
                    ],
                    "internalType": "struct CrossMsg[]",
                    "name": "crossMsgs",
                    "type": "tuple[]"
                }
            ],
            "name": "applyCrossMessages",
            "outputs": [],
            "stateMutability": "nonpayable",
            "type": "function"
        },
        {
            "inputs": [],
            "name": "applyFinalityChanges",
            "outputs": [
                {
                    "internalType": "uint64",
                    "name": "",
                    "type": "uint64"
                }
            ],
            "stateMutability": "nonpayable",
            "type": "function"
        },
        {
            "inputs": [
                {
                    "components": [
                        {
                            "components": [
                                {
                                    "internalType": "uint64",
                                    "name": "root",
                                    "type": "uint64"
                                },
                                {
                                    "internalType": "address[]",
                                    "name": "route",
                                    "type": "address[]"
                                }
                            ],
                            "internalType": "struct SubnetID",
                            "name": "subnetID",
                            "type": "tuple"
                        },
                        {
                            "internalType": "uint64",
                            "name": "blockHeight",
                            "type": "uint64"
                        },
                        {
                            "internalType": "bytes32",
                            "name": "blockHash",
                            "type": "bytes32"
                        },
                        {
                            "internalType": "uint64",
                            "name": "nextConfigurationNumber",
                            "type": "uint64"
                        },
                        {
                            "internalType": "bytes32",
                            "name": "crossMessagesHash",
                            "type": "bytes32"
                        }
                    ],
                    "internalType": "struct BottomUpCheckpoint",
                    "name": "checkpoint",
                    "type": "tuple"
                },
                {
                    "components": [
                        {
                            "components": [
                                {
                                    "components": [
                                        {
                                            "components": [
                                                {
                                                    "internalType": "uint64",
                                                    "name": "root",
                                                    "type": "uint64"
                                                },
                                                {
                                                    "internalType": "address[]",
                                                    "name": "route",
                                                    "type": "address[]"
                                                }
                                            ],
                                            "internalType": "struct SubnetID",
                                            "name": "subnetId",
                                            "type": "tuple"
                                        },
                                        {
                                            "components": [
                                                {
                                                    "internalType": "uint8",
                                                    "name": "addrType",
                                                    "type": "uint8"
                                                },
                                                {
                                                    "internalType": "bytes",
                                                    "name": "payload",
                                                    "type": "bytes"
                                                }
                                            ],
                                            "internalType": "struct FvmAddress",
                                            "name": "rawAddress",
                                            "type": "tuple"
                                        }
                                    ],
                                    "internalType": "struct IPCAddress",
                                    "name": "from",
                                    "type": "tuple"
                                },
                                {
                                    "components": [
                                        {
                                            "components": [
                                                {
                                                    "internalType": "uint64",
                                                    "name": "root",
                                                    "type": "uint64"
                                                },
                                                {
                                                    "internalType": "address[]",
                                                    "name": "route",
                                                    "type": "address[]"
                                                }
                                            ],
                                            "internalType": "struct SubnetID",
                                            "name": "subnetId",
                                            "type": "tuple"
                                        },
                                        {
                                            "components": [
                                                {
                                                    "internalType": "uint8",
                                                    "name": "addrType",
                                                    "type": "uint8"
                                                },
                                                {
                                                    "internalType": "bytes",
                                                    "name": "payload",
                                                    "type": "bytes"
                                                }
                                            ],
                                            "internalType": "struct FvmAddress",
                                            "name": "rawAddress",
                                            "type": "tuple"
                                        }
                                    ],
                                    "internalType": "struct IPCAddress",
                                    "name": "to",
                                    "type": "tuple"
                                },
                                {
                                    "internalType": "uint256",
                                    "name": "value",
                                    "type": "uint256"
                                },
                                {
                                    "internalType": "uint64",
                                    "name": "nonce",
                                    "type": "uint64"
                                },
                                {
                                    "internalType": "bytes4",
                                    "name": "method",
                                    "type": "bytes4"
                                },
                                {
                                    "internalType": "bytes",
                                    "name": "params",
                                    "type": "bytes"
                                },
                                {
                                    "internalType": "uint256",
                                    "name": "fee",
                                    "type": "uint256"
                                }
                            ],
                            "internalType": "struct StorableMsg",
                            "name": "message",
                            "type": "tuple"
                        },
                        {
                            "internalType": "bool",
                            "name": "wrapped",
                            "type": "bool"
                        }
                    ],
                    "internalType": "struct CrossMsg[]",
                    "name": "messages",
                    "type": "tuple[]"
                }
            ],
            "name": "commitBottomUpCheckpoint",
            "outputs": [],
            "stateMutability": "nonpayable",
            "type": "function"
        },
        {
            "inputs": [
                {
                    "components": [
                        {
                            "internalType": "uint256",
                            "name": "height",
                            "type": "uint256"
                        },
                        {
                            "internalType": "bytes32",
                            "name": "blockHash",
                            "type": "bytes32"
                        }
                    ],
                    "internalType": "struct ParentFinality",
                    "name": "finality",
                    "type": "tuple"
                }
            ],
            "name": "commitParentFinality",
            "outputs": [
                {
                    "internalType": "bool",
                    "name": "hasCommittedBefore",
                    "type": "bool"
                },
                {
                    "components": [
                        {
                            "internalType": "uint256",
                            "name": "height",
                            "type": "uint256"
                        },
                        {
                            "internalType": "bytes32",
                            "name": "blockHash",
                            "type": "bytes32"
                        }
                    ],
                    "internalType": "struct ParentFinality",
                    "name": "previousFinality",
                    "type": "tuple"
                }
            ],
            "stateMutability": "nonpayable",
            "type": "function"
        },
        {
            "inputs": [
                {
                    "components": [
                        {
                            "components": [
                                {
                                    "internalType": "uint64",
                                    "name": "root",
                                    "type": "uint64"
                                },
                                {
                                    "internalType": "address[]",
                                    "name": "route",
                                    "type": "address[]"
                                }
                            ],
                            "internalType": "struct SubnetID",
                            "name": "subnetID",
                            "type": "tuple"
                        },
                        {
                            "internalType": "uint64",
                            "name": "blockHeight",
                            "type": "uint64"
                        },
                        {
                            "internalType": "bytes32",
                            "name": "blockHash",
                            "type": "bytes32"
                        },
                        {
                            "internalType": "uint64",
                            "name": "nextConfigurationNumber",
                            "type": "uint64"
                        },
                        {
                            "internalType": "bytes32",
                            "name": "crossMessagesHash",
                            "type": "bytes32"
                        }
                    ],
                    "internalType": "struct BottomUpCheckpoint",
                    "name": "checkpoint",
                    "type": "tuple"
                },
                {
                    "internalType": "bytes32",
                    "name": "membershipRootHash",
                    "type": "bytes32"
                },
                {
                    "internalType": "uint256",
                    "name": "membershipWeight",
                    "type": "uint256"
                }
            ],
            "name": "createBottomUpCheckpoint",
            "outputs": [],
            "stateMutability": "nonpayable",
            "type": "function"
        },
        {
            "inputs": [
                {
                    "internalType": "uint64",
                    "name": "newRetentionHeight",
                    "type": "uint64"
                }
            ],
            "name": "pruneBottomUpCheckpoints",
            "outputs": [],
            "stateMutability": "nonpayable",
            "type": "function"
        },
        {
            "inputs": [
                {
                    "components": [
                        {
                            "components": [
                                {
                                    "internalType": "enum StakingOperation",
                                    "name": "op",
                                    "type": "uint8"
                                },
                                {
                                    "internalType": "bytes",
                                    "name": "payload",
                                    "type": "bytes"
                                },
                                {
                                    "internalType": "address",
                                    "name": "validator",
                                    "type": "address"
                                }
                            ],
                            "internalType": "struct StakingChange",
                            "name": "change",
                            "type": "tuple"
                        },
                        {
                            "internalType": "uint64",
                            "name": "configurationNumber",
                            "type": "uint64"
                        }
                    ],
                    "internalType": "struct StakingChangeRequest[]",
                    "name": "changeRequests",
                    "type": "tuple[]"
                }
            ],
            "name": "storeValidatorChanges",
            "outputs": [],
            "stateMutability": "nonpayable",
            "type": "function"
        }
    ],
    "bytecode": {
        "object": "0x608060405234801561001057600080fd5b50614dbd806100206000396000f3fe608060405234801561001057600080fd5b50600436106100885760003560e01c8063ae00c2981161005b578063ae00c29814610111578063c62eb4d514610124578063e49a547d14610137578063f456b39e1461014a57600080fd5b80630df144611461008d57806311196974146100b25780632a04f220146100e9578063a656ca5b146100fe575b600080fd5b61009561015d565b6040516001600160401b0390911681526020015b60405180910390f35b6100c56100c03660046139dd565b610388565b604080519215158352815160208085019190915290910151908201526060016100a9565b6100fc6100f7366004613b4a565b6103bd565b005b6100fc61010c366004613c32565b610720565b6100fc61011f366004613c7f565b6108fa565b6100fc610132366004613ce0565b610b01565b6100fc610145366004613ce0565b610b41565b6100fc610158366004613d21565b610b55565b6000610167610e8c565b602154600090610182906001906001600160401b0316613d9f565b602154909150600160401b90046001600160401b03166101a3826001613dbf565b6001600160401b0316036101b957600091505090565b6101c4601882610f1e565b60006101d06018611154565b80519091506000816001600160401b038111156101ef576101ef613a1a565b60405190808252806020026020018201604052801561023c57816020015b6040805160608082018352600080835260208301529181019190915281526020019060019003908161020d5790505b50905060005b8281101561035857600084828151811061025e5761025e613ddf565b6020908102919091018101516001600160a01b0381166000818152601a84526040908190208151606081018352815481529485019290925260028201805493955091939290830191906102b090613df5565b80601f01602080910402602001604051908101604052809291908181526020018280546102dc90613df5565b80156103295780601f106102fe57610100808354040283529160200191610329565b820191906000526020600020905b81548152906001019060200180831161030c57829003601f168201915b505050505081525084848151811061034357610343613ddf565b60209081029190910101525050600101610242565b5061037f6040518060400160405280838152602001866001600160401b0316815250611229565b50919250505090565b60408051808201909152600080825260208201819052906103a7610e8c565b6103b083611611565b8051151594909350915050565b600c546001600160401b0390811690851610156103ed576040516376afb88d60e01b815260040160405180910390fd5b6001600160401b038481166000908152600960209081526040808320600a90925290912060028201549092161515918261043a576040516358cdd2e760e01b815260040160405180910390fd5b60008061044b836000015487611698565b509092509050600081600381111561046557610465613e29565b1461048357604051638baa579f60e01b815260040160405180910390fd5b6001600160401b0389166000908152600f602052604090206104a590836116e5565b156104c357604051635a3fd0d960e11b815260040160405180910390fd5b604080516001600160a01b038416602082015290810188905260009060600160408051601f198184030181528282528051602091820120908301520160405160208183030381529060405280519060200120905060006105288a86600101548461170c565b90508061055857604051634a0bfec160e01b81526001600160a01b03851660048201526024015b60405180910390fd5b6001600160401b038b166000908152600f6020526040812061057a9086611722565b90508061059a57604051633363140f60e01b815260040160405180910390fd5b6001600160401b038c1660009081526010602090815260408083206001600160a01b038916845290915290206105d08a82613e85565b50898660030160008282546105e59190613f44565b9091555050600286015460038701541061071257600486015460ff166106b25760048601805460ff19166001179055600287015461062e90600d906001600160401b0316611737565b90508061064e57604051637e5145ed60e01b815260040160405180910390fd5b7f6e19758a6cc7e71b17c341543844325f2a6ad8294af979c7b386fc4d3814e9348c876000015488600301546040516106a5939291906001600160401b039390931683526020830191909152604082015260600190565b60405180910390a1610712565b7f24836090f2da17128f839618852e98c2586a5693517e15f15497223bd26c60458c87600001548860030154604051610709939291906001600160401b039390931683526020830191909152604082015260600190565b60405180910390a15b505050505050505050505050565b610728610e8c565b600c546001600160401b03166107446040850160208601613c7f565b6001600160401b0316101561076c576040516376afb88d60e01b815260040160405180910390fd5b6017546001600160401b03166107886040850160208601613c7f565b6107929190613f6d565b6001600160401b0316156107b95760405163fae4eadb60e01b815260040160405180910390fd5b6107ef6107cc6040850160208601613c7f565b6001600160401b0390811660009081526009602052604090206002015416151590565b1561080d5760405163b8a1eae160e01b815260040160405180910390fd5b8060000361082e57604051634e8ac6e560e01b815260040160405180910390fd5b60165460009061084290839060ff16611743565b9050600061086a6108596040870160208801613c7f565b600d906001600160401b031661175b565b90508061088a5760405163ee6c026760e01b815260040160405180910390fd5b60006040518060a00160405280876040516020016108a89190613fa8565b604051602081830303815290604052805190602001208152602001868152602001848152602001600081526020016000151581525090506108f2866108ec90614183565b82611767565b505050505050565b610902610e8c565b600c546001600160401b03908116908216811061093257604051636819a3a960e01b815260040160405180910390fd5b805b826001600160401b0316816001600160401b03161015610adc576001600160401b0381166000908152600960205260408120805467ffffffffffffffff19168155908181610985600183018261374b565b5050506002818101805467ffffffffffffffff19908116909155600060038085018290556004808601805490941690935560059094018190556001600160401b0385168152600a602090815260408083208381556001810184905594850183905594840182905592909101805460ff19169055600f909152908120908181610a0d828261374b565b505050506001600160401b0381166000908152600b60205260408120610a3291613769565b6001600160401b0381166000908152600f60205260408120610a5390611871565b805190915060005b81811015610ace576001600160401b03841660009081526010602052604081208451909190859084908110610a9257610a92613ddf565b60200260200101516001600160a01b03166001600160a01b031681526020019081526020016000206000610ac6919061378a565b600101610a5b565b508260010192505050610934565b5050600c805467ffffffffffffffff19166001600160401b0392909216919091179055565b610b09610e8c565b604080518082018252600080825282518181526020818101909452610b3d93830191509052610b388385614306565b611885565b5050565b610b49610e8c565b610b3d601883836118bd565b33610b60848061446f565b610b699061448f565b604051632cff562160e11b815273__$a0fe38a9a81205afccc10810b09a4d3f45$__916359feac4291610b9f9190600401614504565b602060405180830381865af4158015610bbc573d6000803e3d6000fd5b505050506040513d601f19601f82011682018060405250810190610be09190614517565b6001600160a01b031614610c0757604051637f39132760e11b815260040160405180910390fd5b600080610c133361190d565b9150915081610c34576040516208ed5b60e31b815260040160405180910390fd5b610c3e858061446f565b610c479061448f565b60405163c836244d60e01b815273__$a0fe38a9a81205afccc10810b09a4d3f45$__9163c836244d91610c819190600480870191016145a1565b602060405180830381865af4158015610c9e573d6000803e3d6000fd5b505050506040513d601f19601f82011682018060405250810190610cc291906145c6565b610cdf576040516303b5db8360e11b815260040160405180910390fd5b60016003820154600160801b900460ff166005811115610d0157610d01613e29565b14610d1f5760405163c18316bf60e01b815260040160405180910390fd5b60008084815b81811015610db157878782818110610d3f57610d3f613ddf565b9050602002810190610d51919061446f565b610d5b90806145e3565b610d69906040013585613f44565b9350878782818110610d7d57610d7d613ddf565b9050602002810190610d8f919061446f565b610d9990806145e3565b610da79060c0013584613f44565b9250600101610d25565b506000610dbe8484613f44565b90508085600201541015610de557604051631d36ca1560e21b815260040160405180910390fd5b80856002016000828254610df991906145f9565b90915550610e1f9050610e0c8a8061446f565b610e159061448f565b610b38898b614306565b610e8033610e3360408c0160208d01613c7f565b6040516001600160401b0390911660248201526044810186905260640160408051601f198184030181529190526020810180516001600160e01b031663f9002bb160e01b17905285611a48565b50505050505050505050565b604051635d3f8a6960e01b815233600482015273__$e800e3908cdbb6b1b5bd452383a17b18f7$__90635d3f8a6990602401602060405180830381865af4158015610edb573d6000803e3d6000fd5b505050506040513d601f19601f82011682018060405250810190610eff91906145c6565b610f1c5760405163f0d97f3b60e01b815260040160405180910390fd5b565b60098201546001600160401b0390811690821610610f4f5760405163040aaa0560e11b815260040160405180910390fd5b60098201546001600160401b03600160401b90910481169082161015610f73575050565b6009820154600160401b90046001600160401b0316805b826001600160401b0316816001600160401b03161161110f576001600160401b0381166000908152600a85016020526040812060028181015482549293506001600160a01b03169160ff1681811115610fe557610fe5613e29565b0361101a576001600160a01b03811660009081526002808801602052604090912001611014600184018261460c565b506110f8565b600082600101805461102b90613df5565b80601f016020809104026020016040519081016040528092919081815260200182805461105790613df5565b80156110a45780601f10611079576101008083540402835291602001916110a4565b820191906000526020600020905b81548152906001019060200180831161108757829003601f168201915b50505050508060200190518101906110bc91906146de565b90506001835460ff1660028111156110d6576110d6613e29565b036110eb576110e6878383611a60565b6110f6565b6110f6878383611b3b565b505b6111056009870184611ba8565b5050600101610f8a565b5061111b826001613dbf565b600990930180546001600160401b0394909416600160401b026fffffffffffffffff000000000000000019909416939093179092555050565b60606000611167836003015461ffff1690565b90508061ffff166001600160401b0381111561118557611185613a1a565b6040519080825280602002602001820160405280156111ae578160200160208202803683370190505b50915060015b8161ffff168161ffff16116112225761ffff811660009081526005850160205260409020546001600160a01b0316836111ee6001846146f7565b61ffff168151811061120257611202613ddf565b6001600160a01b03909216602092830291909101909101526001016111b4565b5050919050565b7f7ecdac482334c36fccbe374318cfe74ea0c8181394890ddec894a10f0fcc74818160405161125891906147e0565b60405180910390a16006546000906001600160401b03161561140957600881015460208301516001600160401b03918216911603611294575050565b600881015460208301516001600160401b03918216911610156112ca57604051633746be2560e11b815260040160405180910390fd5b60408051600583018054606060208202840181018552938301818152611400948794939284929184919060009085015b828210156113de57600084815260209081902060408051606081018252600386029092018054835260018101546001600160a01b0316938301939093526002830180549293929184019161134d90613df5565b80601f016020809104026020016040519081016040528092919081815260200182805461137990613df5565b80156113c65780601f1061139b576101008083540402835291602001916113c6565b820191906000526020600020905b8154815290600101906020018083116113a957829003601f168201915b505050505081525050815260200190600101906112fa565b50505090825250600191909101546001600160401b0316602090910152611bef565b15611409575050565b600581018054600783019061142190829084906137c4565b506001918201549101805467ffffffffffffffff19166001600160401b03909216919091179055815151600582015460005b8281101561157857818110156114f057845180518290811061147757611477613ddf565b602002602001015184600501600001828154811061149757611497613ddf565b6000918252602091829020835160039290920201908155908201516001820180546001600160a01b0319166001600160a01b03909216919091179055604082015160028201906114e79082613e85565b50905050611570565b845180516005860191908390811061150a5761150a613ddf565b60209081029190910181015182546001808201855560009485529383902082516003909202019081559181015192820180546001600160a01b0319166001600160a01b03909416939093179092556040820151600282019061156c9082613e85565b5050505b600101611453565b50602084015160068401805467ffffffffffffffff19166001600160401b039092169190911790558181111561160b57815b8181101561160957600584018054806115c5576115c561481b565b6000828152602081206003600019909301928302018181556001810180546001600160a01b0319169055906115fd600283018261378a565b505090556001016115aa565b505b50505050565b60408051808201909152600080825260208201819052600254833581111561164c5760405163153ad84160e11b815260040160405180910390fd5b6000908152600182810160208181526040808520815180830183528154815290850154818401528835808752938352942082815596013595909101949094556002909101929092555090565b600080600083516041036116d25760208401516040850151606086015160001a6116c488828585611caf565b9550955095505050506116de565b50508151600091506002905b9250925092565b6001600160a01b038116600090815260018301602052604081205415155b90505b92915050565b6000826117198584611d7e565b14949350505050565b6000611703836001600160a01b038416611dcb565b60006117038383611e1a565b600060646117518385614831565b6117039190614848565b60006117038383611dcb565b6020828101516001600160401b039081166000908152600983526040812085518051825467ffffffffffffffff1916941693909317815582840151805192948794929384926117bd926001850192910190613857565b5050506020828101516002838101805467ffffffffffffffff199081166001600160401b03948516179091556040808701516003808801919091556060808901516004808a01805490961691881691909117909455608098890151600590980197909755998501519093166000908152600a97909701845295829020875181559287015160018401559086015190820155908401519481019490945591909101519101805460ff1916911515919091179055565b6060600061187e83611f14565b9392505050565b805160005b8181101561160b576118b5848483815181106118a8576118a8613ddf565b6020026020010151611f70565b60010161188a565b8060008190036118cd5750505050565b60005b8181101561160957611905858585848181106118ee576118ee613ddf565b9050602002810190611900919061446f565b612567565b6001016118d0565b600080806001600160a01b038416611938576040516370e4510960e01b815260040160405180910390fd5b6040805180820182526012830180546001600160401b031682526013840180548451602082810282018101909652818152600095808601939192908301828280156119ac57602002820191906000526020600020905b81546001600160a01b0316815260019091019060200180831161198e575b50505091909252505060405163aa5106cb60e01b815273__$a0fe38a9a81205afccc10810b09a4d3f45$__9263aa5106cb92506119ed91899060040161485c565b600060405180830381865af4158015611a0a573d6000803e3d6000fd5b505050506040513d6000823e601f3d908101601f19168201604052611a329190810190614886565b9050611a3d81612640565b935093505050915091565b6060611a588484846127d36127ec565b949350505050565b6001600160a01b0382166000908152600284016020526040812054611a869083906145f9565b6001600160a01b038416600090815260028601602052604090206001015490915081158015611ab3575080155b15611af2576001600160a01b0384166000908152600280870160205260408220828155600181018390559190611aeb9083018261378a565b5050611b10565b6001600160a01b038416600090815260028601602052604090208290555b611b1b85858461288b565b82856001016000828254611b2f91906145f9565b90915550505050505050565b6001600160a01b0382166000908152600284016020526040812054611b61908390613f44565b6001600160a01b038416600090815260028601602052604081208290556001860180549293508492909190611b97908490613f44565b9091555061160b9050848483612b5c565b6001600160401b0381166000908152600180840160205260408220805460ff191681559190611bd99083018261378a565b5060020180546001600160a01b03191690555050565b600081602001516001600160401b031683602001516001600160401b031614611c1a57506000611706565b611c2382612d82565b611c2c84612d82565b14611c3957506000611706565b81515183515114611c4c57506000611706565b8251604051600091611c6091602001614966565b60408051601f198184030181529082905280516020918201208551909350600092611c8b9201614966565b60408051601f19818403018152919052805160209091012091909114949350505050565b600080807f7fffffffffffffffffffffffffffffff5d576e7357a4501ddfe92f46681b20a0841115611cea5750600091506003905082611d74565b604080516000808252602082018084528a905260ff891692820192909252606081018790526080810186905260019060a0016020604051602081039080840390855afa158015611d3e573d6000803e3d6000fd5b5050604051601f1901519150506001600160a01b038116611d6a57506000925060019150829050611d74565b9250600091508190505b9450945094915050565b600081815b8451811015611dc357611daf82868381518110611da257611da2613ddf565b6020026020010151612dc8565b915080611dbb81614979565b915050611d83565b509392505050565b6000818152600183016020526040812054611e1257508154600181810184556000848152602080822090930184905584548482528286019093526040902091909155611706565b506000611706565b60008181526001830160205260408120548015611f03576000611e3e6001836145f9565b8554909150600090611e52906001906145f9565b9050818114611eb7576000866000018281548110611e7257611e72613ddf565b9060005260206000200154905080876000018481548110611e9557611e95613ddf565b6000918252602080832090910192909255918252600188019052604090208390555b8554869080611ec857611ec861481b565b600190038181906000526020600020016000905590558560010160008681526020019081526020016000206000905560019350505050611706565b6000915050611706565b5092915050565b606081600001805480602002602001604051908101604052809291908181526020018280548015611f6457602002820191906000526020600020905b815481526020019060010190808311611f50575b50505050509050919050565b80516020015151604051630c133d1360e31b815273__$a0fe38a9a81205afccc10810b09a4d3f45$__91636099e89891611fad9190600401614504565b602060405180830381865af4158015611fca573d6000803e3d6000fd5b505050506040513d601f19601f82011682018060405250810190611fee91906145c6565b1561200c5760405163c5f563eb60e01b815260040160405180910390fd5b8051608001516001600160e01b031916612046578051604001514710156120465760405163569d45cf60e11b815260040160405180910390fd5b805160405163f47ad7eb60e01b815260009173__$386b5c41ce93e8b832daf8008b3d30ae09$__9163f47ad7eb9161208391601290600401614a67565b602060405180830381865af41580156120a0573d6000803e3d6000fd5b505050506040513d601f19601f820116820180604052508101906120c49190614a7a565b8251602001515160405163c836244d60e01b815291925073__$a0fe38a9a81205afccc10810b09a4d3f45$__9163c836244d91612106916012906004016145a1565b602060405180830381865af4158015612123573d6000803e3d6000fd5b505050506040513d601f19601f8201168201806040525081019061214791906145c6565b156123b557600181600181111561216057612160613e29565b0361229a57604051630c133d1360e31b815273__$a0fe38a9a81205afccc10810b09a4d3f45$__90636099e8989061219c908690600401614504565b602060405180830381865af41580156121b9573d6000803e3d6000fd5b505050506040513d601f19601f820116820180604052508101906121dd91906145c6565b61229a576000806121ed85612640565b915091508161220f57604051630e991abd60e41b815260040160405180910390fd5b8351606001516003820154600160401b90046001600160401b0390811691161461224c5760405163a57cadff60e01b815260040160405180910390fd5b60018160030160088282829054906101000a90046001600160401b03166122739190613dbf565b92506101000a8154816001600160401b0302191690836001600160401b0316021790555050505b60008160018111156122ae576122ae613e29565b0361233957815160600151601654600160481b90046001600160401b039081169116146122ee5760405163a57cadff60e01b815260040160405180910390fd5b6016805460019190600990612314908490600160481b90046001600160401b0316613dbf565b92506101000a8154816001600160401b0302191690836001600160401b031602179055505b604051635c46fefb60e11b815273__$33b79814e84bf6cf5e47244090b19ce5f8$__9063b88dfdf690612370908590600401614a9b565b600060405180830381865af415801561238d573d6000803e3d6000fd5b505050506040513d6000823e601f3d908101601f1916820160405261160b9190810190614acf565b60006123c083612df7565b60008181526003602090815260409091208551805180518051845467ffffffffffffffff19166001600160401b039091161784558085015180519697508996949593948694859392849261241a9260018501920190613857565b505050602082810151805160028401805460ff191660ff9092169190911781559181015190919060038401906124509082613e85565b505050506020838101518051805160048601805467ffffffffffffffff19166001600160401b039092169190911781558184015180519395509093919284926124a0926005890192910190613857565b505050602082810151805160028401805460ff191660ff9092169190911781559181015190919060038401906124d69082613e85565b5050505060408301516008830155506060820151600982018054608085015160e01c600160401b026bffffffffffffffffffffffff199091166001600160401b039093169290921791909117905560a0820151600a8201906125389082613e85565b5060c09190910151600b9091015560209190910151600c909101805460ff191691151591909117905550505050565b60006125f86125768380614b3c565b612587906060810190604001614b52565b6125918480614b3c565b61259f906020810190614b6f565b6125a98580614b3c565b6125b7906020810190614b90565b8080601f0160208091040260200160405190810160405280939291908181526020018383808284376000920191909152505060098901949392915050612e27565b905061260a6040830160208401613c7f565b6001600160401b0316816001600160401b03161461263b57604051631aba532960e21b815260040160405180910390fd5b505050565b6040516390ba52cf60e01b8152600090819081908190819073__$a0fe38a9a81205afccc10810b09a4d3f45$__906390ba52cf90612682908990600401614504565b602060405180830381865af415801561269f573d6000803e3d6000fd5b505050506040513d601f19601f820116820180604052508101906126c391906146de565b81526020808201929092526040908101600020815180830183526004820180546001600160401b03168252600583018054855181880281018801909652808652939750919490938582019390929183018282801561274a57602002820191906000526020600020905b81546001600160a01b0316815260019091019060200180831161272c575b505050919092525050604051630c133d1360e31b815273__$a0fe38a9a81205afccc10810b09a4d3f45$__92636099e898925061278991600401614504565b602060405180830381865af41580156127a6573d6000803e3d6000fd5b505050506040513d601f19601f820116820180604052508101906127ca91906145c6565b15925050915091565b604051630a12f52160e11b815260040160405180910390fd5b6060824710156128115760405163cd78605960e01b815230600482015260240161054f565b600080866001600160a01b0316858760405161282d9190614bd6565b60006040518083038185875af1925050503d806000811461286a576040519150601f19603f3d011682016040523d82523d6000602084013e61286f565b606091505b509150915061288087838387612f1e565b979650505050505050565b6128986006840183612f76565b1561294257806000036128f5576128b3600684018484612f9c565b6040516001600160a01b03831681527f3168ba660eed6ef1dc2258b2247cc05fd0f2f350d39e6ad2e2ebc76a8000b40b906020015b60405180910390a1505050565b61290360068401848461302c565b604080516001600160a01b0384168152602081018390527fda148fac2e1063174be7bc0895576bdaba90fd14e575463fa26a967cb895cadd91016128e8565b61294f6003840183612f76565b61296c57604051632a55ca5360e01b815260040160405180910390fd5b80600003612a4657612982600384018484613054565b6040516001600160a01b03831681527f4a4c5d1a281180eea1e99d8177fa4798b9f7e019d5c57e7d8d73c6a22199aa5b9060200160405180910390a1600683015461ffff161561263b576000806129dc60068601866130e4565b90925090506129ee6006860186613126565b6129fc600386018684613184565b604080516001600160a01b0384168152602081018390527f2e8038f5812f763c6ef0c5427cb5a05ce6d7064af2ba7d1d270bc02660b019fd91015b60405180910390a15050505050565b612a5460038401848461320a565b600683015461ffff16600003612a6957505050565b600080612a7960038601866130e4565b9092509050600080612a8e60068801886130e4565b9150915080831015612b1d57612aa76003880188613224565b612ab46006880188613126565b612ac2600388018884613184565b612ad0600688018886613282565b604080516001600160a01b038087168252841660208201527ffaeb8de771b867cf357f6b459a7002b62ec45d544a8078a3ecd91200cc826d7591015b60405180910390a150505050505050565b604080516001600160a01b0388168152602081018790527f143db27bc2036653dc6f962ff9d0b803163d4af50c256ca9e6927b3d6dcd01979101612b0c565b612b696003840183612f76565b15612bbb57612b7c600384018484613308565b604080516001600160a01b0384168152602081018390527f143db27bc2036653dc6f962ff9d0b803163d4af50c256ca9e6927b3d6dcd019791016128e8565b825461ffff166000612bd2600386015461ffff1690565b90508061ffff168261ffff161115612c3157612bf2600386018686613184565b604080516001600160a01b0386168152602081018590527f2e8038f5812f763c6ef0c5427cb5a05ce6d7064af2ba7d1d270bc02660b019fd9101612a37565b600080612c4160038801886130e4565b9150915084811015612cd657612c5a6003880188613224565b612c676006880187612f76565b15612c7a57612c7a600688018888612f9c565b612c88600388018888613184565b612c96600688018884613282565b604080516001600160a01b038085168252881660208201527ffaeb8de771b867cf357f6b459a7002b62ec45d544a8078a3ecd91200cc826d759101612b0c565b612ce36006880187612f76565b15612d3557612cf6600688018888613330565b604080516001600160a01b0388168152602081018790527fda148fac2e1063174be7bc0895576bdaba90fd14e575463fa26a967cb895cadd9101612b0c565b612d43600688018888613282565b604080516001600160a01b0388168152602081018790527f19fe3ca603e87854a0747cc10abf06bac64d61bac73d6d15f2fd3ca448f152649101612b0c565b80515160009081805b82811015611dc3578451805182908110612da757612da7613ddf565b60200260200101516000015182612dbe9190613f44565b9150600101612d8b565b6000818310612de4576000828152602084905260409020611703565b6000838152602083905260409020611703565b600081604051602001612e0a9190614c7b565b604051602081830303815290604052805190602001209050919050565b835460408051606081019091526001600160401b039091169080846002811115612e5357612e53613e29565b815260208082018590526001600160a01b0387166040928301526001600160401b03841660009081526001808a01909252919091208251815491929091839160ff1990911690836002811115612eab57612eab613e29565b021790555060208201516001820190612ec49082613e85565b5060409190910151600290910180546001600160a01b0319166001600160a01b03909216919091179055612ef9816001613dbf565b855467ffffffffffffffff19166001600160401b039190911617909455509192915050565b60608315612f6c578251600003612f6557846001600160a01b03163b600003612f6557604051639996b31560e01b81526001600160a01b038616600482015260240161054f565b5081611a58565b611a58838361334a565b6001600160a01b038116600090815260018301602052604081205461ffff161515611703565b6000612fa88483613366565b845490915061ffff16612fbc8583836133a6565b612fc76001826146f7565b855461ffff191661ffff91909116178555612fe2858261345b565b8161ffff168161ffff1603612ff8575050505050565b60006130058686856134a0565b9050613013868685846134d2565b61301e8686856134a0565b90506108f286868584613516565b60006130388483613366565b9050600061304684846135ab565b905061160985858484613516565b60006130608483613366565b845490915061ffff166130748583836133a6565b61307f6001826146f7565b855461ffff191661ffff9190911617855561309a858261345b565b8161ffff168161ffff16036130b0575050505050565b60006130bd8686856134a0565b90506130cb868685846135c9565b6130d68686856134a0565b90506108f28686858461360d565b6000806130f08461369e565b600160009081526002850160205260408120546001600160a01b03169061311785836135ab565b919350909150505b9250929050565b61312f8261369e565b815461ffff16613141836001836133a6565b61314c6001826146f7565b835461ffff191661ffff91909116178355613167838261345b565b6000613175848460016134a0565b905061160b8484600184613516565b82546000906131989061ffff166001614d30565b6001600160a01b03831660008181526001870160209081526040808320805461ffff871661ffff19918216811790925581855260028b0190935290832080546001600160a01b03191690941790935587541690911786559091506131fc84846135ab565b9050611609858584846135c9565b60006132168483613366565b905060006131fc84846135ab565b61322d8261369e565b815461ffff1661323f836001836133a6565b61324a6001826146f7565b835461ffff191661ffff91909116178355613265838261345b565b6000613273848460016134a0565b905061160b848460018461360d565b82546000906132969061ffff166001614d30565b6001600160a01b03831660008181526001870160209081526040808320805461ffff871661ffff19918216811790925581855260028b0190935290832080546001600160a01b03191690941790935587541690911786559091506132fa84846135ab565b9050611609858584846134d2565b60006133148483613366565b9050600061332284846135ab565b90506116098585848461360d565b600061333c8483613366565b905060006132fa84846135ab565b81511561335a5781518083602001fd5b6127d38163ffffffff16565b6001600160a01b038116600090815260018301602052604081205461ffff16908190036117065760405163f2755e3760e01b815260040160405180910390fd5b825461ffff90811690831611156133bf576133bf614d4b565b825461ffff90811690821611156133d8576133d8614d4b565b61ffff9182166000818152600285016020818152604080842080549690971680855281852080546001600160a01b039889168088526001909b018552838720805461ffff19908116909417905590971680865291852080549091168617905591905283546001600160a01b03199081169096179093555281549092169091179055565b61ffff166000908152600282016020908152604080832080546001600160a01b031981169091556001600160a01b031683526001909301905220805461ffff19169055565b61ffff811660009081526002840160205260408120546001600160a01b03166134c984826135ab565b95945050505050565b6000805b60018461ffff1611156108f257617fff600185901c1691506134f98686846134a0565b9050808311156108f25761350e8683866133a6565b8193506134d6565b83546201fffe600184901b169060009061ffff165b8061ffff168361ffff16116135a2578061ffff168361ffff16101561356a5761356087878561355b816001614d30565b6136c7565b9093509150613578565b6135758787856134a0565b91505b838211156135a25761358b8784876133a6565b82945084600261359b9190614d61565b925061352b565b50505050505050565b6001600160a01b031660009081526002909101602052604090205490565b6000805b60018461ffff1611156108f257617fff600185901c1691506135f08686846134a0565b9050808310156108f2576136058683866133a6565b8193506135cd565b600061361a836002614d61565b855490915060009061ffff165b8061ffff168361ffff16116135a2578061ffff168361ffff1610156136665761365c878785613657816001614d30565b61370b565b9093509150613674565b6136718787856134a0565b91505b838210156135a2576136878784876133a6565b8294508460026136979190614d61565b9250613627565b805461ffff166000036136c4576040516340d9b01160e01b815260040160405180910390fd5b50565b600080806136d68787876134a0565b905060006136e58888876134a0565b9050818111156136fb5784935091506137029050565b5084925090505b94509492505050565b6000808061371a8787876134a0565b905060006137298888876134a0565b905081811061373d57508492509050613702565b939793965092945050505050565b50805460008255906000526020600020908101906136c491906138b4565b50805460008255600d02906000526020600020908101906136c491906138c9565b50805461379690613df5565b6000825580601f106137a6575050565b601f0160209004906000526020600020908101906136c491906138b4565b8280548282559060005260206000209060030281019282156138475760005260206000209160030282015b82811115613847578254825560018084015490830180546001600160a01b0319166001600160a01b0390921691909117905582826002808201906138359084018261460c565b505050916003019190600301906137ef565b506138539291506139a8565b5090565b8280548282559060005260206000209081019282156138ac579160200282015b828111156138ac57825182546001600160a01b0319166001600160a01b03909116178255602090920191600190910190613877565b506138539291505b5b8082111561385357600081556001016138b5565b8082111561385357805467ffffffffffffffff1916815560008181818181816138f5600183018261374b565b505060028201805460ff191681556000613912600385018261378a565b5050505060048201805467ffffffffffffffff191681556000818161393a600587018261374b565b505060028201805460ff191681556000613957600385018261378a565b50506000600885018190556009850180546bffffffffffffffffffffffff191690556139899250600a8501915061378a565b506000600b919091015550600c8101805460ff19169055600d016138c9565b808211156138535760008082556001820180546001600160a01b03191690556139d4600283018261378a565b506003016139a8565b6000604082840312156139ef57600080fd5b50919050565b6001600160401b03811681146136c457600080fd5b8035613a15816139f5565b919050565b634e487b7160e01b600052604160045260246000fd5b604080519081016001600160401b0381118282101715613a5257613a52613a1a565b60405290565b60405160e081016001600160401b0381118282101715613a5257613a52613a1a565b604051601f8201601f191681016001600160401b0381118282101715613aa257613aa2613a1a565b604052919050565b60006001600160401b03821115613ac357613ac3613a1a565b5060051b60200190565b60006001600160401b03821115613ae657613ae6613a1a565b50601f01601f191660200190565b600082601f830112613b0557600080fd5b8135613b18613b1382613acd565b613a7a565b818152846020838601011115613b2d57600080fd5b816020850160208301376000918101602001919091529392505050565b60008060008060808587031215613b6057600080fd5b8435613b6b816139f5565b93506020858101356001600160401b0380821115613b8857600080fd5b818801915088601f830112613b9c57600080fd5b8135613baa613b1382613aaa565b81815260059190911b8301840190848101908b831115613bc957600080fd5b938501935b82851015613be757843582529385019390850190613bce565b97505050604088013594506060880135925080831115613c0657600080fd5b5050613c1487828801613af4565b91505092959194509250565b600060a082840312156139ef57600080fd5b600080600060608486031215613c4757600080fd5b83356001600160401b03811115613c5d57600080fd5b613c6986828701613c20565b9660208601359650604090950135949350505050565b600060208284031215613c9157600080fd5b813561187e816139f5565b60008083601f840112613cae57600080fd5b5081356001600160401b03811115613cc557600080fd5b6020830191508360208260051b850101111561311f57600080fd5b60008060208385031215613cf357600080fd5b82356001600160401b03811115613d0957600080fd5b613d1585828601613c9c565b90969095509350505050565b600080600060408486031215613d3657600080fd5b83356001600160401b0380821115613d4d57600080fd5b613d5987838801613c20565b94506020860135915080821115613d6f57600080fd5b50613d7c86828701613c9c565b9497909650939450505050565b634e487b7160e01b600052601160045260246000fd5b6001600160401b03828116828216039080821115611f0d57611f0d613d89565b6001600160401b03818116838216019080821115611f0d57611f0d613d89565b634e487b7160e01b600052603260045260246000fd5b600181811c90821680613e0957607f821691505b6020821081036139ef57634e487b7160e01b600052602260045260246000fd5b634e487b7160e01b600052602160045260246000fd5b601f82111561263b57600081815260208120601f850160051c81016020861015613e665750805b601f850160051c820191505b818110156108f257828155600101613e72565b81516001600160401b03811115613e9e57613e9e613a1a565b613eb281613eac8454613df5565b84613e3f565b602080601f831160018114613ee75760008415613ecf5750858301515b600019600386901b1c1916600185901b1785556108f2565b600085815260208120601f198616915b82811015613f1657888601518255948401946001909101908401613ef7565b5085821015613f345787850151600019600388901b60f8161c191681555b5050505050600190811b01905550565b8082018082111561170657611706613d89565b634e487b7160e01b600052601260045260246000fd5b60006001600160401b0380841680613f8757613f87613f57565b92169190910692915050565b6001600160a01b03811681146136c457600080fd5b600060208083528335603e19853603018112613fc357600080fd5b60a084830152840161010084018135613fdb816139f5565b6001600160401b0390811660c0870152828401359036849003601e1901821261400357600080fd5b9201838101929035908082111561401957600080fd5b508060051b360383131561402c57600080fd5b604060e08701529081905260009061012086015b8183101561407057833561405381613f93565b6001600160a01b0316815292840192600192909201918401614040565b61407b858901613a0a565b6001600160401b03811660408901529450604088013560608801526140a260608901613a0a565b6001600160401b03811660808901529450608088013560a0880152809550505050505092915050565b6000604082840312156140dd57600080fd5b6140e5613a30565b905081356140f2816139f5565b81526020828101356001600160401b0381111561410e57600080fd5b8301601f8101851361411f57600080fd5b803561412d613b1382613aaa565b81815260059190911b8201830190838101908783111561414c57600080fd5b928401925b8284101561417357833561416481613f93565b82529284019290840190614151565b8085870152505050505092915050565b600060a0823603121561419557600080fd5b60405160a081016001600160401b0382821081831117156141b8576141b8613a1a565b8160405284359150808211156141cd57600080fd5b506141da368286016140cb565b82525060208301356141eb816139f5565b6020820152604083810135908201526060830135614208816139f5565b6060820152608092830135928101929092525090565b60006040828403121561423057600080fd5b614238613a30565b905081356001600160401b038082111561425157600080fd5b61425d858386016140cb565b8352602084013591508082111561427357600080fd5b908301906040828603121561428757600080fd5b61428f613a30565b823560ff811681146142a057600080fd5b81526020830135828111156142b457600080fd5b6142c087828601613af4565b60208301525080602085015250505092915050565b80356001600160e01b031981168114613a1557600080fd5b80151581146136c457600080fd5b8035613a15816142ed565b6000614314613b1384613aaa565b80848252602080830192508560051b85013681111561433257600080fd5b855b818110156144635780356001600160401b03808211156143545760008081fd5b8189019150604080833603121561436b5760008081fd5b614373613a30565b8335838111156143835760008081fd5b840160e03682900312156143975760008081fd5b61439f613a58565b8135858111156143af5760008081fd5b6143bb3682850161421e565b82525088820135858111156143d05760008081fd5b6143dc3682850161421e565b8a830152508382013584820152606093506143f8848301613a0a565b848201526080935061440b8483016142d5565b8482015260a0935083820135858111156144255760008081fd5b61443136828501613af4565b828601525060c091820135828201528252925061444f8488016142fb565b818801528852505050938201938201614334565b50919695505050505050565b60008235603e1983360301811261448557600080fd5b9190910192915050565b600061170636836140cb565b6000604083016001600160401b0383511684526020808401516040828701528281518085526060880191508383019450600092505b808310156144f95784516001600160a01b031682529383019360019290920191908301906144d0565b509695505050505050565b602081526000611703602083018461449b565b60006020828403121561452957600080fd5b815161187e81613f93565b6000604083016001600160401b0383541684526001808401602060408188015283825480865260608901915083600052826000209550600093505b808410156145955785546001600160a01b0316825294840194928401929082019061456f565b50979650505050505050565b6040815260006145b4604083018561449b565b82810360208401526134c98185614534565b6000602082840312156145d857600080fd5b815161187e816142ed565b6000823560de1983360301811261448557600080fd5b8181038181111561170657611706613d89565b818103614617575050565b6146218254613df5565b6001600160401b0381111561463857614638613a1a565b61464681613eac8454613df5565b6000601f82116001811461467a57600083156146625750848201545b600019600385901b1c1916600184901b178455611609565b600085815260209020601f19841690600086815260209020845b838110156146b45782860154825560019586019590910190602001614694565b5085831015613f345793015460001960f8600387901b161c19169092555050600190811b01905550565b6000602082840312156146f057600080fd5b5051919050565b61ffff828116828216039080821115611f0d57611f0d613d89565b60005b8381101561472d578181015183820152602001614715565b50506000910152565b6000815180845261474e816020860160208601614712565b601f01601f19169290920160200192915050565b600081518084526020808501808196508360051b8101915082860160005b858110156147d3578284038952815180518552858101516001600160a01b0316868601526040908101516060918601829052906147bf81870183614736565b9a87019a9550505090840190600101614780565b5091979650505050505050565b6020815260008251604060208401526147fc6060840182614762565b90506001600160401b0360208501511660408401528091505092915050565b634e487b7160e01b600052603160045260246000fd5b808202811582820484141761170657611706613d89565b60008261485757614857613f57565b500490565b60408152600061486f604083018561449b565b905060018060a01b03831660208301529392505050565b6000602080838503121561489957600080fd5b82516001600160401b03808211156148b057600080fd5b90840190604082870312156148c457600080fd5b6148cc613a30565b82516148d7816139f5565b815282840151828111156148ea57600080fd5b80840193505086601f8401126148ff57600080fd5b8251915061490f613b1383613aaa565b82815260059290921b8301840191848101908884111561492e57600080fd5b938501935b8385101561495557845161494681613f93565b82529385019390850190614933565b948201949094529695505050505050565b6020815260006117036020830184614762565b60006001820161498b5761498b613d89565b5060010190565b60008151604084526149a7604085018261449b565b90506020830151848203602086015260ff815116825260208101519050604060208301526134c96040830182614736565b6000815160e084526149ed60e0850182614992565b905060208301518482036020860152614a068282614992565b915050604083015160408501526001600160401b03606084015116606085015263ffffffff60e01b608084015116608085015260a083015184820360a0860152614a508282614736565b91505060c083015160c08501528091505092915050565b6040815260006145b460408301856149d8565b600060208284031215614a8c57600080fd5b81516002811061187e57600080fd5b602081526000825160406020840152614ab760608401826149d8565b90506020840151151560408401528091505092915050565b600060208284031215614ae157600080fd5b81516001600160401b03811115614af757600080fd5b8201601f81018413614b0857600080fd5b8051614b16613b1382613acd565b818152856020838501011115614b2b57600080fd5b6134c9826020830160208601614712565b60008235605e1983360301811261448557600080fd5b600060208284031215614b6457600080fd5b813561187e81613f93565b600060208284031215614b8157600080fd5b81356003811061187e57600080fd5b6000808335601e19843603018112614ba757600080fd5b8301803591506001600160401b03821115614bc157600080fd5b60200191503681900382131561311f57600080fd5b60008251614485818460208701614712565b8051604080845281516001600160401b031684820152602091820151606085019190915280516080850181905260009291820191839160a08701905b80841015614c4d5784516001600160a01b03168252938201936001939093019290820190614c24565b508186015193508681038288015260ff84511681528184015193506040828201526128806040820185614736565b602081526000825160406020840152805160e06060850152614ca1610140850182614be8565b90506020820151605f1980868403016080870152614cbf8383614be8565b9250604084015160a08701526001600160401b0360608501511660c087015263ffffffff60e01b60808501511660e087015260a08401519150808684030161010087015250614d0e8282614736565b60c0939093015161012086015250506020840151801515604085015290611a58565b61ffff818116838216019080821115611f0d57611f0d613d89565b634e487b7160e01b600052600160045260246000fd5b61ffff818116838216028082169190828114614d7f57614d7f613d89565b50509291505056fea26469706673582212200753c2e2196b292d04a7246d185a34f77d78249853570605e624e92964a6a55164736f6c63430008130033",
        "linkReferences": {
            "src/lib/AccountHelper.sol": {
                "AccountHelper": [
                    {
                        "start": 3777,
                        "length": 20
                    }
                ]
            },
            "src/lib/CrossMsgHelper.sol": {
                "CrossMsgHelper": [
                    {
                        "start": 9064,
                        "length": 20
                    }
                ]
            },
            "src/lib/StorableMsgHelper.sol": {
                "StorableMsgHelper": [
                    {
                        "start": 8314,
                        "length": 20
                    }
                ]
            },
            "src/lib/SubnetIDHelper.sol": {
                "SubnetIDHelper": [
                    {
                        "start": 2968,
                        "length": 20
                    },
                    {
                        "start": 3190,
                        "length": 20
                    },
                    {
                        "start": 6628,
                        "length": 20
                    },
                    {
                        "start": 8102,
                        "length": 20
                    },
                    {
                        "start": 8445,
                        "length": 20
                    },
                    {
                        "start": 8596,
                        "length": 20
                    },
                    {
                        "start": 9850,
                        "length": 20
                    },
                    {
                        "start": 10114,
                        "length": 20
                    }
                ]
            }
        }
    },
    "methodIdentifiers": {
        "addCheckpointSignature(uint64,bytes32[],uint256,bytes)": "2a04f220",
        "applyCrossMessages(((((uint64,address[]),(uint8,bytes)),((uint64,address[]),(uint8,bytes)),uint256,uint64,bytes4,bytes,uint256),bool)[])": "c62eb4d5",
        "applyFinalityChanges()": "0df14461",
        "commitBottomUpCheckpoint(((uint64,address[]),uint64,bytes32,uint64,bytes32),((((uint64,address[]),(uint8,bytes)),((uint64,address[]),(uint8,bytes)),uint256,uint64,bytes4,bytes,uint256),bool)[])": "f456b39e",
        "commitParentFinality((uint256,bytes32))": "11196974",
        "createBottomUpCheckpoint(((uint64,address[]),uint64,bytes32,uint64,bytes32),bytes32,uint256)": "a656ca5b",
        "pruneBottomUpCheckpoints(uint64)": "ae00c298",
        "storeValidatorChanges(((uint8,bytes,address),uint64)[])": "e49a547d"
    },
    "id": 40
}