{"abi":[{"type":"function","name":"addBottomUpMsgBatchSignature","inputs":[{"name":"height","type":"uint256","internalType":"uint256"},{"name":"membershipProof","type":"bytes32[]","internalType":"bytes32[]"},{"name":"weight","type":"uint256","internalType":"uint256"},{"name":"signature","type":"bytes","internalType":"bytes"}],"outputs":[],"stateMutability":"nonpayable"},{"type":"function","name":"addCheckpointSignature","inputs":[{"name":"height","type":"uint256","internalType":"uint256"},{"name":"membershipProof","type":"bytes32[]","internalType":"bytes32[]"},{"name":"weight","type":"uint256","internalType":"uint256"},{"name":"signature","type":"bytes","internalType":"bytes"}],"outputs":[],"stateMutability":"nonpayable"},{"type":"function","name":"applyCrossMessages","inputs":[{"name":"crossMsgs","type":"tuple[]","internalType":"struct CrossMsg[]","components":[{"name":"message","type":"tuple","internalType":"struct StorableMsg","components":[{"name":"from","type":"tuple","internalType":"struct IPCAddress","components":[{"name":"subnetId","type":"tuple","internalType":"struct SubnetID","components":[{"name":"root","type":"uint64","internalType":"uint64"},{"name":"route","type":"address[]","internalType":"address[]"}]},{"name":"rawAddress","type":"tuple","internalType":"struct FvmAddress","components":[{"name":"addrType","type":"uint8","internalType":"uint8"},{"name":"payload","type":"bytes","internalType":"bytes"}]}]},{"name":"to","type":"tuple","internalType":"struct IPCAddress","components":[{"name":"subnetId","type":"tuple","internalType":"struct SubnetID","components":[{"name":"root","type":"uint64","internalType":"uint64"},{"name":"route","type":"address[]","internalType":"address[]"}]},{"name":"rawAddress","type":"tuple","internalType":"struct FvmAddress","components":[{"name":"addrType","type":"uint8","internalType":"uint8"},{"name":"payload","type":"bytes","internalType":"bytes"}]}]},{"name":"value","type":"uint256","internalType":"uint256"},{"name":"nonce","type":"uint64","internalType":"uint64"},{"name":"method","type":"bytes4","internalType":"bytes4"},{"name":"params","type":"bytes","internalType":"bytes"},{"name":"fee","type":"uint256","internalType":"uint256"}]},{"name":"wrapped","type":"bool","internalType":"bool"}]}],"outputs":[],"stateMutability":"nonpayable"},{"type":"function","name":"applyFinalityChanges","inputs":[],"outputs":[{"name":"","type":"uint64","internalType":"uint64"}],"stateMutability":"nonpayable"},{"type":"function","name":"commitCheckpoint","inputs":[{"name":"checkpoint","type":"tuple","internalType":"struct BottomUpCheckpoint","components":[{"name":"subnetID","type":"tuple","internalType":"struct SubnetID","components":[{"name":"root","type":"uint64","internalType":"uint64"},{"name":"route","type":"address[]","internalType":"address[]"}]},{"name":"blockHeight","type":"uint256","internalType":"uint256"},{"name":"blockHash","type":"bytes32","internalType":"bytes32"},{"name":"nextConfigurationNumber","type":"uint64","internalType":"uint64"}]}],"outputs":[],"stateMutability":"nonpayable"},{"type":"function","name":"commitParentFinality","inputs":[{"name":"finality","type":"tuple","internalType":"struct ParentFinality","components":[{"name":"height","type":"uint256","internalType":"uint256"},{"name":"blockHash","type":"bytes32","internalType":"bytes32"}]}],"outputs":[{"name":"hasCommittedBefore","type":"bool","internalType":"bool"},{"name":"previousFinality","type":"tuple","internalType":"struct ParentFinality","components":[{"name":"height","type":"uint256","internalType":"uint256"},{"name":"blockHash","type":"bytes32","internalType":"bytes32"}]}],"stateMutability":"nonpayable"},{"type":"function","name":"createBottomUpCheckpoint","inputs":[{"name":"checkpoint","type":"tuple","internalType":"struct BottomUpCheckpoint","components":[{"name":"subnetID","type":"tuple","internalType":"struct SubnetID","components":[{"name":"root","type":"uint64","internalType":"uint64"},{"name":"route","type":"address[]","internalType":"address[]"}]},{"name":"blockHeight","type":"uint256","internalType":"uint256"},{"name":"blockHash","type":"bytes32","internalType":"bytes32"},{"name":"nextConfigurationNumber","type":"uint64","internalType":"uint64"}]},{"name":"membershipRootHash","type":"bytes32","internalType":"bytes32"},{"name":"membershipWeight","type":"uint256","internalType":"uint256"}],"outputs":[],"stateMutability":"nonpayable"},{"type":"function","name":"createBottomUpMsgBatch","inputs":[{"name":"batch","type":"tuple","internalType":"struct BottomUpMsgBatch","components":[{"name":"subnetID","type":"tuple","internalType":"struct SubnetID","components":[{"name":"root","type":"uint64","internalType":"uint64"},{"name":"route","type":"address[]","internalType":"address[]"}]},{"name":"blockHeight","type":"uint256","internalType":"uint256"},{"name":"msgs","type":"tuple[]","internalType":"struct CrossMsg[]","components":[{"name":"message","type":"tuple","internalType":"struct StorableMsg","components":[{"name":"from","type":"tuple","internalType":"struct IPCAddress","components":[{"name":"subnetId","type":"tuple","internalType":"struct SubnetID","components":[{"name":"root","type":"uint64","internalType":"uint64"},{"name":"route","type":"address[]","internalType":"address[]"}]},{"name":"rawAddress","type":"tuple","internalType":"struct FvmAddress","components":[{"name":"addrType","type":"uint8","internalType":"uint8"},{"name":"payload","type":"bytes","internalType":"bytes"}]}]},{"name":"to","type":"tuple","internalType":"struct IPCAddress","components":[{"name":"subnetId","type":"tuple","internalType":"struct SubnetID","components":[{"name":"root","type":"uint64","internalType":"uint64"},{"name":"route","type":"address[]","internalType":"address[]"}]},{"name":"rawAddress","type":"tuple","internalType":"struct FvmAddress","components":[{"name":"addrType","type":"uint8","internalType":"uint8"},{"name":"payload","type":"bytes","internalType":"bytes"}]}]},{"name":"value","type":"uint256","internalType":"uint256"},{"name":"nonce","type":"uint64","internalType":"uint64"},{"name":"method","type":"bytes4","internalType":"bytes4"},{"name":"params","type":"bytes","internalType":"bytes"},{"name":"fee","type":"uint256","internalType":"uint256"}]},{"name":"wrapped","type":"bool","internalType":"bool"}]}]},{"name":"membershipRootHash","type":"bytes32","internalType":"bytes32"},{"name":"membershipWeight","type":"uint256","internalType":"uint256"}],"outputs":[],"stateMutability":"nonpayable"},{"type":"function","name":"execBottomUpMsgBatch","inputs":[{"name":"batch","type":"tuple","internalType":"struct BottomUpMsgBatch","components":[{"name":"subnetID","type":"tuple","internalType":"struct SubnetID","components":[{"name":"root","type":"uint64","internalType":"uint64"},{"name":"route","type":"address[]","internalType":"address[]"}]},{"name":"blockHeight","type":"uint256","internalType":"uint256"},{"name":"msgs","type":"tuple[]","internalType":"struct CrossMsg[]","components":[{"name":"message","type":"tuple","internalType":"struct StorableMsg","components":[{"name":"from","type":"tuple","internalType":"struct IPCAddress","components":[{"name":"subnetId","type":"tuple","internalType":"struct SubnetID","components":[{"name":"root","type":"uint64","internalType":"uint64"},{"name":"route","type":"address[]","internalType":"address[]"}]},{"name":"rawAddress","type":"tuple","internalType":"struct FvmAddress","components":[{"name":"addrType","type":"uint8","internalType":"uint8"},{"name":"payload","type":"bytes","internalType":"bytes"}]}]},{"name":"to","type":"tuple","internalType":"struct IPCAddress","components":[{"name":"subnetId","type":"tuple","internalType":"struct SubnetID","components":[{"name":"root","type":"uint64","internalType":"uint64"},{"name":"route","type":"address[]","internalType":"address[]"}]},{"name":"rawAddress","type":"tuple","internalType":"struct FvmAddress","components":[{"name":"addrType","type":"uint8","internalType":"uint8"},{"name":"payload","type":"bytes","internalType":"bytes"}]}]},{"name":"value","type":"uint256","internalType":"uint256"},{"name":"nonce","type":"uint64","internalType":"uint64"},{"name":"method","type":"bytes4","internalType":"bytes4"},{"name":"params","type":"bytes","internalType":"bytes"},{"name":"fee","type":"uint256","internalType":"uint256"}]},{"name":"wrapped","type":"bool","internalType":"bool"}]}]}],"outputs":[],"stateMutability":"nonpayable"},{"type":"function","name":"pruneBottomUpCheckpoints","inputs":[{"name":"newRetentionHeight","type":"uint256","internalType":"uint256"}],"outputs":[],"stateMutability":"nonpayable"},{"type":"function","name":"pruneBottomUpMsgBatches","inputs":[{"name":"newRetentionHeight","type":"uint256","internalType":"uint256"}],"outputs":[],"stateMutability":"nonpayable"},{"type":"function","name":"storeValidatorChanges","inputs":[{"name":"changeRequests","type":"tuple[]","internalType":"struct StakingChangeRequest[]","components":[{"name":"change","type":"tuple","internalType":"struct StakingChange","components":[{"name":"op","type":"uint8","internalType":"enum StakingOperation"},{"name":"payload","type":"bytes","internalType":"bytes"},{"name":"validator","type":"address","internalType":"address"}]},{"name":"configurationNumber","type":"uint64","internalType":"uint64"}]}],"outputs":[],"stateMutability":"nonpayable"},{"type":"error","name":"AddressEmptyCode","inputs":[{"name":"target","type":"address","internalType":"address"}]},{"type":"error","name":"AddressInsufficientBalance","inputs":[{"name":"account","type":"address","internalType":"address"}]},{"type":"error","name":"AddressShouldBeValidator","inputs":[]},{"type":"error","name":"BatchAlreadyExists","inputs":[]},{"type":"error","name":"BatchNotCreated","inputs":[]},{"type":"error","name":"BatchWithNoMessages","inputs":[]},{"type":"error","name":"CannotConfirmFutureChanges","inputs":[]},{"type":"error","name":"CheckpointAlreadyExists","inputs":[]},{"type":"error","name":"CheckpointNotCreated","inputs":[]},{"type":"error","name":"FailedAddIncompleteQuorum","inputs":[]},{"type":"error","name":"FailedAddSignatory","inputs":[]},{"type":"error","name":"FailedInnerCall","inputs":[]},{"type":"error","name":"FailedRemoveIncompleteQuorum","inputs":[]},{"type":"error","name":"InvalidActorAddress","inputs":[]},{"type":"error","name":"InvalidBatchEpoch","inputs":[]},{"type":"error","name":"InvalidBatchSource","inputs":[]},{"type":"error","name":"InvalidCheckpointEpoch","inputs":[]},{"type":"error","name":"InvalidCheckpointSource","inputs":[]},{"type":"error","name":"InvalidConfigurationNumber","inputs":[]},{"type":"error","name":"InvalidCrossMsgDstSubnet","inputs":[]},{"type":"error","name":"InvalidCrossMsgNonce","inputs":[]},{"type":"error","name":"InvalidRetentionHeight","inputs":[]},{"type":"error","name":"InvalidSignature","inputs":[]},{"type":"error","name":"InvalidSubnet","inputs":[]},{"type":"error","name":"MaxMsgsPerBatchExceeded","inputs":[]},{"type":"error","name":"NotAuthorized","inputs":[{"name":"","type":"address","internalType":"address"}]},{"type":"error","name":"NotEnoughBalance","inputs":[]},{"type":"error","name":"NotEnoughSubnetCircSupply","inputs":[]},{"type":"error","name":"NotRegisteredSubnet","inputs":[]},{"type":"error","name":"NotSystemActor","inputs":[]},{"type":"error","name":"OldConfigurationNumber","inputs":[]},{"type":"error","name":"PQDoesNotContainAddress","inputs":[]},{"type":"error","name":"PQEmpty","inputs":[]},{"type":"error","name":"ParentFinalityAlreadyCommitted","inputs":[]},{"type":"error","name":"QuorumAlreadyProcessed","inputs":[]},{"type":"error","name":"SignatureReplay","inputs":[]},{"type":"error","name":"SubnetNotActive","inputs":[]},{"type":"error","name":"SubnetNotFound","inputs":[]},{"type":"error","name":"ZeroMembershipWeight","inputs":[]}],"bytecode":{"object":"0x60808060405234610017576155d590816200001d8239f35b600080fdfe6080604052600436101561001257600080fd5b6000803560e01c80630bed7615146116bc5780630db0f77c146113c65780630df144611461139257806311196974146112d557806332e7661f14610e8e57806347dc9b4f14610b9657806353b4e7bf146107e9578063743037711461050d578063ac81837914610393578063bacc656d14610183578063c62eb4d5146100ec5763e49a547d146100a157600080fd5b346100e95760203660031901126100e9576004356001600160401b0381116100e5576100d46100e2913690600401611af4565b906100dd613c46565b6140d6565b80f35b5080fd5b80fd5b50346100e95760203660031901126100e9576001600160401b0360043581811161017f5761011e903690600401611af4565b610126613c46565b60405192602084019081118482101761016b5791610165916100e294936040528584526040519361015685611941565b86855260208501523691611e46565b906123fe565b634e487b7160e01b85526041600452602485fd5b8280fd5b50346100e9576020806003193601126100e557600435906101a2613c46565b6012545b8281106102db5750601254808311156102c9575b8281106101c957505060125580f35b808452601382526040842090848255846004600193828582015582600282015582600382015501556016835260408520805490868155816102a6575b50508085526040852060405180828682945493848152019089528689209289905b878982841061028d575050505061023f925003826119a8565b80519083875b8381106102565750505050016101ba565b84895260178752604089206001600160a01b036102738386612149565b51168a52875261028560408a2061308f565b018490610245565b9092945082919386548152019401920184929391610226565b865282848720918201915b8281106102be5750610205565b8781550183906102b1565b604051636819a3a960e01b8152600490fd5b808452600990818352604085209185835560036001936102fc858201612556565b876002820155019081549087835581610319575b505050016101a6565b600d92828402928484040361037f578852858820918201915b82811061033f5750610310565b8061034a85926130d8565b610356600482016130d8565b896008820155898382015561036d600a820161308f565b89600b82015589600c82015501610332565b634e487b7160e01b89526011600452602489fd5b50346100e9576020806003193601126100e557600435906103b2613c46565b600b545b8281106104d95750600b54808311156102c9575b8281106103d9575050600b5580f35b808452600c8252604084209084825584600460019382858201558260028201558260038201550155600f835260408520805490868155816104b6575b50508085526040852060405180828682945493848152019089528689209289905b878982841061049d575050505061044f925003826119a8565b80519083875b8381106104665750505050016103ca565b84895260108752604089206001600160a01b036104838386612149565b51168a52875261049560408a2061308f565b018490610455565b9092945082919386548152019401920184929391610436565b865282848720918201915b8281106104ce5750610415565b8781550183906104c1565b8084526008825260408420908482558460046001936104f9858201612556565b8260028201558260038201550155016103b6565b50346100e9576003196060368201126100e5576004356001600160401b038082116107e5576080826004019383360301126107e5576044359261054e613c46565b602483013593610560601e5486612f04565b6107d3578486526020936008855260026040882001546107c15760405191858301918683526105a36105928680612f24565b6080604087015260c0860190612f6c565b928860608601526044820135948560808201526105dd8160648501968a6105c989611b39565b1660a083015203601f1981018352826119a8565b5190209160ff601d541690600b548a106107af57801561079d576064916106039161252c565b049161060e89613e85565b1561078b57604051610680916106238261198d565b815260048a8a8d6040828601916024358352818701998a52600c60608801948286526080890196838852835252209451855551966001978886015551600285015551600384015551151591019060ff801983541691151516179055565b6040519460808601868110888211176107775760405235908682116107735760046106ae9236920101611b61565b84526106c68685019288845260408601948552611b39565b96606085019788528852600886526040882093519585875116966001600160401b03199788875416178655818387019101519182519288841161075f57819061070f858561257a565b01918b52808b20908b5b848110610745575050505050509060049291516002830155516003820155019251169082541617905580f35b83516001600160a01b031683820155928101928501610719565b634e487b7160e01b8c52604160045260248cfd5b8980fd5b634e487b7160e01b8b52604160045260248bfd5b604051630cbd1cd360e11b8152600490fd5b604051634e8ac6e560e01b8152600490fd5b604051630108e13760e21b8152600490fd5b60405163b8a1eae160e01b8152600490fd5b60405163fae4eadb60e01b8152600490fd5b8380fd5b50346100e9576107f836611a55565b909291600b5483106107af5782855260209160088352600260408720015415610b8457838652600c83526040862092610832828554613ce2565b506004811015610b7057610b5e57858852600f825260408089206001600160a01b0383166000818152600190920160205291902054610b4c57604080516001600160a01b03909316848401908152602081018a9052908390820103926108a0601f19948581018352826119a8565b5190206040518481019182528481526108b881611941565b519020600195868089015492918c915b610ae9575b505003610ad157868952600f83526108e88160408b20613ed2565b15610abf578689526010835260408920908952825260408820928051926001600160401b038411610aab579083929161092b84610925885461215d565b886125ae565b8092601f8511600114610a4b5750508992610a40575b5050600019600383901b1c191690831b1790555b61096460038301948554612086565b908185556002830154821015610978578580f35b600483018054909260ff82166109f9575060ff191617905561099982614019565b156109e7576109da7fc08568b61a3224ac0d48121f065552f2f645d3777d353bd87291108bc36514949360ff600a5416925490549060405194859485613cbd565b0390a15b38808080808580f35b6040516344a7b48760e11b8152600490fd5b9150507f103355808c87614c31e835c1a86487b17b1e54cf36e0ac4469c8d1e892239cbc9450610a38915060ff600a5416925460405194859485613cbd565b0390a16109de565b015190503880610941565b87959392919316868c52838c20938c905b828210610a925750508411610a79575b505050811b019055610955565b015160001960f88460031b161c19169055388080610a6c565b8484015186558997909501949384019390810190610a5c565b634e487b7160e01b8a52604160045260248afd5b604051633363140f60e01b8152600490fd5b60249060405190634a0bfec160e01b82526004820152fd5b90918151831015610b4657610afe8383612149565b519081811015610b38578d52865260408c205b916000198114610b2457880190886108c8565b634e487b7160e01b8d52601160045260248dfd5b908d52865260408c20610b11565b916108cd565b604051635a3fd0d960e11b8152600490fd5b604051638baa579f60e01b8152600490fd5b634e487b7160e01b89526021600452602489fd5b6040516358cdd2e760e01b8152600490fd5b50346100e9576003196020368201811361017f57600435916001600160401b0390818411610e8a5783600401916080828636030112610e8657610c1f91610be636610be18680611b24565b611b61565b918573__$a0fe38a9a81205afccc10810b09a4d3f45$__9360405180968192632cff562160e11b83528460048401526024830190611c18565b0381865af4938415610e7b578894610e40575b506001600160a01b03933390851603610e2e57610c4e33613954565b959015610e1d5791610c8e94610c6c88959394610be1369180611b24565b9360405196879563c836244d60e01b8752604060048801526044870190611c18565b928584030160248601526040830190600489015416835260606005890193604088820152845480935201928b52858b20918b905b828210610dff575050505082809103915af4908115610df4578591610dc7575b5015610db5576003015460801c60ff166006811015610da157600103610d8f578260ff602c5460181c16610d135780f35b80610d7f93604051602485820192632643057b60e11b84520135602482015282604482015282606482015260648152610d4b8161198d565b519082335af13d15610d86573d610d61816119e0565b90610d6f60405192836119a8565b81528481933d92013e5b33611d2a565b5038808280f35b60609150610d79565b60405163c18316bf60e01b8152600490fd5b634e487b7160e01b84526021600452602484fd5b6040516303b5db8360e11b8152600490fd5b610de79150833d8511610ded575b610ddf81836119a8565b810190611c73565b38610ce2565b503d610dd5565b6040513d87823e3d90fd5b8354811685528a978997509094019360019384019390910190610cc2565b6040516208ed5b60e31b8152600490fd5b604051637f39132760e11b8152600490fd5b9093508581813d8311610e74575b610e5881836119a8565b81010312610e7057610e6990611c04565b9238610c32565b8780fd5b503d610e4e565b6040513d8a823e3d90fd5b8580fd5b8480fd5b50346100e9576003196060368201126100e557600435906001600160401b03821161017f5760609082360301126100e557610ec7613c46565b610edc610ed73683600401611f9a565b6130fb565b610eec601f546024830135612f04565b158015906112c7575b6112b55760248101358252600960205260026040832001546112a357604051602080820152610f3b610f2a6004840180612f24565b6060604084015260a0830190612f6c565b6024830135606083015281610f566044850185600401612f38565b603f93919319838303016080840152808252602082019160208260051b820101928589925b848410611198575050505050610f9a925003601f1981018352826119a8565b6020815191012060ff601d54166012546024840135106107af57604435801561079d57606491610fc99161252c565b0491610fd86024820135613e1c565b1561078b5761105361105d9260405190610ff18261198d565b815260046020820160243581526040830196875260608301888152608084019189835260248701358a52601360205260408a209451855551976001988986015551600285015551600384015551151591019060ff801983541691151516179055565b3690600401611f9a565b6020810190815184526009602052604084209181516001600160401b038151166001600160401b03198554161784556020858501910151908151916001600160401b038311611184576020906110b784849a99989a61257a565b0190865260208620865b838110611168575050505051600285015581604060038596019201905b6110e6578380f35b8051805186101561116357856110fb91612149565b51948254600160401b81101561114f5784810180855581101561113b5790611133869786979386889552600d60208b209102016125f3565b0194936110de565b634e487b7160e01b86526032600452602486fd5b634e487b7160e01b86526041600452602486fd5b508380f35b82516001600160a01b03168183015560209092019186016110c1565b634e487b7160e01b88526041600452602488fd5b919395509193601f198282030184526111b18784612f24565b90813560de198336030181121561129f5782602092836112888160019781960194604085526112156111f86111e68880612f24565b60e0604089015261012088019061302e565b61120484890189612f24565b878203603f1901606089015261302e565b604087013560808701526001600160401b0361123360608901611b39565b1660a08701526112796001600160e01b031961125160808a01611e24565b169160c0928389015261126760a08a018a612fdc565b898303603f190160e08b01529061300d565b96013561010086015201611e39565b151591015298019401940191879593969491610f7b565b8b80fd5b60405163d15f973b60e01b8152600490fd5b60405163200c52f760e21b8152600490fd5b506024810135431115610ef5565b50346100e95760403660031901126100e9576040516112f381611941565b81815281602080920152611305613c46565b818160405161131381611941565b828152015260025491600435918284116113805760609382526001815260408220926040600181519561134587611941565b805487520154938386019485528281526001845220818155600160243591015560025582511515926040519384525190830152516040820152f35b60405163153ad84160e11b8152600490fd5b50346100e957806003193601126100e9576113ab613c46565b60206113b561223d565b6001600160401b0360405191168152f35b50346100e9576113d536611a55565b90929160125483106107af57828552602091600983526002604087200154156116aa5783865260138352604086209261140f828554613ce2565b506004811015610b7057610b5e578588526016825260408089206001600160a01b0383166000818152600190920160205291902054610b4c57604080516001600160a01b03909316848401908152602081018a90529083908201039261147d601f19948581018352826119a8565b51902060405184810191825284815261149581611941565b519020600195868089015492918c915b61165b575b505003610ad157868952601683526114c58160408b20613ed2565b15610abf578689526017835260408920908952825260408820928051926001600160401b038411610aab579083929161150284610925885461215d565b8092601f85116001146115fb57505089926115f0575b5050600019600383901b1c191690831b1790555b61153b60038301948554612086565b90818555600283015482101561154f578580f35b600483018054909260ff82166115b1575060ff191617905561157082613f2f565b156109e7576109da7fc08568b61a3224ac0d48121f065552f2f645d3777d353bd87291108bc36514949360ff60115416925490549060405194859485613cbd565b9150507f103355808c87614c31e835c1a86487b17b1e54cf36e0ac4469c8d1e892239cbc9450610a38915060ff60115416925460405194859485613cbd565b015190503880611518565b87959392919316868c52838c20938c905b8282106116425750508411611629575b505050811b01905561152c565b015160001960f88460031b161c1916905538808061161c565b848401518655899790950194938401939081019061160c565b909181518310156116a4576116708383612149565b519081811015611696578d52865260408c205b916000198114610b2457880190886114a5565b908d52865260408c20611683565b916114aa565b60405163a88f96f160e01b8152600490fd5b50346100e9576003196020368201811361017f57600435916001600160401b0383116107e5576060836004019184360301126107e5576117258261170436610be18580611b24565b60405180938192632cff562160e11b83528460048401526024830190611c18565b038173__$a0fe38a9a81205afccc10810b09a4d3f45$__5af4908115610df457859161190c575b50336001600160a01b03909116036118f75761176b610ed73683611f9a565b61177433613954565b919015610e1d5760ff600383015460801c169160068310156118e3576001809303610d8f57856044879601936117aa858561200f565b899291505b808310611894575050506117c39086612086565b9060028101918254908082106118825761180695600495610165956117ee6117f5946117fe966120a9565b905561200f565b949092016120b6565b923691611e46565b60ff602c54821c16611816578280f35b60405181810190632643057b60e11b8252436024820152836044820152846064820152606481526118468161198d565b83471061186a57610d7f93859283925191335af13d15610d86573d610d61816119e0565b60405163cd78605960e01b8152306004820152602490fd5b604051631d36ca1560e21b8152600490fd5b906118da6118c6849a9560406118be6118b886986118b28e8e61200f565b90612044565b80612071565b013590612086565b9460c06118be6118b88d6118b28d8d61200f565b980191906117af565b634e487b7160e01b86526021600452602486fd5b60405160016201ad9360e61b03198152600490fd5b90508281813d831161193a575b61192381836119a8565b81010312610e8a5761193490611c04565b3861174c565b503d611919565b604081019081106001600160401b0382111761195c57604052565b634e487b7160e01b600052604160045260246000fd5b606081019081106001600160401b0382111761195c57604052565b60a081019081106001600160401b0382111761195c57604052565b90601f801991011681019081106001600160401b0382111761195c57604052565b6001600160401b03811161195c5760051b60200190565b6001600160401b03811161195c57601f01601f191660200190565b929192611a07826119e0565b91611a1560405193846119a8565b829481845281830111611a32578281602093846000960137010152565b600080fd5b9080601f83011215611a3257816020611a52933591016119fb565b90565b906080600319830112611a3257600435916001600160401b0391602435838111611a325782602382011215611a32578060040135611a92816119c9565b91611aa060405193846119a8565b81835260209160248385019160051b83010191868311611a3257602401905b828210611ae557505050509260443592606435918211611a3257611a5291600401611a37565b81358152908301908301611abf565b9181601f84011215611a32578235916001600160401b038311611a32576020808501948460051b010111611a3257565b903590603e1981360301821215611a32570190565b35906001600160401b0382168203611a3257565b35906001600160a01b0382168203611a3257565b9190604083820312611a325760405192611b7a84611941565b83611b8482611b39565b815260209182810135906001600160401b038211611a3257019280601f85011215611a32578335611bb4816119c9565b94611bc260405196876119a8565b818652848087019260051b820101928311611a325784809101915b838310611bec57505050500152565b8190611bf784611b4d565b8152019101908490611bdd565b51906001600160a01b0382168203611a3257565b60609060408301906001600160401b03815116845260209283809201519460408382015285518094520193019160005b828110611c56575050505090565b83516001600160a01b031685529381019392810192600101611c48565b90816020910312611a3257518015158103611a325790565b60408101906001600160401b036019541681526060602091604083820152601a548094520191601a6000527f057c384a7d1c54f3a1b2e5e67b2617b8224fdfd1ea7234eea573a6ff665ff63e916000905b828210611cea575050505090565b83546001600160a01b031685529384019360019384019390910190611cdc565b60021115611d1457565b634e487b7160e01b600052602160045260246000fd5b9015611d6857815115611d3b575090565b803b15611d46575090565b604051639996b31560e01b81526001600160a01b039091166004820152602490fd5b50805115611d7857805190602001fd5b604051630a12f52160e11b8152600490fd5b359060ff82168203611a3257565b9190604083820312611a325760405192611db184611941565b838135916001600160401b0392838111611a325784611dd1918301611b61565b8252602081013590838211611a325701604081850312611a325760405193611df885611941565b611e0182611d8a565b85526020820135938411611a3257602093611e1c9201611a37565b828401520152565b35906001600160e01b031982168203611a3257565b35908115158203611a3257565b929192611e52826119c9565b91604090611e62825194856119a8565b839581855260208095019160051b840193818511611a325780925b858410611e8d5750505050505050565b6001600160401b03908435828111611a32578301908682860312611a32578651611eb681611941565b8235848111611a325783019260e0948585890312611a3257895195860186811082821117611f85578a528435818111611a325788611ef5918701611d98565b86528b850135818111611a325788611f0e918701611d98565b8c870152898501358a8701526060611f27818701611b39565b908701526080611f38818701611e24565b9087015260a09182860135918211611a32578c9686611f7694611f608c8b9a968b9701611a37565b9083015260c08091013590820152845201611e39565b83820152815201930192611e7d565b60246000634e487b7160e01b81526041600452fd5b9190606083820312611a325760405190611fb382611972565b81938035906001600160401b0391828111611a325783611fd4918301611b61565b8452602081013560208501526040810135918211611a32570181601f82011215611a325760409181602061200a93359101611e46565b910152565b903590601e1981360301821215611a3257018035906001600160401b038211611a3257602001918160051b36038313611a3257565b9082101561205b57611a529160051b810190611b24565b634e487b7160e01b600052603260045260246000fd5b90359060de1981360301821215611a32570190565b9190820180921161209357565b634e487b7160e01b600052601160045260246000fd5b9190820391821161209357565b906040516120c381611941565b80926001600160401b03815416825260018091019160405191828481955492838652602080960191600052856000209060005b87868210612112575050505061210e925003846119a8565b0152565b83546001600160a01b03168552899550909301929181019181016120f6565b9060016001600160401b038093160191821161209357565b805182101561205b5760209160051b010190565b90600182811c9216801561218d575b602083101461217757565b634e487b7160e01b600052602260045260246000fd5b91607f169161216c565b90604051918260008254926121ab8461215d565b90818452600194858116908160001461221a57506001146121d7575b50506121d5925003836119a8565b565b9093915060005260209081600020936000915b8183106122025750506121d5935082010138806121c7565b855488840185015294850194879450918301916121ea565b9150506121d594506020925060ff191682840152151560051b82010138806121c7565b602a546001600160401b03919082811660001901908382116120935761226282612131565b8480604093841c169116146123f65761227a8261430d565b61ffff80602454169461228c866119c9565b92612299815194856119a8565b868452601f1993846122aa896119c9565b019360209436868401376001809981805b6123af575b505050508051906122d0826119c9565b956122dd845197886119a8565b8287526122e9836119c9565b018560005b8281106123865750505060005b82811061232457505050611a5294959650519261231784611941565b835284169082015261346d565b89906001600160a01b036123388285612149565b5116806000526023885261236660028760002080549389519461235a86611972565b85528b85015201612197565b86820152612374828a612149565b5261237f8189612149565b50016122fb565b855161239181611972565b6000815260008382015260608782015282828b0101520186906122ee565b8381168281116123f05760009081526026895286902054849184916001600160a01b03166123e7846123e0846140c2565b1689612149565b520116826122bb565b506122c0565b506000925050565b81519160005b8381106124115750505050565b8061242861242160019385612149565b51856129e9565b01612404565b60005b8381106124415750506000910152565b8181015183820152602001612431565b9060209161246a8151809281855285808601910161242e565b601f01601f1916010190565b60406020611a529381612490855185845285840190611c18565b940151908281860391015260ff81511684520151918160208201520190612451565b9060c0806125236124e16124cf865160e0875260e0870190612476565b60208701518682036020880152612476565b604086015160408601526001600160401b03606087015116606086015263ffffffff60e01b608087015116608086015260a086015185820360a0870152612451565b93015191015290565b8181029291811591840414171561209357565b81811061254a575050565b6000815560010161253f565b80546000825580612565575050565b6121d59160005260206000209081019061253f565b90600160401b811161195c5781549080835581811061259857505050565b6121d5926000526020600020918201910161253f565b9190601f81116125bd57505050565b6121d5926000526020600020906020601f840160051c830193106125e9575b601f0160051c019061253f565b90915081906125dc565b908051908151918251926001600160401b03808551166001600160401b0319908188541617875560018088019360208098015180519085821161195c57899061263c838961257a565b01600096875289872084885b8481106129ce5750505050508760028a019101519260ff8451169160ff19928382541617905560039389858c0191015180519087821161294457819061269882612692865461215d565b866125ae565b8c90601f8311600114612963578a92612958575b505060001982881b1c191690851b1790555b60048a0190898801519182519187835116908254161790558960058c0191015190815191878311612944578b906126f5848461257a565b019088528a882085895b8481106129295750505050508860068b019101519160ff835116908254161790558760078a0191015180519085821161291557819061274282612692865461215d565b8a90601f83116001146128b65788926128ab575b505060001982861b1c191690831b1790555b6040850151600889015560098801836060870151168154906bffffffff0000000000000000608089015160a01c16916001600160601b03191617179055600a88019360a08601518051948511612897576127c685610925885461215d565b8891601f8611600114612826579385600c999794819460c098946121d59e9d9b989561281b575b50501b92600019911b1c19161790555b0151600b8501550151151591019060ff801983541691151516179055565b0151935038806127ed565b9294939190601f1985168785528a8520945b8181106128825750928592600c9a9895926121d59d9c9a9760c0999610612868575b50505050811b0190556127fd565b01519060f884600019921b161c191690553880808061285a565b82840151865594870194928b01928b01612838565b634e487b7160e01b82526041600452602482fd5b015190503880612756565b8489528b89208694509190601f1984168a8e5b8282106128fe57505084116128e6575b505050811b019055612768565b015160001983881b60f8161c191690553880806128d9565b83850151865589979095019493840193018e6128c9565b634e487b7160e01b87526041600452602487fd5b83516001600160a01b031683820155928d01928791016126ff565b634e487b7160e01b89526041600452602489fd5b0151905038806126ac565b879350908d91601f198416868d52838d20938d905b8282106129ad5750508411612995575b505050811b0190556126be565b0151600019838a1b60f8161c19169055388080612988565b91929395968291958786015181550195019301908f918a9695949392612978565b83516001600160a01b031683820155928c0192869101612648565b90602080825101515173__$a0fe38a9a81205afccc10810b09a4d3f45$__90604094855190630c133d1360e31b91828152858180612a3260049784898401526024830190611c18565b0381885af4908115612ef957600091612edc575b50612ecc57855160808101516001600160e01b031995918991871615612ead575b5050865192612a8b89519463f47ad7eb60e01b86528a8787015260448601906124b2565b878580612aa46003199485838203016024840152611c8b565b038173__$386b5c41ce93e8b832daf8008b3d30ae09$__5af4948515612e6557908891600096612e70575b508951820151518b5163c836244d60e01b81528881018d9052929183918291612b0f91612b00906044850190611c18565b90838203016024840152611c8b565b0381865af4908115612e6557600091612e48575b50612bef57505050505083916003916121d59551612be0818481019385855260c0612bbe8a51928a80860152612b66845160e0608088015261016087019061313f565b612b818a86015191607f1992838983030160a08a015261313f565b918c860151858801526001600160401b0360608701511660e088015260808601511661010087015260a08501519086830301610120870152612451565b910151610140830152858901511515606083015203601f1981018352826119a8565b519020600052526000206125f3565b86949550612bfc84611d0a565b60018414612d55575b505050612c1181611d0a565b15612ced575b60009185519485928392635c46fefb60e11b845283015284612c44825189602486015260648501906124b2565b91015115156044830152038173__$33b79814e84bf6cf5e47244090b19ce5f8$__5af48015612ce257612c7657505050565b3d806000843e612c8681846119a8565b8201918181840312611a32578051906001600160401b038211611a3257019082601f83011215611a3257815192612cc8612cbf856119e0565b955195866119a8565b838552818484010111611a3257806121d59401910161242e565b83513d6000823e3d90fd5b50601d546001600160401b03808260481c1690606086510151168103612d455791839167ffffffffffffffff60481b612d27600095612131565b60481b169067ffffffffffffffff60481b191617601d559150612c17565b855163a57cadff60e01b81528390fd5b88949192939451928391825282878301528180612d756024820188611c18565b03915af4908115612e3d579085939291600091612e20575b5015612d9b575b8080612c05565b612da6919250613b44565b9015612e105760030180546001600160401b038082891c1690606088510151168103612e00579067ffffffffffffffff60401b612de587959493612131565b891b169067ffffffffffffffff60401b191617905538612d94565b875163a57cadff60e01b81528590fd5b8551630e991abd60e41b81528390fd5b612e379150843d8611610ded57610ddf81836119a8565b38612d8d565b87513d6000823e3d90fd5b612e5f9150883d8a11610ded57610ddf81836119a8565b38612b23565b8a513d6000823e3d90fd5b90959181813d8311612ea6575b612e8781836119a8565b810103126100e557519060028210156100e95750938790612b00612acf565b503d612e7d565b01514710612ebc578738612a67565b875163569d45cf60e11b81528490fd5b865163c5f563eb60e01b81528390fd5b612ef39150863d8811610ded57610ddf81836119a8565b38612a46565b88513d6000823e3d90fd5b8115612f0e570690565b634e487b7160e01b600052601260045260246000fd5b9035603e1982360301811215611a32570190565b9035601e1982360301811215611a325701602081359101916001600160401b038211611a32578160051b36038313611a3257565b60408201916001600160401b03612f8283611b39565b1681526060612f9660209384810190612f38565b839195604086839601525201929160005b828110612fb5575050505090565b909192938280600192838060a01b03612fcd89611b4d565b16815201950193929101612fa7565b9035601e1982360301811215611a325701602081359101916001600160401b038211611a32578136038313611a3257565b908060209392818452848401376000828201840152601f01601f1916010190565b604061307f611a529361305e6130536130478680612f24565b85845285840190612f6c565b946020810190612f24565b90602081860391015260ff61307282611d8a565b1684526020810190612fdc565b919092816020820152019161300d565b613099815461215d565b90816130a3575050565b81601f600093116001146130b5575055565b9080839182526130d4601f60208420940160051c84016001850161253f565b5555565b60036121d591600081556130ee60018201612556565b600060028201550161308f565b6040018051516001600160401b03602054161061312d5751511561311b57565b6040516338d2307f60e01b8152600490fd5b60405163351c700760e01b8152600490fd5b91908251906040815260808101936001600160401b038351166040830152602080930151946040606084015285518091528360a0840196019060005b8181106131af5750505093604083819381611a5297980151908281860391015260ff81511684520151938201520190612451565b82516001600160a01b03168852968501969185019160010161317b565b908082519081815260208091019281808460051b8301019501936000915b8483106131fa5750505050505090565b909192939495848061323b600193601f198682030187528a5180518252858060a01b0384820151168483015260408091015191606080928201520190612451565b98019301930191949392906131ea565b9080821461331f5761325d815461215d565b906001600160401b03821161195c57819061327c82612692865461215d565b600090601f83116001146132b3576000926132a8575b50508160011b916000199060031b1c1916179055565b015490503880613292565b81526020808220858352818320935090601f1985169083905b8282106133065750509084600195949392106132ed575b505050811b019055565b015460001960f88460031b161c191690553880806132e3565b84958192958501548155600180910196019401906132cc565b5050565b60045481101561205b576003906004600052027f8a35acfbc15ff81a39ae7d344fd709f28e8600b4aa8c65c6b64bfe7fe36bd19b0190600090565b906134575781518155600190604060028383019260209360018060a01b0385880151166001600160601b0360a01b82541617905501930151908151916001600160401b03831161195c576133bc836133b6875461215d565b876125ae565b81601f84116001146133f557509282939183926000946133ea575b50501b916000199060031b1c1916179055565b0151925038806133d7565b919083601f1981168760005284600020946000905b8883831061343d575050501061342457505050811b019055565b015160001960f88460031b161c191690553880806132e3565b85870151885590960195948501948793509081019061340a565b634e487b7160e01b600052600060045260246000fd5b604080519160209182845261348c8251828587015260608601906131cc565b927f7ecdac482334c36fccbe374318cfe74ea0c8181394890ddec894a10f0fcc748181840195806001600160401b039687895116868301520390a183600554169081613778575b505050600490815493600160401b9384861161376357600654866006558087106136c4575b5060066000908152957ff652222313e28459528d920b65115c16c04f3efc82aaedc97be59f3f377c0d3f877f8a35acfbc15ff81a39ae7d344fd709f28e8600b4aa8c65c6b64bfe7fe36bd19b5b83821061366f57505050508060055416916001600160401b03199283600754161760075583515193855496885b8681106135fd575050505116906005541617600555808311613595575b50505050565b8281101561358f57815480156135ea5760001901906135b382613323565b9290926135d8578583556135d0600260019488868201550161308f565b835501613595565b634e487b7160e01b8652858452602486fd5b634e487b7160e01b855260318352602485fd5b8881101561362c57806136266136166001938651612149565b5161362083613323565b9061335e565b01613572565b613637818451612149565b5188548381101561365c5760019291613620828561365794018d55613323565b613626565b634e487b7160e01b8c5260418a5260248cfd5b80600191840361368a575b6003809101930191019091613545565b805484558180850190838060a01b0390830154166001600160601b0360a01b8254161790556136bf600280830190860161324b565b61367a565b600390808202908282040361374e57878202828104890361373957600090600682527ff652222313e28459528d920b65115c16c04f3efc82aaedc97be59f3f377c0d3f92830192015b82811061371c575050506134f8565b80828592558260018201556137336002820161308f565b0161370d565b601187634e487b7160e01b6000525260246000fd5b601186634e487b7160e01b6000525260246000fd5b604184634e487b7160e01b6000525260246000fd5b8486511685600754169081811461386557106138545782519261379a84611941565b6004546137a6816119c9565b916137b3815193846119a8565b8183528383019060046000527f8a35acfbc15ff81a39ae7d344fd709f28e8600b4aa8c65c6b64bfe7fe36bd19b906000925b848410613812575050509185525050820152613801908261386f565b61380d573880806134d3565b505050565b600387600192845161382381611972565b86548152848060a01b0385880154168382015261384260028801612197565b868201528152019301930192916137e5565b8251633746be2560e11b8152600490fd5b5050505050505050565b6001600160401b0390602091808383015116908385015116036139105761389581613918565b61389e84613918565b036139105751805183515103613910576139096138fd9160405190816138ce8682019287845260408301906131cc565b03916138e2601f19938481018352826119a8565b519020945160405193849186830196875260408301906131cc565b039081018352826119a8565b5190201490565b505050600090565b8051519060009182915b81831061392f5750505090565b90919261394b600191613943868551612149565b515190612086565b93019190613922565b6001600160a01b0390811691908215613b325760409283519361397685611941565b6001600160401b0391826019541686528151958690601a54908189526020809901926000978893601a85527f057c384a7d1c54f3a1b2e5e67b2617b8224fdfd1ea7234eea573a6ff665ff63e9185905b8d838310613b155750505050506139e381613a09949503826119a8565b818a0152845163aa5106cb60e01b81526004810186905293849283926044840190611c18565b906024830152038173__$a0fe38a9a81205afccc10810b09a4d3f45$__5af4938415613b0a578094613a49575b50505050613a45919250613b44565b9091565b90919293503d8082843e613a5d81846119a8565b82019186818403126100e55780519085821161017f57019383858403126100e557835194613a8a86611941565b805182811681036107e55786528781015191821161017f570182601f820112156100e557805191613abd612cbf846119c9565b828552878086019360051b8301019384116100e957508601905b828210613af357505050613a4592938201528291388080613a36565b868091613aff84611c04565b815201910190613ad7565b8251903d90823e3d90fd5b845482168952909701968b965060019384019391909101906139c6565b6040516370e4510960e01b8152600490fd5b613b8273__$a0fe38a9a81205afccc10810b09a4d3f45$__91604051906390ba52cf60e01b8252818060209485938460048401526024830190611c18565b0381865af4908115613c0d57600091613c19575b5060005260008152613bd781604060002093613bb4600486016120b6565b906040518080958194630c133d1360e31b83528660048401526024830190611c18565b03915af4918215613c0d57600092613bf0575b50501591565b613c069250803d10610ded57610ddf81836119a8565b3880613bea565b6040513d6000823e3d90fd5b908282813d8311613c3f575b613c2f81836119a8565b810103126100e957505138613b96565b503d613c25565b604051635d3f8a6960e01b815233600482015260208160248173__$e800e3908cdbb6b1b5bd452383a17b18f7$__5af4908115613c0d57600091613c9f575b5015613c8d57565b60405163f0d97f3b60e01b8152600490fd5b613cb7915060203d8111610ded57610ddf81836119a8565b38613c85565b909493926060926080830196613cd281611d0a565b8352602083015260408201520152565b8151919060418303613d1357613d0c92506020820151906060604084015193015160001a90613d1e565b9192909190565b505060009160029190565b91907f7fffffffffffffffffffffffffffffff5d576e7357a4501ddfe92f46681b20a08411613da257926020929160ff608095604051948552168484015260408301526060820152600092839182805260015afa15613d965780516001600160a01b03811615613d8d57918190565b50809160019190565b604051903d90823e3d90fd5b50505060009160039190565b60145481101561205b5760146000527fce6d7b5282bd9a3661ae061feed1dbda4e52ab073b1f9285be6e155d9c38d4ec0190600090565b600d5481101561205b57600d6000527fd7b6990105719101dabeb77144f2a3385c8033acd3af97e9423a695e81ad1eb50190600090565b600081815260156020526040812054613e8057601454600160401b811015612897579082613e6c613e5584600160409601601455613dae565b819391549060031b91821b91600019901b19161790565b905560145492815260156020522055600190565b905090565b6000818152600e6020526040812054613e8057600d54600160401b811015612897579082613ebe613e5584600160409601600d55613de5565b9055600d54928152600e6020522055600190565b6000828152600182016020526040902054613f2857805490600160401b82101561195c576001820180825582101561205b5782600192826000526020600020015580549260005201602052604060002055600190565b5050600090565b600081815260156020526040812054909190801561401457600019908082018181116140005760145490838201918211613fec57808203613fb8575b5050506014548015613fa457810190613f8382613dae565b909182549160031b1b19169055601455815260156020526040812055600190565b634e487b7160e01b84526031600452602484fd5b613fd6613fc7613e5593613dae565b90549060031b1c928392613dae565b9055845260156020526040842055388080613f6b565b634e487b7160e01b86526011600452602486fd5b634e487b7160e01b85526011600452602485fd5b505090565b6000818152600e60205260408120549091908015614014576000199080820181811161400057600d5490838201918211613fec5780820361408e575b505050600d548015613fa45781019061406d82613de5565b909182549160031b1b19169055600d558152600e6020526040812055600190565b6140ac61409d613e5593613de5565b90549060031b1c928392613de5565b90558452600e6020526040842055388080614055565b61ffff908116600019019190821161209357565b919080156142f35760005b8181106140ee5750509050565b6140f9818386612044565b90604061410683806142f8565b01356001600160a01b0381811691829003611a325761412584806142f8565b35936003851015611a325761413a81806142f8565b906020918281013590601e1981360301821215611a3257019384356001600160401b0395868211611a325784018136038113611a325761417b9136916119fb565b9385602a5416946040519861418f8a611972565b89528489019081526040890192835285600052602b8552604060002098516003811015611d145760ff80198b541691161789555197885198878a1161195c576001998a8301916141e9826141e3855461215d565b856125ae565b8790601f831160011461427e5760029493929160009183614273575b5050600019600383901b1c1916908c1b1790555b019151166001600160601b0360a01b8254161790558361423884612131565b166001600160401b0319602a541617602a550135918216809203611a32570361426157016140e1565b604051631aba532960e21b8152600490fd5b015190503880614205565b9392918c918360005289600020906000601f198416905b8c8282106142d05750509683600298106142b7575b505050811b019055614219565b015160001960f88460031b161c191690553880806142aa565b919295899487849397999a9b015181550195019301908f94929796959391614295565b509050565b903590605e1981360301821215611a32570190565b602a546001600160401b0392838316929190848216841061433a5760405163040aaa0560e11b8152600490fd5b848260401c1684106144fb579392919083604091821c16945b8486168481116144c457600096818852602b97602098808a528582209960029460018060a01b03868d01541660ff8d541660038110156118e3578088036143da575060018c9d6143b492879e9a9b9c9d9e526023855201878b87200161324b565b835252858120928184556001936143cc85820161308f565b015501169493929190614353565b906143e860019e8f01612197565b84818051810103126144c057908e8e9f8c9d9e9f9b9c938701519414600014614482579061445b92918189528a6023918289528a61442988878320546120a9565b9586948683528b528120918201805485159081614479575b501561446f576144569450818355550161308f565b61486f565b61446860229182546120a9565b90556143b4565b505090505561486f565b90501538614441565b506144bb9281885261449c816023948589528a2054612086565b928289528652828d8920556144b46022918254612086565b9055614502565b6143b4565b8680fd5b509450925067ffffffffffffffff60401b91506144e090612131565b602a54921b169067ffffffffffffffff60401b191617602a55565b9350505050565b919060018060a01b03928381169360008581526020956025875261ffff9160409783898320541661475357836021541684602454161061471f5786614545614e9a565b919091106146995750828252602881528389832054166145b85750505050506145b37f19fe3ca603e87854a0747cc10abf06bac64d61bac73d6d15f2fd3ca448f15264939461459383614bab565b516001600160a01b03909216825260208201929092529081906040820190565b0390a1565b6145c7869599949897966153b1565b92825260239081815284832054935b6001808b831611156146635781617fff911c1690818552602983528b8786205416855283835285878620541015614616576146119082615510565b6145d6565b505093516001600160a01b0390951685525050505060208101919091529092507fda148fac2e1063174be7bc0895576bdaba90fd14e575463fa26a967cb895cadd915080604081016145b3565b5050505050506145b391929395507fda148fac2e1063174be7bc0895576bdaba90fd14e575463fa26a967cb895cadd9450614593565b9596506145b39450906028899493927ffaeb8de771b867cf357f6b459a7002b62ec45d544a8078a3ecd91200cc826d75999a936146d4615069565b835252205416614711575b6146e884614ff7565b6146f183614bab565b516001600160a01b03928316815292909116602083015281906040820190565b61471a84614d84565b6146df565b50505050506145b37f2e8038f5812f763c6ef0c5427cb5a05ce6d7064af2ba7d1d270bc02660b019fd939461459383614ff7565b61476486959897969994939961537a565b988252602390818152848320549861477b8b614f86565b8560245416905b868116828111614837578281101561481a5750806147a26147a892614b98565b90615328565b9c909c5b8c11156147cb576147bd908d615477565b6147c68c614f86565b614782565b505094516001600160a01b0390961686525050505060208201929092529193507f143db27bc2036653dc6f962ff9d0b803163d4af50c256ca9e6927b3d6dcd01979250819050604081016145b3565b869d919d52602684528288872054168652848452878620546147ac565b50505050505050506145b391929395507f143db27bc2036653dc6f962ff9d0b803163d4af50c256ca9e6927b3d6dcd01979450614593565b9160018060a01b0392838116926000918483526020946028865261ffff90604094828682205416614a59578181526025885282868220541615614a485784156149c3576148bb8461537a565b918152602380895286822054925b60018086831611156149b25781617fff911c169081845260268b528b89852054168452828b5284898520541115614909576149049082615477565b6148c9565b5050505050919395509193505b602754161561380d57614927614e9a565b90614930614ee4565b90921061497957505091516001600160a01b03909216825260208201527f143db27bc2036653dc6f962ff9d0b803163d4af50c256ca9e6927b3d6dcd01979080604081016145b3565b915091506145b37ffaeb8de771b867cf357f6b459a7002b62ec45d544a8078a3ecd91200cc826d75936149aa615069565b6146df614c1d565b505050505091939550919350614916565b50916149f6919597507f4a4c5d1a281180eea1e99d8177fa4798b9f7e019d5c57e7d8d73c6a22199aa5b949693506151b2565b8451908152a160275416614a075750565b6145b37f2e8038f5812f763c6ef0c5427cb5a05ce6d7064af2ba7d1d270bc02660b019fd91614a34614ee4565b929091614a3f614c1d565b61459383614ff7565b8551632a55ca5360e01b8152600490fd5b90939596869893959815614b5f579261fffe929493614a77876153b1565b9483526023918282528a8420549580976001968792831b168160275416925b614aeb575b50509a516001600160a01b039098168852505050506020840194909452509293507fda148fac2e1063174be7bc0895576bdaba90fd14e575463fa26a967cb895cadd9250905080604081016145b3565b818116838111614b59578e9080851115614b3d57505080614b0e614b1492614b98565b90614f9d565b9990995b891015614b3857614b29908a615510565b614b3289614f86565b87614a96565b614a9b565b885260298652872054841687528585528d872054909990614b18565b50614a9b565b95505050509093614b917f3168ba660eed6ef1dc2258b2247cc05fd0f2f350d39e6ad2e2ebc76a8000b40b9495614d84565b51908152a1565b90600161ffff8093160191821161209357565b6121d590604061ffff614bc18160275416614b98565b9260018060a01b031660009181835260286020528383209085169061ffff199082828254161790558184526029602052848420836001600160601b0360a01b825416179055602754161760275581526023602052205490614f2e565b61ffff80602754168015614d72576001614c398282111561545a565b6000818152602960208181526040808420805487865282862080546001600160a01b0392831680895260288752858920805461ffff199081168d17909155918416808a52868a20805484168c17905588885283546001600160a01b031990811690921790935589895284541690911790925593969194939291614ccf9189614cc0836140c2565b169060275416176027556153d6565b8483528581528184842054168352602391828252848420549686809960028160275416925b614d07575b505050505050505050505050565b818116838111614d6c5783811015614d50575080614b0e614d2792614b98565b9b909b5b8b1015614d4b57614d3c908c615510565b614d458b614f86565b89614cf4565b614cf9565b889c919c52838652848989205416885286865288882054614d2b565b50614cf9565b6040516340d9b01160e01b8152600490fd5b614d8d906153b1565b61ffff806027541690614da08284615510565b80614daa836140c2565b1661ffff196027541617602755614dc0826153d6565b80831680921461380d57919061fffe906000818152602991602083815260018060a01b036040948186862054168552602393848452614e02878720548a614f2e565b85528083528186862054168552838352858520549780996001988992831b168160275416925b614e3a57505050505050505050505050565b818116838111614d6c5783811015614e7e575080614b0e614e5a92614b98565b9b909b5b8b1015614d4b57614e6f908c615510565b614e788b614f86565b89614e28565b889c919c52838652848989205416885286865288882054614e5e565b61ffff6024541615614d72577f5db1dfd2ced311e642486f0e890a646498a1bdee1ad9403b0a73141af8a4c411546001600160a01b03166000818152602360205260409020549091565b61ffff6027541615614d72577f6e777cacfc4ad3a3cac3b8e17ccbbe9f6893bdc61d89783315eee44e3959da21546001600160a01b03166000818152602360205260409020549091565b9190915b60018061ffff83161115614f805781617fff911c169083600083815260209060298252602360409260018060a01b03848420541683525220541015614f8057614f7b9082615510565b614f32565b50509050565b60011b906201fffe61fffe83169216820361209357565b91909161ffff92604060008584168152602960205260018060a01b03808383205416825260236020528282205496841682526029602052828220541681526023602052205490818510614ff05750509190565b9350919050565b6121d590604061ffff61500d8160245416614b98565b9260018060a01b031660009181835260256020528383209085169061ffff199082828254161790558184526026602052848420836001600160601b0360a01b8254161790556024541617602455815260236020522054906152d6565b61ffff80602454168015614d725760016150858282111561545a565b6000818152602660208181526040808420805487865282862080546001600160a01b0392831680895260258752858920805461ffff199081168d17909155918416808a52868a20805484168c17905588885283546001600160a01b03199081169092179093558989528454169091179092559396919493929161511b918961510c836140c2565b16906024541617602455615418565b8483528581528184842054168352602391828252848420549686809960028160245416925b61515257505050505050505050505050565b818116838111614d6c57838110156151965750806147a261517292614b98565b9b909b5b8b1115614d4b57615187908c615477565b6151908b614f86565b89615140565b889c919c52838652848989205416885286865288882054615176565b6151bb9061537a565b9061ffff908160245416916151d08385615477565b806151da846140c2565b1661ffff1960245416176024556151f083615418565b8084168093146152d05760009280845260269360209185835260018060a01b0392604093808585205416845260239283835261522f868620548b6152d6565b84528782528085852054168452828252848420549761524d8a614f86565b8760245416905b8881168281116152c157828110156152a55750806147a261527492614b98565b9b909b5b8b111561529757615289908c615477565b6152928b614f86565b615254565b505050505050505050915050565b879c919c52828552838888205416875285855287872054615278565b50505050505050505050915050565b50915050565b9190915b60018061ffff83161115614f805781617fff911c169083600083815260209060268252602360409260018060a01b03848420541683525220541115614f80576153239082615477565b6152da565b919061ffff604060008286168152602660205260018060a01b0380838320541682526023602052828220549385168252602660205282822054168152602360205220549384821115614ff05750509190565b6001600160a01b031660009081526025602052604090205461ffff1690811561539f57565b60405163f2755e3760e01b8152600490fd5b6001600160a01b031660009081526028602052604090205461ffff1690811561539f57565b61ffff16600090815260296020908152604080832080546001600160a01b031981169091556001600160a01b0316835260289091529020805461ffff19169055565b61ffff16600090815260266020908152604080832080546001600160a01b031981169091556001600160a01b0316835260259091529020805461ffff19169055565b1561546157565b634e487b7160e01b600052600160045260246000fd5b61549c61ffff8080602454169316936154928486111561545a565b169182111561545a565b6000828152602660208181526040808420805486865282862080546001600160a01b0392831680895260258752858920805461ffff19908116909b1790559216808852938720805490981689179097559390925284546001600160a01b031990811690931790945593909152825416179055565b61552b61ffff8080602754169316936154928486111561545a565b6000828152602960208181526040808420805486865282862080546001600160a01b0392831680895260288752858920805461ffff19908116909b1790559216808852938720805490981689179097559390925284546001600160a01b03199081169093179094559390915282541617905556fea264697066735822122009cea8a9663bcf0b2664de094c9c2aec49b009178fb86f2f76f048ab19f9946364736f6c63430008130033","linkReferences":{"src/lib/AccountHelper.sol":{"AccountHelper":[{"start":15486,"length":20}]},"src/lib/CrossMsgHelper.sol":{"CrossMsgHelper":[{"start":11375,"length":20}]},"src/lib/StorableMsgHelper.sol":{"StorableMsgHelper":[{"start":10949,"length":20}]},"src/lib/SubnetIDHelper.sol":{"SubnetIDHelper":[{"start":3079,"length":20},{"start":5958,"length":20},{"start":10769,"length":20},{"start":14896,"length":20},{"start":15206,"length":20}]}}},"methodIdentifiers":{"addBottomUpMsgBatchSignature(uint256,bytes32[],uint256,bytes)":"0db0f77c","addCheckpointSignature(uint256,bytes32[],uint256,bytes)":"53b4e7bf","applyCrossMessages(((((uint64,address[]),(uint8,bytes)),((uint64,address[]),(uint8,bytes)),uint256,uint64,bytes4,bytes,uint256),bool)[])":"c62eb4d5","applyFinalityChanges()":"0df14461","commitCheckpoint(((uint64,address[]),uint256,bytes32,uint64))":"47dc9b4f","commitParentFinality((uint256,bytes32))":"11196974","createBottomUpCheckpoint(((uint64,address[]),uint256,bytes32,uint64),bytes32,uint256)":"74303771","createBottomUpMsgBatch(((uint64,address[]),uint256,((((uint64,address[]),(uint8,bytes)),((uint64,address[]),(uint8,bytes)),uint256,uint64,bytes4,bytes,uint256),bool)[]),bytes32,uint256)":"32e7661f","execBottomUpMsgBatch(((uint64,address[]),uint256,((((uint64,address[]),(uint8,bytes)),((uint64,address[]),(uint8,bytes)),uint256,uint64,bytes4,bytes,uint256),bool)[]))":"0bed7615","pruneBottomUpCheckpoints(uint256)":"ac818379","pruneBottomUpMsgBatches(uint256)":"bacc656d","storeValidatorChanges(((uint8,bytes,address),uint64)[])":"e49a547d"},"id":47}