{
  "abi": [
    {
      "inputs": [
        {
          "internalType": "address",
          "name": "target",
          "type": "address"
        }
      ],
      "name": "AddressEmptyCode",
      "type": "error"
    },
    {
      "inputs": [
        {
          "internalType": "address",
          "name": "account",
          "type": "address"
        }
      ],
      "name": "AddressInsufficientBalance",
      "type": "error"
    },
    {
      "inputs": [],
      "name": "AddressShouldBeValidator",
      "type": "error"
    },
    {
      "inputs": [],
      "name": "CannotConfirmFutureChanges",
      "type": "error"
    },
    {
      "inputs": [],
      "name": "CheckpointAlreadyExists",
      "type": "error"
    },
    {
      "inputs": [],
      "name": "CheckpointAlreadyProcessed",
      "type": "error"
    },
    {
      "inputs": [],
      "name": "CheckpointNotCreated",
      "type": "error"
    },
    {
      "inputs": [],
      "name": "FailedAddIncompleteCheckpoint",
      "type": "error"
    },
    {
      "inputs": [],
      "name": "FailedAddSignatory",
      "type": "error"
    },
    {
      "inputs": [],
      "name": "FailedInnerCall",
      "type": "error"
    },
    {
      "inputs": [],
      "name": "FailedRemoveIncompleteCheckpoint",
      "type": "error"
    },
    {
      "inputs": [],
      "name": "InvalidActorAddress",
      "type": "error"
    },
    {
      "inputs": [],
      "name": "InvalidCheckpointEpoch",
      "type": "error"
    },
    {
      "inputs": [],
      "name": "InvalidCheckpointSource",
      "type": "error"
    },
    {
      "inputs": [],
      "name": "InvalidConfigurationNumber",
      "type": "error"
    },
    {
      "inputs": [],
      "name": "InvalidCrossMsgDstSubnet",
      "type": "error"
    },
    {
      "inputs": [],
      "name": "InvalidCrossMsgNonce",
      "type": "error"
    },
    {
      "inputs": [],
      "name": "InvalidRetentionHeight",
      "type": "error"
    },
    {
      "inputs": [],
      "name": "InvalidSignature",
      "type": "error"
    },
    {
      "inputs": [],
      "name": "InvalidSubnet",
      "type": "error"
    },
    {
      "inputs": [
        {
          "internalType": "address",
          "name": "",
          "type": "address"
        }
      ],
      "name": "NotAuthorized",
      "type": "error"
    },
    {
      "inputs": [],
      "name": "NotEnoughBalance",
      "type": "error"
    },
    {
      "inputs": [],
      "name": "NotEnoughSubnetCircSupply",
      "type": "error"
    },
    {
      "inputs": [],
      "name": "NotRegisteredSubnet",
      "type": "error"
    },
    {
      "inputs": [],
      "name": "NotSystemActor",
      "type": "error"
    },
    {
      "inputs": [],
      "name": "OldConfigurationNumber",
      "type": "error"
    },
    {
      "inputs": [],
      "name": "PQDoesNotContainAddress",
      "type": "error"
    },
    {
      "inputs": [],
      "name": "PQEmpty",
      "type": "error"
    },
    {
      "inputs": [],
      "name": "ParentFinalityAlreadyCommitted",
      "type": "error"
    },
    {
      "inputs": [],
      "name": "SignatureReplay",
      "type": "error"
    },
    {
      "inputs": [],
      "name": "SubnetNotActive",
      "type": "error"
    },
    {
      "inputs": [],
      "name": "SubnetNotFound",
      "type": "error"
    },
    {
      "inputs": [],
      "name": "ZeroMembershipWeight",
      "type": "error"
    },
    {
      "anonymous": false,
      "inputs": [
        {
          "indexed": false,
          "internalType": "uint64",
          "name": "height",
          "type": "uint64"
        },
        {
          "indexed": false,
          "internalType": "bytes32",
          "name": "checkpoint",
          "type": "bytes32"
        },
        {
          "indexed": false,
          "internalType": "uint256",
          "name": "quorumWeight",
          "type": "uint256"
        }
      ],
      "name": "QuorumReached",
      "type": "event"
    },
    {
      "anonymous": false,
      "inputs": [
        {
          "indexed": false,
          "internalType": "uint64",
          "name": "height",
          "type": "uint64"
        },
        {
          "indexed": false,
          "internalType": "bytes32",
          "name": "checkpoint",
          "type": "bytes32"
        },
        {
          "indexed": false,
          "internalType": "uint256",
          "name": "newWeight",
          "type": "uint256"
        }
      ],
      "name": "QuorumWeightUpdated",
      "type": "event"
    },
    {
      "inputs": [
        {
          "internalType": "uint64",
          "name": "height",
          "type": "uint64"
        },
        {
          "internalType": "bytes32[]",
          "name": "membershipProof",
          "type": "bytes32[]"
        },
        {
          "internalType": "uint256",
          "name": "weight",
          "type": "uint256"
        },
        {
          "internalType": "bytes",
          "name": "signature",
          "type": "bytes"
        }
      ],
      "name": "addCheckpointSignature",
      "outputs": [],
      "stateMutability": "nonpayable",
      "type": "function"
    },
    {
      "inputs": [
        {
          "components": [
            {
              "components": [
                {
                  "components": [
                    {
                      "components": [
                        {
                          "internalType": "uint64",
                          "name": "root",
                          "type": "uint64"
                        },
                        {
                          "internalType": "address[]",
                          "name": "route",
                          "type": "address[]"
                        }
                      ],
                      "internalType": "struct SubnetID",
                      "name": "subnetId",
                      "type": "tuple"
                    },
                    {
                      "components": [
                        {
                          "internalType": "uint8",
                          "name": "addrType",
                          "type": "uint8"
                        },
                        {
                          "internalType": "bytes",
                          "name": "payload",
                          "type": "bytes"
                        }
                      ],
                      "internalType": "struct FvmAddress",
                      "name": "rawAddress",
                      "type": "tuple"
                    }
                  ],
                  "internalType": "struct IPCAddress",
                  "name": "from",
                  "type": "tuple"
                },
                {
                  "components": [
                    {
                      "components": [
                        {
                          "internalType": "uint64",
                          "name": "root",
                          "type": "uint64"
                        },
                        {
                          "internalType": "address[]",
                          "name": "route",
                          "type": "address[]"
                        }
                      ],
                      "internalType": "struct SubnetID",
                      "name": "subnetId",
                      "type": "tuple"
                    },
                    {
                      "components": [
                        {
                          "internalType": "uint8",
                          "name": "addrType",
                          "type": "uint8"
                        },
                        {
                          "internalType": "bytes",
                          "name": "payload",
                          "type": "bytes"
                        }
                      ],
                      "internalType": "struct FvmAddress",
                      "name": "rawAddress",
                      "type": "tuple"
                    }
                  ],
                  "internalType": "struct IPCAddress",
                  "name": "to",
                  "type": "tuple"
                },
                {
                  "internalType": "uint256",
                  "name": "value",
                  "type": "uint256"
                },
                {
                  "internalType": "uint64",
                  "name": "nonce",
                  "type": "uint64"
                },
                {
                  "internalType": "bytes4",
                  "name": "method",
                  "type": "bytes4"
                },
                {
                  "internalType": "bytes",
                  "name": "params",
                  "type": "bytes"
                },
                {
                  "internalType": "uint256",
                  "name": "fee",
                  "type": "uint256"
                }
              ],
              "internalType": "struct StorableMsg",
              "name": "message",
              "type": "tuple"
            },
            {
              "internalType": "bool",
              "name": "wrapped",
              "type": "bool"
            }
          ],
          "internalType": "struct CrossMsg[]",
          "name": "crossMsgs",
          "type": "tuple[]"
        }
      ],
      "name": "applyCrossMessages",
      "outputs": [],
      "stateMutability": "nonpayable",
      "type": "function"
    },
    {
      "inputs": [],
      "name": "applyFinalityChanges",
      "outputs": [
        {
          "internalType": "uint64",
          "name": "",
          "type": "uint64"
        }
      ],
      "stateMutability": "nonpayable",
      "type": "function"
    },
    {
      "inputs": [
        {
          "components": [
            {
              "components": [
                {
                  "internalType": "uint64",
                  "name": "root",
                  "type": "uint64"
                },
                {
                  "internalType": "address[]",
                  "name": "route",
                  "type": "address[]"
                }
              ],
              "internalType": "struct SubnetID",
              "name": "subnetID",
              "type": "tuple"
            },
            {
              "internalType": "uint64",
              "name": "blockHeight",
              "type": "uint64"
            },
            {
              "internalType": "bytes32",
              "name": "blockHash",
              "type": "bytes32"
            },
            {
              "internalType": "uint64",
              "name": "nextConfigurationNumber",
              "type": "uint64"
            },
            {
              "internalType": "bytes32",
              "name": "crossMessagesHash",
              "type": "bytes32"
            }
          ],
          "internalType": "struct BottomUpCheckpoint",
          "name": "checkpoint",
          "type": "tuple"
        },
        {
          "components": [
            {
              "components": [
                {
                  "components": [
                    {
                      "components": [
                        {
                          "internalType": "uint64",
                          "name": "root",
                          "type": "uint64"
                        },
                        {
                          "internalType": "address[]",
                          "name": "route",
                          "type": "address[]"
                        }
                      ],
                      "internalType": "struct SubnetID",
                      "name": "subnetId",
                      "type": "tuple"
                    },
                    {
                      "components": [
                        {
                          "internalType": "uint8",
                          "name": "addrType",
                          "type": "uint8"
                        },
                        {
                          "internalType": "bytes",
                          "name": "payload",
                          "type": "bytes"
                        }
                      ],
                      "internalType": "struct FvmAddress",
                      "name": "rawAddress",
                      "type": "tuple"
                    }
                  ],
                  "internalType": "struct IPCAddress",
                  "name": "from",
                  "type": "tuple"
                },
                {
                  "components": [
                    {
                      "components": [
                        {
                          "internalType": "uint64",
                          "name": "root",
                          "type": "uint64"
                        },
                        {
                          "internalType": "address[]",
                          "name": "route",
                          "type": "address[]"
                        }
                      ],
                      "internalType": "struct SubnetID",
                      "name": "subnetId",
                      "type": "tuple"
                    },
                    {
                      "components": [
                        {
                          "internalType": "uint8",
                          "name": "addrType",
                          "type": "uint8"
                        },
                        {
                          "internalType": "bytes",
                          "name": "payload",
                          "type": "bytes"
                        }
                      ],
                      "internalType": "struct FvmAddress",
                      "name": "rawAddress",
                      "type": "tuple"
                    }
                  ],
                  "internalType": "struct IPCAddress",
                  "name": "to",
                  "type": "tuple"
                },
                {
                  "internalType": "uint256",
                  "name": "value",
                  "type": "uint256"
                },
                {
                  "internalType": "uint64",
                  "name": "nonce",
                  "type": "uint64"
                },
                {
                  "internalType": "bytes4",
                  "name": "method",
                  "type": "bytes4"
                },
                {
                  "internalType": "bytes",
                  "name": "params",
                  "type": "bytes"
                },
                {
                  "internalType": "uint256",
                  "name": "fee",
                  "type": "uint256"
                }
              ],
              "internalType": "struct StorableMsg",
              "name": "message",
              "type": "tuple"
            },
            {
              "internalType": "bool",
              "name": "wrapped",
              "type": "bool"
            }
          ],
          "internalType": "struct CrossMsg[]",
          "name": "messages",
          "type": "tuple[]"
        }
      ],
      "name": "commitBottomUpCheckpoint",
      "outputs": [],
      "stateMutability": "nonpayable",
      "type": "function"
    },
    {
      "inputs": [
        {
          "components": [
            {
              "internalType": "uint256",
              "name": "height",
              "type": "uint256"
            },
            {
              "internalType": "bytes32",
              "name": "blockHash",
              "type": "bytes32"
            }
          ],
          "internalType": "struct ParentFinality",
          "name": "finality",
          "type": "tuple"
        }
      ],
      "name": "commitParentFinality",
      "outputs": [
        {
          "internalType": "bool",
          "name": "hasCommittedBefore",
          "type": "bool"
        },
        {
          "components": [
            {
              "internalType": "uint256",
              "name": "height",
              "type": "uint256"
            },
            {
              "internalType": "bytes32",
              "name": "blockHash",
              "type": "bytes32"
            }
          ],
          "internalType": "struct ParentFinality",
          "name": "previousFinality",
          "type": "tuple"
        }
      ],
      "stateMutability": "nonpayable",
      "type": "function"
    },
    {
      "inputs": [
        {
          "components": [
            {
              "components": [
                {
                  "internalType": "uint64",
                  "name": "root",
                  "type": "uint64"
                },
                {
                  "internalType": "address[]",
                  "name": "route",
                  "type": "address[]"
                }
              ],
              "internalType": "struct SubnetID",
              "name": "subnetID",
              "type": "tuple"
            },
            {
              "internalType": "uint64",
              "name": "blockHeight",
              "type": "uint64"
            },
            {
              "internalType": "bytes32",
              "name": "blockHash",
              "type": "bytes32"
            },
            {
              "internalType": "uint64",
              "name": "nextConfigurationNumber",
              "type": "uint64"
            },
            {
              "internalType": "bytes32",
              "name": "crossMessagesHash",
              "type": "bytes32"
            }
          ],
          "internalType": "struct BottomUpCheckpoint",
          "name": "checkpoint",
          "type": "tuple"
        },
        {
          "internalType": "bytes32",
          "name": "membershipRootHash",
          "type": "bytes32"
        },
        {
          "internalType": "uint256",
          "name": "membershipWeight",
          "type": "uint256"
        }
      ],
      "name": "createBottomUpCheckpoint",
      "outputs": [],
      "stateMutability": "nonpayable",
      "type": "function"
    },
    {
      "inputs": [
        {
          "internalType": "uint64",
          "name": "newRetentionHeight",
          "type": "uint64"
        }
      ],
      "name": "pruneBottomUpCheckpoints",
      "outputs": [],
      "stateMutability": "nonpayable",
      "type": "function"
    },
    {
      "inputs": [
        {
          "components": [
            {
              "components": [
                {
                  "internalType": "enum StakingOperation",
                  "name": "op",
                  "type": "uint8"
                },
                {
                  "internalType": "bytes",
                  "name": "payload",
                  "type": "bytes"
                },
                {
                  "internalType": "address",
                  "name": "validator",
                  "type": "address"
                }
              ],
              "internalType": "struct StakingChange",
              "name": "change",
              "type": "tuple"
            },
            {
              "internalType": "uint64",
              "name": "configurationNumber",
              "type": "uint64"
            }
          ],
          "internalType": "struct StakingChangeRequest[]",
          "name": "changeRequests",
          "type": "tuple[]"
        }
      ],
      "name": "storeValidatorChanges",
      "outputs": [],
      "stateMutability": "nonpayable",
      "type": "function"
    }
  ],
  "bytecode": {
    "object": "0x6080806040523461001657614892908161001c8239f35b600080fdfe6080604052600436101561001257600080fd5b60003560e01c80630df144611461127457806311196974146111b05780632a04f22014610d12578063a656ca5b1461098d578063ae00c29814610727578063c62eb4d5146106ae578063e49a547d1461066d5763f456b39e1461007457600080fd5b346105eb576003196040368201126105eb576001600160401b03600435116105eb5760a081600435360301126105eb576024356001600160401b0381116105eb576100c39036906004016113cb565b61010060206100df366100da6004803501806113fb565b611410565b60405180938192632cff562160e11b835284600484015260248301906114cb565b038173__$a0fe38a9a81205afccc10810b09a4d3f45$__5af49081156104cb57600091610633575b50336001600160a01b039091160361062157331561060f5760405161014c816112d2565b6001600160401b0360135416815260405180602060145491828152019060146000527fce6d7b5282bd9a3661ae061feed1dbda4e52ab073b1f9285be6e155d9c38d4ec9060005b8181106105f05750505091816101b06000936101d7950382611323565b60208201526040518093819263aa5106cb60e01b83526040600484015260448301906114cb565b336024830152038173__$a0fe38a9a81205afccc10810b09a4d3f45$__5af480156104cb5760009061050a575b61020e91506131a6565b9390156104f95761024d9061022b366100da6004803501806113fb565b9060405192839263c836244d60e01b84526040600485015260448401906114cb565b90828203016024830152604081016001600160401b03600488015416825260606005880192604060208201528354809352019160005260206000209060005b8181106104d7575050509080602092038173__$a0fe38a9a81205afccc10810b09a4d3f45$__5af49081156104cb5760009161049c575b501561048a5760ff600384015460801c1692600684101561047457600180940361046257600080946000905b848210610421575050610304600291866115ff565b91019283549382851061040f5761032161033d936103439661160c565b9055610335366100da6004803501806113fb565b9236916116a8565b90611b49565b610351602460043501611808565b6040516001600160401b03602082019263f9002bb160e01b845216602482015282604482015260448152608081018181106001600160401b038211176103f957806040528347106103e4576103da6000808686865191335af13d156103dc573d906103bb8261135b565b916103c96040519384611323565b82523d6000602084013e5b3361181c565b005b6060906103d4565b60249163cd78605960e01b8252608430910152fd5b634e487b7160e01b600052604160045260246000fd5b604051631d36ca1560e21b8152600490fd5b61045a610449839894604061044161043b86978b8d6115bd565b806115ea565b0135906115ff565b9360c061044161043b8b8a8c6115bd565b9601906102ef565b60405163c18316bf60e01b8152600490fd5b634e487b7160e01b600052602160045260246000fd5b6040516303b5db8360e11b8152600490fd5b6104be915060203d6020116104c4575b6104b68183611323565b810190611526565b386102c3565b503d6104ac565b6040513d6000823e3d90fd5b82546001600160a01b031684528594506020909301926001928301920161028c565b6040516208ed5b60e31b8152600490fd5b503d806000833e61051b8183611323565b8101906020818303126105eb578051906001600160401b0382116105eb5701906040828203126105eb5760405191610552836112d2565b80516001600160401b03811681036105eb5783526020810151906001600160401b0382116105eb57019080601f830112156105eb57815161059281611344565b926105a06040519485611323565b81845260208085019260051b8201019283116105eb57602001905b8282106105d357505050602082015261020e90610204565b602080916105e0846114b7565b8152019101906105bb565b600080fd5b82546001600160a01b0316845260209093019260019283019201610193565b6040516370e4510960e01b8152600490fd5b604051637f39132760e11b8152600490fd5b90506020813d602011610665575b8161064e60209383611323565b810103126105eb5761065f906114b7565b38610128565b3d9150610641565b346105eb5760203660031901126105eb576004356001600160401b0381116105eb576106a06103da9136906004016113cb565b906106a9613318565b6133a3565b346105eb5760203660031901126105eb576001600160401b036004358181116105eb576106df9036906004016113cb565b916106e8613318565b6040519160208301918211838310176103f9576103da9361033d926040526000845260405193610717856112d2565b60008552602085015236916116a8565b346105eb576020806003193601126105eb576107416112a8565b610749613318565b6001600160401b0391600d9183808454169116908082111561097b575b84811690828210156109685790859181600052600a9182865260406000209260008455600193610797858201611c8e565b600060046002828185015582600560039582878201558285820155015585835282600b94858d52816040812093818555818c860155840155820155015560109182895260406000208054906000815581610942575b505083600052600c808a5260406000209283549260008555836108bc575b5050505050816000528652604060002060405180828982945493848152019060005289600020926000905b888c8284106108a3575050505061084e92500382611323565b8051918460005b8481106108685750505050500116610766565b600083815260118b52604090206001600160a01b036108878387611894565b51166000528a5261089b6040600020612967565b018590610855565b9092945082919386548152019401920184929391610835565b909192809499508c02938c85040361092c578c986000528b8b600020948501945b8581106108ea575061080a565b6108f3816129b0565b6108ff600482016129b0565b6000600882015560006009820155610918838201612967565b600084820155600085820155018c906108dd565b634e487b7160e01b600052601160045260246000fd5b600052868a600020918201915b82811061095c57506107ec565b6000815501879061094f565b845467ffffffffffffffff191683178555005b604051636819a3a960e01b8152600490fd5b346105eb576003196060368201126105eb576004356001600160401b038082116105eb5760a0826004019383360301126105eb576044356109cc613318565b60248093016109da81611808565b8380600d5416911610610d00576109f081611808565b8360185416908115610ceb578416068316610cd957826002610a2d610a1484611808565b6001600160401b0316600052600a602052604060002090565b015416610cc7578115610cb55760ff6017541680830292830403610ca05782610a58610a5e92611808565b16612731565b15610c8e57610a6d36856128f5565b9260405180946339aa47fb60e01b82528160209283928360048301526080610aa0825160a08986015260c48501906114cb565b91898682015116604485015260408101516064850152896060820151166084850152015160a4830152038173__$1cd67d4dc9e627f0bec7928aa480e7d951$__5af49485156104cb57600095610c5f575b5060405194610aff866112ed565b8552808501918035835260646040870194048452606086019460008652610b2f608088019860008a5236906128f5565b9083820193610b54828651166001600160401b0316600052600a602052604060002090565b93835183815116926001600160401b031993848854161787558060018801920151805193868511610c4b57508190610b8c8585611cb2565b0191600052806000209060005b848110610c305750505050509260056080610c04948460049b99976103da9e9b999660028701975116968782825416179055604083015160038701558c8601916060840151169082541617905501519101556001600160401b0316600052600b602052604060002090565b9551865551600186015551600285015551600384015551151591019060ff801983541691151516179055565b83516001600160a01b03168382015592810192600101610b99565b634e487b7160e01b60009081526041600452fd5b9080955081813d8311610c87575b610c778183611323565b810103126105eb57519386610af1565b503d610c6d565b60405163ee6c026760e01b8152600490fd5b83634e487b7160e01b60005260116004526000fd5b604051634e8ac6e560e01b8152600490fd5b60405163b8a1eae160e01b8152600490fd5b60405163fae4eadb60e01b8152600490fd5b85634e487b7160e01b60005260126004526000fd5b6040516376afb88d60e01b8152600490fd5b346105eb5760803660031901126105eb57610d2b6112a8565b602435906001600160401b0382116105eb57366023830112156105eb57816004013591610d5783611344565b92610d656040519485611323565b8084526024602085019160051b830101913683116105eb57602401905b8282106111a0575050506064356001600160401b0381116105eb57610dab9036906004016113ad565b916001600160401b03600d54166001600160401b03831610610d0057610de4826001600160401b0316600052600a602052604060002090565b610e01836001600160401b0316600052600b602052604060002090565b906001600160401b036002820154161561118e57610e2085835461262e565b5060048196929610156104745761117c576001600160401b03811660009081526010602090815260408083206001600160a01b038916845260010190915290205461116a57604080516001600160a01b0387166020820190815260443582840152918152610e8f606082611323565b5190206040516020810191825260208152610ea9816112d2565b51902095600184015496956000965b8651881015610f0557610ecb8888611894565b519081811015610ef45760005260205260406000205b96600019811461092c5760010196610eb8565b906000526020526040600020610ee1565b8803611148576001600160401b0383166000526010602052610f3360018060a01b03821660406000206127ae565b15611136576001600160401b038316600052601160205260406000209060018060a01b03166000526020526040600020908051906001600160401b0382116103f9578190610f8b82610f8586546118a8565b86611ce6565b602090601f83116001146110d0576000926110c5575b50508160011b916000199060031b1c19161790555b6003830191610fc860443584546115ff565b8084556002850154811015610fd957005b600485018054909160ff8216611073575060ff1916600117905560020154611009906001600160401b031661280b565b156110615761105c7f6e19758a6cc7e71b17c341543844325f2a6ad8294af979c7b386fc4d3814e93493549254604051938493846040919493926001600160401b03606083019616825260208201520152565b0390a1005b604051637e5145ed60e01b8152600490fd5b945050505061105c7f24836090f2da17128f839618852e98c2586a5693517e15f15497223bd26c6045935492604051938493846040919493926001600160401b03606083019616825260208201520152565b015190508680610fa1565b6000858152602081209350601f198516905b81811061111e5750908460019594939210611105575b505050811b019055610fb6565b015160001960f88460031b161c191690558680806110f8565b929360206001819287860151815501950193016110e2565b604051633363140f60e01b8152600490fd5b604051634a0bfec160e01b81526001600160a01b039091166004820152602490fd5b604051635a3fd0d960e11b8152600490fd5b604051638baa579f60e01b8152600490fd5b6040516358cdd2e760e01b8152600490fd5b8135815260209182019101610d82565b346105eb5760403660031901126105eb576040516111cd816112d2565b6000815260006020809201526111e1613318565b6000816040516111f0816112d2565b8281520152600354906004358083116112625760609260005260028252604060002091600160405193611222856112d2565b8054855201549181840192835280600052600282526040600020818155600160243591015560035582511515926040519384525190830152516040820152f35b60405163153ad84160e11b8152600490fd5b346105eb5760003660031901126105eb5761128d613318565b6020611297611988565b6001600160401b0360405191168152f35b600435906001600160401b03821682036105eb57565b35906001600160401b03821682036105eb57565b604081019081106001600160401b038211176103f957604052565b60a081019081106001600160401b038211176103f957604052565b606081019081106001600160401b038211176103f957604052565b90601f801991011681019081106001600160401b038211176103f957604052565b6001600160401b0381116103f95760051b60200190565b6001600160401b0381116103f957601f01601f191660200190565b9291926113828261135b565b916113906040519384611323565b8294818452818301116105eb578281602093846000960137010152565b9080601f830112156105eb578160206113c893359101611376565b90565b9181601f840112156105eb578235916001600160401b0383116105eb576020808501948460051b0101116105eb57565b903590603e19813603018212156105eb570190565b91906040838203126105eb5760405192611429846112d2565b83611433826112be565b815260209182810135906001600160401b0382116105eb57019280601f850112156105eb57833561146381611344565b946114716040519687611323565b818652848087019260051b8201019283116105eb578401905b828210611498575050500152565b81356001600160a01b03811681036105eb57815290840190840161148a565b51906001600160a01b03821682036105eb57565b60609060408301906001600160401b03815116845260209283809201519460408382015285518094520193019160005b828110611509575050505090565b83516001600160a01b0316855293810193928101926001016114fb565b908160209103126105eb575180151581036105eb5790565b60408101906001600160401b036013541681526060602091604083820152601454809452019160146000527fce6d7b5282bd9a3661ae061feed1dbda4e52ab073b1f9285be6e155d9c38d4ec916000905b82821061159d575050505090565b83546001600160a01b03168552938401936001938401939091019061158f565b908210156115d4576113c89160051b8101906113fb565b634e487b7160e01b600052603260045260246000fd5b90359060de19813603018212156105eb570190565b9190820180921161092c57565b9190820391821161092c57565b91906040838203126105eb5760405192611632846112d2565b838135916001600160401b03928381116105eb5784611652918301611410565b82526020810135908382116105eb57016040818503126105eb5760405193611679856112d2565b813560ff811681036105eb57855260208201359384116105eb576020936116a092016113ad565b828401520152565b909291926116b581611344565b916040916116c583519485611323565b839581855260208095019160051b8301938185116105eb5783925b8584106116f05750505050505050565b6001600160401b039084358281116105eb5786019183838603126105eb5783519261171a846112d2565b80358281116105eb57810160e09081818903126105eb578651918201828110858211176117f357875280358481116105eb5788611758918301611619565b82528b8101358481116105eb5788611771918301611619565b8c8301528681013587830152606061178a8183016112be565b90830152608081810135906001600160e01b0319821682036105eb5783015260a0808201359485116105eb576117c3898e9684016113ad565b9083015260c08091013590820152845201359081151582036105eb578289939284809401528152019301926116e0565b60246000634e487b7160e01b81526041600452fd5b356001600160401b03811681036105eb5790565b901561185a5781511561182d575090565b803b15611838575090565b604051639996b31560e01b81526001600160a01b039091166004820152602490fd5b5080511561186a57805190602001fd5b604051630a12f52160e11b8152600490fd5b9060016001600160401b038093160191821161092c57565b80518210156115d45760209160051b010190565b90600182811c921680156118d8575b60208310146118c257565b634e487b7160e01b600052602260045260246000fd5b91607f16916118b7565b90604051918260008254926118f6846118a8565b9081845260019485811690816000146119655750600114611922575b505061192092500383611323565b565b9093915060005260209081600020936000915b81831061194d57505061192093508201013880611912565b85548884018501529485019487945091830191611935565b91505061192094506020925060ff191682840152151560051b8201013880611912565b6022546001600160401b039190828116600019019083821161092c576119ad8261187c565b8480604093841c16911614611b41576119c5826135e1565b61ffff80601c5416946119d786611344565b926119e481519485611323565b868452601f1993846119f589611344565b019360209436868401376001809981805b611afa575b50505050805190611a1b82611344565b95611a2884519788611323565b828752611a3483611344565b018560005b828110611ad15750505060005b828110611a6f575050506113c8949596505192611a62846112d2565b8352841690820152612cfa565b89906001600160a01b03611a838285611894565b511680600052601b8852611ab1600287600020805493895194611aa586611308565b85528b850152016118e2565b86820152611abf828a611894565b52611aca8189611894565b5001611a46565b8551611adc81611308565b6000815260008382015260608782015282828b010152018690611a39565b838116828111611b3b576000908152601e895286902054849184916001600160a01b0316611b3284611b2b8461338f565b1689611894565b52011682611a06565b50611a0b565b506000925050565b81519160005b838110611b5c5750505050565b80611b73611b6c60019385611894565b5185611d2b565b01611b4f565b60005b838110611b8c5750506000910152565b8181015183820152602001611b7c565b90602091611bb581518092818552858086019101611b79565b601f01601f1916010190565b604060206113c89381611bdb8551858452858401906114cb565b940151908281860391015260ff81511684520151918160208201520190611b9c565b9060c080611c6e611c2c611c1a865160e0875260e0870190611bc1565b60208701518682036020880152611bc1565b604086015160408601526001600160401b03606087015116606086015263ffffffff60e01b608087015116608086015260a086015185820360a0870152611b9c565b93015191015290565b818110611c82575050565b60008155600101611c77565b80546000825580611c9d575050565b61192091600052602060002090810190611c77565b90600160401b81116103f957815490808355818110611cd057505050565b6119209260005260206000209182019101611c77565b9190601f8111611cf557505050565b611920926000526020600020906020601f840160051c83019310611d21575b601f0160051c0190611c77565b9091508190611d14565b9190916020835101515173__$a0fe38a9a81205afccc10810b09a4d3f45$__9160405160208180611d71630c133d1360e31b9687835284600484015260248301906114cb565b0381875af49081156104cb5760009161260f575b506125fd57845160808101516001600160e01b03199491908516156125db575b50855192611dcb6040519463f47ad7eb60e01b8652604060048701526044860190611bfd565b60208580611de5600319948583820301602484015261153e565b038173__$386b5c41ce93e8b832daf8008b3d30ae09$__5af49485156104cb57600095612595575b506020611e3f818a51015151611e4e604051948593849363c836244d60e01b85526040600486015260448501906114cb565b9083820301602484015261153e565b0381865af49081156104cb57600091612576575b5061234c5750505050604051611f1d8160208101936020855260c0611efa885192604080860152611ea0845160e060808801526101608701906129d3565b611ebc602086015191607f1992838983030160a08a01526129d3565b916040860151858801526001600160401b0360608701511660e088015260808601511661010087015260a08501519086830301610120870152611b9c565b91015161014083015260208701511515606083015203601f198101835282611323565b51902060005260046020526040600020825192835180516001600160401b038151166001600160401b0319855416178455602060018501910151908151916001600160401b0383116103f957602090611f768484611cb2565b0190600052602060002060005b83811061232f575050505060209081600285019101519060ff82511660ff1982541617905501518051906001600160401b0382116103f9578190611fd782611fce60038801546118a8565b60038801611ce6565b602090601f83116001146122bd576000926122b2575b50508160011b916000199060031b1c19161760038301555b600482016020850151908151906001600160401b038251166001600160401b0319825416179055602060058501910151908151916001600160401b0383116103f9576020906120548484611cb2565b0190600052602060002060005b83811061229557505050506020600684019101519060ff82511660ff198254161790556020600784019101518051906001600160401b0382116103f95781906120ae82610f8586546118a8565b602090601f831160011461222f57600092612224575b50508160011b916000199060031b1c19161790555b60408401516008830155600982016001600160401b036060860151168154906bffffffff0000000000000000608088015160a01c16916001600160601b03191617179055600a82019360a08101519485516001600160401b0381116103f95761214c8161214684546118a8565b84611ce6565b6020601f82116001146121b05792600c94928260c0936020966119209a9b6000926121a5575b50508160011b916000199060031b1c19161790555b0151600b8501550151151591019060ff801983541691151516179055565b015190503880612172565b601f198216978360005260206000209860005b81811061220c575083611920999a60209794600c99979460c097600195106121f3575b505050811b019055612187565b015160001960f88460031b161c191690553880806121e6565b838301518b556001909a0199602093840193016121c3565b0151905038806120c4565b6000858152602081209350601f198516905b81811061227d5750908460019594939210612264575b505050811b0190556120d9565b015160001960f88460031b161c19169055388080612257565b92936020600181928786015181550195019301612241565b82516001600160a01b031681830155602090920191600101612061565b015190503880611fed565b9250600385016000526020600020906000935b601f1984168510612314576001945083601f198116106122fb575b505050811b016003830155612005565b015160001960f88460031b161c191690553880806122eb565b818101518355602094850194600190930192909101906122d0565b82516001600160a01b031681830155602090920191600101611f83565b9091929350600284969596101561047457600184146124a3575b50505015612441575b6000604051808093635c46fefb60e11b82526020600483015260206123a08251604060248601526064850190611bfd565b91015115156044830152038173__$33b79814e84bf6cf5e47244090b19ce5f8$__5af480156104cb576123d05750565b3d806000833e6123e08183611323565b8101906020818303126105eb578051906001600160401b0382116105eb570181601f820112156105eb578051906124168261135b565b926124246040519485611323565b828452602083830101116105eb5760208061192094019101611b79565b6017546001600160401b03808260481c16906060845101511681036124915761247567ffffffffffffffff60481b9161187c565b60481b169067ffffffffffffffff60481b19161760175561236f565b60405163a57cadff60e01b8152600490fd5b602090604051928391825282600483015281806124c360248201886114cb565b03915af49081156104cb57600091612557575b50156124e4575b8080612366565b6124ed906131a6565b90156125455760030180546001600160401b03808260401c16906060865101511681036124915761252967ffffffffffffffff60401b9161187c565b60401b169067ffffffffffffffff60401b1916179055386124dd565b604051630e991abd60e41b8152600490fd5b612570915060203d6020116104c4576104b68183611323565b386124d6565b61258f915060203d6020116104c4576104b68183611323565b38611e62565b6020959195813d6020116125d3575b816125b160209383611323565b810103126125cf57519060028210156125cc57509338611e0d565b80fd5b5080fd5b3d91506125a4565b6040015147106125eb5738611da5565b60405163569d45cf60e11b8152600490fd5b60405163c5f563eb60e01b8152600490fd5b612628915060203d6020116104c4576104b68183611323565b38611d85565b815191906041830361265f5761265892506020820151906060604084015193015160001a9061266a565b9192909190565b505060009160029190565b91907f7fffffffffffffffffffffffffffffff5d576e7357a4501ddfe92f46681b20a084116126ee57926020929160ff608095604051948552168484015260408301526060820152600092839182805260015afa156126e25780516001600160a01b038116156126d957918190565b50809160019190565b604051903d90823e3d90fd5b50505060009160039190565b600e548110156115d457600e6000527fbb7b4a454dc3493923482f07822329ed19e8244eff582cc204f8554c3620c3fd0190600090565b6000818152600f60205260408120546127a957600e54600160401b81101561279557908261278161276a84600160409601600e556126fa565b819391549060031b91821b91600019901b19161790565b9055600e54928152600f6020522055600190565b634e487b7160e01b82526041600452602482fd5b905090565b600082815260018201602052604090205461280457805490600160401b8210156103f957600182018082558210156115d45782600192826000526020600020015580549260005201602052604060002055600190565b5050600090565b6000818152600f602052604081205490919080156128f057600019908082018181116128dc57600e54908382019182116128c857808203612894575b505050600e5480156128805781019061285f826126fa565b909182549160031b1b19169055600e558152600f6020526040812055600190565b634e487b7160e01b84526031600452602484fd5b6128b26128a361276a936126fa565b90549060031b1c9283926126fa565b90558452600f6020526040842055388080612847565b634e487b7160e01b86526011600452602486fd5b634e487b7160e01b85526011600452602485fd5b505090565b91909160a0818403126105eb576040519061290f826112ed565b81938135916001600160401b0383116105eb576129326080939284938301611410565b8452612940602082016112be565b60208501526040810135604085015261295b606082016112be565b60608501520135910152565b61297181546118a8565b908161297b575050565b81601f6000931160011461298d575055565b9080839182526129ac601f60208420940160051c840160018501611c77565b5555565b600361192091600081556129c660018201611c8e565b6000600282015501612967565b91908251906040815260808101936001600160401b038351166040830152602080930151946040606084015285518091528360a0840196019060005b818110612a4357505050936040838193816113c897980151908281860391015260ff81511684520151938201520190611b9c565b82516001600160a01b031688529685019691850191600101612a0f565b90815180825260208092019182818360051b85019501936000915b848310612a8b5750505050505090565b9091929394958480612ac883856001950387528a5180518252858060a01b0384820151168483015260408091015191606080928201520190611b9c565b9801930193019194939290612a7b565b90808214612bac57612aea81546118a8565b906001600160401b0382116103f9578190612b0982610f8586546118a8565b600090601f8311600114612b4057600092612b35575b50508160011b916000199060031b1c1916179055565b015490503880612b1f565b81526020808220858352818320935090601f1985169083905b828210612b93575050908460019594939210612b7a575b505050811b019055565b015460001960f88460031b161c19169055388080612b70565b8495819295850154815560018091019601940190612b59565b5050565b6006548110156115d4576003906006600052027ff652222313e28459528d920b65115c16c04f3efc82aaedc97be59f3f377c0d3f0190600090565b90612ce45781518155600190604060028383019260209360018060a01b0385880151166001600160601b0360a01b82541617905501930151908151916001600160401b0383116103f957612c4983612c4387546118a8565b87611ce6565b81601f8411600114612c825750928293918392600094612c77575b50501b916000199060031b1c1916179055565b015192503880612c64565b919083601f1981168760005284600020946000905b88838310612cca5750505010612cb157505050811b019055565b015160001960f88460031b161c19169055388080612b70565b858701518855909601959485019487935090810190612c97565b634e487b7160e01b600052600060045260246000fd5b6040805191602091828452612d19825182858701526060860190612a60565b927f7ecdac482334c36fccbe374318cfe74ea0c8181394890ddec894a10f0fcc748181840195806001600160401b039687895116868301520390a183600754169081612fca575b505050600690815493600160401b938486116103f95760085486600855808710612f55575b5060086000908152957ff3f7a9fe364faab93b216da50a3214154f22a0a2b415b23a84c8169e8b636ee3877ff652222313e28459528d920b65115c16c04f3efc82aaedc97be59f3f377c0d3f5b838210612f0057505050508060075416916001600160401b03199283600954161760095583515193855496885b868110612e8d575050505116906007541617600755808311612e22575b50505050565b82811015612e1c5781548015612e79576000190190612e4082612bb0565b929092612e6557858355612e5d6002600194888682015501612967565b835501612e22565b634e487b7160e01b86526004869052602486fd5b634e487b7160e01b85526031600452602485fd5b88811015612ebc5780612eb6612ea66001938651611894565b51612eb083612bb0565b90612beb565b01612dff565b612ec7818451611894565b51885483811015612eec5760019291612eb08285612ee794018d55612bb0565b612eb6565b634e487b7160e01b8c52604160045260248cfd5b806001918403612f1b575b6003809101930191019091612dd2565b805484558180850190838060a01b0390830154166001600160601b0360a01b825416179055612f506002808301908601612ad8565b612f0b565b600390808202908282040361092c57878202828104890361092c57600090600882527ff3f7a9fe364faab93b216da50a3214154f22a0a2b415b23a84c8169e8b636ee392830192015b828110612fad57505050612d85565b8082859255826001820155612fc460028201612967565b01612f9e565b848651168560095416908181146130b757106130a657825192612fec846112d2565b600654612ff881611344565b9161300581519384611323565b8183528383019060066000527ff652222313e28459528d920b65115c16c04f3efc82aaedc97be59f3f377c0d3f906000925b84841061306457505050918552505082015261305390826130c1565b61305f57388080612d60565b505050565b600387600192845161307581611308565b86548152848060a01b03858801541683820152613094600288016118e2565b86820152815201930193019291613037565b8251633746be2560e11b8152600490fd5b5050505050505050565b6001600160401b039060209180838301511690838501511603613162576130e78161316a565b6130f08461316a565b0361316257518051835151036131625761315b61314f916040519081613120868201928784526040830190612a60565b0391613134601f1993848101835282611323565b51902094516040519384918683019687526040830190612a60565b03908101835282611323565b5190201490565b505050600090565b8051519060009182915b8183106131815750505090565b90919261319d600191613195868551611894565b5151906115ff565b93019190613174565b73__$a0fe38a9a81205afccc10810b09a4d3f45$__906131e66040918251906390ba52cf60e01b82528180602094859384600484015260248301906114cb565b0381875af490811561330d576000916132e0575b50600052600081528160002092825190613213826112d2565b6001600160401b0360048601541682526005850184519081858254918281520191600052856000209060005b8181106132c357505050918161325d86959361328297950382611323565b8383015285518080968194630c133d1360e31b835286600484015260248301906114cb565b03915af49283156132b9575060009261329c575b50501591565b6132b29250803d106104c4576104b68183611323565b3880613296565b513d6000823e3d90fd5b82546001600160a01b03168452928701926001928301920161323f565b908282813d8311613306575b6132f68183611323565b810103126125cc575051386131fa565b503d6132ec565b83513d6000823e3d90fd5b604051635d3f8a6960e01b815233600482015260208160248173__$e800e3908cdbb6b1b5bd452383a17b18f7$__5af49081156104cb57600091613371575b501561335f57565b60405163f0d97f3b60e01b8152600490fd5b613389915060203d81116104c4576104b68183611323565b38613357565b61ffff908116600019019190821161092c57565b919080156135c75760005b8181106133bb5750509050565b6133c68183866115bd565b9060406133d383806135cc565b6001600160a01b03910135818116908190036105eb576133f384806135cc565b359360038510156105eb5761340881806135cc565b906020918281013590601e19813603018212156105eb57019283356001600160401b03948582116105eb57840181360381136105eb57613449913691611376565b948460225416956040519861345d8a611308565b89528489019081526040890192835286600052602385526040600020985160038110156104745760ff80198b541691161789555197885198868a116103f9576001998a808401926134b283610f8586546118a8565b8890601f841160011461354a5792806002959381936135219c9b9a99989660009461353f575b50501b916000199060031b1c19161790555b019151166001600160601b0360a01b825416179055836135098661187c565b166001600160401b0319602254161760225501611808565b160361352d57016133ae565b604051631aba532960e21b8152600490fd5b0151925038806134d8565b908460009493945289600020916000601f198516905b8181106135a65750916135219b9a9998979593918560029896941061358d575b505050811b0190556134ea565b015160001960f88460031b161c19169055388080613580565b938395968d92939491839286015181550195019301908f9594939291613560565b509050565b903590605e19813603018212156105eb570190565b6022546001600160401b0392838316929190848216841061360e5760405163040aaa0560e11b8152600490fd5b848260401c1684106137e3579392919083604091821c16945b8486168481116137ac57600096818852602397602098808a528582209960029460018060a01b03868d01541660ff8d54166003811015613798578088036136ae575060018c9d61368892879e9a9b9c9d9e52601b855201878b872001612ad8565b835252858120928184556001936136a0858201612967565b015501169493929190613627565b906136bc60019e8f016118e2565b848180518101031261379457908e8e9f8c9d9e9f9b9c938701519414600014613756579061372f92918189528a601b918289528a6136fd888783205461160c565b9586948683528b52812091820180548515908161374d575b50156137435761372a94508183555501612967565b613b31565b61373c601a91825461160c565b9055613688565b5050905055613b31565b90501538613715565b5061378f9281885261377081601b948589528a20546115ff565b928289528652828d892055613788601a9182546115ff565b90556137ea565b613688565b8680fd5b634e487b7160e01b86526021600452602486fd5b509450925067ffffffffffffffff60401b91506137c89061187c565b602254921b169067ffffffffffffffff60401b191617602255565b9350505050565b919060018060a01b0392838116936000858152602095601d875261ffff91604097838983205416613a1557836019541684601c5416106139e1578661382d61415e565b9190911061395c575082825280805283898320541661389f57505050505061389a7f19fe3ca603e87854a0747cc10abf06bac64d61bac73d6d15f2fd3ca448f15264939461387a83613e63565b516001600160a01b03909216825260208201929092529081906040820190565b0390a1565b6138ae86959994989796614652565b928252601b9081815284832054935b6001808b831611156139385781617fff911c1690818552602183528b87862054168552838352858786205410156138fd576138f890826147ae565b6138bd565b505093516001600160a01b03909516855250505050602081019190915290925060008051602061483d8339815191529150806040810161389a565b50505050505061389a919293955060008051602061483d833981519152945061387a565b95965061389a945090889392917ffaeb8de771b867cf357f6b459a7002b62ec45d544a8078a3ecd91200cc826d7598999261399561432d565b825280522054166139d3575b6139aa846142bb565b6139b383613e63565b516001600160a01b03928316815292909116602083015281906040820190565b6139dc8461403a565b6139a1565b505050505061389a7f2e8038f5812f763c6ef0c5427cb5a05ce6d7064af2ba7d1d270bc02660b019fd939461387a836142bb565b613a2686959897969994939961461b565b988252601b908181528483205498613a3d8b61424a565b85601c5416905b868116828111613af95782811015613adc575080613a64613a6a92613e50565b906145c9565b9c909c5b8c1115613a8d57613a7f908d614715565b613a888c61424a565b613a44565b505094516001600160a01b0390961686525050505060208201929092529193507f143db27bc2036653dc6f962ff9d0b803163d4af50c256ca9e6927b3d6dcd019792508190506040810161389a565b869d919d52601e8452828887205416865284845287862054613a6e565b505050505050505061389a91929395507f143db27bc2036653dc6f962ff9d0b803163d4af50c256ca9e6927b3d6dcd0197945061387a565b9160018060a01b03928381169260009184835260209485805261ffff90604094828682205416613d1a57818152601d885282868220541615613d09578415613c8457613b7c8461461b565b918152601b80895286822054925b6001808683161115613c735781617fff911c1690818452601e8b528b89852054168452828b5284898520541115613bca57613bc59082614715565b613b8a565b5050505050919395509193505b601f54161561305f57613be861415e565b90613bf16141a8565b909210613c3a57505091516001600160a01b03909216825260208201527f143db27bc2036653dc6f962ff9d0b803163d4af50c256ca9e6927b3d6dcd019790806040810161389a565b9150915061389a7ffaeb8de771b867cf357f6b459a7002b62ec45d544a8078a3ecd91200cc826d7593613c6b61432d565b6139a1613ed4565b505050505091939550919350613bd7565b5091613cb7919597507f4a4c5d1a281180eea1e99d8177fa4798b9f7e019d5c57e7d8d73c6a22199aa5b94969350614476565b8451908152a1601f5416613cc85750565b61389a7f2e8038f5812f763c6ef0c5427cb5a05ce6d7064af2ba7d1d270bc02660b019fd91613cf56141a8565b929091613d00613ed4565b61387a836142bb565b8551632a55ca5360e01b8152600490fd5b9097968495939415613e1657613d2f85614652565b988252601b908181528483205498613d468b61424a565b85601f5416905b868116828111613df05782811015613dd3575080613d6d613d7392613e50565b90614261565b9c909c5b8c1015613d9657613d88908d6147ae565b613d918c61424a565b613d4d565b505094516001600160a01b03909616865250505050602082019290925291935060008051602061483d83398151915292508190506040810161389a565b869d919d5260218452828887205416865284845287862054613d77565b505050505050505061389a919293955060008051602061483d833981519152945061387a565b959794505050907f3168ba660eed6ef1dc2258b2247cc05fd0f2f350d39e6ad2e2ebc76a8000b40b9450613e499061403a565b51908152a1565b90600161ffff8093160191821161092c57565b61192090604061ffff613e7981601f5416613e50565b9260018060a01b0316600091818352602080528383209085169061ffff199082828254161790558184526021602052848420836001600160601b0360a01b825416179055601f541617601f558152601b6020522054906141f2565b61ffff80601f54168015614028576001613ef0828211156146f8565b6000818152602160208181526040808420805487865282862080546001600160a01b03928316808952868052858920805461ffff199081168d17909155918416808a52868a20805484168c17905588885283546001600160a01b031990811690921790935589895284541690911790925593969194939291613f859189613f768361338f565b1690601f541617601f55614676565b8483528581528184842054168352601b918282528484205496868099600281601f5416925b613fbd575b505050505050505050505050565b8181168381116140225783811015614006575080613d6d613fdd92613e50565b9b909b5b8b101561400157613ff2908c6147ae565b613ffb8b61424a565b89613faa565b613faf565b889c919c52838652848989205416885286865288882054613fe1565b50613faf565b6040516340d9b01160e01b8152600490fd5b61404390614652565b9061ffff9081601f54169161405883856147ae565b806140628461338f565b1661ffff19601f541617601f5561407883614676565b8084168093146141585760009280845260219360209185835260018060a01b03926040938085852054168452601b928383526140b7868620548b6141f2565b8452878252808585205416845282825284842054976140d58a61424a565b87601f5416905b888116828111614149578281101561412d575080613d6d6140fc92613e50565b9b909b5b8b101561411f57614111908c6147ae565b61411a8b61424a565b6140dc565b505050505050505050915050565b879c919c52828552838888205416875285855287872054614100565b50505050505050505050915050565b50915050565b61ffff601c541615614028577f873299c6a6c39b8b92f01922bb622df4a3236ea2876aac2da76f6c092cf7e98f546001600160a01b03166000818152601b60205260409020549091565b61ffff601f541615614028577f2b59c9df127166d3570f589f0cb7377a6b175795e70ab275ebf42fa16c0a23f4546001600160a01b03166000818152601b60205260409020549091565b9190915b60018061ffff831611156142445781617fff911c169083600083815260209060218252601b60409260018060a01b038484205416835252205410156142445761423f90826147ae565b6141f6565b50509050565b60011b906201fffe61fffe83169216820361092c57565b91909161ffff92604060008584168152602160205260018060a01b038083832054168252601b602052828220549684168252602160205282822054168152601b6020522054908185106142b45750509190565b9350919050565b61192090604061ffff6142d181601c5416613e50565b9260018060a01b0316600091818352601d6020528383209085169061ffff19908282825416179055818452601e602052848420836001600160601b0360a01b825416179055601c541617601c558152601b602052205490614577565b61ffff80601c54168015614028576001614349828211156146f8565b6000818152601e60208181526040808420805487865282862080546001600160a01b03928316808952601d8752858920805461ffff199081168d17909155918416808a52868a20805484168c17905588885283546001600160a01b0319908116909217909355898952845416909117909255939691949392916143df91896143d08361338f565b1690601c541617601c556146b6565b8483528581528184842054168352601b918282528484205496868099600281601c5416925b61441657505050505050505050505050565b818116838111614022578381101561445a575080613a6461443692613e50565b9b909b5b8b11156140015761444b908c614715565b6144548b61424a565b89614404565b889c919c5283865284898920541688528686528888205461443a565b61447f9061461b565b9061ffff9081601c5416916144948385614715565b8061449e8461338f565b1661ffff19601c541617601c556144b4836146b6565b80841680931461415857600092808452601e9360209185835260018060a01b03926040938085852054168452601b928383526144f3868620548b614577565b8452878252808585205416845282825284842054976145118a61424a565b87601c5416905b888116828111614149578281101561455b575080613a6461453892613e50565b9b909b5b8b111561411f5761454d908c614715565b6145568b61424a565b614518565b879c919c5282855283888820541687528585528787205461453c565b9190915b60018061ffff831611156142445781617fff911c1690836000838152602090601e8252601b60409260018060a01b03848420541683525220541115614244576145c49082614715565b61457b565b919061ffff604060008286168152601e60205260018060a01b038083832054168252601b602052828220549385168252601e60205282822054168152601b602052205493848211156142b45750509190565b6001600160a01b03166000908152601d602052604090205461ffff1690811561464057565b60405163f2755e3760e01b8152600490fd5b6001600160a01b0316600090815260208052604090205461ffff1690811561464057565b61ffff16600090815260216020908152604080832080546001600160a01b031981169091556001600160a01b031683529080529020805461ffff19169055565b61ffff166000908152601e6020908152604080832080546001600160a01b031981169091556001600160a01b03168352601d9091529020805461ffff19169055565b156146ff57565b634e487b7160e01b600052600160045260246000fd5b61473a61ffff8080601c5416931693614730848611156146f8565b16918211156146f8565b6000828152601e60208181526040808420805486865282862080546001600160a01b03928316808952601d8752858920805461ffff19908116909b1790559216808852938720805490981689179097559390925284546001600160a01b031990811690931790945593909152825416179055565b6147c961ffff8080601f5416931693614730848611156146f8565b6000828152602160208181526040808420805486865282862080546001600160a01b03928316808952868052858920805461ffff19908116909b1790559216808852938720805490981689179097559390925284546001600160a01b03199081169093179094559390915282541617905556feda148fac2e1063174be7bc0895576bdaba90fd14e575463fa26a967cb895cadda264697066735822122070298558e381b26280eca2310a9d517188811a06e04eb6c81c5ec22b93cc0e6664736f6c63430008130033",
    "linkReferences": {
      "src/lib/AccountHelper.sol": {
        "AccountHelper": [
          {
            "start": 13135,
            "length": 20
          }
        ]
      },
      "src/lib/CheckpointHelper.sol": {
        "CheckpointHelper": [
          {
            "start": 2793,
            "length": 20
          }
        ]
      },
      "src/lib/CrossMsgHelper.sol": {
        "CrossMsgHelper": [
          {
            "start": 9162,
            "length": 20
          }
        ]
      },
      "src/lib/StorableMsgHelper.sol": {
        "StorableMsgHelper": [
          {
            "start": 7685,
            "length": 20
          }
        ]
      },
      "src/lib/SubnetIDHelper.sol": {
        "SubnetIDHelper": [
          {
            "start": 288,
            "length": 20
          },
          {
            "start": 509,
            "length": 20
          },
          {
            "start": 699,
            "length": 20
          },
          {
            "start": 7507,
            "length": 20
          },
          {
            "start": 12740,
            "length": 20
          }
        ]
      }
    }
  },
  "methodIdentifiers": {
    "addCheckpointSignature(uint64,bytes32[],uint256,bytes)": "2a04f220",
    "applyCrossMessages(((((uint64,address[]),(uint8,bytes)),((uint64,address[]),(uint8,bytes)),uint256,uint64,bytes4,bytes,uint256),bool)[])": "c62eb4d5",
    "applyFinalityChanges()": "0df14461",
    "commitBottomUpCheckpoint(((uint64,address[]),uint64,bytes32,uint64,bytes32),((((uint64,address[]),(uint8,bytes)),((uint64,address[]),(uint8,bytes)),uint256,uint64,bytes4,bytes,uint256),bool)[])": "f456b39e",
    "commitParentFinality((uint256,bytes32))": "11196974",
    "createBottomUpCheckpoint(((uint64,address[]),uint64,bytes32,uint64,bytes32),bytes32,uint256)": "a656ca5b",
    "pruneBottomUpCheckpoints(uint64)": "ae00c298",
    "storeValidatorChanges(((uint8,bytes,address),uint64)[])": "e49a547d"
  },
  "id": 47
}