{"abi":[{"type":"function","name":"addBatchSignature","inputs":[{"name":"height","type":"uint256","internalType":"uint256"},{"name":"membershipProof","type":"bytes32[]","internalType":"bytes32[]"},{"name":"weight","type":"uint256","internalType":"uint256"},{"name":"signature","type":"bytes","internalType":"bytes"}],"outputs":[],"stateMutability":"nonpayable"},{"type":"function","name":"addCheckpointSignature","inputs":[{"name":"height","type":"uint256","internalType":"uint256"},{"name":"membershipProof","type":"bytes32[]","internalType":"bytes32[]"},{"name":"weight","type":"uint256","internalType":"uint256"},{"name":"signature","type":"bytes","internalType":"bytes"}],"outputs":[],"stateMutability":"nonpayable"},{"type":"function","name":"applyCrossMessages","inputs":[{"name":"crossMsgs","type":"tuple[]","internalType":"struct CrossMsg[]","components":[{"name":"message","type":"tuple","internalType":"struct StorableMsg","components":[{"name":"from","type":"tuple","internalType":"struct IPCAddress","components":[{"name":"subnetId","type":"tuple","internalType":"struct SubnetID","components":[{"name":"root","type":"uint64","internalType":"uint64"},{"name":"route","type":"address[]","internalType":"address[]"}]},{"name":"rawAddress","type":"tuple","internalType":"struct FvmAddress","components":[{"name":"addrType","type":"uint8","internalType":"uint8"},{"name":"payload","type":"bytes","internalType":"bytes"}]}]},{"name":"to","type":"tuple","internalType":"struct IPCAddress","components":[{"name":"subnetId","type":"tuple","internalType":"struct SubnetID","components":[{"name":"root","type":"uint64","internalType":"uint64"},{"name":"route","type":"address[]","internalType":"address[]"}]},{"name":"rawAddress","type":"tuple","internalType":"struct FvmAddress","components":[{"name":"addrType","type":"uint8","internalType":"uint8"},{"name":"payload","type":"bytes","internalType":"bytes"}]}]},{"name":"value","type":"uint256","internalType":"uint256"},{"name":"nonce","type":"uint64","internalType":"uint64"},{"name":"method","type":"bytes4","internalType":"bytes4"},{"name":"params","type":"bytes","internalType":"bytes"},{"name":"fee","type":"uint256","internalType":"uint256"}]},{"name":"wrapped","type":"bool","internalType":"bool"}]}],"outputs":[],"stateMutability":"nonpayable"},{"type":"function","name":"applyFinalityChanges","inputs":[],"outputs":[{"name":"","type":"uint64","internalType":"uint64"}],"stateMutability":"nonpayable"},{"type":"function","name":"commitCheckpoint","inputs":[{"name":"checkpoint","type":"tuple","internalType":"struct BottomUpCheckpoint","components":[{"name":"subnetID","type":"tuple","internalType":"struct SubnetID","components":[{"name":"root","type":"uint64","internalType":"uint64"},{"name":"route","type":"address[]","internalType":"address[]"}]},{"name":"blockHeight","type":"uint256","internalType":"uint256"},{"name":"blockHash","type":"bytes32","internalType":"bytes32"},{"name":"nextConfigurationNumber","type":"uint64","internalType":"uint64"}]}],"outputs":[],"stateMutability":"nonpayable"},{"type":"function","name":"commitParentFinality","inputs":[{"name":"finality","type":"tuple","internalType":"struct ParentFinality","components":[{"name":"height","type":"uint256","internalType":"uint256"},{"name":"blockHash","type":"bytes32","internalType":"bytes32"}]}],"outputs":[{"name":"hasCommittedBefore","type":"bool","internalType":"bool"},{"name":"previousFinality","type":"tuple","internalType":"struct ParentFinality","components":[{"name":"height","type":"uint256","internalType":"uint256"},{"name":"blockHash","type":"bytes32","internalType":"bytes32"}]}],"stateMutability":"nonpayable"},{"type":"function","name":"createBottomUpCheckpoint","inputs":[{"name":"checkpoint","type":"tuple","internalType":"struct BottomUpCheckpoint","components":[{"name":"subnetID","type":"tuple","internalType":"struct SubnetID","components":[{"name":"root","type":"uint64","internalType":"uint64"},{"name":"route","type":"address[]","internalType":"address[]"}]},{"name":"blockHeight","type":"uint256","internalType":"uint256"},{"name":"blockHash","type":"bytes32","internalType":"bytes32"},{"name":"nextConfigurationNumber","type":"uint64","internalType":"uint64"}]},{"name":"membershipRootHash","type":"bytes32","internalType":"bytes32"},{"name":"membershipWeight","type":"uint256","internalType":"uint256"}],"outputs":[],"stateMutability":"nonpayable"},{"type":"function","name":"createBottomUpMsgBatch","inputs":[{"name":"batch","type":"tuple","internalType":"struct BottomUpMsgBatch","components":[{"name":"subnetID","type":"tuple","internalType":"struct SubnetID","components":[{"name":"root","type":"uint64","internalType":"uint64"},{"name":"route","type":"address[]","internalType":"address[]"}]},{"name":"blockHeight","type":"uint256","internalType":"uint256"},{"name":"msgs","type":"tuple[]","internalType":"struct CrossMsg[]","components":[{"name":"message","type":"tuple","internalType":"struct StorableMsg","components":[{"name":"from","type":"tuple","internalType":"struct IPCAddress","components":[{"name":"subnetId","type":"tuple","internalType":"struct SubnetID","components":[{"name":"root","type":"uint64","internalType":"uint64"},{"name":"route","type":"address[]","internalType":"address[]"}]},{"name":"rawAddress","type":"tuple","internalType":"struct FvmAddress","components":[{"name":"addrType","type":"uint8","internalType":"uint8"},{"name":"payload","type":"bytes","internalType":"bytes"}]}]},{"name":"to","type":"tuple","internalType":"struct IPCAddress","components":[{"name":"subnetId","type":"tuple","internalType":"struct SubnetID","components":[{"name":"root","type":"uint64","internalType":"uint64"},{"name":"route","type":"address[]","internalType":"address[]"}]},{"name":"rawAddress","type":"tuple","internalType":"struct FvmAddress","components":[{"name":"addrType","type":"uint8","internalType":"uint8"},{"name":"payload","type":"bytes","internalType":"bytes"}]}]},{"name":"value","type":"uint256","internalType":"uint256"},{"name":"nonce","type":"uint64","internalType":"uint64"},{"name":"method","type":"bytes4","internalType":"bytes4"},{"name":"params","type":"bytes","internalType":"bytes"},{"name":"fee","type":"uint256","internalType":"uint256"}]},{"name":"wrapped","type":"bool","internalType":"bool"}]}]},{"name":"membershipRootHash","type":"bytes32","internalType":"bytes32"},{"name":"membershipWeight","type":"uint256","internalType":"uint256"}],"outputs":[],"stateMutability":"nonpayable"},{"type":"function","name":"execBottomUpMsgBatch","inputs":[{"name":"batch","type":"tuple","internalType":"struct BottomUpMsgBatch","components":[{"name":"subnetID","type":"tuple","internalType":"struct SubnetID","components":[{"name":"root","type":"uint64","internalType":"uint64"},{"name":"route","type":"address[]","internalType":"address[]"}]},{"name":"blockHeight","type":"uint256","internalType":"uint256"},{"name":"msgs","type":"tuple[]","internalType":"struct CrossMsg[]","components":[{"name":"message","type":"tuple","internalType":"struct StorableMsg","components":[{"name":"from","type":"tuple","internalType":"struct IPCAddress","components":[{"name":"subnetId","type":"tuple","internalType":"struct SubnetID","components":[{"name":"root","type":"uint64","internalType":"uint64"},{"name":"route","type":"address[]","internalType":"address[]"}]},{"name":"rawAddress","type":"tuple","internalType":"struct FvmAddress","components":[{"name":"addrType","type":"uint8","internalType":"uint8"},{"name":"payload","type":"bytes","internalType":"bytes"}]}]},{"name":"to","type":"tuple","internalType":"struct IPCAddress","components":[{"name":"subnetId","type":"tuple","internalType":"struct SubnetID","components":[{"name":"root","type":"uint64","internalType":"uint64"},{"name":"route","type":"address[]","internalType":"address[]"}]},{"name":"rawAddress","type":"tuple","internalType":"struct FvmAddress","components":[{"name":"addrType","type":"uint8","internalType":"uint8"},{"name":"payload","type":"bytes","internalType":"bytes"}]}]},{"name":"value","type":"uint256","internalType":"uint256"},{"name":"nonce","type":"uint64","internalType":"uint64"},{"name":"method","type":"bytes4","internalType":"bytes4"},{"name":"params","type":"bytes","internalType":"bytes"},{"name":"fee","type":"uint256","internalType":"uint256"}]},{"name":"wrapped","type":"bool","internalType":"bool"}]}]}],"outputs":[],"stateMutability":"nonpayable"},{"type":"function","name":"pruneBottomUpCheckpoints","inputs":[{"name":"newRetentionHeight","type":"uint256","internalType":"uint256"}],"outputs":[],"stateMutability":"nonpayable"},{"type":"function","name":"pruneBottomUpMsgBatches","inputs":[{"name":"newRetentionHeight","type":"uint256","internalType":"uint256"}],"outputs":[],"stateMutability":"nonpayable"},{"type":"function","name":"storeValidatorChanges","inputs":[{"name":"changeRequests","type":"tuple[]","internalType":"struct StakingChangeRequest[]","components":[{"name":"change","type":"tuple","internalType":"struct StakingChange","components":[{"name":"op","type":"uint8","internalType":"enum StakingOperation"},{"name":"payload","type":"bytes","internalType":"bytes"},{"name":"validator","type":"address","internalType":"address"}]},{"name":"configurationNumber","type":"uint64","internalType":"uint64"}]}],"outputs":[],"stateMutability":"nonpayable"},{"type":"error","name":"AddressEmptyCode","inputs":[{"name":"target","type":"address","internalType":"address"}]},{"type":"error","name":"AddressInsufficientBalance","inputs":[{"name":"account","type":"address","internalType":"address"}]},{"type":"error","name":"AddressShouldBeValidator","inputs":[]},{"type":"error","name":"BatchAlreadyExists","inputs":[]},{"type":"error","name":"BatchNotCreated","inputs":[]},{"type":"error","name":"CannotConfirmFutureChanges","inputs":[]},{"type":"error","name":"CheckpointAlreadyExists","inputs":[]},{"type":"error","name":"CheckpointNotCreated","inputs":[]},{"type":"error","name":"FailedAddIncompleteQuorum","inputs":[]},{"type":"error","name":"FailedAddSignatory","inputs":[]},{"type":"error","name":"FailedInnerCall","inputs":[]},{"type":"error","name":"FailedRemoveIncompleteQuorum","inputs":[]},{"type":"error","name":"InvalidActorAddress","inputs":[]},{"type":"error","name":"InvalidBatchEpoch","inputs":[]},{"type":"error","name":"InvalidBatchSource","inputs":[]},{"type":"error","name":"InvalidCheckpointEpoch","inputs":[]},{"type":"error","name":"InvalidCheckpointSource","inputs":[]},{"type":"error","name":"InvalidConfigurationNumber","inputs":[]},{"type":"error","name":"InvalidCrossMsgDstSubnet","inputs":[]},{"type":"error","name":"InvalidCrossMsgNonce","inputs":[]},{"type":"error","name":"InvalidRetentionHeight","inputs":[]},{"type":"error","name":"InvalidSignature","inputs":[]},{"type":"error","name":"InvalidSubnet","inputs":[]},{"type":"error","name":"MaxMsgsPerBatchExceeded","inputs":[]},{"type":"error","name":"NotAuthorized","inputs":[{"name":"","type":"address","internalType":"address"}]},{"type":"error","name":"NotEnoughBalance","inputs":[]},{"type":"error","name":"NotEnoughSubnetCircSupply","inputs":[]},{"type":"error","name":"NotRegisteredSubnet","inputs":[]},{"type":"error","name":"NotSystemActor","inputs":[]},{"type":"error","name":"OldConfigurationNumber","inputs":[]},{"type":"error","name":"PQDoesNotContainAddress","inputs":[]},{"type":"error","name":"PQEmpty","inputs":[]},{"type":"error","name":"ParentFinalityAlreadyCommitted","inputs":[]},{"type":"error","name":"QuorumAlreadyProcessed","inputs":[]},{"type":"error","name":"SignatureReplay","inputs":[]},{"type":"error","name":"SubnetNotActive","inputs":[]},{"type":"error","name":"SubnetNotFound","inputs":[]},{"type":"error","name":"ZeroMembershipWeight","inputs":[]}],"bytecode":{"object":"0x60808060405234610017576159a190816200001d8239f35b600080fdfe6080604052600436101561001257600080fd5b60003560e01c80630bed761514611b845780630df1446114611b505780631119697414611a8c57806332e7661f1461114457806347dc9b4f14610e7857806353b4e7bf14610b7357806374303771146108d1578063ac81837914610742578063bacc656d1461052a578063c62eb4d5146104ab578063e49a547d1461046a5763fa0fe184146100a057600080fd5b34610465576100ae36611ee4565b90929160125483106104535782600052602060098152600260406000200154156104415783600052601381526040600020926100eb818554614086565b50600481949294101561042b576104195760008681526016825260408082206001600160a01b038616808452600190910160205291205461040757604080516001600160a01b03909516838601908152602081018a90529085908201039461015b601f1996878101835282611e3c565b51902060405183810191825283815261017381611deb565b519020600195868801549190876000905b61039e575b5050036103865786600052601682526101a681604060002061428a565b1561037457866000526017825260406000209060005281526040600020928251926001600160401b03841161035e5783926101eb846101e5885461254b565b8861299c565b8092601f85116001146102fb5750506000926102f0575b5050600019600383901b1c191690831b1790555b6102256003830194855461227a565b90818555600283015482101561023757005b600483018054909260ff82166102b1575060ff1916179055610258826143d1565b1561029f576102997fc08568b61a3224ac0d48121f065552f2f645d3777d353bd87291108bc36514949360ff60115416925490549060405194859485614061565b0390a15b005b6040516344a7b48760e11b8152600490fd5b9150507f103355808c87614c31e835c1a86487b17b1e54cf36e0ac4469c8d1e892239cbc9450610299915060ff60115416925460405194859485614061565b015190503880610202565b879593929193168660005283600020936000905b828210610345575050841161032c575b505050811b019055610216565b015160001960f88460031b161c1916905538808061031f565b848401518655899790950194938401939081019061030f565b634e487b7160e01b600052604160045260246000fd5b604051633363140f60e01b8152600490fd5b60249060405190634a0bfec160e01b82526004820152fd5b90918251821015610401576103b38284612537565b5190818110156103f157600052855260406000205b9160001982146103db5790880188610184565b634e487b7160e01b600052601160045260246000fd5b90600052855260406000206103c8565b91610189565b604051635a3fd0d960e11b8152600490fd5b604051638baa579f60e01b8152600490fd5b634e487b7160e01b600052602160045260246000fd5b60405163a88f96f160e01b8152600490fd5b604051630108e13760e21b8152600490fd5b600080fd5b34610465576020366003190112610465576004356001600160401b0381116104655761049d61029d913690600401611f83565b906104a6613fea565b61448e565b34610465576020366003190112610465576001600160401b03600435818111610465576104dc903690600401611f83565b916104e5613fea565b60405191602083019182118383101761035e5761029d9361052492604052600084526040519361051485611deb565b60008552602085015236916123cb565b906127ec565b34610465576020806003193601126104655760043590610548613fea565b6012545b828110610693575060125480831115610681575b82811061056e576012839055005b8060005260138252604060002090600082556000600460019382858201558260028201558260038201550155601683526040600020805490600081558161065b575b505080600052604060002060405180828682945493848152019060005286600020926000905b878982841061064257505050506105ef92500382611e3c565b8051908360005b838110610607575050505001610560565b600085815260178852604090206001600160a01b036106268386612537565b5116600052875261063a6040600020613479565b0184906105f6565b90929450829193865481520194019201849293916105d6565b6000528284600020918201915b82811061067557506105b0565b60008155018390610668565b604051636819a3a960e01b8152600490fd5b806000526009908183526040600020916000835560036001936106b7858201612944565b60006002820155019081549060008355816106d6575b5050500161054c565b600d9282840292848404036103db5760005285600020918201915b8281106106fe57506106cd565b8061070985926134c2565b610715600482016134c2565b6000600882015560008382015561072e600a8201613479565b6000600b8201556000600c820155016106f1565b34610465576020806003193601126104655760043590610760613fea565b600b545b8281106108995750600b5480831115610681575b82811061078657600b839055005b80600052600c8252604060002090600082556000600460019382858201558260028201558260038201550155600f835260406000208054906000815581610873575b505080600052604060002060405180828682945493848152019060005286600020926000905b878982841061085a575050505061080792500382611e3c565b8051908360005b83811061081f575050505001610778565b600085815260108852604090206001600160a01b0361083e8386612537565b511660005287526108526040600020613479565b01849061080e565b90929450829193865481520194019201849293916107ee565b6000528284600020918201915b82811061088d57506107c8565b60008155018390610880565b806000526008825260406000209060008255600060046001936108bd858201612944565b826002820155826003820155015501610764565b3461046557600319606036820112610465576004356001600160401b03808211610465576080826004019383360301126104655760443592610911613fea565b602483013593610923601e54866132ee565b610b61578460005260209360088552600260406000200154610b4f576040519185830191868352610968610957868061330e565b6080604087015260c0860190613356565b928860608601526044820135948560808201526109a28160648501968a61098e89611fc8565b1660a083015203601f198101835282611e3c565b5190209160ff601d541690600b548a10610453578015610b3d576064916109c89161291a565b04916109d38961423d565b15610b2b57604051610a48916109e882611e21565b8152600489820160243581526040830195865260608301600081526080840191600083528d600052600c8d5260406000209451855551966001978886015551600285015551600384015551151591019060ff801983541691151516179055565b60405194608086018681108882111761035e576040523590868211610465576004610a769236920101611ff0565b8452610a8e8685019288845260408601948552611fc8565b966060850197885260005260088652604060002093519585875116966001600160401b03199788875416178655818387019101519182519288841161035e578190610ad98585612968565b0191600052806000209060005b848110610b11578b8b8b60048c8c8c5160028301555160038201550192511690825416179055600080f35b83516001600160a01b031683820155928101928501610ae6565b604051630cbd1cd360e11b8152600490fd5b604051634e8ac6e560e01b8152600490fd5b60405163b8a1eae160e01b8152600490fd5b60405163fae4eadb60e01b8152600490fd5b3461046557610b8136611ee4565b909291600b548310610453578260005260206008815260026040600020015415610e665783600052600c8152604060002092610bbe818554614086565b50600481949294101561042b57610419576000868152600f825260408082206001600160a01b038616808452600190910160205291205461040757604080516001600160a01b03909516838601908152602081018a905290859082010394610c2e601f1996878101835282611e3c565b519020604051838101918252838152610c4681611deb565b519020600195868801549190876000905b610e13575b5050036103865786600052600f8252610c7981604060002061428a565b1561037457866000526010825260406000209060005281526040600020928251926001600160401b03841161035e578392610cb8846101e5885461254b565b8092601f8511600114610db0575050600092610da5575b5050600019600383901b1c191690831b1790555b610cf26003830194855461227a565b908185556002830154821015610d0457005b600483018054909260ff8216610d66575060ff1916179055610d25826142e7565b1561029f576102997fc08568b61a3224ac0d48121f065552f2f645d3777d353bd87291108bc36514949360ff600a5416925490549060405194859485614061565b9150507f103355808c87614c31e835c1a86487b17b1e54cf36e0ac4469c8d1e892239cbc9450610299915060ff600a5416925460405194859485614061565b015190508780610ccf565b879593929193168660005283600020936000905b828210610dfa5750508411610de1575b505050811b019055610ce3565b015160001960f88460031b161c19169055878080610dd4565b8484015186558997909501949384019390810190610dc4565b90918251821015610e6057610e288284612537565b519081811015610e5057600052855260406000205b9160001982146103db5790880188610c57565b9060005285526040600020610e3d565b91610c5c565b6040516358cdd2e760e01b8152600490fd5b34610465576003196020368201811361046557600435916001600160401b0390818411610465578360040191608082863603011261046557610f0091610ec736610ec28680611fb3565b611ff0565b918573__$a0fe38a9a81205afccc10810b09a4d3f45$__9360405180968192632cff562160e11b835284600484015260248301906120a7565b0381865af49384156110c05760009461110d575b506001600160a01b039333908516036110fb57610f3033613cf3565b9590156110ea5791610f7094610f4e88959394610ec2369180611fb3565b9360405196879563c836244d60e01b87526040600488015260448701906120a7565b9285840301602486015260408301906004890154168352606060058901936040888201528454809352019260005285600020916000905b8282106110cc575050505082809103915af49081156110c057600091611093575b5015611081576003015460801c60ff16600681101561042b5760010361106f5760ff602c5460181c16610ff757005b60008061029d93604051602485820192632643057b60e11b8452013560248201528260448201528260648201526064815261103181611e21565b519082335af13d15611066573d61104781611e74565b906110556040519283611e3c565b8152600081933d92013e5b336121a3565b60609150611060565b60405163c18316bf60e01b8152600490fd5b6040516303b5db8360e11b8152600490fd5b6110b39150833d85116110b9575b6110ab8183611e3c565b810190612102565b84610fc8565b503d6110a1565b6040513d6000823e3d90fd5b8354811685528a978997509094019360019384019390910190610fa7565b6040516208ed5b60e31b8152600490fd5b604051637f39132760e11b8152600490fd5b9093508581813d831161113d575b6111258183611e3c565b810103126104655761113690612093565b9287610f14565b503d61111b565b3461046557600319606036820112610465576001600160401b036004351161046557606090600435360301126104655761117c613fea565b611190604460043501600435600401612203565b90506001600160401b036020541610611a7a576111b5601f54602460043501356132ee565b611a6857602460043501356000526009602052600260406000200154611a56576040516020808201526112006111ef60048035018061330e565b6060604084015260a0830190613356565b60246004350135606083015281611221604460043501600435600401613322565b603f93919319838303016080840152808252602082019060208160051b84010192856000915b83831061195057868603601f198101885287906112649082611e3c565b6020815191012060ff601d54166012546024600435013510610453576044358015610b3d576064916112959161291a565b04906112a6602460043501356141c0565b15610b2b5761132b91604051916112bc83611e21565b825260243560208301526040820152600060608201526000608082015260246004350135600052601360205260046080604060002092805184556020810151600185015560408101516002850155606081015160038501550151151591019060ff801983541691151516179055565b60405161133781611e06565b6001600160401b0360043560040135116104655761135e3660048035808201350101611ff0565b815260043560248101356020830152604401356001600160401b038111610465573660238260043501011215610465576113a9903690602460048281350101359160043501016123cb565b6040820152602081015160005260096020526040600020602082516001600160401b038151166001600160401b031984541617835501519182516001600160401b03811161035e57602060018401946114028387612968565b0193600052602060002060005b8281106119335784604085602081015160028401550151805190600160401b821161035e5760038301548260038501558083106118af575b50602060039101920160005260206000206000925b82841061146557005b805180518051602081516001600160401b038151166001600160401b031988541617875501518051906001600160401b03821161035e57602060018801916114ad8484612968565b0190600052602060002060005b838110611892575050505060209081600287019101519060ff82511660ff1982541617905501518051906001600160401b03821161035e57819061150e8261150560038a015461254b565b60038a0161299c565b602090601f831160011461182057600092611815575b50508160011b916000199060031b1c19161760038501555b60048401602080830151918251906001600160401b038251166001600160401b031982541617905501518051906001600160401b03821161035e57602060058801916115888484612968565b0190600052602060002060005b8381106117f8575050505060209081600687019101519060ff82511660ff1982541617905501518051906001600160401b03821161035e5781906115e9826115e060078a015461254b565b60078a0161299c565b602090601f83116001146117865760009261177b575b50508160011b916000199060031b1c19161760078501555b60408101516008850155600984016001600160401b0360608301511681549063ffffffff60401b608085015160a01c16916001600160601b0319161717905560a08101518051906001600160401b03821161035e576116868261167d600a89015461254b565b600a890161299c565b602090601f83116001146116fd57600d9460c060209585600199966116e69689966000926116f2575b5050600019600383901b1c1916908a1b17600a8b01555b0151600b89015501511515600c87019060ff801983541691151516179055565b0192019301929061145c565b015190508e806116af565b90600a870160005260206000209160005b601f198516811061176357509460c06020956001866116e6968996600d9b849d9a601f1981161061174a575b505050811b01600a8b01556116c6565b015160001960f88460031b161c191690558e808061173a565b9192602060018192868501518155019401920161170e565b0151905088806115ff565b9250600787016000526020600020906000935b601f19841685106117dd576001945083601f198116106117c4575b505050811b016007850155611617565b015160001960f88460031b161c191690558880806117b4565b81810151835560209485019460019093019290910190611799565b82516001600160a01b031681830155602090920191600101611595565b015190508880611524565b9250600387016000526020600020906000935b601f1984168510611877576001945083601f1981161061185e575b505050811b01600385015561153c565b015160001960f88460031b161c1916905588808061184e565b81810151835560209485019460019093019290910190611833565b82516001600160a01b0316818301556020909201916001016114ba565b600d8181020481036103db57600d8381020483036103db5760038401600052602060002083600d0281015b82600d02820181106118ed575050611447565b806118f9600d926134c2565b611905600482016134c2565b600060088201556000600982015561191f600a8201613479565b6000600b8201556000600c820155016118da565b85516001600160a01b03168183015560209095019460010161140f565b919395509193601f19828203018652611969878461330e565b60de1981360301813512156104655760208160019382611a3f81848197350194604085526119cc6119af61199d888061330e565b60e06040890152610120880190613418565b6119bb8489018961330e565b878203603f19016060890152613418565b604087013560808701526001600160401b036119ea60608901611fc8565b1660a0870152611a306001600160e01b0319611a0860808a016123a9565b169160c09283890152611a1e60a08a018a6133c6565b898303603f190160e08b0152906133f7565b960135610100860152016123be565b151591015298019601930190918795969492611247565b60405163d15f973b60e01b8152600490fd5b60405163200c52f760e21b8152600490fd5b60405163351c700760e01b8152600490fd5b3461046557604036600319011261046557604051611aa981611deb565b600081526000602080920152611abd613fea565b600081604051611acc81611deb565b828152015260025490600435808311611b3e5760609260005260018252604060002091600160405193611afe85611deb565b8054855201549181840192835280600052600182526040600020818155600160243591015560025582511515926040519384525190830152516040820152f35b60405163153ad84160e11b8152600490fd5b3461046557600036600319011261046557611b69613fea565b6020611b7361262b565b6001600160401b0360405191168152f35b34610465576003196020368201811361046557600435916001600160401b0383116104655760608360040191843603011261046557611bec82611bcb36610ec28580611fb3565b60405180938192632cff562160e11b835284600484015260248301906120a7565b038173__$a0fe38a9a81205afccc10810b09a4d3f45$__5af49081156110c057600091611db6575b50336001600160a01b0390911603611da157611c2f33613cf3565b9190156110ea5760ff600383015460801c1691600683101561042b57600180930361106f57600060446000960193611c678585612203565b60009291505b808310611d5257505050611c81908661227a565b906002810191825490808210611d4057611cc49560049561052495611cac611cb394611cbc96612287565b9055612203565b94909201612294565b9236916123cb565b60ff602c54821c16611cd257005b60405181810190632643057b60e11b82524360248201528360448201526000606482015260648152611d0381611e21565b834710611d285761029d9360009283925191335af13d15611066573d61104781611e74565b60405163cd78605960e01b8152306004820152602490fd5b604051631d36ca1560e21b8152600490fd5b90611d98611d84849a956040611d7c611d768698611d708e8e612203565b90612238565b80612265565b01359061227a565b9460c0611d7c611d768d611d708d8d612203565b98019190611c6d565b60405160016201ad9360e61b03198152600490fd5b90508281813d8311611de4575b611dcd8183611e3c565b8101031261046557611dde90612093565b84611c14565b503d611dc3565b604081019081106001600160401b0382111761035e57604052565b606081019081106001600160401b0382111761035e57604052565b60a081019081106001600160401b0382111761035e57604052565b90601f801991011681019081106001600160401b0382111761035e57604052565b6001600160401b03811161035e5760051b60200190565b6001600160401b03811161035e57601f01601f191660200190565b929192611e9b82611e74565b91611ea96040519384611e3c565b829481845281830111610465578281602093846000960137010152565b9080601f8301121561046557816020611ee193359101611e8f565b90565b90608060031983011261046557600435916001600160401b03916024358381116104655782602382011215610465578060040135611f2181611e5d565b91611f2f6040519384611e3c565b81835260209160248385019160051b8301019186831161046557602401905b828210611f745750505050926044359260643591821161046557611ee191600401611ec6565b81358152908301908301611f4e565b9181601f84011215610465578235916001600160401b038311610465576020808501948460051b01011161046557565b903590603e1981360301821215610465570190565b35906001600160401b038216820361046557565b35906001600160a01b038216820361046557565b9190604083820312610465576040519261200984611deb565b8361201382611fc8565b815260209182810135906001600160401b03821161046557019280601f8501121561046557833561204381611e5d565b946120516040519687611e3c565b818652848087019260051b8201019283116104655784809101915b83831061207b57505050500152565b819061208684611fdc565b815201910190849061206c565b51906001600160a01b038216820361046557565b60609060408301906001600160401b03815116845260209283809201519460408382015285518094520193019160005b8281106120e5575050505090565b83516001600160a01b0316855293810193928101926001016120d7565b90816020910312610465575180151581036104655790565b60408101906001600160401b036019541681526060602091604083820152601a548094520191601a6000527f057c384a7d1c54f3a1b2e5e67b2617b8224fdfd1ea7234eea573a6ff665ff63e916000905b828210612179575050505090565b83546001600160a01b03168552938401936001938401939091019061216b565b6002111561042b57565b90156121e1578151156121b4575090565b803b156121bf575090565b604051639996b31560e01b81526001600160a01b039091166004820152602490fd5b508051156121f157805190602001fd5b604051630a12f52160e11b8152600490fd5b903590601e198136030182121561046557018035906001600160401b03821161046557602001918160051b3603831361046557565b9082101561224f57611ee19160051b810190611fb3565b634e487b7160e01b600052603260045260246000fd5b90359060de1981360301821215610465570190565b919082018092116103db57565b919082039182116103db57565b906040516122a181611deb565b80926001600160401b03815416825260018091019160405191828481955492838652602080960191600052856000209060005b878682106122f057505050506122ec92500384611e3c565b0152565b83546001600160a01b03168552899550909301929181019181016122d4565b359060ff8216820361046557565b9190604083820312610465576040519261233684611deb565b838135916001600160401b03928381116104655784612356918301611ff0565b82526020810135908382116104655701604081850312610465576040519361237d85611deb565b6123868261230f565b85526020820135938411610465576020936123a19201611ec6565b828401520152565b35906001600160e01b03198216820361046557565b3590811515820361046557565b9291926123d782611e5d565b916040906123e782519485611e3c565b839581855260208095019160051b8401938185116104655780925b8584106124125750505050505050565b6001600160401b0390843582811161046557830190868286031261046557865161243b81611deb565b82358481116104655783019260e09485858903126104655789519586018681108282111761250a578a528435818111610465578861247a91870161231d565b86528b850135818111610465578861249391870161231d565b8c870152898501358a87015260606124ac818701611fc8565b9087015260806124bd8187016123a9565b9087015260a09182860135918211610465578c96866124fb946124e58c8b9a968b9701611ec6565b9083015260c080910135908201528452016123be565b83820152815201930192612402565b60246000634e487b7160e01b81526041600452fd5b9060016001600160401b03809316019182116103db57565b805182101561224f5760209160051b010190565b90600182811c9216801561257b575b602083101461256557565b634e487b7160e01b600052602260045260246000fd5b91607f169161255a565b90604051918260008254926125998461254b565b90818452600194858116908160001461260857506001146125c5575b50506125c392500383611e3c565b565b9093915060005260209081600020936000915b8183106125f05750506125c3935082010138806125b5565b855488840185015294850194879450918301916125d8565b9150506125c394506020925060ff191682840152151560051b82010138806125b5565b602a546001600160401b03919082811660001901908382116103db576126508261251f565b8480604093841c169116146127e457612668826146c5565b61ffff80602454169461267a86611e5d565b9261268781519485611e3c565b868452601f19938461269889611e5d565b019360209436868401376001809981805b61279d575b505050508051906126be82611e5d565b956126cb84519788611e3c565b8287526126d783611e5d565b018560005b8281106127745750505060005b82811061271257505050611ee194959650519261270584611deb565b835284169082015261380c565b89906001600160a01b036127268285612537565b5116806000526023885261275460028760002080549389519461274886611e06565b85528b85015201612585565b86820152612762828a612537565b5261276d8189612537565b50016126e9565b855161277f81611e06565b6000815260008382015260608782015282828b0101520186906126dc565b8381168281116127de5760009081526026895286902054849184916001600160a01b03166127d5846127ce8461447a565b1689612537565b520116826126a9565b506126ae565b506000925050565b81519160005b8381106127ff5750505050565b8061281661280f60019385612537565b51856129e1565b016127f2565b60005b83811061282f5750506000910152565b818101518382015260200161281f565b906020916128588151809281855285808601910161281c565b601f01601f1916010190565b60406020611ee1938161287e8551858452858401906120a7565b940151908281860391015260ff8151168452015191816020820152019061283f565b9060c0806129116128cf6128bd865160e0875260e0870190612864565b60208701518682036020880152612864565b604086015160408601526001600160401b03606087015116606086015263ffffffff60e01b608087015116608086015260a086015185820360a087015261283f565b93015191015290565b818102929181159184041417156103db57565b818110612938575050565b6000815560010161292d565b80546000825580612953575050565b6125c39160005260206000209081019061292d565b90600160401b811161035e5781549080835581811061298657505050565b6125c3926000526020600020918201910161292d565b9190601f81116129ab57505050565b6125c3926000526020600020906020601f840160051c830193106129d7575b601f0160051c019061292d565b90915081906129ca565b9190916020835101515173__$a0fe38a9a81205afccc10810b09a4d3f45$__9160405160208180612a27630c133d1360e31b9687835284600484015260248301906120a7565b0381875af49081156110c0576000916132cf575b506132bd57845160808101516001600160e01b031994919085161561329b575b50855192612a816040519463f47ad7eb60e01b86526040600487015260448601906128a0565b60208580612a9b600319948583820301602484015261211a565b038173__$386b5c41ce93e8b832daf8008b3d30ae09$__5af49485156110c057600095613255575b506020612af5818a51015151612b04604051948593849363c836244d60e01b85526040600486015260448501906120a7565b9083820301602484015261211a565b0381865af49081156110c057600091613236575b506130035750505050604051612bd38160208101936020855260c0612bb0885192604080860152612b56845160e060808801526101608701906134e5565b612b72602086015191607f1992838983030160a08a01526134e5565b916040860151858801526001600160401b0360608701511660e088015260808601511661010087015260a0850151908683030161012087015261283f565b91015161014083015260208701511515606083015203601f198101835282611e3c565b51902060005260036020526040600020825192835180516001600160401b038151166001600160401b0319855416178455602060018501910151908151916001600160401b03831161035e57602090612c2c8484612968565b0190600052602060002060005b838110612fe6575050505060209081600285019101519060ff82511660ff1982541617905501518051906001600160401b03821161035e578190612c8d82612c84600388015461254b565b6003880161299c565b602090601f8311600114612f7457600092612f69575b50508160011b916000199060031b1c19161760038301555b600482016020850151908151906001600160401b038251166001600160401b0319825416179055602060058501910151908151916001600160401b03831161035e57602090612d0a8484612968565b0190600052602060002060005b838110612f4c57505050506020600684019101519060ff82511660ff198254161790556020600784019101518051906001600160401b03821161035e578190612d6a82612d64865461254b565b8661299c565b602090601f8311600114612ee657600092612edb575b50508160011b916000199060031b1c19161790555b60408401516008830155600982016001600160401b0360608601511681549063ffffffff60401b608088015160a01c16916001600160601b03191617179055600a82019360a08101519485516001600160401b03811161035e57612e0381612dfd845461254b565b8461299c565b6020601f8211600114612e675792600c94928260c0936020966125c39a9b600092612e5c575b50508160011b916000199060031b1c19161790555b0151600b8501550151151591019060ff801983541691151516179055565b015190503880612e29565b601f198216978360005260206000209860005b818110612ec35750836125c3999a60209794600c99979460c09760019510612eaa575b505050811b019055612e3e565b015160001960f88460031b161c19169055388080612e9d565b838301518b556001909a019960209384019301612e7a565b015190503880612d80565b6000858152602081209350601f198516905b818110612f345750908460019594939210612f1b575b505050811b019055612d95565b015160001960f88460031b161c19169055388080612f0e565b92936020600181928786015181550195019301612ef8565b82516001600160a01b031681830155602090920191600101612d17565b015190503880612ca3565b9250600385016000526020600020906000935b601f1984168510612fcb576001945083601f19811610612fb2575b505050811b016003830155612cbb565b015160001960f88460031b161c19169055388080612fa2565b81810151835560209485019460019093019290910190612f87565b82516001600160a01b031681830155602090920191600101612c39565b909192935061301484969596612199565b60018414613163575b50505061302981612199565b15613101575b6000604051808093635c46fefb60e11b825260206004830152602061306082516040602486015260648501906128a0565b91015115156044830152038173__$33b79814e84bf6cf5e47244090b19ce5f8$__5af480156110c0576130905750565b3d806000833e6130a08183611e3c565b810190602081830312610465578051906001600160401b038211610465570181601f82011215610465578051906130d682611e74565b926130e46040519485611e3c565b82845260208383010111610465576020806125c39401910161281c565b601d546001600160401b03808260481c16906060845101511681036131515761313567ffffffffffffffff60481b9161251f565b60481b169067ffffffffffffffff60481b191617601d5561302f565b60405163a57cadff60e01b8152600490fd5b6020906040519283918252826004830152818061318360248201886120a7565b03915af49081156110c057600091613217575b50156131a4575b808061301d565b6131ad90613ef4565b90156132055760030180546001600160401b03808260401c1690606086510151168103613151576131e967ffffffffffffffff60401b9161251f565b60401b169067ffffffffffffffff60401b19161790553861319d565b604051630e991abd60e41b8152600490fd5b613230915060203d6020116110b9576110ab8183611e3c565b38613196565b61324f915060203d6020116110b9576110ab8183611e3c565b38612b18565b6020959195813d602011613293575b8161327160209383611e3c565b8101031261328f575190600282101561328c57509338612ac3565b80fd5b5080fd5b3d9150613264565b6040015147106132ab5738612a5b565b60405163569d45cf60e11b8152600490fd5b60405163c5f563eb60e01b8152600490fd5b6132e8915060203d6020116110b9576110ab8183611e3c565b38612a3b565b81156132f8570690565b634e487b7160e01b600052601260045260246000fd5b9035603e1982360301811215610465570190565b9035601e19823603018112156104655701602081359101916001600160401b038211610465578160051b3603831361046557565b60408201916001600160401b0361336c83611fc8565b168152606061338060209384810190613322565b839195604086839601525201929160005b82811061339f575050505090565b909192938280600192838060a01b036133b789611fdc565b16815201950193929101613391565b9035601e19823603018112156104655701602081359101916001600160401b03821161046557813603831361046557565b908060209392818452848401376000828201840152601f01601f1916010190565b6040613469611ee19361344861343d613431868061330e565b85845285840190613356565b94602081019061330e565b90602081860391015260ff61345c8261230f565b16845260208101906133c6565b91909281602082015201916133f7565b613483815461254b565b908161348d575050565b81601f6000931160011461349f575055565b9080839182526134be601f60208420940160051c84016001850161292d565b5555565b60036125c391600081556134d860018201612944565b6000600282015501613479565b91908251906040815260808101936001600160401b038351166040830152602080930151946040606084015285518091528360a0840196019060005b8181106135555750505093604083819381611ee197980151908281860391015260ff8151168452015193820152019061283f565b82516001600160a01b031688529685019691850191600101613521565b90815180825260208092019182818360051b85019501936000915b84831061359d5750505050505090565b90919293949584806135da83856001950387528a5180518252858060a01b038482015116848301526040809101519160608092820152019061283f565b980193019301919493929061358d565b908082146136be576135fc815461254b565b906001600160401b03821161035e57819061361b82612d64865461254b565b600090601f831160011461365257600092613647575b50508160011b916000199060031b1c1916179055565b015490503880613631565b81526020808220858352818320935090601f1985169083905b8282106136a557505090846001959493921061368c575b505050811b019055565b015460001960f88460031b161c19169055388080613682565b849581929585015481556001809101960194019061366b565b5050565b60045481101561224f576003906004600052027f8a35acfbc15ff81a39ae7d344fd709f28e8600b4aa8c65c6b64bfe7fe36bd19b0190600090565b906137f65781518155600190604060028383019260209360018060a01b0385880151166001600160601b0360a01b82541617905501930151908151916001600160401b03831161035e5761375b83613755875461254b565b8761299c565b81601f84116001146137945750928293918392600094613789575b50501b916000199060031b1c1916179055565b015192503880613776565b919083601f1981168760005284600020946000905b888383106137dc57505050106137c357505050811b019055565b015160001960f88460031b161c19169055388080613682565b8587015188559096019594850194879350908101906137a9565b634e487b7160e01b600052600060045260246000fd5b604080519160209182845261382b825182858701526060860190613572565b927f7ecdac482334c36fccbe374318cfe74ea0c8181394890ddec894a10f0fcc748181840195806001600160401b039687895116868301520390a183600554169081613b17575b505050600490815493600160401b93848611613b025760065486600655808710613a63575b5060066000908152957ff652222313e28459528d920b65115c16c04f3efc82aaedc97be59f3f377c0d3f877f8a35acfbc15ff81a39ae7d344fd709f28e8600b4aa8c65c6b64bfe7fe36bd19b5b838210613a0e57505050508060055416916001600160401b03199283600754161760075583515193855496885b86811061399c575050505116906005541617600555808311613934575b50505050565b8281101561392e5781548015613989576000190190613952826136c2565b9290926139775785835561396f6002600194888682015501613479565b835501613934565b634e487b7160e01b8652858452602486fd5b634e487b7160e01b855260318352602485fd5b888110156139cb57806139c56139b56001938651612537565b516139bf836136c2565b906136fd565b01613911565b6139d6818451612537565b518854838110156139fb57600192916139bf82856139f694018d556136c2565b6139c5565b634e487b7160e01b8c5260418a5260248cfd5b806001918403613a29575b60038091019301910190916138e4565b805484558180850190838060a01b0390830154166001600160601b0360a01b825416179055613a5e60028083019086016135ea565b613a19565b6003908082029082820403613aed578782028281048903613ad857600090600682527ff652222313e28459528d920b65115c16c04f3efc82aaedc97be59f3f377c0d3f92830192015b828110613abb57505050613897565b8082859255826001820155613ad260028201613479565b01613aac565b601187634e487b7160e01b6000525260246000fd5b601186634e487b7160e01b6000525260246000fd5b604184634e487b7160e01b6000525260246000fd5b84865116856007541690818114613c045710613bf357825192613b3984611deb565b600454613b4581611e5d565b91613b5281519384611e3c565b8183528383019060046000527f8a35acfbc15ff81a39ae7d344fd709f28e8600b4aa8c65c6b64bfe7fe36bd19b906000925b848410613bb1575050509185525050820152613ba09082613c0e565b613bac57388080613872565b505050565b6003876001928451613bc281611e06565b86548152848060a01b03858801541683820152613be160028801612585565b86820152815201930193019291613b84565b8251633746be2560e11b8152600490fd5b5050505050505050565b6001600160401b039060209180838301511690838501511603613caf57613c3481613cb7565b613c3d84613cb7565b03613caf5751805183515103613caf57613ca8613c9c916040519081613c6d868201928784526040830190613572565b0391613c81601f1993848101835282611e3c565b51902094516040519384918683019687526040830190613572565b03908101835282611e3c565b5190201490565b505050600090565b8051519060009182915b818310613cce5750505090565b909192613cea600191613ce2868551612537565b51519061227a565b93019190613cc1565b6001600160a01b0390811691908215613ee257604092835193613d1585611deb565b6001600160401b0391826019541686528151958690601a54908189526020809901926000978893601a85527f057c384a7d1c54f3a1b2e5e67b2617b8224fdfd1ea7234eea573a6ff665ff63e9185905b8d838310613ec5575050505050613d8281613da894950382611e3c565b818a0152845163aa5106cb60e01b815260048101869052938492839260448401906120a7565b906024830152038173__$a0fe38a9a81205afccc10810b09a4d3f45$__5af4938415613eba578094613de8575b50505050613de4919250613ef4565b9091565b90919293503d8082843e613dfc8184611e3c565b820191868184031261328f57805190858211613eb2570193838584031261328f57835194613e2986611deb565b80518281168103613eb657865287810151918211613eb2570182601f8201121561328f57805191613e65613e5c84611e5d565b95519586611e3c565b828552878086019360051b83010193841161328c57508601905b828210613e9b57505050613de492938201528291388080613dd5565b868091613ea784612093565b815201910190613e7f565b8280fd5b8380fd5b8251903d90823e3d90fd5b845482168952909701968b96506001938401939190910190613d65565b6040516370e4510960e01b8152600490fd5b613f3273__$a0fe38a9a81205afccc10810b09a4d3f45$__91604051906390ba52cf60e01b82528180602094859384600484015260248301906120a7565b0381865af49081156110c057600091613fbd575b5060005260008152613f8781604060002093613f6460048601612294565b906040518080958194630c133d1360e31b835286600484015260248301906120a7565b03915af49182156110c057600092613fa0575b50501591565b613fb69250803d106110b9576110ab8183611e3c565b3880613f9a565b908282813d8311613fe3575b613fd38183611e3c565b8101031261328c57505138613f46565b503d613fc9565b604051635d3f8a6960e01b815233600482015260208160248173__$e800e3908cdbb6b1b5bd452383a17b18f7$__5af49081156110c057600091614043575b501561403157565b60405163f0d97f3b60e01b8152600490fd5b61405b915060203d81116110b9576110ab8183611e3c565b38614029565b90949392606092608083019661407681612199565b8352602083015260408201520152565b81519190604183036140b7576140b092506020820151906060604084015193015160001a906140c2565b9192909190565b505060009160029190565b91907f7fffffffffffffffffffffffffffffff5d576e7357a4501ddfe92f46681b20a0841161414657926020929160ff608095604051948552168484015260408301526060820152600092839182805260015afa1561413a5780516001600160a01b0381161561413157918190565b50809160019190565b604051903d90823e3d90fd5b50505060009160039190565b60145481101561224f5760146000527fce6d7b5282bd9a3661ae061feed1dbda4e52ab073b1f9285be6e155d9c38d4ec0190600090565b600d5481101561224f57600d6000527fd7b6990105719101dabeb77144f2a3385c8033acd3af97e9423a695e81ad1eb50190600090565b60008181526015602052604081205461423857601454600160401b8110156142245790826142106141f984600160409601601455614152565b819391549060031b91821b91600019901b19161790565b905560145492815260156020522055600190565b634e487b7160e01b82526041600452602482fd5b905090565b6000818152600e602052604081205461423857600d54600160401b8110156142245790826142766141f984600160409601600d55614189565b9055600d54928152600e6020522055600190565b60008281526001820160205260409020546142e057805490600160401b82101561035e576001820180825582101561224f5782600192826000526020600020015580549260005201602052604060002055600190565b5050600090565b6000818152600e602052604081205490919080156143cc57600019908082018181116143b857600d54908382019182116143a457808203614370575b505050600d54801561435c5781019061433b82614189565b909182549160031b1b19169055600d558152600e6020526040812055600190565b634e487b7160e01b84526031600452602484fd5b61438e61437f6141f993614189565b90549060031b1c928392614189565b90558452600e6020526040842055388080614323565b634e487b7160e01b86526011600452602486fd5b634e487b7160e01b85526011600452602485fd5b505090565b60008181526015602052604081205490919080156143cc57600019908082018181116143b857601454908382019182116143a457808203614446575b505050601454801561435c5781019061442582614152565b909182549160031b1b19169055601455815260156020526040812055600190565b6144646144556141f993614152565b90549060031b1c928392614152565b905584526015602052604084205538808061440d565b61ffff90811660001901919082116103db57565b919080156146ab5760005b8181106144a65750509050565b6144b1818386612238565b9060406144be83806146b0565b01356001600160a01b0381811691829003610465576144dd84806146b0565b35936003851015610465576144f281806146b0565b906020918281013590601e198136030182121561046557019384356001600160401b0395868211610465578401813603811361046557614533913691611e8f565b9385602a541694604051986145478a611e06565b89528489019081526040890192835285600052602b855260406000209851600381101561042b5760ff80198b541691161789555197885198878a1161035e576001998a8301916145a18261459b855461254b565b8561299c565b8790601f8311600114614636576002949392916000918361462b575b5050600019600383901b1c1916908c1b1790555b019151166001600160601b0360a01b825416179055836145f08461251f565b166001600160401b0319602a541617602a55013591821680920361046557036146195701614499565b604051631aba532960e21b8152600490fd5b0151905038806145bd565b9392918c918360005289600020906000601f198416905b8c82821061468857505096836002981061466f575b505050811b0190556145d1565b015160001960f88460031b161c19169055388080614662565b919295899487849397999a9b015181550195019301908f9492979695939161464d565b509050565b903590605e1981360301821215610465570190565b602a546001600160401b039283831692919084821684106146f25760405163040aaa0560e11b8152600490fd5b848260401c1684106148c7579392919083604091821c16945b84861684811161489057600096818852602b97602098808a528582209960029460018060a01b03868d01541660ff8d5416600381101561487c57808803614792575060018c9d61476c92879e9a9b9c9d9e526023855201878b8720016135ea565b83525285812092818455600193614784858201613479565b01550116949392919061470b565b906147a060019e8f01612585565b848180518101031261487857908e8e9f8c9d9e9f9b9c93870151941460001461483a579061481392918189528a6023918289528a6147e18887832054612287565b9586948683528b528120918201805485159081614831575b50156148275761480e94508183555501613479565b614c3b565b6148206022918254612287565b905561476c565b5050905055614c3b565b905015386147f9565b5061487392818852614854816023948589528a205461227a565b928289528652828d89205561486c602291825461227a565b90556148ce565b61476c565b8680fd5b634e487b7160e01b86526021600452602486fd5b509450925067ffffffffffffffff60401b91506148ac9061251f565b602a54921b169067ffffffffffffffff60401b191617602a55565b9350505050565b919060018060a01b03928381169360008581526020956025875261ffff91604097838983205416614b1f578360215416846024541610614aeb5786614911615266565b91909110614a6557508282526028815283898320541661498457505050505061497f7f19fe3ca603e87854a0747cc10abf06bac64d61bac73d6d15f2fd3ca448f15264939461495f83614f77565b516001600160a01b03909216825260208201929092529081906040820190565b0390a1565b6149938695999498979661577d565b92825260239081815284832054935b6001808b83161115614a2f5781617fff911c1690818552602983528b87862054168552838352858786205410156149e2576149dd90826158dc565b6149a2565b505093516001600160a01b0390951685525050505060208101919091529092507fda148fac2e1063174be7bc0895576bdaba90fd14e575463fa26a967cb895cadd9150806040810161497f565b50505050505061497f91929395507fda148fac2e1063174be7bc0895576bdaba90fd14e575463fa26a967cb895cadd945061495f565b95965061497f9450906028899493927ffaeb8de771b867cf357f6b459a7002b62ec45d544a8078a3ecd91200cc826d75999a93614aa0615435565b835252205416614add575b614ab4846153c3565b614abd83614f77565b516001600160a01b03928316815292909116602083015281906040820190565b614ae684615150565b614aab565b505050505061497f7f2e8038f5812f763c6ef0c5427cb5a05ce6d7064af2ba7d1d270bc02660b019fd939461495f836153c3565b614b30869598979699949399615746565b9882526023908181528483205498614b478b615352565b8560245416905b868116828111614c035782811015614be6575080614b6e614b7492614f64565b906156f4565b9c909c5b8c1115614b9757614b89908d615843565b614b928c615352565b614b4e565b505094516001600160a01b0390961686525050505060208201929092529193507f143db27bc2036653dc6f962ff9d0b803163d4af50c256ca9e6927b3d6dcd019792508190506040810161497f565b869d919d5260268452828887205416865284845287862054614b78565b505050505050505061497f91929395507f143db27bc2036653dc6f962ff9d0b803163d4af50c256ca9e6927b3d6dcd0197945061495f565b9160018060a01b0392838116926000918483526020946028865261ffff90604094828682205416614e25578181526025885282868220541615614e14578415614d8f57614c8784615746565b918152602380895286822054925b6001808683161115614d7e5781617fff911c169081845260268b528b89852054168452828b5284898520541115614cd557614cd09082615843565b614c95565b5050505050919395509193505b6027541615613bac57614cf3615266565b90614cfc6152b0565b909210614d4557505091516001600160a01b03909216825260208201527f143db27bc2036653dc6f962ff9d0b803163d4af50c256ca9e6927b3d6dcd019790806040810161497f565b9150915061497f7ffaeb8de771b867cf357f6b459a7002b62ec45d544a8078a3ecd91200cc826d7593614d76615435565b614aab614fe9565b505050505091939550919350614ce2565b5091614dc2919597507f4a4c5d1a281180eea1e99d8177fa4798b9f7e019d5c57e7d8d73c6a22199aa5b9496935061557e565b8451908152a160275416614dd35750565b61497f7f2e8038f5812f763c6ef0c5427cb5a05ce6d7064af2ba7d1d270bc02660b019fd91614e006152b0565b929091614e0b614fe9565b61495f836153c3565b8551632a55ca5360e01b8152600490fd5b90939596869893959815614f2b579261fffe929493614e438761577d565b9483526023918282528a8420549580976001968792831b168160275416925b614eb7575b50509a516001600160a01b039098168852505050506020840194909452509293507fda148fac2e1063174be7bc0895576bdaba90fd14e575463fa26a967cb895cadd92509050806040810161497f565b818116838111614f25578e9080851115614f0957505080614eda614ee092614f64565b90615369565b9990995b891015614f0457614ef5908a6158dc565b614efe89615352565b87614e62565b614e67565b885260298652872054841687528585528d872054909990614ee4565b50614e67565b95505050509093614f5d7f3168ba660eed6ef1dc2258b2247cc05fd0f2f350d39e6ad2e2ebc76a8000b40b9495615150565b51908152a1565b90600161ffff809316019182116103db57565b6125c390604061ffff614f8d8160275416614f64565b9260018060a01b031660009181835260286020528383209085169061ffff199082828254161790558184526029602052848420836001600160601b0360a01b8254161790556027541617602755815260236020522054906152fa565b61ffff8060275416801561513e57600161500582821115615826565b6000818152602960208181526040808420805487865282862080546001600160a01b0392831680895260288752858920805461ffff199081168d17909155918416808a52868a20805484168c17905588885283546001600160a01b03199081169092179093558989528454169091179092559396919493929161509b918961508c8361447a565b169060275416176027556157a2565b8483528581528184842054168352602391828252848420549686809960028160275416925b6150d3575b505050505050505050505050565b818116838111615138578381101561511c575080614eda6150f392614f64565b9b909b5b8b101561511757615108908c6158dc565b6151118b615352565b896150c0565b6150c5565b889c919c528386528489892054168852868652888820546150f7565b506150c5565b6040516340d9b01160e01b8152600490fd5b6151599061577d565b61ffff80602754169061516c82846158dc565b806151768361447a565b1661ffff19602754161760275561518c826157a2565b808316809214613bac57919061fffe906000818152602991602083815260018060a01b0360409481868620541685526023938484526151ce878720548a6152fa565b85528083528186862054168552838352858520549780996001988992831b168160275416925b61520657505050505050505050505050565b818116838111615138578381101561524a575080614eda61522692614f64565b9b909b5b8b10156151175761523b908c6158dc565b6152448b615352565b896151f4565b889c919c5283865284898920541688528686528888205461522a565b61ffff602454161561513e577f5db1dfd2ced311e642486f0e890a646498a1bdee1ad9403b0a73141af8a4c411546001600160a01b03166000818152602360205260409020549091565b61ffff602754161561513e577f6e777cacfc4ad3a3cac3b8e17ccbbe9f6893bdc61d89783315eee44e3959da21546001600160a01b03166000818152602360205260409020549091565b9190915b60018061ffff8316111561534c5781617fff911c169083600083815260209060298252602360409260018060a01b0384842054168352522054101561534c5761534790826158dc565b6152fe565b50509050565b60011b906201fffe61fffe8316921682036103db57565b91909161ffff92604060008584168152602960205260018060a01b038083832054168252602360205282822054968416825260296020528282205416815260236020522054908185106153bc5750509190565b9350919050565b6125c390604061ffff6153d98160245416614f64565b9260018060a01b031660009181835260256020528383209085169061ffff199082828254161790558184526026602052848420836001600160601b0360a01b8254161790556024541617602455815260236020522054906156a2565b61ffff8060245416801561513e57600161545182821115615826565b6000818152602660208181526040808420805487865282862080546001600160a01b0392831680895260258752858920805461ffff199081168d17909155918416808a52868a20805484168c17905588885283546001600160a01b0319908116909217909355898952845416909117909255939691949392916154e791896154d88361447a565b169060245416176024556157e4565b8483528581528184842054168352602391828252848420549686809960028160245416925b61551e57505050505050505050505050565b8181168381116151385783811015615562575080614b6e61553e92614f64565b9b909b5b8b111561511757615553908c615843565b61555c8b615352565b8961550c565b889c919c52838652848989205416885286865288882054615542565b61558790615746565b9061ffff9081602454169161559c8385615843565b806155a68461447a565b1661ffff1960245416176024556155bc836157e4565b80841680931461569c5760009280845260269360209185835260018060a01b039260409380858520541684526023928383526155fb868620548b6156a2565b8452878252808585205416845282825284842054976156198a615352565b8760245416905b88811682811161568d5782811015615671575080614b6e61564092614f64565b9b909b5b8b111561566357615655908c615843565b61565e8b615352565b615620565b505050505050505050915050565b879c919c52828552838888205416875285855287872054615644565b50505050505050505050915050565b50915050565b9190915b60018061ffff8316111561534c5781617fff911c169083600083815260209060268252602360409260018060a01b0384842054168352522054111561534c576156ef9082615843565b6156a6565b919061ffff604060008286168152602660205260018060a01b03808383205416825260236020528282205493851682526026602052828220541681526023602052205493848211156153bc5750509190565b6001600160a01b031660009081526025602052604090205461ffff1690811561576b57565b60405163f2755e3760e01b8152600490fd5b6001600160a01b031660009081526028602052604090205461ffff1690811561576b57565b61ffff16600090815260296020908152604080832080546001600160a01b031981169091556001600160a01b0316835260289091529020805461ffff19169055565b61ffff16600090815260266020908152604080832080546001600160a01b031981169091556001600160a01b0316835260259091529020805461ffff19169055565b1561582d57565b634e487b7160e01b600052600160045260246000fd5b61586861ffff80806024541693169361585e84861115615826565b1691821115615826565b6000828152602660208181526040808420805486865282862080546001600160a01b0392831680895260258752858920805461ffff19908116909b1790559216808852938720805490981689179097559390925284546001600160a01b031990811690931790945593909152825416179055565b6158f761ffff80806027541693169361585e84861115615826565b6000828152602960208181526040808420805486865282862080546001600160a01b0392831680895260288752858920805461ffff19908116909b1790559216808852938720805490981689179097559390925284546001600160a01b03199081169093179094559390915282541617905556fea2646970667358221220675e19187fd69d5e360a75ba7c6b7f70dfbbbb4e1fd2dd188e48fb94a22a5fa964736f6c63430008130033","linkReferences":{"src/lib/AccountHelper.sol":{"AccountHelper":[{"start":16418,"length":20}]},"src/lib/CrossMsgHelper.sol":{"CrossMsgHelper":[{"start":12427,"length":20}]},"src/lib/StorableMsgHelper.sol":{"StorableMsgHelper":[{"start":10940,"length":20}]},"src/lib/SubnetIDHelper.sol":{"SubnetIDHelper":[{"start":3816,"length":20},{"start":7181,"length":20},{"start":10762,"length":20},{"start":15823,"length":20},{"start":16150,"length":20}]}}},"methodIdentifiers":{"addBatchSignature(uint256,bytes32[],uint256,bytes)":"fa0fe184","addCheckpointSignature(uint256,bytes32[],uint256,bytes)":"53b4e7bf","applyCrossMessages(((((uint64,address[]),(uint8,bytes)),((uint64,address[]),(uint8,bytes)),uint256,uint64,bytes4,bytes,uint256),bool)[])":"c62eb4d5","applyFinalityChanges()":"0df14461","commitCheckpoint(((uint64,address[]),uint256,bytes32,uint64))":"47dc9b4f","commitParentFinality((uint256,bytes32))":"11196974","createBottomUpCheckpoint(((uint64,address[]),uint256,bytes32,uint64),bytes32,uint256)":"74303771","createBottomUpMsgBatch(((uint64,address[]),uint256,((((uint64,address[]),(uint8,bytes)),((uint64,address[]),(uint8,bytes)),uint256,uint64,bytes4,bytes,uint256),bool)[]),bytes32,uint256)":"32e7661f","execBottomUpMsgBatch(((uint64,address[]),uint256,((((uint64,address[]),(uint8,bytes)),((uint64,address[]),(uint8,bytes)),uint256,uint64,bytes4,bytes,uint256),bool)[]))":"0bed7615","pruneBottomUpCheckpoints(uint256)":"ac818379","pruneBottomUpMsgBatches(uint256)":"bacc656d","storeValidatorChanges(((uint8,bytes,address),uint64)[])":"e49a547d"},"id":47}