{"abi":[{"type":"function","name":"addBottomUpMsgBatchSignature","inputs":[{"name":"height","type":"uint256","internalType":"uint256"},{"name":"membershipProof","type":"bytes32[]","internalType":"bytes32[]"},{"name":"weight","type":"uint256","internalType":"uint256"},{"name":"signature","type":"bytes","internalType":"bytes"}],"outputs":[],"stateMutability":"nonpayable"},{"type":"function","name":"addCheckpointSignature","inputs":[{"name":"height","type":"uint256","internalType":"uint256"},{"name":"membershipProof","type":"bytes32[]","internalType":"bytes32[]"},{"name":"weight","type":"uint256","internalType":"uint256"},{"name":"signature","type":"bytes","internalType":"bytes"}],"outputs":[],"stateMutability":"nonpayable"},{"type":"function","name":"applyCrossMessages","inputs":[{"name":"crossMsgs","type":"tuple[]","internalType":"struct CrossMsg[]","components":[{"name":"message","type":"tuple","internalType":"struct StorableMsg","components":[{"name":"from","type":"tuple","internalType":"struct IPCAddress","components":[{"name":"subnetId","type":"tuple","internalType":"struct SubnetID","components":[{"name":"root","type":"uint64","internalType":"uint64"},{"name":"route","type":"address[]","internalType":"address[]"}]},{"name":"rawAddress","type":"tuple","internalType":"struct FvmAddress","components":[{"name":"addrType","type":"uint8","internalType":"uint8"},{"name":"payload","type":"bytes","internalType":"bytes"}]}]},{"name":"to","type":"tuple","internalType":"struct IPCAddress","components":[{"name":"subnetId","type":"tuple","internalType":"struct SubnetID","components":[{"name":"root","type":"uint64","internalType":"uint64"},{"name":"route","type":"address[]","internalType":"address[]"}]},{"name":"rawAddress","type":"tuple","internalType":"struct FvmAddress","components":[{"name":"addrType","type":"uint8","internalType":"uint8"},{"name":"payload","type":"bytes","internalType":"bytes"}]}]},{"name":"value","type":"uint256","internalType":"uint256"},{"name":"nonce","type":"uint64","internalType":"uint64"},{"name":"method","type":"bytes4","internalType":"bytes4"},{"name":"params","type":"bytes","internalType":"bytes"},{"name":"fee","type":"uint256","internalType":"uint256"}]},{"name":"wrapped","type":"bool","internalType":"bool"}]}],"outputs":[],"stateMutability":"nonpayable"},{"type":"function","name":"applyFinalityChanges","inputs":[],"outputs":[{"name":"","type":"uint64","internalType":"uint64"}],"stateMutability":"nonpayable"},{"type":"function","name":"commitCheckpoint","inputs":[{"name":"checkpoint","type":"tuple","internalType":"struct BottomUpCheckpoint","components":[{"name":"subnetID","type":"tuple","internalType":"struct SubnetID","components":[{"name":"root","type":"uint64","internalType":"uint64"},{"name":"route","type":"address[]","internalType":"address[]"}]},{"name":"blockHeight","type":"uint256","internalType":"uint256"},{"name":"blockHash","type":"bytes32","internalType":"bytes32"},{"name":"nextConfigurationNumber","type":"uint64","internalType":"uint64"}]}],"outputs":[],"stateMutability":"nonpayable"},{"type":"function","name":"commitParentFinality","inputs":[{"name":"finality","type":"tuple","internalType":"struct ParentFinality","components":[{"name":"height","type":"uint256","internalType":"uint256"},{"name":"blockHash","type":"bytes32","internalType":"bytes32"}]}],"outputs":[{"name":"hasCommittedBefore","type":"bool","internalType":"bool"},{"name":"previousFinality","type":"tuple","internalType":"struct ParentFinality","components":[{"name":"height","type":"uint256","internalType":"uint256"},{"name":"blockHash","type":"bytes32","internalType":"bytes32"}]}],"stateMutability":"nonpayable"},{"type":"function","name":"createBottomUpCheckpoint","inputs":[{"name":"checkpoint","type":"tuple","internalType":"struct BottomUpCheckpoint","components":[{"name":"subnetID","type":"tuple","internalType":"struct SubnetID","components":[{"name":"root","type":"uint64","internalType":"uint64"},{"name":"route","type":"address[]","internalType":"address[]"}]},{"name":"blockHeight","type":"uint256","internalType":"uint256"},{"name":"blockHash","type":"bytes32","internalType":"bytes32"},{"name":"nextConfigurationNumber","type":"uint64","internalType":"uint64"}]},{"name":"membershipRootHash","type":"bytes32","internalType":"bytes32"},{"name":"membershipWeight","type":"uint256","internalType":"uint256"}],"outputs":[],"stateMutability":"nonpayable"},{"type":"function","name":"createBottomUpMsgBatch","inputs":[{"name":"batch","type":"tuple","internalType":"struct BottomUpMsgBatch","components":[{"name":"subnetID","type":"tuple","internalType":"struct SubnetID","components":[{"name":"root","type":"uint64","internalType":"uint64"},{"name":"route","type":"address[]","internalType":"address[]"}]},{"name":"blockHeight","type":"uint256","internalType":"uint256"},{"name":"msgs","type":"tuple[]","internalType":"struct CrossMsg[]","components":[{"name":"message","type":"tuple","internalType":"struct StorableMsg","components":[{"name":"from","type":"tuple","internalType":"struct IPCAddress","components":[{"name":"subnetId","type":"tuple","internalType":"struct SubnetID","components":[{"name":"root","type":"uint64","internalType":"uint64"},{"name":"route","type":"address[]","internalType":"address[]"}]},{"name":"rawAddress","type":"tuple","internalType":"struct FvmAddress","components":[{"name":"addrType","type":"uint8","internalType":"uint8"},{"name":"payload","type":"bytes","internalType":"bytes"}]}]},{"name":"to","type":"tuple","internalType":"struct IPCAddress","components":[{"name":"subnetId","type":"tuple","internalType":"struct SubnetID","components":[{"name":"root","type":"uint64","internalType":"uint64"},{"name":"route","type":"address[]","internalType":"address[]"}]},{"name":"rawAddress","type":"tuple","internalType":"struct FvmAddress","components":[{"name":"addrType","type":"uint8","internalType":"uint8"},{"name":"payload","type":"bytes","internalType":"bytes"}]}]},{"name":"value","type":"uint256","internalType":"uint256"},{"name":"nonce","type":"uint64","internalType":"uint64"},{"name":"method","type":"bytes4","internalType":"bytes4"},{"name":"params","type":"bytes","internalType":"bytes"},{"name":"fee","type":"uint256","internalType":"uint256"}]},{"name":"wrapped","type":"bool","internalType":"bool"}]}]},{"name":"membershipRootHash","type":"bytes32","internalType":"bytes32"},{"name":"membershipWeight","type":"uint256","internalType":"uint256"}],"outputs":[],"stateMutability":"nonpayable"},{"type":"function","name":"execBottomUpMsgBatch","inputs":[{"name":"batch","type":"tuple","internalType":"struct BottomUpMsgBatch","components":[{"name":"subnetID","type":"tuple","internalType":"struct SubnetID","components":[{"name":"root","type":"uint64","internalType":"uint64"},{"name":"route","type":"address[]","internalType":"address[]"}]},{"name":"blockHeight","type":"uint256","internalType":"uint256"},{"name":"msgs","type":"tuple[]","internalType":"struct CrossMsg[]","components":[{"name":"message","type":"tuple","internalType":"struct StorableMsg","components":[{"name":"from","type":"tuple","internalType":"struct IPCAddress","components":[{"name":"subnetId","type":"tuple","internalType":"struct SubnetID","components":[{"name":"root","type":"uint64","internalType":"uint64"},{"name":"route","type":"address[]","internalType":"address[]"}]},{"name":"rawAddress","type":"tuple","internalType":"struct FvmAddress","components":[{"name":"addrType","type":"uint8","internalType":"uint8"},{"name":"payload","type":"bytes","internalType":"bytes"}]}]},{"name":"to","type":"tuple","internalType":"struct IPCAddress","components":[{"name":"subnetId","type":"tuple","internalType":"struct SubnetID","components":[{"name":"root","type":"uint64","internalType":"uint64"},{"name":"route","type":"address[]","internalType":"address[]"}]},{"name":"rawAddress","type":"tuple","internalType":"struct FvmAddress","components":[{"name":"addrType","type":"uint8","internalType":"uint8"},{"name":"payload","type":"bytes","internalType":"bytes"}]}]},{"name":"value","type":"uint256","internalType":"uint256"},{"name":"nonce","type":"uint64","internalType":"uint64"},{"name":"method","type":"bytes4","internalType":"bytes4"},{"name":"params","type":"bytes","internalType":"bytes"},{"name":"fee","type":"uint256","internalType":"uint256"}]},{"name":"wrapped","type":"bool","internalType":"bool"}]}]}],"outputs":[],"stateMutability":"nonpayable"},{"type":"function","name":"pruneBottomUpCheckpoints","inputs":[{"name":"newRetentionHeight","type":"uint256","internalType":"uint256"}],"outputs":[],"stateMutability":"nonpayable"},{"type":"function","name":"pruneBottomUpMsgBatches","inputs":[{"name":"newRetentionHeight","type":"uint256","internalType":"uint256"}],"outputs":[],"stateMutability":"nonpayable"},{"type":"function","name":"storeValidatorChanges","inputs":[{"name":"changeRequests","type":"tuple[]","internalType":"struct StakingChangeRequest[]","components":[{"name":"change","type":"tuple","internalType":"struct StakingChange","components":[{"name":"op","type":"uint8","internalType":"enum StakingOperation"},{"name":"payload","type":"bytes","internalType":"bytes"},{"name":"validator","type":"address","internalType":"address"}]},{"name":"configurationNumber","type":"uint64","internalType":"uint64"}]}],"outputs":[],"stateMutability":"nonpayable"},{"type":"error","name":"AddressEmptyCode","inputs":[{"name":"target","type":"address","internalType":"address"}]},{"type":"error","name":"AddressInsufficientBalance","inputs":[{"name":"account","type":"address","internalType":"address"}]},{"type":"error","name":"AddressShouldBeValidator","inputs":[]},{"type":"error","name":"BatchAlreadyExists","inputs":[]},{"type":"error","name":"BatchNotCreated","inputs":[]},{"type":"error","name":"BatchWithNoMessages","inputs":[]},{"type":"error","name":"CannotConfirmFutureChanges","inputs":[]},{"type":"error","name":"CheckpointAlreadyExists","inputs":[]},{"type":"error","name":"CheckpointNotCreated","inputs":[]},{"type":"error","name":"FailedAddIncompleteQuorum","inputs":[]},{"type":"error","name":"FailedAddSignatory","inputs":[]},{"type":"error","name":"FailedInnerCall","inputs":[]},{"type":"error","name":"FailedRemoveIncompleteQuorum","inputs":[]},{"type":"error","name":"InvalidActorAddress","inputs":[]},{"type":"error","name":"InvalidBatchEpoch","inputs":[]},{"type":"error","name":"InvalidBatchSource","inputs":[]},{"type":"error","name":"InvalidCheckpointEpoch","inputs":[]},{"type":"error","name":"InvalidCheckpointSource","inputs":[]},{"type":"error","name":"InvalidConfigurationNumber","inputs":[]},{"type":"error","name":"InvalidCrossMsgDstSubnet","inputs":[]},{"type":"error","name":"InvalidCrossMsgNonce","inputs":[]},{"type":"error","name":"InvalidRetentionHeight","inputs":[]},{"type":"error","name":"InvalidSignature","inputs":[]},{"type":"error","name":"InvalidSubnet","inputs":[]},{"type":"error","name":"MaxMsgsPerBatchExceeded","inputs":[]},{"type":"error","name":"NotAuthorized","inputs":[{"name":"","type":"address","internalType":"address"}]},{"type":"error","name":"NotEnoughBalance","inputs":[]},{"type":"error","name":"NotEnoughSubnetCircSupply","inputs":[]},{"type":"error","name":"NotRegisteredSubnet","inputs":[]},{"type":"error","name":"NotSystemActor","inputs":[]},{"type":"error","name":"OldConfigurationNumber","inputs":[]},{"type":"error","name":"PQDoesNotContainAddress","inputs":[]},{"type":"error","name":"PQEmpty","inputs":[]},{"type":"error","name":"ParentFinalityAlreadyCommitted","inputs":[]},{"type":"error","name":"QuorumAlreadyProcessed","inputs":[]},{"type":"error","name":"SignatureReplay","inputs":[]},{"type":"error","name":"SubnetNotActive","inputs":[]},{"type":"error","name":"SubnetNotFound","inputs":[]},{"type":"error","name":"ZeroMembershipWeight","inputs":[]}],"bytecode":{"object":"0x60808060405234610016576155b1908161001c8239f35b600080fdfe6080604052600436101561001257600080fd5b6000803560e01c80630bed7615146116985780630db0f77c146113a25780630df144611461136e57806311196974146112b157806332e7661f14610e8e57806347dc9b4f14610b9657806353b4e7bf146107e9578063743037711461050d578063ac81837914610393578063bacc656d14610183578063c62eb4d5146100ec5763e49a547d146100a157600080fd5b346100e95760203660031901126100e9576004356001600160401b0381116100e5576100d46100e2913690600401611ad0565b906100dd613c22565b6140b2565b80f35b5080fd5b80fd5b50346100e95760203660031901126100e9576001600160401b0360043581811161017f5761011e903690600401611ad0565b610126613c22565b60405192602084019081118482101761016b5791610165916100e29493604052858452604051936101568561191d565b86855260208501523691611e22565b906123da565b634e487b7160e01b85526041600452602485fd5b8280fd5b50346100e9576020806003193601126100e557600435906101a2613c22565b6012545b8281106102db5750601254808311156102c9575b8281106101c957505060125580f35b808452601382526040842090848255846004600193828582015582600282015582600382015501556016835260408520805490868155816102a6575b50508085526040852060405180828682945493848152019089528689209289905b878982841061028d575050505061023f92500382611984565b80519083875b8381106102565750505050016101ba565b84895260178752604089206001600160a01b036102738386612125565b51168a52875261028560408a2061306b565b018490610245565b9092945082919386548152019401920184929391610226565b865282848720918201915b8281106102be5750610205565b8781550183906102b1565b604051636819a3a960e01b8152600490fd5b808452600990818352604085209185835560036001936102fc858201612532565b876002820155019081549087835581610319575b505050016101a6565b600d92828402928484040361037f578852858820918201915b82811061033f5750610310565b8061034a85926130b4565b610356600482016130b4565b896008820155898382015561036d600a820161306b565b89600b82015589600c82015501610332565b634e487b7160e01b89526011600452602489fd5b50346100e9576020806003193601126100e557600435906103b2613c22565b600b545b8281106104d95750600b54808311156102c9575b8281106103d9575050600b5580f35b808452600c8252604084209084825584600460019382858201558260028201558260038201550155600f835260408520805490868155816104b6575b50508085526040852060405180828682945493848152019089528689209289905b878982841061049d575050505061044f92500382611984565b80519083875b8381106104665750505050016103ca565b84895260108752604089206001600160a01b036104838386612125565b51168a52875261049560408a2061306b565b018490610455565b9092945082919386548152019401920184929391610436565b865282848720918201915b8281106104ce5750610415565b8781550183906104c1565b8084526008825260408420908482558460046001936104f9858201612532565b8260028201558260038201550155016103b6565b50346100e9576003196060368201126100e5576004356001600160401b038082116107e5576080826004019383360301126107e5576044359261054e613c22565b602483013593610560601e5486612ee0565b6107d3578486526020936008855260026040882001546107c15760405191858301918683526105a36105928680612f00565b6080604087015260c0860190612f48565b928860608601526044820135948560808201526105dd8160648501968a6105c989611b15565b1660a083015203601f198101835282611984565b5190209160ff601d541690600b548a106107af57801561079d5760649161060391612508565b049161060e89613e61565b1561078b576040516106809161062382611969565b815260048a8a8d6040828601916024358352818701998a52600c60608801948286526080890196838852835252209451855551966001978886015551600285015551600384015551151591019060ff801983541691151516179055565b6040519460808601868110888211176107775760405235908682116107735760046106ae9236920101611b3d565b84526106c68685019288845260408601948552611b15565b96606085019788528852600886526040882093519585875116966001600160401b03199788875416178655818387019101519182519288841161075f57819061070f8585612556565b01918b52808b20908b5b848110610745575050505050509060049291516002830155516003820155019251169082541617905580f35b83516001600160a01b031683820155928101928501610719565b634e487b7160e01b8c52604160045260248cfd5b8980fd5b634e487b7160e01b8b52604160045260248bfd5b604051630cbd1cd360e11b8152600490fd5b604051634e8ac6e560e01b8152600490fd5b604051630108e13760e21b8152600490fd5b60405163b8a1eae160e01b8152600490fd5b60405163fae4eadb60e01b8152600490fd5b8380fd5b50346100e9576107f836611a31565b909291600b5483106107af5782855260209160088352600260408720015415610b8457838652600c83526040862092610832828554613cbe565b506004811015610b7057610b5e57858852600f825260408089206001600160a01b0383166000818152600190920160205291902054610b4c57604080516001600160a01b03909316848401908152602081018a9052908390820103926108a0601f1994858101835282611984565b5190206040518481019182528481526108b88161191d565b519020600195868089015492918c915b610ae9575b505003610ad157868952600f83526108e88160408b20613eae565b15610abf578689526010835260408920908952825260408820928051926001600160401b038411610aab579083929161092b846109258854612139565b8861258a565b8092601f8511600114610a4b5750508992610a40575b5050600019600383901b1c191690831b1790555b61096460038301948554612062565b908185556002830154821015610978578580f35b600483018054909260ff82166109f9575060ff191617905561099982613ff5565b156109e7576109da7fc08568b61a3224ac0d48121f065552f2f645d3777d353bd87291108bc36514949360ff600a5416925490549060405194859485613c99565b0390a15b38808080808580f35b6040516344a7b48760e11b8152600490fd5b9150507f103355808c87614c31e835c1a86487b17b1e54cf36e0ac4469c8d1e892239cbc9450610a38915060ff600a5416925460405194859485613c99565b0390a16109de565b015190503880610941565b87959392919316868c52838c20938c905b828210610a925750508411610a79575b505050811b019055610955565b015160001960f88460031b161c19169055388080610a6c565b8484015186558997909501949384019390810190610a5c565b634e487b7160e01b8a52604160045260248afd5b604051633363140f60e01b8152600490fd5b60249060405190634a0bfec160e01b82526004820152fd5b90918151831015610b4657610afe8383612125565b519081811015610b38578d52865260408c205b916000198114610b2457880190886108c8565b634e487b7160e01b8d52601160045260248dfd5b908d52865260408c20610b11565b916108cd565b604051635a3fd0d960e11b8152600490fd5b604051638baa579f60e01b8152600490fd5b634e487b7160e01b89526021600452602489fd5b6040516358cdd2e760e01b8152600490fd5b50346100e9576003196020368201811361017f57600435916001600160401b0390818411610e8a5783600401916080828636030112610e8657610c1f91610be636610be18680611b00565b611b3d565b918573__$a0fe38a9a81205afccc10810b09a4d3f45$__9360405180968192632cff562160e11b83528460048401526024830190611bf4565b0381865af4938415610e7b578894610e40575b506001600160a01b03933390851603610e2e57610c4e33613930565b959015610e1d5791610c8e94610c6c88959394610be1369180611b00565b9360405196879563c836244d60e01b8752604060048801526044870190611bf4565b928584030160248601526040830190600489015416835260606005890193604088820152845480935201928b52858b20918b905b828210610dff575050505082809103915af4908115610df4578591610dc7575b5015610db5576003015460801c60ff166006811015610da157600103610d8f578260ff602c5460181c16610d135780f35b80610d7f93604051602485820192632643057b60e11b84520135602482015282604482015282606482015260648152610d4b81611969565b519082335af13d15610d86573d610d61816119bc565b90610d6f6040519283611984565b81528481933d92013e5b33611d06565b5038808280f35b60609150610d79565b60405163c18316bf60e01b8152600490fd5b634e487b7160e01b84526021600452602484fd5b6040516303b5db8360e11b8152600490fd5b610de79150833d8511610ded575b610ddf8183611984565b810190611c4f565b38610ce2565b503d610dd5565b6040513d87823e3d90fd5b8354811685528a978997509094019360019384019390910190610cc2565b6040516208ed5b60e31b8152600490fd5b604051637f39132760e11b8152600490fd5b9093508581813d8311610e74575b610e588183611984565b81010312610e7057610e6990611be0565b9238610c32565b8780fd5b503d610e4e565b6040513d8a823e3d90fd5b8580fd5b8480fd5b50346100e9576003196060368201126100e557600435906001600160401b03821161017f5760609082360301126100e557610ec7613c22565b610edc610ed73683600401611f76565b6130d7565b610eec601f546024830135612ee0565b158015906112a3575b61129157602481013582526009602052600260408320015461127f57604051602080820152610f3b610f2a6004840180612f00565b6060604084015260a0830190612f48565b6024830135606083015281610f566044850185600401612f14565b603f93919319838303016080840152808252602082019160208260051b820101928589925b848410611174575050505050610f9a925003601f198101835282611984565b6020815191012060ff601d54166012546024840135106107af57604435801561079d57606491610fc991612508565b0491610fd86024820135613df8565b1561078b5761105361105d9260405190610ff182611969565b815260046020820160243581526040830196875260608301888152608084019189835260248701358a52601360205260408a209451855551976001988986015551600285015551600384015551151591019060ff801983541691151516179055565b3690600401611f76565b6020810190815184526009602052604084209181516001600160401b038151166001600160401b03198554161784556020858501910151908151916001600160401b038311611143576020906110b38484612556565b019087526020872086885b8481106111575789828960408a8a5160028401550190815151916003859201915b8381106110ea578580f35b6110f5818351612125565b518354600160401b8110156111435786810180865581101561112f5786929161112991868a52600d60208b209102016125cf565b016110df565b634e487b7160e01b88526032600452602488fd5b634e487b7160e01b88526041600452602488fd5b83516001600160a01b0316818401556020909301928891016110be565b919395509193601f1982820301845261118d8784612f00565b90813560de198336030181121561127b5782602092836112648160019781960194604085526111f16111d46111c28880612f00565b60e0604089015261012088019061300a565b6111e084890189612f00565b878203603f1901606089015261300a565b604087013560808701526001600160401b0361120f60608901611b15565b1660a08701526112556001600160e01b031961122d60808a01611e00565b169160c0928389015261124360a08a018a612fb8565b898303603f190160e08b015290612fe9565b96013561010086015201611e15565b151591015298019401940191879593969491610f7b565b8b80fd5b60405163d15f973b60e01b8152600490fd5b60405163200c52f760e21b8152600490fd5b506024810135431115610ef5565b50346100e95760403660031901126100e9576040516112cf8161191d565b818152816020809201526112e1613c22565b81816040516112ef8161191d565b8281520152600254916004359182841161135c576060938252600181526040822092604060018151956113218761191d565b805487520154938386019485528281526001845220818155600160243591015560025582511515926040519384525190830152516040820152f35b60405163153ad84160e11b8152600490fd5b50346100e957806003193601126100e957611387613c22565b6020611391612219565b6001600160401b0360405191168152f35b50346100e9576113b136611a31565b90929160125483106107af5782855260209160098352600260408720015415611686578386526013835260408620926113eb828554613cbe565b506004811015610b7057610b5e578588526016825260408089206001600160a01b0383166000818152600190920160205291902054610b4c57604080516001600160a01b03909316848401908152602081018a905290839082010392611459601f1994858101835282611984565b5190206040518481019182528481526114718161191d565b519020600195868089015492918c915b611637575b505003610ad157868952601683526114a18160408b20613eae565b15610abf578689526017835260408920908952825260408820928051926001600160401b038411610aab57908392916114de846109258854612139565b8092601f85116001146115d757505089926115cc575b5050600019600383901b1c191690831b1790555b61151760038301948554612062565b90818555600283015482101561152b578580f35b600483018054909260ff821661158d575060ff191617905561154c82613f0b565b156109e7576109da7fc08568b61a3224ac0d48121f065552f2f645d3777d353bd87291108bc36514949360ff60115416925490549060405194859485613c99565b9150507f103355808c87614c31e835c1a86487b17b1e54cf36e0ac4469c8d1e892239cbc9450610a38915060ff60115416925460405194859485613c99565b0151905038806114f4565b87959392919316868c52838c20938c905b82821061161e5750508411611605575b505050811b019055611508565b015160001960f88460031b161c191690553880806115f8565b84840151865589979095019493840193908101906115e8565b909181518310156116805761164c8383612125565b519081811015611672578d52865260408c205b916000198114610b245788019088611481565b908d52865260408c2061165f565b91611486565b60405163a88f96f160e01b8152600490fd5b50346100e9576003196020368201811361017f57600435916001600160401b0383116107e5576060836004019184360301126107e557611701826116e036610be18580611b00565b60405180938192632cff562160e11b83528460048401526024830190611bf4565b038173__$a0fe38a9a81205afccc10810b09a4d3f45$__5af4908115610df45785916118e8575b50336001600160a01b03909116036118d357611747610ed73683611f76565b61175033613930565b919015610e1d5760ff600383015460801c169160068310156118bf576001809303610d8f57856044879601936117868585611feb565b899291505b8083106118705750505061179f9086612062565b90600281019182549080821061185e576117e295600495610165956117ca6117d1946117da96612085565b9055611feb565b94909201612092565b923691611e22565b60ff602c54821c166117f2578280f35b60405181810190632643057b60e11b82524360248201528360448201528460648201526064815261182281611969565b83471061184657610d7f93859283925191335af13d15610d86573d610d61816119bc565b60405163cd78605960e01b8152306004820152602490fd5b604051631d36ca1560e21b8152600490fd5b906118b66118a2849a95604061189a611894869861188e8e8e611feb565b90612020565b8061204d565b013590612062565b9460c061189a6118948d61188e8d8d611feb565b9801919061178b565b634e487b7160e01b86526021600452602486fd5b60405160016201ad9360e61b03198152600490fd5b90508281813d8311611916575b6118ff8183611984565b81010312610e8a5761191090611be0565b38611728565b503d6118f5565b604081019081106001600160401b0382111761193857604052565b634e487b7160e01b600052604160045260246000fd5b606081019081106001600160401b0382111761193857604052565b60a081019081106001600160401b0382111761193857604052565b90601f801991011681019081106001600160401b0382111761193857604052565b6001600160401b0381116119385760051b60200190565b6001600160401b03811161193857601f01601f191660200190565b9291926119e3826119bc565b916119f16040519384611984565b829481845281830111611a0e578281602093846000960137010152565b600080fd5b9080601f83011215611a0e57816020611a2e933591016119d7565b90565b906080600319830112611a0e57600435916001600160401b0391602435838111611a0e5782602382011215611a0e578060040135611a6e816119a5565b91611a7c6040519384611984565b81835260209160248385019160051b83010191868311611a0e57602401905b828210611ac157505050509260443592606435918211611a0e57611a2e91600401611a13565b81358152908301908301611a9b565b9181601f84011215611a0e578235916001600160401b038311611a0e576020808501948460051b010111611a0e57565b903590603e1981360301821215611a0e570190565b35906001600160401b0382168203611a0e57565b35906001600160a01b0382168203611a0e57565b9190604083820312611a0e5760405192611b568461191d565b83611b6082611b15565b815260209182810135906001600160401b038211611a0e57019280601f85011215611a0e578335611b90816119a5565b94611b9e6040519687611984565b818652848087019260051b820101928311611a0e5784809101915b838310611bc857505050500152565b8190611bd384611b29565b8152019101908490611bb9565b51906001600160a01b0382168203611a0e57565b60609060408301906001600160401b03815116845260209283809201519460408382015285518094520193019160005b828110611c32575050505090565b83516001600160a01b031685529381019392810192600101611c24565b90816020910312611a0e57518015158103611a0e5790565b60408101906001600160401b036019541681526060602091604083820152601a548094520191601a6000527f057c384a7d1c54f3a1b2e5e67b2617b8224fdfd1ea7234eea573a6ff665ff63e916000905b828210611cc6575050505090565b83546001600160a01b031685529384019360019384019390910190611cb8565b60021115611cf057565b634e487b7160e01b600052602160045260246000fd5b9015611d4457815115611d17575090565b803b15611d22575090565b604051639996b31560e01b81526001600160a01b039091166004820152602490fd5b50805115611d5457805190602001fd5b604051630a12f52160e11b8152600490fd5b359060ff82168203611a0e57565b9190604083820312611a0e5760405192611d8d8461191d565b838135916001600160401b0392838111611a0e5784611dad918301611b3d565b8252602081013590838211611a0e5701604081850312611a0e5760405193611dd48561191d565b611ddd82611d66565b85526020820135938411611a0e57602093611df89201611a13565b828401520152565b35906001600160e01b031982168203611a0e57565b35908115158203611a0e57565b929192611e2e826119a5565b91604090611e3e82519485611984565b839581855260208095019160051b840193818511611a0e5780925b858410611e695750505050505050565b6001600160401b03908435828111611a0e578301908682860312611a0e578651611e928161191d565b8235848111611a0e5783019260e0948585890312611a0e57895195860186811082821117611f61578a528435818111611a0e5788611ed1918701611d74565b86528b850135818111611a0e5788611eea918701611d74565b8c870152898501358a8701526060611f03818701611b15565b908701526080611f14818701611e00565b9087015260a09182860135918211611a0e578c9686611f5294611f3c8c8b9a968b9701611a13565b9083015260c08091013590820152845201611e15565b83820152815201930192611e59565b60246000634e487b7160e01b81526041600452fd5b9190606083820312611a0e5760405190611f8f8261194e565b81938035906001600160401b0391828111611a0e5783611fb0918301611b3d565b8452602081013560208501526040810135918211611a0e570181601f82011215611a0e57604091816020611fe693359101611e22565b910152565b903590601e1981360301821215611a0e57018035906001600160401b038211611a0e57602001918160051b36038313611a0e57565b9082101561203757611a2e9160051b810190611b00565b634e487b7160e01b600052603260045260246000fd5b90359060de1981360301821215611a0e570190565b9190820180921161206f57565b634e487b7160e01b600052601160045260246000fd5b9190820391821161206f57565b9060405161209f8161191d565b80926001600160401b03815416825260018091019160405191828481955492838652602080960191600052856000209060005b878682106120ee57505050506120ea92500384611984565b0152565b83546001600160a01b03168552899550909301929181019181016120d2565b9060016001600160401b038093160191821161206f57565b80518210156120375760209160051b010190565b90600182811c92168015612169575b602083101461215357565b634e487b7160e01b600052602260045260246000fd5b91607f1691612148565b906040519182600082549261218784612139565b9081845260019485811690816000146121f657506001146121b3575b50506121b192500383611984565b565b9093915060005260209081600020936000915b8183106121de5750506121b1935082010138806121a3565b855488840185015294850194879450918301916121c6565b9150506121b194506020925060ff191682840152151560051b82010138806121a3565b602a546001600160401b039190828116600019019083821161206f5761223e8261210d565b8480604093841c169116146123d257612256826142e9565b61ffff806024541694612268866119a5565b9261227581519485611984565b868452601f199384612286896119a5565b019360209436868401376001809981805b61238b575b505050508051906122ac826119a5565b956122b984519788611984565b8287526122c5836119a5565b018560005b8281106123625750505060005b82811061230057505050611a2e9495965051926122f38461191d565b8352841690820152613449565b89906001600160a01b036123148285612125565b511680600052602388526123426002876000208054938951946123368661194e565b85528b85015201612173565b86820152612350828a612125565b5261235b8189612125565b50016122d7565b855161236d8161194e565b6000815260008382015260608782015282828b0101520186906122ca565b8381168281116123cc5760009081526026895286902054849184916001600160a01b03166123c3846123bc8461409e565b1689612125565b52011682612297565b5061229c565b506000925050565b81519160005b8381106123ed5750505050565b806124046123fd60019385612125565b51856129c5565b016123e0565b60005b83811061241d5750506000910152565b818101518382015260200161240d565b906020916124468151809281855285808601910161240a565b601f01601f1916010190565b60406020611a2e938161246c855185845285840190611bf4565b940151908281860391015260ff8151168452015191816020820152019061242d565b9060c0806124ff6124bd6124ab865160e0875260e0870190612452565b60208701518682036020880152612452565b604086015160408601526001600160401b03606087015116606086015263ffffffff60e01b608087015116608086015260a086015185820360a087015261242d565b93015191015290565b8181029291811591840414171561206f57565b818110612526575050565b6000815560010161251b565b80546000825580612541575050565b6121b19160005260206000209081019061251b565b90600160401b81116119385781549080835581811061257457505050565b6121b1926000526020600020918201910161251b565b9190601f811161259957505050565b6121b1926000526020600020906020601f840160051c830193106125c5575b601f0160051c019061251b565b90915081906125b8565b908051908151918251926001600160401b03808551166001600160401b031990818854161787556001808801936020809801518051908582116119385789906126188389612556565b01600096875289872084885b8481106129aa5750505050508760028a019101519260ff8451169160ff19928382541617905560039389858c019101518051908782116129205781906126748261266e8654612139565b8661258a565b8c90601f831160011461293f578a92612934575b505060001982881b1c191690851b1790555b60048a0190898801519182519187835116908254161790558960058c0191015190815191878311612920578b906126d18484612556565b019088528a882085895b8481106129055750505050508860068b019101519160ff835116908254161790558760078a019101518051908582116128f157819061271e8261266e8654612139565b8a90601f8311600114612892578892612887575b505060001982861b1c191690831b1790555b6040850151600889015560098801836060870151168154906bffffffff0000000000000000608089015160a01c16916001600160601b03191617179055600a88019360a08601518051948511612873576127a2856109258854612139565b8891601f8611600114612802579385600c999794819460c098946121b19e9d9b98956127f7575b50501b92600019911b1c19161790555b0151600b8501550151151591019060ff801983541691151516179055565b0151935038806127c9565b9294939190601f1985168785528a8520945b81811061285e5750928592600c9a9895926121b19d9c9a9760c0999610612844575b50505050811b0190556127d9565b01519060f884600019921b161c1916905538808080612836565b82840151865594870194928b01928b01612814565b634e487b7160e01b82526041600452602482fd5b015190503880612732565b8489528b89208694509190601f1984168a8e5b8282106128da57505084116128c2575b505050811b019055612744565b015160001983881b60f8161c191690553880806128b5565b83850151865589979095019493840193018e6128a5565b634e487b7160e01b87526041600452602487fd5b83516001600160a01b031683820155928d01928791016126db565b634e487b7160e01b89526041600452602489fd5b015190503880612688565b879350908d91601f198416868d52838d20938d905b8282106129895750508411612971575b505050811b01905561269a565b0151600019838a1b60f8161c19169055388080612964565b91929395968291958786015181550195019301908f918a9695949392612954565b83516001600160a01b031683820155928c0192869101612624565b90602080825101515173__$a0fe38a9a81205afccc10810b09a4d3f45$__90604094855190630c133d1360e31b91828152858180612a0e60049784898401526024830190611bf4565b0381885af4908115612ed557600091612eb8575b50612ea857855160808101516001600160e01b031995918991871615612e89575b5050865192612a6789519463f47ad7eb60e01b86528a87870152604486019061248e565b878580612a806003199485838203016024840152611c67565b038173__$386b5c41ce93e8b832daf8008b3d30ae09$__5af4948515612e4157908891600096612e4c575b508951820151518b5163c836244d60e01b81528881018d9052929183918291612aeb91612adc906044850190611bf4565b90838203016024840152611c67565b0381865af4908115612e4157600091612e24575b50612bcb57505050505083916003916121b19551612bbc818481019385855260c0612b9a8a51928a80860152612b42845160e0608088015261016087019061311b565b612b5d8a86015191607f1992838983030160a08a015261311b565b918c860151858801526001600160401b0360608701511660e088015260808601511661010087015260a0850151908683030161012087015261242d565b910151610140830152858901511515606083015203601f198101835282611984565b519020600052526000206125cf565b86949550612bd884611ce6565b60018414612d31575b505050612bed81611ce6565b15612cc9575b60009185519485928392635c46fefb60e11b845283015284612c208251896024860152606485019061248e565b91015115156044830152038173__$33b79814e84bf6cf5e47244090b19ce5f8$__5af48015612cbe57612c5257505050565b3d806000843e612c628184611984565b8201918181840312611a0e578051906001600160401b038211611a0e57019082601f83011215611a0e57815192612ca4612c9b856119bc565b95519586611984565b838552818484010111611a0e57806121b19401910161240a565b83513d6000823e3d90fd5b50601d546001600160401b03808260481c1690606086510151168103612d215791839167ffffffffffffffff60481b612d0360009561210d565b60481b169067ffffffffffffffff60481b191617601d559150612bf3565b855163a57cadff60e01b81528390fd5b88949192939451928391825282878301528180612d516024820188611bf4565b03915af4908115612e19579085939291600091612dfc575b5015612d77575b8080612be1565b612d82919250613b20565b9015612dec5760030180546001600160401b038082891c1690606088510151168103612ddc579067ffffffffffffffff60401b612dc18795949361210d565b891b169067ffffffffffffffff60401b191617905538612d70565b875163a57cadff60e01b81528590fd5b8551630e991abd60e41b81528390fd5b612e139150843d8611610ded57610ddf8183611984565b38612d69565b87513d6000823e3d90fd5b612e3b9150883d8a11610ded57610ddf8183611984565b38612aff565b8a513d6000823e3d90fd5b90959181813d8311612e82575b612e638183611984565b810103126100e557519060028210156100e95750938790612adc612aab565b503d612e59565b01514710612e98578738612a43565b875163569d45cf60e11b81528490fd5b865163c5f563eb60e01b81528390fd5b612ecf9150863d8811610ded57610ddf8183611984565b38612a22565b88513d6000823e3d90fd5b8115612eea570690565b634e487b7160e01b600052601260045260246000fd5b9035603e1982360301811215611a0e570190565b9035601e1982360301811215611a0e5701602081359101916001600160401b038211611a0e578160051b36038313611a0e57565b60408201916001600160401b03612f5e83611b15565b1681526060612f7260209384810190612f14565b839195604086839601525201929160005b828110612f91575050505090565b909192938280600192838060a01b03612fa989611b29565b16815201950193929101612f83565b9035601e1982360301811215611a0e5701602081359101916001600160401b038211611a0e578136038313611a0e57565b908060209392818452848401376000828201840152601f01601f1916010190565b604061305b611a2e9361303a61302f6130238680612f00565b85845285840190612f48565b946020810190612f00565b90602081860391015260ff61304e82611d66565b1684526020810190612fb8565b9190928160208201520191612fe9565b6130758154612139565b908161307f575050565b81601f60009311600114613091575055565b9080839182526130b0601f60208420940160051c84016001850161251b565b5555565b60036121b191600081556130ca60018201612532565b600060028201550161306b565b6040018051516001600160401b036020541610613109575151156130f757565b6040516338d2307f60e01b8152600490fd5b60405163351c700760e01b8152600490fd5b91908251906040815260808101936001600160401b038351166040830152602080930151946040606084015285518091528360a0840196019060005b81811061318b5750505093604083819381611a2e97980151908281860391015260ff8151168452015193820152019061242d565b82516001600160a01b031688529685019691850191600101613157565b908082519081815260208091019281808460051b8301019501936000915b8483106131d65750505050505090565b9091929394958480613217600193601f198682030187528a5180518252858060a01b038482015116848301526040809101519160608092820152019061242d565b98019301930191949392906131c6565b908082146132fb576132398154612139565b906001600160401b0382116119385781906132588261266e8654612139565b600090601f831160011461328f57600092613284575b50508160011b916000199060031b1c1916179055565b01549050388061326e565b81526020808220858352818320935090601f1985169083905b8282106132e25750509084600195949392106132c9575b505050811b019055565b015460001960f88460031b161c191690553880806132bf565b84958192958501548155600180910196019401906132a8565b5050565b600454811015612037576003906004600052027f8a35acfbc15ff81a39ae7d344fd709f28e8600b4aa8c65c6b64bfe7fe36bd19b0190600090565b906134335781518155600190604060028383019260209360018060a01b0385880151166001600160601b0360a01b82541617905501930151908151916001600160401b03831161193857613398836133928754612139565b8761258a565b81601f84116001146133d157509282939183926000946133c6575b50501b916000199060031b1c1916179055565b0151925038806133b3565b919083601f1981168760005284600020946000905b88838310613419575050501061340057505050811b019055565b015160001960f88460031b161c191690553880806132bf565b8587015188559096019594850194879350908101906133e6565b634e487b7160e01b600052600060045260246000fd5b60408051916020918284526134688251828587015260608601906131a8565b927f7ecdac482334c36fccbe374318cfe74ea0c8181394890ddec894a10f0fcc748181840195806001600160401b039687895116868301520390a183600554169081613754575b505050600490815493600160401b9384861161373f57600654866006558087106136a0575b5060066000908152957ff652222313e28459528d920b65115c16c04f3efc82aaedc97be59f3f377c0d3f877f8a35acfbc15ff81a39ae7d344fd709f28e8600b4aa8c65c6b64bfe7fe36bd19b5b83821061364b57505050508060055416916001600160401b03199283600754161760075583515193855496885b8681106135d9575050505116906005541617600555808311613571575b50505050565b8281101561356b57815480156135c657600019019061358f826132ff565b9290926135b4578583556135ac600260019488868201550161306b565b835501613571565b634e487b7160e01b8652858452602486fd5b634e487b7160e01b855260318352602485fd5b8881101561360857806136026135f26001938651612125565b516135fc836132ff565b9061333a565b0161354e565b613613818451612125565b5188548381101561363857600192916135fc828561363394018d556132ff565b613602565b634e487b7160e01b8c5260418a5260248cfd5b806001918403613666575b6003809101930191019091613521565b805484558180850190838060a01b0390830154166001600160601b0360a01b82541617905561369b6002808301908601613227565b613656565b600390808202908282040361372a57878202828104890361371557600090600682527ff652222313e28459528d920b65115c16c04f3efc82aaedc97be59f3f377c0d3f92830192015b8281106136f8575050506134d4565b808285925582600182015561370f6002820161306b565b016136e9565b601187634e487b7160e01b6000525260246000fd5b601186634e487b7160e01b6000525260246000fd5b604184634e487b7160e01b6000525260246000fd5b848651168560075416908181146138415710613830578251926137768461191d565b600454613782816119a5565b9161378f81519384611984565b8183528383019060046000527f8a35acfbc15ff81a39ae7d344fd709f28e8600b4aa8c65c6b64bfe7fe36bd19b906000925b8484106137ee5750505091855250508201526137dd908261384b565b6137e9573880806134af565b505050565b60038760019284516137ff8161194e565b86548152848060a01b0385880154168382015261381e60028801612173565b868201528152019301930192916137c1565b8251633746be2560e11b8152600490fd5b5050505050505050565b6001600160401b0390602091808383015116908385015116036138ec57613871816138f4565b61387a846138f4565b036138ec57518051835151036138ec576138e56138d99160405190816138aa8682019287845260408301906131a8565b03916138be601f1993848101835282611984565b519020945160405193849186830196875260408301906131a8565b03908101835282611984565b5190201490565b505050600090565b8051519060009182915b81831061390b5750505090565b90919261392760019161391f868551612125565b515190612062565b930191906138fe565b6001600160a01b0390811691908215613b0e576040928351936139528561191d565b6001600160401b0391826019541686528151958690601a54908189526020809901926000978893601a85527f057c384a7d1c54f3a1b2e5e67b2617b8224fdfd1ea7234eea573a6ff665ff63e9185905b8d838310613af15750505050506139bf816139e594950382611984565b818a0152845163aa5106cb60e01b81526004810186905293849283926044840190611bf4565b906024830152038173__$a0fe38a9a81205afccc10810b09a4d3f45$__5af4938415613ae6578094613a25575b50505050613a21919250613b20565b9091565b90919293503d8082843e613a398184611984565b82019186818403126100e55780519085821161017f57019383858403126100e557835194613a668661191d565b805182811681036107e55786528781015191821161017f570182601f820112156100e557805191613a99612c9b846119a5565b828552878086019360051b8301019384116100e957508601905b828210613acf57505050613a2192938201528291388080613a12565b868091613adb84611be0565b815201910190613ab3565b8251903d90823e3d90fd5b845482168952909701968b965060019384019391909101906139a2565b6040516370e4510960e01b8152600490fd5b613b5e73__$a0fe38a9a81205afccc10810b09a4d3f45$__91604051906390ba52cf60e01b8252818060209485938460048401526024830190611bf4565b0381865af4908115613be957600091613bf5575b5060005260008152613bb381604060002093613b9060048601612092565b906040518080958194630c133d1360e31b83528660048401526024830190611bf4565b03915af4918215613be957600092613bcc575b50501591565b613be29250803d10610ded57610ddf8183611984565b3880613bc6565b6040513d6000823e3d90fd5b908282813d8311613c1b575b613c0b8183611984565b810103126100e957505138613b72565b503d613c01565b604051635d3f8a6960e01b815233600482015260208160248173__$e800e3908cdbb6b1b5bd452383a17b18f7$__5af4908115613be957600091613c7b575b5015613c6957565b60405163f0d97f3b60e01b8152600490fd5b613c93915060203d8111610ded57610ddf8183611984565b38613c61565b909493926060926080830196613cae81611ce6565b8352602083015260408201520152565b8151919060418303613cef57613ce892506020820151906060604084015193015160001a90613cfa565b9192909190565b505060009160029190565b91907f7fffffffffffffffffffffffffffffff5d576e7357a4501ddfe92f46681b20a08411613d7e57926020929160ff608095604051948552168484015260408301526060820152600092839182805260015afa15613d725780516001600160a01b03811615613d6957918190565b50809160019190565b604051903d90823e3d90fd5b50505060009160039190565b6014548110156120375760146000527fce6d7b5282bd9a3661ae061feed1dbda4e52ab073b1f9285be6e155d9c38d4ec0190600090565b600d5481101561203757600d6000527fd7b6990105719101dabeb77144f2a3385c8033acd3af97e9423a695e81ad1eb50190600090565b600081815260156020526040812054613e5c57601454600160401b811015612873579082613e48613e3184600160409601601455613d8a565b819391549060031b91821b91600019901b19161790565b905560145492815260156020522055600190565b905090565b6000818152600e6020526040812054613e5c57600d54600160401b811015612873579082613e9a613e3184600160409601600d55613dc1565b9055600d54928152600e6020522055600190565b6000828152600182016020526040902054613f0457805490600160401b82101561193857600182018082558210156120375782600192826000526020600020015580549260005201602052604060002055600190565b5050600090565b6000818152601560205260408120549091908015613ff05760001990808201818111613fdc5760145490838201918211613fc857808203613f94575b5050506014548015613f8057810190613f5f82613d8a565b909182549160031b1b19169055601455815260156020526040812055600190565b634e487b7160e01b84526031600452602484fd5b613fb2613fa3613e3193613d8a565b90549060031b1c928392613d8a565b9055845260156020526040842055388080613f47565b634e487b7160e01b86526011600452602486fd5b634e487b7160e01b85526011600452602485fd5b505090565b6000818152600e60205260408120549091908015613ff05760001990808201818111613fdc57600d5490838201918211613fc85780820361406a575b505050600d548015613f805781019061404982613dc1565b909182549160031b1b19169055600d558152600e6020526040812055600190565b614088614079613e3193613dc1565b90549060031b1c928392613dc1565b90558452600e6020526040842055388080614031565b61ffff908116600019019190821161206f57565b919080156142cf5760005b8181106140ca5750509050565b6140d5818386612020565b9060406140e283806142d4565b01356001600160a01b0381811691829003611a0e5761410184806142d4565b35936003851015611a0e5761411681806142d4565b906020918281013590601e1981360301821215611a0e57019384356001600160401b0395868211611a0e5784018136038113611a0e576141579136916119d7565b9385602a5416946040519861416b8a61194e565b89528489019081526040890192835285600052602b8552604060002098516003811015611cf05760ff80198b541691161789555197885198878a11611938576001998a8301916141c5826141bf8554612139565b8561258a565b8790601f831160011461425a576002949392916000918361424f575b5050600019600383901b1c1916908c1b1790555b019151166001600160601b0360a01b825416179055836142148461210d565b166001600160401b0319602a541617602a550135918216809203611a0e570361423d57016140bd565b604051631aba532960e21b8152600490fd5b0151905038806141e1565b9392918c918360005289600020906000601f198416905b8c8282106142ac575050968360029810614293575b505050811b0190556141f5565b015160001960f88460031b161c19169055388080614286565b919295899487849397999a9b015181550195019301908f94929796959391614271565b509050565b903590605e1981360301821215611a0e570190565b602a546001600160401b039283831692919084821684106143165760405163040aaa0560e11b8152600490fd5b848260401c1684106144d7579392919083604091821c16945b8486168481116144a057600096818852602b97602098808a528582209960029460018060a01b03868d01541660ff8d541660038110156118bf578088036143b6575060018c9d61439092879e9a9b9c9d9e526023855201878b872001613227565b835252858120928184556001936143a885820161306b565b01550116949392919061432f565b906143c460019e8f01612173565b848180518101031261449c57908e8e9f8c9d9e9f9b9c93870151941460001461445e579061443792918189528a6023918289528a6144058887832054612085565b9586948683528b528120918201805485159081614455575b501561444b576144329450818355550161306b565b61484b565b6144446022918254612085565b9055614390565b505090505561484b565b9050153861441d565b5061449792818852614478816023948589528a2054612062565b928289528652828d8920556144906022918254612062565b90556144de565b614390565b8680fd5b509450925067ffffffffffffffff60401b91506144bc9061210d565b602a54921b169067ffffffffffffffff60401b191617602a55565b9350505050565b919060018060a01b03928381169360008581526020956025875261ffff9160409783898320541661472f5783602154168460245416106146fb5786614521614e76565b9190911061467557508282526028815283898320541661459457505050505061458f7f19fe3ca603e87854a0747cc10abf06bac64d61bac73d6d15f2fd3ca448f15264939461456f83614b87565b516001600160a01b03909216825260208201929092529081906040820190565b0390a1565b6145a38695999498979661538d565b92825260239081815284832054935b6001808b8316111561463f5781617fff911c1690818552602983528b87862054168552838352858786205410156145f2576145ed90826154ec565b6145b2565b505093516001600160a01b0390951685525050505060208101919091529092507fda148fac2e1063174be7bc0895576bdaba90fd14e575463fa26a967cb895cadd9150806040810161458f565b50505050505061458f91929395507fda148fac2e1063174be7bc0895576bdaba90fd14e575463fa26a967cb895cadd945061456f565b95965061458f9450906028899493927ffaeb8de771b867cf357f6b459a7002b62ec45d544a8078a3ecd91200cc826d75999a936146b0615045565b8352522054166146ed575b6146c484614fd3565b6146cd83614b87565b516001600160a01b03928316815292909116602083015281906040820190565b6146f684614d60565b6146bb565b505050505061458f7f2e8038f5812f763c6ef0c5427cb5a05ce6d7064af2ba7d1d270bc02660b019fd939461456f83614fd3565b614740869598979699949399615356565b98825260239081815284832054986147578b614f62565b8560245416905b86811682811161481357828110156147f657508061477e61478492614b74565b90615304565b9c909c5b8c11156147a757614799908d615453565b6147a28c614f62565b61475e565b505094516001600160a01b0390961686525050505060208201929092529193507f143db27bc2036653dc6f962ff9d0b803163d4af50c256ca9e6927b3d6dcd019792508190506040810161458f565b869d919d5260268452828887205416865284845287862054614788565b505050505050505061458f91929395507f143db27bc2036653dc6f962ff9d0b803163d4af50c256ca9e6927b3d6dcd0197945061456f565b9160018060a01b0392838116926000918483526020946028865261ffff90604094828682205416614a35578181526025885282868220541615614a2457841561499f5761489784615356565b918152602380895286822054925b600180868316111561498e5781617fff911c169081845260268b528b89852054168452828b52848985205411156148e5576148e09082615453565b6148a5565b5050505050919395509193505b60275416156137e957614903614e76565b9061490c614ec0565b90921061495557505091516001600160a01b03909216825260208201527f143db27bc2036653dc6f962ff9d0b803163d4af50c256ca9e6927b3d6dcd019790806040810161458f565b9150915061458f7ffaeb8de771b867cf357f6b459a7002b62ec45d544a8078a3ecd91200cc826d7593614986615045565b6146bb614bf9565b5050505050919395509193506148f2565b50916149d2919597507f4a4c5d1a281180eea1e99d8177fa4798b9f7e019d5c57e7d8d73c6a22199aa5b9496935061518e565b8451908152a1602754166149e35750565b61458f7f2e8038f5812f763c6ef0c5427cb5a05ce6d7064af2ba7d1d270bc02660b019fd91614a10614ec0565b929091614a1b614bf9565b61456f83614fd3565b8551632a55ca5360e01b8152600490fd5b90939596869893959815614b3b579261fffe929493614a538761538d565b9483526023918282528a8420549580976001968792831b168160275416925b614ac7575b50509a516001600160a01b039098168852505050506020840194909452509293507fda148fac2e1063174be7bc0895576bdaba90fd14e575463fa26a967cb895cadd92509050806040810161458f565b818116838111614b35578e9080851115614b1957505080614aea614af092614b74565b90614f79565b9990995b891015614b1457614b05908a6154ec565b614b0e89614f62565b87614a72565b614a77565b885260298652872054841687528585528d872054909990614af4565b50614a77565b95505050509093614b6d7f3168ba660eed6ef1dc2258b2247cc05fd0f2f350d39e6ad2e2ebc76a8000b40b9495614d60565b51908152a1565b90600161ffff8093160191821161206f57565b6121b190604061ffff614b9d8160275416614b74565b9260018060a01b031660009181835260286020528383209085169061ffff199082828254161790558184526029602052848420836001600160601b0360a01b825416179055602754161760275581526023602052205490614f0a565b61ffff80602754168015614d4e576001614c1582821115615436565b6000818152602960208181526040808420805487865282862080546001600160a01b0392831680895260288752858920805461ffff199081168d17909155918416808a52868a20805484168c17905588885283546001600160a01b031990811690921790935589895284541690911790925593969194939291614cab9189614c9c8361409e565b169060275416176027556153b2565b8483528581528184842054168352602391828252848420549686809960028160275416925b614ce3575b505050505050505050505050565b818116838111614d485783811015614d2c575080614aea614d0392614b74565b9b909b5b8b1015614d2757614d18908c6154ec565b614d218b614f62565b89614cd0565b614cd5565b889c919c52838652848989205416885286865288882054614d07565b50614cd5565b6040516340d9b01160e01b8152600490fd5b614d699061538d565b61ffff806027541690614d7c82846154ec565b80614d868361409e565b1661ffff196027541617602755614d9c826153b2565b8083168092146137e957919061fffe906000818152602991602083815260018060a01b036040948186862054168552602393848452614dde878720548a614f0a565b85528083528186862054168552838352858520549780996001988992831b168160275416925b614e1657505050505050505050505050565b818116838111614d485783811015614e5a575080614aea614e3692614b74565b9b909b5b8b1015614d2757614e4b908c6154ec565b614e548b614f62565b89614e04565b889c919c52838652848989205416885286865288882054614e3a565b61ffff6024541615614d4e577f5db1dfd2ced311e642486f0e890a646498a1bdee1ad9403b0a73141af8a4c411546001600160a01b03166000818152602360205260409020549091565b61ffff6027541615614d4e577f6e777cacfc4ad3a3cac3b8e17ccbbe9f6893bdc61d89783315eee44e3959da21546001600160a01b03166000818152602360205260409020549091565b9190915b60018061ffff83161115614f5c5781617fff911c169083600083815260209060298252602360409260018060a01b03848420541683525220541015614f5c57614f5790826154ec565b614f0e565b50509050565b60011b906201fffe61fffe83169216820361206f57565b91909161ffff92604060008584168152602960205260018060a01b03808383205416825260236020528282205496841682526029602052828220541681526023602052205490818510614fcc5750509190565b9350919050565b6121b190604061ffff614fe98160245416614b74565b9260018060a01b031660009181835260256020528383209085169061ffff199082828254161790558184526026602052848420836001600160601b0360a01b8254161790556024541617602455815260236020522054906152b2565b61ffff80602454168015614d4e57600161506182821115615436565b6000818152602660208181526040808420805487865282862080546001600160a01b0392831680895260258752858920805461ffff199081168d17909155918416808a52868a20805484168c17905588885283546001600160a01b0319908116909217909355898952845416909117909255939691949392916150f791896150e88361409e565b169060245416176024556153f4565b8483528581528184842054168352602391828252848420549686809960028160245416925b61512e57505050505050505050505050565b818116838111614d48578381101561517257508061477e61514e92614b74565b9b909b5b8b1115614d2757615163908c615453565b61516c8b614f62565b8961511c565b889c919c52838652848989205416885286865288882054615152565b61519790615356565b9061ffff908160245416916151ac8385615453565b806151b68461409e565b1661ffff1960245416176024556151cc836153f4565b8084168093146152ac5760009280845260269360209185835260018060a01b0392604093808585205416845260239283835261520b868620548b6152b2565b8452878252808585205416845282825284842054976152298a614f62565b8760245416905b88811682811161529d578281101561528157508061477e61525092614b74565b9b909b5b8b111561527357615265908c615453565b61526e8b614f62565b615230565b505050505050505050915050565b879c919c52828552838888205416875285855287872054615254565b50505050505050505050915050565b50915050565b9190915b60018061ffff83161115614f5c5781617fff911c169083600083815260209060268252602360409260018060a01b03848420541683525220541115614f5c576152ff9082615453565b6152b6565b919061ffff604060008286168152602660205260018060a01b0380838320541682526023602052828220549385168252602660205282822054168152602360205220549384821115614fcc5750509190565b6001600160a01b031660009081526025602052604090205461ffff1690811561537b57565b60405163f2755e3760e01b8152600490fd5b6001600160a01b031660009081526028602052604090205461ffff1690811561537b57565b61ffff16600090815260296020908152604080832080546001600160a01b031981169091556001600160a01b0316835260289091529020805461ffff19169055565b61ffff16600090815260266020908152604080832080546001600160a01b031981169091556001600160a01b0316835260259091529020805461ffff19169055565b1561543d57565b634e487b7160e01b600052600160045260246000fd5b61547861ffff80806024541693169361546e84861115615436565b1691821115615436565b6000828152602660208181526040808420805486865282862080546001600160a01b0392831680895260258752858920805461ffff19908116909b1790559216808852938720805490981689179097559390925284546001600160a01b031990811690931790945593909152825416179055565b61550761ffff80806027541693169361546e84861115615436565b6000828152602960208181526040808420805486865282862080546001600160a01b0392831680895260288752858920805461ffff19908116909b1790559216808852938720805490981689179097559390925284546001600160a01b03199081169093179094559390915282541617905556fea264697066735822122083b7c8ac6e6d3897a89caf1f274e84e11c4147ed64413a7b9811115a85676f7f64736f6c63430008130033","linkReferences":{"src/lib/AccountHelper.sol":{"AccountHelper":[{"start":15449,"length":20}]},"src/lib/CrossMsgHelper.sol":{"CrossMsgHelper":[{"start":11338,"length":20}]},"src/lib/StorableMsgHelper.sol":{"StorableMsgHelper":[{"start":10912,"length":20}]},"src/lib/SubnetIDHelper.sol":{"SubnetIDHelper":[{"start":3078,"length":20},{"start":5921,"length":20},{"start":10732,"length":20},{"start":14859,"length":20},{"start":15169,"length":20}]}}},"methodIdentifiers":{"addBottomUpMsgBatchSignature(uint256,bytes32[],uint256,bytes)":"0db0f77c","addCheckpointSignature(uint256,bytes32[],uint256,bytes)":"53b4e7bf","applyCrossMessages(((((uint64,address[]),(uint8,bytes)),((uint64,address[]),(uint8,bytes)),uint256,uint64,bytes4,bytes,uint256),bool)[])":"c62eb4d5","applyFinalityChanges()":"0df14461","commitCheckpoint(((uint64,address[]),uint256,bytes32,uint64))":"47dc9b4f","commitParentFinality((uint256,bytes32))":"11196974","createBottomUpCheckpoint(((uint64,address[]),uint256,bytes32,uint64),bytes32,uint256)":"74303771","createBottomUpMsgBatch(((uint64,address[]),uint256,((((uint64,address[]),(uint8,bytes)),((uint64,address[]),(uint8,bytes)),uint256,uint64,bytes4,bytes,uint256),bool)[]),bytes32,uint256)":"32e7661f","execBottomUpMsgBatch(((uint64,address[]),uint256,((((uint64,address[]),(uint8,bytes)),((uint64,address[]),(uint8,bytes)),uint256,uint64,bytes4,bytes,uint256),bool)[]))":"0bed7615","pruneBottomUpCheckpoints(uint256)":"ac818379","pruneBottomUpMsgBatches(uint256)":"bacc656d","storeValidatorChanges(((uint8,bytes,address),uint64)[])":"e49a547d"},"id":47}