{"abi":[{"type":"constructor","inputs":[{"name":"_registry","type":"address","internalType":"contract SubnetRegistryDiamond"}],"stateMutability":"nonpayable"},{"type":"function","name":"deploySubnetActorFromRegistry","inputs":[{"name":"_minCollateral","type":"uint256","internalType":"uint256"},{"name":"_minValidators","type":"uint64","internalType":"uint64"},{"name":"_bottomUpCheckPeriod","type":"uint64","internalType":"uint64"},{"name":"_activeValidatorsLimit","type":"uint16","internalType":"uint16"},{"name":"_majorityPercentage","type":"uint8","internalType":"uint8"},{"name":"_minCrossMsgFee","type":"uint256","internalType":"uint256"},{"name":"_pathSize","type":"uint8","internalType":"uint8"},{"name":"_powerScale","type":"int8","internalType":"int8"},{"name":"seed","type":"uint256","internalType":"uint256"}],"outputs":[],"stateMutability":"nonpayable"},{"type":"function","name":"getGateway","inputs":[],"outputs":[{"name":"","type":"address","internalType":"address"}],"stateMutability":"view"},{"type":"function","name":"getOwners","inputs":[],"outputs":[{"name":"","type":"address[]","internalType":"address[]"}],"stateMutability":"view"},{"type":"function","name":"getSubnetDeployedBy","inputs":[{"name":"owner","type":"address","internalType":"address"}],"outputs":[{"name":"subnet","type":"address","internalType":"address"}],"stateMutability":"view"},{"type":"function","name":"getSubnetDeployedWithNonce","inputs":[{"name":"owner","type":"address","internalType":"address"},{"name":"nonce","type":"uint64","internalType":"uint64"}],"outputs":[{"name":"subnet","type":"address","internalType":"address"}],"stateMutability":"view"},{"type":"function","name":"getUserLastNonce","inputs":[{"name":"user","type":"address","internalType":"address"}],"outputs":[{"name":"nonce","type":"uint64","internalType":"uint64"}],"stateMutability":"view"}],"bytecode":{"object":"0x60803461007a57601f610ba238819003918201601f19168301916001600160401b0383118484101761007f5780849260209460405283398101031261007a57516001600160a01b0381169081900361007a5760018060a01b0319818160115416176011556012541617601255604051610b0c90816100968239f35b600080fd5b634e487b7160e01b600052604160045260246000fdfe608080604052600436101561001357600080fd5b600090813560e01c908163030f6051146108145750806342bf3cc1146107c257806358b1bc921461074857806364675ce8146101c0578063a0e67e2b146101035763ce75761f1461006357600080fd5b346101005760203660031901126101005761007c6108c9565b601254604051631163dca560e01b81526001600160a01b03928316600482015291906020908390602490829085165afa9182156100f557602093926100c6575b5060405191168152f35b6100e7919250833d81116100ee575b6100df81836108fa565b810190610931565b90386100bc565b503d6100d5565b6040513d85823e3d90fd5b80fd5b50346101005780600319360112610100576040518091600f549081835260208093018092600f83527f8d1108e10bcb7c27dddfc02ed9d693a074039d026cf4ea4240b40f7d581ac80290835b8181106101ac57505050846101659103856108fa565b60405193838594850191818652518092526040850193925b82811061018c57505050500390f35b83516001600160a01b03168552869550938101939281019260010161017d565b82548452928601926001928301920161014f565b503461010057610120366003190112610100576101db6108e4565b6044356001600160401b0381168103610623576064359161ffff83168303610744576084359060ff821682036107405760c4359360ff8516850361073c5760e4359485870b9182870361073857600435849187938196889660a43599839c9b670de0b6b3a764000087118015610730575b610720575b600a6001600160401b0382161190811561070e575b50610705575b603360ff8216109081156106f7575b506106ee575b6012126106e5575b6001600160401b0316600181119081156106dc575b506106d3575b60ff60059116116106ca575b670de0b6b3a7640000871180156106c2575b6106b5575b603261ffff8216119081156106a8575b5061069f575b6102e960ff8916610950565b976102f7604051998a6108fa565b60ff8116808a52601f199061030b90610950565b013660208b0137895b60ff8216811061066557505060405197604089018981106001600160401b0382111761062757604052607b895260208901526004602060018060a01b0360125416604051928380926342bf3cc160e01b82525afa90811561065a578a9161063b575b5060405198896101608101106001600160401b036101608c011117610627576101608a016040908152908a526001600160a01b0390911660208a0152880189905260608801526001600160401b0390811660808801521660a086015260ff1660c085015261ffff1660e0840152610100830152820b610120820152610140810182905261040561010435610a1a565b737109709ecfa91a80626ff3989d68f67f5b1dd12d3b156106235760405163ca669fa760e01b81526001600160a01b0382166004820152838160248183737109709ecfa91a80626ff3989d68f67f5b1dd12d5af18015610618576105e9575b5060018060a01b0360115416604051926305024b1560e51b8452602060048501526020815161016060248701526001600160401b0381511661018487015201519060406101a48601526101c48501825180915260206101e48701930190875b8181106105ca5750505060208101516001600160a01b03166044860152604081015160018110156105b657868680946101406020979583956064850152606081015160848501526001600160401b0360808201511660a48501526001600160401b0360a08201511660c485015260ff60c08201511660e485015261ffff60e082015116610104850152610100810151610124850152610120810151850b6101448501520151151561016483015203925af19182156100f55761059392610597575b506001600160a01b0316610991565b5080f35b6105af9060203d6020116100ee576100df81836108fa565b5038610584565b634e487b7160e01b87526021600452602487fd5b82516001600160a01b03168552602094850194909201916001016104c3565b6001600160401b038194929411610604576040529138610464565b634e487b7160e01b82526041600452602482fd5b6040513d86823e3d90fd5b8280fd5b634e487b7160e01b8b52604160045260248bfd5b610654915060203d6020116100ee576100df81836108fa565b38610376565b6040513d8c823e3d90fd5b6001600160a01b038116610679828c610967565b52600019811461068b57600101610314565b634e487b7160e01b8b52601160045260248bfd5b603294506102dd565b61ffff91501615386102d7565b6402540be40096506102c7565b5086156102c2565b600198506102b0565b600193506102a4565b9050153861029e565b60129950610289565b60469750610281565b6064915060ff16113861027b565b600a975061026c565b6001600160401b039150161538610266565b670de0b6b3a76400009650610251565b50861561024c565b8780fd5b8580fd5b8480fd5b8380fd5b5034610100576040366003190112610100576107626108c9565b6044602061076e6108e4565b601254604051639836b75f60e01b81526001600160a01b0395861660048201526001600160401b0390921660248301529093928491829085165afa9182156100f557602093926100c6575060405191168152f35b50346101005780600319360112610100576012546040516342bf3cc160e01b8152906001600160a01b03906020908390600490829085165afa9182156100f557602093926100c6575060405191168152f35b9050346108b157602091826003193601126101005782826024816108366108c9565b60125463030f605160e01b83526001600160a01b039182166004840152165afa9182156108bc578192610877575b50506001600160401b0360405191168152f35b9091508281813d83116108b5575b61088f81836108fa565b810103126108b15751906001600160401b038216820361010057503880610864565b5080fd5b503d610885565b50604051903d90823e3d90fd5b600435906001600160a01b03821682036108df57565b600080fd5b602435906001600160401b03821682036108df57565b90601f801991011681019081106001600160401b0382111761091b57604052565b634e487b7160e01b600052604160045260246000fd5b908160209103126108df57516001600160a01b03811681036108df5790565b6001600160401b03811161091b5760051b60200190565b805182101561097b5760209160051b010190565b634e487b7160e01b600052603260045260246000fd5b600081815260106020526040812054610a1557600f5468010000000000000000811015610604576001810180600f55811015610a015790826040927f8d1108e10bcb7c27dddfc02ed9d693a074039d026cf4ea4240b40f7d581ac8020155600f5492815260106020522055600190565b634e487b7160e01b82526032600452602482fd5b905090565b600f548015808015610acb575b15610a33575050503390565b6040519081838152826020809201600f6000527f8d1108e10bcb7c27dddfc02ed9d693a074039d026cf4ea4240b40f7d581ac8029260005b878110610ab4575050610a80925003836108fa565b610a9e576001600160a01b0392610a9992900690610967565b511690565b634e487b7160e01b600052601260045260246000fd5b845483526001948501948794509282019201610a6b565b506003831615610a2756fea2646970667358221220eb6bdbf05a30abf4698493c78c9a6a1f6f6144f0b3d4de7d8939b5c014cbde7364736f6c63430008130033","linkReferences":{}},"methodIdentifiers":{"deploySubnetActorFromRegistry(uint256,uint64,uint64,uint16,uint8,uint256,uint8,int8,uint256)":"64675ce8","getGateway()":"42bf3cc1","getOwners()":"a0e67e2b","getSubnetDeployedBy(address)":"ce75761f","getSubnetDeployedWithNonce(address,uint64)":"58b1bc92","getUserLastNonce(address)":"030f6051"},"id":85}