{"abi":[{"type":"constructor","inputs":[{"name":"_registry","type":"address","internalType":"contract SubnetRegistryDiamond"}],"stateMutability":"nonpayable"},{"type":"function","name":"deploySubnetActorFromRegistry","inputs":[{"name":"_minCollateral","type":"uint256","internalType":"uint256"},{"name":"_minValidators","type":"uint64","internalType":"uint64"},{"name":"_bottomUpCheckPeriod","type":"uint64","internalType":"uint64"},{"name":"_activeValidatorsLimit","type":"uint16","internalType":"uint16"},{"name":"_majorityPercentage","type":"uint8","internalType":"uint8"},{"name":"_minCrossMsgFee","type":"uint256","internalType":"uint256"},{"name":"_pathSize","type":"uint8","internalType":"uint8"},{"name":"_powerScale","type":"int8","internalType":"int8"},{"name":"seed","type":"uint256","internalType":"uint256"}],"outputs":[],"stateMutability":"nonpayable"},{"type":"function","name":"getGateway","inputs":[],"outputs":[{"name":"","type":"address","internalType":"address"}],"stateMutability":"view"},{"type":"function","name":"getOwners","inputs":[],"outputs":[{"name":"","type":"address[]","internalType":"address[]"}],"stateMutability":"view"},{"type":"function","name":"getSubnetDeployedBy","inputs":[{"name":"owner","type":"address","internalType":"address"}],"outputs":[{"name":"subnet","type":"address","internalType":"address"}],"stateMutability":"view"},{"type":"function","name":"getSubnetDeployedWithNonce","inputs":[{"name":"owner","type":"address","internalType":"address"},{"name":"nonce","type":"uint64","internalType":"uint64"}],"outputs":[{"name":"subnet","type":"address","internalType":"address"}],"stateMutability":"view"},{"type":"function","name":"getUserLastNonce","inputs":[{"name":"user","type":"address","internalType":"address"}],"outputs":[{"name":"nonce","type":"uint64","internalType":"uint64"}],"stateMutability":"view"}],"bytecode":{"object":"0x608060405234801561001057600080fd5b50604051610c07380380610c0783398101604081905261002f9161005e565b601180546001600160a01b039092166001600160a01b031992831681179091556012805490921617905561008e565b60006020828403121561007057600080fd5b81516001600160a01b038116811461008757600080fd5b9392505050565b610b6a8061009d6000396000f3fe608060405234801561001057600080fd5b50600436106100625760003560e01c8063030f60511461006757806342bf3cc11461009757806358b1bc92146100b757806364675ce8146100ca578063a0e67e2b146100df578063ce75761f146100f4575b600080fd5b61007a6100753660046107c3565b610107565b6040516001600160401b0390911681526020015b60405180910390f35b61009f61017c565b6040516001600160a01b03909116815260200161008e565b61009f6100c53660046107f5565b6101ef565b6100dd6100d8366004610844565b610274565b005b6100e76105f4565b60405161008e91906108ee565b61009f6101023660046107c3565b610600565b60125460405163030f605160e01b81526001600160a01b038381166004830152600092169063030f605190602401602060405180830381865afa158015610152573d6000803e3d6000fd5b505050506040513d601f19601f82011682018060405250810190610176919061093b565b92915050565b601254604080516342bf3cc160e01b815290516000926001600160a01b0316916342bf3cc19160048083019260209291908290030181865afa1580156101c6573d6000803e3d6000fd5b505050506040513d601f19601f820116820180604052508101906101ea9190610958565b905090565b601254604051639836b75f60e01b81526001600160a01b0384811660048301526001600160401b03841660248301526000921690639836b75f90604401602060405180830381865afa158015610249573d6000803e3d6000fd5b505050506040513d601f19601f8201168201806040525081019061026d9190610958565b9392505050565b670de0b6b3a7640000891180610288575088155b1561029957670de0b6b3a764000098505b600a6001600160401b03881611806102b857506001600160401b038716155b156102c257600a96505b60338560ff1610806102d7575060648560ff16115b156102e157604694505b6012600083900b13156102f357601291505b60016001600160401b038916118061031257506001600160401b038816155b1561031c57600197505b60058360ff16111561032d57600192505b670de0b6b3a7640000841180610341575083155b1561034f576402540be40093505b603261ffff87161180610364575061ffff8616155b1561036e57603295505b60008360ff166001600160401b0381111561038b5761038b610975565b6040519080825280602002602001820160405280156103b4578160200160208202803683370190505b50905060005b8460ff168110156103f857808282815181106103d8576103d861098b565b6001600160a01b03909216602092830291909101909101526001016103ba565b50604080516101a081018252607b61016082019081526101808201849052815260125482516342bf3cc160e01b815292516000936020808501936001600160a01b0316926342bf3cc19260048082019392918290030181865afa158015610463573d6000803e3d6000fd5b505050506040513d601f19601f820116820180604052508101906104879190610958565b6001600160a01b03168152602001600081526020018c81526020018b6001600160401b031681526020018a6001600160401b031681526020018860ff1681526020018961ffff1681526020018781526020018560000b815260200160001515815250905060006104f68461066f565b60405163ca669fa760e01b81526001600160a01b0382166004820152909150737109709ecfa91a80626ff3989d68f67f5b1dd12d9063ca669fa790602401600060405180830381600087803b15801561054e57600080fd5b505af1158015610562573d6000803e3d6000fd5b50506011546040516305024b1560e51b81526001600160a01b03909116925063a04962a09150610596908590600401610a2e565b6020604051808303816000875af11580156105b5573d6000803e3d6000fd5b505050506040513d601f19601f820116820180604052508101906105d99190610958565b506105e5600f826106d4565b50505050505050505050505050565b60606101ea600f6106e9565b601254604051631163dca560e01b81526001600160a01b0383811660048301526000921690631163dca590602401602060405180830381865afa15801561064b573d6000803e3d6000fd5b505050506040513d601f19601f820116820180604052508101906101769190610958565b60008061067c600f6106f6565b90508015806106935750610691600484610b12565b155b156106a057503392915050565b6106aa600f6106e9565b6106b48285610b12565b815181106106c4576106c461098b565b6020026020010151915050919050565b600061026d836001600160a01b038416610700565b6060600061026d8361074f565b6000610176825490565b600081815260018301602052604081205461074757508154600181810184556000848152602080822090930184905584548482528286019093526040902091909155610176565b506000610176565b60608160000180548060200260200160405190810160405280929190818152602001828054801561079f57602002820191906000526020600020905b81548152602001906001019080831161078b575b50505050509050919050565b6001600160a01b03811681146107c057600080fd5b50565b6000602082840312156107d557600080fd5b813561026d816107ab565b6001600160401b03811681146107c057600080fd5b6000806040838503121561080857600080fd5b8235610813816107ab565b91506020830135610823816107e0565b809150509250929050565b803560ff8116811461083f57600080fd5b919050565b60008060008060008060008060006101208a8c03121561086357600080fd5b8935985060208a0135610875816107e0565b975060408a0135610885816107e0565b965060608a013561ffff8116811461089c57600080fd5b95506108aa60808b0161082e565b945060a08a013593506108bf60c08b0161082e565b925060e08a01358060000b81146108d557600080fd5b809250506101008a013590509295985092959850929598565b6020808252825182820181905260009190848201906040850190845b8181101561092f5783516001600160a01b03168352928401929184019160010161090a565b50909695505050505050565b60006020828403121561094d57600080fd5b815161026d816107e0565b60006020828403121561096a57600080fd5b815161026d816107ab565b634e487b7160e01b600052604160045260246000fd5b634e487b7160e01b600052603260045260246000fd5b6000604083016001600160401b03835116845260208084015160406020870152828151808552606088019150602083019450600092505b80831015610a015784516001600160a01b031682529383019360019290920191908301906109d8565b509695505050505050565b60018110610a2a57634e487b7160e01b600052602160045260246000fd5b9052565b6020815260008251610160806020850152610a4d6101808501836109a1565b91506020850151610a6960408601826001600160a01b03169052565b506040850151610a7c6060860182610a0c565b50606085015160808501526080850151610aa160a08601826001600160401b03169052565b5060a08501516001600160401b03811660c08601525060c085015160ff811660e08601525060e0850151610100610add8187018361ffff169052565b860151610120868101919091528601519050610140610b008187018360000b9052565b90950151151593019290925250919050565b600082610b2f57634e487b7160e01b600052601260045260246000fd5b50069056fea2646970667358221220685ade4d48188548c04ae9c768d2fe39f354e6399185d8523dc1b00510e5586c64736f6c63430008160033","linkReferences":{}},"methodIdentifiers":{"deploySubnetActorFromRegistry(uint256,uint64,uint64,uint16,uint8,uint256,uint8,int8,uint256)":"64675ce8","getGateway()":"42bf3cc1","getOwners()":"a0e67e2b","getSubnetDeployedBy(address)":"ce75761f","getSubnetDeployedWithNonce(address,uint64)":"58b1bc92","getUserLastNonce(address)":"030f6051"},"id":82}