{"abi":[{"type":"constructor","inputs":[{"name":"_subnetGetterFacetAddr","type":"address","internalType":"address"},{"name":"_registerSubnetFacetAddr","type":"address","internalType":"address"}],"stateMutability":"nonpayable"},{"type":"function","name":"deploySubnetActor","inputs":[{"name":"_minCollateral","type":"uint256","internalType":"uint256"},{"name":"_minValidators","type":"uint64","internalType":"uint64"},{"name":"_bottomUpCheckPeriod","type":"uint64","internalType":"uint64"},{"name":"_activeValidatorsLimit","type":"uint16","internalType":"uint16"},{"name":"_majorityPercentage","type":"uint8","internalType":"uint8"},{"name":"_minCrossMsgFee","type":"uint256","internalType":"uint256"},{"name":"_pathSize","type":"uint8","internalType":"uint8"},{"name":"_powerScale","type":"int8","internalType":"int8"}],"outputs":[],"stateMutability":"nonpayable"},{"type":"function","name":"getOwners","inputs":[],"outputs":[{"name":"","type":"address[]","internalType":"address[]"}],"stateMutability":"view"},{"type":"function","name":"getSubnetDeployedBy","inputs":[{"name":"owner","type":"address","internalType":"address"}],"outputs":[{"name":"subnet","type":"address","internalType":"address"}],"stateMutability":"view"},{"type":"function","name":"getSubnetDeployedWithNonce","inputs":[{"name":"owner","type":"address","internalType":"address"},{"name":"nonce","type":"uint64","internalType":"uint64"}],"outputs":[{"name":"subnet","type":"address","internalType":"address"}],"stateMutability":"view"},{"type":"function","name":"getUserLastNonce","inputs":[{"name":"user","type":"address","internalType":"address"}],"outputs":[{"name":"nonce","type":"uint64","internalType":"uint64"}],"stateMutability":"view"}],"bytecode":{"object":"0x60803461008b57601f6109f438819003918201601f19168301916001600160401b0383118484101761009057808492604094855283398101031261008b576020610048826100a6565b916001600160a01b0391829161005e91016100a6565b169160018060a01b0319928360025416176002551690600354161760035560405161093990816100bb8239f35b600080fd5b634e487b7160e01b600052604160045260246000fd5b51906001600160a01b038216820361008b5756fe608080604052600436101561001357600080fd5b60003560e01c908163030f605114610748575080632bb24eeb1461025357806358b1bc92146101b9578063a0e67e2b146100fb5763ce75761f1461005657600080fd5b346100f65760203660031901126100f65761006f6107e6565b600354604051631163dca560e01b81526001600160a01b03928316600482015291906020908390602490829085165afa9081156100ea576020926000926100bb575b5060405191168152f35b6100dc919250833d81116100e3575b6100d48183610812565b810190610833565b90386100b1565b503d6100ca565b6040513d6000823e3d90fd5b600080fd5b346100f65760003660031901126100f6576040518060005480835260208093018091600080527f290decd9548b62a8d60345a988386fc84ba6bc95484008f6362f93160ef3e5639060005b868282106101a557868661015c82880383610812565b604051928392818401908285525180915260408401929160005b82811061018557505050500390f35b83516001600160a01b031685528695509381019392810192600101610176565b835485529093019260019283019201610146565b346100f65760403660031901126100f6576101d26107e6565b604460206101de6107fc565b600354604051639836b75f60e01b81526001600160a01b0395861660048201526001600160401b0390921660248301529093928491829085165afa9081156100ea57602092600092610234575060405191168152f35b61024c919250833d81116100e3576100d48183610812565b90836100b1565b346100f6576101003660031901126100f65761026d6107fc565b6044356001600160401b03811681036100f6576064359161ffff831683036100f65760843560ff811681036100f65760c43560ff811681036100f65760e435928360000b84036100f65760043590809386978094829360a435988294819b670de0b6b3a764000089118015610740575b610730575b600a6001600160401b0382161190811561071e575b50610715575b603360ff821610908115610707575b506106fe575b60129060000b136106f5575b60016001600160401b038216119081156106e3575b506106da575b60ff60059116116106d1575b670de0b6b3a7640000871180156106c9575b6106bc575b603261ffff8216119081156106af575b506106a6575b61037e60ff8216610852565b9061038c6040519283610812565b60ff8116808352601f19906103a090610852565b0136602084013760005b60ff8216811061064b575050604051978860408101106001600160401b0360408b0111176106145760049160408a01604052607b8a5260208a0152602060018060a01b0360035416604051938480926342bf3cc160e01b82525afa9182156100ea5760009261062a575b5060405198896101408101106001600160401b036101408c0111176106145761ffff9660ff956001600160401b039485936101408e016040528d5260018060a01b031660208d0152600060408d015260608c01521660808a01521660a08801521660c08601521660e084015261010083015260000b61012082015260018060a01b036002541660405191630c2133cd60e11b8352602060048401526020815161014060248601526001600160401b0381511661016486015201519160406101848501526101a48401835180915260206101c4860194019060005b8181106105f55750505060208201516001600160a01b0316604485015260408201519260018410156105df5760008580949261012082946020986064850152606081015160848501526001600160401b0360808201511660a48501526001600160401b0360a08201511660c485015260ff60c08201511660e485015261ffff60e0820151166101048501526101008101516101248501520151830b61014483015203925af180156100ea576105c0575b50336000526001602052604060002054156105b557005b6105be33610869565b005b6105d89060203d6020116100e3576100d48183610812565b508061059e565b634e487b7160e01b600052602160045260246000fd5b82516001600160a01b03168652602095860195909201916001016104ee565b634e487b7160e01b600052604160045260246000fd5b61064491925060203d6020116100e3576100d48183610812565b9089610414565b8251811015610690576001600160a01b038116600582901b840160200152600019811461067a576001016103aa565b634e487b7160e01b600052601160045260246000fd5b634e487b7160e01b600052603260045260246000fd5b60329350610372565b61ffff915016158961036c565b6402540be400965061035c565b508615610357565b60019150610345565b60019650610339565b6001600160401b03915016158b610333565b6012995061031e565b60469550610312565b6064915060ff16118d61030c565b600a9c506102fd565b6001600160401b03915016158e6102f7565b670de0b6b3a764000098506102e2565b5088156102dd565b346100f657602090816003193601126100f65781816024816107686107e6565b60035463030f605160e01b83526001600160a01b039182166004840152165afa9081156100ea576000916107a9575b506001600160401b0360405191168152f35b90508181813d83116107df575b6107c08183610812565b810103126100f657516001600160401b03811681036100f65782610797565b503d6107b6565b600435906001600160a01b03821682036100f657565b602435906001600160401b03821682036100f657565b90601f801991011681019081106001600160401b0382111761061457604052565b908160209103126100f657516001600160a01b03811681036100f65790565b6001600160401b0381116106145760051b60200190565b6000818152600160205260408120546108fe578054680100000000000000008110156108ea57600181018083558110156108d65790826040927f290decd9548b62a8d60345a988386fc84ba6bc95484008f6362f93160ef3e5630155805492815260016020522055600190565b634e487b7160e01b82526032600452602482fd5b634e487b7160e01b82526041600452602482fd5b90509056fea26469706673582212207f3336beee366f61195f671d20874788031745ef16b0bf050a00223617f7fe6964736f6c63430008130033","linkReferences":{}},"methodIdentifiers":{"deploySubnetActor(uint256,uint64,uint64,uint16,uint8,uint256,uint8,int8)":"2bb24eeb","getOwners()":"a0e67e2b","getSubnetDeployedBy(address)":"ce75761f","getSubnetDeployedWithNonce(address,uint64)":"58b1bc92","getUserLastNonce(address)":"030f6051"},"id":79}