{"abi":[{"type":"constructor","inputs":[{"name":"_subnetGetterFacetAddr","type":"address","internalType":"address"},{"name":"_registerSubnetFacetAddr","type":"address","internalType":"address"}],"stateMutability":"nonpayable"},{"type":"function","name":"deploySubnetActor","inputs":[{"name":"_minCollateral","type":"uint256","internalType":"uint256"},{"name":"_minValidators","type":"uint64","internalType":"uint64"},{"name":"_bottomUpCheckPeriod","type":"uint64","internalType":"uint64"},{"name":"_activeValidatorsLimit","type":"uint16","internalType":"uint16"},{"name":"_majorityPercentage","type":"uint8","internalType":"uint8"},{"name":"_minCrossMsgFee","type":"uint256","internalType":"uint256"},{"name":"_pathSize","type":"uint8","internalType":"uint8"},{"name":"_powerScale","type":"int8","internalType":"int8"}],"outputs":[],"stateMutability":"nonpayable"},{"type":"function","name":"getOwners","inputs":[],"outputs":[{"name":"","type":"address[]","internalType":"address[]"}],"stateMutability":"view"},{"type":"function","name":"getSubnetDeployedBy","inputs":[{"name":"owner","type":"address","internalType":"address"}],"outputs":[{"name":"subnet","type":"address","internalType":"address"}],"stateMutability":"view"},{"type":"function","name":"getSubnetDeployedWithNonce","inputs":[{"name":"owner","type":"address","internalType":"address"},{"name":"nonce","type":"uint64","internalType":"uint64"}],"outputs":[{"name":"subnet","type":"address","internalType":"address"}],"stateMutability":"view"},{"type":"function","name":"getUserLastNonce","inputs":[{"name":"user","type":"address","internalType":"address"}],"outputs":[{"name":"nonce","type":"uint64","internalType":"uint64"}],"stateMutability":"view"}],"bytecode":{"object":"0x608060405234801561001057600080fd5b50604051610aed380380610aed83398101604081905261002f9161007f565b600280546001600160a01b039283166001600160a01b031991821617909155600380549390921692169190911790556100b2565b80516001600160a01b038116811461007a57600080fd5b919050565b6000806040838503121561009257600080fd5b61009b83610063565b91506100a960208401610063565b90509250929050565b610a2c806100c16000396000f3fe608060405234801561001057600080fd5b50600436106100575760003560e01c8063030f60511461005c5780632bb24eeb1461008c57806358b1bc92146100a1578063a0e67e2b146100cc578063ce75761f146100e1575b600080fd5b61006f61006a366004610697565b6100f4565b6040516001600160401b0390911681526020015b60405180910390f35b61009f61009a3660046106df565b610169565b005b6100b46100af36600461077f565b61048b565b6040516001600160a01b039091168152602001610083565b6100d4610510565b60405161008391906107b8565b6100b46100ef366004610697565b610521565b60035460405163030f605160e01b81526001600160a01b038381166004830152600092169063030f605190602401602060405180830381865afa15801561013f573d6000803e3d6000fd5b505050506040513d601f19601f820116820180604052508101906101639190610805565b92915050565b670de0b6b3a764000088118061017d575087155b1561018e57670de0b6b3a764000097505b600a6001600160401b03871611806101ad57506001600160401b038616155b156101b757600a95505b60338460ff1610806101cc575060648460ff16115b156101d657604693505b6012600082900b13156101e7575060125b60016001600160401b038816118061020657506001600160401b038716155b1561021057600196505b60058260ff16111561022157600191505b670de0b6b3a7640000831180610235575082155b15610243576402540be40092505b603261ffff86161180610258575061ffff8516155b1561026257603294505b60008260ff166001600160401b0381111561027f5761027f610822565b6040519080825280602002602001820160405280156102a8578160200160208202803683370190505b50905060005b8360ff168110156102f457808282815181106102cc576102cc610838565b6001600160a01b03909216602092830291909101909101526102ed8161084e565b90506102ae565b506040805161018081018252607b61014082019081526101608201849052815260035482516342bf3cc160e01b815292516000936020808501936001600160a01b0316926342bf3cc19260048082019392918290030181865afa15801561035f573d6000803e3d6000fd5b505050506040513d601f19601f820116820180604052508101906103839190610875565b6001600160a01b03168152602001600081526020018b81526020018a6001600160401b03168152602001896001600160401b031681526020018760ff1681526020018861ffff1681526020018681526020018460000b8152509050600260009054906101000a90046001600160a01b03166001600160a01b0316631842679a826040518263ffffffff1660e01b815260040161041f919061091d565b6020604051808303816000875af115801561043e573d6000803e3d6000fd5b505050506040513d601f19601f820116820180604052508101906104629190610875565b5061046e600033610590565b61047f5761047d6000336105b2565b505b50505050505050505050565b600354604051639836b75f60e01b81526001600160a01b0384811660048301526001600160401b03841660248301526000921690639836b75f90604401602060405180830381865afa1580156104e5573d6000803e3d6000fd5b505050506040513d601f19601f820116820180604052508101906105099190610875565b9392505050565b606061051c60006105c7565b905090565b600354604051631163dca560e01b81526001600160a01b0383811660048301526000921690631163dca590602401602060405180830381865afa15801561056c573d6000803e3d6000fd5b505050506040513d601f19601f820116820180604052508101906101639190610875565b6001600160a01b03811660009081526001830160205260408120541515610509565b6000610509836001600160a01b0384166105d4565b6060600061050983610623565b600081815260018301602052604081205461061b57508154600181810184556000848152602080822090930184905584548482528286019093526040902091909155610163565b506000610163565b60608160000180548060200260200160405190810160405280929190818152602001828054801561067357602002820191906000526020600020905b81548152602001906001019080831161065f575b50505050509050919050565b6001600160a01b038116811461069457600080fd5b50565b6000602082840312156106a957600080fd5b81356105098161067f565b6001600160401b038116811461069457600080fd5b803560ff811681146106da57600080fd5b919050565b600080600080600080600080610100898b0312156106fc57600080fd5b88359750602089013561070e816106b4565b9650604089013561071e816106b4565b9550606089013561ffff8116811461073557600080fd5b945061074360808a016106c9565b935060a0890135925061075860c08a016106c9565b915060e08901358060000b811461076e57600080fd5b809150509295985092959890939650565b6000806040838503121561079257600080fd5b823561079d8161067f565b915060208301356107ad816106b4565b809150509250929050565b6020808252825182820181905260009190848201906040850190845b818110156107f95783516001600160a01b0316835292840192918401916001016107d4565b50909695505050505050565b60006020828403121561081757600080fd5b8151610509816106b4565b634e487b7160e01b600052604160045260246000fd5b634e487b7160e01b600052603260045260246000fd5b60006001820161086e57634e487b7160e01b600052601160045260246000fd5b5060010190565b60006020828403121561088757600080fd5b81516105098161067f565b6000604083016001600160401b0383511684526020808401516040828701528281518085526060880191508383019450600092505b808310156108f05784516001600160a01b031682529383019360019290920191908301906108c7565b509695505050505050565b6001811061091957634e487b7160e01b600052602160045260246000fd5b9052565b602081526000825161014080602085015261093c610160850183610892565b9150602085015161095860408601826001600160a01b03169052565b50604085015161096b60608601826108fb565b5060608501516080850152608085015161099060a08601826001600160401b03169052565b5060a08501516001600160401b03811660c08601525060c085015160ff811660e08601525060e08501516101006109cc8187018361ffff169052565b8601516101208681019190915286015190506109ec8286018260000b9052565b509094935050505056fea26469706673582212206b92408c1156762b09fac9ee86c543bf28ac081a6fa64bfac123acfc84bdfd9464736f6c63430008130033","linkReferences":{}},"methodIdentifiers":{"deploySubnetActor(uint256,uint64,uint64,uint16,uint8,uint256,uint8,int8)":"2bb24eeb","getOwners()":"a0e67e2b","getSubnetDeployedBy(address)":"ce75761f","getSubnetDeployedWithNonce(address,uint64)":"58b1bc92","getUserLastNonce(address)":"030f6051"},"id":89}