{"abi":[{"type":"constructor","inputs":[{"name":"_registry","type":"address","internalType":"contract SubnetRegistryDiamond"}],"stateMutability":"nonpayable"},{"type":"function","name":"deploySubnetActor","inputs":[{"name":"_minCollateral","type":"uint256","internalType":"uint256"},{"name":"_minValidators","type":"uint64","internalType":"uint64"},{"name":"_bottomUpCheckPeriod","type":"uint64","internalType":"uint64"},{"name":"_activeValidatorsLimit","type":"uint16","internalType":"uint16"},{"name":"_majorityPercentage","type":"uint8","internalType":"uint8"},{"name":"_minCrossMsgFee","type":"uint256","internalType":"uint256"},{"name":"_pathSize","type":"uint8","internalType":"uint8"},{"name":"_powerScale","type":"int8","internalType":"int8"},{"name":"seed","type":"uint256","internalType":"uint256"}],"outputs":[],"stateMutability":"nonpayable"},{"type":"function","name":"getGateway","inputs":[],"outputs":[{"name":"","type":"address","internalType":"address"}],"stateMutability":"view"},{"type":"function","name":"getOwners","inputs":[],"outputs":[{"name":"","type":"address[]","internalType":"address[]"}],"stateMutability":"view"},{"type":"function","name":"getSubnetDeployedBy","inputs":[{"name":"owner","type":"address","internalType":"address"}],"outputs":[{"name":"subnet","type":"address","internalType":"address"}],"stateMutability":"view"},{"type":"function","name":"getSubnetDeployedWithNonce","inputs":[{"name":"owner","type":"address","internalType":"address"},{"name":"nonce","type":"uint64","internalType":"uint64"}],"outputs":[{"name":"subnet","type":"address","internalType":"address"}],"stateMutability":"view"},{"type":"function","name":"getUserLastNonce","inputs":[{"name":"user","type":"address","internalType":"address"}],"outputs":[{"name":"nonce","type":"uint64","internalType":"uint64"}],"stateMutability":"view"}],"bytecode":{"object":"0x60803461007a57601f610b7b38819003918201601f19168301916001600160401b0383118484101761007f5780849260209460405283398101031261007a57516001600160a01b0381169081900361007a5760018060a01b0319818160115416176011556012541617601255604051610ae590816100968239f35b600080fd5b634e487b7160e01b600052604160045260246000fdfe608080604052600436101561001357600080fd5b600090813560e01c908163030f6051146107ed575080631339305f1461028c57806342bf3cc11461023a57806358b1bc92146101c0578063a0e67e2b146101035763ce75761f1461006357600080fd5b346101005760203660031901126101005761007c6108a2565b601254604051631163dca560e01b81526001600160a01b03928316600482015291906020908390602490829085165afa9182156100f557602093926100c6575b5060405191168152f35b6100e7919250833d81116100ee575b6100df81836108d3565b81019061090a565b90386100bc565b503d6100d5565b6040513d85823e3d90fd5b80fd5b50346101005780600319360112610100576040518091600f549081835260208093018092600f83527f8d1108e10bcb7c27dddfc02ed9d693a074039d026cf4ea4240b40f7d581ac80290835b8181106101ac57505050846101659103856108d3565b60405193838594850191818652518092526040850193925b82811061018c57505050500390f35b83516001600160a01b03168552869550938101939281019260010161017d565b82548452928601926001928301920161014f565b5034610100576040366003190112610100576101da6108a2565b604460206101e66108bd565b601254604051639836b75f60e01b81526001600160a01b0395861660048201526001600160401b0390921660248301529093928491829085165afa9182156100f557602093926100c6575060405191168152f35b50346101005780600319360112610100576012546040516342bf3cc160e01b8152906001600160a01b03906020908390600490829085165afa9182156100f557602093926100c6575060405191168152f35b503461010057610120366003190112610100576102a76108bd565b6044356001600160401b038116918282036107e95760643561ffff81168082036107e5576084359160ff8316948584036107e15760c4359460ff8616938487036107dd5760e43598898b0b95868b036107d95760043593809596989760a4359a9c9b670de0b6b3a76400009485881180156107d1575b6107c8575b600a81119081156107bf575b506107b6575b603381109081156107ab575b506107a2575b601212610799575b6001600160401b031660018111908115610790575b50610787575b60051061077e575b87118015610776575b610769575b60328111908115610760575b50610757575b61039d60ff8916610929565b976103ab604051998a6108d3565b60ff8116808a52601f19906103bf90610929565b013660208b0137895b60ff8216811061071d575050604051978860408101106001600160401b0360408b0111176107095760408901604052607b895260208901526004602060018060a01b0360125416604051928380926342bf3cc160e01b82525afa9081156106fe578a916106df575b5060405198896101408101106001600160401b036101408c0111176106cb576101408a016040908152908a526001600160a01b0390911660208a0152880189905260608801526001600160401b0390811660808801521660a086015260ff1660c085015261ffff1660e0840152610100830152820b6101208201526104b7610104356109f3565b737109709ecfa91a80626ff3989d68f67f5b1dd12d3b156106c75760405163ca669fa760e01b81526001600160a01b0382166004820152838160248183737109709ecfa91a80626ff3989d68f67f5b1dd12d5af180156106bc5761068d575b5060018060a01b036011541660405192630c2133cd60e11b8452602060048501526020815161014060248701526001600160401b0381511661016487015201519060406101848601526101a48501825180915260206101c48701930190875b81811061066e5750505060208101516001600160a01b031660448601526040810151600181101561065a57868680946101206020979583956064850152606081015160848501526001600160401b0360808201511660a48501526001600160401b0360a08201511660c485015260ff60c08201511660e485015261ffff60e0820151166101048501526101008101516101248501520151830b61014483015203925af19182156100f5576106379261063b575b506001600160a01b031661096a565b5080f35b6106539060203d6020116100ee576100df81836108d3565b5038610628565b634e487b7160e01b87526021600452602487fd5b82516001600160a01b0316855260209485019490920191600101610575565b6001600160401b0381949294116106a8576040529138610516565b634e487b7160e01b82526041600452602482fd5b6040513d86823e3d90fd5b8280fd5b634e487b7160e01b8b52604160045260248bfd5b6106f8915060203d6020116100ee576100df81836108d3565b38610430565b6040513d8c823e3d90fd5b634e487b7160e01b8a52604160045260248afd5b6001600160a01b038116610731828c610940565b526000198114610743576001016103c8565b634e487b7160e01b8b52601160045260248bfd5b60329450610391565b9050153861038b565b6402540be400965061037f565b50861561037a565b60019950610371565b60019450610369565b90501538610363565b60129a5061034e565b60469850610346565b606491501138610340565b600a9850610334565b9050153861032e565b96508496610322565b50871561031d565b8b80fd5b8980fd5b8780fd5b8580fd5b8380fd5b90503461088a576020918260031936011261010057828260248161080f6108a2565b60125463030f605160e01b83526001600160a01b039182166004840152165afa918215610895578192610850575b50506001600160401b0360405191168152f35b9091508281813d831161088e575b61086881836108d3565b8101031261088a5751906001600160401b03821682036101005750388061083d565b5080fd5b503d61085e565b50604051903d90823e3d90fd5b600435906001600160a01b03821682036108b857565b600080fd5b602435906001600160401b03821682036108b857565b90601f801991011681019081106001600160401b038211176108f457604052565b634e487b7160e01b600052604160045260246000fd5b908160209103126108b857516001600160a01b03811681036108b85790565b6001600160401b0381116108f45760051b60200190565b80518210156109545760209160051b010190565b634e487b7160e01b600052603260045260246000fd5b6000818152601060205260408120546109ee57600f54680100000000000000008110156106a8576001810180600f558110156109da5790826040927f8d1108e10bcb7c27dddfc02ed9d693a074039d026cf4ea4240b40f7d581ac8020155600f5492815260106020522055600190565b634e487b7160e01b82526032600452602482fd5b905090565b600f548015808015610aa4575b15610a0c575050503390565b6040519081838152826020809201600f6000527f8d1108e10bcb7c27dddfc02ed9d693a074039d026cf4ea4240b40f7d581ac8029260005b878110610a8d575050610a59925003836108d3565b610a77576001600160a01b0392610a7292900690610940565b511690565b634e487b7160e01b600052601260045260246000fd5b845483526001948501948794509282019201610a44565b506003831615610a0056fea2646970667358221220f06077dc8ab45eaa57f37433c3cb5d309a52fecdf3b35784c35d211026e741c364736f6c63430008130033","linkReferences":{}},"methodIdentifiers":{"deploySubnetActor(uint256,uint64,uint64,uint16,uint8,uint256,uint8,int8,uint256)":"1339305f","getGateway()":"42bf3cc1","getOwners()":"a0e67e2b","getSubnetDeployedBy(address)":"ce75761f","getSubnetDeployedWithNonce(address,uint64)":"58b1bc92","getUserLastNonce(address)":"030f6051"},"id":79}