{"abi":[{"type":"constructor","inputs":[{"name":"_subnetActor","type":"address","internalType":"contract SubnetActorDiamond"}],"stateMutability":"nonpayable"},{"type":"receive","stateMutability":"payable"},{"type":"function","name":"getRandomValidator","inputs":[{"name":"id","type":"uint8","internalType":"uint8"}],"outputs":[{"name":"","type":"address","internalType":"address"}],"stateMutability":"view"},{"type":"function","name":"getRandomValidatorFromSetOrZero","inputs":[{"name":"seed","type":"uint8","internalType":"uint8"}],"outputs":[{"name":"","type":"address","internalType":"address"}],"stateMutability":"view"},{"type":"function","name":"ghost_stakedSum","inputs":[],"outputs":[{"name":"","type":"uint256","internalType":"uint256"}],"stateMutability":"view"},{"type":"function","name":"ghost_unstakedSum","inputs":[],"outputs":[{"name":"","type":"uint256","internalType":"uint256"}],"stateMutability":"view"},{"type":"function","name":"ghost_validators_staked","inputs":[{"name":"","type":"address","internalType":"address"}],"outputs":[{"name":"","type":"uint256","internalType":"uint256"}],"stateMutability":"view"},{"type":"function","name":"ghost_validators_unstaked","inputs":[{"name":"","type":"address","internalType":"address"}],"outputs":[{"name":"","type":"uint256","internalType":"uint256"}],"stateMutability":"view"},{"type":"function","name":"join","inputs":[{"name":"id","type":"uint8","internalType":"uint8"},{"name":"amount","type":"uint256","internalType":"uint256"}],"outputs":[],"stateMutability":"nonpayable"},{"type":"function","name":"joinedValidators","inputs":[],"outputs":[{"name":"","type":"address[]","internalType":"address[]"}],"stateMutability":"view"},{"type":"function","name":"joinedValidatorsNumber","inputs":[],"outputs":[{"name":"","type":"uint256","internalType":"uint256"}],"stateMutability":"view"},{"type":"function","name":"leave","inputs":[{"name":"id","type":"uint8","internalType":"uint8"}],"outputs":[{"name":"","type":"address","internalType":"address"}],"stateMutability":"nonpayable"},{"type":"function","name":"stake","inputs":[{"name":"id","type":"uint8","internalType":"uint8"},{"name":"amount","type":"uint256","internalType":"uint256"}],"outputs":[],"stateMutability":"nonpayable"},{"type":"function","name":"unstake","inputs":[{"name":"id","type":"uint8","internalType":"uint8"},{"name":"amount","type":"uint256","internalType":"uint256"}],"outputs":[],"stateMutability":"nonpayable"}],"bytecode":{"object":"0x608034610106576001600160401b0390601f61109e38819003918201601f1916830191848311848410176100e45780849260209460405283398101031261010657516001600160a01b038116908190036101065760018060a01b03198181600f541617600f556010541617601055737109709ecfa91a80626ff3989d68f67f5b1dd12d90813b15610106576000809260446040518095819363c88a5e6d60e01b83523060048401526a6b31bffa03c1c535c0000060248401525af180156100fa576100d4575b604051610f92908161010c8239f35b81116100e45760405238806100c5565b634e487b7160e01b600052604160045260246000fd5b6040513d6000823e3d90fd5b600080fdfe6080604081815260049182361015610022575b505050361561002057600080fd5b005b600092833560e01c9182630a52ee9614610547575081632cb5402514610521578163a0758127146104be578163a64efe5d14610498578163a7818a481461045e578163b00053cf1461043f578163b4545b9e146102e8578163bc5683e1146102c3578163bd0fa1b114610298578163c2da05121461025e578163dd752e55146100ef575063f2a2870b146100b65780610012565b346100eb5760203660031901126100eb576020906100da6100d5610563565b61099f565b90516001600160a01b039091168152f35b5080fd5b905034610228578160031936011261022857610109610563565b918361011f610119602435610b61565b946107a4565b9261012a8585610c29565b737109709ecfa91a80626ff3989d68f67f5b1dd12d93843b1561022857835163ca669fa760e01b815283816024818360018060a01b038097169a8b898401525af180156102405790849161024a575b505080600f5416803b1561021a5783879184875180948193633a4b66f160e01b83525af180156102405790849161022c575b5050600f541690813b1561022857835163c7ebdaef60e01b81529183918391829084905af1801561021e57610206575b5050610201916101ed846015546105c4565b6015558452601360205283209182546105c4565b905580f35b61020f90610578565b61021a5783386101db565b8380fd5b83513d84823e3d90fd5b8280fd5b61023590610578565b6102285782386101ab565b85513d86823e3d90fd5b61025390610578565b610228578238610179565b90503461022857602036600319011261022857356001600160a01b0381169081900361022857828291602094526014845220549051908152f35b5050346100eb573660031901126102c0576102bd6102b4610563565b6024359061081b565b80f35b80fd5b5050346100eb57816003193601126100eb576020906102e0610d9a565b519051908152f35b905034610228578160031936011261022857610302610563565b91610317610311602435610b61565b936107a4565b91737109709ecfa91a80626ff3989d68f67f5b1dd12d92833b1561043b57825163ca669fa760e01b815286816024818360018060a01b03809716998a898401525af180156104315761041c575b5090818692600f5416803b1561021a5783809160248751809481936305c2fbcf60e31b83528c898401525af1801561024057908491610408575b5050600f541690813b1561022857835163c7ebdaef60e01b81529183918391829084905af1801561021e576103f4575b5050610201916103e0846016546105c4565b6016558452601460205283209182546105c4565b6103fd90610578565b61021a5783386103ce565b61041190610578565b61022857823861039e565b6104299096919296610578565b949038610364565b84513d89823e3d90fd5b8580fd5b5050346100eb57816003193601126100eb576020906015549051908152f35b90503461022857602036600319011261022857356001600160a01b0381169081900361022857828291602094526013845220549051908152f35b5050346100eb5760203660031901126100eb576020906100da6104b9610563565b6107a4565b5050346100eb57816003193601126100eb576104d8610d9a565b815192839260208080860192818752855180945286019401925b82811061050157505050500390f35b83516001600160a01b0316855286955093810193928101926001016104f2565b5050346100eb5760203660031901126100eb576020906100da610542610563565b6105e7565b8490346100eb57816003193601126100eb576020906016548152f35b6004359060ff8216820361057357565b600080fd5b67ffffffffffffffff811161058c57604052565b634e487b7160e01b600052604160045260246000fd5b90601f8019910116810190811067ffffffffffffffff82111761058c57604052565b919082018092116105d157565b634e487b7160e01b600052601160045260246000fd5b6105f09061099f565b600091906001600160a01b03808216801561079d57906024918160105416916020604093845195868092630acbdfbf60e11b82528660048301525afa938415610720578794610765575b5086737109709ecfa91a80626ff3989d68f67f5b1dd12d803b156100eb578190602486518094819363ca669fa760e01b83528860048401525af1801561075b57610748575b50808791600f5416803b1561022857828091600487518094819363d66d9e1960e01b83525af1801561073e5790839161072a575b5050600f5416803b156100eb578190600485518094819363c7ebdaef60e01b83525af180156107205761070c575b5090610706939495826106f48594610cad565b508152601460205220556016546105c4565b60165590565b6107168791610578565b61043b57386106e1565b83513d89823e3d90fd5b61073390610578565b6100eb5781386106b3565b85513d85823e3d90fd5b61075490979197610578565b953861067f565b84513d8a823e3d90fd5b9093506020813d602011610795575b81610781602093836105a2565b810103126107915751923861063a565b8680fd5b3d9150610774565b5090925050565b600181166107cc576107b59061099f565b6001600160a01b038116156107c75790565b503390565b6107d590610a20565b506107b5565b919082519283825260005b848110610807575050826000602080949584010152601f8019910116010190565b6020818301810151848301820152016107e6565b6000929160ff8216156109995761083461083a91610b61565b91610a20565b61084683839493610c29565b737109709ecfa91a80626ff3989d68f67f5b1dd12d92833b1561043b57604091825163ca669fa760e01b815287816024818360018060a01b038098169a8b60048401525af1801561075b57610984575b5090869181600f5416803b1561021a576108d08491879387519485809481936330b858b160e11b83526020600484015260248301906107db565b03925af1801561097a57908391610966575b5050600f5416803b156100eb578190600484518094819363c7ebdaef60e01b83525af1801561095c57610944575b5061093a906109419495610926846015546105c4565b6015558481526013602052209182546105c4565b9055610ef1565b50565b61094e8691610578565b6109585738610910565b8480fd5b82513d88823e3d90fd5b61096f90610578565b6100eb5781386108e2565b84513d85823e3d90fd5b6109919097919297610578565b959038610896565b50509050565b60115480156109ec5760ff6109b2610d9a565b9216069080518210156109d65760059190911b01602001516001600160a01b031690565b634e487b7160e01b600052603260045260246000fd5b5050600090565b67ffffffffffffffff811161058c57601f01601f191660200190565b9081518110156109d6570160200190565b604051906080820182811067ffffffffffffffff82111761058c5760405260418252606036602084013781516001600160f81b0319918391600191600091831015610b4d5760f81b8416811a602184015382516000198082019590918611610b3957908397969594939291610aad610a97876109f3565b96610aa560405198896105a2565b8088526109f3565b602087019590601f19013687376001995b610add575b505093519092206001600160a01b03169550929392505050565b80518a1015610b345781610af18b83610a0f565b5116998381019a818c11610b205790869798999a9b610b148893881a918c610a0f565b53019998979695610abe565b634e487b7160e01b86526011600452602486fd5b610ac3565b634e487b7160e01b83526011600452602483fd5b634e487b7160e01b82526032600452602482fd5b610b6a90610e0a565b906040516040810181811067ffffffffffffffff82111761058c576000918291604052600c81526b109bdd5b990814995cdd5b1d60a21b6020820152604051610be481610bd06020820194632d839cb360e21b86526040602484015260648301906107db565b88604483015203601f1981018352826105a2565b51906a636f6e736f6c652e6c6f675afa506109415b3d15610c24573d90610c0a826109f3565b91610c1860405193846105a2565b82523d6000602084013e565b606090565b600080809381935af1610c3a610bf9565b5015610c4257565b60405162461bcd60e51b815260206004820152600c60248201526b1c185e4a0a4819985a5b195960a21b6044820152606490fd5b6011548110156109d65760116000527f31ecc21a745e3968a04e9570e4425bc18fa8019c68028196b546d1669c200c680190600090565b6000818152601260205260408120549091908015610d955760001990808201818111610d815760115490838201918211610b2057808203610d36575b5050506011548015610d2257810190610d0182610c76565b909182549160031b1b19169055601155815260126020526040812055600190565b634e487b7160e01b84526031600452602484fd5b610d6b610d45610d5493610c76565b90549060031b1c928392610c76565b819391549060031b91821b91600019901b19161790565b9055845260126020526040842055388080610ce9565b634e487b7160e01b85526011600452602485fd5b505090565b6040519060115480835282602091602082019060116000527f31ecc21a745e3968a04e9570e4425bc18fa8019c68028196b546d1669c200c68936000905b828210610df057505050610dee925003836105a2565b565b855484526001958601958895509381019390910190610dd8565b6801a055690d9db8000090600090818382118015610ed757600383111580610edf575b610ed75760031983101580610ec4575b610eb45715610ead57506801a055690d9db7ffff198101908111610e99576801a055690d9db800019006918215610e9357506000198201918211610e7f575090565b634e487b7160e01b81526011600452602490fd5b91505090565b634e487b7160e01b82526011600452602482fd5b9392505050565b5050198203918211610e7f575090565b5082196801a055690d9db8000111610e3d565b505091505090565b50826801a055690d9db8000111610e2d565b600081815260126020526040812054610f575760115468010000000000000000811015610f43579082610f2f610d5484600160409601601155610c76565b905560115492815260126020522055600190565b634e487b7160e01b82526041600452602482fd5b90509056fea2646970667358221220b804b297ec84bfbac0a0dcb830f393eecba905f41906b47b9ce47a4d7d30a57664736f6c63430008160033","linkReferences":{}},"methodIdentifiers":{"getRandomValidator(uint8)":"a64efe5d","getRandomValidatorFromSetOrZero(uint8)":"f2a2870b","ghost_stakedSum()":"b00053cf","ghost_unstakedSum()":"0a52ee96","ghost_validators_staked(address)":"a7818a48","ghost_validators_unstaked(address)":"c2da0512","join(uint8,uint256)":"bd0fa1b1","joinedValidators()":"a0758127","joinedValidatorsNumber()":"bc5683e1","leave(uint8)":"2cb54025","stake(uint8,uint256)":"dd752e55","unstake(uint8,uint256)":"b4545b9e"},"id":84}