{"abi":[{"type":"constructor","inputs":[{"name":"_subnetActor","type":"address","internalType":"contract SubnetActorDiamond"}],"stateMutability":"nonpayable"},{"type":"receive","stateMutability":"payable"},{"type":"function","name":"getRandomValidator","inputs":[{"name":"id","type":"uint8","internalType":"uint8"}],"outputs":[{"name":"","type":"address","internalType":"address"}],"stateMutability":"view"},{"type":"function","name":"getRandomValidatorFromSetOrZero","inputs":[{"name":"seed","type":"uint8","internalType":"uint8"}],"outputs":[{"name":"","type":"address","internalType":"address"}],"stateMutability":"view"},{"type":"function","name":"ghost_stakedSum","inputs":[],"outputs":[{"name":"","type":"uint256","internalType":"uint256"}],"stateMutability":"view"},{"type":"function","name":"ghost_unstakedSum","inputs":[],"outputs":[{"name":"","type":"uint256","internalType":"uint256"}],"stateMutability":"view"},{"type":"function","name":"ghost_validators_staked","inputs":[{"name":"","type":"address","internalType":"address"}],"outputs":[{"name":"","type":"uint256","internalType":"uint256"}],"stateMutability":"view"},{"type":"function","name":"ghost_validators_unstaked","inputs":[{"name":"","type":"address","internalType":"address"}],"outputs":[{"name":"","type":"uint256","internalType":"uint256"}],"stateMutability":"view"},{"type":"function","name":"join","inputs":[{"name":"id","type":"uint8","internalType":"uint8"},{"name":"amount","type":"uint256","internalType":"uint256"}],"outputs":[],"stateMutability":"nonpayable"},{"type":"function","name":"joinedValidators","inputs":[],"outputs":[{"name":"","type":"address[]","internalType":"address[]"}],"stateMutability":"view"},{"type":"function","name":"joinedValidatorsNumber","inputs":[],"outputs":[{"name":"","type":"uint256","internalType":"uint256"}],"stateMutability":"view"},{"type":"function","name":"leave","inputs":[{"name":"id","type":"uint8","internalType":"uint8"}],"outputs":[{"name":"","type":"address","internalType":"address"}],"stateMutability":"nonpayable"},{"type":"function","name":"stake","inputs":[{"name":"id","type":"uint8","internalType":"uint8"},{"name":"amount","type":"uint256","internalType":"uint256"}],"outputs":[],"stateMutability":"nonpayable"},{"type":"function","name":"unstake","inputs":[{"name":"id","type":"uint8","internalType":"uint8"},{"name":"amount","type":"uint256","internalType":"uint256"}],"outputs":[],"stateMutability":"nonpayable"}],"bytecode":{"object":"0x608060405234801561001057600080fd5b5060405161147b38038061147b83398101604081905261002f916100ed565b600f80546001600160a01b0383166001600160a01b0319918216811790925560108054909116909117905561006f306a6b31bffa03c1c535c00000610075565b5061011d565b60405163c88a5e6d60e01b81526001600160a01b038316600482015260248101829052737109709ecfa91a80626ff3989d68f67f5b1dd12d9063c88a5e6d90604401600060405180830381600087803b1580156100d157600080fd5b505af11580156100e5573d6000803e3d6000fd5b505050505050565b6000602082840312156100ff57600080fd5b81516001600160a01b038116811461011657600080fd5b9392505050565b61134f8061012c6000396000f3fe6080604052600436106100ab5760003560e01c8063b4545b9e11610064578063b4545b9e1461019d578063bc5683e1146101bf578063bd0fa1b1146101d4578063c2da0512146101f4578063dd752e5514610221578063f2a2870b1461024157600080fd5b80630a52ee96146100b75780632cb54025146100e0578063a075812714610118578063a64efe5d1461013a578063a7818a481461015a578063b00053cf1461018757600080fd5b366100b257005b600080fd5b3480156100c357600080fd5b506100cd60165481565b6040519081526020015b60405180910390f35b3480156100ec57600080fd5b506101006100fb3660046110c3565b610261565b6040516001600160a01b0390911681526020016100d7565b34801561012457600080fd5b5061012d610481565b6040516100d791906110de565b34801561014657600080fd5b506101006101553660046110c3565b610492565b34801561016657600080fd5b506100cd61017536600461112b565b60136020526000908152604090205481565b34801561019357600080fd5b506100cd60155481565b3480156101a957600080fd5b506101bd6101b8366004611154565b6104e3565b005b3480156101cb57600080fd5b506100cd61068d565b3480156101e057600080fd5b506101bd6101ef366004611154565b61069f565b34801561020057600080fd5b506100cd61020f36600461112b565b60146020526000908152604090205481565b34801561022d57600080fd5b506101bd61023c366004611154565b610867565b34801561024d57600080fd5b5061010061025c3660046110c3565b610a0a565b60008061026d83610a0a565b90506001600160a01b0381166102835792915050565b601054604051630acbdfbf60e11b81526001600160a01b0383811660048301526000921690631597bf7e90602401602060405180830381865afa1580156102ce573d6000803e3d6000fd5b505050506040513d601f19601f820116820180604052508101906102f2919061117e565b60405163ca669fa760e01b81526001600160a01b0384166004820152909150737109709ecfa91a80626ff3989d68f67f5b1dd12d9063ca669fa790602401600060405180830381600087803b15801561034a57600080fd5b505af115801561035e573d6000803e3d6000fd5b50505050600f60009054906101000a90046001600160a01b03166001600160a01b031663d66d9e196040518163ffffffff1660e01b8152600401600060405180830381600087803b1580156103b257600080fd5b505af11580156103c6573d6000803e3d6000fd5b50505050600f60009054906101000a90046001600160a01b03166001600160a01b031663c7ebdaef6040518163ffffffff1660e01b8152600401600060405180830381600087803b15801561041a57600080fd5b505af115801561042e573d6000803e3d6000fd5b50505050610446826011610a6190919063ffffffff16565b506001600160a01b0382166000908152601460205260408120829055601680548392906104749084906111ad565b9091555091949350505050565b606061048d6011610a7d565b905090565b6000806104a06002846111d6565b60ff166000036104ba576104b383610a0a565b90506104c7565b6104c383610a8a565b5090505b6001600160a01b0381166104dd57503392915050565b92915050565b6105018160006104fc678ac7230489e8000060036111f8565b610bac565b9050600061050e83610492565b60405163ca669fa760e01b81526001600160a01b0382166004820152909150737109709ecfa91a80626ff3989d68f67f5b1dd12d9063ca669fa790602401600060405180830381600087803b15801561056657600080fd5b505af115801561057a573d6000803e3d6000fd5b5050600f546040516305c2fbcf60e31b8152600481018690526001600160a01b039091169250632e17de789150602401600060405180830381600087803b1580156105c457600080fd5b505af11580156105d8573d6000803e3d6000fd5b50505050600f60009054906101000a90046001600160a01b03166001600160a01b031663c7ebdaef6040518163ffffffff1660e01b8152600401600060405180830381600087803b15801561062c57600080fd5b505af1158015610640573d6000803e3d6000fd5b50505050816016600082825461065691906111ad565b90915550506001600160a01b038116600090815260146020526040812080548492906106839084906111ad565b9091555050505050565b60006106996011610a7d565b51905090565b8160ff166000036106ae575050565b6106c78160006104fc678ac7230489e8000060036111f8565b90506000806106d584610a8a565b915091506106e38284610be9565b60405163ca669fa760e01b81526001600160a01b0383166004820152737109709ecfa91a80626ff3989d68f67f5b1dd12d9063ca669fa790602401600060405180830381600087803b15801561073857600080fd5b505af115801561074c573d6000803e3d6000fd5b5050600f546040516330b858b160e11b81526001600160a01b039091169250636170b1629150859061078290859060040161125f565b6000604051808303818588803b15801561079b57600080fd5b505af11580156107af573d6000803e3d6000fd5b5050600f546040805163c7ebdaef60e01b815290516001600160a01b03909216945063c7ebdaef9350600480820193506000929182900301818387803b1580156107f857600080fd5b505af115801561080c573d6000803e3d6000fd5b50505050826015600082825461082291906111ad565b90915550506001600160a01b0382166000908152601360205260408120805485929061084f9084906111ad565b909155506108609050601183610c85565b5050505050565b6108808160006104fc678ac7230489e8000060036111f8565b9050600061088d83610492565b90506108998183610be9565b60405163ca669fa760e01b81526001600160a01b0382166004820152737109709ecfa91a80626ff3989d68f67f5b1dd12d9063ca669fa790602401600060405180830381600087803b1580156108ee57600080fd5b505af1158015610902573d6000803e3d6000fd5b50505050600f60009054906101000a90046001600160a01b03166001600160a01b0316633a4b66f1836040518263ffffffff1660e01b81526004016000604051808303818588803b15801561095657600080fd5b505af115801561096a573d6000803e3d6000fd5b5050600f546040805163c7ebdaef60e01b815290516001600160a01b03909216945063c7ebdaef9350600480820193506000929182900301818387803b1580156109b357600080fd5b505af11580156109c7573d6000803e3d6000fd5b5050505081601560008282546109dd91906111ad565b90915550506001600160a01b038116600090815260136020526040812080548492906106839084906111ad565b600080610a176011610c9a565b905080600003610a2a5750600092915050565b610a346011610a7d565b610a418260ff8616611272565b81518110610a5157610a51611286565b6020026020010151915050919050565b6000610a76836001600160a01b038416610ca4565b9392505050565b60606000610a7683610d97565b60408051604180825260808201909252600091606091906020820181803683370190505090508260f81b81600181518110610ac757610ac7611286565b60200101906001600160f81b031916908160001a905350600060018251610aee91906112b2565b67ffffffffffffffff811115610b0657610b0661129c565b6040519080825280601f01601f191660200182016040528015610b30576020820181803683370190505b50905060015b8251811015610b9b57828181518110610b5157610b51611286565b01602001516001600160f81b03191682610b6c6001846112b2565b81518110610b7c57610b7c611286565b60200101906001600160f81b031916908160001a905350600101610b36565b508051602090910120939092509050565b6000610bb9848484610df3565b9050610a766040518060400160405280600c81526020016b109bdd5b990814995cdd5b1d60a21b81525082610fb7565b6000826001600160a01b03168260405160006040518083038185875af1925050503d8060008114610c36576040519150601f19603f3d011682016040523d82523d6000602084013e610c3b565b606091505b5050905080610c805760405162461bcd60e51b815260206004820152600c60248201526b1c185e4a0a4819985a5b195960a21b60448201526064015b60405180910390fd5b505050565b6000610a76836001600160a01b03841661105e565b60006104dd825490565b60008181526001830160205260408120548015610d8d576000610cc86001836112b2565b8554909150600090610cdc906001906112b2565b9050818114610d41576000866000018281548110610cfc57610cfc611286565b9060005260206000200154905080876000018481548110610d1f57610d1f611286565b6000918252602080832090910192909255918252600188019052604090208390555b8554869080610d5257610d526112c5565b6001900381819060005260206000200160009055905585600101600086815260200190815260200160002060009055600193505050506104dd565b60009150506104dd565b606081600001805480602002602001604051908101604052809291908181526020018280548015610de757602002820191906000526020600020905b815481526020019060010190808311610dd3575b50505050509050919050565b600081831115610e6b5760405162461bcd60e51b815260206004820152603e60248201527f5374645574696c7320626f756e642875696e743235362c75696e743235362c7560448201527f696e74323536293a204d6178206973206c657373207468616e206d696e2e00006064820152608401610c77565b828410158015610e7b5750818411155b15610e87575082610a76565b6000610e9384846112b2565b610e9e9060016111ad565b905060038511158015610eb057508481115b15610ec757610ebf85856111ad565b915050610a76565b610ed460036000196112b2565b8510158015610eed5750610eea856000196112b2565b81115b15610f0857610efe856000196112b2565b610ebf90846112b2565b82851115610f5e576000610f1c84876112b2565b90506000610f2a8383611272565b905080600003610f3f57849350505050610a76565b6001610f4b82886111ad565b610f5591906112b2565b93505050610faf565b83851015610faf576000610f7286866112b2565b90506000610f808383611272565b905080600003610f9557859350505050610a76565b610f9f81866112b2565b610faa9060016111ad565b935050505b509392505050565b60006a636f6e736f6c652e6c6f676001600160a01b03168383604051602401610fe19291906112db565b60408051601f198184030181529181526020820180516001600160e01b0316632d839cb360e21b1790525161101691906112fd565b600060405180830381855afa9150503d8060008114611051576040519150601f19603f3d011682016040523d82523d6000602084013e611056565b606091505b505050505050565b60008181526001830160205260408120546110a5575081546001818101845560008481526020808220909301849055845484825282860190935260409020919091556104dd565b5060006104dd565b803560ff811681146110be57600080fd5b919050565b6000602082840312156110d557600080fd5b610a76826110ad565b6020808252825182820181905260009190848201906040850190845b8181101561111f5783516001600160a01b0316835292840192918401916001016110fa565b50909695505050505050565b60006020828403121561113d57600080fd5b81356001600160a01b0381168114610a7657600080fd5b6000806040838503121561116757600080fd5b611170836110ad565b946020939093013593505050565b60006020828403121561119057600080fd5b5051919050565b634e487b7160e01b600052601160045260246000fd5b808201808211156104dd576104dd611197565b634e487b7160e01b600052601260045260246000fd5b600060ff8316806111e9576111e96111c0565b8060ff84160691505092915050565b80820281158282048414176104dd576104dd611197565b60005b8381101561122a578181015183820152602001611212565b50506000910152565b6000815180845261124b81602086016020860161120f565b601f01601f19169290920160200192915050565b602081526000610a766020830184611233565b600082611281576112816111c0565b500690565b634e487b7160e01b600052603260045260246000fd5b634e487b7160e01b600052604160045260246000fd5b818103818111156104dd576104dd611197565b634e487b7160e01b600052603160045260246000fd5b6040815260006112ee6040830185611233565b90508260208301529392505050565b6000825161130f81846020870161120f565b919091019291505056fea26469706673582212206fce892d7b0c11c5add0c0b917a98cfab9108932f093a40b8979e76c0760bb9764736f6c63430008160033","linkReferences":{}},"methodIdentifiers":{"getRandomValidator(uint8)":"a64efe5d","getRandomValidatorFromSetOrZero(uint8)":"f2a2870b","ghost_stakedSum()":"b00053cf","ghost_unstakedSum()":"0a52ee96","ghost_validators_staked(address)":"a7818a48","ghost_validators_unstaked(address)":"c2da0512","join(uint8,uint256)":"bd0fa1b1","joinedValidators()":"a0758127","joinedValidatorsNumber()":"bc5683e1","leave(uint8)":"2cb54025","stake(uint8,uint256)":"dd752e55","unstake(uint8,uint256)":"b4545b9e"},"id":81}