{"abi":[{"type":"function","name":"addStake","inputs":[],"outputs":[],"stateMutability":"payable"},{"type":"function","name":"fund","inputs":[{"name":"subnetId","type":"tuple","internalType":"struct SubnetID","components":[{"name":"root","type":"uint64","internalType":"uint64"},{"name":"route","type":"address[]","internalType":"address[]"}]},{"name":"to","type":"tuple","internalType":"struct FvmAddress","components":[{"name":"addrType","type":"uint8","internalType":"uint8"},{"name":"payload","type":"bytes","internalType":"bytes"}]}],"outputs":[],"stateMutability":"payable"},{"type":"function","name":"kill","inputs":[],"outputs":[],"stateMutability":"nonpayable"},{"type":"function","name":"register","inputs":[{"name":"genesisCircSupply","type":"uint256","internalType":"uint256"}],"outputs":[],"stateMutability":"payable"},{"type":"function","name":"release","inputs":[{"name":"to","type":"tuple","internalType":"struct FvmAddress","components":[{"name":"addrType","type":"uint8","internalType":"uint8"},{"name":"payload","type":"bytes","internalType":"bytes"}]}],"outputs":[],"stateMutability":"payable"},{"type":"function","name":"releaseRewardForRelayer","inputs":[{"name":"amount","type":"uint256","internalType":"uint256"}],"outputs":[],"stateMutability":"nonpayable"},{"type":"function","name":"releaseStake","inputs":[{"name":"amount","type":"uint256","internalType":"uint256"}],"outputs":[],"stateMutability":"nonpayable"},{"type":"error","name":"AlreadyRegisteredSubnet","inputs":[]},{"type":"error","name":"CallFailed","inputs":[]},{"type":"error","name":"CannotReleaseZero","inputs":[]},{"type":"error","name":"InsufficientFunds","inputs":[]},{"type":"error","name":"InvalidActorAddress","inputs":[]},{"type":"error","name":"InvalidCrossMsgValue","inputs":[]},{"type":"error","name":"MethodNotAllowed","inputs":[{"name":"reason","type":"string","internalType":"string"}]},{"type":"error","name":"NotEmptySubnetCircSupply","inputs":[]},{"type":"error","name":"NotEnoughCollateral","inputs":[]},{"type":"error","name":"NotEnoughFunds","inputs":[]},{"type":"error","name":"NotEnoughFundsToRelease","inputs":[]},{"type":"error","name":"NotRegisteredSubnet","inputs":[]},{"type":"error","name":"ReentrancyError","inputs":[]}],"bytecode":{"object":"0x6080806040523461001657611cb0908161001c8239f35b600080fdfe608080604052600436101561001357600080fd5b60003560e01c90816318f44b7014610fcf5750806341c0e1b514610e5b57806345f5448514610da65780635a627dbc14610d235780636b2c1eef1461057c578063d8e255721461043c5763f207564e1461006c57600080fd5b60208060031936011261030457601a549060016004358184018085116104265760ff602a541611156103ae5780341061039c576100a98134611426565b90601b54821061038b57604051916100c083611387565b6001600160401b0395866019541684526040519086828281520190601a6000527f057c384a7d1c54f3a1b2e5e67b2617b8224fdfd1ea7234eea573a6ff665ff63e9060005b888a838310610370578c9161015b8b8b8b8b610123818d03826113a2565b86840152600073__$a0fe38a9a81205afccc10810b09a4d3f45$__936040518096819263aa5106cb60e01b83523390600484016115fe565b0381865af49384156103105760009461034b575b5061017984611b65565b91906103395760048201888651166001600160401b03198254161790556005820187860151908151918a83116102c557908983926101bd8299979a9896958461163d565b0190600052866000208960005b84811061031c5750505050508560029161021d975560038101600160801b60ff60801b198254161790554388820155015560405180809581946390ba52cf60e01b835286600484015260248301906115a3565b03915af4928315610310576000936102db575b505060185490600160401b8210156102c5578101806018558110156102af5760186000527fb13d2d76d1f4b7be834882e410b3e3a8afaf69f83600ae24db354391d2378d2e0155601d54906102946001600160401b0360881b918360881c16611673565b60881b1667ffffffffffffffff60881b199190911617601d55005b634e487b7160e01b600052603260045260246000fd5b634e487b7160e01b600052604160045260246000fd5b9080929350813d8311610309575b6102f381836113a2565b810103126103045751908380610230565b600080fd5b503d6102e9565b6040513d6000823e3d90fd5b83516001600160a01b0316838201558c99909301928b91016101ca565b604051631b538cdf60e11b8152600490fd5b6103699194503d806000833e61036181836113a2565b81019061157b565b928761016f565b84546001600160a01b03168652909401939283019201610105565b60405162d11df360e61b8152600490fd5b604051631036b5ad60e31b8152600490fd5b60405183606082016001600160401b038111838210176102c557604052602382527f5375626e657420646f6573206e6f7420616c6c6f77206368696c64207375626e818301526265747360e81b604083015261042260405192839263015538b160e01b845260048401526024830190611401565b0390fd5b634e487b7160e01b600052601160045260246000fd5b346103045760208060031936011261030457600435907f691bb03ffc16c56fc96b82fd16cd1b3715f0bc3cdc6407005f49bb620586009590600182541461056a576001825582156105585761049033611a35565b901561054657816104a660046104c79301611433565b60405180938192632cff562160e11b835284600484015260248301906115a3565b038173__$a0fe38a9a81205afccc10810b09a4d3f45$__5af491821561031057600092610508575b600084610505876001600160a01b03871661168b565b55005b90809250813d831161053f575b61051f81836113a2565b8101031261030457600092610536610505926114c2565b918194506104ef565b503d610515565b604051630e991abd60e41b8152600490fd5b60405163c79cad7b60e01b8152600490fd5b6040516329f745a760e01b8152600490fd5b600319602036820112610304576004356001600160401b038111610304576040828236030112610304573415610d1157604051632e82508d60e21b815260a0600482015291600091839182916105f191906105d960a48501611929565b913360248601528483030160448501526004016118be565b346064830152836084830152038173__$33b79814e84bf6cf5e47244090b19ce5f8$__5af490811561031057600091610cee575b50601e548015610cd857806001600160401b034316046001810180911161042657818102918183041490151715610426576001600160401b03601d5460081c1660608351015260005260096020526040600020805490600160401b8210156102c557600182018082558210156102af576000526020600020908251805180516001600160401b038151166001600160401b0319600d86028701541617600d850286015560206001600d8602870101910151908151916001600160401b0383116102c5576020906106f5848461163d565b0190600052602060002060005b838110610cbb5750505050602090816002600d86028701019101519060ff82511660ff1982541617905501518051906001600160401b0382116102c5576003600d85028601015490600182811c92168015610cb1575b6020831014610ae85781601f849311610c77575b50602090601f8311600114610bfb57600092610bf0575b50508160011b916000199060031b1c1916176003600d8402850101555b60208181015180518051600d8602870160048101805467ffffffffffffffff19166001600160401b0393841617905591909301518051929360059092019183116102c5576020906107f1848461163d565b0190600052602060002060005b838110610bd35750505050602090816006600d86028701019101519060ff82511660ff1982541617905501518051906001600160401b0382116102c5576007600d85028601015490600182811c92168015610bc9575b6020831014610ae85781601f849311610b8f575b50602090601f8311600114610b1357600092610b08575b50508160011b916000199060031b1c1916176007600d8402850101555b60408101516008600d8402850101556009600d83028401016001600160401b036060830151168154906bffffffff0000000000000000608085015160a01c16916bffffffffffffffffffffffff191617179055600a600d830284010160a08201518051906001600160401b0382116102c5578254600181811c91168015610afe575b6020821014610ae857601f8111610aab575b50602090601f8311600114610a375793600d9383600c979460c09460209a98600092610a2c575b50508160011b916000199060031b1c19161790555b0151600b83830285010155020101910151151560ff80198354169116179055601d5468ffffffffffffffff006109ad6001600160401b038360081c16611673565b60081b169068ffffffffffffffff00191617601d55344710610a1a5760008080803460635af13d15610a15573d6109e3816113c3565b906109f160405192836113a2565b8152600060203d92013e5b15610a0357005b604051633204506f60e01b8152600490fd5b6109fc565b60405163356680b760e01b8152600490fd5b015190508b80610957565b90601f198316918460005260206000209260005b818110610a9357508460c09460209a9894600d9894600c9b9860019510610a7a575b505050811b01905561096c565b015160001960f88460031b161c191690558b8080610a6d565b92936020600181928786015181550195019301610a4b565b610ad890846000526020600020601f850160051c81019160208610610ade575b601f0160051c0190611626565b87610930565b9091508190610acb565b634e487b7160e01b600052602260045260246000fd5b90607f169061091e565b01519050868061087f565b92506007600d86028701016000526020600020906000935b601f1984168510610b74576001945083601f19811610610b5b575b505050811b016007600d84028501015561089c565b015160001960f88460031b161c19169055868080610b46565b81810151835560209485019460019093019290910190610b2b565b610bc3906007600d88028901016000526020600020601f850160051c81019160208610610ade57601f0160051c0190611626565b87610868565b91607f1691610854565b82516001600160a01b0316818301556020909201916001016107fe565b015190508680610783565b92506003600d86028701016000526020600020906000935b601f1984168510610c5c576001945083601f19811610610c43575b505050811b016003600d8402850101556107a0565b015160001960f88460031b161c19169055868080610c2e565b81810151835560209485019460019093019290910190610c13565b610cab906003600d88028901016000526020600020601f850160051c81019160208610610ade57601f0160051c0190611626565b8761076c565b91607f1691610758565b82516001600160a01b031681830155602090920191600101610702565b634e487b7160e01b600052601260045260246000fd5b610d0b91503d806000833e610d0381836113a2565b8101906117b9565b81610625565b6040516360ec4e6b60e11b8152600490fd5b600036600319011261030457341561039c57610d3e33611a35565b9015610546576003610d5134835461137a565b91828155019081549060ff8260801c166006811015610d9057600214610d7357005b601b541115610d7f575b005b60ff60801b1916600160801b179055005b634e487b7160e01b600052602160045260246000fd5b346103045760208060031936011261030457600435907f691bb03ffc16c56fc96b82fd16cd1b3715f0bc3cdc6407005f49bb620586009590600182541461056a5760018255821561055857610dfa33611a35565b9015610546578054848110610e49576104a660046104c793610e1d888795611426565b808255601b5411610e2f575b01611433565b60038101805460ff60801b1916600160811b179055610e29565b6040516379b33e7960e01b8152600490fd5b3461030457600036600319011261030457610e7533611a35565b9015610546576002810154610fbd57805490601d54906001600160401b0390600019828460881c16019182116104265767ffffffffffffffff60881b1990921660889190911b67ffffffffffffffff60881b1617601d55610ed890600401611433565b90610f01604051926390ba52cf60e01b84528380602093849384600484015260248301906115a3565b038173__$a0fe38a9a81205afccc10810b09a4d3f45$__5af4801561031057600090610f8e575b610d7d93506000526000815260056040600020600081556000600182015560006002820155600060038201556000600482015501908154906000835581610f73575b5050503361168b565b610f869260005260002090810190611626565b828080610f6a565b508083813d8311610fb6575b610fa481836113a2565b8101031261030457610d7d9251610f28565b503d610f9a565b604051637c67c70160e11b8152600490fd5b60031990604036830112610304576001600160401b0391600435838111610304578036036040838201126103045760249384359086821161030457604085833603011261030457341561136b5750604051926379185f5960e11b845260a0600485015260e484019281600401358881168091036103045760a48601528187013590602219018112156103045701856004820135910192878211610304578160051b3603841361030457908085939492604060c486015252610104830191906000905b808210611339575050506110ba82916000943389850152878483030160448501526004016118be565b346064830152836084830152038173__$33b79814e84bf6cf5e47244090b19ce5f8$__5af49081156103105760009161131e575b5060209182825101515190600061113a73__$a0fe38a9a81205afccc10810b09a4d3f45$__93611148604051948593849363089032d560e01b85526040600486015260448501906115a3565b90838203018a840152611929565b0381855af490811561031057600091611303575b5061116681611b65565b929015610546576111d39583600387950180548a61118c8183168060608c510152611673565b16906001600160401b0319161790556111b06002604088510151920191825461137a565b90556040518097819482936304e384ff60e21b84528760048501528301906115a3565b03915af48015610310576000906112af575b7f392fae29c67f3b47710cb5b84d7a6fd08e0155a4f22565971f7159f12c6f7096935060405192839281845260c061128e8251986040858801526112368a5160e060608a01526101408901906119a8565b611251868c015191605f1992838b83030160808c01526119a8565b9160408c015160a08a015260608c0151168489015263ffffffff60e01b60808c01511660e089015260a08b01519088830301610100890152611401565b9701516101208501520151151560408301526001600160a01b0316930390a2005b508183813d83116112fc575b6112c581836113a2565b81010312610304576112f77f392fae29c67f3b47710cb5b84d7a6fd08e0155a4f22565971f7159f12c6f7096936114c2565b6111e5565b503d6112bb565b61131891503d806000833e61036181836113a2565b8661115c565b61133391503d806000833e610d0381836113a2565b846110ee565b919493509184356001600160a01b03811691908290036103045760019181526020809101950192018593949291611091565b6360ec4e6b60e11b8152600490fd5b9190820180921161042657565b604081019081106001600160401b038211176102c557604052565b90601f801991011681019081106001600160401b038211176102c557604052565b6001600160401b0381116102c557601f01601f191660200190565b60005b8381106113f15750506000910152565b81810151838201526020016113e1565b9060209161141a815180928185528580860191016113de565b601f01601f1916010190565b9190820391821161042657565b9060405161144081611387565b80926001600160401b03815416825260018091019160405191828481955492838652602080960191600052856000209060005b8786821061148f575050505061148b925003846113a2565b0152565b83546001600160a01b0316855289955090930192918101918101611473565b51906001600160401b038216820361030457565b51906001600160a01b038216820361030457565b91909160408184031261030457604051926114f084611387565b836114fa836114ae565b8152602091828401516001600160401b0394858211610304570181601f820112156103045780519485116102c5578460051b906040519561153d868401886113a2565b865284808701928201019283116103045784809101915b83831061156357505050500152565b819061156e846114c2565b8152019101908490611554565b906020828203126103045781516001600160401b038111610304576115a092016114d6565b90565b60609060408301906001600160401b03815116845260209283809201519460408382015285518094520193019160005b8281106115e1575050505090565b83516001600160a01b0316855293810193928101926001016115d3565b906116166020919493946040845260408401906115a3565b6001600160a01b03909416910152565b818110611631575050565b60008155600101611626565b90600160401b81116102c55781549080835581811061165b57505050565b6116719260005260206000209182019101611626565b565b9060016001600160401b038093160191821161042657565b814710610a1a576000918291829182916001600160a01b03165af13d156116d6573d6116b6816113c3565b906116c460405192836113a2565b8152600060203d92013e5b15610a0357565b6116cf565b81601f820112156103045780516116f1816113c3565b926116ff60405194856113a2565b81845260208284010111610304576115a091602080850191016113de565b9190604083820312610304576040519261173684611387565b838151916001600160401b039283811161030457846117569183016114d6565b82526020810151908382116103045701604081850312610304576040519361177d85611387565b815160ff811681036103045785526020820151938411610304576020936117a492016116db565b828401520152565b5190811515820361030457565b906020828203126103045781516001600160401b03928382116103045701916040928381840312610304578351936117f085611387565b81518381116103045782019360e0858203126103045781519160e08301838110868211176102c55781528551858111610304578261182f91880161171d565b83526020860151858111610304578261184991880161171d565b60208401528086015190830152611862606086016114ae565b606083015260808501516001600160e01b03198116810361030457608083015260a085015193841161030457846118a260c0926020966118b698016116db565b60a0840152015160c08201528452016117ac565b602082015290565b803560ff81168091036103045782526020810135601e1982360301811215610304570190602082359201916001600160401b038111610304578036038313610304578060609360406020850152816040850152848401376000828201840152601f01601f1916010190565b60408101906001600160401b036019541681526060602091604083820152601a548094520191601a6000527f057c384a7d1c54f3a1b2e5e67b2617b8224fdfd1ea7234eea573a6ff665ff63e916000905b828210611988575050505090565b83546001600160a01b03168552938401936001938401939091019061197a565b91908251906040815260808101936001600160401b038351166040830152602080930151946040606084015285518091528360a0840196019060005b818110611a1857505050936040838193816115a097980151908281860391015260ff81511684520151938201520190611401565b82516001600160a01b0316885296850196918501916001016119e4565b6001600160a01b03919082811615611b5357604051611a5381611387565b6001600160401b03601954168152604051918291601a54928385526020809501946000978895601a87527f057c384a7d1c54f3a1b2e5e67b2617b8224fdfd1ea7234eea573a6ff665ff63e9187905b828210611b375750505050611abc82611ada9703836113a2565b82015260405163aa5106cb60e01b81529384928392600484016115fe565b038173__$a0fe38a9a81205afccc10810b09a4d3f45$__5af4908115611b2c5783611b0d939492611b11575b5050611b65565b9091565b611b2592503d8091833e61036181836113a2565b3880611b06565b6040513d85823e3d90fd5b835481168a52988401988b985060019384019390910190611aa2565b6040516370e4510960e01b8152600490fd5b611ba373__$a0fe38a9a81205afccc10810b09a4d3f45$__91604051906390ba52cf60e01b82528180602094859384600484015260248301906115a3565b0381865af490811561031057600091611c4b575b5090611bfa916000526000815280604060002093611bd760048601611433565b906040518080968194630c133d1360e31b835286600484015260248301906115a3565b03915af490811561031057600091611c14575b5090501591565b82813d8311611c44575b611c2881836113a2565b81010312611c415750611c3a906117ac565b8038611c0d565b80fd5b503d611c1e565b908282813d8311611c73575b611c6181836113a2565b81010312611c41575051611bfa611bb7565b503d611c5756fea2646970667358221220aaa855b6ef44dcbd116ef13809fd124b02e340c034df1b32f728b24f9bc2281764736f6c63430008130033","linkReferences":{"src/lib/CrossMsgHelper.sol":{"CrossMsgHelper":[{"start":1565,"length":20},{"start":4326,"length":20}]},"src/lib/SubnetIDHelper.sol":{"SubnetIDHelper":[{"start":327,"length":20},{"start":1255,"length":20},{"start":3873,"length":20},{"start":4380,"length":20},{"start":6906,"length":20},{"start":7046,"length":20}]}}},"methodIdentifiers":{"addStake()":"5a627dbc","fund((uint64,address[]),(uint8,bytes))":"18f44b70","kill()":"41c0e1b5","register(uint256)":"f207564e","release((uint8,bytes))":"6b2c1eef","releaseRewardForRelayer(uint256)":"d8e25572","releaseStake(uint256)":"45f54485"},"id":45}