{
    "abi": [
        {
            "inputs": [
                {
                    "internalType": "bytes4",
                    "name": "_selector",
                    "type": "bytes4"
                }
            ],
            "name": "CannotAddFunctionToDiamondThatAlreadyExists",
            "type": "error"
        },
        {
            "inputs": [
                {
                    "internalType": "bytes4[]",
                    "name": "_selectors",
                    "type": "bytes4[]"
                }
            ],
            "name": "CannotAddSelectorsToZeroAddress",
            "type": "error"
        },
        {
            "inputs": [
                {
                    "internalType": "bytes4",
                    "name": "_selector",
                    "type": "bytes4"
                }
            ],
            "name": "CannotRemoveFunctionThatDoesNotExist",
            "type": "error"
        },
        {
            "inputs": [
                {
                    "internalType": "bytes4",
                    "name": "_selector",
                    "type": "bytes4"
                }
            ],
            "name": "CannotRemoveImmutableFunction",
            "type": "error"
        },
        {
            "inputs": [
                {
                    "internalType": "bytes4",
                    "name": "_selector",
                    "type": "bytes4"
                }
            ],
            "name": "CannotReplaceFunctionThatDoesNotExists",
            "type": "error"
        },
        {
            "inputs": [
                {
                    "internalType": "bytes4",
                    "name": "_selector",
                    "type": "bytes4"
                }
            ],
            "name": "CannotReplaceFunctionWithTheSameFunctionFromTheSameFacet",
            "type": "error"
        },
        {
            "inputs": [
                {
                    "internalType": "bytes4[]",
                    "name": "_selectors",
                    "type": "bytes4[]"
                }
            ],
            "name": "CannotReplaceFunctionsFromFacetWithZeroAddress",
            "type": "error"
        },
        {
            "inputs": [
                {
                    "internalType": "bytes4",
                    "name": "_selector",
                    "type": "bytes4"
                }
            ],
            "name": "CannotReplaceImmutableFunction",
            "type": "error"
        },
        {
            "inputs": [
                {
                    "internalType": "enum IDiamond.FacetCutAction",
                    "name": "_action",
                    "type": "uint8"
                }
            ],
            "name": "IncorrectFacetCutAction",
            "type": "error"
        },
        {
            "inputs": [
                {
                    "internalType": "address",
                    "name": "_initializationContractAddress",
                    "type": "address"
                },
                {
                    "internalType": "bytes",
                    "name": "_calldata",
                    "type": "bytes"
                }
            ],
            "name": "InitializationFunctionReverted",
            "type": "error"
        },
        {
            "inputs": [
                {
                    "internalType": "address",
                    "name": "_contractAddress",
                    "type": "address"
                },
                {
                    "internalType": "string",
                    "name": "_message",
                    "type": "string"
                }
            ],
            "name": "NoBytecodeAtAddress",
            "type": "error"
        },
        {
            "inputs": [],
            "name": "NoSelectorsGivenToAdd",
            "type": "error"
        },
        {
            "inputs": [
                {
                    "internalType": "address",
                    "name": "_facetAddress",
                    "type": "address"
                }
            ],
            "name": "NoSelectorsProvidedForFacetForCut",
            "type": "error"
        },
        {
            "inputs": [
                {
                    "internalType": "address",
                    "name": "_user",
                    "type": "address"
                },
                {
                    "internalType": "address",
                    "name": "_contractOwner",
                    "type": "address"
                }
            ],
            "name": "NotContractOwner",
            "type": "error"
        },
        {
            "inputs": [],
            "name": "NotOwner",
            "type": "error"
        },
        {
            "inputs": [
                {
                    "internalType": "address",
                    "name": "_facetAddress",
                    "type": "address"
                }
            ],
            "name": "RemoveFacetAddressMustBeZeroAddress",
            "type": "error"
        },
        {
            "anonymous": false,
            "inputs": [
                {
                    "components": [
                        {
                            "internalType": "address",
                            "name": "facetAddress",
                            "type": "address"
                        },
                        {
                            "internalType": "enum IDiamond.FacetCutAction",
                            "name": "action",
                            "type": "uint8"
                        },
                        {
                            "internalType": "bytes4[]",
                            "name": "functionSelectors",
                            "type": "bytes4[]"
                        }
                    ],
                    "indexed": false,
                    "internalType": "struct IDiamond.FacetCut[]",
                    "name": "_diamondCut",
                    "type": "tuple[]"
                },
                {
                    "indexed": false,
                    "internalType": "address",
                    "name": "_init",
                    "type": "address"
                },
                {
                    "indexed": false,
                    "internalType": "bytes",
                    "name": "_calldata",
                    "type": "bytes"
                }
            ],
            "name": "DiamondCut",
            "type": "event"
        },
        {
            "inputs": [],
            "name": "DIAMOND_STORAGE_POSITION",
            "outputs": [
                {
                    "internalType": "bytes32",
                    "name": "",
                    "type": "bytes32"
                }
            ],
            "stateMutability": "view",
            "type": "function"
        }
    ],
    "bytecode": {
        "object": "0x608080604052346018576094908161001e823930815050f35b600080fdfe6080806040526004361015601257600080fd5b60003560e01c63b2bebf5514602657600080fd5b6000366003190112605957807f806e0cbb9fce296bbc336a48f42bf1dbc69722d18d90d6fe705b7582c2bb4bd260209252f35b600080fdfea2646970667358221220f1d935cb0d8bd04b90ef048102be78f3dc7bd3798c04205c2f7f086a493378af64736f6c63430008130033",
        "linkReferences": {}
    },
    "methodIdentifiers": {
        "DIAMOND_STORAGE_POSITION()": "b2bebf55"
    },
    "id": 58
}