{
    "abi": [
        {
            "inputs": [
                {
                    "internalType": "address",
                    "name": "account",
                    "type": "address"
                }
            ],
            "name": "AddressInsufficientBalance",
            "type": "error"
        },
        {
            "inputs": [],
            "name": "FailedInnerCall",
            "type": "error"
        },
        {
            "inputs": [],
            "name": "addStake",
            "outputs": [],
            "stateMutability": "payable",
            "type": "function"
        },
        {
            "inputs": [
                {
                    "components": [
                        {
                            "components": [
                                {
                                    "internalType": "uint64",
                                    "name": "root",
                                    "type": "uint64"
                                },
                                {
                                    "internalType": "address[]",
                                    "name": "route",
                                    "type": "address[]"
                                }
                            ],
                            "internalType": "struct SubnetID",
                            "name": "subnetID",
                            "type": "tuple"
                        },
                        {
                            "internalType": "uint64",
                            "name": "blockHeight",
                            "type": "uint64"
                        },
                        {
                            "internalType": "bytes32",
                            "name": "blockHash",
                            "type": "bytes32"
                        },
                        {
                            "internalType": "uint64",
                            "name": "nextConfigurationNumber",
                            "type": "uint64"
                        },
                        {
                            "internalType": "bytes32",
                            "name": "crossMessagesHash",
                            "type": "bytes32"
                        }
                    ],
                    "internalType": "struct BottomUpCheckpoint",
                    "name": "bottomUpCheckpoint",
                    "type": "tuple"
                },
                {
                    "components": [
                        {
                            "components": [
                                {
                                    "components": [
                                        {
                                            "components": [
                                                {
                                                    "internalType": "uint64",
                                                    "name": "root",
                                                    "type": "uint64"
                                                },
                                                {
                                                    "internalType": "address[]",
                                                    "name": "route",
                                                    "type": "address[]"
                                                }
                                            ],
                                            "internalType": "struct SubnetID",
                                            "name": "subnetId",
                                            "type": "tuple"
                                        },
                                        {
                                            "components": [
                                                {
                                                    "internalType": "uint8",
                                                    "name": "addrType",
                                                    "type": "uint8"
                                                },
                                                {
                                                    "internalType": "bytes",
                                                    "name": "payload",
                                                    "type": "bytes"
                                                }
                                            ],
                                            "internalType": "struct FvmAddress",
                                            "name": "rawAddress",
                                            "type": "tuple"
                                        }
                                    ],
                                    "internalType": "struct IPCAddress",
                                    "name": "from",
                                    "type": "tuple"
                                },
                                {
                                    "components": [
                                        {
                                            "components": [
                                                {
                                                    "internalType": "uint64",
                                                    "name": "root",
                                                    "type": "uint64"
                                                },
                                                {
                                                    "internalType": "address[]",
                                                    "name": "route",
                                                    "type": "address[]"
                                                }
                                            ],
                                            "internalType": "struct SubnetID",
                                            "name": "subnetId",
                                            "type": "tuple"
                                        },
                                        {
                                            "components": [
                                                {
                                                    "internalType": "uint8",
                                                    "name": "addrType",
                                                    "type": "uint8"
                                                },
                                                {
                                                    "internalType": "bytes",
                                                    "name": "payload",
                                                    "type": "bytes"
                                                }
                                            ],
                                            "internalType": "struct FvmAddress",
                                            "name": "rawAddress",
                                            "type": "tuple"
                                        }
                                    ],
                                    "internalType": "struct IPCAddress",
                                    "name": "to",
                                    "type": "tuple"
                                },
                                {
                                    "internalType": "uint256",
                                    "name": "value",
                                    "type": "uint256"
                                },
                                {
                                    "internalType": "uint64",
                                    "name": "nonce",
                                    "type": "uint64"
                                },
                                {
                                    "internalType": "bytes4",
                                    "name": "method",
                                    "type": "bytes4"
                                },
                                {
                                    "internalType": "bytes",
                                    "name": "params",
                                    "type": "bytes"
                                },
                                {
                                    "internalType": "uint256",
                                    "name": "fee",
                                    "type": "uint256"
                                }
                            ],
                            "internalType": "struct StorableMsg",
                            "name": "message",
                            "type": "tuple"
                        },
                        {
                            "internalType": "bool",
                            "name": "wrapped",
                            "type": "bool"
                        }
                    ],
                    "internalType": "struct CrossMsg[]",
                    "name": "messages",
                    "type": "tuple[]"
                }
            ],
            "name": "commitBottomUpCheckpoint",
            "outputs": [],
            "stateMutability": "nonpayable",
            "type": "function"
        },
        {
            "inputs": [
                {
                    "components": [
                        {
                            "internalType": "uint256",
                            "name": "height",
                            "type": "uint256"
                        },
                        {
                            "internalType": "bytes32",
                            "name": "blockHash",
                            "type": "bytes32"
                        }
                    ],
                    "internalType": "struct ParentFinality",
                    "name": "finality",
                    "type": "tuple"
                }
            ],
            "name": "commitParentFinality",
            "outputs": [],
            "stateMutability": "nonpayable",
            "type": "function"
        },
        {
            "inputs": [
                {
                    "components": [
                        {
                            "components": [
                                {
                                    "internalType": "uint64",
                                    "name": "root",
                                    "type": "uint64"
                                },
                                {
                                    "internalType": "address[]",
                                    "name": "route",
                                    "type": "address[]"
                                }
                            ],
                            "internalType": "struct SubnetID",
                            "name": "subnetID",
                            "type": "tuple"
                        },
                        {
                            "internalType": "uint64",
                            "name": "blockHeight",
                            "type": "uint64"
                        },
                        {
                            "internalType": "bytes32",
                            "name": "blockHash",
                            "type": "bytes32"
                        },
                        {
                            "internalType": "uint64",
                            "name": "nextConfigurationNumber",
                            "type": "uint64"
                        },
                        {
                            "internalType": "bytes32",
                            "name": "crossMessagesHash",
                            "type": "bytes32"
                        }
                    ],
                    "internalType": "struct BottomUpCheckpoint",
                    "name": "checkpoint",
                    "type": "tuple"
                },
                {
                    "internalType": "bytes32",
                    "name": "membershipRootHash",
                    "type": "bytes32"
                },
                {
                    "internalType": "uint256",
                    "name": "membershipWeight",
                    "type": "uint256"
                }
            ],
            "name": "createBottomUpCheckpoint",
            "outputs": [],
            "stateMutability": "nonpayable",
            "type": "function"
        },
        {
            "inputs": [
                {
                    "components": [
                        {
                            "internalType": "uint64",
                            "name": "root",
                            "type": "uint64"
                        },
                        {
                            "internalType": "address[]",
                            "name": "route",
                            "type": "address[]"
                        }
                    ],
                    "internalType": "struct SubnetID",
                    "name": "subnetId",
                    "type": "tuple"
                },
                {
                    "components": [
                        {
                            "internalType": "uint8",
                            "name": "addrType",
                            "type": "uint8"
                        },
                        {
                            "internalType": "bytes",
                            "name": "payload",
                            "type": "bytes"
                        }
                    ],
                    "internalType": "struct FvmAddress",
                    "name": "to",
                    "type": "tuple"
                }
            ],
            "name": "fund",
            "outputs": [],
            "stateMutability": "payable",
            "type": "function"
        },
        {
            "inputs": [],
            "name": "kill",
            "outputs": [],
            "stateMutability": "nonpayable",
            "type": "function"
        },
        {
            "inputs": [
                {
                    "internalType": "bytes32",
                    "name": "msgCid",
                    "type": "bytes32"
                }
            ],
            "name": "propagate",
            "outputs": [],
            "stateMutability": "payable",
            "type": "function"
        },
        {
            "inputs": [
                {
                    "internalType": "uint256",
                    "name": "_genesisCircSupply",
                    "type": "uint256"
                }
            ],
            "name": "register",
            "outputs": [],
            "stateMutability": "payable",
            "type": "function"
        },
        {
            "inputs": [
                {
                    "components": [
                        {
                            "internalType": "uint8",
                            "name": "addrType",
                            "type": "uint8"
                        },
                        {
                            "internalType": "bytes",
                            "name": "payload",
                            "type": "bytes"
                        }
                    ],
                    "internalType": "struct FvmAddress",
                    "name": "to",
                    "type": "tuple"
                }
            ],
            "name": "release",
            "outputs": [],
            "stateMutability": "payable",
            "type": "function"
        },
        {
            "inputs": [
                {
                    "internalType": "uint256",
                    "name": "amount",
                    "type": "uint256"
                }
            ],
            "name": "releaseRewardForRelayer",
            "outputs": [],
            "stateMutability": "nonpayable",
            "type": "function"
        },
        {
            "inputs": [
                {
                    "internalType": "uint256",
                    "name": "amount",
                    "type": "uint256"
                }
            ],
            "name": "releaseStake",
            "outputs": [],
            "stateMutability": "nonpayable",
            "type": "function"
        },
        {
            "inputs": [
                {
                    "components": [
                        {
                            "components": [
                                {
                                    "components": [
                                        {
                                            "components": [
                                                {
                                                    "internalType": "uint64",
                                                    "name": "root",
                                                    "type": "uint64"
                                                },
                                                {
                                                    "internalType": "address[]",
                                                    "name": "route",
                                                    "type": "address[]"
                                                }
                                            ],
                                            "internalType": "struct SubnetID",
                                            "name": "subnetId",
                                            "type": "tuple"
                                        },
                                        {
                                            "components": [
                                                {
                                                    "internalType": "uint8",
                                                    "name": "addrType",
                                                    "type": "uint8"
                                                },
                                                {
                                                    "internalType": "bytes",
                                                    "name": "payload",
                                                    "type": "bytes"
                                                }
                                            ],
                                            "internalType": "struct FvmAddress",
                                            "name": "rawAddress",
                                            "type": "tuple"
                                        }
                                    ],
                                    "internalType": "struct IPCAddress",
                                    "name": "from",
                                    "type": "tuple"
                                },
                                {
                                    "components": [
                                        {
                                            "components": [
                                                {
                                                    "internalType": "uint64",
                                                    "name": "root",
                                                    "type": "uint64"
                                                },
                                                {
                                                    "internalType": "address[]",
                                                    "name": "route",
                                                    "type": "address[]"
                                                }
                                            ],
                                            "internalType": "struct SubnetID",
                                            "name": "subnetId",
                                            "type": "tuple"
                                        },
                                        {
                                            "components": [
                                                {
                                                    "internalType": "uint8",
                                                    "name": "addrType",
                                                    "type": "uint8"
                                                },
                                                {
                                                    "internalType": "bytes",
                                                    "name": "payload",
                                                    "type": "bytes"
                                                }
                                            ],
                                            "internalType": "struct FvmAddress",
                                            "name": "rawAddress",
                                            "type": "tuple"
                                        }
                                    ],
                                    "internalType": "struct IPCAddress",
                                    "name": "to",
                                    "type": "tuple"
                                },
                                {
                                    "internalType": "uint256",
                                    "name": "value",
                                    "type": "uint256"
                                },
                                {
                                    "internalType": "uint64",
                                    "name": "nonce",
                                    "type": "uint64"
                                },
                                {
                                    "internalType": "bytes4",
                                    "name": "method",
                                    "type": "bytes4"
                                },
                                {
                                    "internalType": "bytes",
                                    "name": "params",
                                    "type": "bytes"
                                },
                                {
                                    "internalType": "uint256",
                                    "name": "fee",
                                    "type": "uint256"
                                }
                            ],
                            "internalType": "struct StorableMsg",
                            "name": "message",
                            "type": "tuple"
                        },
                        {
                            "internalType": "bool",
                            "name": "wrapped",
                            "type": "bool"
                        }
                    ],
                    "internalType": "struct CrossMsg",
                    "name": "crossMsg",
                    "type": "tuple"
                }
            ],
            "name": "sendCrossMessage",
            "outputs": [],
            "stateMutability": "payable",
            "type": "function"
        }
    ],
    "bytecode": {
        "object": "0x608060405234801561001057600080fd5b506108f1806100206000396000f3fe6080604052600436106100a75760003560e01c80636b2c1eef116100645780636b2c1eef14610157578063a656ca5b14610165578063c13175ef14610192578063d8e25572146101a0578063f207564e146101bb578063f456b39e146101e757600080fd5b806311196974146100ac57806318f44b70146100d957806325bf0db6146100f857806341c0e1b51461010657806345f54485146101255780635a627dbc14610145575b600080fd5b3480156100b857600080fd5b506100d76100c73660046102e5565b506000805460ff19166001179055565b005b6100d76100e7366004610308565b50506000805460ff19166001179055565b6100d76100c736600461036c565b34801561011257600080fd5b506100d76000805460ff19166001179055565b34801561013157600080fd5b506100d761014036600461036c565b610202565b6100d76000805460ff19166001179055565b6100d76100c7366004610385565b34801561017157600080fd5b506100d76101803660046103d4565b50506000805460ff1916600117905550565b6100d76100c73660046106f7565b3480156101ac57600080fd5b506100d76100c736600461036c565b6100d76101c936600461036c565b506000805433610100026001600160a81b0319909116176001179055565b3480156101f357600080fd5b506100d7610180366004610821565b6000805460ff19166001179081905561022a906001600160a01b03610100909104168261022d565b50565b804710156102545760405163cd78605960e01b815230600482015260240160405180910390fd5b6000826001600160a01b03168260405160006040518083038185875af1925050503d80600081146102a1576040519150601f19603f3d011682016040523d82523d6000602084013e6102a6565b606091505b50509050806102c857604051630a12f52160e11b815260040160405180910390fd5b505050565b6000604082840312156102df57600080fd5b50919050565b6000604082840312156102f757600080fd5b61030183836102cd565b9392505050565b6000806040838503121561031b57600080fd5b823567ffffffffffffffff8082111561033357600080fd5b61033f868387016102cd565b9350602085013591508082111561035557600080fd5b50610362858286016102cd565b9150509250929050565b60006020828403121561037e57600080fd5b5035919050565b60006020828403121561039757600080fd5b813567ffffffffffffffff8111156103ae57600080fd5b6103ba848285016102cd565b949350505050565b600060a082840312156102df57600080fd5b6000806000606084860312156103e957600080fd5b833567ffffffffffffffff81111561040057600080fd5b61040c868287016103c2565b9660208601359650604090950135949350505050565b634e487b7160e01b600052604160045260246000fd5b6040805190810167ffffffffffffffff8111828210171561045b5761045b610422565b60405290565b60405160e0810167ffffffffffffffff8111828210171561045b5761045b610422565b604051601f8201601f1916810167ffffffffffffffff811182821017156104ad576104ad610422565b604052919050565b803567ffffffffffffffff811681146104cd57600080fd5b919050565b600082601f8301126104e357600080fd5b813567ffffffffffffffff8111156104fd576104fd610422565b610510601f8201601f1916602001610484565b81815284602083860101111561052557600080fd5b816020850160208301376000918101602001919091529392505050565b60006040828403121561055457600080fd5b61055c610438565b9050813560ff8116811461056f57600080fd5b8152602082013567ffffffffffffffff81111561058b57600080fd5b610597848285016104d2565b60208301525092915050565b6000604082840312156105b557600080fd5b6105bd610438565b9050813567ffffffffffffffff808211156105d757600080fd5b90830190604082860312156105eb57600080fd5b6105f3610438565b6105fc836104b5565b81526020808401358381111561061157600080fd5b80850194505086601f85011261062657600080fd5b83358381111561063857610638610422565b8060051b610647838201610484565b918252858101830191838101908a84111561066157600080fd5b968401965b8388101561069857873592506001600160a01b03831683146106885760008081fd5b8282529684019690840190610666565b85850152505050818552858101359350828411156106b557600080fd5b6106c187858801610542565b818601525050505092915050565b80356001600160e01b0319811681146104cd57600080fd5b803580151581146104cd57600080fd5b60006020828403121561070957600080fd5b813567ffffffffffffffff8082111561072157600080fd5b908301906040828603121561073557600080fd5b61073d610438565b82358281111561074c57600080fd5b830160e0818803121561075e57600080fd5b610766610461565b81358481111561077557600080fd5b610781898285016105a3565b82525060208201358481111561079657600080fd5b6107a2898285016105a3565b602083015250604082013560408201526107be606083016104b5565b60608201526107cf608083016106cf565b608082015260a0820135848111156107e657600080fd5b6107f2898285016104d2565b60a08301525060c082013560c08201528083525050610813602084016106e7565b602082015295945050505050565b60008060006040848603121561083657600080fd5b833567ffffffffffffffff8082111561084e57600080fd5b61085a878388016103c2565b9450602086013591508082111561087057600080fd5b818601915086601f83011261088457600080fd5b81358181111561089357600080fd5b8760208260051b85010111156108a857600080fd5b602083019450809350505050925092509256fea2646970667358221220e249c133163530ad39224ba4f7bd3a8d161b929e9f81d3c37520ca264ae80d0564736f6c63430008130033",
        "linkReferences": {}
    },
    "methodIdentifiers": {
        "addStake()": "5a627dbc",
        "commitBottomUpCheckpoint(((uint64,address[]),uint64,bytes32,uint64,bytes32),((((uint64,address[]),(uint8,bytes)),((uint64,address[]),(uint8,bytes)),uint256,uint64,bytes4,bytes,uint256),bool)[])": "f456b39e",
        "commitParentFinality((uint256,bytes32))": "11196974",
        "createBottomUpCheckpoint(((uint64,address[]),uint64,bytes32,uint64,bytes32),bytes32,uint256)": "a656ca5b",
        "fund((uint64,address[]),(uint8,bytes))": "18f44b70",
        "kill()": "41c0e1b5",
        "propagate(bytes32)": "25bf0db6",
        "register(uint256)": "f207564e",
        "release((uint8,bytes))": "6b2c1eef",
        "releaseRewardForRelayer(uint256)": "d8e25572",
        "releaseStake(uint256)": "45f54485",
        "sendCrossMessage(((((uint64,address[]),(uint8,bytes)),((uint64,address[]),(uint8,bytes)),uint256,uint64,bytes4,bytes,uint256),bool))": "c13175ef"
    },
    "id": 96
}