{
  "abi": [
    {
      "inputs": [],
      "name": "appliedTopDownNonce",
      "outputs": [
        {
          "internalType": "uint64",
          "name": "",
          "type": "uint64"
        }
      ],
      "stateMutability": "view",
      "type": "function"
    },
    {
      "inputs": [],
      "name": "bottomUpCheckPeriod",
      "outputs": [
        {
          "internalType": "uint64",
          "name": "",
          "type": "uint64"
        }
      ],
      "stateMutability": "view",
      "type": "function"
    },
    {
      "inputs": [
        {
          "internalType": "uint64",
          "name": "e",
          "type": "uint64"
        }
      ],
      "name": "bottomUpCheckpoint",
      "outputs": [
        {
          "components": [
            {
              "components": [
                {
                  "internalType": "uint64",
                  "name": "root",
                  "type": "uint64"
                },
                {
                  "internalType": "address[]",
                  "name": "route",
                  "type": "address[]"
                }
              ],
              "internalType": "struct SubnetID",
              "name": "subnetID",
              "type": "tuple"
            },
            {
              "internalType": "uint64",
              "name": "blockHeight",
              "type": "uint64"
            },
            {
              "internalType": "bytes32",
              "name": "blockHash",
              "type": "bytes32"
            },
            {
              "internalType": "uint64",
              "name": "nextConfigurationNumber",
              "type": "uint64"
            },
            {
              "internalType": "bytes32",
              "name": "crossMessagesHash",
              "type": "bytes32"
            }
          ],
          "internalType": "struct BottomUpCheckpoint",
          "name": "",
          "type": "tuple"
        }
      ],
      "stateMutability": "view",
      "type": "function"
    },
    {
      "inputs": [
        {
          "internalType": "uint64",
          "name": "e",
          "type": "uint64"
        }
      ],
      "name": "bottomUpMessages",
      "outputs": [
        {
          "components": [
            {
              "components": [
                {
                  "components": [
                    {
                      "components": [
                        {
                          "internalType": "uint64",
                          "name": "root",
                          "type": "uint64"
                        },
                        {
                          "internalType": "address[]",
                          "name": "route",
                          "type": "address[]"
                        }
                      ],
                      "internalType": "struct SubnetID",
                      "name": "subnetId",
                      "type": "tuple"
                    },
                    {
                      "components": [
                        {
                          "internalType": "uint8",
                          "name": "addrType",
                          "type": "uint8"
                        },
                        {
                          "internalType": "bytes",
                          "name": "payload",
                          "type": "bytes"
                        }
                      ],
                      "internalType": "struct FvmAddress",
                      "name": "rawAddress",
                      "type": "tuple"
                    }
                  ],
                  "internalType": "struct IPCAddress",
                  "name": "from",
                  "type": "tuple"
                },
                {
                  "components": [
                    {
                      "components": [
                        {
                          "internalType": "uint64",
                          "name": "root",
                          "type": "uint64"
                        },
                        {
                          "internalType": "address[]",
                          "name": "route",
                          "type": "address[]"
                        }
                      ],
                      "internalType": "struct SubnetID",
                      "name": "subnetId",
                      "type": "tuple"
                    },
                    {
                      "components": [
                        {
                          "internalType": "uint8",
                          "name": "addrType",
                          "type": "uint8"
                        },
                        {
                          "internalType": "bytes",
                          "name": "payload",
                          "type": "bytes"
                        }
                      ],
                      "internalType": "struct FvmAddress",
                      "name": "rawAddress",
                      "type": "tuple"
                    }
                  ],
                  "internalType": "struct IPCAddress",
                  "name": "to",
                  "type": "tuple"
                },
                {
                  "internalType": "uint256",
                  "name": "value",
                  "type": "uint256"
                },
                {
                  "internalType": "uint64",
                  "name": "nonce",
                  "type": "uint64"
                },
                {
                  "internalType": "bytes4",
                  "name": "method",
                  "type": "bytes4"
                },
                {
                  "internalType": "bytes",
                  "name": "params",
                  "type": "bytes"
                },
                {
                  "internalType": "uint256",
                  "name": "fee",
                  "type": "uint256"
                }
              ],
              "internalType": "struct StorableMsg",
              "name": "message",
              "type": "tuple"
            },
            {
              "internalType": "bool",
              "name": "wrapped",
              "type": "bool"
            }
          ],
          "internalType": "struct CrossMsg[]",
          "name": "",
          "type": "tuple[]"
        }
      ],
      "stateMutability": "view",
      "type": "function"
    },
    {
      "inputs": [],
      "name": "bottomUpNonce",
      "outputs": [
        {
          "internalType": "uint64",
          "name": "",
          "type": "uint64"
        }
      ],
      "stateMutability": "view",
      "type": "function"
    },
    {
      "inputs": [],
      "name": "crossMsgFee",
      "outputs": [
        {
          "internalType": "uint256",
          "name": "",
          "type": "uint256"
        }
      ],
      "stateMutability": "view",
      "type": "function"
    },
    {
      "inputs": [
        {
          "components": [
            {
              "internalType": "uint64",
              "name": "root",
              "type": "uint64"
            },
            {
              "internalType": "address[]",
              "name": "route",
              "type": "address[]"
            }
          ],
          "internalType": "struct SubnetID",
          "name": "subnetId",
          "type": "tuple"
        }
      ],
      "name": "getAppliedTopDownNonce",
      "outputs": [
        {
          "internalType": "bool",
          "name": "",
          "type": "bool"
        },
        {
          "internalType": "uint64",
          "name": "",
          "type": "uint64"
        }
      ],
      "stateMutability": "view",
      "type": "function"
    },
    {
      "inputs": [],
      "name": "getBottomUpRetentionHeight",
      "outputs": [
        {
          "internalType": "uint64",
          "name": "",
          "type": "uint64"
        }
      ],
      "stateMutability": "view",
      "type": "function"
    },
    {
      "inputs": [
        {
          "internalType": "uint64",
          "name": "h",
          "type": "uint64"
        }
      ],
      "name": "getCheckpointCurrentWeight",
      "outputs": [
        {
          "internalType": "uint256",
          "name": "",
          "type": "uint256"
        }
      ],
      "stateMutability": "view",
      "type": "function"
    },
    {
      "inputs": [
        {
          "internalType": "uint64",
          "name": "h",
          "type": "uint64"
        }
      ],
      "name": "getCheckpointInfo",
      "outputs": [
        {
          "components": [
            {
              "internalType": "bytes32",
              "name": "hash",
              "type": "bytes32"
            },
            {
              "internalType": "bytes32",
              "name": "rootHash",
              "type": "bytes32"
            },
            {
              "internalType": "uint256",
              "name": "threshold",
              "type": "uint256"
            },
            {
              "internalType": "uint256",
              "name": "currentWeight",
              "type": "uint256"
            },
            {
              "internalType": "bool",
              "name": "reached",
              "type": "bool"
            }
          ],
          "internalType": "struct CheckpointInfo",
          "name": "",
          "type": "tuple"
        }
      ],
      "stateMutability": "view",
      "type": "function"
    },
    {
      "inputs": [],
      "name": "getCurrentConfigurationNumber",
      "outputs": [
        {
          "internalType": "uint64",
          "name": "",
          "type": "uint64"
        }
      ],
      "stateMutability": "view",
      "type": "function"
    },
    {
      "inputs": [],
      "name": "getCurrentMembership",
      "outputs": [
        {
          "components": [
            {
              "components": [
                {
                  "internalType": "uint256",
                  "name": "weight",
                  "type": "uint256"
                },
                {
                  "internalType": "address",
                  "name": "addr",
                  "type": "address"
                },
                {
                  "internalType": "bytes",
                  "name": "metadata",
                  "type": "bytes"
                }
              ],
              "internalType": "struct Validator[]",
              "name": "validators",
              "type": "tuple[]"
            },
            {
              "internalType": "uint64",
              "name": "configurationNumber",
              "type": "uint64"
            }
          ],
          "internalType": "struct Membership",
          "name": "",
          "type": "tuple"
        }
      ],
      "stateMutability": "view",
      "type": "function"
    },
    {
      "inputs": [],
      "name": "getIncompleteCheckpointHeights",
      "outputs": [
        {
          "internalType": "uint256[]",
          "name": "",
          "type": "uint256[]"
        }
      ],
      "stateMutability": "view",
      "type": "function"
    },
    {
      "inputs": [],
      "name": "getIncompleteCheckpoints",
      "outputs": [
        {
          "components": [
            {
              "components": [
                {
                  "internalType": "uint64",
                  "name": "root",
                  "type": "uint64"
                },
                {
                  "internalType": "address[]",
                  "name": "route",
                  "type": "address[]"
                }
              ],
              "internalType": "struct SubnetID",
              "name": "subnetID",
              "type": "tuple"
            },
            {
              "internalType": "uint64",
              "name": "blockHeight",
              "type": "uint64"
            },
            {
              "internalType": "bytes32",
              "name": "blockHash",
              "type": "bytes32"
            },
            {
              "internalType": "uint64",
              "name": "nextConfigurationNumber",
              "type": "uint64"
            },
            {
              "internalType": "bytes32",
              "name": "crossMessagesHash",
              "type": "bytes32"
            }
          ],
          "internalType": "struct BottomUpCheckpoint[]",
          "name": "",
          "type": "tuple[]"
        }
      ],
      "stateMutability": "view",
      "type": "function"
    },
    {
      "inputs": [],
      "name": "getLastConfigurationNumber",
      "outputs": [
        {
          "internalType": "uint64",
          "name": "",
          "type": "uint64"
        }
      ],
      "stateMutability": "view",
      "type": "function"
    },
    {
      "inputs": [],
      "name": "getLastMembership",
      "outputs": [
        {
          "components": [
            {
              "components": [
                {
                  "internalType": "uint256",
                  "name": "weight",
                  "type": "uint256"
                },
                {
                  "internalType": "address",
                  "name": "addr",
                  "type": "address"
                },
                {
                  "internalType": "bytes",
                  "name": "metadata",
                  "type": "bytes"
                }
              ],
              "internalType": "struct Validator[]",
              "name": "validators",
              "type": "tuple[]"
            },
            {
              "internalType": "uint64",
              "name": "configurationNumber",
              "type": "uint64"
            }
          ],
          "internalType": "struct Membership",
          "name": "",
          "type": "tuple"
        }
      ],
      "stateMutability": "view",
      "type": "function"
    },
    {
      "inputs": [],
      "name": "getLatestParentFinality",
      "outputs": [
        {
          "components": [
            {
              "internalType": "uint256",
              "name": "height",
              "type": "uint256"
            },
            {
              "internalType": "bytes32",
              "name": "blockHash",
              "type": "bytes32"
            }
          ],
          "internalType": "struct ParentFinality",
          "name": "",
          "type": "tuple"
        }
      ],
      "stateMutability": "view",
      "type": "function"
    },
    {
      "inputs": [],
      "name": "getNetworkName",
      "outputs": [
        {
          "components": [
            {
              "internalType": "uint64",
              "name": "root",
              "type": "uint64"
            },
            {
              "internalType": "address[]",
              "name": "route",
              "type": "address[]"
            }
          ],
          "internalType": "struct SubnetID",
          "name": "",
          "type": "tuple"
        }
      ],
      "stateMutability": "view",
      "type": "function"
    },
    {
      "inputs": [
        {
          "internalType": "uint256",
          "name": "blockNumber",
          "type": "uint256"
        }
      ],
      "name": "getParentFinality",
      "outputs": [
        {
          "components": [
            {
              "internalType": "uint256",
              "name": "height",
              "type": "uint256"
            },
            {
              "internalType": "bytes32",
              "name": "blockHash",
              "type": "bytes32"
            }
          ],
          "internalType": "struct ParentFinality",
          "name": "",
          "type": "tuple"
        }
      ],
      "stateMutability": "view",
      "type": "function"
    },
    {
      "inputs": [
        {
          "internalType": "uint256",
          "name": "totalWeight",
          "type": "uint256"
        }
      ],
      "name": "getQuorumThreshold",
      "outputs": [
        {
          "internalType": "uint256",
          "name": "",
          "type": "uint256"
        }
      ],
      "stateMutability": "view",
      "type": "function"
    },
    {
      "inputs": [
        {
          "internalType": "uint64",
          "name": "h",
          "type": "uint64"
        }
      ],
      "name": "getSignatureBundle",
      "outputs": [
        {
          "components": [
            {
              "components": [
                {
                  "internalType": "uint64",
                  "name": "root",
                  "type": "uint64"
                },
                {
                  "internalType": "address[]",
                  "name": "route",
                  "type": "address[]"
                }
              ],
              "internalType": "struct SubnetID",
              "name": "subnetID",
              "type": "tuple"
            },
            {
              "internalType": "uint64",
              "name": "blockHeight",
              "type": "uint64"
            },
            {
              "internalType": "bytes32",
              "name": "blockHash",
              "type": "bytes32"
            },
            {
              "internalType": "uint64",
              "name": "nextConfigurationNumber",
              "type": "uint64"
            },
            {
              "internalType": "bytes32",
              "name": "crossMessagesHash",
              "type": "bytes32"
            }
          ],
          "internalType": "struct BottomUpCheckpoint",
          "name": "ch",
          "type": "tuple"
        },
        {
          "components": [
            {
              "internalType": "bytes32",
              "name": "hash",
              "type": "bytes32"
            },
            {
              "internalType": "bytes32",
              "name": "rootHash",
              "type": "bytes32"
            },
            {
              "internalType": "uint256",
              "name": "threshold",
              "type": "uint256"
            },
            {
              "internalType": "uint256",
              "name": "currentWeight",
              "type": "uint256"
            },
            {
              "internalType": "bool",
              "name": "reached",
              "type": "bool"
            }
          ],
          "internalType": "struct CheckpointInfo",
          "name": "info",
          "type": "tuple"
        },
        {
          "internalType": "address[]",
          "name": "signatories",
          "type": "address[]"
        },
        {
          "internalType": "bytes[]",
          "name": "signatures",
          "type": "bytes[]"
        }
      ],
      "stateMutability": "view",
      "type": "function"
    },
    {
      "inputs": [
        {
          "components": [
            {
              "internalType": "uint64",
              "name": "root",
              "type": "uint64"
            },
            {
              "internalType": "address[]",
              "name": "route",
              "type": "address[]"
            }
          ],
          "internalType": "struct SubnetID",
          "name": "subnetId",
          "type": "tuple"
        }
      ],
      "name": "getSubnet",
      "outputs": [
        {
          "internalType": "bool",
          "name": "",
          "type": "bool"
        },
        {
          "components": [
            {
              "internalType": "uint256",
              "name": "stake",
              "type": "uint256"
            },
            {
              "internalType": "uint256",
              "name": "genesisEpoch",
              "type": "uint256"
            },
            {
              "internalType": "uint256",
              "name": "circSupply",
              "type": "uint256"
            },
            {
              "internalType": "uint64",
              "name": "topDownNonce",
              "type": "uint64"
            },
            {
              "internalType": "uint64",
              "name": "appliedBottomUpNonce",
              "type": "uint64"
            },
            {
              "internalType": "enum Status",
              "name": "status",
              "type": "uint8"
            },
            {
              "components": [
                {
                  "internalType": "uint64",
                  "name": "root",
                  "type": "uint64"
                },
                {
                  "internalType": "address[]",
                  "name": "route",
                  "type": "address[]"
                }
              ],
              "internalType": "struct SubnetID",
              "name": "id",
              "type": "tuple"
            }
          ],
          "internalType": "struct Subnet",
          "name": "",
          "type": "tuple"
        }
      ],
      "stateMutability": "view",
      "type": "function"
    },
    {
      "inputs": [
        {
          "components": [
            {
              "internalType": "uint64",
              "name": "root",
              "type": "uint64"
            },
            {
              "internalType": "address[]",
              "name": "route",
              "type": "address[]"
            }
          ],
          "internalType": "struct SubnetID",
          "name": "subnetId",
          "type": "tuple"
        }
      ],
      "name": "getSubnetTopDownMsgsLength",
      "outputs": [
        {
          "internalType": "uint256",
          "name": "",
          "type": "uint256"
        }
      ],
      "stateMutability": "view",
      "type": "function"
    },
    {
      "inputs": [
        {
          "components": [
            {
              "internalType": "uint64",
              "name": "root",
              "type": "uint64"
            },
            {
              "internalType": "address[]",
              "name": "route",
              "type": "address[]"
            }
          ],
          "internalType": "struct SubnetID",
          "name": "subnetId",
          "type": "tuple"
        },
        {
          "internalType": "uint256",
          "name": "blockNumber",
          "type": "uint256"
        }
      ],
      "name": "getTopDownMsgs",
      "outputs": [
        {
          "components": [
            {
              "components": [
                {
                  "components": [
                    {
                      "components": [
                        {
                          "internalType": "uint64",
                          "name": "root",
                          "type": "uint64"
                        },
                        {
                          "internalType": "address[]",
                          "name": "route",
                          "type": "address[]"
                        }
                      ],
                      "internalType": "struct SubnetID",
                      "name": "subnetId",
                      "type": "tuple"
                    },
                    {
                      "components": [
                        {
                          "internalType": "uint8",
                          "name": "addrType",
                          "type": "uint8"
                        },
                        {
                          "internalType": "bytes",
                          "name": "payload",
                          "type": "bytes"
                        }
                      ],
                      "internalType": "struct FvmAddress",
                      "name": "rawAddress",
                      "type": "tuple"
                    }
                  ],
                  "internalType": "struct IPCAddress",
                  "name": "from",
                  "type": "tuple"
                },
                {
                  "components": [
                    {
                      "components": [
                        {
                          "internalType": "uint64",
                          "name": "root",
                          "type": "uint64"
                        },
                        {
                          "internalType": "address[]",
                          "name": "route",
                          "type": "address[]"
                        }
                      ],
                      "internalType": "struct SubnetID",
                      "name": "subnetId",
                      "type": "tuple"
                    },
                    {
                      "components": [
                        {
                          "internalType": "uint8",
                          "name": "addrType",
                          "type": "uint8"
                        },
                        {
                          "internalType": "bytes",
                          "name": "payload",
                          "type": "bytes"
                        }
                      ],
                      "internalType": "struct FvmAddress",
                      "name": "rawAddress",
                      "type": "tuple"
                    }
                  ],
                  "internalType": "struct IPCAddress",
                  "name": "to",
                  "type": "tuple"
                },
                {
                  "internalType": "uint256",
                  "name": "value",
                  "type": "uint256"
                },
                {
                  "internalType": "uint64",
                  "name": "nonce",
                  "type": "uint64"
                },
                {
                  "internalType": "bytes4",
                  "name": "method",
                  "type": "bytes4"
                },
                {
                  "internalType": "bytes",
                  "name": "params",
                  "type": "bytes"
                },
                {
                  "internalType": "uint256",
                  "name": "fee",
                  "type": "uint256"
                }
              ],
              "internalType": "struct StorableMsg",
              "name": "message",
              "type": "tuple"
            },
            {
              "internalType": "bool",
              "name": "wrapped",
              "type": "bool"
            }
          ],
          "internalType": "struct CrossMsg[]",
          "name": "msgs",
          "type": "tuple[]"
        }
      ],
      "stateMutability": "view",
      "type": "function"
    },
    {
      "inputs": [],
      "name": "listSubnets",
      "outputs": [
        {
          "components": [
            {
              "internalType": "uint256",
              "name": "stake",
              "type": "uint256"
            },
            {
              "internalType": "uint256",
              "name": "genesisEpoch",
              "type": "uint256"
            },
            {
              "internalType": "uint256",
              "name": "circSupply",
              "type": "uint256"
            },
            {
              "internalType": "uint64",
              "name": "topDownNonce",
              "type": "uint64"
            },
            {
              "internalType": "uint64",
              "name": "appliedBottomUpNonce",
              "type": "uint64"
            },
            {
              "internalType": "enum Status",
              "name": "status",
              "type": "uint8"
            },
            {
              "components": [
                {
                  "internalType": "uint64",
                  "name": "root",
                  "type": "uint64"
                },
                {
                  "internalType": "address[]",
                  "name": "route",
                  "type": "address[]"
                }
              ],
              "internalType": "struct SubnetID",
              "name": "id",
              "type": "tuple"
            }
          ],
          "internalType": "struct Subnet[]",
          "name": "",
          "type": "tuple[]"
        }
      ],
      "stateMutability": "view",
      "type": "function"
    },
    {
      "inputs": [],
      "name": "majorityPercentage",
      "outputs": [
        {
          "internalType": "uint64",
          "name": "",
          "type": "uint64"
        }
      ],
      "stateMutability": "view",
      "type": "function"
    },
    {
      "inputs": [],
      "name": "minStake",
      "outputs": [
        {
          "internalType": "uint256",
          "name": "",
          "type": "uint256"
        }
      ],
      "stateMutability": "view",
      "type": "function"
    },
    {
      "inputs": [
        {
          "internalType": "bytes32",
          "name": "id",
          "type": "bytes32"
        }
      ],
      "name": "postbox",
      "outputs": [
        {
          "components": [
            {
              "components": [
                {
                  "components": [
                    {
                      "internalType": "uint64",
                      "name": "root",
                      "type": "uint64"
                    },
                    {
                      "internalType": "address[]",
                      "name": "route",
                      "type": "address[]"
                    }
                  ],
                  "internalType": "struct SubnetID",
                  "name": "subnetId",
                  "type": "tuple"
                },
                {
                  "components": [
                    {
                      "internalType": "uint8",
                      "name": "addrType",
                      "type": "uint8"
                    },
                    {
                      "internalType": "bytes",
                      "name": "payload",
                      "type": "bytes"
                    }
                  ],
                  "internalType": "struct FvmAddress",
                  "name": "rawAddress",
                  "type": "tuple"
                }
              ],
              "internalType": "struct IPCAddress",
              "name": "from",
              "type": "tuple"
            },
            {
              "components": [
                {
                  "components": [
                    {
                      "internalType": "uint64",
                      "name": "root",
                      "type": "uint64"
                    },
                    {
                      "internalType": "address[]",
                      "name": "route",
                      "type": "address[]"
                    }
                  ],
                  "internalType": "struct SubnetID",
                  "name": "subnetId",
                  "type": "tuple"
                },
                {
                  "components": [
                    {
                      "internalType": "uint8",
                      "name": "addrType",
                      "type": "uint8"
                    },
                    {
                      "internalType": "bytes",
                      "name": "payload",
                      "type": "bytes"
                    }
                  ],
                  "internalType": "struct FvmAddress",
                  "name": "rawAddress",
                  "type": "tuple"
                }
              ],
              "internalType": "struct IPCAddress",
              "name": "to",
              "type": "tuple"
            },
            {
              "internalType": "uint256",
              "name": "value",
              "type": "uint256"
            },
            {
              "internalType": "uint64",
              "name": "nonce",
              "type": "uint64"
            },
            {
              "internalType": "bytes4",
              "name": "method",
              "type": "bytes4"
            },
            {
              "internalType": "bytes",
              "name": "params",
              "type": "bytes"
            },
            {
              "internalType": "uint256",
              "name": "fee",
              "type": "uint256"
            }
          ],
          "internalType": "struct StorableMsg",
          "name": "storableMsg",
          "type": "tuple"
        },
        {
          "internalType": "bool",
          "name": "wrapped",
          "type": "bool"
        }
      ],
      "stateMutability": "view",
      "type": "function"
    },
    {
      "inputs": [
        {
          "internalType": "bytes32",
          "name": "h",
          "type": "bytes32"
        }
      ],
      "name": "subnets",
      "outputs": [
        {
          "components": [
            {
              "internalType": "uint256",
              "name": "stake",
              "type": "uint256"
            },
            {
              "internalType": "uint256",
              "name": "genesisEpoch",
              "type": "uint256"
            },
            {
              "internalType": "uint256",
              "name": "circSupply",
              "type": "uint256"
            },
            {
              "internalType": "uint64",
              "name": "topDownNonce",
              "type": "uint64"
            },
            {
              "internalType": "uint64",
              "name": "appliedBottomUpNonce",
              "type": "uint64"
            },
            {
              "internalType": "enum Status",
              "name": "status",
              "type": "uint8"
            },
            {
              "components": [
                {
                  "internalType": "uint64",
                  "name": "root",
                  "type": "uint64"
                },
                {
                  "internalType": "address[]",
                  "name": "route",
                  "type": "address[]"
                }
              ],
              "internalType": "struct SubnetID",
              "name": "id",
              "type": "tuple"
            }
          ],
          "internalType": "struct Subnet",
          "name": "subnet",
          "type": "tuple"
        }
      ],
      "stateMutability": "view",
      "type": "function"
    },
    {
      "inputs": [],
      "name": "totalSubnets",
      "outputs": [
        {
          "internalType": "uint64",
          "name": "",
          "type": "uint64"
        }
      ],
      "stateMutability": "view",
      "type": "function"
    }
  ],
  "bytecode": {
    "object": "0x6080806040523461001657611cd6908161001c8239f35b600080fdfe6040608081526004908136101561001557600080fd5b600091823560e01c90816302e30f9a14610f1f5781630338150f14610ed957816306572c1a14610e8c57816306c4685314610e645781632472942514610e45578163375b3c0a14610e265781633e37cfa214610dfe57816341b6a2e814610dd35781634512ff6314610d27578163544dddff14610cff578163599c7bd114610cdd5781635d02968514610bc65781636ad21bb014610ae95781637edeac9214610a9a5781638789f83b14610a6f5781638cfd78e714610a1657816394074b0314610960578163970427661461080f5781639d3070b5146107c95781639e530b5714610797578163a2b671581461076c578163a517218f14610712578163a823cb23146106c2578163ad8c4f741461041d578163b1ba49b0146103f5578163b45ff1721461036257508063b932488f146102dd578063c66c66a114610289578063f3229131146101a95763f7ceaf761461016d57600080fd5b346101a55760203660031901126101a5576003816020936001600160401b0361019461103d565b168152600b85522001549051908152f35b5080fd5b50346101a557816003193601126101a5576101c2611830565b508051906101cf82611268565b6008546101db816112da565b6101e7835191826112b9565b818152602091828201600887527ff3f7a9fe364faab93b216da50a3214154f22a0a2b415b23a84c8169e8b636ee396905b82821061024757505050610243945083526001600160401b0360095416908301525191829182611098565b0390f35b60038560019288516102588161129e565b8b548152848060a01b03858d0154168382015261027760028d0161150b565b8a820152815201980191019096610218565b5090346102da57506102c36102436102bb6102b66102a63661139a565b6102ae6116c3565b5036906112f1565b611b93565b929092611702565b835193849315158452806020850152830190610fbf565b80fd5b5090346102da576020806003193601126101a5576001600160401b0361030161103d565b168252600c8152828220805491610317836112da565b93610324865195866112b9565b8385529182528082208185015b8484106103455786518061024388826113cb565b600d8360019261035485611699565b815201920193019290610331565b919050346103f15760203660031901126103f1576005610243938261038561103d565b9161038e6114d9565b506001600160401b038093168152600a60205220908351946103af86611237565b6103b88361145e565b865281600284015416602087015260038301548587015282015416606085015201546080830152519182916020835260208301906111ee565b8280fd5b5050346101a557816003193601126101a5576020906001600160401b03600954169051908152f35b8383346101a557602091826003193601126102da57839061043c61103d565b926104456114d9565b5061044e61184a565b506001600160401b0380941694858352600a815281832091600581519661047488611237565b61047d8561145e565b885280600286015416848901526003850154838901528685015416936060948589015201546080870152868452600b82528084209460ff8251916104c083611237565b875483526001978881015486850152600281015485850152600381015487850152015416151560808201528785526010835281852091805190818585549182815201908195895286892090895b8181106106af57505050826105239103836112b9565b815161052e816112da565b9a61053b83519c8d6112b9565b818c52601f19978861054c846112da565b01908a5b8281106106a057505050885b82811061064757505050906105b361057f8693519a610100808d528c01906111ee565b93838b0190608080918051845260208101516020850152604081015160408501526060810151606085015201511515910152565b88830360c08a01525191828152019190855b81811061062b5750505085810360e08701528651928382528282019083808660051b850101990195925b8584106105fc57888a0389f35b9091929394959685806106188c8686869f030188528b51611058565b9b990197969591909101930191906105ef565b82516001600160a01b03168452928401929184019187016105c5565b99809c9a828b98999a9b5260118a5284882060018060a01b0361066a8389611806565b511689528a528b61068682610680888c2061150b565b92611806565b52610691818d611806565b50019b999b989796959861055c565b8e81018a018290528901610550565b8254845292880192918b01918b0161050d565b9050346103f1576003199282843601126102da578135936001600160401b0385116101a557839085360301126102da5750610243926107079160243591829101611980565b9051918291826113cb565b5050346101a557816003193601126101a55761072c611875565b815192839260208080860192818752855180945286019401925b82811061075557505050500390f35b835185528695509381019392810192600101610746565b5050346101a557816003193601126101a5576020906001600160401b0360175460881c169051908152f35b8284346102da57506001600160401b036107b86107b33661139a565b61176c565b835191151582529091166020820152f35b8284346102da5760203660031901126102da5782356001600160401b03918282116102da57506108036102b66020956003933691016112f1565b90500154169051908152f35b839150346101a557816003193601126101a55761082a611875565b91825190610837826112da565b90610844865192836112b9565b828252601f19610853846112da565b01815b818110610949575050805b6001600160401b0390818116858110156108ec57906108e482846108876001958c611806565b511686526020600a815260058c88208d51926108a284611237565b6108ab8261145e565b8452600282015489169084015260038101548e8401528b81015488166060840152015460808201526108dd8289611806565b5286611806565b500116610861565b885160208082528651818301819052869291600582901b83018d0191818a0191848f015b82871061091d5785850386f35b909192938280610939600193603f198a820301865288516111ee565b9601920196019592919092610910565b6020906109546114d9565b82828701015201610856565b8284346102da57806003193601126102da5761097a611444565b5081519161098783611268565b6013546001600160401b03168352805160148054808352908452602093848301917fce6d7b5282bd9a3661ae061feed1dbda4e52ab073b1f9285be6e155d9c38d4ec915b868282106109f957889061024388886109e6818a03826112b9565b8385015251928284938452830190610f64565b83546001600160a01b0316855290930192600192830192016109cb565b9050346103f15760203660031901126103f157918192610a346117c0565b50803582526020522090610a4f60ff600c8401541692611622565b91610a638251938385948552840190611174565b90151560208301520390f35b5050346101a557816003193601126101a5576020906001600160401b0360175460481c169051908152f35b9050346103f15760203660031901126103f157610acd906102439360208451610ac281611268565b8281520152356118e2565b9051918291829190916020806040830194805184520151910152565b5050346101a557816003193601126101a557610b03611830565b50805190610b1082611268565b600654610b1c816112da565b610b28835191826112b9565b818152602091828201600687527ff652222313e28459528d920b65115c16c04f3efc82aaedc97be59f3f377c0d3f96905b828210610b8457505050610243945083526001600160401b0360075416908301525191829182611098565b6003856001928851610b958161129e565b8b548152848060a01b03858d01541683820152610bb460028d0161150b565b8a820152815201980191019096610b59565b8284346102da57806003193601126102da57601254610be4816112da565b90610bf1845192836112b9565b808252601f19610c00826112da565b01835b818110610cc6575050825b818110610c72575050825191602080840190808552835180925280868601968360051b870101940192955b828710610c465785850386f35b909192938280610c62600193603f198a82030186528851610fbf565b9601920196019592919092610c39565b806001917fbb8a6a4669ba250d26cd7a459eca9d215f8307e33aebe50379bc5a3617ec34440154855284602052610caa868620611702565b610cb48286611806565b52610cbf8185611806565b5001610c0e565b602090610cd16116c3565b82828701015201610c03565b5050346101a557816003193601126101a55760209060ff601754169051908152f35b5050346101a557816003193601126101a5576020906001600160401b03600754169051908152f35b919050346103f15760203660031901126103f1578060ff610dd19260a0956001600160401b03610d5561103d565b610d5d61184a565b50168152600b6020522093825194610d7486611237565b80548652600181015460208701526002810154848701526003810154606087015201541615156080840152518092608080918051845260208101516020850152604081015160408501526060810151606085015201511515910152565bf35b5050346101a557816003193601126101a5576020906001600160401b0360175460081c169051908152f35b5050346101a557816003193601126101a5576020906001600160401b03600d54169051908152f35b5050346101a557816003193601126101a5576020906015549051908152f35b5050346101a557816003193601126101a5576020906016549051908152f35b5050346101a557816003193601126101a5576020906001600160401b03601854169051908152f35b905082346102da5760203660031901126102da5760175460ff16823581810293918115918504141715610ec6576020836064865191048152f35b634e487b7160e01b825260119052602490fd5b5050346101a557816003193601126101a557816102439260208351610efd81611268565b828152015260208251610f0f81611268565b8281520152610acd6003546118e2565b9050346103f15760203660031901126103f1578161024393610f5192610f436116c3565b503581528060205220611702565b9051918291602083526020830190610fbf565b60609060408301906001600160401b03815116845260209283809201519460408382015285518094520193019160005b828110610fa2575050505090565b83516001600160a01b031685529381019392810192600101610f94565b908151815260208201516020820152604082015160408201526001600160401b03806060840151166060830152608083015116608082015260a08201519160068310156110275760c060e0916110249460a08501520151918160c08201520190610f64565b90565b634e487b7160e01b600052602160045260246000fd5b600435906001600160401b038216820361105357565b600080fd5b919082519283825260005b848110611084575050826000602080949584010152601f8019910116010190565b602081830181015184830182015201611063565b602091828252606092838301918051946040938484870152865180915260808601918460808360051b8901019801926000915b8383106110ea575050505050906001600160401b039101511691015290565b909192939886806111298a856001958f8f83918591607f19908503018c525180518452898060a01b038882015116888501520151938201520190611058565b9b0193019301919392906110cb565b604060206110249381611152855185845285840190610f64565b940151908281860391015260ff81511684520151918160208201520190611058565b9060c0806111e56111a3611191865160e0875260e0870190611138565b60208701518682036020880152611138565b604086015160408601526001600160401b03606087015116606086015263ffffffff60e01b608087015116608086015260a086015185820360a0870152611058565b93015191015290565b90608080611205845160a0855260a0850190610f64565b936001600160401b03806020830151166020860152604082015160408601526060820151166060850152015191015290565b60a081019081106001600160401b0382111761125257604052565b634e487b7160e01b600052604160045260246000fd5b604081019081106001600160401b0382111761125257604052565b60e081019081106001600160401b0382111761125257604052565b606081019081106001600160401b0382111761125257604052565b90601f801991011681019081106001600160401b0382111761125257604052565b6001600160401b0381116112525760051b60200190565b9190604083820312611053576040519261130a84611268565b836001600160401b03823581811681036110535782526020928381013591821161105357019280601f85011215611053578335611346816112da565b9461135460405196876112b9565b818652848087019260051b820101928311611053578401905b82821061137b575050500152565b81356001600160a01b038116810361105357815290840190840161136d565b6003199060208183011261105357600435916001600160401b03831161105357826040920301126110535760040190565b602080820190808352835180925260409283810182858560051b8401019601946000925b858410611400575050505050505090565b909192939495968580600192603f198582030187528a5190828061142b84518a85528a850190611174565b93015115159101529901940194019295949391906113ef565b6040519061145182611268565b6060602083600081520152565b9060405161146b81611268565b80926001600160401b03815416825260018091019160405191828481955492838652602080960191600052856000209060005b878682106114ba57505050506114b6925003846112b9565b0152565b83546001600160a01b031685528995509093019291810191810161149e565b604051906114e682611237565b60006080836114f3611444565b81528260208201528260408201528260608201520152565b90604051906000835490600182811c908084169687156115d2575b60209485841089146115be578798848997989952908160001461159c575060011461155d575b50505061155b925003836112b9565b565b600090815285812095935091905b81831061158457505061155b935082010138808061154c565b8554888401850152948501948794509183019161156b565b9250505061155b94925060ff191682840152151560051b82010138808061154c565b634e487b7160e01b85526022600452602485fd5b91607f1691611526565b90604051916115ea83611268565b6020836115f68361145e565b815261161a60036040519461160a86611268565b60ff60028201541686520161150b565b828401520152565b9060405161162f81611283565b60c0600b829461163e816115dc565b845261164c600482016115dc565b60208501526008810154604085015260098101546001600160401b038116606086015260a01b6001600160e01b031916608085015261168d600a820161150b565b60a08501520154910152565b906040516116a681611268565b602060ff600c83956116b781611622565b85520154161515910152565b604051906116d082611283565b81600080825280602083015280604083015280606083015280608083015260a082015260c06116fd611444565b910152565b9060405161170f81611283565b809280548252600181015460208301526002810154604083015260ff60038201546001600160401b0380821660608601528160401c16608085015260801c169060068210156110275760046116fd9160c09360a08601520161145e565b6102b661177a9136906112f1565b90156117955760036001600160401b03910154169060019190565b50600090600090565b604051906117ab82611268565b816117b4611444565b815260206116fd611444565b604051906117cd82611283565b600060c0836117da61179e565b81526117e461179e565b6020820152826040820152826060820152826080820152606060a08201520152565b805182101561181a5760209160051b010190565b634e487b7160e01b600052603260045260246000fd5b6040519061183d82611268565b6000602083606081520152565b6040519061185782611237565b60006080838281528260208201528260408201528260608201520152565b60405190600e548083528260209182820190600e6000527fbb7b4a454dc3493923482f07822329ed19e8244eff582cc204f8554c3620c3fd936000905b8282106118c85750505061155b925003836112b9565b8554845260019586019588955093810193909101906118b2565b600060206040516118f281611268565b82815201526000526002602052604060002060016040519161191383611268565b805483520154602082015290565b906020908183528160808160608601936001600160401b038151168288015201519460408082015285518094520193019160005b828110611963575050505090565b83516001600160a01b031685529381019392810192600101611955565b828211611b6d576119929036906112f1565b9160409182516390ba52cf60e01b815260208082806119b56004998a8301611921565b038173__$a0fe38a9a81205afccc10810b09a4d3f45$__5af4918215611b6257600092611b33575b50600095835b85811115611af457506119f5876112da565b96611a02875198896112b9565b808852611a11601f19916112da565b018260005b828110611acb575050506000935b85811115611a36575050505050505090565b8360005260019081845287600020816000528452876000205460005b818110611a6157505001611a24565b8660005283865289600020836000528652896000208054821015611ab6578491611aac8a8e8594600052611a9c8b600020600d860201611699565b611aa68383611806565b52611806565b5001970196611a52565b603286634e487b7160e01b6000525260246000fd5b8851611ad681611268565b611ade6117c0565b815260008382015282828c010152018390611a16565b96836000526001908184528760002089600052845287600020548101809111611b1e5797016119e3565b601183634e487b7160e01b6000525260246000fd5b90918282813d8311611b5b575b611b4a81836112b9565b810103126102da57505190386119dd565b503d611b40565b85513d6000823e3d90fd5b505050604051602081018181106001600160401b03821117611252576040526000815290565b611bca73__$a0fe38a9a81205afccc10810b09a4d3f45$__91604051906390ba52cf60e01b82528180602094859360048301611921565b0381865af4908115611c6757600091611c73575b5060005260008152611c1881604060002093611bfc6004860161145e565b906040518080958194630c133d1360e31b835260048301611921565b03915af4918215611c6757600092611c31575b50501591565b81813d8311611c60575b611c4581836112b9565b810103126101a557519081151582036102da57503880611c2b565b503d611c3b565b6040513d6000823e3d90fd5b908282813d8311611c99575b611c8981836112b9565b810103126102da57505138611bde565b503d611c7f56fea2646970667358221220d33868abad47e66a1160b7599583f1a5c7506ceb3a0bccd136a901da3d24ec5a64736f6c63430008130033",
    "linkReferences": {
      "src/lib/SubnetIDHelper.sol": {
        "SubnetIDHelper": [
          {
            "start": 6613,
            "length": 20
          },
          {
            "start": 7092,
            "length": 20
          }
        ]
      }
    }
  },
  "methodIdentifiers": {
    "appliedTopDownNonce()": "8789f83b",
    "bottomUpCheckPeriod()": "06c46853",
    "bottomUpCheckpoint(uint64)": "b45ff172",
    "bottomUpMessages(uint64)": "b932488f",
    "bottomUpNonce()": "41b6a2e8",
    "crossMsgFee()": "24729425",
    "getAppliedTopDownNonce((uint64,address[]))": "9e530b57",
    "getBottomUpRetentionHeight()": "3e37cfa2",
    "getCheckpointCurrentWeight(uint64)": "f7ceaf76",
    "getCheckpointInfo(uint64)": "4512ff63",
    "getCurrentConfigurationNumber()": "544dddff",
    "getCurrentMembership()": "6ad21bb0",
    "getIncompleteCheckpointHeights()": "a517218f",
    "getIncompleteCheckpoints()": "97042766",
    "getLastConfigurationNumber()": "b1ba49b0",
    "getLastMembership()": "f3229131",
    "getLatestParentFinality()": "0338150f",
    "getNetworkName()": "94074b03",
    "getParentFinality(uint256)": "7edeac92",
    "getQuorumThreshold(uint256)": "06572c1a",
    "getSignatureBundle(uint64)": "ad8c4f74",
    "getSubnet((uint64,address[]))": "c66c66a1",
    "getSubnetTopDownMsgsLength((uint64,address[]))": "9d3070b5",
    "getTopDownMsgs((uint64,address[]),uint256)": "a823cb23",
    "listSubnets()": "5d029685",
    "majorityPercentage()": "599c7bd1",
    "minStake()": "375b3c0a",
    "postbox(bytes32)": "8cfd78e7",
    "subnets(bytes32)": "02e30f9a",
    "totalSubnets()": "a2b67158"
  },
  "id": 45
}