{
    "abi": [
        {
            "inputs": [],
            "name": "DifferentRootNetwork",
            "type": "error"
        },
        {
            "inputs": [],
            "name": "EmptySubnet",
            "type": "error"
        },
        {
            "inputs": [],
            "name": "InvalidRoute",
            "type": "error"
        },
        {
            "inputs": [],
            "name": "NoAddressForRoot",
            "type": "error"
        },
        {
            "inputs": [],
            "name": "NoParentForSubnet",
            "type": "error"
        },
        {
            "inputs": [
                {
                    "internalType": "uint256",
                    "name": "value",
                    "type": "uint256"
                },
                {
                    "internalType": "uint256",
                    "name": "length",
                    "type": "uint256"
                }
            ],
            "name": "StringsInsufficientHexLength",
            "type": "error"
        },
        {
            "inputs": [
                {
                    "components": [
                        {
                            "internalType": "uint64",
                            "name": "root",
                            "type": "uint64"
                        },
                        {
                            "internalType": "address[]",
                            "name": "route",
                            "type": "address[]"
                        }
                    ],
                    "internalType": "struct SubnetID",
                    "name": "subnet1",
                    "type": "tuple"
                },
                {
                    "components": [
                        {
                            "internalType": "uint64",
                            "name": "root",
                            "type": "uint64"
                        },
                        {
                            "internalType": "address[]",
                            "name": "route",
                            "type": "address[]"
                        }
                    ],
                    "internalType": "struct SubnetID",
                    "name": "subnet2",
                    "type": "tuple"
                }
            ],
            "name": "commonParent",
            "outputs": [
                {
                    "components": [
                        {
                            "internalType": "uint64",
                            "name": "root",
                            "type": "uint64"
                        },
                        {
                            "internalType": "address[]",
                            "name": "route",
                            "type": "address[]"
                        }
                    ],
                    "internalType": "struct SubnetID",
                    "name": "",
                    "type": "tuple"
                }
            ],
            "stateMutability": "pure",
            "type": "function"
        },
        {
            "inputs": [
                {
                    "components": [
                        {
                            "internalType": "uint64",
                            "name": "root",
                            "type": "uint64"
                        },
                        {
                            "internalType": "address[]",
                            "name": "route",
                            "type": "address[]"
                        }
                    ],
                    "internalType": "struct SubnetID",
                    "name": "subnet",
                    "type": "tuple"
                },
                {
                    "internalType": "address",
                    "name": "actor",
                    "type": "address"
                }
            ],
            "name": "createSubnetId",
            "outputs": [
                {
                    "components": [
                        {
                            "internalType": "uint64",
                            "name": "root",
                            "type": "uint64"
                        },
                        {
                            "internalType": "address[]",
                            "name": "route",
                            "type": "address[]"
                        }
                    ],
                    "internalType": "struct SubnetID",
                    "name": "newSubnet",
                    "type": "tuple"
                }
            ],
            "stateMutability": "pure",
            "type": "function"
        },
        {
            "inputs": [
                {
                    "components": [
                        {
                            "internalType": "uint64",
                            "name": "root",
                            "type": "uint64"
                        },
                        {
                            "internalType": "address[]",
                            "name": "route",
                            "type": "address[]"
                        }
                    ],
                    "internalType": "struct SubnetID",
                    "name": "subnet1",
                    "type": "tuple"
                },
                {
                    "components": [
                        {
                            "internalType": "uint64",
                            "name": "root",
                            "type": "uint64"
                        },
                        {
                            "internalType": "address[]",
                            "name": "route",
                            "type": "address[]"
                        }
                    ],
                    "internalType": "struct SubnetID",
                    "name": "subnet2",
                    "type": "tuple"
                }
            ],
            "name": "down",
            "outputs": [
                {
                    "components": [
                        {
                            "internalType": "uint64",
                            "name": "root",
                            "type": "uint64"
                        },
                        {
                            "internalType": "address[]",
                            "name": "route",
                            "type": "address[]"
                        }
                    ],
                    "internalType": "struct SubnetID",
                    "name": "",
                    "type": "tuple"
                }
            ],
            "stateMutability": "pure",
            "type": "function"
        },
        {
            "inputs": [
                {
                    "components": [
                        {
                            "internalType": "uint64",
                            "name": "root",
                            "type": "uint64"
                        },
                        {
                            "internalType": "address[]",
                            "name": "route",
                            "type": "address[]"
                        }
                    ],
                    "internalType": "struct SubnetID",
                    "name": "subnet1",
                    "type": "tuple"
                },
                {
                    "components": [
                        {
                            "internalType": "uint64",
                            "name": "root",
                            "type": "uint64"
                        },
                        {
                            "internalType": "address[]",
                            "name": "route",
                            "type": "address[]"
                        }
                    ],
                    "internalType": "struct SubnetID",
                    "name": "subnet2",
                    "type": "tuple"
                }
            ],
            "name": "equals",
            "outputs": [
                {
                    "internalType": "bool",
                    "name": "",
                    "type": "bool"
                }
            ],
            "stateMutability": "pure",
            "type": "function"
        },
        {
            "inputs": [
                {
                    "components": [
                        {
                            "internalType": "uint64",
                            "name": "root",
                            "type": "uint64"
                        },
                        {
                            "internalType": "address[]",
                            "name": "route",
                            "type": "address[]"
                        }
                    ],
                    "internalType": "struct SubnetID",
                    "name": "subnet",
                    "type": "tuple"
                }
            ],
            "name": "getActor",
            "outputs": [
                {
                    "internalType": "address",
                    "name": "",
                    "type": "address"
                }
            ],
            "stateMutability": "pure",
            "type": "function"
        },
        {
            "inputs": [
                {
                    "components": [
                        {
                            "internalType": "uint64",
                            "name": "root",
                            "type": "uint64"
                        },
                        {
                            "internalType": "address[]",
                            "name": "route",
                            "type": "address[]"
                        }
                    ],
                    "internalType": "struct SubnetID",
                    "name": "subnet",
                    "type": "tuple"
                }
            ],
            "name": "getAddress",
            "outputs": [
                {
                    "internalType": "address",
                    "name": "",
                    "type": "address"
                }
            ],
            "stateMutability": "pure",
            "type": "function"
        },
        {
            "inputs": [
                {
                    "components": [
                        {
                            "internalType": "uint64",
                            "name": "root",
                            "type": "uint64"
                        },
                        {
                            "internalType": "address[]",
                            "name": "route",
                            "type": "address[]"
                        }
                    ],
                    "internalType": "struct SubnetID",
                    "name": "subnet",
                    "type": "tuple"
                }
            ],
            "name": "getParentSubnet",
            "outputs": [
                {
                    "components": [
                        {
                            "internalType": "uint64",
                            "name": "root",
                            "type": "uint64"
                        },
                        {
                            "internalType": "address[]",
                            "name": "route",
                            "type": "address[]"
                        }
                    ],
                    "internalType": "struct SubnetID",
                    "name": "",
                    "type": "tuple"
                }
            ],
            "stateMutability": "pure",
            "type": "function"
        },
        {
            "inputs": [
                {
                    "components": [
                        {
                            "internalType": "uint64",
                            "name": "root",
                            "type": "uint64"
                        },
                        {
                            "internalType": "address[]",
                            "name": "route",
                            "type": "address[]"
                        }
                    ],
                    "internalType": "struct SubnetID",
                    "name": "subnetId",
                    "type": "tuple"
                }
            ],
            "name": "isEmpty",
            "outputs": [
                {
                    "internalType": "bool",
                    "name": "",
                    "type": "bool"
                }
            ],
            "stateMutability": "pure",
            "type": "function"
        },
        {
            "inputs": [
                {
                    "components": [
                        {
                            "internalType": "uint64",
                            "name": "root",
                            "type": "uint64"
                        },
                        {
                            "internalType": "address[]",
                            "name": "route",
                            "type": "address[]"
                        }
                    ],
                    "internalType": "struct SubnetID",
                    "name": "subnet",
                    "type": "tuple"
                }
            ],
            "name": "isRoot",
            "outputs": [
                {
                    "internalType": "bool",
                    "name": "",
                    "type": "bool"
                }
            ],
            "stateMutability": "pure",
            "type": "function"
        },
        {
            "inputs": [
                {
                    "components": [
                        {
                            "internalType": "uint64",
                            "name": "root",
                            "type": "uint64"
                        },
                        {
                            "internalType": "address[]",
                            "name": "route",
                            "type": "address[]"
                        }
                    ],
                    "internalType": "struct SubnetID",
                    "name": "subnet",
                    "type": "tuple"
                }
            ],
            "name": "toHash",
            "outputs": [
                {
                    "internalType": "bytes32",
                    "name": "",
                    "type": "bytes32"
                }
            ],
            "stateMutability": "pure",
            "type": "function"
        },
        {
            "inputs": [
                {
                    "components": [
                        {
                            "internalType": "uint64",
                            "name": "root",
                            "type": "uint64"
                        },
                        {
                            "internalType": "address[]",
                            "name": "route",
                            "type": "address[]"
                        }
                    ],
                    "internalType": "struct SubnetID",
                    "name": "subnet",
                    "type": "tuple"
                }
            ],
            "name": "toString",
            "outputs": [
                {
                    "internalType": "string",
                    "name": "",
                    "type": "string"
                }
            ],
            "stateMutability": "pure",
            "type": "function"
        }
    ],
    "bytecode": {
        "object": "0x6114c561003a600b82828239805160001a60731461002d57634e487b7160e01b600052600060045260246000fd5b30600052607381538281f3fe73000000000000000000000000000000000000000030146080604052600436106100b35760003560e01c80636099e8981161007b5780636099e89814610145578063862a88f81461016857806390ba52cf1461017b578063aa5106cb1461019c578063c836244d146101af578063e4ebe92c146101c257600080fd5b8063089032d5146100b8578063118e84ee146100e1578063138e13fc146100f4578063399912661461011f57806359feac4214610132575b600080fd5b6100cb6100c6366004610f0b565b6101e2565b6040516100d89190610f6e565b60405180910390f35b6100cb6100ef366004611079565b610419565b610107610102366004611079565b61052b565b6040516001600160a01b0390911681526020016100d8565b6100cb61012d366004610f0b565b610584565b610107610140366004611164565b610807565b610158610153366004611164565b610872565b60405190151581526020016100d8565b610158610176366004611164565b6108a8565b61018e610189366004611164565b6108df565b6040519081526020016100d8565b6100cb6101aa366004611198565b61090f565b6101586101bd366004610f0b565b610a73565b6101d56101d0366004611164565b610af3565b6040516100d89190611209565b604080518082019091526000815260606020820152610204602083018361123c565b6001600160401b031661021a602085018561123c565b6001600160401b03161461024157604051637185935560e01b815260040160405180910390fd5b61024e602083018361125e565b905061025d602085018561125e565b90501161027d5760405163427282e960e11b815260040160405180910390fd5b60008061028d602085018561125e565b9150505b808210801561031357506102a8602085018561125e565b838181106102b8576102b86112ae565b90506020020160208101906102cd91906112c4565b6001600160a01b03166102e3602087018761125e565b848181106102f3576102f36112ae565b905060200201602081019061030891906112c4565b6001600160a01b0316145b1561032357816001019150610291565b61032c826112f5565b91506000826001600160401b0381111561034857610348610fd8565b604051908082528060200260200182016040528015610371578160200160208202803683370190505b50905060005b838110156103e35761038c602088018861125e565b8281811061039c5761039c6112ae565b90506020020160208101906103b191906112c4565b8282815181106103c3576103c36112ae565b6001600160a01b0390921660209283029190910190910152600101610377565b5060408051808201909152806103fc602089018961123c565b6001600160401b0316815260200191909152925050505b92915050565b60408051808201909152600081526060602082015281602001515160000361045457604051632f10c6c160e01b815260040160405180910390fd5b60006001836020015151610468919061130e565b6001600160401b0381111561047f5761047f610fd8565b6040519080825280602002602001820160405280156104a8578160200160208202803683370190505b50805190915060005b8181101561050957846020015181815181106104cf576104cf6112ae565b60200260200101518382815181106104e9576104e96112ae565b6001600160a01b03909216602092830291909101909101526001016104b1565b50506040805180820190915292516001600160401b0316835260208301525090565b6020810151516000908082036105545760405163142b83b360e31b815260040160405180910390fd5b602083015161056460018361130e565b81518110610574576105746112ae565b6020026020010151915050919050565b6040805180820190915260008152606060208201526105a6602083018361123c565b6001600160401b03166105bc602085018561123c565b6001600160401b0316146105f2575060408051808201825260008082528251908152602080820190935291810191909152610413565b600080610602602086018661125e565b915060009050610615602086018661125e565b9150505b818310801561062757508083105b80156106a6575061063b602086018661125e565b8481811061064b5761064b6112ae565b905060200201602081019061066091906112c4565b6001600160a01b0316610676602088018861125e565b85818110610686576106866112ae565b905060200201602081019061069b91906112c4565b6001600160a01b0316145b156106b657826001019250610619565b8260000361071d5760408051808201909152806106d6602089018961123c565b6001600160401b03168152602001600060405190808252806020026020018201604052801561070f578160200160208202803683370190505b508152509350505050610413565b6000836001600160401b0381111561073757610737610fd8565b604051908082528060200260200182016040528015610760578160200160208202803683370190505b50905060005b848110156107d25761077b602089018961125e565b8281811061078b5761078b6112ae565b90506020020160208101906107a091906112c4565b8282815181106107b2576107b26112ae565b6001600160a01b0390921660209283029190910190910152600101610766565b5060408051808201909152806107eb60208a018a61123c565b6001600160401b03168152602001919091529695505050505050565b6000610816602083018361125e565b905060000361082757506000919050565b610834602083018361125e565b6001610843602086018661125e565b61084e92915061130e565b81811061085d5761085d6112ae565b905060200201602081019061041391906112c4565b6000610881602083018361125e565b15905080156104135750610898602083018361123c565b6001600160401b03161592915050565b60006108b7602083018361125e565b159050801561041357506108ce602083018361123c565b6001600160401b0316151592915050565b6000816040516020016108f29190611321565b604051602081830303815290604052805190602001209050919050565b604080518082019091526000815260606020820152610931602084018461123c565b6001600160401b03168152610949602084018461125e565b610955915060016113d0565b6001600160401b0381111561096c5761096c610fd8565b604051908082528060200260200182016040528015610995578160200160208202803683370190505b506020808301919091526000906109ae9085018561125e565b9050905060005b81811015610a25576109ca602086018661125e565b828181106109da576109da6112ae565b90506020020160208101906109ef91906112c4565b83602001518281518110610a0557610a056112ae565b6001600160a01b03909216602092830291909101909101526001016109b5565b5060208201518051849190610a3c9060019061130e565b81518110610a4c57610a4c6112ae565b60200260200101906001600160a01b031690816001600160a01b0316815250505092915050565b6000610a82602083018361123c565b6001600160401b0316610a98602085018561123c565b6001600160401b031614610aae57506000610413565b610abb602083018361125e565b9050610aca602085018561125e565b905014610ad957506000610413565b610ae2826108df565b610aeb846108df565b149392505050565b60606000610b15610b07602085018561123c565b6001600160401b0316610bf0565b604051602001610b2591906113e3565b60408051601f1981840301815291905290506000610b46602085018561125e565b9050905060005b81811015610be75782604051602001610b66919061140d565b60408051601f19818403018152919052925082610bbc610b89602088018861125e565b84818110610b9957610b996112ae565b9050602002016020810190610bae91906112c4565b6001600160a01b0316610c82565b604051602001610bcd929190611432565b60408051601f198184030181529190529250600101610b4d565b50909392505050565b60606000610bfd83610c98565b60010190506000816001600160401b03811115610c1c57610c1c610fd8565b6040519080825280601f01601f191660200182016040528015610c46576020820181803683370190505b5090508181016020015b600019016f181899199a1a9b1b9c1cb0b131b232b360811b600a86061a8153600a8504945084610c5057509392505050565b60606104136001600160a01b0383166014610d70565b60008072184f03e93ff9f4daa797ed6e38ed64bf6a1f0160401b8310610cd75772184f03e93ff9f4daa797ed6e38ed64bf6a1f0160401b830492506040015b6d04ee2d6d415b85acef81000000008310610d03576d04ee2d6d415b85acef8100000000830492506020015b662386f26fc100008310610d2157662386f26fc10000830492506010015b6305f5e1008310610d39576305f5e100830492506008015b6127108310610d4d57612710830492506004015b60648310610d5f576064830492506002015b600a83106104135760010192915050565b6060826000610d80846002611461565b610d8b9060026113d0565b6001600160401b03811115610da257610da2610fd8565b6040519080825280601f01601f191660200182016040528015610dcc576020820181803683370190505b509050600360fc1b81600081518110610de757610de76112ae565b60200101906001600160f81b031916908160001a905350600f60fb1b81600181518110610e1657610e166112ae565b60200101906001600160f81b031916908160001a9053506000610e3a856002611461565b610e459060016113d0565b90505b6001811115610ebd576f181899199a1a9b1b9c1cb0b131b232b360811b83600f1660108110610e7957610e796112ae565b1a60f81b828281518110610e8f57610e8f6112ae565b60200101906001600160f81b031916908160001a90535060049290921c91610eb681611478565b9050610e48565b508115610eeb5760405163e22e27eb60e01b8152600481018690526024810185905260440160405180910390fd5b949350505050565b600060408284031215610f0557600080fd5b50919050565b60008060408385031215610f1e57600080fd5b82356001600160401b0380821115610f3557600080fd5b610f4186838701610ef3565b93506020850135915080821115610f5757600080fd5b50610f6485828601610ef3565b9150509250929050565b602080825282516001600160401b0316828201528281015160408084015280516060840181905260009291820190839060808601905b80831015610fcd5783516001600160a01b03168252928401926001929092019190840190610fa4565b509695505050505050565b634e487b7160e01b600052604160045260246000fd5b604080519081016001600160401b038111828210171561101057611010610fd8565b60405290565b604051601f8201601f191681016001600160401b038111828210171561103e5761103e610fd8565b604052919050565b80356001600160401b038116811461105d57600080fd5b919050565b80356001600160a01b038116811461105d57600080fd5b6000602080838503121561108c57600080fd5b82356001600160401b03808211156110a357600080fd5b90840190604082870312156110b757600080fd5b6110bf610fee565b6110c883611046565b815283830135828111156110db57600080fd5b80840193505086601f8401126110f057600080fd5b82358281111561110257611102610fd8565b8060051b9250611113858401611016565b818152928401850192858101908985111561112d57600080fd5b948601945b848610156111525761114386611062565b82529486019490860190611132565b95830195909552509695505050505050565b60006020828403121561117657600080fd5b81356001600160401b0381111561118c57600080fd5b610eeb84828501610ef3565b600080604083850312156111ab57600080fd5b82356001600160401b038111156111c157600080fd5b6111cd85828601610ef3565b9250506111dc60208401611062565b90509250929050565b60005b838110156112005781810151838201526020016111e8565b50506000910152565b60208152600082518060208401526112288160408501602087016111e5565b601f01601f19169190910160400192915050565b60006020828403121561124e57600080fd5b61125782611046565b9392505050565b6000808335601e1984360301811261127557600080fd5b8301803591506001600160401b0382111561128f57600080fd5b6020019150600581901b36038213156112a757600080fd5b9250929050565b634e487b7160e01b600052603260045260246000fd5b6000602082840312156112d657600080fd5b61125782611062565b634e487b7160e01b600052601160045260246000fd5b600060018201611307576113076112df565b5060010190565b81810381811115610413576104136112df565b60006020808352606083016001600160401b038061133e87611046565b168386015282860135601e1987360301811261135957600080fd5b860183810190358281111561136d57600080fd5b8060051b360382131561137f57600080fd5b60408781015292839052916080860191506000905b808210156113c4576001600160a01b036113ad85611062565b168352928401929184019160019190910190611394565b50909695505050505050565b80820180821115610413576104136112df565b6117b960f11b8152600082516114008160028501602087016111e5565b9190910160020192915050565b6000825161141f8184602087016111e5565b602f60f81b920191825250600101919050565b600083516114448184602088016111e5565b8351908301906114588183602088016111e5565b01949350505050565b8082028115828204841417610413576104136112df565b600081611487576114876112df565b50600019019056fea26469706673582212202dac0cbf2b49df2afa77986daf6833f87b4841480d22b60ca942228afb68374664736f6c63430008130033",
        "linkReferences": {}
    },
    "methodIdentifiers": {
        "commonParent(SubnetID,SubnetID)": "39991266",
        "createSubnetId(SubnetID,address)": "aa5106cb",
        "down(SubnetID,SubnetID)": "089032d5",
        "equals(SubnetID,SubnetID)": "c836244d",
        "getActor(SubnetID)": "59feac42",
        "getAddress(SubnetID)": "138e13fc",
        "getParentSubnet(SubnetID)": "118e84ee",
        "isEmpty(SubnetID)": "6099e898",
        "isRoot(SubnetID)": "862a88f8",
        "toHash(SubnetID)": "90ba52cf",
        "toString(SubnetID)": "e4ebe92c"
    },
    "id": 67
}