{
  "abi": [
    {
      "inputs": [],
      "name": "EmptySubnet",
      "type": "error"
    },
    {
      "inputs": [],
      "name": "NoParentForSubnet",
      "type": "error"
    },
    {
      "inputs": [
        {
          "internalType": "uint256",
          "name": "value",
          "type": "uint256"
        },
        {
          "internalType": "uint256",
          "name": "length",
          "type": "uint256"
        }
      ],
      "name": "StringsInsufficientHexLength",
      "type": "error"
    },
    {
      "inputs": [
        {
          "components": [
            {
              "internalType": "uint64",
              "name": "root",
              "type": "uint64"
            },
            {
              "internalType": "address[]",
              "name": "route",
              "type": "address[]"
            }
          ],
          "internalType": "struct SubnetID",
          "name": "subnet1",
          "type": "tuple"
        },
        {
          "components": [
            {
              "internalType": "uint64",
              "name": "root",
              "type": "uint64"
            },
            {
              "internalType": "address[]",
              "name": "route",
              "type": "address[]"
            }
          ],
          "internalType": "struct SubnetID",
          "name": "subnet2",
          "type": "tuple"
        }
      ],
      "name": "commonParent",
      "outputs": [
        {
          "components": [
            {
              "internalType": "uint64",
              "name": "root",
              "type": "uint64"
            },
            {
              "internalType": "address[]",
              "name": "route",
              "type": "address[]"
            }
          ],
          "internalType": "struct SubnetID",
          "name": "",
          "type": "tuple"
        }
      ],
      "stateMutability": "pure",
      "type": "function"
    },
    {
      "inputs": [
        {
          "components": [
            {
              "internalType": "uint64",
              "name": "root",
              "type": "uint64"
            },
            {
              "internalType": "address[]",
              "name": "route",
              "type": "address[]"
            }
          ],
          "internalType": "struct SubnetID",
          "name": "subnet",
          "type": "tuple"
        },
        {
          "internalType": "address",
          "name": "actor",
          "type": "address"
        }
      ],
      "name": "createSubnetId",
      "outputs": [
        {
          "components": [
            {
              "internalType": "uint64",
              "name": "root",
              "type": "uint64"
            },
            {
              "internalType": "address[]",
              "name": "route",
              "type": "address[]"
            }
          ],
          "internalType": "struct SubnetID",
          "name": "newSubnet",
          "type": "tuple"
        }
      ],
      "stateMutability": "pure",
      "type": "function"
    },
    {
      "inputs": [
        {
          "components": [
            {
              "internalType": "uint64",
              "name": "root",
              "type": "uint64"
            },
            {
              "internalType": "address[]",
              "name": "route",
              "type": "address[]"
            }
          ],
          "internalType": "struct SubnetID",
          "name": "subnet1",
          "type": "tuple"
        },
        {
          "components": [
            {
              "internalType": "uint64",
              "name": "root",
              "type": "uint64"
            },
            {
              "internalType": "address[]",
              "name": "route",
              "type": "address[]"
            }
          ],
          "internalType": "struct SubnetID",
          "name": "subnet2",
          "type": "tuple"
        }
      ],
      "name": "down",
      "outputs": [
        {
          "components": [
            {
              "internalType": "uint64",
              "name": "root",
              "type": "uint64"
            },
            {
              "internalType": "address[]",
              "name": "route",
              "type": "address[]"
            }
          ],
          "internalType": "struct SubnetID",
          "name": "",
          "type": "tuple"
        }
      ],
      "stateMutability": "pure",
      "type": "function"
    },
    {
      "inputs": [
        {
          "components": [
            {
              "internalType": "uint64",
              "name": "root",
              "type": "uint64"
            },
            {
              "internalType": "address[]",
              "name": "route",
              "type": "address[]"
            }
          ],
          "internalType": "struct SubnetID",
          "name": "subnet1",
          "type": "tuple"
        },
        {
          "components": [
            {
              "internalType": "uint64",
              "name": "root",
              "type": "uint64"
            },
            {
              "internalType": "address[]",
              "name": "route",
              "type": "address[]"
            }
          ],
          "internalType": "struct SubnetID",
          "name": "subnet2",
          "type": "tuple"
        }
      ],
      "name": "equals",
      "outputs": [
        {
          "internalType": "bool",
          "name": "",
          "type": "bool"
        }
      ],
      "stateMutability": "pure",
      "type": "function"
    },
    {
      "inputs": [
        {
          "components": [
            {
              "internalType": "uint64",
              "name": "root",
              "type": "uint64"
            },
            {
              "internalType": "address[]",
              "name": "route",
              "type": "address[]"
            }
          ],
          "internalType": "struct SubnetID",
          "name": "subnet",
          "type": "tuple"
        }
      ],
      "name": "getActor",
      "outputs": [
        {
          "internalType": "address",
          "name": "",
          "type": "address"
        }
      ],
      "stateMutability": "pure",
      "type": "function"
    },
    {
      "inputs": [
        {
          "components": [
            {
              "internalType": "uint64",
              "name": "root",
              "type": "uint64"
            },
            {
              "internalType": "address[]",
              "name": "route",
              "type": "address[]"
            }
          ],
          "internalType": "struct SubnetID",
          "name": "subnet",
          "type": "tuple"
        }
      ],
      "name": "getParentSubnet",
      "outputs": [
        {
          "components": [
            {
              "internalType": "uint64",
              "name": "root",
              "type": "uint64"
            },
            {
              "internalType": "address[]",
              "name": "route",
              "type": "address[]"
            }
          ],
          "internalType": "struct SubnetID",
          "name": "",
          "type": "tuple"
        }
      ],
      "stateMutability": "pure",
      "type": "function"
    },
    {
      "inputs": [
        {
          "components": [
            {
              "internalType": "uint64",
              "name": "root",
              "type": "uint64"
            },
            {
              "internalType": "address[]",
              "name": "route",
              "type": "address[]"
            }
          ],
          "internalType": "struct SubnetID",
          "name": "subnetId",
          "type": "tuple"
        }
      ],
      "name": "isEmpty",
      "outputs": [
        {
          "internalType": "bool",
          "name": "",
          "type": "bool"
        }
      ],
      "stateMutability": "pure",
      "type": "function"
    },
    {
      "inputs": [
        {
          "components": [
            {
              "internalType": "uint64",
              "name": "root",
              "type": "uint64"
            },
            {
              "internalType": "address[]",
              "name": "route",
              "type": "address[]"
            }
          ],
          "internalType": "struct SubnetID",
          "name": "subnet",
          "type": "tuple"
        }
      ],
      "name": "isRoot",
      "outputs": [
        {
          "internalType": "bool",
          "name": "",
          "type": "bool"
        }
      ],
      "stateMutability": "pure",
      "type": "function"
    },
    {
      "inputs": [
        {
          "components": [
            {
              "internalType": "uint64",
              "name": "root",
              "type": "uint64"
            },
            {
              "internalType": "address[]",
              "name": "route",
              "type": "address[]"
            }
          ],
          "internalType": "struct SubnetID",
          "name": "subnet",
          "type": "tuple"
        }
      ],
      "name": "toHash",
      "outputs": [
        {
          "internalType": "bytes32",
          "name": "",
          "type": "bytes32"
        }
      ],
      "stateMutability": "pure",
      "type": "function"
    },
    {
      "inputs": [
        {
          "components": [
            {
              "internalType": "uint64",
              "name": "root",
              "type": "uint64"
            },
            {
              "internalType": "address[]",
              "name": "route",
              "type": "address[]"
            }
          ],
          "internalType": "struct SubnetID",
          "name": "subnet",
          "type": "tuple"
        }
      ],
      "name": "toString",
      "outputs": [
        {
          "internalType": "string",
          "name": "",
          "type": "string"
        }
      ],
      "stateMutability": "pure",
      "type": "function"
    }
  ],
  "bytecode": {
    "object": "0x61146e61003a600b82828239805160001a60731461002d57634e487b7160e01b600052600060045260246000fd5b30600052607381538281f3fe73000000000000000000000000000000000000000030146080604052600436106100a85760003560e01c8063862a88f811610070578063862a88f81461014a57806390ba52cf1461015d578063aa5106cb1461017e578063c836244d14610191578063e4ebe92c146101a457600080fd5b8063089032d5146100ad578063118e84ee146100d657806339991266146100e957806359feac42146100fc5780636099e89814610127575b600080fd5b6100c06100bb366004610eb4565b6101c4565b6040516100cd9190610f17565b60405180910390f35b6100c06100e4366004611022565b61042a565b6100c06100f7366004610eb4565b61053c565b61010f61010a36600461110d565b6107b0565b6040516001600160a01b0390911681526020016100cd565b61013a61013536600461110d565b61081b565b60405190151581526020016100cd565b61013a61015836600461110d565b610851565b61017061016b36600461110d565b610888565b6040519081526020016100cd565b6100c061018c366004611141565b6108b8565b61013a61019f366004610eb4565b610a1c565b6101b76101b236600461110d565b610a9c565b6040516100cd91906111b2565b6040805180820190915260008152606060208201526101e660208301836111e5565b6001600160401b03166101fc60208501856111e5565b6001600160401b0316146102525760408051808201909152600080825260208201905b604051908082528060200260200182016040528015610248578160200160208202803683370190505b5090529050610424565b61025f6020830183611207565b905061026e6020850185611207565b90501161028e57604080518082019091526000808252602082019061021f565b60008061029e6020850185611207565b9150505b808210801561032457506102b96020850185611207565b838181106102c9576102c9611257565b90506020020160208101906102de919061126d565b6001600160a01b03166102f46020870187611207565b8481811061030457610304611257565b9050602002016020810190610319919061126d565b6001600160a01b0316145b15610334578160010191506102a2565b61033d8261129e565b91506000826001600160401b0381111561035957610359610f81565b604051908082528060200260200182016040528015610382578160200160208202803683370190505b50905060005b838110156103f45761039d6020880188611207565b828181106103ad576103ad611257565b90506020020160208101906103c2919061126d565b8282815181106103d4576103d4611257565b6001600160a01b0390921660209283029190910190910152600101610388565b50604080518082019091528061040d60208901896111e5565b6001600160401b0316815260200191909152925050505b92915050565b60408051808201909152600081526060602082015281602001515160000361046557604051632f10c6c160e01b815260040160405180910390fd5b6000600183602001515161047991906112b7565b6001600160401b0381111561049057610490610f81565b6040519080825280602002602001820160405280156104b9578160200160208202803683370190505b50805190915060005b8181101561051a57846020015181815181106104e0576104e0611257565b60200260200101518382815181106104fa576104fa611257565b6001600160a01b03909216602092830291909101909101526001016104c2565b50506040805180820190915292516001600160401b0316835260208301525090565b60408051808201909152600081526060602082015261055e60208301836111e5565b6001600160401b031661057460208501856111e5565b6001600160401b03161461059b57604080518082019091526000808252602082019061021f565b6000806105ab6020860186611207565b9150600090506105be6020860186611207565b9150505b81831080156105d057508083105b801561064f57506105e46020860186611207565b848181106105f4576105f4611257565b9050602002016020810190610609919061126d565b6001600160a01b031661061f6020880188611207565b8581811061062f5761062f611257565b9050602002016020810190610644919061126d565b6001600160a01b0316145b1561065f578260010192506105c2565b826000036106c657604080518082019091528061067f60208901896111e5565b6001600160401b0316815260200160006040519080825280602002602001820160405280156106b8578160200160208202803683370190505b508152509350505050610424565b6000836001600160401b038111156106e0576106e0610f81565b604051908082528060200260200182016040528015610709578160200160208202803683370190505b50905060005b8481101561077b576107246020890189611207565b8281811061073457610734611257565b9050602002016020810190610749919061126d565b82828151811061075b5761075b611257565b6001600160a01b039092166020928302919091019091015260010161070f565b50604080518082019091528061079460208a018a6111e5565b6001600160401b03168152602001919091529695505050505050565b60006107bf6020830183611207565b90506000036107d057506000919050565b6107dd6020830183611207565b60016107ec6020860186611207565b6107f79291506112b7565b81811061080657610806611257565b9050602002016020810190610424919061126d565b600061082a6020830183611207565b1590508015610424575061084160208301836111e5565b6001600160401b03161592915050565b60006108606020830183611207565b1590508015610424575061087760208301836111e5565b6001600160401b0316151592915050565b60008160405160200161089b91906112ca565b604051602081830303815290604052805190602001209050919050565b6040805180820190915260008152606060208201526108da60208401846111e5565b6001600160401b031681526108f26020840184611207565b6108fe91506001611379565b6001600160401b0381111561091557610915610f81565b60405190808252806020026020018201604052801561093e578160200160208202803683370190505b5060208083019190915260009061095790850185611207565b9050905060005b818110156109ce576109736020860186611207565b8281811061098357610983611257565b9050602002016020810190610998919061126d565b836020015182815181106109ae576109ae611257565b6001600160a01b039092166020928302919091019091015260010161095e565b50602082015180518491906109e5906001906112b7565b815181106109f5576109f5611257565b60200260200101906001600160a01b031690816001600160a01b0316815250505092915050565b6000610a2b60208301836111e5565b6001600160401b0316610a4160208501856111e5565b6001600160401b031614610a5757506000610424565b610a646020830183611207565b9050610a736020850185611207565b905014610a8257506000610424565b610a8b82610888565b610a9484610888565b149392505050565b60606000610abe610ab060208501856111e5565b6001600160401b0316610b99565b604051602001610ace919061138c565b60408051601f1981840301815291905290506000610aef6020850185611207565b9050905060005b81811015610b905782604051602001610b0f91906113b6565b60408051601f19818403018152919052925082610b65610b326020880188611207565b84818110610b4257610b42611257565b9050602002016020810190610b57919061126d565b6001600160a01b0316610c2b565b604051602001610b769291906113db565b60408051601f198184030181529190529250600101610af6565b50909392505050565b60606000610ba683610c41565b60010190506000816001600160401b03811115610bc557610bc5610f81565b6040519080825280601f01601f191660200182016040528015610bef576020820181803683370190505b5090508181016020015b600019016f181899199a1a9b1b9c1cb0b131b232b360811b600a86061a8153600a8504945084610bf957509392505050565b60606104246001600160a01b0383166014610d19565b60008072184f03e93ff9f4daa797ed6e38ed64bf6a1f0160401b8310610c805772184f03e93ff9f4daa797ed6e38ed64bf6a1f0160401b830492506040015b6d04ee2d6d415b85acef81000000008310610cac576d04ee2d6d415b85acef8100000000830492506020015b662386f26fc100008310610cca57662386f26fc10000830492506010015b6305f5e1008310610ce2576305f5e100830492506008015b6127108310610cf657612710830492506004015b60648310610d08576064830492506002015b600a83106104245760010192915050565b6060826000610d2984600261140a565b610d34906002611379565b6001600160401b03811115610d4b57610d4b610f81565b6040519080825280601f01601f191660200182016040528015610d75576020820181803683370190505b509050600360fc1b81600081518110610d9057610d90611257565b60200101906001600160f81b031916908160001a905350600f60fb1b81600181518110610dbf57610dbf611257565b60200101906001600160f81b031916908160001a9053506000610de385600261140a565b610dee906001611379565b90505b6001811115610e66576f181899199a1a9b1b9c1cb0b131b232b360811b83600f1660108110610e2257610e22611257565b1a60f81b828281518110610e3857610e38611257565b60200101906001600160f81b031916908160001a90535060049290921c91610e5f81611421565b9050610df1565b508115610e945760405163e22e27eb60e01b8152600481018690526024810185905260440160405180910390fd5b949350505050565b600060408284031215610eae57600080fd5b50919050565b60008060408385031215610ec757600080fd5b82356001600160401b0380821115610ede57600080fd5b610eea86838701610e9c565b93506020850135915080821115610f0057600080fd5b50610f0d85828601610e9c565b9150509250929050565b602080825282516001600160401b0316828201528281015160408084015280516060840181905260009291820190839060808601905b80831015610f765783516001600160a01b03168252928401926001929092019190840190610f4d565b509695505050505050565b634e487b7160e01b600052604160045260246000fd5b604080519081016001600160401b0381118282101715610fb957610fb9610f81565b60405290565b604051601f8201601f191681016001600160401b0381118282101715610fe757610fe7610f81565b604052919050565b80356001600160401b038116811461100657600080fd5b919050565b80356001600160a01b038116811461100657600080fd5b6000602080838503121561103557600080fd5b82356001600160401b038082111561104c57600080fd5b908401906040828703121561106057600080fd5b611068610f97565b61107183610fef565b8152838301358281111561108457600080fd5b80840193505086601f84011261109957600080fd5b8235828111156110ab576110ab610f81565b8060051b92506110bc858401610fbf565b81815292840185019285810190898511156110d657600080fd5b948601945b848610156110fb576110ec8661100b565b825294860194908601906110db565b95830195909552509695505050505050565b60006020828403121561111f57600080fd5b81356001600160401b0381111561113557600080fd5b610e9484828501610e9c565b6000806040838503121561115457600080fd5b82356001600160401b0381111561116a57600080fd5b61117685828601610e9c565b9250506111856020840161100b565b90509250929050565b60005b838110156111a9578181015183820152602001611191565b50506000910152565b60208152600082518060208401526111d181604085016020870161118e565b601f01601f19169190910160400192915050565b6000602082840312156111f757600080fd5b61120082610fef565b9392505050565b6000808335601e1984360301811261121e57600080fd5b8301803591506001600160401b0382111561123857600080fd5b6020019150600581901b360382131561125057600080fd5b9250929050565b634e487b7160e01b600052603260045260246000fd5b60006020828403121561127f57600080fd5b6112008261100b565b634e487b7160e01b600052601160045260246000fd5b6000600182016112b0576112b0611288565b5060010190565b8181038181111561042457610424611288565b60006020808352606083016001600160401b03806112e787610fef565b168386015282860135601e1987360301811261130257600080fd5b860183810190358281111561131657600080fd5b8060051b360382131561132857600080fd5b60408781015292839052916080860191506000905b8082101561136d576001600160a01b036113568561100b565b16835292840192918401916001919091019061133d565b50909695505050505050565b8082018082111561042457610424611288565b6117b960f11b8152600082516113a981600285016020870161118e565b9190910160020192915050565b600082516113c881846020870161118e565b602f60f81b920191825250600101919050565b600083516113ed81846020880161118e565b83519083019061140181836020880161118e565b01949350505050565b808202811582820484141761042457610424611288565b60008161143057611430611288565b50600019019056fea264697066735822122003c08cf13413f2f86ad0b555b40684b56ad9f25fe4625c6fcaa785a0bf1a9ce864736f6c63430008130033",
    "linkReferences": {}
  },
  "methodIdentifiers": {
    "commonParent(SubnetID,SubnetID)": "39991266",
    "createSubnetId(SubnetID,address)": "aa5106cb",
    "down(SubnetID,SubnetID)": "089032d5",
    "equals(SubnetID,SubnetID)": "c836244d",
    "getActor(SubnetID)": "59feac42",
    "getParentSubnet(SubnetID)": "118e84ee",
    "isEmpty(SubnetID)": "6099e898",
    "isRoot(SubnetID)": "862a88f8",
    "toHash(SubnetID)": "90ba52cf",
    "toString(SubnetID)": "e4ebe92c"
  },
  "id": 68
}