{
  "abi": [
    {
      "inputs": [],
      "name": "EmptySubnet",
      "type": "error"
    },
    {
      "inputs": [],
      "name": "NoParentForSubnet",
      "type": "error"
    },
    {
      "inputs": [
        {
          "internalType": "uint256",
          "name": "value",
          "type": "uint256"
        },
        {
          "internalType": "uint256",
          "name": "length",
          "type": "uint256"
        }
      ],
      "name": "StringsInsufficientHexLength",
      "type": "error"
    },
    {
      "inputs": [
        {
          "components": [
            {
              "internalType": "uint64",
              "name": "root",
              "type": "uint64"
            },
            {
              "internalType": "address[]",
              "name": "route",
              "type": "address[]"
            }
          ],
          "internalType": "struct SubnetID",
          "name": "subnet1",
          "type": "tuple"
        },
        {
          "components": [
            {
              "internalType": "uint64",
              "name": "root",
              "type": "uint64"
            },
            {
              "internalType": "address[]",
              "name": "route",
              "type": "address[]"
            }
          ],
          "internalType": "struct SubnetID",
          "name": "subnet2",
          "type": "tuple"
        }
      ],
      "name": "commonParent",
      "outputs": [
        {
          "components": [
            {
              "internalType": "uint64",
              "name": "root",
              "type": "uint64"
            },
            {
              "internalType": "address[]",
              "name": "route",
              "type": "address[]"
            }
          ],
          "internalType": "struct SubnetID",
          "name": "",
          "type": "tuple"
        }
      ],
      "stateMutability": "pure",
      "type": "function"
    },
    {
      "inputs": [
        {
          "components": [
            {
              "internalType": "uint64",
              "name": "root",
              "type": "uint64"
            },
            {
              "internalType": "address[]",
              "name": "route",
              "type": "address[]"
            }
          ],
          "internalType": "struct SubnetID",
          "name": "subnet",
          "type": "tuple"
        },
        {
          "internalType": "address",
          "name": "actor",
          "type": "address"
        }
      ],
      "name": "createSubnetId",
      "outputs": [
        {
          "components": [
            {
              "internalType": "uint64",
              "name": "root",
              "type": "uint64"
            },
            {
              "internalType": "address[]",
              "name": "route",
              "type": "address[]"
            }
          ],
          "internalType": "struct SubnetID",
          "name": "newSubnet",
          "type": "tuple"
        }
      ],
      "stateMutability": "pure",
      "type": "function"
    },
    {
      "inputs": [
        {
          "components": [
            {
              "internalType": "uint64",
              "name": "root",
              "type": "uint64"
            },
            {
              "internalType": "address[]",
              "name": "route",
              "type": "address[]"
            }
          ],
          "internalType": "struct SubnetID",
          "name": "subnet1",
          "type": "tuple"
        },
        {
          "components": [
            {
              "internalType": "uint64",
              "name": "root",
              "type": "uint64"
            },
            {
              "internalType": "address[]",
              "name": "route",
              "type": "address[]"
            }
          ],
          "internalType": "struct SubnetID",
          "name": "subnet2",
          "type": "tuple"
        }
      ],
      "name": "down",
      "outputs": [
        {
          "components": [
            {
              "internalType": "uint64",
              "name": "root",
              "type": "uint64"
            },
            {
              "internalType": "address[]",
              "name": "route",
              "type": "address[]"
            }
          ],
          "internalType": "struct SubnetID",
          "name": "",
          "type": "tuple"
        }
      ],
      "stateMutability": "pure",
      "type": "function"
    },
    {
      "inputs": [
        {
          "components": [
            {
              "internalType": "uint64",
              "name": "root",
              "type": "uint64"
            },
            {
              "internalType": "address[]",
              "name": "route",
              "type": "address[]"
            }
          ],
          "internalType": "struct SubnetID",
          "name": "subnet1",
          "type": "tuple"
        },
        {
          "components": [
            {
              "internalType": "uint64",
              "name": "root",
              "type": "uint64"
            },
            {
              "internalType": "address[]",
              "name": "route",
              "type": "address[]"
            }
          ],
          "internalType": "struct SubnetID",
          "name": "subnet2",
          "type": "tuple"
        }
      ],
      "name": "equals",
      "outputs": [
        {
          "internalType": "bool",
          "name": "",
          "type": "bool"
        }
      ],
      "stateMutability": "pure",
      "type": "function"
    },
    {
      "inputs": [
        {
          "components": [
            {
              "internalType": "uint64",
              "name": "root",
              "type": "uint64"
            },
            {
              "internalType": "address[]",
              "name": "route",
              "type": "address[]"
            }
          ],
          "internalType": "struct SubnetID",
          "name": "subnet",
          "type": "tuple"
        }
      ],
      "name": "getActor",
      "outputs": [
        {
          "internalType": "address",
          "name": "",
          "type": "address"
        }
      ],
      "stateMutability": "pure",
      "type": "function"
    },
    {
      "inputs": [
        {
          "components": [
            {
              "internalType": "uint64",
              "name": "root",
              "type": "uint64"
            },
            {
              "internalType": "address[]",
              "name": "route",
              "type": "address[]"
            }
          ],
          "internalType": "struct SubnetID",
          "name": "subnet",
          "type": "tuple"
        }
      ],
      "name": "getParentSubnet",
      "outputs": [
        {
          "components": [
            {
              "internalType": "uint64",
              "name": "root",
              "type": "uint64"
            },
            {
              "internalType": "address[]",
              "name": "route",
              "type": "address[]"
            }
          ],
          "internalType": "struct SubnetID",
          "name": "",
          "type": "tuple"
        }
      ],
      "stateMutability": "pure",
      "type": "function"
    },
    {
      "inputs": [
        {
          "components": [
            {
              "internalType": "uint64",
              "name": "root",
              "type": "uint64"
            },
            {
              "internalType": "address[]",
              "name": "route",
              "type": "address[]"
            }
          ],
          "internalType": "struct SubnetID",
          "name": "subnetId",
          "type": "tuple"
        }
      ],
      "name": "isEmpty",
      "outputs": [
        {
          "internalType": "bool",
          "name": "",
          "type": "bool"
        }
      ],
      "stateMutability": "pure",
      "type": "function"
    },
    {
      "inputs": [
        {
          "components": [
            {
              "internalType": "uint64",
              "name": "root",
              "type": "uint64"
            },
            {
              "internalType": "address[]",
              "name": "route",
              "type": "address[]"
            }
          ],
          "internalType": "struct SubnetID",
          "name": "subnet",
          "type": "tuple"
        }
      ],
      "name": "isRoot",
      "outputs": [
        {
          "internalType": "bool",
          "name": "",
          "type": "bool"
        }
      ],
      "stateMutability": "pure",
      "type": "function"
    },
    {
      "inputs": [
        {
          "components": [
            {
              "internalType": "uint64",
              "name": "root",
              "type": "uint64"
            },
            {
              "internalType": "address[]",
              "name": "route",
              "type": "address[]"
            }
          ],
          "internalType": "struct SubnetID",
          "name": "subnet",
          "type": "tuple"
        }
      ],
      "name": "toHash",
      "outputs": [
        {
          "internalType": "bytes32",
          "name": "",
          "type": "bytes32"
        }
      ],
      "stateMutability": "pure",
      "type": "function"
    },
    {
      "inputs": [
        {
          "components": [
            {
              "internalType": "uint64",
              "name": "root",
              "type": "uint64"
            },
            {
              "internalType": "address[]",
              "name": "route",
              "type": "address[]"
            }
          ],
          "internalType": "struct SubnetID",
          "name": "subnet",
          "type": "tuple"
        }
      ],
      "name": "toString",
      "outputs": [
        {
          "internalType": "string",
          "name": "",
          "type": "string"
        }
      ],
      "stateMutability": "pure",
      "type": "function"
    }
  ],
  "bytecode": {
    "object": "0x6080806040523461001a57610e8b9081610020823930815050f35b600080fdfe6080604052600436101561001257600080fd5b60003560e01c8063089032d5146107a0578063118e84ee14610644578063399912661461062357806359feac42146105fe5780636099e898146105b8578063862a88f81461057057806390ba52cf14610555578063aa5106cb1461044b578063c836244d1461042d5763e4ebe92c1461008a57600080fd5b610093366108f7565b6001600160401b036100a4826109ab565b166000817a184f03e93ff9f4daa797ed6e38ed64bf6a1f0100000000000000008082101561041f575b506d04ee2d6d415b85acef810000000080821015610412575b50662386f26fc1000080821015610405575b506305f5e100808210156103f8575b50612710808210156103eb575b5060648110156103dd575b600a809110156103d3575b600182019061015161013b83610a18565b926101496040519485610897565b808452610a18565b938160216020850195601f198098013688378501015b60001901916f181899199a1a9b1b9c1cb0b131b232b360811b8282061a835304908115610195578290610167565b50505060226101cf916101bf936040519485926117b960f11b602085015251809285850190610928565b8101036002810184520182610897565b916101dd60208201826109bf565b90506000915b81831061021b57601f604086868251938492602084526102128151809281602088015260208888019101610928565b01168101030190f35b90919361025560216040518361023b829551809260208086019101610928565b8101602f60f81b6020820152036001810184520182610897565b8461027d61027861026960208601866109bf565b6001600160a01b0394916109f4565b610a04565b169081604051928360608101106001600160401b036060860111176103bd5760608401604052602a845260403660208601378351156103a757603060208501538351600110156103a7576078602185015360295b600181116103485750610329575090610320602060019360405193816103008693518092868087019101610928565b820161031482518093868085019101610928565b01038084520182610897565b940191906101e3565b6044906040519063e22e27eb60e01b8252600482015260146024820152fd5b906010600f821610156103a75784518210156103a7576f181899199a1a9b1b9c1cb0b131b232b360811b600f82161a8583016020015360041c90801561039157600019016102d1565b634e487b7160e01b600052601160045260246000fd5b634e487b7160e01b600052603260045260246000fd5b634e487b7160e01b600052604160045260246000fd5b906001019061012a565b60646002910491019061011f565b6004910491019038610114565b6008910491019038610107565b60109104910190386100f8565b60209104910190386100e6565b9150508104604090386100cd565b602061044161043b366107b5565b90610b3e565b6040519015158152f35b60031960403682011261055057600435906001600160401b039081831161055057604083600401918436030112610550576001600160a01b0360243581811694908590036105505760249061049e61094b565b946104a8856109ab565b16855201916104b783826109bf565b929050600192838101809111610391576104d090610965565b93602086019485526104e281846109bf565b93905060005b84811061052157888888519182519260001984019384116103915761051d9361051091610997565b5260405191829182610802565b0390f35b8061053a610278889361053487876109bf565b906109f4565b85610546838b51610997565b91169052016104e8565b600080fd5b6020610568610563366108f7565b610a33565b604051908152f35b602061057b366108f7565b610587828201826109bf565b905015908161059c575b506040519015158152f35b6001600160401b0391506105af906109ab565b16151582610591565b60206105c3366108f7565b6105cf828201826109bf565b90501590816105e357506040519015158152f35b6001600160401b0391506105f6906109ab565b161582610591565b602061061161060c366108f7565b610aef565b6040516001600160a01b039091168152f35b61051d610638610632366107b5565b90610b9b565b60405191829182610802565b60031960203682018113610550576004356001600160401b0392838211610550576040908236030112610550576040519061067e82610861565b61068a816004016108b8565b825260248101359084821161055057019236602385011215610550576004840135936106b5856108cc565b946106c36040519687610897565b80865260248587019160051b83010191368311610550576024869101915b838310610788575091505082019384526106f961094b565b50835151156107765783515160001981019081116103915761071a90610965565b91825160005b81811061074f57505061051d94505116916040519261073e84610861565b835282015260405191829182610802565b600190818060a01b03610763828a51610997565b511661076f8288610997565b5201610720565b604051632f10c6c160e01b8152600490fd5b8190610793846108e3565b81520191019085906106e1565b61051d6106386107af366107b5565b90610d21565b6003199190604083820112610550576001600160401b0390600435828111610550576040858284030112610550576004019360243592831161055057826040920301126105505760040190565b906020908183528160808160608601936001600160401b038151168288015201519460408082015285518094520193019160005b828110610844575050505090565b83516001600160a01b031685529381019392810192600101610836565b604081019081106001600160401b038211176103bd57604052565b602081019081106001600160401b038211176103bd57604052565b90601f801991011681019081106001600160401b038211176103bd57604052565b35906001600160401b038216820361055057565b6001600160401b0381116103bd5760051b60200190565b35906001600160a01b038216820361055057565b6003199060208183011261055057600435916001600160401b03831161055057826040920301126105505760040190565b60005b83811061093b5750506000910152565b818101518382015260200161092b565b6040519061095882610861565b6060602083600081520152565b9061096f826108cc565b61097c6040519182610897565b828152809261098d601f19916108cc565b0190602036910137565b80518210156103a75760209160051b010190565b356001600160401b03811681036105505790565b903590601e198136030182121561055057018035906001600160401b03821161055057602001918160051b3603831361055057565b91908110156103a75760051b0190565b356001600160a01b03811681036105505790565b6001600160401b0381116103bd57601f01601f191660200190565b6040516020808201818152926001600160401b0391608084019183610a57826108b8565b16604086015281810135601e19823603018112156105505701918183359301938311610550578260051b360384136105505760406060860152829052839160a083019160005b828110610ac057505050610aba925003601f198101835282610897565b51902090565b91935091600190839081906001600160a01b03610adc896108e3565b1681520195019101918593919492610a9d565b6020810190610afe82826109bf565b905015610b3757610b1a610b1283836109bf565b9390926109bf565b60001981019150811161039157610b3492610278926109f4565b90565b5050600090565b610b47816109ab565b6001600160401b0380610b59856109ab565b16911603610b3757610b6e60208201826109bf565b9050610b7d60208401846109bf565b91905003610b3757610b91610b9791610a33565b91610a33565b1490565b90610ba461094b565b50610bae826109ab565b906001600160401b03918280610bc3846109ab565b16911603610cf5579160208101906000610bdd83836109bf565b95905060208101610bee81836109bf565b9390505b87811080610cec575b80610cad575b15610c0e57600101610bf2565b93949596505050508015610c8357610c2581610965565b9260005b828110610c5557505050610c3c906109ab565b9160405192610c4a84610861565b168252602082015290565b80610c6961027860019361053486896109bf565b610c738288610997565b90838060a01b0316905201610c29565b50610c8e91506109ab565b9060405190610c9c8261087c565b6000825260405192610c4a84610861565b50610cbf6102788261053489896109bf565b610cc983856109bf565b6001600160a01b03918291610ce3916102789187916109f4565b16911614610c01565b50838110610bfb565b505050604051610d048161087c565b6000815260405190610d1582610861565b60008252602082015290565b610d2961094b565b50610d33816109ab565b906001600160401b03918280610d48866109ab565b16911603610cf5576020810190610d5f82826109bf565b602086019150610d6f82876109bf565b9190501115610e4457600094610d8582826109bf565b9690505b86811080610e05575b15610d9f57600101610d89565b929394955050506000198114610391576001809101610dbd81610965565b9360005b828110610dd55750505050610c3c906109ab565b80610de86102788693610534868a6109bf565b610df28289610997565b6001600160a01b03909116905201610dc1565b50610e176102788261053488886109bf565b610e2184846109bf565b6001600160a01b03918291610e3b916102789187916109f4565b16911614610d92565b5050505050604051610d048161087c56fea264697066735822122010c747f4b8b9085ce616be4cd66163581a43ae22065825a0e21da225dee323e664736f6c63430008130033",
    "linkReferences": {}
  },
  "methodIdentifiers": {
    "commonParent(SubnetID,SubnetID)": "39991266",
    "createSubnetId(SubnetID,address)": "aa5106cb",
    "down(SubnetID,SubnetID)": "089032d5",
    "equals(SubnetID,SubnetID)": "c836244d",
    "getActor(SubnetID)": "59feac42",
    "getParentSubnet(SubnetID)": "118e84ee",
    "isEmpty(SubnetID)": "6099e898",
    "isRoot(SubnetID)": "862a88f8",
    "toHash(SubnetID)": "90ba52cf",
    "toString(SubnetID)": "e4ebe92c"
  },
  "id": 68
}