{
  "abi": [
    {
      "inputs": [],
      "name": "CallFailed",
      "type": "error"
    },
    {
      "inputs": [],
      "name": "CannotSendCrossMsgToItself",
      "type": "error"
    },
    {
      "inputs": [],
      "name": "InsufficientFunds",
      "type": "error"
    },
    {
      "inputs": [],
      "name": "InvalidCrossMsgDstSubnet",
      "type": "error"
    },
    {
      "inputs": [],
      "name": "InvalidCrossMsgFromSubnet",
      "type": "error"
    },
    {
      "inputs": [],
      "name": "InvalidCrossMsgValue",
      "type": "error"
    },
    {
      "inputs": [],
      "name": "NotEnoughFee",
      "type": "error"
    },
    {
      "inputs": [],
      "name": "NotEnoughFunds",
      "type": "error"
    },
    {
      "inputs": [],
      "name": "NotRegisteredSubnet",
      "type": "error"
    },
    {
      "inputs": [
        {
          "internalType": "bytes32",
          "name": "msgCid",
          "type": "bytes32"
        }
      ],
      "name": "propagate",
      "outputs": [],
      "stateMutability": "payable",
      "type": "function"
    },
    {
      "inputs": [
        {
          "components": [
            {
              "components": [
                {
                  "components": [
                    {
                      "components": [
                        {
                          "internalType": "uint64",
                          "name": "root",
                          "type": "uint64"
                        },
                        {
                          "internalType": "address[]",
                          "name": "route",
                          "type": "address[]"
                        }
                      ],
                      "internalType": "struct SubnetID",
                      "name": "subnetId",
                      "type": "tuple"
                    },
                    {
                      "components": [
                        {
                          "internalType": "uint8",
                          "name": "addrType",
                          "type": "uint8"
                        },
                        {
                          "internalType": "bytes",
                          "name": "payload",
                          "type": "bytes"
                        }
                      ],
                      "internalType": "struct FvmAddress",
                      "name": "rawAddress",
                      "type": "tuple"
                    }
                  ],
                  "internalType": "struct IPCAddress",
                  "name": "from",
                  "type": "tuple"
                },
                {
                  "components": [
                    {
                      "components": [
                        {
                          "internalType": "uint64",
                          "name": "root",
                          "type": "uint64"
                        },
                        {
                          "internalType": "address[]",
                          "name": "route",
                          "type": "address[]"
                        }
                      ],
                      "internalType": "struct SubnetID",
                      "name": "subnetId",
                      "type": "tuple"
                    },
                    {
                      "components": [
                        {
                          "internalType": "uint8",
                          "name": "addrType",
                          "type": "uint8"
                        },
                        {
                          "internalType": "bytes",
                          "name": "payload",
                          "type": "bytes"
                        }
                      ],
                      "internalType": "struct FvmAddress",
                      "name": "rawAddress",
                      "type": "tuple"
                    }
                  ],
                  "internalType": "struct IPCAddress",
                  "name": "to",
                  "type": "tuple"
                },
                {
                  "internalType": "uint256",
                  "name": "value",
                  "type": "uint256"
                },
                {
                  "internalType": "uint64",
                  "name": "nonce",
                  "type": "uint64"
                },
                {
                  "internalType": "bytes4",
                  "name": "method",
                  "type": "bytes4"
                },
                {
                  "internalType": "bytes",
                  "name": "params",
                  "type": "bytes"
                },
                {
                  "internalType": "uint256",
                  "name": "fee",
                  "type": "uint256"
                }
              ],
              "internalType": "struct StorableMsg",
              "name": "message",
              "type": "tuple"
            },
            {
              "internalType": "bool",
              "name": "wrapped",
              "type": "bool"
            }
          ],
          "internalType": "struct CrossMsg",
          "name": "crossMsg",
          "type": "tuple"
        }
      ],
      "name": "sendCrossMessage",
      "outputs": [],
      "stateMutability": "payable",
      "type": "function"
    }
  ],
  "bytecode": {
    "object": "0x608060405234801561001057600080fd5b50611dc5806100206000396000f3fe6080604052600436106100295760003560e01c806325bf0db61461002e578063c13175ef14610043575b600080fd5b61004161003c3660046112fe565b610056565b005b610041610051366004611317565b610513565b6000818152600460205260409020600b8101546100729061065d565b604080516101a08101825282546001600160401b0316610160820190815260018401805484516020828102820181018752828252600096610400969589958795928601948794869461012089019487948694919386936101808d0193929183018282801561010957602002820191906000526020600020905b81546001600160a01b031681526001909101906020018083116100eb575b5050509190925250505081526040805180820190915260028301805460ff1682526003840180546020948501948401919061014390611358565b80601f016020809104026020016040519081016040528092919081815260200182805461016f90611358565b80156101bc5780601f10610191576101008083540402835291602001916101bc565b820191906000526020600020905b81548152906001019060200180831161019f57829003601f168201915b505050919092525050509052508152604080516080810182526004840180546001600160401b031682840190815260058601805485516020828102820181019097528181529686019694959394869486936060870193909183018282801561024d57602002820191906000526020600020905b81546001600160a01b0316815260019091019060200180831161022f575b5050509190925250505081526040805180820190915260028301805460ff1682526003840180546020948501948401919061028790611358565b80601f01602080910402602001604051908101604052809291908181526020018280546102b390611358565b80156103005780601f106102d557610100808354040283529160200191610300565b820191906000526020600020905b8154815290600101906020018083116102e357829003601f168201915b5050509190925250505090525081526008820154602082015260098201546001600160401b0381166040830152600160401b900460e01b6001600160e01b0319166060820152600a8201805460809092019161035b90611358565b80601f016020809104026020016040519081016040528092919081815260200182805461038790611358565b80156103d45780601f106103a9576101008083540402835291602001916103d4565b820191906000526020600020905b8154815290600101906020018083116103b757829003601f168201915b5050509183525050600b9190910154602091820152908252600c929092015460ff1615159101526106a4565b60088301546000858152600460205260408120805467ffffffffffffffff1916815592935090919081818181818161043b600183018261122c565b505060028201805460ff191681556000610458600385018261124a565b5050505060048201805467ffffffffffffffff1916815560008181610480600587018261122c565b505060028201805460ff19168155600061049d600385018261124a565b50506000600885018190556009850180546001600160601b03191690556104ca9250600a8501915061124a565b506000600b919091015550600c01805460ff191690556104ea8183610a14565b6016546000906104fa90346113a8565b9050801561050c5761050c3382610a29565b5050505050565b61051d81806113bb565b60c0013561052a8161065d565b61053482806113bb565b6105429060c00135346113a8565b61054c83806113bb565b604001351461056e576040516360ec4e6b60e11b815260040160405180910390fd5b61057882806113bb565b61058290806113db565b61058c90806113db565b6105959061159b565b60405163c836244d60e01b815273__$a0fe38a9a81205afccc10810b09a4d3f45$__9163c836244d916105ce919060139060040161167d565b602060405180830381865af41580156105eb573d6000803e3d6000fd5b505050506040513d601f19601f8201168201806040525081019061060f91906116b9565b61062c5760405163508847ab60e11b815260040160405180910390fd5b600061063f61063a8461181f565b6106a4565b905061065861064e84806113bb565b6040013582610a14565b505050565b601654811015610680576040516334472ad760e11b815260040160405180910390fd5b803410156106a157604051631036b5ad60e31b815260040160405180910390fd5b50565b80516020015151604051630c133d1360e31b81526000919073__$a0fe38a9a81205afccc10810b09a4d3f45$__90636099e898906106e6908490600401611926565b602060405180830381865af4158015610703573d6000803e3d6000fd5b505050506040513d601f19601f8201168201806040525081019061072791906116b9565b156107455760405163c5f563eb60e01b815260040160405180910390fd5b60405163c836244d60e01b815273__$a0fe38a9a81205afccc10810b09a4d3f45$__9063c836244d9061077f90849060139060040161167d565b602060405180830381865af415801561079c573d6000803e3d6000fd5b505050506040513d601f19601f820116820180604052508101906107c091906116b9565b156107de57604051632f3335ff60e21b815260040160405180910390fd5b825180515160405163f47ad7eb60e01b8152909160009173__$386b5c41ce93e8b832daf8008b3d30ae09$__9163f47ad7eb9161082191906013906004016119c5565b602060405180830381865af415801561083e573d6000803e3d6000fd5b505050506040513d601f19601f820116820180604052508101906108629190611a6e565b90506000600182600181111561087a5761087a611a8f565b0361097b57604051631ccc893360e11b815273__$a0fe38a9a81205afccc10810b09a4d3f45$__906339991266906108b89087908790600401611aa5565b600060405180830381865af41580156108d5573d6000803e3d6000fd5b505050506040513d6000823e601f3d908101601f191682016040526108fd9190810190611aca565b60405163c836244d60e01b815273__$a0fe38a9a81205afccc10810b09a4d3f45$__9163c836244d91610936919060139060040161167d565b602060405180830381865af4158015610953573d6000803e3d6000fd5b505050506040513d601f19601f8201168201806040525081019061097791906116b9565b1590505b801561099b5761098a86610abe565b505092516040015115159392505050565b60008260018111156109af576109af611a8f565b036109ff57601780546009906109da90690100000000000000000090046001600160401b0316611baa565b91906101000a8154816001600160401b0302191690836001600160401b031602179055505b610a0886610cfa565b50600095945050505050565b8015610a2557610a25606383610a29565b5050565b80471015610a4a5760405163356680b760e01b815260040160405180910390fd5b6000826001600160a01b03168260405160006040518083038185875af1925050503d8060008114610a97576040519150601f19603f3d011682016040523d82523d6000602084013e610a9c565b606091505b505090508061065857604051633204506f60e01b815260040160405180910390fd5b6018546000908190610ada9043906001600160401b031661106e565b601783015484516001600160401b0361010090920482166060909101528082166000908152600c8501602090815260408220805460018181018355918452928290208851805180518051600d90970290930180549690971667ffffffffffffffff199096169590951786558184015180519798508a979195879590948694938593610b6a93928501920190611284565b505050602082810151805160028401805460ff191660ff909216919091178155918101519091906003840190610ba09082611c1e565b505050506020838101518051805160048601805467ffffffffffffffff19166001600160401b03909216919091178155818401518051939550909391928492610bf0926005890192910190611284565b505050602082810151805160028401805460ff191660ff909216919091178155918101519091906003840190610c269082611c1e565b5050505060408301516008830155506060820151600982018054608085015160e01c600160401b026001600160601b03199091166001600160401b039093169290921791909117905560a0820151600a820190610c839082611c1e565b5060c09190910151600b9091015560209190910151600c909101805460ff1916911515919091179055601782018054600191908290610cd190829061010090046001600160401b0316611cdd565b92506101000a8154816001600160401b0302191690836001600160401b03160217905550505050565b8051602001515160405163089032d560e01b8152600091829173__$a0fe38a9a81205afccc10810b09a4d3f45$__9163089032d591610d3f919060139060040161167d565b600060405180830381865af4158015610d5c573d6000803e3d6000fd5b505050506040513d6000823e601f3d908101601f19168201604052610d849190810190611aca565b9050600080610d9283611099565b9150915081610db457604051630e991abd60e41b815260040160405180910390fd5b60038101805486516001600160401b03909116606090910181905260019190600090610de1908490611cdd565b92506101000a8154816001600160401b0302191690836001600160401b03160217905550846000015160400151816002016000828254610e219190611d04565b90915550506040516390ba52cf60e01b8152600185019060009073__$a0fe38a9a81205afccc10810b09a4d3f45$__906390ba52cf90610e65908890600401611926565b602060405180830381865af4158015610e82573d6000803e3d6000fd5b505050506040513d601f19601f82011682018060405250810190610ea69190611d17565b8152602080820192909252604090810160009081204382528352908120805460018082018355918352918390208851805180518051600d909602909301805467ffffffffffffffff19166001600160401b039096169590951785558286015180518c979395879593948694938593610f25938501929190910190611284565b505050602082810151805160028401805460ff191660ff909216919091178155918101519091906003840190610f5b9082611c1e565b505050506020838101518051805160048601805467ffffffffffffffff19166001600160401b03909216919091178155818401518051939550909391928492610fab926005890192910190611284565b505050602082810151805160028401805460ff191660ff909216919091178155918101519091906003840190610fe19082611c1e565b5050505060408301516008830155506060820151600982018054608085015160e01c600160401b026001600160601b03199091166001600160401b039093169290921791909117905560a0820151600a82019061103e9082611c1e565b5060c09190910151600b9091015560209190910151600c909101805460ff19169115159190911790555050505050565b60008161107b8185611d30565b611086906001611cdd565b6110909190611d64565b90505b92915050565b6040516390ba52cf60e01b8152600090819081908190819073__$a0fe38a9a81205afccc10810b09a4d3f45$__906390ba52cf906110db908990600401611926565b602060405180830381865af41580156110f8573d6000803e3d6000fd5b505050506040513d601f19601f8201168201806040525081019061111c9190611d17565b81526020808201929092526040908101600020815180830183526004820180546001600160401b0316825260058301805485518188028101880190965280865293975091949093858201939092918301828280156111a357602002820191906000526020600020905b81546001600160a01b03168152600190910190602001808311611185575b505050919092525050604051630c133d1360e31b815273__$a0fe38a9a81205afccc10810b09a4d3f45$__92636099e89892506111e291600401611926565b602060405180830381865af41580156111ff573d6000803e3d6000fd5b505050506040513d601f19601f8201168201806040525081019061122391906116b9565b15925050915091565b50805460008255906000526020600020908101906106a191906112e9565b50805461125690611358565b6000825580601f10611266575050565b601f0160209004906000526020600020908101906106a191906112e9565b8280548282559060005260206000209081019282156112d9579160200282015b828111156112d957825182546001600160a01b0319166001600160a01b039091161782556020909201916001909101906112a4565b506112e59291506112e9565b5090565b5b808211156112e557600081556001016112ea565b60006020828403121561131057600080fd5b5035919050565b60006020828403121561132957600080fd5b81356001600160401b0381111561133f57600080fd5b82016040818503121561135157600080fd5b9392505050565b600181811c9082168061136c57607f821691505b60208210810361138c57634e487b7160e01b600052602260045260246000fd5b50919050565b634e487b7160e01b600052601160045260246000fd5b8181038181111561109357611093611392565b6000823560de198336030181126113d157600080fd5b9190910192915050565b60008235603e198336030181126113d157600080fd5b634e487b7160e01b600052604160045260246000fd5b604080519081016001600160401b0381118282101715611429576114296113f1565b60405290565b60405160e081016001600160401b0381118282101715611429576114296113f1565b604051601f8201601f191681016001600160401b0381118282101715611479576114796113f1565b604052919050565b6001600160401b03811681146106a157600080fd5b80356114a181611481565b919050565b60006001600160401b038211156114bf576114bf6113f1565b5060051b60200190565b6001600160a01b03811681146106a157600080fd5b6000604082840312156114f057600080fd5b6114f8611407565b9050813561150581611481565b81526020828101356001600160401b0381111561152157600080fd5b8301601f8101851361153257600080fd5b8035611545611540826114a6565b611451565b81815260059190911b8201830190838101908783111561156457600080fd5b928401925b8284101561158b57833561157c816114c9565b82529284019290840190611569565b8085870152505050505092915050565b600061109336836114de565b6000604083016001600160401b0383511684526020808401516040828701528281518085526060880191508383019450600092505b808310156116055784516001600160a01b031682529383019360019290920191908301906115dc565b509695505050505050565b6000604083016001600160401b0383541684526001808401602060408188015283825480865260608901915083600052826000209550600093505b808410156116715785546001600160a01b0316825294840194928401929082019061164b565b50979650505050505050565b60408152600061169060408301856115a7565b82810360208401526116a28185611610565b95945050505050565b80151581146106a157600080fd5b6000602082840312156116cb57600080fd5b8151611351816116ab565b600082601f8301126116e757600080fd5b81356001600160401b03811115611700576117006113f1565b611713601f8201601f1916602001611451565b81815284602083860101111561172857600080fd5b816020850160208301376000918101602001919091529392505050565b60006040828403121561175757600080fd5b61175f611407565b905081356001600160401b038082111561177857600080fd5b611784858386016114de565b8352602084013591508082111561179a57600080fd5b90830190604082860312156117ae57600080fd5b6117b6611407565b823560ff811681146117c757600080fd5b81526020830135828111156117db57600080fd5b6117e7878286016116d6565b60208301525080602085015250505092915050565b80356001600160e01b0319811681146114a157600080fd5b80356114a1816116ab565b60006040823603121561183157600080fd5b611839611407565b82356001600160401b038082111561185057600080fd5b818501915060e0823603121561186557600080fd5b61186d61142f565b82358281111561187c57600080fd5b61188836828601611745565b82525060208301358281111561189d57600080fd5b6118a936828601611745565b602083015250604083013560408201526118c560608401611496565b60608201526118d6608084016117fc565b608082015260a0830135828111156118ed57600080fd5b6118f9368286016116d6565b60a08301525060c083013560c082015280845250505061191b60208401611814565b602082015292915050565b60208152600061109060208301846115a7565b6000815180845260005b8181101561195f57602081850181015186830182015201611943565b506000602082860101526020601f19601f83011685010191505092915050565b600081516040845261199460408501826115a7565b90506020830151848203602086015260ff815116825260208101519050604060208301526116a26040830182611939565b604081526000835160e060408401526119e261012084018261197f565b90506020850151603f1980858403016060860152611a00838361197f565b9250604087015160808601526001600160401b0360608801511660a086015263ffffffff60e01b60808801511660c086015260a08701519150808584030160e086015250611a4e8282611939565b91505060c085015161010084015282810360208401526116a28185611610565b600060208284031215611a8057600080fd5b81516002811061135157600080fd5b634e487b7160e01b600052602160045260246000fd5b604081526000611ab860408301856115a7565b82810360208401526116a281856115a7565b60006020808385031215611add57600080fd5b82516001600160401b0380821115611af457600080fd5b9084019060408287031215611b0857600080fd5b611b10611407565b8251611b1b81611481565b81528284015182811115611b2e57600080fd5b80840193505086601f840112611b4357600080fd5b82519150611b53611540836114a6565b82815260059290921b83018401918481019088841115611b7257600080fd5b938501935b83851015611b99578451611b8a816114c9565b82529385019390850190611b77565b948201949094529695505050505050565b60006001600160401b03808316818103611bc657611bc6611392565b6001019392505050565b601f82111561065857600081815260208120601f850160051c81016020861015611bf75750805b601f850160051c820191505b81811015611c1657828155600101611c03565b505050505050565b81516001600160401b03811115611c3757611c376113f1565b611c4b81611c458454611358565b84611bd0565b602080601f831160018114611c805760008415611c685750858301515b600019600386901b1c1916600185901b178555611c16565b600085815260208120601f198616915b82811015611caf57888601518255948401946001909101908401611c90565b5085821015611ccd5787850151600019600388901b60f8161c191681555b5050505050600190811b01905550565b6001600160401b03818116838216019080821115611cfd57611cfd611392565b5092915050565b8082018082111561109357611093611392565b600060208284031215611d2957600080fd5b5051919050565b60006001600160401b0380841680611d5857634e487b7160e01b600052601260045260246000fd5b92169190910492915050565b6001600160401b03818116838216028082169190828114611d8757611d87611392565b50509291505056fea264697066735822122051ef5d7795be83bab31945269150f0c2f996682f8488807430fa49247320588a64736f6c63430008130033",
    "linkReferences": {
      "src/lib/StorableMsgHelper.sol": {
        "StorableMsgHelper": [
          {
            "start": 2071,
            "length": 20
          }
        ]
      },
      "src/lib/SubnetIDHelper.sol": {
        "SubnetIDHelper": [
          {
            "start": 1476,
            "length": 20
          },
          {
            "start": 1758,
            "length": 20
          },
          {
            "start": 1908,
            "length": 20
          },
          {
            "start": 2222,
            "length": 20
          },
          {
            "start": 2348,
            "length": 20
          },
          {
            "start": 3381,
            "length": 20
          },
          {
            "start": 3677,
            "length": 20
          },
          {
            "start": 4307,
            "length": 20
          },
          {
            "start": 4571,
            "length": 20
          }
        ]
      }
    }
  },
  "methodIdentifiers": {
    "propagate(bytes32)": "25bf0db6",
    "sendCrossMessage(((((uint64,address[]),(uint8,bytes)),((uint64,address[]),(uint8,bytes)),uint256,uint64,bytes4,bytes,uint256),bool))": "c13175ef"
  },
  "id": 41
}