{"abi":[{"type":"function","name":"propagate","inputs":[{"name":"msgCid","type":"bytes32","internalType":"bytes32"}],"outputs":[],"stateMutability":"payable"},{"type":"function","name":"sendUserXnetMessage","inputs":[{"name":"crossMsg","type":"tuple","internalType":"struct CrossMsg","components":[{"name":"message","type":"tuple","internalType":"struct StorableMsg","components":[{"name":"from","type":"tuple","internalType":"struct IPCAddress","components":[{"name":"subnetId","type":"tuple","internalType":"struct SubnetID","components":[{"name":"root","type":"uint64","internalType":"uint64"},{"name":"route","type":"address[]","internalType":"address[]"}]},{"name":"rawAddress","type":"tuple","internalType":"struct FvmAddress","components":[{"name":"addrType","type":"uint8","internalType":"uint8"},{"name":"payload","type":"bytes","internalType":"bytes"}]}]},{"name":"to","type":"tuple","internalType":"struct IPCAddress","components":[{"name":"subnetId","type":"tuple","internalType":"struct SubnetID","components":[{"name":"root","type":"uint64","internalType":"uint64"},{"name":"route","type":"address[]","internalType":"address[]"}]},{"name":"rawAddress","type":"tuple","internalType":"struct FvmAddress","components":[{"name":"addrType","type":"uint8","internalType":"uint8"},{"name":"payload","type":"bytes","internalType":"bytes"}]}]},{"name":"value","type":"uint256","internalType":"uint256"},{"name":"nonce","type":"uint64","internalType":"uint64"},{"name":"method","type":"bytes4","internalType":"bytes4"},{"name":"params","type":"bytes","internalType":"bytes"},{"name":"fee","type":"uint256","internalType":"uint256"}]},{"name":"wrapped","type":"bool","internalType":"bool"}]}],"outputs":[],"stateMutability":"payable"},{"type":"error","name":"CallFailed","inputs":[]},{"type":"error","name":"CannotSendCrossMsgToItself","inputs":[]},{"type":"error","name":"InsufficientFunds","inputs":[]},{"type":"error","name":"InvalidCrossMsgDstSubnet","inputs":[]},{"type":"error","name":"InvalidCrossMsgFromSubnet","inputs":[]},{"type":"error","name":"InvalidCrossMsgValue","inputs":[]},{"type":"error","name":"MethodNotAllowed","inputs":[{"name":"reason","type":"string","internalType":"string"}]},{"type":"error","name":"NotEnoughFee","inputs":[]},{"type":"error","name":"NotEnoughFunds","inputs":[]},{"type":"error","name":"NotRegisteredSubnet","inputs":[]}],"bytecode":{"object":"0x60808060405234610016576121f2908161001c8239f35b600080fdfe60406080815260048036101561001457600080fd5b600091823560e01c8063210b944e1461016c576325bf0db61461003657600080fd5b602036600319011261016857813560ff602c5460101c161561013957808452600360205281842090600b820154601c54811061012957341061011a57906100a591600861008a61008584610987565b610c3b565b92015490865260036020526100a0848720610af3565b611a25565b6100b1601c543461052e565b806100ba578380f35b80471061010c578380808093335af13d15610107573d6100d98161044a565b906100e684519283610429565b81528460203d92013e5b156100fa57808380f35b51633204506f60e01b8152fd5b6100f0565b505163356680b760e01b8152fd5b505051631036b5ad60e31b8152fd5b505050516334472ad760e11b8152fd5b60208361016484610148610465565b905193849363015538b160e01b855284015260248301906104d4565b0390fd5b8280fd5b5060031990602036830181136103d9576001600160401b039380358581116103d55780820194848183360301126103d15760ff602c5460081c16156103c357846101b68780610514565b01356101cf60c06101c78980610514565b01353461052e565b036103b357610231846102226102016101f16101eb8b80610514565b80610551565b6101fc369180610551565b610591565b885163c836244d60e01b81528781018a905293849283926044840190610650565b868382030160248401526106ab565b038173__$a0fe38a9a81205afccc10810b09a4d3f45$__5af49081156103a957899161037c575b501561036c5784519661026a886103dd565b86358181116103605760e09084019283360301126103685785519161028e8361040e565b84810135828111610364576102a89086369184010161075f565b83526024810135828111610364576102c59086369184010161075f565b868401526044810135878401526102de60648201610566565b606084015260848101356001600160e01b03198116810361036457608084015260a48101359182116103605761031d60c4926024963691840101610718565b60a0840152013560c08201528652013590811515820361035c57846103529261034b92610359970152610c3b565b9280610514565b0135611a25565b80f35b8580fd5b8980fd5b8a80fd5b8880fd5b845163508847ab60e11b81528390fd5b61039c9150853d87116103a2575b6103948183610429565b810190610638565b38610258565b503d61038a565b86513d8b823e3d90fd5b84516360ec4e6b60e11b81528390fd5b505061016483610148610465565b8780fd5b8680fd5b8480fd5b604081019081106001600160401b038211176103f857604052565b634e487b7160e01b600052604160045260246000fd5b60e081019081106001600160401b038211176103f857604052565b90601f801991011681019081106001600160401b038211176103f857604052565b6001600160401b0381116103f857601f01601f191660200190565b60405190606082018281106001600160401b038211176103f857604052603a82527f732d6e6574206d657373616765732069732064697361626c65640000000000006040837f537570706f727420666f722067656e6572616c2d707572706f73652063726f7360208201520152565b919082519283825260005b848110610500575050826000602080949584010152601f8019910116010190565b6020818301810151848301820152016104df565b90359060de1981360301821215610529570190565b600080fd5b9190820391821161053b57565b634e487b7160e01b600052601160045260246000fd5b903590603e1981360301821215610529570190565b35906001600160401b038216820361052957565b6001600160401b0381116103f85760051b60200190565b919060408382031261052957604051926105aa846103dd565b836105b482610566565b815260209182810135906001600160401b03821161052957019280601f850112156105295783356105e48161057a565b946105f26040519687610429565b818652848087019260051b820101928311610529578401905b828210610619575050500152565b81356001600160a01b038116810361052957815290840190840161060b565b90816020910312610529575180151581036105295790565b60609060408301906001600160401b03815116845260209283809201519460408382015285518094520193019160005b82811061068e575050505090565b83516001600160a01b031685529381019392810192600101610680565b60408101906001600160401b036019541681526060602091604083820152601a548094520191601a60005260008051602061219d833981519152916000905b8282106106f8575050505090565b83546001600160a01b0316855293840193600193840193909101906106ea565b81601f820112156105295780359061072f8261044a565b9261073d6040519485610429565b8284526020838301011161052957816000926020809301838601378301015290565b91906040838203126105295760405192610778846103dd565b838135916001600160401b03928381116105295784610798918301610591565b8252602081013590838211610529570160408185031261052957604051936107bf856103dd565b813560ff811681036105295785526020820135938411610529576020936107e69201610718565b828401520152565b906040516107fb816103dd565b80926001600160401b03815416825260018091019160405191828481955492838652602080960191600052856000209060005b8786821061084a575050505061084692500384610429565b0152565b83546001600160a01b031685528995509093019291810191810161082e565b90600182811c92168015610899575b602083101461088357565b634e487b7160e01b600052602260045260246000fd5b91607f1691610878565b90604051918260008254926108b784610869565b90818452600194858116908160001461092657506001146108e3575b50506108e192500383610429565b565b9093915060005260209081600020936000915b81831061090e5750506108e1935082010138806108d3565b855488840185015294850194879450918301916108f6565b9150506108e194506020925060ff191682840152151560051b82010138806108d3565b9060405191610957836103dd565b602083610963836107ee565b81526107e6600360405194610977866103dd565b60ff6002820154168652016108a3565b90604051610994816103dd565b602060ff600c83956040516109a88161040e565b6109b182610949565b81526109bf60048301610949565b818601526008820154604082015260098201546001600160401b038116606083015260a01b6001600160e01b03191660808201526109ff600a83016108a3565b60a0820152600b82015460c082015285520154161515910152565b818110610a25575050565b60008155600101610a1a565b90600160401b81116103f857815490808355818110610a4f57505050565b6108e19260005260206000209182019101610a1a565b610a6f8154610869565b9081610a79575050565b81601f60009311600114610a8b575055565b908083918252610aaa601f60208420940160051c840160018501610a1a565b5555565b60036108e191600081556001810180546000825580610ad7575b50506000600282015501610a65565b610aec91600052602060002090810190610a1a565b3880610ac8565b600c600091610b0181610aae565b610b0d60048201610aae565b826008820155826009820155610b25600a8201610a65565b82600b8201550155565b60406020610b6b9381610b49855185845285840190610650565b940151908281860391015260ff815116845201519181602082015201906104d4565b90565b51906001600160a01b038216820361052957565b90602080838303126105295782516001600160401b03938482116105295701926040848403126105295760405193610bb9856103dd565b805182811681036105295785528281015191821161052957019180601f84011215610529578251610be98161057a565b93610bf76040519586610429565b818552838086019260051b8201019283116105295783809101915b838310610c23575050505082015290565b8190610c2e84610b6e565b8152019101908390610c12565b60208151015151604051630c133d1360e31b81526020600482015260208180610c676024820186610650565b038173__$a0fe38a9a81205afccc10810b09a4d3f45$__5af49081156110af57600091611a06575b506119f45760405163c836244d60e01b81526040600482015260208180610ccd610cbc6044830187610650565b8281036003190160248401526106ab565b038173__$a0fe38a9a81205afccc10810b09a4d3f45$__5af49081156110af576000916119d5575b506119c357610db69082516020815151916040518095819263f47ad7eb60e01b83526040600484015260c0610d9c610d3a835160e06044880152610124870190610b2f565b610d55888501519160431992838983030160648a0152610b2f565b6040850151608488015260608501516001600160401b031660a488015260808501516001600160e01b03191660c488015260a085015187820390920160e4880152906104d4565b9101516101048401528281036003190160248401526106ab565b038173__$386b5c41ce93e8b832daf8008b3d30ae09$__5af49283156110af57600093611980575b50600091600284101561196c578290600185146117ec575b5050506111ab5715611161575b610e2e6020825101515160405191829163089032d560e01b8352604060048401526044830190610650565b600319828203016024830152606060408201916001600160401b0360195416815260406020820152601a548093520190601a60005260008051602061219d8339815191529060005b81811061113f575050509080600092038173__$a0fe38a9a81205afccc10810b09a4d3f45$__5af49081156110af5760009161111e575b506040516390ba52cf60e01b81526020600482018190528180610ed36024820186610650565b038173__$a0fe38a9a81205afccc10810b09a4d3f45$__5af49081156110af576000916110ec575b506000526000602052604060002090610f3c6020610f1b600485016107ee565b60405180938192630c133d1360e31b83528460048401526024830190610650565b038173__$a0fe38a9a81205afccc10810b09a4d3f45$__5af49081156110af576000916110cd575b506110bb576003820180546001600160401b03610f8981831680606089510152611a97565b16906001600160401b0319161790556002604084510151920190815492830180931161053b57610fd89260209255604051809381926304e384ff60e21b83528460048401526024830190610650565b038173__$a0fe38a9a81205afccc10810b09a4d3f45$__5af49081156110af5760009161104d575b5060405160208082526001600160a01b03909216927f392fae29c67f3b47710cb5b84d7a6fd08e0155a4f22565971f7159f12c6f709692829161104591830190611aaf565b0390a2600090565b906020823d6020116110a7575b8161106760209383610429565b810103126110a4575061104561109d7f392fae29c67f3b47710cb5b84d7a6fd08e0155a4f22565971f7159f12c6f709692610b6e565b9150611000565b80fd5b3d915061105a565b6040513d6000823e3d90fd5b604051630e991abd60e41b8152600490fd5b6110e6915060203d6020116103a2576103948183610429565b38610f64565b906020823d602011611116575b8161110660209383610429565b810103126110a457505138610efb565b3d91506110f9565b611139913d8091833e6111318183610429565b810190610b82565b38610ead565b82546001600160a01b0316845285945060209093019260019283019201610e76565b601d546001600160401b038160481c166001600160401b03811461053b57600167ffffffffffffffff60481b910160481b169067ffffffffffffffff60481b191617601d55610e03565b50601f5480156117d657806001600160401b034316046001810180911161053b5781810291818304149015171561053b57601d5468ffffffffffffffff006112056001600160401b038360081c1680606087510152611a97565b60081b169068ffffffffffffffff00191617601d5580600052600960205260406000209060028201805415600014611336576019830361130a575b55600361124b612089565b910190805190600160401b82116103f85782548284558083106112c1575b506020018260005260206000206000915b8383106112a357505050509061129b81611295604094611b48565b90612023565b510151151590565b600d6020826112b56001945186611b8f565b0192019201919061127a565b600d90808202908282040361053b57838202828104850361053b5785600052602060002091820191015b8181106112f9575050611269565b806113048492610af3565b016112eb565b6001600160401b03601954166001600160401b03198454161783556113316001840161212b565b611240565b505060038101546020546001600160401b031681036117a8575060038101549061135f8261057a565b9061136d6040519283610429565b828252601f1961137c8461057a565b0160005b818110611740575050604051918260608101106001600160401b036060850111176103f857606083016040526113b8606084016103dd565b6001600160401b0360195416606084015260405180816020601a549283815201601a60005260008051602061219d8339815191529260005b81811061171e57505061140592500382610429565b6080840152606083018352436020840152604083015260005b8381106116e45750604051602081526114438351606060208401526080830190610650565b9060208401516040820152604084015191601f19828203016060830152825180825260208201916020808360051b8301019501926000915b8383106116b7575050505050807f39504a936d8c0cbc12ddec43d5f3e7a937285064bed71961953e3de67d86215e9143930390a26114b7612089565b805190600160401b948583116103f85782600385015580831061166b575b509060208692016003840160005260206000206000915b838310611645575050505061129560036115069301611b48565b60208101516000526009602052604060002081516001600160401b038151166001600160401b0319835416178255602060018301910151908151916001600160401b0383116103f85760209061155c8484610a31565b0190600052602060002060005b83811061162857505050506003604091602084015160028201550191015180519283116103f85781548383558084106115df575b506020019060005260206000206000915b8383106115c1575050505060409061129b565b600d6020826115d36001945186611b8f565b019201920191906115ae565b600d90808202908282040361053b57848202828104860361053b5784600052602060002091820191015b81811061161757505061159d565b806116228492610af3565b01611609565b82516001600160a01b031681830155602090920191600101611569565b6001919293945060208161165c600d935186611b8f565b019201920190918793926114ec565b600d90808202908282040361053b57838202828104850361053b5760038601600052602060002091820191015b8181106116a65750506114d5565b806116b18492610af3565b01611698565b90919293956020806116d5600193601f198682030187528a51611aaf565b9801930193019193929061147b565b80611717816116f860019460038701611b73565b50611707604088015191610987565b6117118383612117565b52612117565b500161141e565b84546001600160a01b03168352600194850194869450602090930192016113f0565b60209060405161174f816103dd565b60405161175b8161040e565b611763612062565b815261176d612062565b84820152600060408201526000606082015260006080820152606060a0820152600060c0820152815260008382015282828701015201611380565b9190600160401b8310156103f857816112958460036117d1946001604098018282015501611b73565b61129b565b634e487b7160e01b600052601260045260246000fd5b611816906118286040519485938493631ccc893360e11b8552604060048601526044850190610650565b83810360031901602485015290610650565b038173__$a0fe38a9a81205afccc10810b09a4d3f45$__5af4908115611961578291611947575b506118759060405191829163c836244d60e01b8352604060048401526044830190610650565b600319828203016024830152606060408201916001600160401b0360195416815260406020820152601a548093520190601a855260008051602061219d83398151915290855b818110611925575050509080602092038173__$a0fe38a9a81205afccc10810b09a4d3f45$__5af491821561191957916118fa575b5015388181610df6565b611913915060203d6020116103a2576103948183610429565b386118f0565b604051903d90823e3d90fd5b82546001600160a01b03168452859450602090930192600192830192016118bb565b61195b91503d8084833e6111318183610429565b3861184f565b6040513d84823e3d90fd5b634e487b7160e01b83526021600452602483fd5b6020939193813d6020116119bb575b8161199c60209383610429565b810103126119b757519060028210156110a457509138610dde565b5080fd5b3d915061198f565b604051632f3335ff60e21b8152600490fd5b6119ee915060203d6020116103a2576103948183610429565b38610cf5565b60405163c5f563eb60e01b8152600490fd5b611a1f915060203d6020116103a2576103948183610429565b38610c8f565b90611a2d5750565b804710611a855760008080809360635af13d15611a80573d611a4e8161044a565b90611a5c6040519283610429565b8152600060203d92013e5b15611a6e57565b604051633204506f60e01b8152600490fd5b611a67565b60405163356680b760e01b8152600490fd5b9060016001600160401b038093160191821161053b57565b906020808351936040845260c0611b35611ad6875160e06040890152610120880190610b2f565b611af18589015191603f1992838a83030160608b0152610b2f565b90604089015160808901526001600160401b0360608a01511660a089015263ffffffff60e01b60808a0151168489015260a0890151908883030160e08901526104d4565b9501516101008501520151151591015290565b805415611b5d57600052602060002090600090565b634e487b7160e01b600052603260045260246000fd5b8054821015611b5d57600052600d602060002091020190600090565b81518051918251916001600160401b0380845116906001600160401b03199182855416178455600191828501926020809701518051908482116103f8578890611bd88388610a31565b01600095865288862083875b848110612008575050505050866002870198015160ff8151169860ff19998a82541617905560039288848901920151918251868111611f225780611c288354610869565b94898d601f9788808211611fdb575b505050508c90868311600114611f70578a92611f65575b505060001982881b1c191690851b1790555b6004880190898801519182519187835116908254161790558960058a0191015190815191878311611f51578b90611c978484610a31565b019088528a882085895b848110611f3657505050505088600689019101519060ff8251168b8254161790558860078901910151805190868211611f22578190611ce08454610869565b8c868211611ef5575b50508b90858311600114611e96578992611e8b575b505060001982871b1c191690841b1790555b6040860151600888015560098701846060880151168154906bffffffff000000000000000060808a015160a01c16916bffffffffffffffffffffffff191617179055600a87019460a0870151908151958611611e7757611d708754610869565b8a848211611e40575b505089928611600114611dd157938560ff9a999794819460c09894600c9b9895611dc6575b50501b92600019911b1c19161790555b0151600b820155019301511515918354169116179055565b015193503880611d9e565b9294939190601f1985168785528a8520945b818110611e2b575092859260ff9b9a989592600c9a9760c0999610611e11575b50505050811b019055611dae565b01519060f884600019921b161c1916905538808080611e03565b82840151865594870194928b01928b01611de3565b611e67918984528582852091818b0160051c8301938b10611e6e575b0160051c0190610a1a565b388a611d79565b92508192611e5c565b634e487b7160e01b81526041600452602490fd5b015190503880611cfe565b848a528c8a208794509190601f1984168b8f5b828210611ede5750508411611ec6575b505050811b019055611d10565b015160001983891b60f8161c19169055388080611eb9565b8385015186558a979095019493840193018f611ea9565b611f1b91868c5287828d209181870160051c8301938710611e6e570160051c0190610a1a565b388c611ce9565b634e487b7160e01b88526041600452602488fd5b83516001600160a01b031683820155928d0192879101611ca1565b634e487b7160e01b89526041600452602489fd5b015190503880611c4e565b879350908d91601f198416868d52838d20938d905b828210611fba5750508411611fa2575b505050811b019055611c60565b0151600019838a1b60f8161c19169055388080611f95565b91929395968291958786015181550195019301908f918a9695949392611f85565b828489611fff9652209181870160051c8301938710611e6e570160051c0190610a1a565b898d3888611c37565b83516001600160a01b031683820155928b0192859101611be4565b9190612032576108e191611b8f565b634e487b7160e01b600052600060045260246000fd5b60405190612055826103dd565b6060602083600081520152565b6040519061206f826103dd565b81612078612048565b81526020612084612048565b910152565b604090815191612098836103dd565b60018352829160005b60208082101561210f578351602092916120ba826103dd565b85516120c58161040e565b6120cd612062565b81526120d7612062565b8282015260008782015260606000818301526000608083015260a0820152600060c082015282526000818301528288010152016120a1565b505091925050565b8051821015611b5d5760209160051b010190565b601a811461219957601a54906001600160401b0382116103f85761214f8282610a31565b60009081526020812060008051602061219d83398151915280545b848410612178575050505050565b600191820180546001600160a01b039092168486015593909101929061216a565b5056fe057c384a7d1c54f3a1b2e5e67b2617b8224fdfd1ea7234eea573a6ff665ff63ea26469706673582212207d462bec22d0317635d9b9b03d1b055ba17e0784492ddf951af1c360969a682664736f6c63430008130033","linkReferences":{"src/lib/StorableMsgHelper.sol":{"StorableMsgHelper":[{"start":3542,"length":20}]},"src/lib/SubnetIDHelper.sol":{"SubnetIDHelper":[{"start":593,"length":20},{"start":3207,"length":20},{"start":3309,"length":20},{"start":3749,"length":20},{"start":3827,"length":20},{"start":3932,"length":20},{"start":4088,"length":20},{"start":6216,"length":20},{"start":6378,"length":20}]}}},"methodIdentifiers":{"propagate(bytes32)":"25bf0db6","sendUserXnetMessage(((((uint64,address[]),(uint8,bytes)),((uint64,address[]),(uint8,bytes)),uint256,uint64,bytes4,bytes,uint256),bool))":"210b944e"},"id":46}