{"abi":[{"type":"function","name":"propagate","inputs":[{"name":"msgCid","type":"bytes32","internalType":"bytes32"}],"outputs":[],"stateMutability":"payable"},{"type":"function","name":"sendCrossMessage","inputs":[{"name":"crossMsg","type":"tuple","internalType":"struct CrossMsg","components":[{"name":"message","type":"tuple","internalType":"struct StorableMsg","components":[{"name":"from","type":"tuple","internalType":"struct IPCAddress","components":[{"name":"subnetId","type":"tuple","internalType":"struct SubnetID","components":[{"name":"root","type":"uint64","internalType":"uint64"},{"name":"route","type":"address[]","internalType":"address[]"}]},{"name":"rawAddress","type":"tuple","internalType":"struct FvmAddress","components":[{"name":"addrType","type":"uint8","internalType":"uint8"},{"name":"payload","type":"bytes","internalType":"bytes"}]}]},{"name":"to","type":"tuple","internalType":"struct IPCAddress","components":[{"name":"subnetId","type":"tuple","internalType":"struct SubnetID","components":[{"name":"root","type":"uint64","internalType":"uint64"},{"name":"route","type":"address[]","internalType":"address[]"}]},{"name":"rawAddress","type":"tuple","internalType":"struct FvmAddress","components":[{"name":"addrType","type":"uint8","internalType":"uint8"},{"name":"payload","type":"bytes","internalType":"bytes"}]}]},{"name":"value","type":"uint256","internalType":"uint256"},{"name":"nonce","type":"uint64","internalType":"uint64"},{"name":"method","type":"bytes4","internalType":"bytes4"},{"name":"params","type":"bytes","internalType":"bytes"},{"name":"fee","type":"uint256","internalType":"uint256"}]},{"name":"wrapped","type":"bool","internalType":"bool"}]}],"outputs":[],"stateMutability":"payable"},{"type":"event","name":"NewTopDownMessage","inputs":[{"name":"subnet","type":"address","indexed":true,"internalType":"address"},{"name":"message","type":"tuple","indexed":false,"internalType":"struct CrossMsg","components":[{"name":"message","type":"tuple","internalType":"struct StorableMsg","components":[{"name":"from","type":"tuple","internalType":"struct IPCAddress","components":[{"name":"subnetId","type":"tuple","internalType":"struct SubnetID","components":[{"name":"root","type":"uint64","internalType":"uint64"},{"name":"route","type":"address[]","internalType":"address[]"}]},{"name":"rawAddress","type":"tuple","internalType":"struct FvmAddress","components":[{"name":"addrType","type":"uint8","internalType":"uint8"},{"name":"payload","type":"bytes","internalType":"bytes"}]}]},{"name":"to","type":"tuple","internalType":"struct IPCAddress","components":[{"name":"subnetId","type":"tuple","internalType":"struct SubnetID","components":[{"name":"root","type":"uint64","internalType":"uint64"},{"name":"route","type":"address[]","internalType":"address[]"}]},{"name":"rawAddress","type":"tuple","internalType":"struct FvmAddress","components":[{"name":"addrType","type":"uint8","internalType":"uint8"},{"name":"payload","type":"bytes","internalType":"bytes"}]}]},{"name":"value","type":"uint256","internalType":"uint256"},{"name":"nonce","type":"uint64","internalType":"uint64"},{"name":"method","type":"bytes4","internalType":"bytes4"},{"name":"params","type":"bytes","internalType":"bytes"},{"name":"fee","type":"uint256","internalType":"uint256"}]},{"name":"wrapped","type":"bool","internalType":"bool"}]}],"anonymous":false},{"type":"error","name":"CallFailed","inputs":[]},{"type":"error","name":"CannotSendCrossMsgToItself","inputs":[]},{"type":"error","name":"InsufficientFunds","inputs":[]},{"type":"error","name":"InvalidCrossMsgDstSubnet","inputs":[]},{"type":"error","name":"InvalidCrossMsgFromSubnet","inputs":[]},{"type":"error","name":"InvalidCrossMsgValue","inputs":[]},{"type":"error","name":"NotEnoughFee","inputs":[]},{"type":"error","name":"NotEnoughFunds","inputs":[]},{"type":"error","name":"NotRegisteredSubnet","inputs":[]}],"bytecode":{"object":"0x608060405234801561001057600080fd5b50611db5806100206000396000f3fe6080604052600436106100295760003560e01c806325bf0db61461002e578063c13175ef14610043575b600080fd5b61004161003c366004611175565b610056565b005b61004161005136600461118e565b610518565b6000818152600360205260409020600b81015461007290610662565b604080516101a08101825282546001600160401b0316610160820190815260018401805484516020828102820181018752828252600096610400969589958795928601948794869461012089019487948694919386936101808d0193929183018282801561010957602002820191906000526020600020905b81546001600160a01b031681526001909101906020018083116100eb575b5050509190925250505081526040805180820190915260028301805460ff16825260038401805460209485019484019190610143906111cf565b80601f016020809104026020016040519081016040528092919081815260200182805461016f906111cf565b80156101bc5780601f10610191576101008083540402835291602001916101bc565b820191906000526020600020905b81548152906001019060200180831161019f57829003601f168201915b505050919092525050509052508152604080516080810182526004840180546001600160401b031682840190815260058601805485516020828102820181019097528181529686019694959394869486936060870193909183018282801561024d57602002820191906000526020600020905b81546001600160a01b0316815260019091019060200180831161022f575b5050509190925250505081526040805180820190915260028301805460ff16825260038401805460209485019484019190610287906111cf565b80601f01602080910402602001604051908101604052809291908181526020018280546102b3906111cf565b80156103005780601f106102d557610100808354040283529160200191610300565b820191906000526020600020905b8154815290600101906020018083116102e357829003601f168201915b5050509190925250505090525081526008820154602082015260098201546001600160401b0381166040830152600160401b900460e01b6001600160e01b0319166060820152600a8201805460809092019161035b906111cf565b80601f0160208091040260200160405190810160405280929190818152602001828054610387906111cf565b80156103d45780601f106103a9576101008083540402835291602001916103d4565b820191906000526020600020905b8154815290600101906020018083116103b757829003601f168201915b5050509183525050600b9190910154602091820152908252600c929092015460ff1615159101526106a9565b60088301546000858152600360205260408120805467ffffffffffffffff1916815592935090919081818181818161043b60018301826110a3565b505060028201805460ff19168155600061045860038501826110c1565b5050505060048201805467ffffffffffffffff191681556000818161048060058701826110a3565b505060028201805460ff19168155600061049d60038501826110c1565b50506000600885018190556009850180546bffffffffffffffffffffffff191690556104cf9250600a850191506110c1565b506000600b919091015550600c01805460ff191690556104ef8183610a19565b6014546000906104ff903461121f565b90508015610511576105113382610a2e565b5050505050565b6105228180611232565b60c0013561052f81610662565b6105398280611232565b6105479060c001353461121f565b6105518380611232565b6040013514610573576040516360ec4e6b60e11b815260040160405180910390fd5b61057d8280611232565b6105879080611252565b6105919080611252565b61059a90611412565b60405163c836244d60e01b815273__$a0fe38a9a81205afccc10810b09a4d3f45$__9163c836244d916105d391906011906004016114f8565b602060405180830381865af41580156105f0573d6000803e3d6000fd5b505050506040513d601f19601f820116820180604052508101906106149190611534565b6106315760405163508847ab60e11b815260040160405180910390fd5b600061064461063f8461169a565b6106a9565b905061065d6106538480611232565b6040013582610a19565b505050565b601454811015610685576040516334472ad760e11b815260040160405180910390fd5b803410156106a657604051631036b5ad60e31b815260040160405180910390fd5b50565b80516020015151604051630c133d1360e31b81526000919073__$a0fe38a9a81205afccc10810b09a4d3f45$__90636099e898906106eb9084906004016117a1565b602060405180830381865af4158015610708573d6000803e3d6000fd5b505050506040513d601f19601f8201168201806040525081019061072c9190611534565b1561074a5760405163c5f563eb60e01b815260040160405180910390fd5b60405163c836244d60e01b815273__$a0fe38a9a81205afccc10810b09a4d3f45$__9063c836244d906107849084906011906004016114f8565b602060405180830381865af41580156107a1573d6000803e3d6000fd5b505050506040513d601f19601f820116820180604052508101906107c59190611534565b156107e357604051632f3335ff60e21b815260040160405180910390fd5b825180515160405163f47ad7eb60e01b8152909160009173__$386b5c41ce93e8b832daf8008b3d30ae09$__9163f47ad7eb916108269190601190600401611840565b602060405180830381865af4158015610843573d6000803e3d6000fd5b505050506040513d601f19601f8201168201806040525081019061086791906118e9565b90506000600182600181111561087f5761087f61190a565b0361098057604051631ccc893360e11b815273__$a0fe38a9a81205afccc10810b09a4d3f45$__906339991266906108bd9087908790600401611920565b600060405180830381865af41580156108da573d6000803e3d6000fd5b505050506040513d6000823e601f3d908101601f191682016040526109029190810190611945565b60405163c836244d60e01b815273__$a0fe38a9a81205afccc10810b09a4d3f45$__9163c836244d9161093b91906011906004016114f8565b602060405180830381865af4158015610958573d6000803e3d6000fd5b505050506040513d601f19601f8201168201806040525081019061097c9190611534565b1590505b80156109a05761098f86610ac3565b505092516040015115159392505050565b60008260018111156109b4576109b461190a565b03610a0457601580546009906109df90690100000000000000000090046001600160401b0316611a25565b91906101000a8154816001600160401b0302191690836001600160401b031602179055505b610a0d86610d04565b50600095945050505050565b8015610a2a57610a2a606383610a2e565b5050565b80471015610a4f5760405163356680b760e01b815260040160405180910390fd5b6000826001600160a01b03168260405160006040518083038185875af1925050503d8060008114610a9c576040519150601f19603f3d011682016040523d82523d6000602084013e610aa1565b606091505b505090508061065d57604051633204506f60e01b815260040160405180910390fd5b6016546000908190610adf9043906001600160401b0316610ee5565b601583015484516001600160401b0361010090920482166060909101528082166000908152600a8501602090815260408220805460018181018355918452928290208851805180518051600d90970290930180549690971667ffffffffffffffff199096169590951786558184015180519798508a979195879590948694938593610b6f939285019201906110fb565b505050602082810151805160028401805460ff191660ff909216919091178155918101519091906003840190610ba59082611a9b565b505050506020838101518051805160048601805467ffffffffffffffff19166001600160401b03909216919091178155818401518051939550909391928492610bf59260058901929101906110fb565b505050602082810151805160028401805460ff191660ff909216919091178155918101519091906003840190610c2b9082611a9b565b5050505060408301516008830155506060820151600982018054608085015160e01c600160401b026bffffffffffffffffffffffff199091166001600160401b039093169290921791909117905560a0820151600a820190610c8d9082611a9b565b5060c09190910151600b9091015560209190910151600c909101805460ff1916911515919091179055601582018054600191908290610cdb90829061010090046001600160401b0316611b5a565b92506101000a8154816001600160401b0302191690836001600160401b03160217905550505050565b8051602001515160405163089032d560e01b8152600091829173__$a0fe38a9a81205afccc10810b09a4d3f45$__9163089032d591610d4991906011906004016114f8565b600060405180830381865af4158015610d66573d6000803e3d6000fd5b505050506040513d6000823e601f3d908101601f19168201604052610d8e9190810190611945565b9050600080610d9c83610f10565b9150915081610dbe57604051630e991abd60e41b815260040160405180910390fd5b600381015485516001600160401b039091166060909101819052610de3816001611b5a565b60038301805467ffffffffffffffff19166001600160401b0392909216919091179055855160400151600283018054600090610e20908490611b81565b90915550506040516304e384ff60e21b815273__$a0fe38a9a81205afccc10810b09a4d3f45$__9063138e13fc90610e5c9087906004016117a1565b602060405180830381865af4158015610e79573d6000803e3d6000fd5b505050506040513d601f19601f82011682018060405250810190610e9d9190611b94565b6001600160a01b03167f392fae29c67f3b47710cb5b84d7a6fd08e0155a4f22565971f7159f12c6f709687604051610ed59190611c4f565b60405180910390a2505050505050565b600081610ef28185611d07565b610efd906001611b5a565b610f079190611d3b565b90505b92915050565b6040516390ba52cf60e01b8152600090819081908190819073__$a0fe38a9a81205afccc10810b09a4d3f45$__906390ba52cf90610f529089906004016117a1565b602060405180830381865af4158015610f6f573d6000803e3d6000fd5b505050506040513d601f19601f82011682018060405250810190610f939190611d66565b81526020808201929092526040908101600020815180830183526004820180546001600160401b03168252600583018054855181880281018801909652808652939750919490938582019390929183018282801561101a57602002820191906000526020600020905b81546001600160a01b03168152600190910190602001808311610ffc575b505050919092525050604051630c133d1360e31b815273__$a0fe38a9a81205afccc10810b09a4d3f45$__92636099e8989250611059916004016117a1565b602060405180830381865af4158015611076573d6000803e3d6000fd5b505050506040513d601f19601f8201168201806040525081019061109a9190611534565b15925050915091565b50805460008255906000526020600020908101906106a69190611160565b5080546110cd906111cf565b6000825580601f106110dd575050565b601f0160209004906000526020600020908101906106a69190611160565b828054828255906000526020600020908101928215611150579160200282015b8281111561115057825182546001600160a01b0319166001600160a01b0390911617825560209092019160019091019061111b565b5061115c929150611160565b5090565b5b8082111561115c5760008155600101611161565b60006020828403121561118757600080fd5b5035919050565b6000602082840312156111a057600080fd5b81356001600160401b038111156111b657600080fd5b8201604081850312156111c857600080fd5b9392505050565b600181811c908216806111e357607f821691505b60208210810361120357634e487b7160e01b600052602260045260246000fd5b50919050565b634e487b7160e01b600052601160045260246000fd5b81810381811115610f0a57610f0a611209565b6000823560de1983360301811261124857600080fd5b9190910192915050565b60008235603e1983360301811261124857600080fd5b634e487b7160e01b600052604160045260246000fd5b604080519081016001600160401b03811182821017156112a0576112a0611268565b60405290565b60405160e081016001600160401b03811182821017156112a0576112a0611268565b604051601f8201601f191681016001600160401b03811182821017156112f0576112f0611268565b604052919050565b6001600160401b03811681146106a657600080fd5b8035611318816112f8565b919050565b60006001600160401b0382111561133657611336611268565b5060051b60200190565b6001600160a01b03811681146106a657600080fd5b60006040828403121561136757600080fd5b61136f61127e565b9050813561137c816112f8565b81526020828101356001600160401b0381111561139857600080fd5b8301601f810185136113a957600080fd5b80356113bc6113b78261131d565b6112c8565b81815260059190911b820183019083810190878311156113db57600080fd5b928401925b828410156114025783356113f381611340565b825292840192908401906113e0565b8085870152505050505092915050565b6000610f0a3683611355565b6000604083016001600160401b03835116845260208084015160406020870152828151808552606088019150602083019450600092505b8083101561147e5784516001600160a01b03168252938301936001929092019190830190611455565b509695505050505050565b6000604083016001600160401b03835416845260018084016020604060208801528382548086526060890191508360005260206000209550600093505b808410156114ec5785546001600160a01b031682529484019492840192908201906114c6565b50979650505050505050565b60408152600061150b604083018561141e565b828103602084015261151d8185611489565b95945050505050565b80151581146106a657600080fd5b60006020828403121561154657600080fd5b81516111c881611526565b600082601f83011261156257600080fd5b81356001600160401b0381111561157b5761157b611268565b61158e601f8201601f19166020016112c8565b8181528460208386010111156115a357600080fd5b816020850160208301376000918101602001919091529392505050565b6000604082840312156115d257600080fd5b6115da61127e565b905081356001600160401b03808211156115f357600080fd5b6115ff85838601611355565b8352602084013591508082111561161557600080fd5b908301906040828603121561162957600080fd5b61163161127e565b823560ff8116811461164257600080fd5b815260208301358281111561165657600080fd5b61166287828601611551565b60208301525080602085015250505092915050565b80356001600160e01b03198116811461131857600080fd5b803561131881611526565b6000604082360312156116ac57600080fd5b6116b461127e565b82356001600160401b03808211156116cb57600080fd5b818501915060e082360312156116e057600080fd5b6116e86112a6565b8235828111156116f757600080fd5b611703368286016115c0565b82525060208301358281111561171857600080fd5b611724368286016115c0565b602083015250604083013560408201526117406060840161130d565b606082015261175160808401611677565b608082015260a08301358281111561176857600080fd5b61177436828601611551565b60a08301525060c083013560c08201528084525050506117966020840161168f565b602082015292915050565b602081526000610f07602083018461141e565b6000815180845260005b818110156117da576020818501810151868301820152016117be565b506000602082860101526020601f19601f83011685010191505092915050565b600081516040845261180f604085018261141e565b90506020830151848203602086015260ff8151168252602081015190506040602083015261151d60408301826117b4565b604081526000835160e0604084015261185d6101208401826117fa565b90506020850151603f198085840301606086015261187b83836117fa565b9250604087015160808601526001600160401b0360608801511660a086015263ffffffff60e01b60808801511660c086015260a08701519150808584030160e0860152506118c982826117b4565b91505060c0850151610100840152828103602084015261151d8185611489565b6000602082840312156118fb57600080fd5b8151600281106111c857600080fd5b634e487b7160e01b600052602160045260246000fd5b604081526000611933604083018561141e565b828103602084015261151d818561141e565b6000602080838503121561195857600080fd5b82516001600160401b038082111561196f57600080fd5b908401906040828703121561198357600080fd5b61198b61127e565b8251611996816112f8565b815282840151828111156119a957600080fd5b80840193505086601f8401126119be57600080fd5b825191506119ce6113b78361131d565b82815260059290921b830184019184810190888411156119ed57600080fd5b938501935b83851015611a14578451611a0581611340565b825293850193908501906119f2565b948201949094529695505050505050565b60006001600160401b03808316818103611a4157611a41611209565b6001019392505050565b601f82111561065d576000816000526020600020601f850160051c81016020861015611a745750805b601f850160051c820191505b81811015611a9357828155600101611a80565b505050505050565b81516001600160401b03811115611ab457611ab4611268565b611ac881611ac284546111cf565b84611a4b565b602080601f831160018114611afd5760008415611ae55750858301515b600019600386901b1c1916600185901b178555611a93565b600085815260208120601f198616915b82811015611b2c57888601518255948401946001909101908401611b0d565b5085821015611b4a5787850151600019600388901b60f8161c191681555b5050505050600190811b01905550565b6001600160401b03818116838216019080821115611b7a57611b7a611209565b5092915050565b80820180821115610f0a57610f0a611209565b600060208284031215611ba657600080fd5b81516111c881611340565b8051604080845281516001600160401b031684820152602091820151606085019190915280516080850181905260009291820191839160a08701905b80841015611c165784516001600160a01b03168252938201936001939093019290820190611bed565b508186015193508681038288015260ff8451168152818401519350604082820152611c4460408201856117b4565b979650505050505050565b602081526000825160406020840152805160e06060850152611c75610140850182611bb1565b90506020820151605f1980868403016080870152611c938383611bb1565b9250604084015160a08701526001600160401b0360608501511660c087015263ffffffff60e01b60808501511660e087015260a08401519150808684030161010087015250611ce282826117b4565b60c0939093015161012086015250506020840151801515604085015290949350505050565b60006001600160401b0380841680611d2f57634e487b7160e01b600052601260045260246000fd5b92169190910492915050565b6001600160401b03818116838216028082169190828114611d5e57611d5e611209565b505092915050565b600060208284031215611d7857600080fd5b505191905056fea2646970667358221220fceda962e57d45f011368ba14d7c64d2fb072c806ec08e7f6268988d96398ad764736f6c63430008160033","linkReferences":{"src/lib/StorableMsgHelper.sol":{"StorableMsgHelper":[{"start":2076,"length":20}]},"src/lib/SubnetIDHelper.sol":{"SubnetIDHelper":[{"start":1481,"length":20},{"start":1763,"length":20},{"start":1913,"length":20},{"start":2227,"length":20},{"start":2353,"length":20},{"start":3391,"length":20},{"start":3668,"length":20},{"start":3914,"length":20},{"start":4178,"length":20}]}}},"methodIdentifiers":{"propagate(bytes32)":"25bf0db6","sendCrossMessage(((((uint64,address[]),(uint8,bytes)),((uint64,address[]),(uint8,bytes)),uint256,uint64,bytes4,bytes,uint256),bool))":"c13175ef"},"id":46}