{"abi":[{"type":"function","name":"activeValidatorsLimit","inputs":[],"outputs":[{"name":"","type":"uint16","internalType":"uint16"}],"stateMutability":"view"},{"type":"function","name":"bootstrapped","inputs":[],"outputs":[{"name":"","type":"bool","internalType":"bool"}],"stateMutability":"view"},{"type":"function","name":"bottomUpCheckPeriod","inputs":[],"outputs":[{"name":"","type":"uint64","internalType":"uint64"}],"stateMutability":"view"},{"type":"function","name":"bottomUpCheckpointAtEpoch","inputs":[{"name":"epoch","type":"uint64","internalType":"uint64"}],"outputs":[{"name":"exists","type":"bool","internalType":"bool"},{"name":"checkpoint","type":"tuple","internalType":"struct BottomUpCheckpoint","components":[{"name":"subnetID","type":"tuple","internalType":"struct SubnetID","components":[{"name":"root","type":"uint64","internalType":"uint64"},{"name":"route","type":"address[]","internalType":"address[]"}]},{"name":"blockHeight","type":"uint64","internalType":"uint64"},{"name":"blockHash","type":"bytes32","internalType":"bytes32"},{"name":"nextConfigurationNumber","type":"uint64","internalType":"uint64"},{"name":"crossMessagesHash","type":"bytes32","internalType":"bytes32"}]}],"stateMutability":"view"},{"type":"function","name":"bottomUpCheckpointHashAtEpoch","inputs":[{"name":"epoch","type":"uint64","internalType":"uint64"}],"outputs":[{"name":"","type":"bool","internalType":"bool"},{"name":"","type":"bytes32","internalType":"bytes32"}],"stateMutability":"view"},{"type":"function","name":"consensus","inputs":[],"outputs":[{"name":"","type":"uint8","internalType":"enum ConsensusType"}],"stateMutability":"view"},{"type":"function","name":"crossMsgsHash","inputs":[{"name":"messages","type":"tuple[]","internalType":"struct CrossMsg[]","components":[{"name":"message","type":"tuple","internalType":"struct StorableMsg","components":[{"name":"from","type":"tuple","internalType":"struct IPCAddress","components":[{"name":"subnetId","type":"tuple","internalType":"struct SubnetID","components":[{"name":"root","type":"uint64","internalType":"uint64"},{"name":"route","type":"address[]","internalType":"address[]"}]},{"name":"rawAddress","type":"tuple","internalType":"struct FvmAddress","components":[{"name":"addrType","type":"uint8","internalType":"uint8"},{"name":"payload","type":"bytes","internalType":"bytes"}]}]},{"name":"to","type":"tuple","internalType":"struct IPCAddress","components":[{"name":"subnetId","type":"tuple","internalType":"struct SubnetID","components":[{"name":"root","type":"uint64","internalType":"uint64"},{"name":"route","type":"address[]","internalType":"address[]"}]},{"name":"rawAddress","type":"tuple","internalType":"struct FvmAddress","components":[{"name":"addrType","type":"uint8","internalType":"uint8"},{"name":"payload","type":"bytes","internalType":"bytes"}]}]},{"name":"value","type":"uint256","internalType":"uint256"},{"name":"nonce","type":"uint64","internalType":"uint64"},{"name":"method","type":"bytes4","internalType":"bytes4"},{"name":"params","type":"bytes","internalType":"bytes"},{"name":"fee","type":"uint256","internalType":"uint256"}]},{"name":"wrapped","type":"bool","internalType":"bool"}]}],"outputs":[{"name":"","type":"bytes32","internalType":"bytes32"}],"stateMutability":"pure"},{"type":"function","name":"genesisBalances","inputs":[],"outputs":[{"name":"","type":"address[]","internalType":"address[]"},{"name":"","type":"uint256[]","internalType":"uint256[]"}],"stateMutability":"view"},{"type":"function","name":"genesisCircSupply","inputs":[],"outputs":[{"name":"","type":"uint256","internalType":"uint256"}],"stateMutability":"view"},{"type":"function","name":"genesisValidators","inputs":[],"outputs":[{"name":"","type":"tuple[]","internalType":"struct Validator[]","components":[{"name":"weight","type":"uint256","internalType":"uint256"},{"name":"addr","type":"address","internalType":"address"},{"name":"metadata","type":"bytes","internalType":"bytes"}]}],"stateMutability":"view"},{"type":"function","name":"getActiveValidatorsNumber","inputs":[],"outputs":[{"name":"","type":"uint16","internalType":"uint16"}],"stateMutability":"view"},{"type":"function","name":"getBootstrapNodes","inputs":[],"outputs":[{"name":"","type":"string[]","internalType":"string[]"}],"stateMutability":"view"},{"type":"function","name":"getConfigurationNumbers","inputs":[],"outputs":[{"name":"","type":"uint64","internalType":"uint64"},{"name":"","type":"uint64","internalType":"uint64"}],"stateMutability":"view"},{"type":"function","name":"getParent","inputs":[],"outputs":[{"name":"","type":"tuple","internalType":"struct SubnetID","components":[{"name":"root","type":"uint64","internalType":"uint64"},{"name":"route","type":"address[]","internalType":"address[]"}]}],"stateMutability":"view"},{"type":"function","name":"getRelayerReward","inputs":[{"name":"relayer","type":"address","internalType":"address"}],"outputs":[{"name":"","type":"uint256","internalType":"uint256"}],"stateMutability":"view"},{"type":"function","name":"getTotalConfirmedCollateral","inputs":[],"outputs":[{"name":"","type":"uint256","internalType":"uint256"}],"stateMutability":"view"},{"type":"function","name":"getTotalValidatorCollateral","inputs":[{"name":"validator","type":"address","internalType":"address"}],"outputs":[{"name":"","type":"uint256","internalType":"uint256"}],"stateMutability":"view"},{"type":"function","name":"getTotalValidatorsNumber","inputs":[],"outputs":[{"name":"","type":"uint16","internalType":"uint16"}],"stateMutability":"view"},{"type":"function","name":"getValidator","inputs":[{"name":"validatorAddress","type":"address","internalType":"address"}],"outputs":[{"name":"validator","type":"tuple","internalType":"struct ValidatorInfo","components":[{"name":"confirmedCollateral","type":"uint256","internalType":"uint256"},{"name":"totalCollateral","type":"uint256","internalType":"uint256"},{"name":"metadata","type":"bytes","internalType":"bytes"}]}],"stateMutability":"view"},{"type":"function","name":"hasSubmittedInLastBottomUpCheckpointHeight","inputs":[{"name":"validator","type":"address","internalType":"address"}],"outputs":[{"name":"","type":"bool","internalType":"bool"}],"stateMutability":"view"},{"type":"function","name":"ipcGatewayAddr","inputs":[],"outputs":[{"name":"","type":"address","internalType":"address"}],"stateMutability":"view"},{"type":"function","name":"isActiveValidator","inputs":[{"name":"validator","type":"address","internalType":"address"}],"outputs":[{"name":"","type":"bool","internalType":"bool"}],"stateMutability":"view"},{"type":"function","name":"isWaitingValidator","inputs":[{"name":"validator","type":"address","internalType":"address"}],"outputs":[{"name":"","type":"bool","internalType":"bool"}],"stateMutability":"view"},{"type":"function","name":"killed","inputs":[],"outputs":[{"name":"","type":"bool","internalType":"bool"}],"stateMutability":"view"},{"type":"function","name":"lastBottomUpCheckpointHeight","inputs":[],"outputs":[{"name":"","type":"uint64","internalType":"uint64"}],"stateMutability":"view"},{"type":"function","name":"majorityPercentage","inputs":[],"outputs":[{"name":"","type":"uint8","internalType":"uint8"}],"stateMutability":"view"},{"type":"function","name":"minActivationCollateral","inputs":[],"outputs":[{"name":"","type":"uint256","internalType":"uint256"}],"stateMutability":"view"},{"type":"function","name":"minCrossMsgFee","inputs":[],"outputs":[{"name":"","type":"uint256","internalType":"uint256"}],"stateMutability":"view"},{"type":"function","name":"minValidators","inputs":[],"outputs":[{"name":"","type":"uint64","internalType":"uint64"}],"stateMutability":"view"},{"type":"function","name":"powerScale","inputs":[],"outputs":[{"name":"","type":"int8","internalType":"int8"}],"stateMutability":"view"}],"bytecode":{"object":"0x608060405234801561001057600080fd5b506115f6806100206000396000f3fe608060405234801561001057600080fd5b50600436106101da5760003560e01c80636cb2ecee116101045780639e33bd02116100a2578063c7cda76211610071578063c7cda76214610443578063cfca28241461044b578063d081be0314610466578063d92e8f121461047957600080fd5b80639e33bd02146103e4578063ad81e4d6146103ec578063b2bd295e14610402578063c5ab22411461042b57600080fd5b80638ef3f761116100de5780638ef3f7611461039e578063903e6930146103b1578063948628a9146103c75780639754b29e146103cf57600080fd5b80636cb2ecee1461035757806372d0a0e01461037857806380f760211461038957600080fd5b80633354c3e11161017c57806340550a1c1161014b57806340550a1c1461031557806352d182d114610328578063599c7bd1146103305780636704287c1461034f57600080fd5b80633354c3e1146102ad57806335142c8c146102c857806338a210b3146102d85780633da332411461030257600080fd5b80631904bb2e116101b85780631904bb2e146102545780631f3a0e41146102745780632bc31eb314610292578063332a5ac9146102a557600080fd5b806306c46853146101df578063133f74ea146102095780631597bf7e14610233575b600080fd5b6007546001600160401b03165b6040516001600160401b0390911681526020015b60405180910390f35b61021c610217366004610dd3565b61048e565b604080519215158352602083019190915201610200565b610246610241366004610e05565b6104d4565b604051908152602001610200565b610267610262366004610e05565b6104f7565b6040516102009190610e66565b600d546301000000900460ff165b6040519015158152602001610200565b6102826102a0366004610e05565b6105fe565b61024661062c565b600e5461ffff165b60405161ffff9091168152602001610200565b600d54610100900460ff16610282565b601754604080516001600160401b038084168252600160401b909304909216602083015201610200565b610246610310366004610e9d565b61063b565b610282610323366004610e05565b61066e565b6102b5610679565b600954600160a01b900460ff1660405160ff9091168152602001610200565b600a54610246565b61036a610365366004610dd3565b610683565b604051610200929190610fd6565b6005546001600160401b03166101ec565b610391610816565b6040516102009190610ff1565b600d5460ff166040516102009190611004565b6103b96108ab565b60405161020092919061102c565b600254610246565b6103d76109f3565b6040516102009190611083565b600654610246565b601b5460405160009190910b8152602001610200565b610246610410366004610e05565b6001600160a01b03166000908152601c602052604090205490565b600754600160401b90046001600160401b03166101ec565b6102b5610b72565b6009546040516001600160a01b039091168152602001610200565b610282610474366004610e05565b610b7c565b610481610b87565b60405161020091906110e7565b60008060008061049d85610683565b9150915081816040516020016104b39190611171565b60405160208183030381529060405280519060200120935093505050915091565b6001600160a01b0381166000908152601060205260408120600101545b92915050565b61051b60405180606001604052806000815260200160008152602001606081525090565b6000600e016002016000836001600160a01b03166001600160a01b03168152602001908152602001600020604051806060016040529081600082015481526020016001820154815260200160028201805461057590611184565b80601f01602080910402602001604051908101604052809291908181526020018280546105a190611184565b80156105ee5780601f106105c3576101008083540402835291602001916105ee565b820191906000526020600020905b8154815290600101906020018083116105d157829003601f168201915b5050505050815250509050919050565b6005546001600160401b03166000818152601d602052604081209091906106259084610c9b565b9392505050565b6000610636610cbd565b905090565b6000828260405160200161065092919061138c565b60405160208183030381529060405280519060200120905092915050565b60006104f182610ccc565b6000610636610cda565b6040805160e081018252600060a08201818152606060c0840181905290835260208301829052928201819052918101829052608081018290526001600160401b0380841660009081526020818152604091829020825160e081018452815490941660a08501908152600182018054855181860281018601909652808652929486949293869360c0870193919083018282801561074857602002820191906000526020600020905b81546001600160a01b0316815260019091019060200180831161072a575b50505091909252505050815260028201546001600160401b0390811660208301526003830154604080840191909152600480850154909216606084015260059093015460809092019190915282519151630c133d1360e31b815292935073__$a0fe38a9a81205afccc10810b09a4d3f45$__92636099e898926107cd929091016114dd565b602060405180830381865af41580156107ea573d6000803e3d6000fd5b505050506040513d601f19601f8201168201806040525081019061080e9190611547565b159150915091565b604080518082019091526000815260606020820152604080518082018252600b80546001600160401b03168252600c8054845160208281028201810190965281815293949293838601939092919083018282801561089d57602002820191906000526020600020905b81546001600160a01b0316815260019091019060200180831161087f575b505050505081525050905090565b60045460609081906000816001600160401b038111156108cd576108cd611564565b6040519080825280602002602001820160405280156108f6578160200160208202803683370190505b5090506000826001600160401b0381111561091357610913611564565b60405190808252806020026020018201604052801561093c578160200160208202803683370190505b50905060005b838110156109e85760008060040182815481106109615761096161157a565b9060005260206000200160009054906101000a90046001600160a01b03169050808483815181106109945761099461157a565b6001600160a01b0392831660209182029290920181019190915290821660009081526003909152604090205483518490849081106109d4576109d461157a565b602090810291909101015250600101610942565b509094909350915050565b60606000610a01601f610cf6565b90506000816001600160401b03811115610a1d57610a1d611564565b604051908082528060200260200182016040528015610a5057816020015b6060815260200190600190039081610a3b5790505b50905081600003610a615792915050565b6000610a6d601f610d00565b905060005b83811015610b69576000601e016000838381518110610a9357610a9361157a565b60200260200101516001600160a01b03166001600160a01b031681526020019081526020016000208054610ac690611184565b80601f0160208091040260200160405190810160405280929190818152602001828054610af290611184565b8015610b3f5780601f10610b1457610100808354040283529160200191610b3f565b820191906000526020600020905b815481529060010190602001808311610b2257829003601f168201915b5050505050838281518110610b5657610b5661157a565b6020908102919091010152600101610a72565b50909392505050565b6000610636610d0d565b60006104f182610d1a565b60606000600101805480602002602001604051908101604052809291908181526020016000905b82821015610c9257600084815260209081902060408051606081018252600386029092018054835260018101546001600160a01b03169383019390935260028301805492939291840191610c0190611184565b80601f0160208091040260200160405190810160405280929190818152602001828054610c2d90611184565b8015610c7a5780601f10610c4f57610100808354040283529160200191610c7a565b820191906000526020600020905b815481529060010190602001808311610c5d57829003601f168201915b50505050508152505081526020019060010190610bae565b50505050905090565b6001600160a01b03811660009081526001830160205260408120541515610625565b600f5460009081905b91505090565b600080610625601184610d24565b6011546014546000918291610cc69161ffff9081169116611590565b60006104f1825490565b6060600061062583610d4a565b600080610cc6600e610da6565b6000806106256014845b6001600160a01b038116600090815260018301602052604081205461ffff161515610625565b606081600001805480602002602001604051908101604052809291908181526020018280548015610d9a57602002820191906000526020600020905b815481526020019060010190808311610d86575b50505050509050919050565b60006104f1826003015461ffff1690565b80356001600160401b0381168114610dce57600080fd5b919050565b600060208284031215610de557600080fd5b61062582610db7565b80356001600160a01b0381168114610dce57600080fd5b600060208284031215610e1757600080fd5b61062582610dee565b6000815180845260005b81811015610e4657602081850181015186830182015201610e2a565b506000602082860101526020601f19601f83011685010191505092915050565b60208152815160208201526020820151604082015260006040830151606080840152610e956080840182610e20565b949350505050565b60008060208385031215610eb057600080fd5b82356001600160401b0380821115610ec757600080fd5b818501915085601f830112610edb57600080fd5b813581811115610eea57600080fd5b8660208260051b8501011115610eff57600080fd5b60209290920196919550909350505050565b60008151808452602080850194506020840160005b83811015610f4b5781516001600160a01b031687529582019590820190600101610f26565b509495945050505050565b6001600160401b0381511682526000602082015160406020850152610e956040850182610f11565b6000815160a08452610f9360a0850182610f56565b905060208301516001600160401b038082166020870152604085015160408701528060608601511660608701525050608083015160808501528091505092915050565b8215158152604060208201526000610e956040830184610f7e565b6020815260006106256020830184610f56565b602081016001831061102657634e487b7160e01b600052602160045260246000fd5b91905290565b60408152600061103f6040830185610f11565b82810360208481019190915284518083528582019282019060005b818110156110765784518352938301939183019160010161105a565b5090979650505050505050565b600060208083016020845280855180835260408601915060408160051b87010192506020870160005b828110156110da57603f198886030184526110c8858351610e20565b945092850192908501906001016110ac565b5092979650505050505050565b600060208083018184528085518083526040925060408601915060408160051b87010184880160005b8381101561116357888303603f19018552815180518452878101516001600160a01b031688850152860151606087850181905261114f81860183610e20565b968901969450505090860190600101611110565b509098975050505050505050565b6020815260006106256020830184610f7e565b600181811c9082168061119857607f821691505b6020821081036111b857634e487b7160e01b600052602260045260246000fd5b50919050565b60008235603e198336030181126111d457600080fd5b90910192915050565b6000808335601e198436030181126111f457600080fd5b83016020810192503590506001600160401b0381111561121357600080fd5b80360382131561122257600080fd5b9250929050565b81835281816020850137506000828201602090810191909152601f909101601f19169091010190565b6000813560ff811680821461126657600080fd5b84525061127660208301836111dd565b6040602086015261128b604086018284611229565b95945050505050565b60006112a082836111be565b60408452608084016001600160401b03806112ba84610db7565b166040870152602080840135601e198536030181126112d857600080fd5b909301838101939035828111156112ee57600080fd5b8060051b360385131561130057600080fd5b604060608901529283905260009260a0880192505b80841015611345576001600160a01b0361132e86610dee565b168352938101936001939093019291810191611315565b50611352818701876111be565b935086820381880152506113668184611252565b9695505050505050565b801515811461137e57600080fd5b50565b8035610dce81611370565b60208082528181018390526000906040808401600586901b8501820187855b8881101561116357603f19808985030185526113c7838c6111be565b803560de198236030181126113db57600080fd5b87865281016113ea81806111be565b60e0808a8901526113ff610120890183611294565b915061140d8b8401846111be565b6060868a850301818b01526114228483611294565b9350608091508b850135828b015261143b818601610db7565b905060a06001600160401b038216818c015282860135925063ffffffff60e01b8316831461146857600080fd5b60c09150611481828c01846001600160e01b0319169052565b61148d818701876111dd565b93509050878b860301848c01526114a5858483611229565b975050808501356101008b015250505050506114c2888201611381565b151594880194909452938601939250908501906001016113ab565b602080825282516001600160401b0316828201528281015160408084015280516060840181905260009291820190839060808601905b8083101561153c5783516001600160a01b03168252928401926001929092019190840190611513565b509695505050505050565b60006020828403121561155957600080fd5b815161062581611370565b634e487b7160e01b600052604160045260246000fd5b634e487b7160e01b600052603260045260246000fd5b61ffff8181168382160190808211156115b957634e487b7160e01b600052601160045260246000fd5b509291505056fea2646970667358221220548e32748bb0db8650536f88467387641f913c2deaeb7afb2800299cc3fe5e8864736f6c63430008160033","linkReferences":{"src/lib/SubnetIDHelper.sol":{"SubnetIDHelper":[{"start":1991,"length":20}]}}},"methodIdentifiers":{"activeValidatorsLimit()":"3354c3e1","bootstrapped()":"35142c8c","bottomUpCheckPeriod()":"06c46853","bottomUpCheckpointAtEpoch(uint64)":"6cb2ecee","bottomUpCheckpointHashAtEpoch(uint64)":"133f74ea","consensus()":"8ef3f761","crossMsgsHash(((((uint64,address[]),(uint8,bytes)),((uint64,address[]),(uint8,bytes)),uint256,uint64,bytes4,bytes,uint256),bool)[])":"3da33241","genesisBalances()":"903e6930","genesisCircSupply()":"948628a9","genesisValidators()":"d92e8f12","getActiveValidatorsNumber()":"c7cda762","getBootstrapNodes()":"9754b29e","getConfigurationNumbers()":"38a210b3","getParent()":"80f76021","getRelayerReward(address)":"b2bd295e","getTotalConfirmedCollateral()":"332a5ac9","getTotalValidatorCollateral(address)":"1597bf7e","getTotalValidatorsNumber()":"52d182d1","getValidator(address)":"1904bb2e","hasSubmittedInLastBottomUpCheckpointHeight(address)":"2bc31eb3","ipcGatewayAddr()":"cfca2824","isActiveValidator(address)":"40550a1c","isWaitingValidator(address)":"d081be03","killed()":"1f3a0e41","lastBottomUpCheckpointHeight()":"72d0a0e0","majorityPercentage()":"599c7bd1","minActivationCollateral()":"9e33bd02","minCrossMsgFee()":"6704287c","minValidators()":"c5ab2241","powerScale()":"ad81e4d6"},"id":68}