{"abi":[{"type":"function","name":"activeValidatorsLimit","inputs":[],"outputs":[{"name":"","type":"uint16","internalType":"uint16"}],"stateMutability":"view"},{"type":"function","name":"bootstrapped","inputs":[],"outputs":[{"name":"","type":"bool","internalType":"bool"}],"stateMutability":"view"},{"type":"function","name":"bottomUpCheckPeriod","inputs":[],"outputs":[{"name":"","type":"uint64","internalType":"uint64"}],"stateMutability":"view"},{"type":"function","name":"bottomUpCheckpointAtEpoch","inputs":[{"name":"epoch","type":"uint64","internalType":"uint64"}],"outputs":[{"name":"exists","type":"bool","internalType":"bool"},{"name":"checkpoint","type":"tuple","internalType":"struct BottomUpCheckpoint","components":[{"name":"subnetID","type":"tuple","internalType":"struct SubnetID","components":[{"name":"root","type":"uint64","internalType":"uint64"},{"name":"route","type":"address[]","internalType":"address[]"}]},{"name":"blockHeight","type":"uint64","internalType":"uint64"},{"name":"blockHash","type":"bytes32","internalType":"bytes32"},{"name":"nextConfigurationNumber","type":"uint64","internalType":"uint64"},{"name":"crossMessagesHash","type":"bytes32","internalType":"bytes32"}]}],"stateMutability":"view"},{"type":"function","name":"bottomUpCheckpointHashAtEpoch","inputs":[{"name":"epoch","type":"uint64","internalType":"uint64"}],"outputs":[{"name":"","type":"bool","internalType":"bool"},{"name":"","type":"bytes32","internalType":"bytes32"}],"stateMutability":"view"},{"type":"function","name":"consensus","inputs":[],"outputs":[{"name":"","type":"uint8","internalType":"enum ConsensusType"}],"stateMutability":"view"},{"type":"function","name":"crossMsgsHash","inputs":[{"name":"messages","type":"tuple[]","internalType":"struct CrossMsg[]","components":[{"name":"message","type":"tuple","internalType":"struct StorableMsg","components":[{"name":"from","type":"tuple","internalType":"struct IPCAddress","components":[{"name":"subnetId","type":"tuple","internalType":"struct SubnetID","components":[{"name":"root","type":"uint64","internalType":"uint64"},{"name":"route","type":"address[]","internalType":"address[]"}]},{"name":"rawAddress","type":"tuple","internalType":"struct FvmAddress","components":[{"name":"addrType","type":"uint8","internalType":"uint8"},{"name":"payload","type":"bytes","internalType":"bytes"}]}]},{"name":"to","type":"tuple","internalType":"struct IPCAddress","components":[{"name":"subnetId","type":"tuple","internalType":"struct SubnetID","components":[{"name":"root","type":"uint64","internalType":"uint64"},{"name":"route","type":"address[]","internalType":"address[]"}]},{"name":"rawAddress","type":"tuple","internalType":"struct FvmAddress","components":[{"name":"addrType","type":"uint8","internalType":"uint8"},{"name":"payload","type":"bytes","internalType":"bytes"}]}]},{"name":"value","type":"uint256","internalType":"uint256"},{"name":"nonce","type":"uint64","internalType":"uint64"},{"name":"method","type":"bytes4","internalType":"bytes4"},{"name":"params","type":"bytes","internalType":"bytes"},{"name":"fee","type":"uint256","internalType":"uint256"}]},{"name":"wrapped","type":"bool","internalType":"bool"}]}],"outputs":[{"name":"","type":"bytes32","internalType":"bytes32"}],"stateMutability":"pure"},{"type":"function","name":"genesisBalances","inputs":[],"outputs":[{"name":"","type":"address[]","internalType":"address[]"},{"name":"","type":"uint256[]","internalType":"uint256[]"}],"stateMutability":"view"},{"type":"function","name":"genesisCircSupply","inputs":[],"outputs":[{"name":"","type":"uint256","internalType":"uint256"}],"stateMutability":"view"},{"type":"function","name":"genesisValidators","inputs":[],"outputs":[{"name":"","type":"tuple[]","internalType":"struct Validator[]","components":[{"name":"weight","type":"uint256","internalType":"uint256"},{"name":"addr","type":"address","internalType":"address"},{"name":"metadata","type":"bytes","internalType":"bytes"}]}],"stateMutability":"view"},{"type":"function","name":"getActiveValidatorsNumber","inputs":[],"outputs":[{"name":"","type":"uint16","internalType":"uint16"}],"stateMutability":"view"},{"type":"function","name":"getBootstrapNodes","inputs":[],"outputs":[{"name":"","type":"string[]","internalType":"string[]"}],"stateMutability":"view"},{"type":"function","name":"getConfigurationNumbers","inputs":[],"outputs":[{"name":"","type":"uint64","internalType":"uint64"},{"name":"","type":"uint64","internalType":"uint64"}],"stateMutability":"view"},{"type":"function","name":"getParent","inputs":[],"outputs":[{"name":"","type":"tuple","internalType":"struct SubnetID","components":[{"name":"root","type":"uint64","internalType":"uint64"},{"name":"route","type":"address[]","internalType":"address[]"}]}],"stateMutability":"view"},{"type":"function","name":"getRelayerReward","inputs":[{"name":"relayer","type":"address","internalType":"address"}],"outputs":[{"name":"","type":"uint256","internalType":"uint256"}],"stateMutability":"view"},{"type":"function","name":"getTotalConfirmedCollateral","inputs":[],"outputs":[{"name":"","type":"uint256","internalType":"uint256"}],"stateMutability":"view"},{"type":"function","name":"getTotalValidatorCollateral","inputs":[{"name":"validator","type":"address","internalType":"address"}],"outputs":[{"name":"","type":"uint256","internalType":"uint256"}],"stateMutability":"view"},{"type":"function","name":"getTotalValidatorsNumber","inputs":[],"outputs":[{"name":"","type":"uint16","internalType":"uint16"}],"stateMutability":"view"},{"type":"function","name":"getValidator","inputs":[{"name":"validatorAddress","type":"address","internalType":"address"}],"outputs":[{"name":"validator","type":"tuple","internalType":"struct ValidatorInfo","components":[{"name":"confirmedCollateral","type":"uint256","internalType":"uint256"},{"name":"totalCollateral","type":"uint256","internalType":"uint256"},{"name":"metadata","type":"bytes","internalType":"bytes"}]}],"stateMutability":"view"},{"type":"function","name":"hasSubmittedInLastBottomUpCheckpointHeight","inputs":[{"name":"validator","type":"address","internalType":"address"}],"outputs":[{"name":"","type":"bool","internalType":"bool"}],"stateMutability":"view"},{"type":"function","name":"ipcGatewayAddr","inputs":[],"outputs":[{"name":"","type":"address","internalType":"address"}],"stateMutability":"view"},{"type":"function","name":"isActiveValidator","inputs":[{"name":"validator","type":"address","internalType":"address"}],"outputs":[{"name":"","type":"bool","internalType":"bool"}],"stateMutability":"view"},{"type":"function","name":"isWaitingValidator","inputs":[{"name":"validator","type":"address","internalType":"address"}],"outputs":[{"name":"","type":"bool","internalType":"bool"}],"stateMutability":"view"},{"type":"function","name":"killed","inputs":[],"outputs":[{"name":"","type":"bool","internalType":"bool"}],"stateMutability":"view"},{"type":"function","name":"lastBottomUpCheckpointHeight","inputs":[],"outputs":[{"name":"","type":"uint64","internalType":"uint64"}],"stateMutability":"view"},{"type":"function","name":"majorityPercentage","inputs":[],"outputs":[{"name":"","type":"uint8","internalType":"uint8"}],"stateMutability":"view"},{"type":"function","name":"minActivationCollateral","inputs":[],"outputs":[{"name":"","type":"uint256","internalType":"uint256"}],"stateMutability":"view"},{"type":"function","name":"minCrossMsgFee","inputs":[],"outputs":[{"name":"","type":"uint256","internalType":"uint256"}],"stateMutability":"view"},{"type":"function","name":"minValidators","inputs":[],"outputs":[{"name":"","type":"uint64","internalType":"uint64"}],"stateMutability":"view"},{"type":"function","name":"powerScale","inputs":[],"outputs":[{"name":"","type":"int8","internalType":"int8"}],"stateMutability":"view"}],"bytecode":{"object":"0x608080604052346100165761134d908161001c8239f35b600080fdfe60806040908082526004908136101561001757600080fd5b600091823560e01c91826306c4685314610bf457508163133f74ea14610b9b5781631597bf7e14610b555781631904bb2e14610a9d5781631f3a0e4114610a765781632bc31eb314610a28578163332a5ac914610a095781633354c3e1146109e657816335142c8c146109bf57816338a210b31461098f5781633da33241146107d857816340550a1c1461079957816352d182d114610751578163599c7bd11461072c5781636704287c1461070d5781636cb2ecee146106cc57816372d0a0e0146106a457816380f76021146105e45781638ef3f761146105a5578163903e69301461047857508063948628a9146104595780639754b29e146103e35780639e33bd02146103c4578063ad81e4d6146103a4578063b2bd295e1461036c578063c5ab224114610343578063c7cda76214610320578063cfca2824146102f7578063d081be03146102b45763d92e8f121461017057600080fd5b346102b157806003193601126102b15790600180549261018f846111be565b61019b84519182610db5565b84815260018252602080820195837fb10e2d527612073b26eecdfd717e6a320cf44b4afac2b0732d9fcbe2b7fa0cf6885b83831061025257505050508451948186019282875251809352808601818460051b8801019794915b8483106102015787890388f35b9091929394958480610240839b603f198c82030187528a51866060918051845260018060a01b0386820151168685015201519181888201520190610c5e565b9a9801969594919091019201906101f4565b96600385829b998b9798999b5161026881610d4e565b85548152848601546001600160a01b0316838201528851610297816102908160028b01610dd6565b0382610db5565b8982015281520192019201919098969897959493976101cc565b80fd5b5090346102f35760203660031901126102f35760209161ffff9082906001600160a01b036102e0610c48565b1681526015855220541615159051908152f35b5080fd5b5090346102f357816003193601126102f35760095490516001600160a01b039091168152602090f35b5090346102f357816003193601126102f35760209061ffff601154169051908152f35b5090346102f357816003193601126102f3576007548151911c6001600160401b03168152602090f35b5090346102f35760203660031901126102f35760209181906001600160a01b03610394610c48565b168152601c845220549051908152f35b5090346102f357816003193601126102f357601b549051910b8152602090f35b5090346102f357816003193601126102f3576020906006549051908152f35b50346102b157806003193601126102b1576103fc6111ff565b8251916020808401906020855283518092526020868601968360051b870101940192955b82871061042d5785850386f35b909192938280610449600193603f198a82030186528851610c5e565b9601920196019592919092610420565b5090346102f357816003193601126102f3576020906002549051908152f35b9050346102f357816003193601126102f3579190825490610498826111be565b936104a584519586610db5565b8285526104b1836111be565b601f1993602091850136888401376104c8816111be565b926104d587519485610db5565b8184526104e1826111be565b8484019601368737845b82811061054057505050806105098651978789988952880190610c9e565b928684038288015251928381520193925b82811061052957505050500390f35b83518552869550938101939281019260010161051a565b60019082879698999a959752818060a01b03817f8a35acfbc15ff81a39ae7d344fd709f28e8600b4aa8c65c6b64bfe7fe36bd19b0154168061058283886111d5565b5286526003875289862054610597828a6111d5565b5201979695939492976104eb565b8284346102f357816003193601126102f35760ff600d541690519160018210156105d157602083838152f35b634e487b7160e01b815260218452602490fd5b8284346102f357816003193601126102f3576105fe610fe3565b5080519061060b82610d7f565b600b546001600160401b031682528051600c80548083529085526020808301957fdf6966c971051c3d54ec59162606531493a51404a002842f56009d7e5cf4a8c792915b828210610684575050505061066981610680950382610db5565b602083015251918291602083526020830190610cdb565b0390f35b83546001600160a01b03168852968701966001938401939091019061064f565b8284346102f357816003193601126102f3576020906001600160401b03600554169051908152f35b5050346102b15760203660031901126102b157506106806106f36106ee610c19565b610ffd565b839291925193849315158452806020850152830190610d04565b8284346102f357816003193601126102f357602090600a549051908152f35b8284346102f357816003193601126102f35760209060ff60095460a01c169051908152f35b8284346102f357816003193601126102f35761ffff908160145416826011541601928284116107865750602093505191168152f35b634e487b7160e01b815260118552602490fd5b8284346102f35760203660031901126102f35760209161ffff9082906001600160a01b036107c5610c48565b1681526012855220541615159051908152f35b8383346102b157602092836003193601126102f3578035906001600160401b039081831161098b573660238401121561098b5782013581811161098b5760248301908060051b936024853692010111610987579093855193849288840196818986018b8a525260608086019386010193819681925b8484106108775750505050505061086d925003601f198101835282610db5565b5190209051908152f35b9193959092949650605f198982030187526108928883610e93565b803560de198236030181121561097f57906108ec8e6108db8f9594846108d291019680875260e06108c38980610e93565b91880152610120870190610ef9565b91860186610e93565b848203603f19016060860152610ef9565b8d608090850135818501528661090460608701610c34565b1660a08501528401359063ffffffff60e01b821680920361098357908f929161094d9060c0928387015261093b60a0880188610ea7565b878303603f190160e089015290610ed8565b94013561010084015201359081151580920361097f576001928e9283809301529901970194019188969795939161084d565b8580fd5b8780fd5b8480fd5b8380fd5b5050346102b157806003193601126102b157506017546001600160401b038251918181168352831c166020820152f35b8284346102f357816003193601126102f35760209060ff600d5460081c1690519015158152f35b8284346102f357816003193601126102f35760209061ffff600e54169051908152f35b8284346102f357816003193601126102f357602090600f549051908152f35b8284346102f35760203660031901126102f357806020926001610a49610c48565b6001600160401b03600554168352601d865283832090828060a01b03168352018452205415159051908152f35b8284346102f357816003193601126102f35760209060ff600d5460181c1690519015158152f35b5050346102b15760203660031901126102b157610aee90606083610abf610c48565b92815190610acc82610d4e565b8082526020820152015260018060a01b03166000526010602052604060002090565b906106806002825192610b0084610d4e565b84548452610b2a60018601549560208601968752610b2383518095819301610dd6565b0383610db5565b8084019182528051948594602086525160208601525190840152516060808401526080830190610c5e565b8284346102f35760203660031901126102f3576020906001610b92610b78610c48565b6001600160a01b0316600090815260106020526040902090565b01549051908152f35b5050346102b15760203660031901126102b15750610bba6106ee610c19565b8251610be381610bd560208201946020865287830190610d04565b03601f198101835282610db5565b519020825191151582526020820152f35b8390346102f357816003193601126102f3576020906001600160401b03600754168152f35b600435906001600160401b0382168203610c2f57565b600080fd5b35906001600160401b0382168203610c2f57565b600435906001600160a01b0382168203610c2f57565b919082519283825260005b848110610c8a575050826000602080949584010152601f8019910116010190565b602081830181015184830182015201610c69565b90815180825260208080930193019160005b828110610cbe575050505090565b83516001600160a01b031685529381019392810192600101610cb0565b9060406020610d01936001600160401b0381511684520151918160208201520190610c9e565b90565b90608080610d1b845160a0855260a0850190610cdb565b9360208101516001600160401b038091166020860152604082015160408601526060820151166060850152015191015290565b606081019081106001600160401b03821117610d6957604052565b634e487b7160e01b600052604160045260246000fd5b604081019081106001600160401b03821117610d6957604052565b60a081019081106001600160401b03821117610d6957604052565b90601f801991011681019081106001600160401b03821117610d6957604052565b80546000939260018083169383821c938515610e89575b6020958686108114610e7357858552908115610e545750600114610e13575b5050505050565b90939495506000929192528360002092846000945b838610610e4057505050500101903880808080610e0c565b805485870183015294019385908201610e28565b60ff19168685015250505090151560051b010191503880808080610e0c565b634e487b7160e01b600052602260045260246000fd5b93607f1693610ded565b9035603e1982360301811215610c2f570190565b9035601e1982360301811215610c2f5701602081359101916001600160401b038211610c2f578136038313610c2f57565b908060209392818452848401376000828201840152601f01601f1916010190565b90610f048280610e93565b906040815260808101926001600160401b039384610f2185610c34565b16604084015260209384810135601e1982360301811215610c2f5701908482359201958211610c2f578160051b36038613610c2f578190604060608601525260a08301949060005b818110610fbb575050508083610f80920190610e93565b908281850391015280359060ff8216809203610c2f5783610fae604093928493610d01975285810190610ea7565b9390948201520191610ed8565b90919586359060018060a01b038216809203610c2f5790815285019585019190600101610f69565b60405190610ff082610d7f565b6060602083600081520152565b90604080519261100c84610d9a565b611014610fe3565b84526000908160806020968288820152828682015282606082015201526001600160401b03809116825281855282822083519561105087610d9a565b84519261105c84610d7f565b80835416845260018084019487519485858854918281520197895285892090895b8181106111a257505050600590611098878798990389610db5565b858301978852828c5284600282015416868d015260038101548a8d01528460048201541660608d0152015460808b01528751958693630c133d1360e31b8552856004860152606485019251166024850152519188604485015282518092528460848501930191885b81811061118157505050508190038173__$a0fe38a9a81205afccc10810b09a4d3f45$__5af49384156111785750829361113d575b505050159190565b9080929350813d8311611171575b6111558183610db5565b810103126102f357519081151582036102b15750388080611135565b503d61114b565b513d84823e3d90fd5b83516001600160a01b03168552879689965094850194909301928201611100565b82546001600160a01b03168a529887019891850191850161107d565b6001600160401b038111610d695760051b60200190565b80518210156111e95760209160051b010190565b634e487b7160e01b600052603260045260246000fd5b601f5461120b816111be565b90604061121b6040519384610db5565b818352601f1961122a836111be565b0160005b818110611306575050811561130157604051808382526020809201601f600052817fa03837a25210ee280c2113ff4b77ca23440b19d4866cca721c801278fd08d8079160005b858882106112eb57505061128a92500382610db5565b60005b84811061129c57505050505090565b6001906001600160a01b036112b182856111d5565b5116600052601e84526102906112cf86600020875192838092610dd6565b6112d982896111d5565b526112e481886111d5565b500161128d565b8454835260019485019486945092019101611274565b505090565b80606060208093880101520161122e56fea264697066735822122016cf34712726c660a40e20b4e4293e26a5293653262933e867234867626a088464736f6c63430008160033","linkReferences":{"src/lib/SubnetIDHelper.sol":{"SubnetIDHelper":[{"start":4397,"length":20}]}}},"methodIdentifiers":{"activeValidatorsLimit()":"3354c3e1","bootstrapped()":"35142c8c","bottomUpCheckPeriod()":"06c46853","bottomUpCheckpointAtEpoch(uint64)":"6cb2ecee","bottomUpCheckpointHashAtEpoch(uint64)":"133f74ea","consensus()":"8ef3f761","crossMsgsHash(((((uint64,address[]),(uint8,bytes)),((uint64,address[]),(uint8,bytes)),uint256,uint64,bytes4,bytes,uint256),bool)[])":"3da33241","genesisBalances()":"903e6930","genesisCircSupply()":"948628a9","genesisValidators()":"d92e8f12","getActiveValidatorsNumber()":"c7cda762","getBootstrapNodes()":"9754b29e","getConfigurationNumbers()":"38a210b3","getParent()":"80f76021","getRelayerReward(address)":"b2bd295e","getTotalConfirmedCollateral()":"332a5ac9","getTotalValidatorCollateral(address)":"1597bf7e","getTotalValidatorsNumber()":"52d182d1","getValidator(address)":"1904bb2e","hasSubmittedInLastBottomUpCheckpointHeight(address)":"2bc31eb3","ipcGatewayAddr()":"cfca2824","isActiveValidator(address)":"40550a1c","isWaitingValidator(address)":"d081be03","killed()":"1f3a0e41","lastBottomUpCheckpointHeight()":"72d0a0e0","majorityPercentage()":"599c7bd1","minActivationCollateral()":"9e33bd02","minCrossMsgFee()":"6704287c","minValidators()":"c5ab2241","powerScale()":"ad81e4d6"},"id":74}