{"abi":[{"type":"function","name":"activeValidatorsLimit","inputs":[],"outputs":[{"name":"","type":"uint16","internalType":"uint16"}],"stateMutability":"view"},{"type":"function","name":"bootstrapped","inputs":[],"outputs":[{"name":"","type":"bool","internalType":"bool"}],"stateMutability":"view"},{"type":"function","name":"bottomUpCheckPeriod","inputs":[],"outputs":[{"name":"","type":"uint256","internalType":"uint256"}],"stateMutability":"view"},{"type":"function","name":"bottomUpCheckpointAtEpoch","inputs":[{"name":"epoch","type":"uint256","internalType":"uint256"}],"outputs":[{"name":"exists","type":"bool","internalType":"bool"},{"name":"checkpoint","type":"tuple","internalType":"struct BottomUpCheckpoint","components":[{"name":"subnetID","type":"tuple","internalType":"struct SubnetID","components":[{"name":"root","type":"uint64","internalType":"uint64"},{"name":"route","type":"address[]","internalType":"address[]"}]},{"name":"blockHeight","type":"uint256","internalType":"uint256"},{"name":"blockHash","type":"bytes32","internalType":"bytes32"},{"name":"nextConfigurationNumber","type":"uint64","internalType":"uint64"}]}],"stateMutability":"view"},{"type":"function","name":"bottomUpCheckpointHashAtEpoch","inputs":[{"name":"epoch","type":"uint256","internalType":"uint256"}],"outputs":[{"name":"","type":"bool","internalType":"bool"},{"name":"","type":"bytes32","internalType":"bytes32"}],"stateMutability":"view"},{"type":"function","name":"bottomUpMsgBatchPeriod","inputs":[],"outputs":[{"name":"","type":"uint256","internalType":"uint256"}],"stateMutability":"view"},{"type":"function","name":"consensus","inputs":[],"outputs":[{"name":"","type":"uint8","internalType":"enum ConsensusType"}],"stateMutability":"view"},{"type":"function","name":"crossMsgsHash","inputs":[{"name":"messages","type":"tuple[]","internalType":"struct CrossMsg[]","components":[{"name":"message","type":"tuple","internalType":"struct StorableMsg","components":[{"name":"from","type":"tuple","internalType":"struct IPCAddress","components":[{"name":"subnetId","type":"tuple","internalType":"struct SubnetID","components":[{"name":"root","type":"uint64","internalType":"uint64"},{"name":"route","type":"address[]","internalType":"address[]"}]},{"name":"rawAddress","type":"tuple","internalType":"struct FvmAddress","components":[{"name":"addrType","type":"uint8","internalType":"uint8"},{"name":"payload","type":"bytes","internalType":"bytes"}]}]},{"name":"to","type":"tuple","internalType":"struct IPCAddress","components":[{"name":"subnetId","type":"tuple","internalType":"struct SubnetID","components":[{"name":"root","type":"uint64","internalType":"uint64"},{"name":"route","type":"address[]","internalType":"address[]"}]},{"name":"rawAddress","type":"tuple","internalType":"struct FvmAddress","components":[{"name":"addrType","type":"uint8","internalType":"uint8"},{"name":"payload","type":"bytes","internalType":"bytes"}]}]},{"name":"value","type":"uint256","internalType":"uint256"},{"name":"nonce","type":"uint64","internalType":"uint64"},{"name":"method","type":"bytes4","internalType":"bytes4"},{"name":"params","type":"bytes","internalType":"bytes"},{"name":"fee","type":"uint256","internalType":"uint256"}]},{"name":"wrapped","type":"bool","internalType":"bool"}]}],"outputs":[{"name":"","type":"bytes32","internalType":"bytes32"}],"stateMutability":"pure"},{"type":"function","name":"genesisBalances","inputs":[],"outputs":[{"name":"","type":"address[]","internalType":"address[]"},{"name":"","type":"uint256[]","internalType":"uint256[]"}],"stateMutability":"view"},{"type":"function","name":"genesisCircSupply","inputs":[],"outputs":[{"name":"","type":"uint256","internalType":"uint256"}],"stateMutability":"view"},{"type":"function","name":"genesisValidators","inputs":[],"outputs":[{"name":"","type":"tuple[]","internalType":"struct Validator[]","components":[{"name":"weight","type":"uint256","internalType":"uint256"},{"name":"addr","type":"address","internalType":"address"},{"name":"metadata","type":"bytes","internalType":"bytes"}]}],"stateMutability":"view"},{"type":"function","name":"getActiveValidatorsNumber","inputs":[],"outputs":[{"name":"","type":"uint16","internalType":"uint16"}],"stateMutability":"view"},{"type":"function","name":"getBootstrapNodes","inputs":[],"outputs":[{"name":"","type":"string[]","internalType":"string[]"}],"stateMutability":"view"},{"type":"function","name":"getConfigurationNumbers","inputs":[],"outputs":[{"name":"","type":"uint64","internalType":"uint64"},{"name":"","type":"uint64","internalType":"uint64"}],"stateMutability":"view"},{"type":"function","name":"getParent","inputs":[],"outputs":[{"name":"","type":"tuple","internalType":"struct SubnetID","components":[{"name":"root","type":"uint64","internalType":"uint64"},{"name":"route","type":"address[]","internalType":"address[]"}]}],"stateMutability":"view"},{"type":"function","name":"getRelayerReward","inputs":[{"name":"relayer","type":"address","internalType":"address"}],"outputs":[{"name":"","type":"uint256","internalType":"uint256"}],"stateMutability":"view"},{"type":"function","name":"getTotalConfirmedCollateral","inputs":[],"outputs":[{"name":"","type":"uint256","internalType":"uint256"}],"stateMutability":"view"},{"type":"function","name":"getTotalValidatorCollateral","inputs":[{"name":"validator","type":"address","internalType":"address"}],"outputs":[{"name":"","type":"uint256","internalType":"uint256"}],"stateMutability":"view"},{"type":"function","name":"getTotalValidatorsNumber","inputs":[],"outputs":[{"name":"","type":"uint16","internalType":"uint16"}],"stateMutability":"view"},{"type":"function","name":"getValidator","inputs":[{"name":"validatorAddress","type":"address","internalType":"address"}],"outputs":[{"name":"validator","type":"tuple","internalType":"struct ValidatorInfo","components":[{"name":"confirmedCollateral","type":"uint256","internalType":"uint256"},{"name":"totalCollateral","type":"uint256","internalType":"uint256"},{"name":"metadata","type":"bytes","internalType":"bytes"}]}],"stateMutability":"view"},{"type":"function","name":"hasSubmittedInLastBottomUpCheckpointHeight","inputs":[{"name":"validator","type":"address","internalType":"address"}],"outputs":[{"name":"","type":"bool","internalType":"bool"}],"stateMutability":"view"},{"type":"function","name":"hasSubmittedInLastBottomUpMsgBatchHeight","inputs":[{"name":"validator","type":"address","internalType":"address"}],"outputs":[{"name":"","type":"bool","internalType":"bool"}],"stateMutability":"view"},{"type":"function","name":"ipcGatewayAddr","inputs":[],"outputs":[{"name":"","type":"address","internalType":"address"}],"stateMutability":"view"},{"type":"function","name":"isActiveValidator","inputs":[{"name":"validator","type":"address","internalType":"address"}],"outputs":[{"name":"","type":"bool","internalType":"bool"}],"stateMutability":"view"},{"type":"function","name":"isWaitingValidator","inputs":[{"name":"validator","type":"address","internalType":"address"}],"outputs":[{"name":"","type":"bool","internalType":"bool"}],"stateMutability":"view"},{"type":"function","name":"killed","inputs":[],"outputs":[{"name":"","type":"bool","internalType":"bool"}],"stateMutability":"view"},{"type":"function","name":"lastBottomUpCheckpointHeight","inputs":[],"outputs":[{"name":"","type":"uint256","internalType":"uint256"}],"stateMutability":"view"},{"type":"function","name":"lastBottomUpMsgBatchHeight","inputs":[],"outputs":[{"name":"","type":"uint256","internalType":"uint256"}],"stateMutability":"view"},{"type":"function","name":"majorityPercentage","inputs":[],"outputs":[{"name":"","type":"uint8","internalType":"uint8"}],"stateMutability":"view"},{"type":"function","name":"minActivationCollateral","inputs":[],"outputs":[{"name":"","type":"uint256","internalType":"uint256"}],"stateMutability":"view"},{"type":"function","name":"minCrossMsgFee","inputs":[],"outputs":[{"name":"","type":"uint256","internalType":"uint256"}],"stateMutability":"view"},{"type":"function","name":"minValidators","inputs":[],"outputs":[{"name":"","type":"uint64","internalType":"uint64"}],"stateMutability":"view"},{"type":"function","name":"powerScale","inputs":[],"outputs":[{"name":"","type":"int8","internalType":"int8"}],"stateMutability":"view"}],"bytecode":{"object":"0x608080604052346100165761139c908161001c8239f35b600080fdfe608060408181526004918236101561001657600080fd5b600092833560e01c91826306c4685314610c83575081631597bf7e14610c3d5781631904bb2e14610b855781631f3a0e4114610b5e57816328d5551d14610b3f5781632bc31eb314610af6578163332a5ac914610ad75781633354c3e114610ab457816335142c8c14610a8d57816338a210b314610a5c5781633da33241146108a557816340550a1c146108665781634b0694e21461080d5781634b27aa72146107d157816352d182d114610789578163599c7bd1146107645781636704287c1461074557816369e737fd1461072657816372d0a0e01461070757816380f760211461064d5781638ef3f7611461060e578163903e6930146104df57508063948628a9146104c15780639754b29e1461044c5780639e33bd021461042e578063ad81e4d61461040f578063b2bd295e146103d8578063c5ab2241146103b1578063c7cda7621461038f578063cfca282414610367578063d081be0314610329578063d92e8f12146101e45763f75499dc1461019057600080fd5b346101e05760203660031901126101e0576101d7602092826101b0610c9f565b9160065481526023865220600191828060a01b031660005201602052604060002054151590565b90519015158152f35b5080fd5b50903461032657806003193601126103265790600180549261020584610e3f565b61021184519182610e04565b848152828252602080820195837fb10e2d527612073b26eecdfd717e6a320cf44b4afac2b0732d9fcbe2b7fa0cf6885b8383106102c757505050508451948186019282875251809352808601818460051b8801019794915b8483106102765787890388f35b90919293949584806102b5839b603f198c8203018752858b518051835260018060a01b0385820151168584015201519060609081888201520190610cba565b9a980196959491909101920190610269565b96600385829b998b9798999b516102dd81610d9d565b85548152848601546001600160a01b031683820152885161030c816103058160028b01610e56565b0382610e04565b898201528152019201920191909896989795949397610241565b80fd5b50346101e05760203660031901126101e05760209161ffff9082906001600160a01b03610354610c9f565b168152601a855220541615159051908152f35b50346101e057816003193601126101e057600e5490516001600160a01b039091168152602090f35b50346101e057816003193601126101e05760209061ffff601654169051908152f35b50346101e057816003193601126101e0576020906001600160401b03600c54169051908152f35b50346101e05760203660031901126101e05760209181906001600160a01b036103ff610c9f565b1681526021845220549051908152f35b50346101e057816003193601126101e0576020918254900b9051908152f35b50346101e057816003193601126101e057602090600a549051908152f35b5090346103265780600319360112610326576104666110ec565b825191602080840190808552835180925280868601968360051b870101940192955b8287106104955785850386f35b9091929382806104b1600193603f198a82030186528851610cba565b9601920196019592919092610488565b50346101e057816003193601126101e0576020906002549051908152f35b839150346101e057816003193601126101e057919082549061050082610e3f565b9361050d84519586610e04565b828552601f19928361051e82610e3f565b0190602091368389013761053181610e3f565b9261053e87519485610e04565b81845261054a82610e3f565b8484019601368737845b8281106105a957505050806105728651978789988952880190610cfa565b928684038288015251928381520193925b82811061059257505050500390f35b835185528695509381019392810192600101610583565b60019082879698999a959752818060a01b03817f8a35acfbc15ff81a39ae7d344fd709f28e8600b4aa8c65c6b64bfe7fe36bd19b015416806105eb8388610f13565b5286526003875289862054610600828a610f13565b520197969593949297610554565b8383346101e057816003193601126101e05760ff60125416905191600182101561063a57602083838152f35b634e487b7160e01b815260218452602490fd5b828434610326578060031936011261032657610667610e25565b5081519161067483610dce565b6010546001600160401b03168352805160118054808352908452602093848301917f31ecc21a745e3968a04e9570e4425bc18fa8019c68028196b546d1669c200c68915b868282106106ea5788906106e688886106d3818a0382610e04565b8385015251928284938452830190610d37565b0390f35b83546001600160a01b0316855290930192600192830192016106b8565b5050346101e057816003193601126101e0576020906005549051908152f35b5050346101e057816003193601126101e0576020906008549051908152f35b5050346101e057816003193601126101e057602090600f549051908152f35b5050346101e057816003193601126101e05760209060ff600e5460a01c169051908152f35b8383346101e057816003193601126101e05761ffff908160195416826016541601928284116107be5750602093505191168152f35b634e487b7160e01b815260118552602490fd5b9050823461032657602036600319011261032657506107f36106e69135610f3d565b839291925193849315158452806020850152830190610d60565b90508234610326576020366003190112610326575061082c9035610f3d565b82516108558161084760208201946020865287830190610d60565b03601f198101835282610e04565b519020825191151582526020820152f35b5050346101e05760203660031901126101e05760209161ffff9082906001600160a01b03610892610c9f565b1681526017855220541615159051908152f35b82843461032657602092836003193601126101e0578035906001600160401b0390818311610a585736602384011215610a5857820135818111610a585760248301908060051b936024853692010111610a54579093855193849288840196818986018b8a525260608086019386010193819681925b8484106109445750505050505061093a925003601f198101835282610e04565b5190209051908152f35b9193959092949650605f1989820301875261095f8883611202565b803560de1982360301811215610a4c57906109b98e6109a88f95948461099f91019680875260e06109908980611202565b9188015261012087019061127c565b91860186611202565b848203603f1901606086015261127c565b8d60809085013581850152866109d160608701611216565b1660a08501528401359063ffffffff60e01b8216809203610a5057908f9291610a1a9060c09283870152610a0860a088018861122a565b878303603f190160e08901529061125b565b940135610100840152013590811515809203610a4c576001928e9283809301529901970194019188969795939161091a565b8580fd5b8780fd5b8480fd5b8380fd5b82843461032657806003193601126103265750601c548151906001600160401b03908181168352831c166020820152f35b5050346101e057816003193601126101e05760209060ff60125460081c1690519015158152f35b5050346101e057816003193601126101e05760209061ffff601354169051908152f35b5050346101e057816003193601126101e0576020906014549051908152f35b5050346101e05760203660031901126101e0576101d760209282610b18610c9f565b9160055481526022865220600191828060a01b031660005201602052604060002054151590565b5050346101e057816003193601126101e0576020906006549051908152f35b5050346101e057816003193601126101e05760209060ff60125460181c1690519015158152f35b82843461032657602036600319011261032657610bd690606083610ba7610c9f565b92815190610bb482610d9d565b8082526020820152015260018060a01b03166000526015602052604060002090565b906106e66002825192610be884610d9d565b84548452610c1260018601549560208601968752610c0b83518095819301610e56565b0383610e04565b8084019182528051948594602086525160208601525190840152516060808401526080830190610cba565b5050346101e05760203660031901126101e0576020906001610c7a610c60610c9f565b6001600160a01b0316600090815260156020526040902090565b01549051908152f35b8490346101e057816003193601126101e057602090600b548152f35b600435906001600160a01b0382168203610cb557565b600080fd5b919082519283825260005b848110610ce6575050826000602080949584010152601f8019910116010190565b602081830181015184830182015201610cc5565b90815180825260208080930193019160005b828110610d1a575050505090565b83516001600160a01b031685529381019392810192600101610d0c565b9060406020610d5d936001600160401b0381511684520151918160208201520190610cfa565b90565b9060606001600160401b0381610d7f8551608086526080860190610d37565b94602081015160208601526040810151604086015201511691015290565b606081019081106001600160401b03821117610db857604052565b634e487b7160e01b600052604160045260246000fd5b604081019081106001600160401b03821117610db857604052565b608081019081106001600160401b03821117610db857604052565b90601f801991011681019081106001600160401b03821117610db857604052565b60405190610e3282610dce565b6060602083600081520152565b6001600160401b038111610db85760051b60200190565b80546000939260018083169383821c938515610f09575b6020958686108114610ef357858552908115610ed45750600114610e93575b5050505050565b90939495506000929192528360002092846000945b838610610ec057505050500101903880808080610e8c565b805485870183015294019385908201610ea8565b60ff19168685015250505090151560051b010191503880808080610e8c565b634e487b7160e01b600052602260045260246000fd5b93607f1693610e6d565b8051821015610f275760209160051b010190565b634e487b7160e01b600052603260045260246000fd5b906040805192610f4c84610de9565b610f54610e25565b8452600090816060602096828882015282868201520152815280845281812093825194610f8086610de9565b835191610f8c83610dce565b6001600160401b0380835416845260018084019487519485858854918281520197895285892090895b8181106110d05750505060048491610fd18888999a038a610e04565b868401988952838d528c8760028301549101528c8b600383015491015201541660608b01528751958693630c133d1360e31b8552856004860152606485019251166024850152519188604485015282518092528460848501930191885b8181106110af57505050508190038173__$a0fe38a9a81205afccc10810b09a4d3f45$__5af49384156110a65750829361106b575b505050159190565b9080929350813d831161109f575b6110838183610e04565b810103126101e057519081151582036103265750388080611063565b503d611079565b513d84823e3d90fd5b83516001600160a01b0316855287968996509485019490930192820161102e565b82546001600160a01b03168a5298870198918501918501610fb5565b6025546110f881610e3f565b90604061110781519384610e04565b818352601f1961111683610e3f565b0160005b8181106111f157505081156111ec5780518083825260208092016025600052817f401968ff42a154441da5f6c4c935ac46b8671f0e062baaa62a7545ba53bb6e4c9160005b858882106111d657505061117592500382610e04565b60005b84811061118757505050505090565b6001906001600160a01b0361119c8285610f13565b5116600052602484526103056111ba86600020875192838092610e56565b6111c48289610f13565b526111cf8188610f13565b5001611178565b845483526001948501948694509201910161115f565b505090565b80606060208093880101520161111a565b9035603e1982360301811215610cb5570190565b35906001600160401b0382168203610cb557565b9035601e1982360301811215610cb55701602081359101916001600160401b038211610cb5578136038313610cb557565b908060209392818452848401376000828201840152601f01601f1916010190565b906112878280611202565b906040815260808101926001600160401b0393846112a485611216565b16604084015260209384810135601e1982360301811215610cb55701908482359201958211610cb5578160051b36038613610cb5578190604060608601525260a08301949060005b81811061133e575050508083611303920190611202565b908281850391015280359060ff8216809203610cb55783611331604093928493610d5d97528581019061122a565b939094820152019161125b565b90919586359060018060a01b038216809203610cb557908152850195850191906001016112ec56fea264697066735822122049d6b3b87d2e8756bf166018715add84a463723859532c92f24d39b07d03dfd864736f6c63430008130033","linkReferences":{"src/lib/SubnetIDHelper.sol":{"SubnetIDHelper":[{"start":4187,"length":20}]}}},"methodIdentifiers":{"activeValidatorsLimit()":"3354c3e1","bootstrapped()":"35142c8c","bottomUpCheckPeriod()":"06c46853","bottomUpCheckpointAtEpoch(uint256)":"4b27aa72","bottomUpCheckpointHashAtEpoch(uint256)":"4b0694e2","bottomUpMsgBatchPeriod()":"69e737fd","consensus()":"8ef3f761","crossMsgsHash(((((uint64,address[]),(uint8,bytes)),((uint64,address[]),(uint8,bytes)),uint256,uint64,bytes4,bytes,uint256),bool)[])":"3da33241","genesisBalances()":"903e6930","genesisCircSupply()":"948628a9","genesisValidators()":"d92e8f12","getActiveValidatorsNumber()":"c7cda762","getBootstrapNodes()":"9754b29e","getConfigurationNumbers()":"38a210b3","getParent()":"80f76021","getRelayerReward(address)":"b2bd295e","getTotalConfirmedCollateral()":"332a5ac9","getTotalValidatorCollateral(address)":"1597bf7e","getTotalValidatorsNumber()":"52d182d1","getValidator(address)":"1904bb2e","hasSubmittedInLastBottomUpCheckpointHeight(address)":"2bc31eb3","hasSubmittedInLastBottomUpMsgBatchHeight(address)":"f75499dc","ipcGatewayAddr()":"cfca2824","isActiveValidator(address)":"40550a1c","isWaitingValidator(address)":"d081be03","killed()":"1f3a0e41","lastBottomUpCheckpointHeight()":"72d0a0e0","lastBottomUpMsgBatchHeight()":"28d5551d","majorityPercentage()":"599c7bd1","minActivationCollateral()":"9e33bd02","minCrossMsgFee()":"6704287c","minValidators()":"c5ab2241","powerScale()":"ad81e4d6"},"id":76}