{"abi":[{"type":"function","name":"activeValidatorsLimit","inputs":[],"outputs":[{"name":"","type":"uint16","internalType":"uint16"}],"stateMutability":"view"},{"type":"function","name":"bootstrapped","inputs":[],"outputs":[{"name":"","type":"bool","internalType":"bool"}],"stateMutability":"view"},{"type":"function","name":"bottomUpCheckPeriod","inputs":[],"outputs":[{"name":"","type":"uint256","internalType":"uint256"}],"stateMutability":"view"},{"type":"function","name":"bottomUpCheckpointAtEpoch","inputs":[{"name":"epoch","type":"uint256","internalType":"uint256"}],"outputs":[{"name":"exists","type":"bool","internalType":"bool"},{"name":"checkpoint","type":"tuple","internalType":"struct BottomUpCheckpoint","components":[{"name":"subnetID","type":"tuple","internalType":"struct SubnetID","components":[{"name":"root","type":"uint64","internalType":"uint64"},{"name":"route","type":"address[]","internalType":"address[]"}]},{"name":"blockHeight","type":"uint256","internalType":"uint256"},{"name":"blockHash","type":"bytes32","internalType":"bytes32"},{"name":"nextConfigurationNumber","type":"uint64","internalType":"uint64"}]}],"stateMutability":"view"},{"type":"function","name":"bottomUpCheckpointHashAtEpoch","inputs":[{"name":"epoch","type":"uint256","internalType":"uint256"}],"outputs":[{"name":"","type":"bool","internalType":"bool"},{"name":"","type":"bytes32","internalType":"bytes32"}],"stateMutability":"view"},{"type":"function","name":"consensus","inputs":[],"outputs":[{"name":"","type":"uint8","internalType":"enum ConsensusType"}],"stateMutability":"view"},{"type":"function","name":"crossMsgsHash","inputs":[{"name":"messages","type":"tuple[]","internalType":"struct CrossMsg[]","components":[{"name":"message","type":"tuple","internalType":"struct StorableMsg","components":[{"name":"from","type":"tuple","internalType":"struct IPCAddress","components":[{"name":"subnetId","type":"tuple","internalType":"struct SubnetID","components":[{"name":"root","type":"uint64","internalType":"uint64"},{"name":"route","type":"address[]","internalType":"address[]"}]},{"name":"rawAddress","type":"tuple","internalType":"struct FvmAddress","components":[{"name":"addrType","type":"uint8","internalType":"uint8"},{"name":"payload","type":"bytes","internalType":"bytes"}]}]},{"name":"to","type":"tuple","internalType":"struct IPCAddress","components":[{"name":"subnetId","type":"tuple","internalType":"struct SubnetID","components":[{"name":"root","type":"uint64","internalType":"uint64"},{"name":"route","type":"address[]","internalType":"address[]"}]},{"name":"rawAddress","type":"tuple","internalType":"struct FvmAddress","components":[{"name":"addrType","type":"uint8","internalType":"uint8"},{"name":"payload","type":"bytes","internalType":"bytes"}]}]},{"name":"value","type":"uint256","internalType":"uint256"},{"name":"nonce","type":"uint64","internalType":"uint64"},{"name":"method","type":"bytes4","internalType":"bytes4"},{"name":"params","type":"bytes","internalType":"bytes"},{"name":"fee","type":"uint256","internalType":"uint256"}]},{"name":"wrapped","type":"bool","internalType":"bool"}]}],"outputs":[{"name":"","type":"bytes32","internalType":"bytes32"}],"stateMutability":"pure"},{"type":"function","name":"genesisBalances","inputs":[],"outputs":[{"name":"","type":"address[]","internalType":"address[]"},{"name":"","type":"uint256[]","internalType":"uint256[]"}],"stateMutability":"view"},{"type":"function","name":"genesisCircSupply","inputs":[],"outputs":[{"name":"","type":"uint256","internalType":"uint256"}],"stateMutability":"view"},{"type":"function","name":"genesisValidators","inputs":[],"outputs":[{"name":"","type":"tuple[]","internalType":"struct Validator[]","components":[{"name":"weight","type":"uint256","internalType":"uint256"},{"name":"addr","type":"address","internalType":"address"},{"name":"metadata","type":"bytes","internalType":"bytes"}]}],"stateMutability":"view"},{"type":"function","name":"getActiveValidatorsNumber","inputs":[],"outputs":[{"name":"","type":"uint16","internalType":"uint16"}],"stateMutability":"view"},{"type":"function","name":"getBootstrapNodes","inputs":[],"outputs":[{"name":"","type":"string[]","internalType":"string[]"}],"stateMutability":"view"},{"type":"function","name":"getConfigurationNumbers","inputs":[],"outputs":[{"name":"","type":"uint64","internalType":"uint64"},{"name":"","type":"uint64","internalType":"uint64"}],"stateMutability":"view"},{"type":"function","name":"getParent","inputs":[],"outputs":[{"name":"","type":"tuple","internalType":"struct SubnetID","components":[{"name":"root","type":"uint64","internalType":"uint64"},{"name":"route","type":"address[]","internalType":"address[]"}]}],"stateMutability":"view"},{"type":"function","name":"getRelayerReward","inputs":[{"name":"relayer","type":"address","internalType":"address"}],"outputs":[{"name":"","type":"uint256","internalType":"uint256"}],"stateMutability":"view"},{"type":"function","name":"getTotalConfirmedCollateral","inputs":[],"outputs":[{"name":"","type":"uint256","internalType":"uint256"}],"stateMutability":"view"},{"type":"function","name":"getTotalValidatorCollateral","inputs":[{"name":"validator","type":"address","internalType":"address"}],"outputs":[{"name":"","type":"uint256","internalType":"uint256"}],"stateMutability":"view"},{"type":"function","name":"getTotalValidatorsNumber","inputs":[],"outputs":[{"name":"","type":"uint16","internalType":"uint16"}],"stateMutability":"view"},{"type":"function","name":"getValidator","inputs":[{"name":"validatorAddress","type":"address","internalType":"address"}],"outputs":[{"name":"validator","type":"tuple","internalType":"struct ValidatorInfo","components":[{"name":"confirmedCollateral","type":"uint256","internalType":"uint256"},{"name":"totalCollateral","type":"uint256","internalType":"uint256"},{"name":"metadata","type":"bytes","internalType":"bytes"}]}],"stateMutability":"view"},{"type":"function","name":"hasSubmittedInLastBottomUpCheckpointHeight","inputs":[{"name":"validator","type":"address","internalType":"address"}],"outputs":[{"name":"","type":"bool","internalType":"bool"}],"stateMutability":"view"},{"type":"function","name":"hasSubmittedInLastBottomUpMsgBatchHeight","inputs":[{"name":"validator","type":"address","internalType":"address"}],"outputs":[{"name":"","type":"bool","internalType":"bool"}],"stateMutability":"view"},{"type":"function","name":"ipcGatewayAddr","inputs":[],"outputs":[{"name":"","type":"address","internalType":"address"}],"stateMutability":"view"},{"type":"function","name":"isActiveValidator","inputs":[{"name":"validator","type":"address","internalType":"address"}],"outputs":[{"name":"","type":"bool","internalType":"bool"}],"stateMutability":"view"},{"type":"function","name":"isWaitingValidator","inputs":[{"name":"validator","type":"address","internalType":"address"}],"outputs":[{"name":"","type":"bool","internalType":"bool"}],"stateMutability":"view"},{"type":"function","name":"killed","inputs":[],"outputs":[{"name":"","type":"bool","internalType":"bool"}],"stateMutability":"view"},{"type":"function","name":"lastBottomUpCheckpointHeight","inputs":[],"outputs":[{"name":"","type":"uint256","internalType":"uint256"}],"stateMutability":"view"},{"type":"function","name":"majorityPercentage","inputs":[],"outputs":[{"name":"","type":"uint8","internalType":"uint8"}],"stateMutability":"view"},{"type":"function","name":"minActivationCollateral","inputs":[],"outputs":[{"name":"","type":"uint256","internalType":"uint256"}],"stateMutability":"view"},{"type":"function","name":"minCrossMsgFee","inputs":[],"outputs":[{"name":"","type":"uint256","internalType":"uint256"}],"stateMutability":"view"},{"type":"function","name":"minValidators","inputs":[],"outputs":[{"name":"","type":"uint64","internalType":"uint64"}],"stateMutability":"view"},{"type":"function","name":"powerScale","inputs":[],"outputs":[{"name":"","type":"int8","internalType":"int8"}],"stateMutability":"view"}],"bytecode":{"object":"0x6080806040523461001657611348908161001c8239f35b600080fdfe608060408181526004918236101561001657600080fd5b600092833560e01c91826306c4685314610c2f575081631597bf7e14610be95781631904bb2e14610b315781631f3a0e4114610b0a5781632bc31eb314610ac1578163332a5ac914610aa25781633354c3e114610a7f57816335142c8c14610a5857816338a210b314610a275781633da332411461087057816340550a1c146108315781634b0694e2146107d85781634b27aa721461079c57816352d182d114610754578163599c7bd11461072f5781636704287c1461071057816372d0a0e0146106f157816380f76021146106375781638ef3f761146105f8578163903e6930146104c957508063948628a9146104ab5780639754b29e146104365780639e33bd0214610418578063ad81e4d6146103f9578063b2bd295e146103c2578063c5ab22411461039b578063c7cda76214610379578063cfca282414610351578063d081be0314610313578063d92e8f12146101ce5763f75499dc1461017a57600080fd5b346101ca5760203660031901126101ca576101c16020928261019a610c4b565b9160065481526023865220600191828060a01b031660005201602052604060002054151590565b90519015158152f35b5080fd5b5090346103105780600319360112610310579060018054926101ef84610deb565b6101fb84519182610db0565b848152828252602080820195837fb10e2d527612073b26eecdfd717e6a320cf44b4afac2b0732d9fcbe2b7fa0cf6885b8383106102b157505050508451948186019282875251809352808601818460051b8801019794915b8483106102605787890388f35b909192939495848061029f839b603f198c8203018752858b518051835260018060a01b0385820151168584015201519060609081888201520190610c66565b9a980196959491909101920190610253565b96600385829b998b9798999b516102c781610d49565b85548152848601546001600160a01b03168382015288516102f6816102ef8160028b01610e02565b0382610db0565b89820152815201920192019190989698979594939761022b565b80fd5b50346101ca5760203660031901126101ca5760209161ffff9082906001600160a01b0361033e610c4b565b168152601a855220541615159051908152f35b50346101ca57816003193601126101ca57600e5490516001600160a01b039091168152602090f35b50346101ca57816003193601126101ca5760209061ffff601654169051908152f35b50346101ca57816003193601126101ca576020906001600160401b03600c54169051908152f35b50346101ca5760203660031901126101ca5760209181906001600160a01b036103e9610c4b565b1681526021845220549051908152f35b50346101ca57816003193601126101ca576020918254900b9051908152f35b50346101ca57816003193601126101ca57602090600a549051908152f35b509034610310578060031936011261031057610450611098565b825191602080840190808552835180925280868601968360051b870101940192955b82871061047f5785850386f35b90919293828061049b600193603f198a82030186528851610c66565b9601920196019592919092610472565b50346101ca57816003193601126101ca576020906002549051908152f35b839150346101ca57816003193601126101ca5791908254906104ea82610deb565b936104f784519586610db0565b828552601f19928361050882610deb565b0190602091368389013761051b81610deb565b9261052887519485610db0565b81845261053482610deb565b8484019601368737845b828110610593575050508061055c8651978789988952880190610ca6565b928684038288015251928381520193925b82811061057c57505050500390f35b83518552869550938101939281019260010161056d565b60019082879698999a959752818060a01b03817f8a35acfbc15ff81a39ae7d344fd709f28e8600b4aa8c65c6b64bfe7fe36bd19b015416806105d58388610ebf565b52865260038752898620546105ea828a610ebf565b52019796959394929761053e565b8383346101ca57816003193601126101ca5760ff60125416905191600182101561062457602083838152f35b634e487b7160e01b815260218452602490fd5b828434610310578060031936011261031057610651610dd1565b5081519161065e83610d7a565b6010546001600160401b03168352805160118054808352908452602093848301917f31ecc21a745e3968a04e9570e4425bc18fa8019c68028196b546d1669c200c68915b868282106106d45788906106d088886106bd818a0382610db0565b8385015251928284938452830190610ce3565b0390f35b83546001600160a01b0316855290930192600192830192016106a2565b5050346101ca57816003193601126101ca576020906005549051908152f35b5050346101ca57816003193601126101ca57602090600f549051908152f35b5050346101ca57816003193601126101ca5760209060ff600e5460a01c169051908152f35b8383346101ca57816003193601126101ca5761ffff908160195416826016541601928284116107895750602093505191168152f35b634e487b7160e01b815260118552602490fd5b9050823461031057602036600319011261031057506107be6106d09135610ee9565b839291925193849315158452806020850152830190610d0c565b9050823461031057602036600319011261031057506107f79035610ee9565b82516108208161081260208201946020865287830190610d0c565b03601f198101835282610db0565b519020825191151582526020820152f35b5050346101ca5760203660031901126101ca5760209161ffff9082906001600160a01b0361085d610c4b565b1681526017855220541615159051908152f35b82843461031057602092836003193601126101ca578035906001600160401b0390818311610a235736602384011215610a2357820135818111610a235760248301908060051b936024853692010111610a1f579093855193849288840196818986018b8a525260608086019386010193819681925b84841061090f57505050505050610905925003601f198101835282610db0565b5190209051908152f35b9193959092949650605f1989820301875261092a88836111ae565b803560de1982360301811215610a1757906109848e6109738f95948461096a91019680875260e061095b89806111ae565b91880152610120870190611228565b918601866111ae565b848203603f19016060860152611228565b8d608090850135818501528661099c606087016111c2565b1660a08501528401359063ffffffff60e01b8216809203610a1b57908f92916109e59060c092838701526109d360a08801886111d6565b878303603f190160e089015290611207565b940135610100840152013590811515809203610a17576001928e928380930152990197019401918896979593916108e5565b8580fd5b8780fd5b8480fd5b8380fd5b82843461031057806003193601126103105750601c548151906001600160401b03908181168352831c166020820152f35b5050346101ca57816003193601126101ca5760209060ff60125460081c1690519015158152f35b5050346101ca57816003193601126101ca5760209061ffff601354169051908152f35b5050346101ca57816003193601126101ca576020906014549051908152f35b5050346101ca5760203660031901126101ca576101c160209282610ae3610c4b565b9160055481526022865220600191828060a01b031660005201602052604060002054151590565b5050346101ca57816003193601126101ca5760209060ff60125460181c1690519015158152f35b82843461031057602036600319011261031057610b8290606083610b53610c4b565b92815190610b6082610d49565b8082526020820152015260018060a01b03166000526015602052604060002090565b906106d06002825192610b9484610d49565b84548452610bbe60018601549560208601968752610bb783518095819301610e02565b0383610db0565b8084019182528051948594602086525160208601525190840152516060808401526080830190610c66565b5050346101ca5760203660031901126101ca576020906001610c26610c0c610c4b565b6001600160a01b0316600090815260156020526040902090565b01549051908152f35b8490346101ca57816003193601126101ca57602090600b548152f35b600435906001600160a01b0382168203610c6157565b600080fd5b919082519283825260005b848110610c92575050826000602080949584010152601f8019910116010190565b602081830181015184830182015201610c71565b90815180825260208080930193019160005b828110610cc6575050505090565b83516001600160a01b031685529381019392810192600101610cb8565b9060406020610d09936001600160401b0381511684520151918160208201520190610ca6565b90565b9060606001600160401b0381610d2b8551608086526080860190610ce3565b94602081015160208601526040810151604086015201511691015290565b606081019081106001600160401b03821117610d6457604052565b634e487b7160e01b600052604160045260246000fd5b604081019081106001600160401b03821117610d6457604052565b608081019081106001600160401b03821117610d6457604052565b90601f801991011681019081106001600160401b03821117610d6457604052565b60405190610dde82610d7a565b6060602083600081520152565b6001600160401b038111610d645760051b60200190565b80546000939260018083169383821c938515610eb5575b6020958686108114610e9f57858552908115610e805750600114610e3f575b5050505050565b90939495506000929192528360002092846000945b838610610e6c57505050500101903880808080610e38565b805485870183015294019385908201610e54565b60ff19168685015250505090151560051b010191503880808080610e38565b634e487b7160e01b600052602260045260246000fd5b93607f1693610e19565b8051821015610ed35760209160051b010190565b634e487b7160e01b600052603260045260246000fd5b906040805192610ef884610d95565b610f00610dd1565b8452600090816060602096828882015282868201520152815280845281812093825194610f2c86610d95565b835191610f3883610d7a565b6001600160401b0380835416845260018084019487519485858854918281520197895285892090895b81811061107c5750505060048491610f7d8888999a038a610db0565b868401988952838d528c8760028301549101528c8b600383015491015201541660608b01528751958693630c133d1360e31b8552856004860152606485019251166024850152519188604485015282518092528460848501930191885b81811061105b57505050508190038173__$a0fe38a9a81205afccc10810b09a4d3f45$__5af493841561105257508293611017575b505050159190565b9080929350813d831161104b575b61102f8183610db0565b810103126101ca5751908115158203610310575038808061100f565b503d611025565b513d84823e3d90fd5b83516001600160a01b03168552879689965094850194909301928201610fda565b82546001600160a01b03168a5298870198918501918501610f61565b6025546110a481610deb565b9060406110b381519384610db0565b818352601f196110c283610deb565b0160005b81811061119d57505081156111985780518083825260208092016025600052817f401968ff42a154441da5f6c4c935ac46b8671f0e062baaa62a7545ba53bb6e4c9160005b8588821061118257505061112192500382610db0565b60005b84811061113357505050505090565b6001906001600160a01b036111488285610ebf565b5116600052602484526102ef61116686600020875192838092610e02565b6111708289610ebf565b5261117b8188610ebf565b5001611124565b845483526001948501948694509201910161110b565b505090565b8060606020809388010152016110c6565b9035603e1982360301811215610c61570190565b35906001600160401b0382168203610c6157565b9035601e1982360301811215610c615701602081359101916001600160401b038211610c61578136038313610c6157565b908060209392818452848401376000828201840152601f01601f1916010190565b9061123382806111ae565b906040815260808101926001600160401b039384611250856111c2565b16604084015260209384810135601e1982360301811215610c615701908482359201958211610c61578160051b36038613610c61578190604060608601525260a08301949060005b8181106112ea5750505080836112af9201906111ae565b908281850391015280359060ff8216809203610c6157836112dd604093928493610d099752858101906111d6565b9390948201520191611207565b90919586359060018060a01b038216809203610c61579081528501958501919060010161129856fea26469706673582212208917cf8bb6bb2058477b5e3c66948947003080388b673e48f7fe5212674dc8e264736f6c63430008130033","linkReferences":{"src/lib/SubnetIDHelper.sol":{"SubnetIDHelper":[{"start":4103,"length":20}]}}},"methodIdentifiers":{"activeValidatorsLimit()":"3354c3e1","bootstrapped()":"35142c8c","bottomUpCheckPeriod()":"06c46853","bottomUpCheckpointAtEpoch(uint256)":"4b27aa72","bottomUpCheckpointHashAtEpoch(uint256)":"4b0694e2","consensus()":"8ef3f761","crossMsgsHash(((((uint64,address[]),(uint8,bytes)),((uint64,address[]),(uint8,bytes)),uint256,uint64,bytes4,bytes,uint256),bool)[])":"3da33241","genesisBalances()":"903e6930","genesisCircSupply()":"948628a9","genesisValidators()":"d92e8f12","getActiveValidatorsNumber()":"c7cda762","getBootstrapNodes()":"9754b29e","getConfigurationNumbers()":"38a210b3","getParent()":"80f76021","getRelayerReward(address)":"b2bd295e","getTotalConfirmedCollateral()":"332a5ac9","getTotalValidatorCollateral(address)":"1597bf7e","getTotalValidatorsNumber()":"52d182d1","getValidator(address)":"1904bb2e","hasSubmittedInLastBottomUpCheckpointHeight(address)":"2bc31eb3","hasSubmittedInLastBottomUpMsgBatchHeight(address)":"f75499dc","ipcGatewayAddr()":"cfca2824","isActiveValidator(address)":"40550a1c","isWaitingValidator(address)":"d081be03","killed()":"1f3a0e41","lastBottomUpCheckpointHeight()":"72d0a0e0","majorityPercentage()":"599c7bd1","minActivationCollateral()":"9e33bd02","minCrossMsgFee()":"6704287c","minValidators()":"c5ab2241","powerScale()":"ad81e4d6"},"id":76}