{
  "abi": [
    {
      "inputs": [],
      "name": "activeValidatorsLimit",
      "outputs": [
        {
          "internalType": "uint16",
          "name": "",
          "type": "uint16"
        }
      ],
      "stateMutability": "view",
      "type": "function"
    },
    {
      "inputs": [],
      "name": "bootstrapped",
      "outputs": [
        {
          "internalType": "bool",
          "name": "",
          "type": "bool"
        }
      ],
      "stateMutability": "view",
      "type": "function"
    },
    {
      "inputs": [],
      "name": "bottomUpCheckPeriod",
      "outputs": [
        {
          "internalType": "uint64",
          "name": "",
          "type": "uint64"
        }
      ],
      "stateMutability": "view",
      "type": "function"
    },
    {
      "inputs": [
        {
          "internalType": "uint64",
          "name": "epoch",
          "type": "uint64"
        }
      ],
      "name": "bottomUpCheckpointAtEpoch",
      "outputs": [
        {
          "internalType": "bool",
          "name": "exists",
          "type": "bool"
        },
        {
          "components": [
            {
              "components": [
                {
                  "internalType": "uint64",
                  "name": "root",
                  "type": "uint64"
                },
                {
                  "internalType": "address[]",
                  "name": "route",
                  "type": "address[]"
                }
              ],
              "internalType": "struct SubnetID",
              "name": "subnetID",
              "type": "tuple"
            },
            {
              "internalType": "uint64",
              "name": "blockHeight",
              "type": "uint64"
            },
            {
              "internalType": "bytes32",
              "name": "blockHash",
              "type": "bytes32"
            },
            {
              "internalType": "uint64",
              "name": "nextConfigurationNumber",
              "type": "uint64"
            },
            {
              "internalType": "bytes32",
              "name": "crossMessagesHash",
              "type": "bytes32"
            }
          ],
          "internalType": "struct BottomUpCheckpoint",
          "name": "checkpoint",
          "type": "tuple"
        }
      ],
      "stateMutability": "view",
      "type": "function"
    },
    {
      "inputs": [
        {
          "internalType": "uint64",
          "name": "epoch",
          "type": "uint64"
        }
      ],
      "name": "bottomUpCheckpointHashAtEpoch",
      "outputs": [
        {
          "internalType": "bool",
          "name": "",
          "type": "bool"
        },
        {
          "internalType": "bytes32",
          "name": "",
          "type": "bytes32"
        }
      ],
      "stateMutability": "view",
      "type": "function"
    },
    {
      "inputs": [],
      "name": "consensus",
      "outputs": [
        {
          "internalType": "enum ConsensusType",
          "name": "",
          "type": "uint8"
        }
      ],
      "stateMutability": "view",
      "type": "function"
    },
    {
      "inputs": [
        {
          "components": [
            {
              "components": [
                {
                  "components": [
                    {
                      "components": [
                        {
                          "internalType": "uint64",
                          "name": "root",
                          "type": "uint64"
                        },
                        {
                          "internalType": "address[]",
                          "name": "route",
                          "type": "address[]"
                        }
                      ],
                      "internalType": "struct SubnetID",
                      "name": "subnetId",
                      "type": "tuple"
                    },
                    {
                      "components": [
                        {
                          "internalType": "uint8",
                          "name": "addrType",
                          "type": "uint8"
                        },
                        {
                          "internalType": "bytes",
                          "name": "payload",
                          "type": "bytes"
                        }
                      ],
                      "internalType": "struct FvmAddress",
                      "name": "rawAddress",
                      "type": "tuple"
                    }
                  ],
                  "internalType": "struct IPCAddress",
                  "name": "from",
                  "type": "tuple"
                },
                {
                  "components": [
                    {
                      "components": [
                        {
                          "internalType": "uint64",
                          "name": "root",
                          "type": "uint64"
                        },
                        {
                          "internalType": "address[]",
                          "name": "route",
                          "type": "address[]"
                        }
                      ],
                      "internalType": "struct SubnetID",
                      "name": "subnetId",
                      "type": "tuple"
                    },
                    {
                      "components": [
                        {
                          "internalType": "uint8",
                          "name": "addrType",
                          "type": "uint8"
                        },
                        {
                          "internalType": "bytes",
                          "name": "payload",
                          "type": "bytes"
                        }
                      ],
                      "internalType": "struct FvmAddress",
                      "name": "rawAddress",
                      "type": "tuple"
                    }
                  ],
                  "internalType": "struct IPCAddress",
                  "name": "to",
                  "type": "tuple"
                },
                {
                  "internalType": "uint256",
                  "name": "value",
                  "type": "uint256"
                },
                {
                  "internalType": "uint64",
                  "name": "nonce",
                  "type": "uint64"
                },
                {
                  "internalType": "bytes4",
                  "name": "method",
                  "type": "bytes4"
                },
                {
                  "internalType": "bytes",
                  "name": "params",
                  "type": "bytes"
                },
                {
                  "internalType": "uint256",
                  "name": "fee",
                  "type": "uint256"
                }
              ],
              "internalType": "struct StorableMsg",
              "name": "message",
              "type": "tuple"
            },
            {
              "internalType": "bool",
              "name": "wrapped",
              "type": "bool"
            }
          ],
          "internalType": "struct CrossMsg[]",
          "name": "messages",
          "type": "tuple[]"
        }
      ],
      "name": "crossMsgsHash",
      "outputs": [
        {
          "internalType": "bytes32",
          "name": "",
          "type": "bytes32"
        }
      ],
      "stateMutability": "pure",
      "type": "function"
    },
    {
      "inputs": [],
      "name": "genesisBalances",
      "outputs": [
        {
          "internalType": "address[]",
          "name": "",
          "type": "address[]"
        },
        {
          "internalType": "uint256[]",
          "name": "",
          "type": "uint256[]"
        }
      ],
      "stateMutability": "view",
      "type": "function"
    },
    {
      "inputs": [],
      "name": "genesisCircSupply",
      "outputs": [
        {
          "internalType": "uint256",
          "name": "",
          "type": "uint256"
        }
      ],
      "stateMutability": "view",
      "type": "function"
    },
    {
      "inputs": [],
      "name": "genesisValidators",
      "outputs": [
        {
          "components": [
            {
              "internalType": "uint256",
              "name": "weight",
              "type": "uint256"
            },
            {
              "internalType": "address",
              "name": "addr",
              "type": "address"
            },
            {
              "internalType": "bytes",
              "name": "metadata",
              "type": "bytes"
            }
          ],
          "internalType": "struct Validator[]",
          "name": "",
          "type": "tuple[]"
        }
      ],
      "stateMutability": "view",
      "type": "function"
    },
    {
      "inputs": [],
      "name": "getBootstrapNodes",
      "outputs": [
        {
          "internalType": "string[]",
          "name": "",
          "type": "string[]"
        }
      ],
      "stateMutability": "view",
      "type": "function"
    },
    {
      "inputs": [],
      "name": "getConfigurationNumbers",
      "outputs": [
        {
          "internalType": "uint64",
          "name": "",
          "type": "uint64"
        },
        {
          "internalType": "uint64",
          "name": "",
          "type": "uint64"
        }
      ],
      "stateMutability": "view",
      "type": "function"
    },
    {
      "inputs": [],
      "name": "getParent",
      "outputs": [
        {
          "components": [
            {
              "internalType": "uint64",
              "name": "root",
              "type": "uint64"
            },
            {
              "internalType": "address[]",
              "name": "route",
              "type": "address[]"
            }
          ],
          "internalType": "struct SubnetID",
          "name": "",
          "type": "tuple"
        }
      ],
      "stateMutability": "view",
      "type": "function"
    },
    {
      "inputs": [
        {
          "internalType": "address",
          "name": "relayer",
          "type": "address"
        }
      ],
      "name": "getRelayerReward",
      "outputs": [
        {
          "internalType": "uint256",
          "name": "",
          "type": "uint256"
        }
      ],
      "stateMutability": "view",
      "type": "function"
    },
    {
      "inputs": [
        {
          "internalType": "address",
          "name": "validatorAddress",
          "type": "address"
        }
      ],
      "name": "getValidator",
      "outputs": [
        {
          "components": [
            {
              "internalType": "uint256",
              "name": "confirmedCollateral",
              "type": "uint256"
            },
            {
              "internalType": "uint256",
              "name": "totalCollateral",
              "type": "uint256"
            },
            {
              "internalType": "bytes",
              "name": "metadata",
              "type": "bytes"
            }
          ],
          "internalType": "struct ValidatorInfo",
          "name": "validator",
          "type": "tuple"
        }
      ],
      "stateMutability": "view",
      "type": "function"
    },
    {
      "inputs": [
        {
          "internalType": "address",
          "name": "validator",
          "type": "address"
        }
      ],
      "name": "hasSubmittedInLastBottomUpCheckpointHeight",
      "outputs": [
        {
          "internalType": "bool",
          "name": "",
          "type": "bool"
        }
      ],
      "stateMutability": "view",
      "type": "function"
    },
    {
      "inputs": [],
      "name": "ipcGatewayAddr",
      "outputs": [
        {
          "internalType": "address",
          "name": "",
          "type": "address"
        }
      ],
      "stateMutability": "view",
      "type": "function"
    },
    {
      "inputs": [
        {
          "internalType": "address",
          "name": "validator",
          "type": "address"
        }
      ],
      "name": "isActiveValidator",
      "outputs": [
        {
          "internalType": "bool",
          "name": "",
          "type": "bool"
        }
      ],
      "stateMutability": "view",
      "type": "function"
    },
    {
      "inputs": [
        {
          "internalType": "address",
          "name": "validator",
          "type": "address"
        }
      ],
      "name": "isWaitingValidator",
      "outputs": [
        {
          "internalType": "bool",
          "name": "",
          "type": "bool"
        }
      ],
      "stateMutability": "view",
      "type": "function"
    },
    {
      "inputs": [],
      "name": "killed",
      "outputs": [
        {
          "internalType": "bool",
          "name": "",
          "type": "bool"
        }
      ],
      "stateMutability": "view",
      "type": "function"
    },
    {
      "inputs": [],
      "name": "lastBottomUpCheckpointHeight",
      "outputs": [
        {
          "internalType": "uint64",
          "name": "",
          "type": "uint64"
        }
      ],
      "stateMutability": "view",
      "type": "function"
    },
    {
      "inputs": [],
      "name": "majorityPercentage",
      "outputs": [
        {
          "internalType": "uint8",
          "name": "",
          "type": "uint8"
        }
      ],
      "stateMutability": "view",
      "type": "function"
    },
    {
      "inputs": [],
      "name": "minActivationCollateral",
      "outputs": [
        {
          "internalType": "uint256",
          "name": "",
          "type": "uint256"
        }
      ],
      "stateMutability": "view",
      "type": "function"
    },
    {
      "inputs": [],
      "name": "minCrossMsgFee",
      "outputs": [
        {
          "internalType": "uint256",
          "name": "",
          "type": "uint256"
        }
      ],
      "stateMutability": "view",
      "type": "function"
    },
    {
      "inputs": [],
      "name": "minValidators",
      "outputs": [
        {
          "internalType": "uint64",
          "name": "",
          "type": "uint64"
        }
      ],
      "stateMutability": "view",
      "type": "function"
    },
    {
      "inputs": [],
      "name": "powerScale",
      "outputs": [
        {
          "internalType": "int8",
          "name": "",
          "type": "int8"
        }
      ],
      "stateMutability": "view",
      "type": "function"
    }
  ],
  "bytecode": {
    "object": "0x608060405234801561001057600080fd5b5061157a806100206000396000f3fe608060405234801561001057600080fd5b506004361061018e5760003560e01c806372d0a0e0116100de5780639e33bd0211610097578063c5ab224111610071578063c5ab2241146103b6578063cfca2824146103ce578063d081be03146103e9578063d92e8f12146103fc57600080fd5b80639e33bd021461036f578063ad81e4d614610377578063b2bd295e1461038d57600080fd5b806372d0a0e01461030357806380f76021146103145780638ef3f76114610329578063903e69301461033c578063948628a9146103525780639754b29e1461035a57600080fd5b806335142c8c1161014b57806340550a1c1161012557806340550a1c146102a8578063599c7bd1146102bb5780636704287c146102da5780636cb2ecee146102e257600080fd5b806335142c8c1461024d57806338a210b31461025d5780633da332411461028757600080fd5b806306c4685314610193578063133f74ea146101bd5780631904bb2e146101e75780631f3a0e41146102075780632bc31eb3146102245780633354c3e114610237575b600080fd5b6007546001600160401b03165b6040516001600160401b0390911681526020015b60405180910390f35b6101d06101cb366004610d20565b610411565b6040805192151583526020830191909152016101b4565b6101fa6101f5366004610d52565b6104aa565b6040516101b49190610db3565b600d5462010000900460ff165b60405190151581526020016101b4565b610214610232366004610d52565b6105b1565b600e5460405161ffff90911681526020016101b4565b600d54610100900460ff16610214565b601754604080516001600160401b038084168252600160401b9093049092166020830152016101b4565b61029a610295366004610dea565b6105df565b6040519081526020016101b4565b6102146102b6366004610d52565b610612565b600954600160a01b900460ff1660405160ff90911681526020016101b4565b600a5461029a565b6102f56102f0366004610d20565b610623565b6040516101b4929190610eca565b6005546001600160401b03166101a0565b61031c6107b6565b6040516101b49190610f32565b600d5460ff166040516101b49190610f45565b61034461084b565b6040516101b4929190610f6d565b60025461029a565b610362610993565b6040516101b49190610fc4565b60065461029a565b601b5460405160009190910b81526020016101b4565b61029a61039b366004610d52565b6001600160a01b03166000908152601c602052604090205490565b600754600160401b90046001600160401b03166101a0565b6009546040516001600160a01b0390911681526020016101b4565b6102146103f7366004610d52565b610b12565b610404610b1d565b6040516101b49190611026565b60008060008061042085610623565b6040516339aa47fb60e01b81529193509150829073__$1cd67d4dc9e627f0bec7928aa480e7d951$__906339aa47fb9061045e908590600401611117565b602060405180830381865af415801561047b573d6000803e3d6000fd5b505050506040513d601f19601f8201168201806040525081019061049f9190611176565b935093505050915091565b6104ce60405180606001604052806000815260200160008152602001606081525090565b6000600e016002016000836001600160a01b03166001600160a01b0316815260200190815260200160002060405180606001604052908160008201548152602001600182015481526020016002820180546105289061118f565b80601f01602080910402602001604051908101604052809291908181526020018280546105549061118f565b80156105a15780601f10610576576101008083540402835291602001916105a1565b820191906000526020600020905b81548152906001019060200180831161058457829003601f168201915b5050505050815250509050919050565b6005546001600160401b03166000818152601d602052604081209091906105d89084610c31565b9392505050565b600082826040516020016105f4929190611397565b60405160208183030381529060405280519060200120905092915050565b600061061d82610c53565b92915050565b6040805160e081018252600060a08201818152606060c0840181905290835260208301829052928201819052918101829052608081018290526001600160401b0380841660009081526020818152604091829020825160e081018452815490941660a08501908152600182018054855181860281018601909652808652929486949293869360c087019391908301828280156106e857602002820191906000526020600020905b81546001600160a01b031681526001909101906020018083116106ca575b50505091909252505050815260028201546001600160401b0390811660208301526003830154604080840191909152600480850154909216606084015260059093015460809092019190915282519151630c133d1360e31b815292935073__$a0fe38a9a81205afccc10810b09a4d3f45$__92636099e8989261076d929091016114e8565b602060405180830381865af415801561078a573d6000803e3d6000fd5b505050506040513d601f19601f820116820180604052508101906107ae91906114fb565b159150915091565b604080518082019091526000815260606020820152604080518082018252600b80546001600160401b03168252600c8054845160208281028201810190965281815293949293838601939092919083018282801561083d57602002820191906000526020600020905b81546001600160a01b0316815260019091019060200180831161081f575b505050505081525050905090565b60045460609081906000816001600160401b0381111561086d5761086d611518565b604051908082528060200260200182016040528015610896578160200160208202803683370190505b5090506000826001600160401b038111156108b3576108b3611518565b6040519080825280602002602001820160405280156108dc578160200160208202803683370190505b50905060005b838110156109885760008060040182815481106109015761090161152e565b9060005260206000200160009054906101000a90046001600160a01b03169050808483815181106109345761093461152e565b6001600160a01b0392831660209182029290920181019190915290821660009081526003909152604090205483518490849081106109745761097461152e565b6020908102919091010152506001016108e2565b509094909350915050565b606060006109a1601f610c61565b90506000816001600160401b038111156109bd576109bd611518565b6040519080825280602002602001820160405280156109f057816020015b60608152602001906001900390816109db5790505b50905081600003610a015792915050565b6000610a0d601f610c6b565b905060005b83811015610b09576000601e016000838381518110610a3357610a3361152e565b60200260200101516001600160a01b03166001600160a01b031681526020019081526020016000208054610a669061118f565b80601f0160208091040260200160405190810160405280929190818152602001828054610a929061118f565b8015610adf5780601f10610ab457610100808354040283529160200191610adf565b820191906000526020600020905b815481529060010190602001808311610ac257829003601f168201915b5050505050838281518110610af657610af661152e565b6020908102919091010152600101610a12565b50909392505050565b600061061d82610c78565b60606000600101805480602002602001604051908101604052809291908181526020016000905b82821015610c2857600084815260209081902060408051606081018252600386029092018054835260018101546001600160a01b03169383019390935260028301805492939291840191610b979061118f565b80601f0160208091040260200160405190810160405280929190818152602001828054610bc39061118f565b8015610c105780601f10610be557610100808354040283529160200191610c10565b820191906000526020600020905b815481529060010190602001808311610bf357829003601f168201915b50505050508152505081526020019060010190610b44565b50505050905090565b6001600160a01b038116600090815260018301602052604081205415156105d8565b6000806105d8601184610c82565b600061061d825490565b606060006105d883610ca8565b6000806105d86014845b6001600160a01b038116600090815260018301602052604081205461ffff1615156105d8565b606081600001805480602002602001604051908101604052809291908181526020018280548015610cf857602002820191906000526020600020905b815481526020019060010190808311610ce4575b50505050509050919050565b80356001600160401b0381168114610d1b57600080fd5b919050565b600060208284031215610d3257600080fd5b6105d882610d04565b80356001600160a01b0381168114610d1b57600080fd5b600060208284031215610d6457600080fd5b6105d882610d3b565b6000815180845260005b81811015610d9357602081850181015186830182015201610d77565b506000602082860101526020601f19601f83011685010191505092915050565b60208152815160208201526020820151604082015260006040830151606080840152610de26080840182610d6d565b949350505050565b60008060208385031215610dfd57600080fd5b82356001600160401b0380821115610e1457600080fd5b818501915085601f830112610e2857600080fd5b813581811115610e3757600080fd5b8660208260051b8501011115610e4c57600080fd5b60209290920196919550909350505050565b600081518084526020808501945080840160005b83811015610e975781516001600160a01b031687529582019590820190600101610e72565b509495945050505050565b6001600160401b0381511682526000602082015160406020850152610de26040850182610e5e565b8215158152604060208201526000825160a06040840152610eee60e0840182610ea2565b905060208401516001600160401b038082166060860152604086015160808601528060608701511660a08601525050608084015160c0840152809150509392505050565b6020815260006105d86020830184610ea2565b6020810160018310610f6757634e487b7160e01b600052602160045260246000fd5b91905290565b604081526000610f806040830185610e5e565b82810360208481019190915284518083528582019282019060005b81811015610fb757845183529383019391830191600101610f9b565b5090979650505050505050565b6000602080830181845280855180835260408601915060408160051b870101925083870160005b8281101561101957603f19888603018452611007858351610d6d565b94509285019290850190600101610feb565b5092979650505050505050565b60006020808301818452808551808352604092508286019150828160051b87010184880160005b838110156110a057888303603f19018552815180518452878101516001600160a01b031688850152860151606087850181905261108c81860183610d6d565b96890196945050509086019060010161104d565b509098975050505050505050565b6000604083016001600160401b0383511684526020808401516040828701528281518085526060880191508383019450600092505b8083101561110c5784516001600160a01b031682529383019360019290920191908301906110e3565b509695505050505050565b602081526000825160a0602084015261113360c08401826110ae565b905060208401516001600160401b038082166040860152604086015160608601528060608701511660808601525050608084015160a08401528091505092915050565b60006020828403121561118857600080fd5b5051919050565b600181811c908216806111a357607f821691505b6020821081036111c357634e487b7160e01b600052602260045260246000fd5b50919050565b60008235603e198336030181126111df57600080fd5b90910192915050565b6000808335601e198436030181126111ff57600080fd5b83016020810192503590506001600160401b0381111561121e57600080fd5b80360382131561122d57600080fd5b9250929050565b81835281816020850137506000828201602090810191909152601f909101601f19169091010190565b6000813560ff811680821461127157600080fd5b84525061128160208301836111e8565b60406020860152611296604086018284611234565b95945050505050565b60006112ab82836111c9565b60408452608084016001600160401b03806112c584610d04565b166040870152602080840135601e198536030181126112e357600080fd5b909301838101939035828111156112f957600080fd5b8060051b360385131561130b57600080fd5b604060608901529283905260009260a0880192505b80841015611350576001600160a01b0361133986610d3b565b168352938101936001939093019291810191611320565b5061135d818701876111c9565b93508682038188015250611371818461125d565b9695505050505050565b801515811461138957600080fd5b50565b8035610d1b8161137b565b60208082528181018390526000906040808401600586901b8501820187855b888110156110a057603f19808985030185526113d2838c6111c9565b803560de198236030181126113e657600080fd5b87865281016113f581806111c9565b60e0808a89015261140a61012089018361129f565b91506114188b8401846111c9565b6060868a850301818b015261142d848361129f565b9350608091508b850135828b0152611446818601610d04565b905060a06001600160401b038216818c015282860135925063ffffffff60e01b8316831461147357600080fd5b60c0915061148c828c01846001600160e01b0319169052565b611498818701876111e8565b93509050878b860301848c01526114b0858483611234565b975050808501356101008b015250505050506114cd88820161138c565b151594880194909452938601939250908501906001016113b6565b6020815260006105d860208301846110ae565b60006020828403121561150d57600080fd5b81516105d88161137b565b634e487b7160e01b600052604160045260246000fd5b634e487b7160e01b600052603260045260246000fdfea26469706673582212208f0e3f9fa6ae3fc506f6e146a0f038204ce435ba74101fc9cf38911999db14cc64736f6c63430008130033",
    "linkReferences": {
      "src/lib/CheckpointHelper.sol": {
        "CheckpointHelper": [
          {
            "start": 1110,
            "length": 20
          }
        ]
      },
      "src/lib/SubnetIDHelper.sol": {
        "SubnetIDHelper": [
          {
            "start": 1895,
            "length": 20
          }
        ]
      }
    }
  },
  "methodIdentifiers": {
    "activeValidatorsLimit()": "3354c3e1",
    "bootstrapped()": "35142c8c",
    "bottomUpCheckPeriod()": "06c46853",
    "bottomUpCheckpointAtEpoch(uint64)": "6cb2ecee",
    "bottomUpCheckpointHashAtEpoch(uint64)": "133f74ea",
    "consensus()": "8ef3f761",
    "crossMsgsHash(((((uint64,address[]),(uint8,bytes)),((uint64,address[]),(uint8,bytes)),uint256,uint64,bytes4,bytes,uint256),bool)[])": "3da33241",
    "genesisBalances()": "903e6930",
    "genesisCircSupply()": "948628a9",
    "genesisValidators()": "d92e8f12",
    "getBootstrapNodes()": "9754b29e",
    "getConfigurationNumbers()": "38a210b3",
    "getParent()": "80f76021",
    "getRelayerReward(address)": "b2bd295e",
    "getValidator(address)": "1904bb2e",
    "hasSubmittedInLastBottomUpCheckpointHeight(address)": "2bc31eb3",
    "ipcGatewayAddr()": "cfca2824",
    "isActiveValidator(address)": "40550a1c",
    "isWaitingValidator(address)": "d081be03",
    "killed()": "1f3a0e41",
    "lastBottomUpCheckpointHeight()": "72d0a0e0",
    "majorityPercentage()": "599c7bd1",
    "minActivationCollateral()": "9e33bd02",
    "minCrossMsgFee()": "6704287c",
    "minValidators()": "c5ab2241",
    "powerScale()": "ad81e4d6"
  },
  "id": 69
}