{"abi":[{"type":"function","name":"addCheckpointSignature","inputs":[{"name":"height","type":"uint256","internalType":"uint256"},{"name":"membershipProof","type":"bytes32[]","internalType":"bytes32[]"},{"name":"weight","type":"uint256","internalType":"uint256"},{"name":"signature","type":"bytes","internalType":"bytes"}],"outputs":[],"stateMutability":"nonpayable"},{"type":"function","name":"applyBatchBottomUpMessages","inputs":[{"name":"messages","type":"tuple[]","internalType":"struct CrossMsg[]","components":[{"name":"message","type":"tuple","internalType":"struct StorableMsg","components":[{"name":"from","type":"tuple","internalType":"struct IPCAddress","components":[{"name":"subnetId","type":"tuple","internalType":"struct SubnetID","components":[{"name":"root","type":"uint64","internalType":"uint64"},{"name":"route","type":"address[]","internalType":"address[]"}]},{"name":"rawAddress","type":"tuple","internalType":"struct FvmAddress","components":[{"name":"addrType","type":"uint8","internalType":"uint8"},{"name":"payload","type":"bytes","internalType":"bytes"}]}]},{"name":"to","type":"tuple","internalType":"struct IPCAddress","components":[{"name":"subnetId","type":"tuple","internalType":"struct SubnetID","components":[{"name":"root","type":"uint64","internalType":"uint64"},{"name":"route","type":"address[]","internalType":"address[]"}]},{"name":"rawAddress","type":"tuple","internalType":"struct FvmAddress","components":[{"name":"addrType","type":"uint8","internalType":"uint8"},{"name":"payload","type":"bytes","internalType":"bytes"}]}]},{"name":"value","type":"uint256","internalType":"uint256"},{"name":"nonce","type":"uint64","internalType":"uint64"},{"name":"method","type":"bytes4","internalType":"bytes4"},{"name":"params","type":"bytes","internalType":"bytes"},{"name":"fee","type":"uint256","internalType":"uint256"}]},{"name":"wrapped","type":"bool","internalType":"bool"}]}],"outputs":[],"stateMutability":"nonpayable"},{"type":"function","name":"applyCrossMessages","inputs":[{"name":"crossMsgs","type":"tuple[]","internalType":"struct CrossMsg[]","components":[{"name":"message","type":"tuple","internalType":"struct StorableMsg","components":[{"name":"from","type":"tuple","internalType":"struct IPCAddress","components":[{"name":"subnetId","type":"tuple","internalType":"struct SubnetID","components":[{"name":"root","type":"uint64","internalType":"uint64"},{"name":"route","type":"address[]","internalType":"address[]"}]},{"name":"rawAddress","type":"tuple","internalType":"struct FvmAddress","components":[{"name":"addrType","type":"uint8","internalType":"uint8"},{"name":"payload","type":"bytes","internalType":"bytes"}]}]},{"name":"to","type":"tuple","internalType":"struct IPCAddress","components":[{"name":"subnetId","type":"tuple","internalType":"struct SubnetID","components":[{"name":"root","type":"uint64","internalType":"uint64"},{"name":"route","type":"address[]","internalType":"address[]"}]},{"name":"rawAddress","type":"tuple","internalType":"struct FvmAddress","components":[{"name":"addrType","type":"uint8","internalType":"uint8"},{"name":"payload","type":"bytes","internalType":"bytes"}]}]},{"name":"value","type":"uint256","internalType":"uint256"},{"name":"nonce","type":"uint64","internalType":"uint64"},{"name":"method","type":"bytes4","internalType":"bytes4"},{"name":"params","type":"bytes","internalType":"bytes"},{"name":"fee","type":"uint256","internalType":"uint256"}]},{"name":"wrapped","type":"bool","internalType":"bool"}]}],"outputs":[],"stateMutability":"nonpayable"},{"type":"function","name":"applyFinalityChanges","inputs":[],"outputs":[{"name":"","type":"uint64","internalType":"uint64"}],"stateMutability":"nonpayable"},{"type":"function","name":"commitCheckpoint","inputs":[{"name":"checkpoint","type":"tuple","internalType":"struct BottomUpCheckpoint","components":[{"name":"subnetID","type":"tuple","internalType":"struct SubnetID","components":[{"name":"root","type":"uint64","internalType":"uint64"},{"name":"route","type":"address[]","internalType":"address[]"}]},{"name":"blockHeight","type":"uint256","internalType":"uint256"},{"name":"blockHash","type":"bytes32","internalType":"bytes32"},{"name":"nextConfigurationNumber","type":"uint64","internalType":"uint64"}]}],"outputs":[],"stateMutability":"nonpayable"},{"type":"function","name":"commitParentFinality","inputs":[{"name":"finality","type":"tuple","internalType":"struct ParentFinality","components":[{"name":"height","type":"uint256","internalType":"uint256"},{"name":"blockHash","type":"bytes32","internalType":"bytes32"}]}],"outputs":[{"name":"hasCommittedBefore","type":"bool","internalType":"bool"},{"name":"previousFinality","type":"tuple","internalType":"struct ParentFinality","components":[{"name":"height","type":"uint256","internalType":"uint256"},{"name":"blockHash","type":"bytes32","internalType":"bytes32"}]}],"stateMutability":"nonpayable"},{"type":"function","name":"createBottomUpCheckpoint","inputs":[{"name":"checkpoint","type":"tuple","internalType":"struct BottomUpCheckpoint","components":[{"name":"subnetID","type":"tuple","internalType":"struct SubnetID","components":[{"name":"root","type":"uint64","internalType":"uint64"},{"name":"route","type":"address[]","internalType":"address[]"}]},{"name":"blockHeight","type":"uint256","internalType":"uint256"},{"name":"blockHash","type":"bytes32","internalType":"bytes32"},{"name":"nextConfigurationNumber","type":"uint64","internalType":"uint64"}]},{"name":"membershipRootHash","type":"bytes32","internalType":"bytes32"},{"name":"membershipWeight","type":"uint256","internalType":"uint256"}],"outputs":[],"stateMutability":"nonpayable"},{"type":"function","name":"pruneBottomUpCheckpoints","inputs":[{"name":"newRetentionHeight","type":"uint256","internalType":"uint256"}],"outputs":[],"stateMutability":"nonpayable"},{"type":"function","name":"storeValidatorChanges","inputs":[{"name":"changeRequests","type":"tuple[]","internalType":"struct StakingChangeRequest[]","components":[{"name":"change","type":"tuple","internalType":"struct StakingChange","components":[{"name":"op","type":"uint8","internalType":"enum StakingOperation"},{"name":"payload","type":"bytes","internalType":"bytes"},{"name":"validator","type":"address","internalType":"address"}]},{"name":"configurationNumber","type":"uint64","internalType":"uint64"}]}],"outputs":[],"stateMutability":"nonpayable"},{"type":"error","name":"AddressEmptyCode","inputs":[{"name":"target","type":"address","internalType":"address"}]},{"type":"error","name":"AddressInsufficientBalance","inputs":[{"name":"account","type":"address","internalType":"address"}]},{"type":"error","name":"AddressShouldBeValidator","inputs":[]},{"type":"error","name":"CannotConfirmFutureChanges","inputs":[]},{"type":"error","name":"CheckpointAlreadyExists","inputs":[]},{"type":"error","name":"CheckpointNotCreated","inputs":[]},{"type":"error","name":"FailedAddIncompleteQuorum","inputs":[]},{"type":"error","name":"FailedAddSignatory","inputs":[]},{"type":"error","name":"FailedInnerCall","inputs":[]},{"type":"error","name":"FailedRemoveIncompleteQuorum","inputs":[]},{"type":"error","name":"InvalidActorAddress","inputs":[]},{"type":"error","name":"InvalidCheckpointEpoch","inputs":[]},{"type":"error","name":"InvalidCheckpointSource","inputs":[]},{"type":"error","name":"InvalidConfigurationNumber","inputs":[]},{"type":"error","name":"InvalidCrossMsgDstSubnet","inputs":[]},{"type":"error","name":"InvalidCrossMsgNonce","inputs":[]},{"type":"error","name":"InvalidRetentionHeight","inputs":[]},{"type":"error","name":"InvalidSignature","inputs":[]},{"type":"error","name":"InvalidSubnet","inputs":[]},{"type":"error","name":"NotAuthorized","inputs":[{"name":"","type":"address","internalType":"address"}]},{"type":"error","name":"NotEnoughSubnetCircSupply","inputs":[]},{"type":"error","name":"NotRegisteredSubnet","inputs":[]},{"type":"error","name":"NotSystemActor","inputs":[]},{"type":"error","name":"OldConfigurationNumber","inputs":[]},{"type":"error","name":"PQDoesNotContainAddress","inputs":[]},{"type":"error","name":"PQEmpty","inputs":[]},{"type":"error","name":"ParentFinalityAlreadyCommitted","inputs":[]},{"type":"error","name":"QuorumAlreadyProcessed","inputs":[]},{"type":"error","name":"SignatureReplay","inputs":[]},{"type":"error","name":"SubnetNotActive","inputs":[]},{"type":"error","name":"SubnetNotFound","inputs":[]},{"type":"error","name":"ZeroMembershipWeight","inputs":[]}],"bytecode":{"object":"0x6080806040523461001657614c41908161001c8239f35b600080fdfe6080604052600436101561001257600080fd5b60003560e01c80630df14461146110865780631119697414610fc257806347dc9b4f14610d2c57806353b4e7bf146108e3578063743037711461053b578063ac8183791461037c578063c62eb4d5146102a8578063e49a547d146102675763eb242ac21461007f57600080fd5b34610262576020366003190112610262576004356001600160401b038111610262576100af9036906004016111b3565b6100b833612cc8565b9190156102515760ff600383015460801c1692600684101561023b57600180940361022957600080946000905b8482106101e85750506100f8908561146b565b9060028401918254908082106101d6576101359561012f9461011f60049361012795611478565b905501611516565b92369161161c565b90611af9565b60ff602a5460201c1661014457005b60405160208101906350fd896960e01b82524360248201528260448201526044815261016f816110f0565b8247106101be576101b49260009283925191335af13d156101b6573d9061019582611143565b916101a3604051938461110b565b82523d6000602084013e5b336113c9565b005b6060906101ae565b60405163cd78605960e01b8152306004820152602490fd5b604051631d36ca1560e21b8152600490fd5b610221610210839894604061020861020286978b8b611429565b80611456565b01359061146b565b9360c06102086102028b8a8a611429565b9601906100e5565b60405163c18316bf60e01b8152600490fd5b634e487b7160e01b600052602160045260246000fd5b6040516208ed5b60e31b8152600490fd5b600080fd5b34610262576020366003190112610262576004356001600160401b0381116102625761029a6101b49136906004016111b3565b906102a3612e63565b6131e4565b34610262576020366003190112610262576004356001600160401b038111610262576102db6103109136906004016111b3565b906102e4612e63565b60006102ee611485565b604051809581926308c7427760e11b83526020600484015260248301906112d7565b038173__$a0fe38a9a81205afccc10810b09a4d3f45$__5af4908115610370576101b493600092610349575b5061012f9192369161161c565b61012f925061036a903d806000833e610362818361110b565b810190611a40565b9161033c565b6040513d6000823e3d90fd5b3461026257602080600319360112610262576004359061039a612e63565b600b545b8281106104e55750600b54808311156104d3575b8281106103c057600b839055005b80600052600c8252604060002090600082556000600460019382858201558260028201558260038201550155600f8352604060002080549060008155816104ad575b505080600052604060002060405180828682945493848152019060005286600020926000905b878982841061049457505050506104419250038261110b565b8051908360005b8381106104595750505050016103b2565b600085815260108852604090206001600160a01b036104788386611794565b5116600052875261048c604060002061257e565b018490610448565b9092945082919386548152019401920184929391610428565b6000528284600020918201915b8281106104c75750610402565b600081550183906104ba565b604051636819a3a960e01b8152600490fd5b80600052600882526040600020906000825560006004600193848101805484825580610522575b505082600282015582600382015501550161039e565b61053491855287852090810190611c58565b878061050c565b3461026257600319606036820112610262576004356001600160401b03808211610262576080823603938401126102625760443591610578612e63565b60248082013594601e5480156108ce5786066108bc5785600052602094600886526002604060002001546108aa576040519286840192878452856004013590604219018112156102625760806040860152610100850193818701886105df600483016111f8565b1660c088015283810135602219823603018112156102625701836004820135910195898211610262578160051b36038713610262578190604060e08a0152526101208701959060005b8b828210610886575050505089606087015260448701359586608082015261066d8160648a01978b6106598a6111f8565b1660a083015203601f19810183528261110b565b51902060ff601d5416600b548b10610874578415610862578085029485040361084d576106998a61300c565b1561083b576040519060a082018281108a821117610826579061071d9291604052815260048b8b8084018735815260646040860199048952600c6060860192600084526080870194600086526000525260406000209451855551976001988986015551600285015551600384015551151591019060ff801983541691151516179055565b604051956080870187811089821117610811576040528782116102625760046107499236920101611220565b855261076187860193898552604087019586526111f8565b9760608601988952600052600887526040600020945186815116976001600160401b03199889885416178755808488019201518051938985116107fd575081906107ab8585611c6f565b0191600052806000209060005b8481106107e3578b8b8b60048c8c8c5160028301555160038201550192511690825416179055600080f35b83516001600160a01b0316838201559281019285016107b8565b634e487b7160e01b60009081526041600452fd5b83634e487b7160e01b60005260416004526000fd5b84634e487b7160e01b60005260416004526000fd5b604051630cbd1cd360e11b8152600490fd5b82634e487b7160e01b60005260116004526000fd5b604051634e8ac6e560e01b8152600490fd5b604051630108e13760e21b8152600490fd5b80600192939499838060a01b0361089c8c61120c565b168152019801929101610628565b60405163b8a1eae160e01b8152600490fd5b60405163fae4eadb60e01b8152600490fd5b82634e487b7160e01b60005260126004526000fd5b34610262576080366003190112610262576024356001600160401b03811161026257366023820112156102625780600401359061091f8261112c565b9161092d604051938461110b565b8083526024602084019160051b8301019136831161026257602401905b828210610d1c57836064356001600160401b03811161026257610971903690600401611195565b600b546004351061087457600435600052600860205260026040600020015415610d0a57600435600052600c6020526040600020916109b1828454612f09565b506109be81949294612eda565b610cf8576004356000908152600f602090815260408083206001600160a01b0387168452600101909152902054610ce657604080516001600160a01b0385166020820190815260443582840152918152610a1960608261110b565b5190206040516020810191825260208152610a33816110ba565b51902093600181015494936000945b8451861015610aa557610a558686611794565b519081811015610a945760005260205260406000205b946000198114610a7e5760010194610a42565b634e487b7160e01b600052601160045260246000fd5b906000526020526040600020610a6b565b8603610cc457600435600052600f602052610acc60018060a01b0382166040600020613089565b15610cb257600435600052601060205260406000209060018060a01b0316600052602052604060002082516001600160401b038111610c9c57610b1981610b1384546117a8565b84611ca3565b6020601f8211600114610c365781929394600092610c2b575b50508160011b916000199060031b1c19161790555b60038101610b58604435825461146b565b8082556002830154811015610b6957005b600483018054909160ff8216610be9575060ff19166001179055610b8e6004356130e6565b15610bd7577fc08568b61a3224ac0d48121f065552f2f645d3777d353bd87291108bc365149491610bd260ff600a5416915492546040519384936004359085612ee4565b0390a1005b6040516344a7b48760e11b8152600490fd5b925050507f103355808c87614c31e835c1a86487b17b1e54cf36e0ac4469c8d1e892239cbc91610bd260ff600a54169154926040519384936004359085612ee4565b015190508480610b32565b601f198216908360005260206000209160005b818110610c8457509583600195969710610c6b575b505050811b019055610b47565b015160001960f88460031b161c19169055848080610c5e565b9192602060018192868b015181550194019201610c49565b634e487b7160e01b600052604160045260246000fd5b604051633363140f60e01b8152600490fd5b604051634a0bfec160e01b81526001600160a01b039091166004820152602490fd5b604051635a3fd0d960e11b8152600490fd5b604051638baa579f60e01b8152600490fd5b6040516358cdd2e760e01b8152600490fd5b813581526020918201910161094a565b34610262576003196020368201811361026257600435916001600160401b0390818411610262578360040191608082863603011261026257610db491610d7b36610d7686806111e3565b611220565b918573__$a0fe38a9a81205afccc10810b09a4d3f45$__9360405180968192632cff562160e11b835284600484015260248301906112d7565b0381865af493841561037057600094610f8b575b506001600160a01b03933390851603610f7957610de433612cc8565b9590156102515791610e2494610e0288959394610d763691806111e3565b9360405196879563c836244d60e01b87526040600488015260448701906112d7565b9285840301602486015260408301906004890154168352606060058901936040888201528454809352019260005285600020916000905b828210610f5b575050505082809103915af490811561037057600091610f2e575b5015610f1c576003015460801c60ff16600681101561023b576001036102295760ff602a5460181c16610eab57005b6000806101b4936040516024858201926350fd896960e01b84520135602482015282604482015260448152610edf816110f0565b519082335af13d15610f13573d610ef581611143565b90610f03604051928361110b565b8152600081933d92013e336113c9565b606091506101ae565b6040516303b5db8360e11b8152600490fd5b610f4e9150833d8511610f54575b610f46818361110b565b810190611332565b84610e7c565b503d610f3c565b8354811685528a978997509094019360019384019390910190610e5b565b604051637f39132760e11b8152600490fd5b9093508581813d8311610fbb575b610fa3818361110b565b8101031261026257610fb4906112c3565b9287610dc8565b503d610f99565b3461026257604036600319011261026257604051610fdf816110ba565b600081526000602080920152610ff3612e63565b600081604051611002816110ba565b8281520152600254906004358083116110745760609260005260018252604060002091600160405193611034856110ba565b8054855201549181840192835280600052600182526040600020818155600160243591015560025582511515926040519384525190830152516040820152f35b60405163153ad84160e11b8152600490fd5b346102625760003660031901126102625761109f612e63565b60206110a9611888565b6001600160401b0360405191168152f35b604081019081106001600160401b03821117610c9c57604052565b606081019081106001600160401b03821117610c9c57604052565b608081019081106001600160401b03821117610c9c57604052565b90601f801991011681019081106001600160401b03821117610c9c57604052565b6001600160401b038111610c9c5760051b60200190565b6001600160401b038111610c9c57601f01601f191660200190565b92919261116a82611143565b91611178604051938461110b565b829481845281830111610262578281602093846000960137010152565b9080601f83011215610262578160206111b09335910161115e565b90565b9181601f84011215610262578235916001600160401b038311610262576020808501948460051b01011161026257565b903590603e1981360301821215610262570190565b35906001600160401b038216820361026257565b35906001600160a01b038216820361026257565b91906040838203126102625760405192611239846110ba565b83611243826111f8565b815260209182810135906001600160401b03821161026257019280601f850112156102625783356112738161112c565b94611281604051968761110b565b818652848087019260051b8201019283116102625784809101915b8383106112ab57505050500152565b81906112b68461120c565b815201910190849061129c565b51906001600160a01b038216820361026257565b60609060408301906001600160401b03815116845260209283809201519460408382015285518094520193019160005b828110611315575050505090565b83516001600160a01b031685529381019392810192600101611307565b90816020910312610262575180151581036102625790565b60408101906001600160401b036019541681526060602091604083820152601a548094520191601a6000527f057c384a7d1c54f3a1b2e5e67b2617b8224fdfd1ea7234eea573a6ff665ff63e916000905b8282106113a9575050505090565b83546001600160a01b03168552938401936001938401939091019061139b565b9015611407578151156113da575090565b803b156113e5575090565b604051639996b31560e01b81526001600160a01b039091166004820152602490fd5b5080511561141757805190602001fd5b604051630a12f52160e11b8152600490fd5b90821015611440576111b09160051b8101906111e3565b634e487b7160e01b600052603260045260246000fd5b90359060de1981360301821215610262570190565b91908201809211610a7e57565b91908203918211610a7e57565b60405190611492826110ba565b816001600160401b036019541681526040518091601a54808352836020809401601a6000527f057c384a7d1c54f3a1b2e5e67b2617b8224fdfd1ea7234eea573a6ff665ff63e9260005b868282106114f7575050506114f39250038461110b565b0152565b85546001600160a01b03168452600195860195899550930192016114dc565b90604051611523816110ba565b80926001600160401b03815416825260018091019160405191828481955492838652602080960191600052856000209060005b8786821061156e57505050506114f39250038461110b565b83546001600160a01b0316855289955090930192918101918101611556565b919060408382031261026257604051926115a6846110ba565b838135916001600160401b039283811161026257846115c6918301611220565b8252602081013590838211610262570160408185031261026257604051936115ed856110ba565b813560ff811681036102625785526020820135938411610262576020936116149201611195565b828401520152565b909291926116298161112c565b916040916116398351948561110b565b839581855260208095019160051b8301938185116102625783925b8584106116645750505050505050565b6001600160401b039084358281116102625786019183838603126102625783519261168e846110ba565b803582811161026257810160e090818189031261026257865191820182811085821117611767578752803584811161026257886116cc91830161158d565b82528b81013584811161026257886116e591830161158d565b8c830152868101358783015260606116fe8183016111f8565b90830152608081810135906001600160e01b0319821682036102625783015260a08082013594851161026257611737898e968401611195565b9083015260c080910135908201528452013590811515820361026257828993928480940152815201930192611654565b60246000634e487b7160e01b81526041600452fd5b9060016001600160401b0380931601918211610a7e57565b80518210156114405760209160051b010190565b90600182811c921680156117d8575b60208310146117c257565b634e487b7160e01b600052602260045260246000fd5b91607f16916117b7565b90604051918260008254926117f6846117a8565b9081845260019485811690816000146118655750600114611822575b50506118209250038361110b565b565b9093915060005260209081600020936000915b81831061184d57505061182093508201013880611812565b85548884018501529485019487945091830191611835565b91505061182094506020925060ff191682840152151560051b8201013880611812565b6028546001600160401b0380821660001901818111610a7e576118aa8161177c565b8280604095861c16911614611a38576118c28161342d565b61ffff928360225416916118d58361112c565b956118e28351978861110b565b838752601f1991826118f38661112c565b019260209336858b013760015b888116878111611942576000908152602486528690205489916001916001600160a01b031661193a8d85611933856131d0565b1690611794565b520116611900565b5050945094919290955086516119578161112c565b946119648351968761110b565b8186526119708261112c565b018460005b828110611a0f5750505060005b8181106119aa5750506111b094959650519261199d846110ba565b83528416908201526127e9565b6001906001600160a01b036119bf828c611794565b511680600052602187526119ef60038660002085810154938851946119e3866110d5565b85528a850152016117e2565b858201526119fd8289611794565b52611a088188611794565b5001611982565b8451611a1a816110d5565b6000815260008382015260608682015282828a010152018590611975565b505050600090565b90602080838303126102625782516001600160401b03938482116102625701926040848403126102625760405193611a77856110ba565b805182811681036102625785528281015191821161026257019180601f84011215610262578251611aa78161112c565b93611ab5604051958661110b565b818552838086019260051b8201019283116102625783809101915b838310611ae1575050505082015290565b8190611aec846112c3565b8152019101908390611ad0565b81519160005b838110611b0c5750505050565b80611b23611b1c60019385611794565b5185611ce8565b01611aff565b60005b838110611b3c5750506000910152565b8181015183820152602001611b2c565b90602091611b6581518092818552858086019101611b29565b601f01601f1916010190565b604060206111b09381611b8b8551858452858401906112d7565b940151908281860391015260ff81511684520151918160208201520190611b4c565b9060c080611c1e611bdc611bca865160e0875260e0870190611b71565b60208701518682036020880152611b71565b604086015160408601526001600160401b03606087015116606086015263ffffffff60e01b608087015116608086015260a086015185820360a0870152611b4c565b93015191015290565b6002111561023b57565b6020815260406020611c4d845183838601526060850190611bad565b930151151591015290565b818110611c63575050565b60008155600101611c58565b90600160401b8111610c9c57815490808355818110611c8d57505050565b6118209260005260206000209182019101611c58565b9190601f8111611cb257505050565b611820926000526020600020906020601f840160051c83019310611cde575b601f0160051c0190611c58565b9091508190611cd1565b6020825101515190611d2c602073__$a0fe38a9a81205afccc10810b09a4d3f45$__9360405180938192630c133d1360e31b835284600484015260248301906112d7565b0381865af4908115610370576000916124e7575b506124d557825191611d6a6040519363f47ad7eb60e01b8552604060048601526044850190611bad565b9060208480611d85600319958683820301602484015261134a565b038173__$386b5c41ce93e8b832daf8008b3d30ae09$__5af493841561037057600094612490575b50611df291602091611de38388510151516040519586948593849363c836244d60e01b85526040600486015260448501906112d7565b9083820301602484015261134a565b03915af490811561037057600091612471575b506122b05750509060405163e5f0a62b60e01b815260208180611e2b8660048301611c31565b038173__$33b79814e84bf6cf5e47244090b19ce5f8$__5af49081156103705760009161227b575b5060005260036020526040600020825192835180516001600160401b038151166001600160401b0319855416178455602060018501910151908151916001600160401b038311610c9c57602090611eaa8484611c6f565b0190600052602060002060005b83811061225e575050505060209081600285019101519060ff82511660ff1982541617905501518051906001600160401b038211610c9c578190611f0b82611f0260038801546117a8565b60038801611ca3565b602090601f83116001146121f1576000926121e6575b50508160011b916000199060031b1c19161760038301555b600482016020850151908151906001600160401b038251166001600160401b0319825416179055602060058501910151908151916001600160401b038311610c9c57602090611f888484611c6f565b0190600052602060002060005b8381106121c957505050506020600684019101519060ff82511660ff198254161790556020600784019101518051906001600160401b038211610c9c578190611fe882611fe286546117a8565b86611ca3565b602090601f831160011461216357600092612158575b50508160011b916000199060031b1c19161790555b60408401516008830155600982016001600160401b036060860151168154906bffffffff0000000000000000608088015160a01c16916001600160601b03191617179055600a82019360a08101519485516001600160401b038111610c9c5761208081610b1384546117a8565b6020601f82116001146120e45792600c94928260c0936020966118209a9b6000926120d9575b50508160011b916000199060031b1c19161790555b0151600b8501550151151591019060ff801983541691151516179055565b0151905038806120a6565b601f198216978360005260206000209860005b818110612140575083611820999a60209794600c99979460c09760019510612127575b505050811b0190556120bb565b015160001960f88460031b161c1916905538808061211a565b838301518b556001909a0199602093840193016120f7565b015190503880611ffe565b6000858152602081209350601f198516905b8181106121b15750908460019594939210612198575b505050811b019055612013565b015160001960f88460031b161c1916905538808061218b565b92936020600181928786015181550195019301612175565b82516001600160a01b031681830155602090920191600101611f95565b015190503880611f21565b600386016000908152602081209350601f198516905b818110612246575090846001959493921061222d575b505050811b016003830155611f39565b015160001960f88460031b161c1916905538808061221d565b92936020600181928786015181550195019301612207565b82516001600160a01b031681830155602090920191600101611eb7565b906020823d6020116122a8575b816122956020938361110b565b810103126122a557505138611e53565b80fd5b3d9150612288565b6122b982611c27565b600182036123fb576122cb9150612d6d565b90156123e9576003018054916001600160401b0391828460401c16926060835101511683036123d7576123409367ffffffffffffffff60401b61230f60009561177c565b60401b169067ffffffffffffffff60401b19161790555b60405180938192635c46fefb60e11b835260048301611c31565b038173__$33b79814e84bf6cf5e47244090b19ce5f8$__5af48015610370576123665750565b3d806000833e612376818361110b565b810190602081830312610262578051906001600160401b038211610262570181601f82011215610262578051906123ac82611143565b926123ba604051948561110b565b828452602083830101116102625760208061182094019101611b29565b60405163a57cadff60e01b8152600490fd5b604051630e991abd60e41b8152600490fd5b5061240581611c27565b15612416575b600061234091612326565b601d54906001600160401b0390818360481c16916060825101511682036123d7576123409267ffffffffffffffff60481b61245260009461177c565b60481b169067ffffffffffffffff60481b191617601d5591505061240b565b61248a915060203d602011610f5457610f46818361110b565b38611e05565b6020949194813d6020116124cd575b816124ac6020938361110b565b810103126124c957519060028210156122a5575092611df2611dad565b5080fd5b3d915061249f565b60405163c5f563eb60e01b8152600490fd5b612500915060203d602011610f5457610f46818361110b565b38611d40565b90815180825260208092019182818360051b85019501936000915b8483106125315750505050505090565b909192939495848061256e83856001950387528a5180518252858060a01b0384820151168483015260408091015191606080928201520190611b4c565b9801930193019194939290612521565b61258881546117a8565b9081612592575050565b81601f600093116001146125a4575055565b9080839182526125c3601f60208420940160051c840160018501611c58565b5555565b9080821461269b576125d981546117a8565b906001600160401b038211610c9c5781906125f882611fe286546117a8565b600090601f831160011461262f57600092612624575b50508160011b916000199060031b1c1916179055565b01549050388061260e565b81526020808220858352818320935090601f1985169083905b828210612682575050908460019594939210612669575b505050811b019055565b015460001960f88460031b161c1916905538808061265f565b8495819295850154815560018091019601940190612648565b5050565b600454811015611440576003906004600052027f8a35acfbc15ff81a39ae7d344fd709f28e8600b4aa8c65c6b64bfe7fe36bd19b0190600090565b906127d35781518155600190604060028383019260209360018060a01b0385880151166001600160601b0360a01b82541617905501930151908151916001600160401b038311610c9c576127388361273287546117a8565b87611ca3565b81601f84116001146127715750928293918392600094612766575b50501b916000199060031b1c1916179055565b015192503880612753565b919083601f1981168760005284600020946000905b888383106127b957505050106127a057505050811b019055565b015160001960f88460031b161c1916905538808061265f565b858701518855909601959485019487935090810190612786565b634e487b7160e01b600052600060045260246000fd5b6040805191602091828452612808825182858701526060860190612506565b927f7ecdac482334c36fccbe374318cfe74ea0c8181394890ddec894a10f0fcc748181840195806001600160401b039687895116868301520390a183600554169081612af4575b505050600490815493600160401b93848611612adf5760065486600655808710612a40575b5060066000908152957ff652222313e28459528d920b65115c16c04f3efc82aaedc97be59f3f377c0d3f877f8a35acfbc15ff81a39ae7d344fd709f28e8600b4aa8c65c6b64bfe7fe36bd19b5b8382106129eb57505050508060055416916001600160401b03199283600754161760075583515193855496885b868110612979575050505116906005541617600555808311612911575b50505050565b8281101561290b578154801561296657600019019061292f8261269f565b9290926129545785835561294c600260019488868201550161257e565b835501612911565b634e487b7160e01b8652858452602486fd5b634e487b7160e01b855260318352602485fd5b888110156129a857806129a26129926001938651611794565b5161299c8361269f565b906126da565b016128ee565b6129b3818451611794565b518854838110156129d8576001929161299c82856129d394018d5561269f565b6129a2565b634e487b7160e01b8c5260418a5260248cfd5b806001918403612a06575b60038091019301910190916128c1565b805484558180850190838060a01b0390830154166001600160601b0360a01b825416179055612a3b60028083019086016125c7565b6129f6565b6003908082029082820403612aca578782028281048903612ab557600090600682527ff652222313e28459528d920b65115c16c04f3efc82aaedc97be59f3f377c0d3f92830192015b828110612a9857505050612874565b8082859255826001820155612aaf6002820161257e565b01612a89565b601187634e487b7160e01b6000525260246000fd5b601186634e487b7160e01b6000525260246000fd5b604184634e487b7160e01b6000525260246000fd5b84865116856007541690818114612be15710612bd057825192612b16846110ba565b600454612b228161112c565b91612b2f8151938461110b565b8183528383019060046000527f8a35acfbc15ff81a39ae7d344fd709f28e8600b4aa8c65c6b64bfe7fe36bd19b906000925b848410612b8e575050509185525050820152612b7d9082612beb565b612b895738808061284f565b505050565b6003876001928451612b9f816110d5565b86548152848060a01b03858801541683820152612bbe600288016117e2565b86820152815201930193019291612b61565b8251633746be2560e11b8152600490fd5b5050505050505050565b6001600160401b039060209180838301511690838501511603611a3857612c1181612c8c565b612c1a84612c8c565b03611a385751805183515103611a3857612c85612c79916040519081612c4a868201928784526040830190612506565b0391612c5e601f199384810183528261110b565b51902094516040519384918683019687526040830190612506565b0390810183528261110b565b5190201490565b8051519060009182915b818310612ca35750505090565b909192612cbf600191612cb7868551611794565b51519061146b565b93019190612c96565b6001600160a01b03168015612d5b576000612d07612ce4611485565b604051938492839263aa5106cb60e01b84526040600485015260448401906112d7565b906024830152038173__$a0fe38a9a81205afccc10810b09a4d3f45$__5af4801561037057612d3e91600091612d42575b50612d6d565b9091565b612d55913d8091833e610362818361110b565b38612d38565b6040516370e4510960e01b8152600490fd5b612dab73__$a0fe38a9a81205afccc10810b09a4d3f45$__91604051906390ba52cf60e01b82528180602094859384600484015260248301906112d7565b0381865af490811561037057600091612e36575b5060005260008152612e0081604060002093612ddd60048601611516565b906040518080958194630c133d1360e31b835286600484015260248301906112d7565b03915af491821561037057600092612e19575b50501591565b612e2f9250803d10610f5457610f46818361110b565b3880612e13565b908282813d8311612e5c575b612e4c818361110b565b810103126122a557505138612dbf565b503d612e42565b604051635d3f8a6960e01b815233600482015260208160248173__$e800e3908cdbb6b1b5bd452383a17b18f7$__5af490811561037057600091612ebc575b5015612eaa57565b60405163f0d97f3b60e01b8152600490fd5b612ed4915060203d8111610f5457610f46818361110b565b38612ea2565b6004111561023b57565b909493926060926080830196612ef981611c27565b8352602083015260408201520152565b8151919060418303612f3a57612f3392506020820151906060604084015193015160001a90612f45565b9192909190565b505060009160029190565b91907f7fffffffffffffffffffffffffffffff5d576e7357a4501ddfe92f46681b20a08411612fc957926020929160ff608095604051948552168484015260408301526060820152600092839182805260015afa15612fbd5780516001600160a01b03811615612fb457918190565b50809160019190565b604051903d90823e3d90fd5b50505060009160039190565b600d5481101561144057600d6000527fd7b6990105719101dabeb77144f2a3385c8033acd3af97e9423a695e81ad1eb50190600090565b6000818152600e602052604081205461308457600d54600160401b81101561307057908261305c61304584600160409601600d55612fd5565b819391549060031b91821b91600019901b19161790565b9055600d54928152600e6020522055600190565b634e487b7160e01b82526041600452602482fd5b905090565b60008281526001820160205260409020546130df57805490600160401b821015610c9c57600182018082558210156114405782600192826000526020600020015580549260005201602052604060002055600190565b5050600090565b6000818152600e602052604081205490919080156131cb57600019908082018181116131b757600d54908382019182116131a35780820361316f575b505050600d54801561315b5781019061313a82612fd5565b909182549160031b1b19169055600d558152600e6020526040812055600190565b634e487b7160e01b84526031600452602484fd5b61318d61317e61304593612fd5565b90549060031b1c928392612fd5565b90558452600e6020526040842055388080613122565b634e487b7160e01b86526011600452602486fd5b634e487b7160e01b85526011600452602485fd5b505090565b61ffff9081166000190191908211610a7e57565b919080156134135760005b8181106131fc5750509050565b613207818386611429565b9060406132148380613418565b01356001600160a01b0381811691829003610262576132338480613418565b35936004851015610262576132488180613418565b906020918281013590601e198136030182121561026257019384356001600160401b039586821161026257840181360381136102625761328991369161115e565b938560285416946040519861329d8a6110d5565b6132a681612eda565b8952848901908152604089019283528560005260298552604060002098516132cd81612eda565b6132d681612eda565b60ff80198b541691161789555197885198878a11610c9c576001998a8301916133098261330385546117a8565b85611ca3565b8790601f831160011461339e5760029493929160009183613393575b5050600019600383901b1c1916908c1b1790555b019151166001600160601b0360a01b825416179055836133588461177c565b166001600160401b031960285416176028550135918216809203610262570361338157016131ef565b604051631aba532960e21b8152600490fd5b015190503880613325565b9392918c918360005289600020906000601f198416905b8c8282106133f05750509683600298106133d7575b505050811b019055613339565b015160001960f88460031b161c191690553880806133ca565b919295899487849397999a9b015181550195019301908f949297969593916133b5565b509050565b903590605e1981360301821215610262570190565b6028546001600160401b0392838316929190848216841061345a5760405163040aaa0560e11b8152600490fd5b848260401c168410613684579392919083604091821c16945b84861684811161364d57600096818852602997602098808a528582209960029460018060a01b03868d01541660ff8d54166134ad81612eda565b8088036134fb575060018c9d6134d592879e9a9b9c9d9e52602185520160038b8720016125c7565b835252858120928184556001936134ed85820161257e565b015501169493929190613473565b9c6135058e612eda565b60039d808f0361355357506135299192939495969798999a9b9c9d506001016117e2565b838180518101031261354f578392918d989796959461354a9201519061368b565b6134d5565b8580fd5b919d61356260018093016117e2565b858180518101031261364957918e9f918c9d9e9f9b9c93898389809301519761358a81612eda565b0361360e576135f2969593915091846135eb9593528c8b602195868c526135b689868385200154611478565b968683528c52812091820186815481159081613605575b50156135f95750816135e695818555840155550161257e565b613b65565b8354611478565b82556134d5565b94935050500155613b65565b905015386135cd565b8692509261362f61354a97828887896136429952602180975220015461146b565b958692868d528a528b200155865461146b565b85556136cf565b8780fd5b509450925067ffffffffffffffff60401b91506136699061177c565b602854921b169067ffffffffffffffff60401b191617602855565b9350505050565b9060018060a01b0382166000526021602052604060002081815491558181146000146136b657505050565b8111156136c657611820916139df565b61182091613eb7565b919060018060a01b03928381166000948186526020916023835261ffff916040978389822054166138ee5783601f5460081c168460225416106138ba5761371461498a565b60019283825260248652828a832054168861372e82614042565b10613834575081526026855283898220541661379d5750505050506137987f19fe3ca603e87854a0747cc10abf06bac64d61bac73d6d15f2fd3ca448f15264939461377883613fd7565b516001600160a01b03909216825260208201929092529081906040820190565b0390a1565b6137a6866149dd565b926137b087614042565b935b81868216116137f6575b505097516001600160a01b039095168552505050506020810191909152909150600080516020614bec833981519152908060408101613798565b808561381586617fff8f95871c169485885260278c5287205416614042565b101561382e5790613827839282614b3c565b90506137b2565b506137bc565b969750899493507ffaeb8de771b867cf357f6b459a7002b62ec45d544a8078a3ecd91200cc826d75989992506137989560269161386f614564565b8352522054166138ac575b613883846144f5565b61388c83613fd7565b516001600160a01b03928316815292909116602083015281906040820190565b6138b5846141f8565b61387a565b50505050506137987f2e8038f5812f763c6ef0c5427cb5a05ce6d7064af2ba7d1d270bc02660b019fd9394613778836144f5565b979291506138ff85949796956149a6565b9761390985614042565b976139138a6143ea565b8460225416905b8581168281116139ba578281101561399e57508061393a61394092613fc4565b9061493a565b9b909b5b8b111561396357613955908c614aa3565b61395e8b6143ea565b61391a565b505093516001600160a01b039095168552505050506020810191909152909250600080516020614bcc83398151915291508060408101613798565b849c919c52602483526139b5858886205416614042565b613944565b505050505050506137989192939550600080516020614bcc8339815191529450613778565b6001600160a01b03808216600081815260236020526040808220549095949361ffff93918416613b335783601f5460081c16846022541610613b0157613a2361498a565b600183526024602052868320541685613a3b82614042565b10613aad5750815260266020528490205416613a7f576137987f19fe3ca603e87854a0747cc10abf06bac64d61bac73d6d15f2fd3ca448f152649361377883613fd7565b613798600080516020614bec83398151915293613778613a9e846149dd565b613aa785614042565b90614395565b93945091857ffaeb8de771b867cf357f6b459a7002b62ec45d544a8078a3ecd91200cc826d75969261379894613ae1614564565b81526026602052205416613af857613883846144f5565b6138b584614283565b505050506137987f2e8038f5812f763c6ef0c5427cb5a05ce6d7064af2ba7d1d270bc02660b019fd93613778836144f5565b50505050613798600080516020614bcc83398151915293613778613b56846149a6565b613b5f85614042565b906148a7565b909160018060a01b03928383169060009382855260206026815261ffff95604094878683205416613d8d578082526023835287868320541615613d7c578415613cd45750613bb2836149a6565b97613bbc84614042565b985b6001808a83161115613cc55781617fff911c1690818452602485528a613be8848a87205416614042565b1115613bfd57613bf89082614aa3565b613bbe565b505091939597509193955b6025541615613cbd57613c1961498a565b600182526024835285818184205416926027613c3485614042565b95613c3d614998565b600183525220541691613c4f83614042565b11613c8457505091516001600160a01b0390921682526020820152600080516020614bcc833981519152908060408101613798565b915091506137987ffaeb8de771b867cf357f6b459a7002b62ec45d544a8078a3ecd91200cc826d7593613cb5614564565b61387a614091565b505050505050565b50509193959750919395613c08565b829450613d087f4a4c5d1a281180eea1e99d8177fa4798b9f7e019d5c57e7d8d73c6a22199aa5b93929894999697996146ad565b8651908152a160255416613d1c5750505050565b7f2e8038f5812f763c6ef0c5427cb5a05ce6d7064af2ba7d1d270bc02660b019fd9360278492613d4a614998565b6001835252205416613d70613d5e82614042565b92613d67614091565b613778836144f5565b0390a13880808061290b565b8551632a55ca5360e01b8152600490fd5b84969792939598919415613e7c575061fffe9193613daa866149dd565b93613db487614042565b9480966001958692831b168160255416925b613e08575b505099516001600160a01b03909716875250505050602083019390935250919250600080516020614bec8339815191529190508060408101613798565b818116838111613e76578d9084811015613e5a57505080613e2b613e3192613fc4565b9061449d565b9890985b881015613e5557613e469089614b3c565b613e4f886143ea565b86613dc6565b613dcb565b865260278552852054909890613e71908716614042565b613e35565b50613dcb565b94915050613eb09194507f3168ba660eed6ef1dc2258b2247cc05fd0f2f350d39e6ad2e2ebc76a8000b40b959692506141f8565b51908152a1565b6001600160a01b0380821660008181526026602090815260408083205490969594919361ffff918216613f5a578084526023855281888520541615613f49578615613f185750613c08613f09866149a6565b613f1287614042565b90614858565b849193979650613d087f4a4c5d1a281180eea1e99d8177fa4798b9f7e019d5c57e7d8d73c6a22199aa5b9396614738565b8751632a55ca5360e01b8152600490fd5b9693925050508315613f975750600080516020614bec833981519152935061379890613778613f88846149dd565b613f9185614042565b90614401565b9250613eb07f3168ba660eed6ef1dc2258b2247cc05fd0f2f350d39e6ad2e2ebc76a8000b40b9492614283565b90600161ffff80931601918211610a7e57565b61182090613aa761ffff91613fef8360255416613fc4565b9260018060a01b0382169081600052602660205260406000209085169161ffff199183838254161790558260005260276020526040600020906001600160601b0360a01b82541617905560255416176025555b600160ff601f541661405381611c27565b03614073576001600160a01b031660009081526021602052604090205490565b6001600160a01b031660009081526021602052604090206001015490565b61ffff80602554169081156141e657906001906140b081831115614a86565b6000828152602760208181526040808420805486865282862080546001600160a01b0392831680895260268752858920805461ffff199081168c17909155918416808a52868a20805484168d17905588885283546001600160a01b03199081169092179093558a89528454169091179092559295879593949293929161414a91908a61413b836131d0565b16906025541617602555614a02565b84825280865261415e848484205416614042565b95859860028160255416995b61417c575b5050505050505050505050565b8181168a81116141e0578a8110156141c5575080613e2b61419c92613fc4565b9a909a5b8910156141c0576141b1908b614b3c565b6141ba8a6143ea565b8761416a565b61416f565b859b919b528383526141db878787205416614042565b6141a0565b5061416f565b6040516340d9b01160e01b8152600490fd5b614201906149dd565b61ffff908160255416916142158383614b3c565b8061421f846131d0565b1661ffff19602554161760255561423583614a02565b811680921461269b57613f918261182093600052602760205260018060a01b039061426f6142698360406000205416614042565b85614395565b600052602760205260406000205416614042565b61428c906149dd565b61ffff908160255416916142a08383614b3c565b806142aa846131d0565b1661ffff1960255416176025556142c083614a02565b808216809314612b89579161fffe9160009180835260279060209382855260018060a01b03926040926143006142fa868686205416614042565b87614395565b8252808652614313848484205416614042565b9585986001988997881b168160255416995b614336575050505050505050505050565b8181168a81116141e0578a81101561437a575080613e2b61435692613fc4565b9a909a5b8910156141c05761436b908b614b3c565b6143748a6143ea565b87614325565b859b919b52838352614390878787205416614042565b61435a565b9190915b60018061ffff831611156143e45781617fff911c1690836143cf60008481526027602052604060018060a01b0391205416614042565b10156143e4576143df9082614b3c565b614399565b50509050565b60011b906201fffe61fffe831692168203610a7e57565b90600161fffe83821b168160009161ffff908160255416925b614428575b50505050505050565b8181168381116144975783811015614471575080613e2b61444892613fc4565b9690965b86101561446c5761445d9087614b3c565b614466866143ea565b8461441a565b61441f565b845260276020526040842054909690614492906001600160a01b0316614042565b61444c565b5061441f565b91909161ffff9283821660005260276020526144e060018060a01b036144c98160406000205416614042565b958316600052602760205260406000205416614042565b908185106144ee5750509190565b9350919050565b61182090613f1261ffff9161450d8360225416613fc4565b9260018060a01b0382169081600052602360205260406000209085169161ffff199183838254161790558260005260246020526040600020906001600160601b0360a01b8254161790556022541617602255614042565b61ffff80602254169081156141e6579060019061458381831115614a86565b6000828152602460208181526040808420805486865282862080546001600160a01b0392831680895260238752858920805461ffff199081168c17909155918416808a52868a20805484168d17905588885283546001600160a01b03199081169092179093558a89528454169091179092559295879593949293929161461d91908a61460e836131d0565b16906022541617602255614a44565b848252808652614631848484205416614042565b95859860028160225416995b61464e575050505050505050505050565b8181168a81116141e0578a81101561469257508061393a61466e92613fc4565b9a909a5b8911156141c057614683908b614aa3565b61468c8a6143ea565b8761463d565b859b919b528383526146a8878787205416614042565b614672565b6146b6906149a6565b61ffff908160225416916146ca8383614aa3565b806146d4846131d0565b1661ffff1960225416176022556146ea83614a44565b811680921461269b57613b5f8261182093600052602460205260018060a01b039061472461471e8360406000205416614042565b85614858565b600052602460205260406000205416614042565b614741906149a6565b9061ffff908160225416906147568285614aa3565b82614760836131d0565b1661ffff19602254161760225561477682614a44565b8284168092146148525760009291929183835260249260209484865260018060a01b03916040916147b46147ae858585205416614042565b8a614858565b81528587526147c7838383205416614042565b956147d1896143ea565b978560225416985b8681168a8111614844578a81101561482957508061393a6147f992613fc4565b9a909a5b89111561481c5761480e908b614aa3565b6148178a6143ea565b6147d9565b5050505050505092505050565b849b919b5282825261483f868686205416614042565b6147fd565b505050505050505092505050565b92505050565b9190915b60018061ffff831611156143e45781617fff911c16908361489260008481526024602052604060018060a01b0391205416614042565b11156143e4576148a29082614aa3565b61485c565b916148b1836143ea565b600061ffff918260225416905b838116828111614930578281101561490a57508061393a6148de92613fc4565b9690965b861115614901576148f39087614aa3565b6148fc866143ea565b6148be565b50505050915050565b83526024602052604083205490969061492b906001600160a01b0316614042565b6148e2565b5050505050915050565b919061ffff808416600052602460205261497b60018060a01b036149648160406000205416614042565b928416600052602460205260406000205416614042565b93848211156144ee5750509190565b61ffff60225416156141e657565b61ffff60255416156141e657565b6001600160a01b031660009081526023602052604090205461ffff169081156149cb57565b60405163f2755e3760e01b8152600490fd5b6001600160a01b031660009081526026602052604090205461ffff169081156149cb57565b61ffff16600090815260276020908152604080832080546001600160a01b031981169091556001600160a01b0316835260269091529020805461ffff19169055565b61ffff16600090815260246020908152604080832080546001600160a01b031981169091556001600160a01b0316835260239091529020805461ffff19169055565b15614a8d57565b634e487b7160e01b600052600160045260246000fd5b614ac861ffff808060225416931693614abe84861115614a86565b1691821115614a86565b6000828152602460208181526040808420805486865282862080546001600160a01b0392831680895260238752858920805461ffff19908116909b1790559216808852938720805490981689179097559390925284546001600160a01b031990811690931790945593909152825416179055565b614b5761ffff808060255416931693614abe84861115614a86565b6000828152602760208181526040808420805486865282862080546001600160a01b0392831680895260268752858920805461ffff19908116909b1790559216808852938720805490981689179097559390925284546001600160a01b03199081169093179094559390915282541617905556fe143db27bc2036653dc6f962ff9d0b803163d4af50c256ca9e6927b3d6dcd0197da148fac2e1063174be7bc0895576bdaba90fd14e575463fa26a967cb895cadda264697066735822122036a42f976165aa2aadecc8ecb290357e13da2c2601d673b7d520ed6210bc06d164736f6c63430008130033","linkReferences":{"src/lib/AccountHelper.sol":{"AccountHelper":[{"start":11930,"length":20}]},"src/lib/CrossMsgHelper.sol":{"CrossMsgHelper":[{"start":7755,"length":20},{"start":9056,"length":20}]},"src/lib/StorableMsgHelper.sol":{"StorableMsgHelper":[{"start":7589,"length":20}]},"src/lib/SubnetIDHelper.sol":{"SubnetIDHelper":[{"start":816,"length":20},{"start":3483,"length":20},{"start":7443,"length":20},{"start":11565,"length":20},{"start":11662,"length":20}]}}},"methodIdentifiers":{"addCheckpointSignature(uint256,bytes32[],uint256,bytes)":"53b4e7bf","applyBatchBottomUpMessages(((((uint64,address[]),(uint8,bytes)),((uint64,address[]),(uint8,bytes)),uint256,uint64,bytes4,bytes,uint256),bool)[])":"eb242ac2","applyCrossMessages(((((uint64,address[]),(uint8,bytes)),((uint64,address[]),(uint8,bytes)),uint256,uint64,bytes4,bytes,uint256),bool)[])":"c62eb4d5","applyFinalityChanges()":"0df14461","commitCheckpoint(((uint64,address[]),uint256,bytes32,uint64))":"47dc9b4f","commitParentFinality((uint256,bytes32))":"11196974","createBottomUpCheckpoint(((uint64,address[]),uint256,bytes32,uint64),bytes32,uint256)":"74303771","pruneBottomUpCheckpoints(uint256)":"ac818379","storeValidatorChanges(((uint8,bytes,address),uint64)[])":"e49a547d"},"id":47}