{"abi":[{"type":"function","name":"toHash","inputs":[{"name":"bottomupCheckpoint","type":"tuple","internalType":"struct BottomUpCheckpoint","components":[{"name":"subnetID","type":"tuple","internalType":"struct SubnetID","components":[{"name":"root","type":"uint64","internalType":"uint64"},{"name":"route","type":"address[]","internalType":"address[]"}]},{"name":"blockHeight","type":"uint64","internalType":"uint64"},{"name":"blockHash","type":"bytes32","internalType":"bytes32"},{"name":"nextConfigurationNumber","type":"uint64","internalType":"uint64"},{"name":"crossMessagesHash","type":"bytes32","internalType":"bytes32"}]}],"outputs":[{"name":"","type":"bytes32","internalType":"bytes32"}],"stateMutability":"pure"}],"bytecode":{"object":"0x6080806040523461001a576102d59081610020823930815050f35b600080fdfe60806004908136101561001157600080fd5b600090813560e01c6339aa47fb1461002857600080fd5b60209260031992848436011261024a57813567ffffffffffffffff928382116102465760a08683360301126102465760a08501908582108583111761023357828101358581116102185783016040809882360301126102185760e087018381108782111761022057885261009d828201610285565b835260248101359086821161021c57013660238201121561021857818101359186831161020557508160051b8851926100d88b83018561024d565b835260248a8401918301019136831161020157602401905b8282106101de5750505060c0860152845261010d60248201610285565b91868501928352858501916044810135835261012b60648201610285565b9460608701958652608460808801920135825287519586948a8601988b8a52519460a08b8801528b6101208801968581511660e08a01520151958b61010089015286518091528c61014089019701915b8d8282106101be5750505050826101b49751166060870152516080860152511660a08401525160c083015203601f19810183528261024d565b5190209051908152f35b83516001600160a01b031689528b9950978801979092019160010161017b565b81356001600160a01b03811681036101fd578152908a01908a016100f0565b8780fd5b8680fd5b634e487b7160e01b865260419052602485fd5b8480fd5b8580fd5b634e487b7160e01b865260418352602486fd5b634e487b7160e01b845260419052602483fd5b8280fd5b80fd5b90601f8019910116810190811067ffffffffffffffff82111761026f57604052565b634e487b7160e01b600052604160045260246000fd5b359067ffffffffffffffff8216820361029a57565b600080fdfea2646970667358221220d8e258256c9d94a5cb6fd53955be80a2132bd9993d62849af7ddba947fa7037864736f6c63430008130033","linkReferences":{}},"methodIdentifiers":{"toHash(BottomUpCheckpoint)":"39aa47fb"},"id":55}