{
    "abi": [
        {
            "inputs": [
                {
                    "components": [
                        {
                            "components": [
                                {
                                    "internalType": "uint64",
                                    "name": "root",
                                    "type": "uint64"
                                },
                                {
                                    "internalType": "address[]",
                                    "name": "route",
                                    "type": "address[]"
                                }
                            ],
                            "internalType": "struct SubnetID",
                            "name": "subnetID",
                            "type": "tuple"
                        },
                        {
                            "internalType": "uint64",
                            "name": "blockHeight",
                            "type": "uint64"
                        },
                        {
                            "internalType": "bytes32",
                            "name": "blockHash",
                            "type": "bytes32"
                        },
                        {
                            "internalType": "uint64",
                            "name": "nextConfigurationNumber",
                            "type": "uint64"
                        },
                        {
                            "internalType": "bytes32",
                            "name": "crossMessagesHash",
                            "type": "bytes32"
                        }
                    ],
                    "internalType": "struct BottomUpCheckpoint",
                    "name": "bottomupCheckpoint",
                    "type": "tuple"
                }
            ],
            "name": "toHash",
            "outputs": [
                {
                    "internalType": "bytes32",
                    "name": "",
                    "type": "bytes32"
                }
            ],
            "stateMutability": "pure",
            "type": "function"
        }
    ],
    "bytecode": {
        "object": "0x61039361003a600b82828239805160001a60731461002d57634e487b7160e01b600052600060045260246000fd5b30600052607381538281f3fe73000000000000000000000000000000000000000030146080604052600436106100355760003560e01c806339aa47fb1461003a575b600080fd5b61004d61004836600461013f565b61005f565b60405190815260200160405180910390f35b600081604051602001610072919061029e565b604051602081830303815290604052805190602001209050919050565b634e487b7160e01b600052604160045260246000fd5b60405160a0810167ffffffffffffffff811182821017156100c8576100c861008f565b60405290565b6040805190810167ffffffffffffffff811182821017156100c8576100c861008f565b604051601f8201601f1916810167ffffffffffffffff8111828210171561011a5761011a61008f565b604052919050565b803567ffffffffffffffff8116811461013a57600080fd5b919050565b6000602080838503121561015257600080fd5b823567ffffffffffffffff8082111561016a57600080fd5b9084019060a0828703121561017e57600080fd5b6101866100a5565b82358281111561019557600080fd5b8301604081890312156101a757600080fd5b6101af6100ce565b6101b882610122565b815285820135848111156101cb57600080fd5b80830192505088601f8301126101e057600080fd5b8135848111156101f2576101f261008f565b8060051b94506102038786016100f1565b818152948301870194878101908b87111561021d57600080fd5b938801935b8685101561025457843592506001600160a01b03831683146102445760008081fd5b8282529388019390880190610222565b838901525050825250610268838501610122565b848201526040830135604082015261028260608401610122565b6060820152608083013560808201528094505050505092915050565b6020808252825160a083830152805167ffffffffffffffff1660c0840152810151604060e0840152805161010084018190526000929182019083906101208601905b808310156103095783516001600160a01b031682529284019260019290920191908401906102e0565b509286015167ffffffffffffffff81166040870152926040870151606087015260608701519350610346608087018567ffffffffffffffff169052565b608087015160a0870152809450505050509291505056fea2646970667358221220d6db121338ec6ccaeed873b421794fe1fbeb2c6d1c4c0d49aeb1b95f773a44de64736f6c63430008130033",
        "linkReferences": {}
    },
    "methodIdentifiers": {
        "toHash(BottomUpCheckpoint)": "39aa47fb"
    },
    "id": 55
}