{
  "abi": [
    {
      "inputs": [
        {
          "components": [
            {
              "components": [
                {
                  "internalType": "uint64",
                  "name": "root",
                  "type": "uint64"
                },
                {
                  "internalType": "address[]",
                  "name": "route",
                  "type": "address[]"
                }
              ],
              "internalType": "struct SubnetID",
              "name": "subnetID",
              "type": "tuple"
            },
            {
              "internalType": "uint64",
              "name": "blockHeight",
              "type": "uint64"
            },
            {
              "internalType": "bytes32",
              "name": "blockHash",
              "type": "bytes32"
            },
            {
              "internalType": "uint64",
              "name": "nextConfigurationNumber",
              "type": "uint64"
            },
            {
              "internalType": "bytes32",
              "name": "crossMessagesHash",
              "type": "bytes32"
            }
          ],
          "internalType": "struct BottomUpCheckpoint",
          "name": "bottomUpCheckpoint",
          "type": "tuple"
        }
      ],
      "name": "isEmpty",
      "outputs": [
        {
          "internalType": "bool",
          "name": "",
          "type": "bool"
        }
      ],
      "stateMutability": "pure",
      "type": "function"
    },
    {
      "inputs": [
        {
          "components": [
            {
              "components": [
                {
                  "internalType": "uint64",
                  "name": "root",
                  "type": "uint64"
                },
                {
                  "internalType": "address[]",
                  "name": "route",
                  "type": "address[]"
                }
              ],
              "internalType": "struct SubnetID",
              "name": "subnetID",
              "type": "tuple"
            },
            {
              "internalType": "uint64",
              "name": "blockHeight",
              "type": "uint64"
            },
            {
              "internalType": "bytes32",
              "name": "blockHash",
              "type": "bytes32"
            },
            {
              "internalType": "uint64",
              "name": "nextConfigurationNumber",
              "type": "uint64"
            },
            {
              "internalType": "bytes32",
              "name": "crossMessagesHash",
              "type": "bytes32"
            }
          ],
          "internalType": "struct BottomUpCheckpoint",
          "name": "bottomupCheckpoint",
          "type": "tuple"
        }
      ],
      "name": "toHash",
      "outputs": [
        {
          "internalType": "bytes32",
          "name": "",
          "type": "bytes32"
        }
      ],
      "stateMutability": "pure",
      "type": "function"
    }
  ],
  "bytecode": {
    "object": "0x6080806040523461001a576103949081610020823930815050f35b600080fdfe604060808152600436101561001357600080fd5b600090813560e01c806339aa47fb146100de576345d51b121461003557600080fd5b6100466100413661017e565b610343565b81516020810181811067ffffffffffffffff8211176100ca57936020948452808252835191610074836100f4565b8183528583015283519161008783610126565b825280858301528084830152806060830152608082015282516100bf816100b187820194856102ac565b03601f198101835282610142565b519020149051908152f35b634e487b7160e01b85526041600452602485fd5b6020826100ed6100413661017e565b9051908152f35b6040810190811067ffffffffffffffff82111761011057604052565b634e487b7160e01b600052604160045260246000fd5b60a0810190811067ffffffffffffffff82111761011057604052565b90601f8019910116810190811067ffffffffffffffff82111761011057604052565b359067ffffffffffffffff8216820361017957565b600080fd5b600319919060208382018113610179576004359067ffffffffffffffff948583116101795760a081848603011261017957604051936101bc85610126565b836004013587811161017957604090850192838303011261017957604051916101e4836100f4565b6101f060048201610164565b8352602481013590888211610179570181602382011215610179576004810135978811610110578760051b906040519861022c8684018b610142565b89526024858a019282010192831161017957602401905b82821061028d57505050608493949582820152845261026460248301610164565b908401526044810135604084015261027e60648201610164565b60608401520135608082015290565b81356001600160a01b0381168103610179578152908401908401610243565b602091828252805160a0848401526101008301938067ffffffffffffffff928381511660c0870152015194604060e0860152855180915281610120860196019060005b81811061032657505050918160809260a0948301511660408601526040820151606086015260608201511682850152015191015290565b82516001600160a01b0316885296830196918301916001016102ef565b604051610358816100b16020820194856102ac565b5190209056fea2646970667358221220167032d0ea9339b2dad2f8e1a5736b1a781769814ebaab6e4970e0fb5902149964736f6c63430008130033",
    "linkReferences": {}
  },
  "methodIdentifiers": {
    "isEmpty(BottomUpCheckpoint)": "45d51b12",
    "toHash(BottomUpCheckpoint)": "39aa47fb"
  },
  "id": 55
}