{
  "abi": [
    {
      "inputs": [],
      "name": "EMPTY_BOTTOMUPCHECKPOINT_HASH",
      "outputs": [
        {
          "internalType": "bytes32",
          "name": "",
          "type": "bytes32"
        }
      ],
      "stateMutability": "view",
      "type": "function"
    },
    {
      "inputs": [
        {
          "components": [
            {
              "components": [
                {
                  "internalType": "uint64",
                  "name": "root",
                  "type": "uint64"
                },
                {
                  "internalType": "address[]",
                  "name": "route",
                  "type": "address[]"
                }
              ],
              "internalType": "struct SubnetID",
              "name": "subnetID",
              "type": "tuple"
            },
            {
              "internalType": "uint64",
              "name": "blockHeight",
              "type": "uint64"
            },
            {
              "internalType": "bytes32",
              "name": "blockHash",
              "type": "bytes32"
            },
            {
              "internalType": "uint64",
              "name": "nextConfigurationNumber",
              "type": "uint64"
            },
            {
              "internalType": "bytes32",
              "name": "crossMessagesHash",
              "type": "bytes32"
            }
          ],
          "internalType": "struct BottomUpCheckpoint",
          "name": "bottomUpCheckpoint",
          "type": "tuple"
        }
      ],
      "name": "isEmpty",
      "outputs": [
        {
          "internalType": "bool",
          "name": "",
          "type": "bool"
        }
      ],
      "stateMutability": "pure",
      "type": "function"
    },
    {
      "inputs": [
        {
          "components": [
            {
              "components": [
                {
                  "internalType": "uint64",
                  "name": "root",
                  "type": "uint64"
                },
                {
                  "internalType": "address[]",
                  "name": "route",
                  "type": "address[]"
                }
              ],
              "internalType": "struct SubnetID",
              "name": "subnetID",
              "type": "tuple"
            },
            {
              "internalType": "uint64",
              "name": "blockHeight",
              "type": "uint64"
            },
            {
              "internalType": "bytes32",
              "name": "blockHash",
              "type": "bytes32"
            },
            {
              "internalType": "uint64",
              "name": "nextConfigurationNumber",
              "type": "uint64"
            },
            {
              "internalType": "bytes32",
              "name": "crossMessagesHash",
              "type": "bytes32"
            }
          ],
          "internalType": "struct BottomUpCheckpoint",
          "name": "bottomupCheckpoint",
          "type": "tuple"
        }
      ],
      "name": "toHash",
      "outputs": [
        {
          "internalType": "bytes32",
          "name": "",
          "type": "bytes32"
        }
      ],
      "stateMutability": "pure",
      "type": "function"
    }
  ],
  "bytecode": {
    "object": "0x6104b861003a600b82828239805160001a60731461002d57634e487b7160e01b600052600060045260246000fd5b30600052607381538281f3fe730000000000000000000000000000000000000000301460806040526004361061004b5760003560e01c806339aa47fb1461005057806345d51b1214610076578063aa9fb55814610099575b600080fd5b61006361005e366004610264565b6100a1565b6040519081526020015b60405180910390f35b610089610084366004610264565b6100d1565b604051901515815260200161006d565b61006361014a565b6000816040516020016100b491906103c3565b604051602081830303815290604052805190602001209050919050565b6040805160e081018252600060a0820181815283518281526020808201865260c08501919091529083528083018290528284018290526060830182905260808301829052925190926101249291016103c3565b60405160208183030381529060405280519060200120610143836100a1565b1492915050565b6040805160e081018252600060a0820181815283518281526020808201865260c0850191909152908352808301829052828401829052606083018290526080830191909152915161019b92016103c3565b6040516020818303038152906040528051906020012081565b634e487b7160e01b600052604160045260246000fd5b60405160a0810167ffffffffffffffff811182821017156101ed576101ed6101b4565b60405290565b6040805190810167ffffffffffffffff811182821017156101ed576101ed6101b4565b604051601f8201601f1916810167ffffffffffffffff8111828210171561023f5761023f6101b4565b604052919050565b803567ffffffffffffffff8116811461025f57600080fd5b919050565b6000602080838503121561027757600080fd5b823567ffffffffffffffff8082111561028f57600080fd5b9084019060a082870312156102a357600080fd5b6102ab6101ca565b8235828111156102ba57600080fd5b8301604081890312156102cc57600080fd5b6102d46101f3565b6102dd82610247565b815285820135848111156102f057600080fd5b80830192505088601f83011261030557600080fd5b813584811115610317576103176101b4565b8060051b9450610328878601610216565b818152948301870194878101908b87111561034257600080fd5b938801935b8685101561037957843592506001600160a01b03831683146103695760008081fd5b8282529388019390880190610347565b83890152505082525061038d838501610247565b84820152604083013560408201526103a760608401610247565b6060820152608083013560808201528094505050505092915050565b6020808252825160a083830152805167ffffffffffffffff1660c0840152810151604060e0840152805161010084018190526000929182019083906101208601905b8083101561042e5783516001600160a01b03168252928401926001929092019190840190610405565b509286015167ffffffffffffffff8116604087015292604087015160608701526060870151935061046b608087018567ffffffffffffffff169052565b608087015160a0870152809450505050509291505056fea2646970667358221220f4bb699414e1c0cb2c6f95365b9f244d2c94b09914e5c50ecfa2a14878c28a4664736f6c63430008130033",
    "linkReferences": {}
  },
  "methodIdentifiers": {
    "EMPTY_BOTTOMUPCHECKPOINT_HASH()": "aa9fb558",
    "isEmpty(BottomUpCheckpoint)": "45d51b12",
    "toHash(BottomUpCheckpoint)": "39aa47fb"
  },
  "id": 55
}