{"abi":[{"type":"function","name":"createFundMsg","inputs":[{"name":"subnet","type":"tuple","internalType":"struct SubnetID","components":[{"name":"root","type":"uint64","internalType":"uint64"},{"name":"route","type":"address[]","internalType":"address[]"}]},{"name":"signer","type":"address","internalType":"address"},{"name":"to","type":"tuple","internalType":"struct FvmAddress","components":[{"name":"addrType","type":"uint8","internalType":"uint8"},{"name":"payload","type":"bytes","internalType":"bytes"}]},{"name":"value","type":"uint256","internalType":"uint256"},{"name":"fee","type":"uint256","internalType":"uint256"}],"outputs":[{"name":"","type":"tuple","internalType":"struct CrossMsg","components":[{"name":"message","type":"tuple","internalType":"struct StorableMsg","components":[{"name":"from","type":"tuple","internalType":"struct IPCAddress","components":[{"name":"subnetId","type":"tuple","internalType":"struct SubnetID","components":[{"name":"root","type":"uint64","internalType":"uint64"},{"name":"route","type":"address[]","internalType":"address[]"}]},{"name":"rawAddress","type":"tuple","internalType":"struct FvmAddress","components":[{"name":"addrType","type":"uint8","internalType":"uint8"},{"name":"payload","type":"bytes","internalType":"bytes"}]}]},{"name":"to","type":"tuple","internalType":"struct IPCAddress","components":[{"name":"subnetId","type":"tuple","internalType":"struct SubnetID","components":[{"name":"root","type":"uint64","internalType":"uint64"},{"name":"route","type":"address[]","internalType":"address[]"}]},{"name":"rawAddress","type":"tuple","internalType":"struct FvmAddress","components":[{"name":"addrType","type":"uint8","internalType":"uint8"},{"name":"payload","type":"bytes","internalType":"bytes"}]}]},{"name":"value","type":"uint256","internalType":"uint256"},{"name":"nonce","type":"uint64","internalType":"uint64"},{"name":"method","type":"bytes4","internalType":"bytes4"},{"name":"params","type":"bytes","internalType":"bytes"},{"name":"fee","type":"uint256","internalType":"uint256"}]},{"name":"wrapped","type":"bool","internalType":"bool"}]}],"stateMutability":"pure"},{"type":"function","name":"createReleaseMsg","inputs":[{"name":"subnet","type":"tuple","internalType":"struct SubnetID","components":[{"name":"root","type":"uint64","internalType":"uint64"},{"name":"route","type":"address[]","internalType":"address[]"}]},{"name":"signer","type":"address","internalType":"address"},{"name":"to","type":"tuple","internalType":"struct FvmAddress","components":[{"name":"addrType","type":"uint8","internalType":"uint8"},{"name":"payload","type":"bytes","internalType":"bytes"}]},{"name":"value","type":"uint256","internalType":"uint256"},{"name":"fee","type":"uint256","internalType":"uint256"}],"outputs":[{"name":"","type":"tuple","internalType":"struct CrossMsg","components":[{"name":"message","type":"tuple","internalType":"struct StorableMsg","components":[{"name":"from","type":"tuple","internalType":"struct IPCAddress","components":[{"name":"subnetId","type":"tuple","internalType":"struct SubnetID","components":[{"name":"root","type":"uint64","internalType":"uint64"},{"name":"route","type":"address[]","internalType":"address[]"}]},{"name":"rawAddress","type":"tuple","internalType":"struct FvmAddress","components":[{"name":"addrType","type":"uint8","internalType":"uint8"},{"name":"payload","type":"bytes","internalType":"bytes"}]}]},{"name":"to","type":"tuple","internalType":"struct IPCAddress","components":[{"name":"subnetId","type":"tuple","internalType":"struct SubnetID","components":[{"name":"root","type":"uint64","internalType":"uint64"},{"name":"route","type":"address[]","internalType":"address[]"}]},{"name":"rawAddress","type":"tuple","internalType":"struct FvmAddress","components":[{"name":"addrType","type":"uint8","internalType":"uint8"},{"name":"payload","type":"bytes","internalType":"bytes"}]}]},{"name":"value","type":"uint256","internalType":"uint256"},{"name":"nonce","type":"uint64","internalType":"uint64"},{"name":"method","type":"bytes4","internalType":"bytes4"},{"name":"params","type":"bytes","internalType":"bytes"},{"name":"fee","type":"uint256","internalType":"uint256"}]},{"name":"wrapped","type":"bool","internalType":"bool"}]}],"stateMutability":"pure"},{"type":"function","name":"isEmpty","inputs":[{"name":"crossMsg","type":"tuple","internalType":"struct CrossMsg","components":[{"name":"message","type":"tuple","internalType":"struct StorableMsg","components":[{"name":"from","type":"tuple","internalType":"struct IPCAddress","components":[{"name":"subnetId","type":"tuple","internalType":"struct SubnetID","components":[{"name":"root","type":"uint64","internalType":"uint64"},{"name":"route","type":"address[]","internalType":"address[]"}]},{"name":"rawAddress","type":"tuple","internalType":"struct FvmAddress","components":[{"name":"addrType","type":"uint8","internalType":"uint8"},{"name":"payload","type":"bytes","internalType":"bytes"}]}]},{"name":"to","type":"tuple","internalType":"struct IPCAddress","components":[{"name":"subnetId","type":"tuple","internalType":"struct SubnetID","components":[{"name":"root","type":"uint64","internalType":"uint64"},{"name":"route","type":"address[]","internalType":"address[]"}]},{"name":"rawAddress","type":"tuple","internalType":"struct FvmAddress","components":[{"name":"addrType","type":"uint8","internalType":"uint8"},{"name":"payload","type":"bytes","internalType":"bytes"}]}]},{"name":"value","type":"uint256","internalType":"uint256"},{"name":"nonce","type":"uint64","internalType":"uint64"},{"name":"method","type":"bytes4","internalType":"bytes4"},{"name":"params","type":"bytes","internalType":"bytes"},{"name":"fee","type":"uint256","internalType":"uint256"}]},{"name":"wrapped","type":"bool","internalType":"bool"}]}],"outputs":[{"name":"","type":"bool","internalType":"bool"}],"stateMutability":"pure"},{"type":"function","name":"isSorted","inputs":[{"name":"crossMsgs","type":"tuple[]","internalType":"struct CrossMsg[]","components":[{"name":"message","type":"tuple","internalType":"struct StorableMsg","components":[{"name":"from","type":"tuple","internalType":"struct IPCAddress","components":[{"name":"subnetId","type":"tuple","internalType":"struct SubnetID","components":[{"name":"root","type":"uint64","internalType":"uint64"},{"name":"route","type":"address[]","internalType":"address[]"}]},{"name":"rawAddress","type":"tuple","internalType":"struct FvmAddress","components":[{"name":"addrType","type":"uint8","internalType":"uint8"},{"name":"payload","type":"bytes","internalType":"bytes"}]}]},{"name":"to","type":"tuple","internalType":"struct IPCAddress","components":[{"name":"subnetId","type":"tuple","internalType":"struct SubnetID","components":[{"name":"root","type":"uint64","internalType":"uint64"},{"name":"route","type":"address[]","internalType":"address[]"}]},{"name":"rawAddress","type":"tuple","internalType":"struct FvmAddress","components":[{"name":"addrType","type":"uint8","internalType":"uint8"},{"name":"payload","type":"bytes","internalType":"bytes"}]}]},{"name":"value","type":"uint256","internalType":"uint256"},{"name":"nonce","type":"uint64","internalType":"uint64"},{"name":"method","type":"bytes4","internalType":"bytes4"},{"name":"params","type":"bytes","internalType":"bytes"},{"name":"fee","type":"uint256","internalType":"uint256"}]},{"name":"wrapped","type":"bool","internalType":"bool"}]}],"outputs":[{"name":"","type":"bool","internalType":"bool"}],"stateMutability":"pure"},{"type":"function","name":"toHash","inputs":[{"name":"crossMsgs","type":"tuple[]","internalType":"struct CrossMsg[]","components":[{"name":"message","type":"tuple","internalType":"struct StorableMsg","components":[{"name":"from","type":"tuple","internalType":"struct IPCAddress","components":[{"name":"subnetId","type":"tuple","internalType":"struct SubnetID","components":[{"name":"root","type":"uint64","internalType":"uint64"},{"name":"route","type":"address[]","internalType":"address[]"}]},{"name":"rawAddress","type":"tuple","internalType":"struct FvmAddress","components":[{"name":"addrType","type":"uint8","internalType":"uint8"},{"name":"payload","type":"bytes","internalType":"bytes"}]}]},{"name":"to","type":"tuple","internalType":"struct IPCAddress","components":[{"name":"subnetId","type":"tuple","internalType":"struct SubnetID","components":[{"name":"root","type":"uint64","internalType":"uint64"},{"name":"route","type":"address[]","internalType":"address[]"}]},{"name":"rawAddress","type":"tuple","internalType":"struct FvmAddress","components":[{"name":"addrType","type":"uint8","internalType":"uint8"},{"name":"payload","type":"bytes","internalType":"bytes"}]}]},{"name":"value","type":"uint256","internalType":"uint256"},{"name":"nonce","type":"uint64","internalType":"uint64"},{"name":"method","type":"bytes4","internalType":"bytes4"},{"name":"params","type":"bytes","internalType":"bytes"},{"name":"fee","type":"uint256","internalType":"uint256"}]},{"name":"wrapped","type":"bool","internalType":"bool"}]}],"outputs":[{"name":"","type":"bytes32","internalType":"bytes32"}],"stateMutability":"pure"},{"type":"function","name":"toHash","inputs":[{"name":"crossMsg","type":"tuple","internalType":"struct CrossMsg","components":[{"name":"message","type":"tuple","internalType":"struct StorableMsg","components":[{"name":"from","type":"tuple","internalType":"struct IPCAddress","components":[{"name":"subnetId","type":"tuple","internalType":"struct SubnetID","components":[{"name":"root","type":"uint64","internalType":"uint64"},{"name":"route","type":"address[]","internalType":"address[]"}]},{"name":"rawAddress","type":"tuple","internalType":"struct FvmAddress","components":[{"name":"addrType","type":"uint8","internalType":"uint8"},{"name":"payload","type":"bytes","internalType":"bytes"}]}]},{"name":"to","type":"tuple","internalType":"struct IPCAddress","components":[{"name":"subnetId","type":"tuple","internalType":"struct SubnetID","components":[{"name":"root","type":"uint64","internalType":"uint64"},{"name":"route","type":"address[]","internalType":"address[]"}]},{"name":"rawAddress","type":"tuple","internalType":"struct FvmAddress","components":[{"name":"addrType","type":"uint8","internalType":"uint8"},{"name":"payload","type":"bytes","internalType":"bytes"}]}]},{"name":"value","type":"uint256","internalType":"uint256"},{"name":"nonce","type":"uint64","internalType":"uint64"},{"name":"method","type":"bytes4","internalType":"bytes4"},{"name":"params","type":"bytes","internalType":"bytes"},{"name":"fee","type":"uint256","internalType":"uint256"}]},{"name":"wrapped","type":"bool","internalType":"bool"}]}],"outputs":[{"name":"","type":"bytes32","internalType":"bytes32"}],"stateMutability":"pure"},{"type":"error","name":"AddressEmptyCode","inputs":[{"name":"target","type":"address","internalType":"address"}]},{"type":"error","name":"AddressInsufficientBalance","inputs":[{"name":"account","type":"address","internalType":"address"}]},{"type":"error","name":"FailedInnerCall","inputs":[]},{"type":"error","name":"NotDelegatedEvmAddress","inputs":[]}],"bytecode":{"object":"0x611b2061003a600b82828239805160001a60731461002d57634e487b7160e01b600052600060045260246000fd5b30600052607381538281f3fe73000000000000000000000000000000000000000030146080604052600436106100875760003560e01c8063b88dfdf611610065578063b88dfdf6146100e8578063ba09423414610115578063e5f0a62b14610135578063f230beb21461014857600080fd5b8063098b54c41461008c57806371686830146100b457806389841475146100d5575b600080fd5b61009f61009a366004610f50565b61015b565b60405190151581526020015b60405180910390f35b6100c76100c2366004610f84565b6101a5565b6040519081526020016100ab565b61009f6100e3366004611034565b6101d5565b8180156100f457600080fd5b506101086101033660046110c0565b61025f565b6040516100ab9190611144565b610128610123366004611157565b6103fd565b6040516100ab9190611291565b6100c7610143366004610f50565b61051f565b610128610156366004611157565b610532565b8051606001516000906001600160401b0316158015610188575081516020015151516001600160401b0316155b801561019f575081515151516001600160401b0316155b92915050565b6000816040516020016101b89190611487565b604051602081830303815290604052805190602001209050919050565b60008082815b818110156102535760008686838181106101f7576101f76114eb565b90506020028101906102099190611501565b6102139080611521565b610224906080810190606001611537565b6001600160401b0316905080841061024957811561024957600094505050505061019f565b92506001016101db565b50600195945050505050565b6060600061026d8380611521565b60400135905060006102bd6102af6102858680611521565b610293906020810190611501565b6102a1906020810190611501565b6102aa90611554565b610600565b6001600160a01b03166106d5565b905060006102cb8580611521565b6102dc9060a0810190608001611560565b6001600160e01b0319160361030c576102f5818361071c565b505060408051602081019091526000815292915050565b60006103188580611521565b6103269060a081019061157b565b8080601f01602080910402602001604051908101604052809392919081815260200183838082843760009201919091525092935061036e9250505060408601602087016115c8565b156103965784604051602001610384919061177a565b60405160208183030381529060405290505b60006103a28680611521565b6103b39060a0810190608001611560565b826040516020016103c592919061187b565b6040516020818303038152906040529050836000146103f3576103e98382866107bd565b9695505050505050565b6103e983826107d5565b610405610a61565b60408051610160810182529081908101806101208301806104258c6118ac565b81526020016104338b6107e6565b815250815260200160405180604001604052808b610450906118ac565b6040516308c7427760e11b815273__$a0fe38a9a81205afccc10810b09a4d3f45$__9163118e84ee9161048691906004016118b8565b600060405180830381865af41580156104a3573d6000803e3d6000fd5b505050506040513d6000823e601f3d908101601f191682016040526104cb91908101906118cb565b81526020016104d98a611554565b90528152602080820188905260006040808401829052606084018290528051808401909152818152608084015260a0909201879052918352910152905095945050505050565b6000816040516020016101b891906119ab565b61053a610a61565b604080516101608101825290819081018061012083018061055a8c6118ac565b6040516308c7427760e11b815273__$a0fe38a9a81205afccc10810b09a4d3f45$__9163118e84ee9161059091906004016118b8565b600060405180830381865af41580156105ad573d6000803e3d6000fd5b505050506040513d6000823e601f3d908101601f191682016040526105d591908101906118cb565b81526020016105e38b6107e6565b815250815260200160405180604001604052808b6104cb906118ac565b805160009060ff166004146106285760405163c5f8961f60e01b815260040160405180910390fd5b6000826020015180602001905181019061064291906119be565b80519091506001600160401b0316600a146106705760405163c5f8961f60e01b815260040160405180910390fd5b80602001516001600160801b031660141461069e5760405163c5f8961f60e01b815260040160405180910390fd5b8060400151516014146106c45760405163c5f8961f60e01b815260040160405180910390fd5b6040810151601401515b9392505050565b60008060006106e384610894565b91509150816106f457509192915050565b600080610700836108d0565b9150915081610713575093949350505050565b95945050505050565b804710156107445760405163cd78605960e01b81523060048201526024015b60405180910390fd5b6000826001600160a01b03168260405160006040518083038185875af1925050503d8060008114610791576040519150601f19603f3d011682016040523d82523d6000602084013e610796565b606091505b50509050806107b857604051630a12f52160e11b815260040160405180910390fd5b505050565b60606107cd84848461093a610953565b949350505050565b60606106ce8383600061093a610953565b60408051808201909152600081526060602082015260006040518060600160405280600a6001600160401b0316815260200160146001600160801b0316815260200184604051602001610851919060609190911b6bffffffffffffffffffffffff1916815260140190565b60408051601f198184030181529181529152516108719190602001611a97565b60408051601f198184030181528282019091526004825260208201529392505050565b60008073ffffffffffffffffffffffff0000000000000000831660ff60981b81036108ca57600192506001600160401b03841691505b50915091565b600080826000526016600a602060006002607f60991b015afa9150600051806001600160a01b031691508060a01c61ffff16905061040a81146109165760009250600091505b5081158061092557503d601614155b1561093557506000928392509050565b915091565b604051630a12f52160e11b815260040160405180910390fd5b6060824710156109785760405163cd78605960e01b815230600482015260240161073b565b600080866001600160a01b031685876040516109949190611ad8565b60006040518083038185875af1925050503d80600081146109d1576040519150601f19603f3d011682016040523d82523d6000602084013e6109d6565b606091505b50915091506109e7878383876109f2565b979650505050505050565b60608315610a40578251600003610a3957846001600160a01b03163b600003610a3957604051639996b31560e01b81526001600160a01b038616600482015260240161073b565b50816107cd565b6107cd8383815115610a555781518083602001fd5b61093a8163ffffffff16565b6040518060400160405280610a74610a81565b8152600060209091015290565b6040518060e00160405280610a94610ac9565b8152602001610aa1610ac9565b8152600060208201819052604082018190526060808301829052608083015260a09091015290565b6040805160808101825260009181019182526060808201529081908152602001610b096040518060400160405280600060ff168152602001606081525090565b905290565b634e487b7160e01b600052604160045260246000fd5b604080519081016001600160401b0381118282101715610b4657610b46610b0e565b60405290565b60405160e081016001600160401b0381118282101715610b4657610b46610b0e565b604051606081016001600160401b0381118282101715610b4657610b46610b0e565b604051601f8201601f191681016001600160401b0381118282101715610bb857610bb8610b0e565b604052919050565b6001600160401b0381168114610bd557600080fd5b50565b8035610be381610bc0565b919050565b60006001600160401b03821115610c0157610c01610b0e565b5060051b60200190565b6001600160a01b0381168114610bd557600080fd5b600060408284031215610c3257600080fd5b610c3a610b24565b90508135610c4781610bc0565b81526020828101356001600160401b03811115610c6357600080fd5b8301601f81018513610c7457600080fd5b8035610c87610c8282610be8565b610b90565b81815260059190911b82018301908381019087831115610ca657600080fd5b928401925b82841015610ccd578335610cbe81610c0b565b82529284019290840190610cab565b8085870152505050505092915050565b803560ff81168114610be357600080fd5b60006001600160401b03821115610d0757610d07610b0e565b50601f01601f191660200190565b600082601f830112610d2657600080fd5b8135610d34610c8282610cee565b818152846020838601011115610d4957600080fd5b816020850160208301376000918101602001919091529392505050565b600060408284031215610d7857600080fd5b610d80610b24565b9050610d8b82610cdd565b815260208201356001600160401b03811115610da657600080fd5b610db284828501610d15565b60208301525092915050565b600060408284031215610dd057600080fd5b610dd8610b24565b905081356001600160401b0380821115610df157600080fd5b610dfd85838601610c20565b83526020840135915080821115610e1357600080fd5b50610db284828501610d66565b80356001600160e01b031981168114610be357600080fd5b80358015158114610be357600080fd5b600060408284031215610e5a57600080fd5b610e62610b24565b905081356001600160401b0380821115610e7b57600080fd5b9083019060e08286031215610e8f57600080fd5b610e97610b4c565b823582811115610ea657600080fd5b610eb287828601610dbe565b825250602083013582811115610ec757600080fd5b610ed387828601610dbe565b60208301525060408301356040820152610eef60608401610bd8565b6060820152610f0060808401610e20565b608082015260a083013582811115610f1757600080fd5b610f2387828601610d15565b60a08301525060c083013560c0820152808452505050610f4560208301610e38565b602082015292915050565b600060208284031215610f6257600080fd5b81356001600160401b03811115610f7857600080fd5b6107cd84828501610e48565b60006020808385031215610f9757600080fd5b82356001600160401b0380821115610fae57600080fd5b818501915085601f830112610fc257600080fd5b8135610fd0610c8282610be8565b81815260059190911b83018401908481019088831115610fef57600080fd5b8585015b838110156110275780358581111561100b5760008081fd5b6110198b89838a0101610e48565b845250918601918601610ff3565b5098975050505050505050565b6000806020838503121561104757600080fd5b82356001600160401b038082111561105e57600080fd5b818501915085601f83011261107257600080fd5b81358181111561108157600080fd5b8660208260051b850101111561109657600080fd5b60209290920196919550909350505050565b6000604082840312156110ba57600080fd5b50919050565b6000602082840312156110d257600080fd5b81356001600160401b038111156110e857600080fd5b6107cd848285016110a8565b60005b8381101561110f5781810151838201526020016110f7565b50506000910152565b600081518084526111308160208601602086016110f4565b601f01601f19169290920160200192915050565b6020815260006106ce6020830184611118565b600080600080600060a0868803121561116f57600080fd5b85356001600160401b038082111561118657600080fd5b61119289838a016110a8565b9650602088013591506111a482610c0b565b909450604087013590808211156111ba57600080fd5b506111c7888289016110a8565b9598949750949560608101359550608001359392505050565b6000604083016001600160401b03835116845260208084015160406020870152828151808552606088019150602083019450600092505b808310156112405784516001600160a01b03168252938301936001929092019190830190611217565b509695505050505050565b600081516040845261126060408501826111e0565b90506020830151848203602086015260ff815116825260208101519050604060208301526107136040830182611118565b602081526000825160406020840152805160e060608501526112b761014085018261124b565b90506020820151605f19808684030160808701526112d5838361124b565b9250604084015160a08701526001600160401b0360608501511660c087015263ffffffff60e01b60808501511660e087015260a084015191508086840301610100870152506113248282611118565b60c09390930151610120860152505060208401518015156040850152906107cd565b8051604080845281516001600160401b031684820152602091820151606085019190915280516080850181905260009291820191839160a08701905b808410156113ab5784516001600160a01b03168252938201936001939093019290820190611382565b508186015193508681038288015260ff84511681528184015193506040828201526109e76040820185611118565b6000815160408452805160e060408601526113f8610120860182611346565b90506020820151603f19808784030160608801526114168383611346565b9250604084015160808801526001600160401b0360608501511660a088015263ffffffff60e01b60808501511660c088015260a08401519150808784030160e0880152506114648282611118565b91505060c0820151610100860152602084015191506107cd602086018315159052565b600060208083016020845280855180835260408601915060408160051b87010192506020870160005b828110156114de57603f198886030184526114cc8583516113d9565b945092850192908501906001016114b0565b5092979650505050505050565b634e487b7160e01b600052603260045260246000fd5b60008235603e1983360301811261151757600080fd5b9190910192915050565b6000823560de1983360301811261151757600080fd5b60006020828403121561154957600080fd5b81356106ce81610bc0565b600061019f3683610d66565b60006020828403121561157257600080fd5b6106ce82610e20565b6000808335601e1984360301811261159257600080fd5b8301803591506001600160401b038211156115ac57600080fd5b6020019150368190038213156115c157600080fd5b9250929050565b6000602082840312156115da57600080fd5b6106ce82610e38565b60008235603e198336030181126115f957600080fd5b90910192915050565b6000808335601e1984360301811261161957600080fd5b83016020810192503590506001600160401b0381111561163857600080fd5b8036038213156115c157600080fd5b81835281816020850137506000828201602090810191909152601f909101601f19169091010190565b60ff61167b82610cdd565b168252600061168d6020830183611602565b60406020860152610713604086018284611647565b60006116ae82836115e3565b604084526080840181356116c181610bc0565b6001600160401b0390811660408701526020908382013536859003601e190181126116eb57600080fd5b9093018181019390358181111561170157600080fd5b8060051b360385131561171357600080fd5b60406060890152928390525060009160a08701905b8084101561175a57843561173b81610c0b565b6001600160a01b03168252938201936001939093019290820190611728565b50611767828701876115e3565b9350868103828801526109e78185611670565b602081526000823560de1984360301811261179457600080fd5b6040602084015283016117a781806115e3565b60e060608501526117bc6101408501826116a2565b90506117cb60208301836115e3565b605f19808684030160808701526117e283836116a2565b9250604084013560a0870152606084013591506117fe82610bc0565b6001600160401b03821660c087015261181960808501610e20565b6001600160e01b0319811660e0880152915061183860a0850185611602565b92508187850301610100880152611850848483611647565b935050505060c082013561012085015261186c60208601610e38565b801515604086015291506107cd565b6001600160e01b031983168152815160009061189e8160048501602087016110f4565b919091016004019392505050565b600061019f3683610c20565b6020815260006106ce60208301846111e0565b600060208083850312156118de57600080fd5b82516001600160401b03808211156118f557600080fd5b908401906040828703121561190957600080fd5b611911610b24565b825161191c81610bc0565b8152828401518281111561192f57600080fd5b80840193505086601f84011261194457600080fd5b82519150611954610c8283610be8565b82815260059290921b8301840191848101908884111561197357600080fd5b938501935b8385101561199a57845161198b81610c0b565b82529385019390850190611978565b948201949094529695505050505050565b6020815260006106ce60208301846113d9565b600060208083850312156119d157600080fd5b82516001600160401b03808211156119e857600080fd5b90840190606082870312156119fc57600080fd5b611a04610b6e565b8251611a0f81610bc0565b8152828401516001600160801b0381168114611a2a57600080fd5b81850152604083015182811115611a4057600080fd5b80840193505086601f840112611a5557600080fd5b82519150611a65610c8283610cee565b8281528785848601011115611a7957600080fd5b611a88838683018787016110f4565b60408201529695505050505050565b602081526001600160401b0382511660208201526001600160801b036020830151166040820152600060408301516060808401526107cd6080840182611118565b600082516115178184602087016110f456fea2646970667358221220069098714acd7ef7ea1b22950854951dbfb7e79105677c35fbfaf3477c7f83f764736f6c63430008160033","linkReferences":{"src/lib/SubnetIDHelper.sol":{"SubnetIDHelper":[{"start":1177,"length":20},{"start":1443,"length":20}]}}},"methodIdentifiers":{"createFundMsg(SubnetID,address,FvmAddress,uint256,uint256)":"f230beb2","createReleaseMsg(SubnetID,address,FvmAddress,uint256,uint256)":"ba094234","execute(CrossMsg)":"b88dfdf6","isEmpty(CrossMsg)":"098b54c4","isSorted(CrossMsg[])":"89841475","toHash(CrossMsg)":"e5f0a62b","toHash(CrossMsg[])":"71686830"},"id":55}