{"abi":[{"type":"function","name":"createFundMsg","inputs":[{"name":"subnet","type":"tuple","internalType":"struct SubnetID","components":[{"name":"root","type":"uint64","internalType":"uint64"},{"name":"route","type":"address[]","internalType":"address[]"}]},{"name":"signer","type":"address","internalType":"address"},{"name":"to","type":"tuple","internalType":"struct FvmAddress","components":[{"name":"addrType","type":"uint8","internalType":"uint8"},{"name":"payload","type":"bytes","internalType":"bytes"}]},{"name":"value","type":"uint256","internalType":"uint256"},{"name":"fee","type":"uint256","internalType":"uint256"}],"outputs":[{"name":"","type":"tuple","internalType":"struct CrossMsg","components":[{"name":"message","type":"tuple","internalType":"struct StorableMsg","components":[{"name":"from","type":"tuple","internalType":"struct IPCAddress","components":[{"name":"subnetId","type":"tuple","internalType":"struct SubnetID","components":[{"name":"root","type":"uint64","internalType":"uint64"},{"name":"route","type":"address[]","internalType":"address[]"}]},{"name":"rawAddress","type":"tuple","internalType":"struct FvmAddress","components":[{"name":"addrType","type":"uint8","internalType":"uint8"},{"name":"payload","type":"bytes","internalType":"bytes"}]}]},{"name":"to","type":"tuple","internalType":"struct IPCAddress","components":[{"name":"subnetId","type":"tuple","internalType":"struct SubnetID","components":[{"name":"root","type":"uint64","internalType":"uint64"},{"name":"route","type":"address[]","internalType":"address[]"}]},{"name":"rawAddress","type":"tuple","internalType":"struct FvmAddress","components":[{"name":"addrType","type":"uint8","internalType":"uint8"},{"name":"payload","type":"bytes","internalType":"bytes"}]}]},{"name":"value","type":"uint256","internalType":"uint256"},{"name":"nonce","type":"uint64","internalType":"uint64"},{"name":"method","type":"bytes4","internalType":"bytes4"},{"name":"params","type":"bytes","internalType":"bytes"},{"name":"fee","type":"uint256","internalType":"uint256"}]},{"name":"wrapped","type":"bool","internalType":"bool"}]}],"stateMutability":"pure"},{"type":"function","name":"createReleaseMsg","inputs":[{"name":"subnet","type":"tuple","internalType":"struct SubnetID","components":[{"name":"root","type":"uint64","internalType":"uint64"},{"name":"route","type":"address[]","internalType":"address[]"}]},{"name":"signer","type":"address","internalType":"address"},{"name":"to","type":"tuple","internalType":"struct FvmAddress","components":[{"name":"addrType","type":"uint8","internalType":"uint8"},{"name":"payload","type":"bytes","internalType":"bytes"}]},{"name":"value","type":"uint256","internalType":"uint256"},{"name":"fee","type":"uint256","internalType":"uint256"}],"outputs":[{"name":"","type":"tuple","internalType":"struct CrossMsg","components":[{"name":"message","type":"tuple","internalType":"struct StorableMsg","components":[{"name":"from","type":"tuple","internalType":"struct IPCAddress","components":[{"name":"subnetId","type":"tuple","internalType":"struct SubnetID","components":[{"name":"root","type":"uint64","internalType":"uint64"},{"name":"route","type":"address[]","internalType":"address[]"}]},{"name":"rawAddress","type":"tuple","internalType":"struct FvmAddress","components":[{"name":"addrType","type":"uint8","internalType":"uint8"},{"name":"payload","type":"bytes","internalType":"bytes"}]}]},{"name":"to","type":"tuple","internalType":"struct IPCAddress","components":[{"name":"subnetId","type":"tuple","internalType":"struct SubnetID","components":[{"name":"root","type":"uint64","internalType":"uint64"},{"name":"route","type":"address[]","internalType":"address[]"}]},{"name":"rawAddress","type":"tuple","internalType":"struct FvmAddress","components":[{"name":"addrType","type":"uint8","internalType":"uint8"},{"name":"payload","type":"bytes","internalType":"bytes"}]}]},{"name":"value","type":"uint256","internalType":"uint256"},{"name":"nonce","type":"uint64","internalType":"uint64"},{"name":"method","type":"bytes4","internalType":"bytes4"},{"name":"params","type":"bytes","internalType":"bytes"},{"name":"fee","type":"uint256","internalType":"uint256"}]},{"name":"wrapped","type":"bool","internalType":"bool"}]}],"stateMutability":"pure"},{"type":"function","name":"isEmpty","inputs":[{"name":"crossMsg","type":"tuple","internalType":"struct CrossMsg","components":[{"name":"message","type":"tuple","internalType":"struct StorableMsg","components":[{"name":"from","type":"tuple","internalType":"struct IPCAddress","components":[{"name":"subnetId","type":"tuple","internalType":"struct SubnetID","components":[{"name":"root","type":"uint64","internalType":"uint64"},{"name":"route","type":"address[]","internalType":"address[]"}]},{"name":"rawAddress","type":"tuple","internalType":"struct FvmAddress","components":[{"name":"addrType","type":"uint8","internalType":"uint8"},{"name":"payload","type":"bytes","internalType":"bytes"}]}]},{"name":"to","type":"tuple","internalType":"struct IPCAddress","components":[{"name":"subnetId","type":"tuple","internalType":"struct SubnetID","components":[{"name":"root","type":"uint64","internalType":"uint64"},{"name":"route","type":"address[]","internalType":"address[]"}]},{"name":"rawAddress","type":"tuple","internalType":"struct FvmAddress","components":[{"name":"addrType","type":"uint8","internalType":"uint8"},{"name":"payload","type":"bytes","internalType":"bytes"}]}]},{"name":"value","type":"uint256","internalType":"uint256"},{"name":"nonce","type":"uint64","internalType":"uint64"},{"name":"method","type":"bytes4","internalType":"bytes4"},{"name":"params","type":"bytes","internalType":"bytes"},{"name":"fee","type":"uint256","internalType":"uint256"}]},{"name":"wrapped","type":"bool","internalType":"bool"}]}],"outputs":[{"name":"","type":"bool","internalType":"bool"}],"stateMutability":"pure"},{"type":"function","name":"isSorted","inputs":[{"name":"crossMsgs","type":"tuple[]","internalType":"struct CrossMsg[]","components":[{"name":"message","type":"tuple","internalType":"struct StorableMsg","components":[{"name":"from","type":"tuple","internalType":"struct IPCAddress","components":[{"name":"subnetId","type":"tuple","internalType":"struct SubnetID","components":[{"name":"root","type":"uint64","internalType":"uint64"},{"name":"route","type":"address[]","internalType":"address[]"}]},{"name":"rawAddress","type":"tuple","internalType":"struct FvmAddress","components":[{"name":"addrType","type":"uint8","internalType":"uint8"},{"name":"payload","type":"bytes","internalType":"bytes"}]}]},{"name":"to","type":"tuple","internalType":"struct IPCAddress","components":[{"name":"subnetId","type":"tuple","internalType":"struct SubnetID","components":[{"name":"root","type":"uint64","internalType":"uint64"},{"name":"route","type":"address[]","internalType":"address[]"}]},{"name":"rawAddress","type":"tuple","internalType":"struct FvmAddress","components":[{"name":"addrType","type":"uint8","internalType":"uint8"},{"name":"payload","type":"bytes","internalType":"bytes"}]}]},{"name":"value","type":"uint256","internalType":"uint256"},{"name":"nonce","type":"uint64","internalType":"uint64"},{"name":"method","type":"bytes4","internalType":"bytes4"},{"name":"params","type":"bytes","internalType":"bytes"},{"name":"fee","type":"uint256","internalType":"uint256"}]},{"name":"wrapped","type":"bool","internalType":"bool"}]}],"outputs":[{"name":"","type":"bool","internalType":"bool"}],"stateMutability":"pure"},{"type":"function","name":"toHash","inputs":[{"name":"crossMsgs","type":"tuple[]","internalType":"struct CrossMsg[]","components":[{"name":"message","type":"tuple","internalType":"struct StorableMsg","components":[{"name":"from","type":"tuple","internalType":"struct IPCAddress","components":[{"name":"subnetId","type":"tuple","internalType":"struct SubnetID","components":[{"name":"root","type":"uint64","internalType":"uint64"},{"name":"route","type":"address[]","internalType":"address[]"}]},{"name":"rawAddress","type":"tuple","internalType":"struct FvmAddress","components":[{"name":"addrType","type":"uint8","internalType":"uint8"},{"name":"payload","type":"bytes","internalType":"bytes"}]}]},{"name":"to","type":"tuple","internalType":"struct IPCAddress","components":[{"name":"subnetId","type":"tuple","internalType":"struct SubnetID","components":[{"name":"root","type":"uint64","internalType":"uint64"},{"name":"route","type":"address[]","internalType":"address[]"}]},{"name":"rawAddress","type":"tuple","internalType":"struct FvmAddress","components":[{"name":"addrType","type":"uint8","internalType":"uint8"},{"name":"payload","type":"bytes","internalType":"bytes"}]}]},{"name":"value","type":"uint256","internalType":"uint256"},{"name":"nonce","type":"uint64","internalType":"uint64"},{"name":"method","type":"bytes4","internalType":"bytes4"},{"name":"params","type":"bytes","internalType":"bytes"},{"name":"fee","type":"uint256","internalType":"uint256"}]},{"name":"wrapped","type":"bool","internalType":"bool"}]}],"outputs":[{"name":"","type":"bytes32","internalType":"bytes32"}],"stateMutability":"pure"},{"type":"function","name":"toHash","inputs":[{"name":"crossMsg","type":"tuple","internalType":"struct CrossMsg","components":[{"name":"message","type":"tuple","internalType":"struct StorableMsg","components":[{"name":"from","type":"tuple","internalType":"struct IPCAddress","components":[{"name":"subnetId","type":"tuple","internalType":"struct SubnetID","components":[{"name":"root","type":"uint64","internalType":"uint64"},{"name":"route","type":"address[]","internalType":"address[]"}]},{"name":"rawAddress","type":"tuple","internalType":"struct FvmAddress","components":[{"name":"addrType","type":"uint8","internalType":"uint8"},{"name":"payload","type":"bytes","internalType":"bytes"}]}]},{"name":"to","type":"tuple","internalType":"struct IPCAddress","components":[{"name":"subnetId","type":"tuple","internalType":"struct SubnetID","components":[{"name":"root","type":"uint64","internalType":"uint64"},{"name":"route","type":"address[]","internalType":"address[]"}]},{"name":"rawAddress","type":"tuple","internalType":"struct FvmAddress","components":[{"name":"addrType","type":"uint8","internalType":"uint8"},{"name":"payload","type":"bytes","internalType":"bytes"}]}]},{"name":"value","type":"uint256","internalType":"uint256"},{"name":"nonce","type":"uint64","internalType":"uint64"},{"name":"method","type":"bytes4","internalType":"bytes4"},{"name":"params","type":"bytes","internalType":"bytes"},{"name":"fee","type":"uint256","internalType":"uint256"}]},{"name":"wrapped","type":"bool","internalType":"bool"}]}],"outputs":[{"name":"","type":"bytes32","internalType":"bytes32"}],"stateMutability":"pure"},{"type":"error","name":"AddressEmptyCode","inputs":[{"name":"target","type":"address","internalType":"address"}]},{"type":"error","name":"AddressInsufficientBalance","inputs":[{"name":"account","type":"address","internalType":"address"}]},{"type":"error","name":"FailedInnerCall","inputs":[]},{"type":"error","name":"NotDelegatedEvmAddress","inputs":[]}],"bytecode":{"object":"0x6080806040523461001c5761160d908161002282393081607b0152f35b600080fdfe6080604052600436101561001257600080fd5b60003560e01c8063098b54c4146100af57806371686830146100aa57806389841475146100a5578063b88dfdf614610078578063ba09423414610073578063e5f0a62b1461006e5763f230beb21461006957600080fd5b61098b565b61094c565b610820565b307f000000000000000000000000000000000000000000000000000000000000000003610646575b600080fd5b610593565b6104df565b60206100ba366104b5565b516001600160401b03806060830151161591826100f2575b826100e4575b50506040519015158152f35b5151511615905082806100d8565b83810151515182161592506100d2565b634e487b7160e01b600052604160045260246000fd5b604081019081106001600160401b0382111761013357604052565b610102565b606081019081106001600160401b0382111761013357604052565b90601f801991011681019081106001600160401b0382111761013357604052565b6040519060e082018281106001600160401b0382111761013357604052565b604051906101a082610118565b565b6001600160401b038116036100a057565b35906101a0826101a2565b6001600160401b0381116101335760051b60200190565b6001600160a01b038116036100a057565b91906040838203126100a057604051926101ff84610118565b83813561020b816101a2565b815260209182810135906001600160401b0382116100a057019280601f850112156100a057833561023b816101be565b946102496040519687610153565b818652848087019260051b8201019283116100a05784809101915b83831061027357505050500152565b81908335610280816101d5565b8152019101908490610264565b359060ff821682036100a057565b6001600160401b03811161013357601f01601f191660200190565b9291926102c28261029b565b916102d06040519384610153565b8294818452818301116100a0578281602093846000960137010152565b9080601f830112156100a057816020610308933591016102b6565b90565b91906040838203126100a0576040519061032482610118565b819361032f8161028d565b83526020810135916001600160401b0383116100a05760209261035292016102ed565b910152565b91906040838203126100a0576040519061037082610118565b81938035916001600160401b03928381116100a057816103919184016101e6565b845260208201359283116100a057602092610352920161030b565b6001600160e01b03198116036100a057565b35906101a0826103ac565b801515036100a057565b35906101a0826103c9565b91906040838203126100a057604051906103f782610118565b819380356001600160401b03908181116100a05782019160e0838503126100a057610420610174565b83358381116100a05785610435918601610357565b815260208401358381116100a0578561044f918601610357565b60208201526040840135604082015261046a606085016101b3565b606082015261047b608085016103be565b608082015260a08401359283116100a05760c0846104a1602097889661035298016102ed565b60a0840152013560c08201528552016103d3565b60206003198201126100a057600435906001600160401b0382116100a057610308916004016103de565b6020806003193601126100a0576001600160401b03906004358281116100a057366023820112156100a0576024600482013561051a816101be565b946105286040519687610153565b8186526024602087019260051b850101933685116100a05760248101925b85841061056d5761056961055989610b82565b6040519081529081906020820190565b0390f35b83358381116100a057879161058883928836918701016103de565b815201930192610546565b60203660031901126100a0576001600160401b036004358181116100a057366023820112156100a05780600401359182116100a0573660248360051b830101116100a05760209160246105e69201610c2e565b6040519015158152f35b908160409103126100a05790565b60005b8381106106115750506000910152565b8181015183820152602001610601565b9060209161063a815180928185528580860191016105fe565b601f01601f1916010190565b60203660031901126100a0576004356001600160401b0381116100a05761067c6106776105699236906004016105f0565b610f8a565b604051918291602083526020830190610621565b60a06003198201126100a0576001600160401b03916004358381116100a057826106bc916004016105f0565b926024356106c9816101d5565b926044359182116100a0576106e0916004016105f0565b906064359060843590565b604082016001600160401b0382511683526020606081809401519460408382015285518094520193019160005b828110610726575050505090565b83516001600160a01b031685529381019392810192600101610718565b60406020610308938161075d8551858452858401906106eb565b940151908281860391015260ff81511684520151918160208201520190610621565b610308906020815260406020845194828285015260c061080e6107af885160e06060890152610140880190610743565b6107ca858a015191605f1992838a83030160808b0152610743565b90868a015160a08901526001600160401b0360608b0151168489015263ffffffff60e01b60808b01511660e089015260a08a01519088830301610100890152610621565b96015161012085015201511515910152565b61084761086961088861083236610690565b939591926108419791976110d3565b5061143c565b94610850610193565b9561085b36836101e6565b8752602087015236906101e6565b94604051956308c7427760e11b875286806000968793600483016111f9565b038173__$a0fe38a9a81205afccc10810b09a4d3f45$__5af49182156109475761056996859361091f575b506108ca906108c0610193565b938452369061030b565b60208301526108d7610ca9565b916108e0610174565b9586526020860152604085015282606085015282608085015260a084015260c083015261090b610193565b91825260208201526040519182918261077f565b6108ca919350610940903d8088833e6109388183610153565b81019061113e565b92906108b3565b61120a565b6020610957366104b5565b60405161098081610972858201948686526040830190610ae6565b03601f198101835282610153565b519020604051908152f35b6109ce61099736610690565b91949293906109a46110d3565b506109af36836101e6565b95604051966308c7427760e11b885287806000978893600483016111f9565b038173__$a0fe38a9a81205afccc10810b09a4d3f45$__5af495861561094757610569978697610a33575b5090610a076108ca9261143c565b610a0f610193565b9788526020880152610a2a610a22610193565b9436906101e6565b8452369061030b565b6108ca92919750610a50610a07913d808a833e6109388183610153565b979192506109f9565b91908251906040815260808101936001600160401b038351166040830152602080930151946040606084015285518091528360a0840196019060005b818110610ac9575050509360408381938161030897980151908281860391015260ff81511684520151938201520190610621565b82516001600160a01b031688529685019691850191600101610a95565b90610308906020808451946040845260c0610b70610b11885160e06040890152610120880190610a59565b610b2c858a015191603f1992838a83030160608b0152610a59565b9060408a015160808901526001600160401b0360608b01511660a089015263ffffffff60e01b60808b0151168489015260a08a0151908883030160e0890152610621565b96015161010085015201511515910152565b6040516020816020810193604082016020865281518091526060830193602060608360051b8601019301946000905b838210610bd55750505050610bcf925003601f198101835282610153565b51902090565b9160019193955080610bf28196605f198b82030186528951610ae6565b97019201920186949295939195610bb1565b903590603e19813603018212156100a0570190565b90359060de19813603018212156100a0570190565b600090815b838310610c435750505050600190565b6001600160401b036060610c65610c5f8660051b860186610c04565b80610c19565b0135610c70816101a2565b1680911015610c85575b600190920191610c33565b8215610c7a5750505050600090565b61030890369061030b565b35610308816103ac565b60405190602082018281106001600160401b038211176101335760405260008252565b903590601e19813603018212156100a057018035906001600160401b0382116100a0576020019181360383136100a057565b35610308816103c9565b9035603e19823603018112156100a0570190565b9035601e19823603018112156100a05701602081359101916001600160401b0382116100a05781360383136100a057565b908060209392818452848401376000828201840152601f01601f1916010190565b906040610d906103089360ff610d838261028d565b1684526020810190610d1c565b9190928160208201520191610d4d565b919091610dad8180610d08565b604084526080840193813592610dc2846101a2565b6001600160401b03809416604083015260209283810135601e19823603018112156100a057019583873597019487116100a0578660051b360385136100a0578690604060608501525260a08201936000965b808810610e3c5750506103089495508083610e30920190610d08565b91818403910152610d6e565b909484806001928835610e4e816101d5565b848060a01b0316815201960197019690610e14565b6020815281359060de19833603018212156100a0576040610f43602085610308950195838286015260c0610f34610eaf610e9d8a80610d08565b60e060608a0152610140890190610da0565b610ed2610ebe868c018c610d08565b91605f1992838b83030160808c0152610da0565b90878b013560a08a01526001600160401b0360608c0135610ef2816101a2565b16848a0152610f17610f0660808d016103be565b6001600160e01b03191660e08b0152565b610f2460a08c018c610d1c565b918a8403016101008b0152610d4d565b970135610120860152016103d3565b1515910152565b60246101a09193929360405194859163ffffffff60e01b166020830152610f7a81518092602086860191016105fe565b8101036004810185520183610153565b6040610f968280610c19565b0135610fca610fc5610fc0610fbb610fb1610fb18780610c19565b6020810190610c04565b610c94565b6112c7565b61135f565b916001600160e01b0319610fe96080610fe38480610c19565b01610c9f565b161561107c578061101461100d6110038361103a95610c19565b60a0810190610ccc565b36916102b6565b9061102160208201610cfe565b611054575b6080610fe38261103593610c19565b610f4a565b908061104a575061030891611570565b9061030892611548565b90506110356080610fe3604051611072816109728760208301610e63565b9392505050611026565b5061108f916001600160a01b03166113e7565b610308610ca9565b604051906110a482610118565b6060602083600081520152565b604051906110be82610118565b816110c7611097565b81526020610352611097565b604051906110e082610118565b60405160e08101836001600160401b038211838310176101335760009260209260405261110b6110b1565b81526111156110b1565b83820152836040820152836060820152836080820152606060a08201528360c082015281520152565b90602080838303126100a05782516001600160401b03938482116100a05701926040848403126100a0576040519361117585610118565b8051611180816101a2565b8552828101519182116100a057019180601f840112156100a05782516111a5816101be565b936111b36040519586610153565b818552838086019260051b8201019283116100a05783809101915b8383106111df575050505082015290565b819083516111ec816101d5565b81520191019083906111ce565b9060206103089281815201906106eb565b6040513d6000823e3d90fd5b90602080838303126100a05782516001600160401b03938482116100a05701926060848403126100a0576040519361124d85610138565b8051611258816101a2565b8552828101516001600160801b03811681036100a0578386015260408101519182116100a0570182601f820112156100a0578051906112968261029b565b936112a46040519586610153565b8285528383830101116100a057826112bf93850191016105fe565b604082015290565b600460ff6112d6835160ff1690565b160361134d5760206112f391015160208082518301019101611216565b600a6001600160401b0361130e83516001600160401b031690565b160361134d5760146001600160801b0361133260208401516001600160801b031690565b160361134d5760400160148151510361134d57516014015190565b60405163c5f8961f60e01b8152600490fd5b60008073ffffffffffffffffffffffff0000000000000000831660ff60981b146113a4575b156113a057611392906114e6565b9061139b575090565b905090565b5090565b50506001600160401b0381166001611384565b3d156113e2573d906113c88261029b565b916113d66040519384610153565b82523d6000602084013e565b606090565b814710611424576000918291829182916001600160a01b03165af161140a6113b7565b501561141257565b604051630a12f52160e11b8152600490fd5b60405163cd78605960e01b8152306004820152602490fd5b6114d16001600160401b0391611450611097565b50604051906bffffffffffffffffffffffff199060601b1660208201526014815261147a81610118565b6109726040519161148a83610138565b600a83526001600160801b036020840160148152604085019283526040519687956020808801525116604086015251166060840152516060608084015260a0830190610621565b6114d9610193565b6004815290602082015290565b60009081526016600a6020836002607f60991b015afa9181519161040a8360018060a01b03169360a01c61ffff160361153c575b83158015611531575b61152a5750565b9250829150565b5060163d1415611523565b6000935091508161151a565b9082471061142457600081610308946020839451920190855af161156a6113b7565b91611589565b6000806103089360208151910182855af161156a6113b7565b90156115c75781511561159a575090565b803b156115a5575090565b604051639996b31560e01b81526001600160a01b039091166004820152602490fd5b5080511561141257805190602001fdfea26469706673582212202183cb8d49d0758e6f31f2b5545b54b22b95179c68ff4521272117c1212da5fe64736f6c63430008160033","linkReferences":{"src/lib/SubnetIDHelper.sol":{"SubnetIDHelper":[{"start":2222,"length":20},{"start":2548,"length":20}]}}},"methodIdentifiers":{"createFundMsg(SubnetID,address,FvmAddress,uint256,uint256)":"f230beb2","createReleaseMsg(SubnetID,address,FvmAddress,uint256,uint256)":"ba094234","execute(CrossMsg)":"b88dfdf6","isEmpty(CrossMsg)":"098b54c4","isSorted(CrossMsg[])":"89841475","toHash(CrossMsg)":"e5f0a62b","toHash(CrossMsg[])":"71686830"},"id":55}