{
  "abi": [
    {
      "inputs": [
        {
          "internalType": "address",
          "name": "target",
          "type": "address"
        }
      ],
      "name": "AddressEmptyCode",
      "type": "error"
    },
    {
      "inputs": [
        {
          "internalType": "address",
          "name": "account",
          "type": "address"
        }
      ],
      "name": "AddressInsufficientBalance",
      "type": "error"
    },
    {
      "inputs": [],
      "name": "FailedInnerCall",
      "type": "error"
    },
    {
      "inputs": [],
      "name": "NotDelegatedEvmAddress",
      "type": "error"
    },
    {
      "inputs": [
        {
          "components": [
            {
              "internalType": "uint64",
              "name": "root",
              "type": "uint64"
            },
            {
              "internalType": "address[]",
              "name": "route",
              "type": "address[]"
            }
          ],
          "internalType": "struct SubnetID",
          "name": "subnet",
          "type": "tuple"
        },
        {
          "internalType": "address",
          "name": "signer",
          "type": "address"
        },
        {
          "components": [
            {
              "internalType": "uint8",
              "name": "addrType",
              "type": "uint8"
            },
            {
              "internalType": "bytes",
              "name": "payload",
              "type": "bytes"
            }
          ],
          "internalType": "struct FvmAddress",
          "name": "to",
          "type": "tuple"
        },
        {
          "internalType": "uint256",
          "name": "value",
          "type": "uint256"
        },
        {
          "internalType": "uint256",
          "name": "fee",
          "type": "uint256"
        }
      ],
      "name": "createFundMsg",
      "outputs": [
        {
          "components": [
            {
              "components": [
                {
                  "components": [
                    {
                      "components": [
                        {
                          "internalType": "uint64",
                          "name": "root",
                          "type": "uint64"
                        },
                        {
                          "internalType": "address[]",
                          "name": "route",
                          "type": "address[]"
                        }
                      ],
                      "internalType": "struct SubnetID",
                      "name": "subnetId",
                      "type": "tuple"
                    },
                    {
                      "components": [
                        {
                          "internalType": "uint8",
                          "name": "addrType",
                          "type": "uint8"
                        },
                        {
                          "internalType": "bytes",
                          "name": "payload",
                          "type": "bytes"
                        }
                      ],
                      "internalType": "struct FvmAddress",
                      "name": "rawAddress",
                      "type": "tuple"
                    }
                  ],
                  "internalType": "struct IPCAddress",
                  "name": "from",
                  "type": "tuple"
                },
                {
                  "components": [
                    {
                      "components": [
                        {
                          "internalType": "uint64",
                          "name": "root",
                          "type": "uint64"
                        },
                        {
                          "internalType": "address[]",
                          "name": "route",
                          "type": "address[]"
                        }
                      ],
                      "internalType": "struct SubnetID",
                      "name": "subnetId",
                      "type": "tuple"
                    },
                    {
                      "components": [
                        {
                          "internalType": "uint8",
                          "name": "addrType",
                          "type": "uint8"
                        },
                        {
                          "internalType": "bytes",
                          "name": "payload",
                          "type": "bytes"
                        }
                      ],
                      "internalType": "struct FvmAddress",
                      "name": "rawAddress",
                      "type": "tuple"
                    }
                  ],
                  "internalType": "struct IPCAddress",
                  "name": "to",
                  "type": "tuple"
                },
                {
                  "internalType": "uint256",
                  "name": "value",
                  "type": "uint256"
                },
                {
                  "internalType": "uint64",
                  "name": "nonce",
                  "type": "uint64"
                },
                {
                  "internalType": "bytes4",
                  "name": "method",
                  "type": "bytes4"
                },
                {
                  "internalType": "bytes",
                  "name": "params",
                  "type": "bytes"
                },
                {
                  "internalType": "uint256",
                  "name": "fee",
                  "type": "uint256"
                }
              ],
              "internalType": "struct StorableMsg",
              "name": "message",
              "type": "tuple"
            },
            {
              "internalType": "bool",
              "name": "wrapped",
              "type": "bool"
            }
          ],
          "internalType": "struct CrossMsg",
          "name": "",
          "type": "tuple"
        }
      ],
      "stateMutability": "pure",
      "type": "function"
    },
    {
      "inputs": [
        {
          "components": [
            {
              "internalType": "uint64",
              "name": "root",
              "type": "uint64"
            },
            {
              "internalType": "address[]",
              "name": "route",
              "type": "address[]"
            }
          ],
          "internalType": "struct SubnetID",
          "name": "subnet",
          "type": "tuple"
        },
        {
          "internalType": "address",
          "name": "signer",
          "type": "address"
        },
        {
          "components": [
            {
              "internalType": "uint8",
              "name": "addrType",
              "type": "uint8"
            },
            {
              "internalType": "bytes",
              "name": "payload",
              "type": "bytes"
            }
          ],
          "internalType": "struct FvmAddress",
          "name": "to",
          "type": "tuple"
        },
        {
          "internalType": "uint256",
          "name": "value",
          "type": "uint256"
        },
        {
          "internalType": "uint256",
          "name": "fee",
          "type": "uint256"
        }
      ],
      "name": "createReleaseMsg",
      "outputs": [
        {
          "components": [
            {
              "components": [
                {
                  "components": [
                    {
                      "components": [
                        {
                          "internalType": "uint64",
                          "name": "root",
                          "type": "uint64"
                        },
                        {
                          "internalType": "address[]",
                          "name": "route",
                          "type": "address[]"
                        }
                      ],
                      "internalType": "struct SubnetID",
                      "name": "subnetId",
                      "type": "tuple"
                    },
                    {
                      "components": [
                        {
                          "internalType": "uint8",
                          "name": "addrType",
                          "type": "uint8"
                        },
                        {
                          "internalType": "bytes",
                          "name": "payload",
                          "type": "bytes"
                        }
                      ],
                      "internalType": "struct FvmAddress",
                      "name": "rawAddress",
                      "type": "tuple"
                    }
                  ],
                  "internalType": "struct IPCAddress",
                  "name": "from",
                  "type": "tuple"
                },
                {
                  "components": [
                    {
                      "components": [
                        {
                          "internalType": "uint64",
                          "name": "root",
                          "type": "uint64"
                        },
                        {
                          "internalType": "address[]",
                          "name": "route",
                          "type": "address[]"
                        }
                      ],
                      "internalType": "struct SubnetID",
                      "name": "subnetId",
                      "type": "tuple"
                    },
                    {
                      "components": [
                        {
                          "internalType": "uint8",
                          "name": "addrType",
                          "type": "uint8"
                        },
                        {
                          "internalType": "bytes",
                          "name": "payload",
                          "type": "bytes"
                        }
                      ],
                      "internalType": "struct FvmAddress",
                      "name": "rawAddress",
                      "type": "tuple"
                    }
                  ],
                  "internalType": "struct IPCAddress",
                  "name": "to",
                  "type": "tuple"
                },
                {
                  "internalType": "uint256",
                  "name": "value",
                  "type": "uint256"
                },
                {
                  "internalType": "uint64",
                  "name": "nonce",
                  "type": "uint64"
                },
                {
                  "internalType": "bytes4",
                  "name": "method",
                  "type": "bytes4"
                },
                {
                  "internalType": "bytes",
                  "name": "params",
                  "type": "bytes"
                },
                {
                  "internalType": "uint256",
                  "name": "fee",
                  "type": "uint256"
                }
              ],
              "internalType": "struct StorableMsg",
              "name": "message",
              "type": "tuple"
            },
            {
              "internalType": "bool",
              "name": "wrapped",
              "type": "bool"
            }
          ],
          "internalType": "struct CrossMsg",
          "name": "",
          "type": "tuple"
        }
      ],
      "stateMutability": "pure",
      "type": "function"
    },
    {
      "inputs": [
        {
          "components": [
            {
              "components": [
                {
                  "components": [
                    {
                      "components": [
                        {
                          "internalType": "uint64",
                          "name": "root",
                          "type": "uint64"
                        },
                        {
                          "internalType": "address[]",
                          "name": "route",
                          "type": "address[]"
                        }
                      ],
                      "internalType": "struct SubnetID",
                      "name": "subnetId",
                      "type": "tuple"
                    },
                    {
                      "components": [
                        {
                          "internalType": "uint8",
                          "name": "addrType",
                          "type": "uint8"
                        },
                        {
                          "internalType": "bytes",
                          "name": "payload",
                          "type": "bytes"
                        }
                      ],
                      "internalType": "struct FvmAddress",
                      "name": "rawAddress",
                      "type": "tuple"
                    }
                  ],
                  "internalType": "struct IPCAddress",
                  "name": "from",
                  "type": "tuple"
                },
                {
                  "components": [
                    {
                      "components": [
                        {
                          "internalType": "uint64",
                          "name": "root",
                          "type": "uint64"
                        },
                        {
                          "internalType": "address[]",
                          "name": "route",
                          "type": "address[]"
                        }
                      ],
                      "internalType": "struct SubnetID",
                      "name": "subnetId",
                      "type": "tuple"
                    },
                    {
                      "components": [
                        {
                          "internalType": "uint8",
                          "name": "addrType",
                          "type": "uint8"
                        },
                        {
                          "internalType": "bytes",
                          "name": "payload",
                          "type": "bytes"
                        }
                      ],
                      "internalType": "struct FvmAddress",
                      "name": "rawAddress",
                      "type": "tuple"
                    }
                  ],
                  "internalType": "struct IPCAddress",
                  "name": "to",
                  "type": "tuple"
                },
                {
                  "internalType": "uint256",
                  "name": "value",
                  "type": "uint256"
                },
                {
                  "internalType": "uint64",
                  "name": "nonce",
                  "type": "uint64"
                },
                {
                  "internalType": "bytes4",
                  "name": "method",
                  "type": "bytes4"
                },
                {
                  "internalType": "bytes",
                  "name": "params",
                  "type": "bytes"
                },
                {
                  "internalType": "uint256",
                  "name": "fee",
                  "type": "uint256"
                }
              ],
              "internalType": "struct StorableMsg",
              "name": "message",
              "type": "tuple"
            },
            {
              "internalType": "bool",
              "name": "wrapped",
              "type": "bool"
            }
          ],
          "internalType": "struct CrossMsg[]",
          "name": "crossMsgs",
          "type": "tuple[]"
        }
      ],
      "name": "isSorted",
      "outputs": [
        {
          "internalType": "bool",
          "name": "",
          "type": "bool"
        }
      ],
      "stateMutability": "pure",
      "type": "function"
    },
    {
      "inputs": [
        {
          "components": [
            {
              "components": [
                {
                  "components": [
                    {
                      "components": [
                        {
                          "internalType": "uint64",
                          "name": "root",
                          "type": "uint64"
                        },
                        {
                          "internalType": "address[]",
                          "name": "route",
                          "type": "address[]"
                        }
                      ],
                      "internalType": "struct SubnetID",
                      "name": "subnetId",
                      "type": "tuple"
                    },
                    {
                      "components": [
                        {
                          "internalType": "uint8",
                          "name": "addrType",
                          "type": "uint8"
                        },
                        {
                          "internalType": "bytes",
                          "name": "payload",
                          "type": "bytes"
                        }
                      ],
                      "internalType": "struct FvmAddress",
                      "name": "rawAddress",
                      "type": "tuple"
                    }
                  ],
                  "internalType": "struct IPCAddress",
                  "name": "from",
                  "type": "tuple"
                },
                {
                  "components": [
                    {
                      "components": [
                        {
                          "internalType": "uint64",
                          "name": "root",
                          "type": "uint64"
                        },
                        {
                          "internalType": "address[]",
                          "name": "route",
                          "type": "address[]"
                        }
                      ],
                      "internalType": "struct SubnetID",
                      "name": "subnetId",
                      "type": "tuple"
                    },
                    {
                      "components": [
                        {
                          "internalType": "uint8",
                          "name": "addrType",
                          "type": "uint8"
                        },
                        {
                          "internalType": "bytes",
                          "name": "payload",
                          "type": "bytes"
                        }
                      ],
                      "internalType": "struct FvmAddress",
                      "name": "rawAddress",
                      "type": "tuple"
                    }
                  ],
                  "internalType": "struct IPCAddress",
                  "name": "to",
                  "type": "tuple"
                },
                {
                  "internalType": "uint256",
                  "name": "value",
                  "type": "uint256"
                },
                {
                  "internalType": "uint64",
                  "name": "nonce",
                  "type": "uint64"
                },
                {
                  "internalType": "bytes4",
                  "name": "method",
                  "type": "bytes4"
                },
                {
                  "internalType": "bytes",
                  "name": "params",
                  "type": "bytes"
                },
                {
                  "internalType": "uint256",
                  "name": "fee",
                  "type": "uint256"
                }
              ],
              "internalType": "struct StorableMsg",
              "name": "message",
              "type": "tuple"
            },
            {
              "internalType": "bool",
              "name": "wrapped",
              "type": "bool"
            }
          ],
          "internalType": "struct CrossMsg[]",
          "name": "crossMsgs",
          "type": "tuple[]"
        }
      ],
      "name": "toHash",
      "outputs": [
        {
          "internalType": "bytes32",
          "name": "",
          "type": "bytes32"
        }
      ],
      "stateMutability": "pure",
      "type": "function"
    }
  ],
  "bytecode": {
    "object": "0x611a2361003a600b82828239805160001a60731461002d57634e487b7160e01b600052600060045260246000fd5b30600052607381538281f3fe73000000000000000000000000000000000000000030146080604052600436106100615760003560e01c80637168683014610066578063898414751461008c578063b88dfdf6146100af578063ba094234146100dc578063f230beb2146100fc575b600080fd5b610079610074366004610da1565b61010f565b6040519081526020015b60405180910390f35b61009f61009a366004610f5c565b61013f565b6040519015158152602001610083565b8180156100bb57600080fd5b506100cf6100ca366004610fe8565b6101cb565b604051610083919061106c565b6100ef6100ea36600461107f565b610369565b60405161008391906111b7565b6100ef61010a36600461107f565b61048b565b60008160405160200161012291906112ff565b604051602081830303815290604052805190602001209050919050565b60008082815b818110156101bd57600086868381811061016157610161611401565b90506020028101906101739190611417565b61017d9080611437565b61018e90608081019060600161144d565b6001600160401b031690508084106101b35781156101b35760009450505050506101c5565b9250600101610145565b506001925050505b92915050565b606060006101d98380611437565b604001359050600061022961021b6101f18680611437565b6101ff906020810190611417565b61020d906020810190611417565b6102169061146a565b610559565b6001600160a01b031661062e565b905060006102378580611437565b6102489060a0810190608001611476565b6001600160e01b03191603610278576102618183610675565b505060408051602081019091526000815292915050565b60006102848580611437565b6102929060a0810190611491565b8080601f0160208091040260200160405190810160405280939291908181526020018383808284376000920191909152509293506102da9250505060408601602087016114de565b1561030257846040516020016102f09190611690565b60405160208183030381529060405290505b600061030e8680611437565b61031f9060a0810190608001611476565b82604051602001610331929190611791565b60405160208183030381529060405290508360001461035f57610355838286610716565b9695505050505050565b610355838261072e565b6103716109ba565b60408051610160810182529081908101806101208301806103918c6117c2565b815260200161039f8b61073f565b815250815260200160405180604001604052808b6103bc906117c2565b6040516308c7427760e11b815273__$a0fe38a9a81205afccc10810b09a4d3f45$__9163118e84ee916103f291906004016117ce565b600060405180830381865af415801561040f573d6000803e3d6000fd5b505050506040513d6000823e601f3d908101601f1916820160405261043791908101906117e1565b81526020016104458a61146a565b90528152602080820188905260006040808401829052606084018290528051808401909152818152608084015260a0909201879052918352910152905095945050505050565b6104936109ba565b60408051610160810182529081908101806101208301806104b38c6117c2565b6040516308c7427760e11b815273__$a0fe38a9a81205afccc10810b09a4d3f45$__9163118e84ee916104e991906004016117ce565b600060405180830381865af4158015610506573d6000803e3d6000fd5b505050506040513d6000823e601f3d908101601f1916820160405261052e91908101906117e1565b815260200161053c8b61073f565b815250815260200160405180604001604052808b610437906117c2565b805160009060ff166004146105815760405163c5f8961f60e01b815260040160405180910390fd5b6000826020015180602001905181019061059b91906118c1565b80519091506001600160401b0316600a146105c95760405163c5f8961f60e01b815260040160405180910390fd5b80602001516001600160801b03166014146105f75760405163c5f8961f60e01b815260040160405180910390fd5b80604001515160141461061d5760405163c5f8961f60e01b815260040160405180910390fd5b6040810151601401515b9392505050565b600080600061063c846107ed565b915091508161064d57509192915050565b60008061065983610829565b915091508161066c575093949350505050565b95945050505050565b8047101561069d5760405163cd78605960e01b81523060048201526024015b60405180910390fd5b6000826001600160a01b03168260405160006040518083038185875af1925050503d80600081146106ea576040519150601f19603f3d011682016040523d82523d6000602084013e6106ef565b606091505b505090508061071157604051630a12f52160e11b815260040160405180910390fd5b505050565b60606107268484846108936108ac565b949350505050565b6060610627838360006108936108ac565b60408051808201909152600081526060602082015260006040518060600160405280600a6001600160401b0316815260200160146001600160801b03168152602001846040516020016107aa919060609190911b6bffffffffffffffffffffffff1916815260140190565b60408051601f198184030181529181529152516107ca919060200161199a565b60408051601f198184030181528282019091526004825260208201529392505050565b60008073ffffffffffffffffffffffff0000000000000000831660ff60981b810361082357600192506001600160401b03841691505b50915091565b600080826000526016600a602060006002607f60991b015afa9150600051806001600160a01b031691508060a01c61ffff16905061040a811461086f5760009250600091505b5081158061087e57503d601614155b1561088e57506000928392509050565b915091565b604051630a12f52160e11b815260040160405180910390fd5b6060824710156108d15760405163cd78605960e01b8152306004820152602401610694565b600080866001600160a01b031685876040516108ed91906119db565b60006040518083038185875af1925050503d806000811461092a576040519150601f19603f3d011682016040523d82523d6000602084013e61092f565b606091505b50915091506109408783838761094b565b979650505050505050565b6060831561099957825160000361099257846001600160a01b03163b60000361099257604051639996b31560e01b81526001600160a01b0386166004820152602401610694565b5081610726565b61072683838151156109ae5781518083602001fd5b6108938163ffffffff16565b60405180604001604052806109cd6109da565b8152600060209091015290565b6040518060e001604052806109ed610a22565b81526020016109fa610a22565b8152600060208201819052604082018190526060808301829052608083015260a09091015290565b6040805160808101825260009181019182526060808201529081908152602001610a626040518060400160405280600060ff168152602001606081525090565b905290565b634e487b7160e01b600052604160045260246000fd5b604080519081016001600160401b0381118282101715610a9f57610a9f610a67565b60405290565b60405160e081016001600160401b0381118282101715610a9f57610a9f610a67565b604051606081016001600160401b0381118282101715610a9f57610a9f610a67565b604051601f8201601f191681016001600160401b0381118282101715610b1157610b11610a67565b604052919050565b60006001600160401b03821115610b3257610b32610a67565b5060051b60200190565b6001600160401b0381168114610b5157600080fd5b50565b8035610b5f81610b3c565b919050565b6001600160a01b0381168114610b5157600080fd5b600060408284031215610b8b57600080fd5b610b93610a7d565b90508135610ba081610b3c565b81526020828101356001600160401b03811115610bbc57600080fd5b8301601f81018513610bcd57600080fd5b8035610be0610bdb82610b19565b610ae9565b81815260059190911b82018301908381019087831115610bff57600080fd5b928401925b82841015610c26578335610c1781610b64565b82529284019290840190610c04565b8085870152505050505092915050565b803560ff81168114610b5f57600080fd5b60006001600160401b03821115610c6057610c60610a67565b50601f01601f191660200190565b600082601f830112610c7f57600080fd5b8135610c8d610bdb82610c47565b818152846020838601011115610ca257600080fd5b816020850160208301376000918101602001919091529392505050565b600060408284031215610cd157600080fd5b610cd9610a7d565b9050610ce482610c36565b815260208201356001600160401b03811115610cff57600080fd5b610d0b84828501610c6e565b60208301525092915050565b600060408284031215610d2957600080fd5b610d31610a7d565b905081356001600160401b0380821115610d4a57600080fd5b610d5685838601610b79565b83526020840135915080821115610d6c57600080fd5b50610d0b84828501610cbf565b80356001600160e01b031981168114610b5f57600080fd5b80358015158114610b5f57600080fd5b600060208284031215610db357600080fd5b6001600160401b038083351115610dc957600080fd5b8235830184601f820112610ddc57600080fd5b610de9610bdb8235610b19565b81358082526020808301929160051b84010187811115610e0857600080fd5b602084015b81811015610f4f578581351115610e2357600080fd5b80358501601f196040828c0382011215610e3c57600080fd5b610e44610a7d565b8860208401351115610e5557600080fd5b6020830135830160e083828f03011215610e6e57600080fd5b610e76610aa5565b92508960208201351115610e8957600080fd5b610e9b8d602080840135840101610d17565b83528960408201351115610eae57600080fd5b610ec18d60206040840135840101610d17565b602084015260608101356040840152610edc60808201610b54565b6060840152610eed60a08201610d79565b60808401528960c08201351115610f0357600080fd5b610f168d602060c0840135840101610c6e565b60a084015260e0013560c0830152818152610f3360408401610d91565b6020820152808752505050602084019350602081019050610e0d565b5090979650505050505050565b60008060208385031215610f6f57600080fd5b82356001600160401b0380821115610f8657600080fd5b818501915085601f830112610f9a57600080fd5b813581811115610fa957600080fd5b8660208260051b8501011115610fbe57600080fd5b60209290920196919550909350505050565b600060408284031215610fe257600080fd5b50919050565b600060208284031215610ffa57600080fd5b81356001600160401b0381111561101057600080fd5b61072684828501610fd0565b60005b8381101561103757818101518382015260200161101f565b50506000910152565b6000815180845261105881602086016020860161101c565b601f01601f19169290920160200192915050565b6020815260006106276020830184611040565b600080600080600060a0868803121561109757600080fd5b85356001600160401b03808211156110ae57600080fd5b6110ba89838a01610fd0565b9650602088013591506110cc82610b64565b909450604087013590808211156110e257600080fd5b506110ef88828901610fd0565b9598949750949560608101359550608001359392505050565b6000604083016001600160401b0383511684526020808401516040828701528281518085526060880191508383019450600092505b808310156111665784516001600160a01b0316825293830193600192909201919083019061113d565b509695505050505050565b60008151604084526111866040850182611108565b90506020830151848203602086015260ff8151168252602081015190506040602083015261066c6040830182611040565b602081526000825160406020840152805160e060608501526111dd610140850182611171565b90506020820151605f19808684030160808701526111fb8383611171565b9250604084015160a08701526001600160401b0360608501511660c087015263ffffffff60e01b60808501511660e087015260a0840151915080868403016101008701525061124a8282611040565b60c0939093015161012086015250506020840151801515604085015290610726565b8051604080845281516001600160401b031684820152602091820151606085019190915280516080850181905260009291820191839160a08701905b808410156112d15784516001600160a01b031682529382019360019390930192908201906112a8565b508186015193508681038288015260ff84511681528184015193506040828201526109406040820185611040565b60006020808301818452808551808352604092508286019150828160051b87010184880160005b838110156113f357603f19808a850301865282518051888652805160e0808b89015261135661012089018361126c565b91508b8301516060868a850301818b0152611371848361126c565b858e015160808c810191909152918601516001600160401b031660a0808d0191909152918601516001600160e01b03191660c0808d0191909152828701518c83038a01868e01529195509092506113c88584611040565b9501516101008b01525050505090890151151594890194909452509386019390860190600101611326565b509098975050505050505050565b634e487b7160e01b600052603260045260246000fd5b60008235603e1983360301811261142d57600080fd5b9190910192915050565b6000823560de1983360301811261142d57600080fd5b60006020828403121561145f57600080fd5b813561062781610b3c565b60006101c53683610cbf565b60006020828403121561148857600080fd5b61062782610d79565b6000808335601e198436030181126114a857600080fd5b8301803591506001600160401b038211156114c257600080fd5b6020019150368190038213156114d757600080fd5b9250929050565b6000602082840312156114f057600080fd5b61062782610d91565b60008235603e1983360301811261150f57600080fd5b90910192915050565b6000808335601e1984360301811261152f57600080fd5b83016020810192503590506001600160401b0381111561154e57600080fd5b8036038213156114d757600080fd5b81835281816020850137506000828201602090810191909152601f909101601f19169091010190565b60ff61159182610c36565b16825260006115a36020830183611518565b6040602086015261066c60408601828461155d565b60006115c482836114f9565b604084526080840181356115d781610b3c565b6001600160401b0390811660408701526020908382013536859003601e1901811261160157600080fd5b9093018181019390358181111561161757600080fd5b8060051b360385131561162957600080fd5b60406060890152928390525060009160a08701905b8084101561167057843561165181610b64565b6001600160a01b0316825293820193600193909301929082019061163e565b5061167d828701876114f9565b9350868103828801526109408185611586565b602081526000823560de198436030181126116aa57600080fd5b6040602084015283016116bd81806114f9565b60e060608501526116d26101408501826115b8565b90506116e160208301836114f9565b605f19808684030160808701526116f883836115b8565b9250604084013560a08701526060840135915061171482610b3c565b6001600160401b03821660c087015261172f60808501610d79565b6001600160e01b0319811660e0880152915061174e60a0850185611518565b9250818785030161010088015261176684848361155d565b935050505060c082013561012085015261178260208601610d91565b80151560408601529150610726565b6001600160e01b03198316815281516000906117b481600485016020870161101c565b919091016004019392505050565b60006101c53683610b79565b6020815260006106276020830184611108565b600060208083850312156117f457600080fd5b82516001600160401b038082111561180b57600080fd5b908401906040828703121561181f57600080fd5b611827610a7d565b825161183281610b3c565b8152828401518281111561184557600080fd5b80840193505086601f84011261185a57600080fd5b8251915061186a610bdb83610b19565b82815260059290921b8301840191848101908884111561188957600080fd5b938501935b838510156118b05784516118a181610b64565b8252938501939085019061188e565b948201949094529695505050505050565b600060208083850312156118d457600080fd5b82516001600160401b03808211156118eb57600080fd5b90840190606082870312156118ff57600080fd5b611907610ac7565b825161191281610b3c565b8152828401516001600160801b038116811461192d57600080fd5b8185015260408301518281111561194357600080fd5b80840193505086601f84011261195857600080fd5b82519150611968610bdb83610c47565b828152878584860101111561197c57600080fd5b61198b8386830187870161101c565b60408201529695505050505050565b602081526001600160401b0382511660208201526001600160801b036020830151166040820152600060408301516060808401526107266080840182611040565b6000825161142d81846020870161101c56fea2646970667358221220233bc96f30385195958672572709102ab9607bf8ce2690867925b0edfc29806164736f6c63430008130033",
    "linkReferences": {
      "src/lib/SubnetIDHelper.sol": {
        "SubnetIDHelper": [
          {
            "start": 1029,
            "length": 20
          },
          {
            "start": 1276,
            "length": 20
          }
        ]
      }
    }
  },
  "methodIdentifiers": {
    "createFundMsg(SubnetID,address,FvmAddress,uint256,uint256)": "f230beb2",
    "createReleaseMsg(SubnetID,address,FvmAddress,uint256,uint256)": "ba094234",
    "execute(CrossMsg)": "b88dfdf6",
    "isSorted(CrossMsg[])": "89841475",
    "toHash(CrossMsg[])": "71686830"
  },
  "id": 57
}