{"abi":[{"type":"function","name":"activeValidatorsLimit","inputs":[],"outputs":[{"name":"","type":"uint16","internalType":"uint16"}],"stateMutability":"view"},{"type":"function","name":"bootstrapped","inputs":[],"outputs":[{"name":"","type":"bool","internalType":"bool"}],"stateMutability":"view"},{"type":"function","name":"bottomUpCheckPeriod","inputs":[],"outputs":[{"name":"","type":"uint256","internalType":"uint256"}],"stateMutability":"view"},{"type":"function","name":"bottomUpCheckpointAtEpoch","inputs":[{"name":"epoch","type":"uint256","internalType":"uint256"}],"outputs":[{"name":"exists","type":"bool","internalType":"bool"},{"name":"checkpoint","type":"tuple","internalType":"struct BottomUpCheckpoint","components":[{"name":"subnetID","type":"tuple","internalType":"struct SubnetID","components":[{"name":"root","type":"uint64","internalType":"uint64"},{"name":"route","type":"address[]","internalType":"address[]"}]},{"name":"blockHeight","type":"uint256","internalType":"uint256"},{"name":"blockHash","type":"bytes32","internalType":"bytes32"},{"name":"nextConfigurationNumber","type":"uint64","internalType":"uint64"}]}],"stateMutability":"view"},{"type":"function","name":"bottomUpCheckpointHashAtEpoch","inputs":[{"name":"epoch","type":"uint256","internalType":"uint256"}],"outputs":[{"name":"","type":"bool","internalType":"bool"},{"name":"","type":"bytes32","internalType":"bytes32"}],"stateMutability":"view"},{"type":"function","name":"bottomUpMsgBatchPeriod","inputs":[],"outputs":[{"name":"","type":"uint256","internalType":"uint256"}],"stateMutability":"view"},{"type":"function","name":"consensus","inputs":[],"outputs":[{"name":"","type":"uint8","internalType":"enum ConsensusType"}],"stateMutability":"view"},{"type":"function","name":"crossMsgsHash","inputs":[{"name":"messages","type":"tuple[]","internalType":"struct CrossMsg[]","components":[{"name":"message","type":"tuple","internalType":"struct StorableMsg","components":[{"name":"from","type":"tuple","internalType":"struct IPCAddress","components":[{"name":"subnetId","type":"tuple","internalType":"struct SubnetID","components":[{"name":"root","type":"uint64","internalType":"uint64"},{"name":"route","type":"address[]","internalType":"address[]"}]},{"name":"rawAddress","type":"tuple","internalType":"struct FvmAddress","components":[{"name":"addrType","type":"uint8","internalType":"uint8"},{"name":"payload","type":"bytes","internalType":"bytes"}]}]},{"name":"to","type":"tuple","internalType":"struct IPCAddress","components":[{"name":"subnetId","type":"tuple","internalType":"struct SubnetID","components":[{"name":"root","type":"uint64","internalType":"uint64"},{"name":"route","type":"address[]","internalType":"address[]"}]},{"name":"rawAddress","type":"tuple","internalType":"struct FvmAddress","components":[{"name":"addrType","type":"uint8","internalType":"uint8"},{"name":"payload","type":"bytes","internalType":"bytes"}]}]},{"name":"value","type":"uint256","internalType":"uint256"},{"name":"nonce","type":"uint64","internalType":"uint64"},{"name":"method","type":"bytes4","internalType":"bytes4"},{"name":"params","type":"bytes","internalType":"bytes"},{"name":"fee","type":"uint256","internalType":"uint256"}]},{"name":"wrapped","type":"bool","internalType":"bool"}]}],"outputs":[{"name":"","type":"bytes32","internalType":"bytes32"}],"stateMutability":"pure"},{"type":"function","name":"genesisBalances","inputs":[],"outputs":[{"name":"","type":"address[]","internalType":"address[]"},{"name":"","type":"uint256[]","internalType":"uint256[]"}],"stateMutability":"view"},{"type":"function","name":"genesisCircSupply","inputs":[],"outputs":[{"name":"","type":"uint256","internalType":"uint256"}],"stateMutability":"view"},{"type":"function","name":"genesisValidators","inputs":[],"outputs":[{"name":"","type":"tuple[]","internalType":"struct Validator[]","components":[{"name":"weight","type":"uint256","internalType":"uint256"},{"name":"addr","type":"address","internalType":"address"},{"name":"metadata","type":"bytes","internalType":"bytes"}]}],"stateMutability":"view"},{"type":"function","name":"getActiveValidatorsNumber","inputs":[],"outputs":[{"name":"","type":"uint16","internalType":"uint16"}],"stateMutability":"view"},{"type":"function","name":"getBootstrapNodes","inputs":[],"outputs":[{"name":"","type":"string[]","internalType":"string[]"}],"stateMutability":"view"},{"type":"function","name":"getConfigurationNumbers","inputs":[],"outputs":[{"name":"","type":"uint64","internalType":"uint64"},{"name":"","type":"uint64","internalType":"uint64"}],"stateMutability":"view"},{"type":"function","name":"getParent","inputs":[],"outputs":[{"name":"","type":"tuple","internalType":"struct SubnetID","components":[{"name":"root","type":"uint64","internalType":"uint64"},{"name":"route","type":"address[]","internalType":"address[]"}]}],"stateMutability":"view"},{"type":"function","name":"getPower","inputs":[{"name":"validator","type":"address","internalType":"address"}],"outputs":[{"name":"","type":"uint256","internalType":"uint256"}],"stateMutability":"view"},{"type":"function","name":"getRelayerReward","inputs":[{"name":"relayer","type":"address","internalType":"address"}],"outputs":[{"name":"","type":"uint256","internalType":"uint256"}],"stateMutability":"view"},{"type":"function","name":"getTotalCollateral","inputs":[],"outputs":[{"name":"","type":"uint256","internalType":"uint256"}],"stateMutability":"view"},{"type":"function","name":"getTotalConfirmedCollateral","inputs":[],"outputs":[{"name":"","type":"uint256","internalType":"uint256"}],"stateMutability":"view"},{"type":"function","name":"getTotalValidatorCollateral","inputs":[{"name":"validator","type":"address","internalType":"address"}],"outputs":[{"name":"","type":"uint256","internalType":"uint256"}],"stateMutability":"view"},{"type":"function","name":"getTotalValidatorsNumber","inputs":[],"outputs":[{"name":"","type":"uint16","internalType":"uint16"}],"stateMutability":"view"},{"type":"function","name":"getValidator","inputs":[{"name":"validatorAddress","type":"address","internalType":"address"}],"outputs":[{"name":"validator","type":"tuple","internalType":"struct ValidatorInfo","components":[{"name":"federatedPower","type":"uint256","internalType":"uint256"},{"name":"confirmedCollateral","type":"uint256","internalType":"uint256"},{"name":"totalCollateral","type":"uint256","internalType":"uint256"},{"name":"metadata","type":"bytes","internalType":"bytes"}]}],"stateMutability":"view"},{"type":"function","name":"hasSubmittedInLastBottomUpCheckpointHeight","inputs":[{"name":"validator","type":"address","internalType":"address"}],"outputs":[{"name":"","type":"bool","internalType":"bool"}],"stateMutability":"view"},{"type":"function","name":"hasSubmittedInLastBottomUpMsgBatchHeight","inputs":[{"name":"validator","type":"address","internalType":"address"}],"outputs":[{"name":"","type":"bool","internalType":"bool"}],"stateMutability":"view"},{"type":"function","name":"ipcGatewayAddr","inputs":[],"outputs":[{"name":"","type":"address","internalType":"address"}],"stateMutability":"view"},{"type":"function","name":"isActiveValidator","inputs":[{"name":"validator","type":"address","internalType":"address"}],"outputs":[{"name":"","type":"bool","internalType":"bool"}],"stateMutability":"view"},{"type":"function","name":"isWaitingValidator","inputs":[{"name":"validator","type":"address","internalType":"address"}],"outputs":[{"name":"","type":"bool","internalType":"bool"}],"stateMutability":"view"},{"type":"function","name":"killed","inputs":[],"outputs":[{"name":"","type":"bool","internalType":"bool"}],"stateMutability":"view"},{"type":"function","name":"lastBottomUpCheckpointHeight","inputs":[],"outputs":[{"name":"","type":"uint256","internalType":"uint256"}],"stateMutability":"view"},{"type":"function","name":"lastBottomUpMsgBatchHeight","inputs":[],"outputs":[{"name":"","type":"uint256","internalType":"uint256"}],"stateMutability":"view"},{"type":"function","name":"majorityPercentage","inputs":[],"outputs":[{"name":"","type":"uint8","internalType":"uint8"}],"stateMutability":"view"},{"type":"function","name":"minActivationCollateral","inputs":[],"outputs":[{"name":"","type":"uint256","internalType":"uint256"}],"stateMutability":"view"},{"type":"function","name":"minCrossMsgFee","inputs":[],"outputs":[{"name":"","type":"uint256","internalType":"uint256"}],"stateMutability":"view"},{"type":"function","name":"minValidators","inputs":[],"outputs":[{"name":"","type":"uint64","internalType":"uint64"}],"stateMutability":"view"},{"type":"function","name":"permissionMode","inputs":[],"outputs":[{"name":"","type":"uint8","internalType":"enum PermissionMode"}],"stateMutability":"view"},{"type":"function","name":"powerScale","inputs":[],"outputs":[{"name":"","type":"int8","internalType":"int8"}],"stateMutability":"view"}],"bytecode":{"object":"0x60808060405234610016576114ac908161001c8239f35b600080fdfe608060408181526004918236101561001657600080fd5b600092833560e01c91826306c4685314610d90575081631597bf7e14610d4a5781631904bb2e14610c7b5781631f3a0e4114610c5457816328d5551d14610c355781632bc31eb314610bec578163332a5ac9146103b25781633354c3e114610bc657816335142c8c14610b9f57816338a210b314610b6e5781633da33241146109b757816340550a1c146109785781634b0694e21461091f5781634b27aa72146108e357816352d182d11461089b578163599c7bd1146108765781635dd9147c146107ea5781636704287c146107cb57816369e737fd146107ac57816372d0a0e01461078d57816380f76021146106d35781638ef3f761146106a7578163903e693014610578578163948628a9146105595781639754b29e146104e15781639e33bd02146104c2578163ad81e4d6146104a2578163b2bd295e1461046a578163c5ab224114610442578163c7cda7621461041f578163cfca2824146103f6578163d081be03146103b7578163d6eb5910146103b2578163d92e8f1214610244578163f0cf6c9614610205575063f75499dc146101b157600080fd5b34610201576020366003190112610201576101f8602092826101d1610dac565b9160065481526023865220600191828060a01b031660005201602052604060002054151590565b90519015158152f35b5080fd5b83833461020157816003193601126102015760ff60135416905191600382101561023157602083838152f35b634e487b7160e01b815260218452602490fd5b83915034610201578160031936011261020157919060019081549361026885610f4f565b9061027585519283610f14565b85825260209081830196878686527fb10e2d527612073b26eecdfd717e6a320cf44b4afac2b0732d9fcbe2b7fa0cf686915b83831061032e5750505050508451948186019282875251809352808601818460051b8801019794915b8483106102dd5787890388f35b909192939495848061031c839b603f198c8203018752858b518051835260018060a01b0385820151168584015201519060609081888201520190610dc7565b9a9801969594919091019201906102d0565b89959697999a989a51606081018181106001600160401b0382111761039f57875282548152828c01546001600160a01b03168882015286518c926003928a926103858161037e8160028b01610f66565b0382610f14565b8a82015281520192019201919099979998969594986102a7565b634e487b7160e01b8c526041875260248cfd5b610e07565b5050346102015760203660031901126102015760209161ffff9082906001600160a01b036103e3610dac565b168152601a855220541615159051908152f35b505034610201578160031936011261020157600e5490516001600160a01b039091168152602090f35b50503461020157816003193601126102015760209061ffff601654169051908152f35b5050346102015781600319360112610201576020906001600160401b03600c54169051908152f35b5050346102015760203660031901126102015760209181906001600160a01b03610492610dac565b1681526021845220549051908152f35b5050346102015781600319360112610201576020918254900b9051908152f35b505034610201578160031936011261020157602090600a549051908152f35b8284346105565780600319360112610556576104fb6111fc565b825191602080840190808552835180925280868601968360051b870101940192955b82871061052a5785850386f35b909192938280610546600193603f198a82030186528851610dc7565b960192019601959291909261051d565b80fd5b5050346102015781600319360112610201576020906002549051908152f35b83915034610201578160031936011261020157919082549061059982610f4f565b936105a684519586610f14565b828552601f1992836105b782610f4f565b019060209136838901376105ca81610f4f565b926105d787519485610f14565b8184526105e382610f4f565b8484019601368737845b828110610642575050508061060b8651978789988952880190610e25565b928684038288015251928381520193925b82811061062b57505050500390f35b83518552869550938101939281019260010161061c565b60019082879698999a959752818060a01b03817f8a35acfbc15ff81a39ae7d344fd709f28e8600b4aa8c65c6b64bfe7fe36bd19b015416806106848388611023565b5286526003875289862054610699828a611023565b5201979695939492976105ed565b83833461020157816003193601126102015760ff60125416905191600182101561023157602083838152f35b8284346105565780600319360112610556576106ed610f35565b508151916106fa83610ef9565b6010546001600160401b03168352805160118054808352908452602093848301917f31ecc21a745e3968a04e9570e4425bc18fa8019c68028196b546d1669c200c68915b8682821061077057889061076c8888610759818a0382610f14565b8385015251928284938452830190610e62565b0390f35b83546001600160a01b03168552909301926001928301920161073e565b5050346102015781600319360112610201576020906005549051908152f35b5050346102015781600319360112610201576020906008549051908152f35b505034610201578160031936011261020157602090600f549051908152f35b82843461055657602036600319011261055657610805610dac565b9060ff60135416906003821015610863576020848460018503610842576001600160a01b0316600090815260156020526040902054905b51908152f35b6001600160a01b03166000908152601560205260409020600101549061083c565b634e487b7160e01b815260218552602490fd5b50503461020157816003193601126102015760209060ff600e5460a01c169051908152f35b83833461020157816003193601126102015761ffff908160195416826016541601928284116108d05750602093505191168152f35b634e487b7160e01b815260118552602490fd5b90508234610556576020366003190112610556575061090561076c913561104d565b839291925193849315158452806020850152830190610e8b565b90508234610556576020366003190112610556575061093e903561104d565b82516109678161095960208201946020865287830190610e8b565b03601f198101835282610f14565b519020825191151582526020820152f35b5050346102015760203660031901126102015760209161ffff9082906001600160a01b036109a4610dac565b1681526017855220541615159051908152f35b8284346105565760209283600319360112610201578035906001600160401b0390818311610b6a5736602384011215610b6a57820135818111610b6a5760248301908060051b936024853692010111610b66579093855193849288840196818986018b8a525260608086019386010193819681925b848410610a5657505050505050610a4c925003601f198101835282610f14565b5190209051908152f35b9193959092949650605f19898203018752610a718883611312565b803560de1982360301811215610b5e5790610acb8e610aba8f959484610ab191019680875260e0610aa28980611312565b9188015261012087019061138c565b91860186611312565b848203603f1901606086015261138c565b8d6080908501358185015286610ae360608701611326565b1660a08501528401359063ffffffff60e01b8216809203610b6257908f9291610b2c9060c09283870152610b1a60a088018861133a565b878303603f190160e08901529061136b565b940135610100840152013590811515809203610b5e576001928e92838093015299019701940191889697959391610a2c565b8580fd5b8780fd5b8480fd5b8380fd5b82843461055657806003193601126105565750601c548151906001600160401b03908181168352831c166020820152f35b50503461020157816003193601126102015760209060ff60125460081c1690519015158152f35b50503461020157816003193601126102015760209061ffff60135460081c169051908152f35b505034610201576020366003190112610201576101f860209282610c0e610dac565b9160055481526022865220600191828060a01b031660005201602052604060002054151590565b5050346102015781600319360112610201576020906006549051908152f35b50503461020157816003193601126102015760209060ff60125460101c1690519015158152f35b82843461055657602036600319011261055657610cd190606080610c9d610dac565b92855190610caa82610ec8565b80825280602083015286820152015260018060a01b03166000526015602052604060002090565b61076c6003835192610ce284610ec8565b8054845260018101549460208501958652610d18600283015492828701938452610d1183518096819301610f66565b0384610f14565b6060850192835280519586956020875251602087015251908501525160608401525160808084015260a0830190610dc7565b505034610201576020366003190112610201576020906002610d87610d6d610dac565b6001600160a01b0316600090815260156020526040902090565b01549051908152f35b849034610201578160031936011261020157602090600b548152f35b600435906001600160a01b0382168203610dc257565b600080fd5b919082519283825260005b848110610df3575050826000602080949584010152601f8019910116010190565b602081830181015184830182015201610dd2565b34610dc2576000366003190112610dc2576020601454604051908152f35b90815180825260208080930193019160005b828110610e45575050505090565b83516001600160a01b031685529381019392810192600101610e37565b9060406020610e88936001600160401b0381511684520151918160208201520190610e25565b90565b9060606001600160401b0381610eaa8551608086526080860190610e62565b94602081015160208601526040810151604086015201511691015290565b608081019081106001600160401b03821117610ee357604052565b634e487b7160e01b600052604160045260246000fd5b604081019081106001600160401b03821117610ee357604052565b90601f801991011681019081106001600160401b03821117610ee357604052565b60405190610f4282610ef9565b6060602083600081520152565b6001600160401b038111610ee35760051b60200190565b80546000939260018083169383821c938515611019575b602095868610811461100357858552908115610fe45750600114610fa3575b5050505050565b90939495506000929192528360002092846000945b838610610fd057505050500101903880808080610f9c565b805485870183015294019385908201610fb8565b60ff19168685015250505090151560051b010191503880808080610f9c565b634e487b7160e01b600052602260045260246000fd5b93607f1693610f7d565b80518210156110375760209160051b010190565b634e487b7160e01b600052603260045260246000fd5b90604080519261105c84610ec8565b611064610f35565b845260009081606060209682888201528286820152015281528084528181209382519461109086610ec8565b83519161109c83610ef9565b6001600160401b0380835416845260018084019487519485858854918281520197895285892090895b8181106111e057505050600484916110e18888999a038a610f14565b868401988952838d528c8760028301549101528c8b600383015491015201541660608b01528751958693630c133d1360e31b8552856004860152606485019251166024850152519188604485015282518092528460848501930191885b8181106111bf57505050508190038173__$a0fe38a9a81205afccc10810b09a4d3f45$__5af49384156111b65750829361117b575b505050159190565b9080929350813d83116111af575b6111938183610f14565b8101031261020157519081151582036105565750388080611173565b503d611189565b513d84823e3d90fd5b83516001600160a01b0316855287968996509485019490930192820161113e565b82546001600160a01b03168a52988701989185019185016110c5565b60255461120881610f4f565b90604061121781519384610f14565b818352601f1961122683610f4f565b0160005b81811061130157505081156112fc5780518083825260208092016025600052817f401968ff42a154441da5f6c4c935ac46b8671f0e062baaa62a7545ba53bb6e4c9160005b858882106112e657505061128592500382610f14565b60005b84811061129757505050505090565b6001906001600160a01b036112ac8285611023565b51166000526024845261037e6112ca86600020875192838092610f66565b6112d48289611023565b526112df8188611023565b5001611288565b845483526001948501948694509201910161126f565b505090565b80606060208093880101520161122a565b9035603e1982360301811215610dc2570190565b35906001600160401b0382168203610dc257565b9035601e1982360301811215610dc25701602081359101916001600160401b038211610dc2578136038313610dc257565b908060209392818452848401376000828201840152601f01601f1916010190565b906113978280611312565b906040815260808101926001600160401b0393846113b485611326565b16604084015260209384810135601e1982360301811215610dc25701908482359201958211610dc2578160051b36038613610dc2578190604060608601525260a08301949060005b81811061144e575050508083611413920190611312565b908281850391015280359060ff8216809203610dc25783611441604093928493610e8897528581019061133a565b939094820152019161136b565b90919586359060018060a01b038216809203610dc257908152850195850191906001016113fc56fea2646970667358221220276932d1a0a3daf8cc69b4c5a4b7bc8093fb65147df279571c244f6fd348515064736f6c63430008130033","linkReferences":{"src/lib/SubnetIDHelper.sol":{"SubnetIDHelper":[{"start":4459,"length":20}]}}},"methodIdentifiers":{"activeValidatorsLimit()":"3354c3e1","bootstrapped()":"35142c8c","bottomUpCheckPeriod()":"06c46853","bottomUpCheckpointAtEpoch(uint256)":"4b27aa72","bottomUpCheckpointHashAtEpoch(uint256)":"4b0694e2","bottomUpMsgBatchPeriod()":"69e737fd","consensus()":"8ef3f761","crossMsgsHash(((((uint64,address[]),(uint8,bytes)),((uint64,address[]),(uint8,bytes)),uint256,uint64,bytes4,bytes,uint256),bool)[])":"3da33241","genesisBalances()":"903e6930","genesisCircSupply()":"948628a9","genesisValidators()":"d92e8f12","getActiveValidatorsNumber()":"c7cda762","getBootstrapNodes()":"9754b29e","getConfigurationNumbers()":"38a210b3","getParent()":"80f76021","getPower(address)":"5dd9147c","getRelayerReward(address)":"b2bd295e","getTotalCollateral()":"d6eb5910","getTotalConfirmedCollateral()":"332a5ac9","getTotalValidatorCollateral(address)":"1597bf7e","getTotalValidatorsNumber()":"52d182d1","getValidator(address)":"1904bb2e","hasSubmittedInLastBottomUpCheckpointHeight(address)":"2bc31eb3","hasSubmittedInLastBottomUpMsgBatchHeight(address)":"f75499dc","ipcGatewayAddr()":"cfca2824","isActiveValidator(address)":"40550a1c","isWaitingValidator(address)":"d081be03","killed()":"1f3a0e41","lastBottomUpCheckpointHeight()":"72d0a0e0","lastBottomUpMsgBatchHeight()":"28d5551d","majorityPercentage()":"599c7bd1","minActivationCollateral()":"9e33bd02","minCrossMsgFee()":"6704287c","minValidators()":"c5ab2241","permissionMode()":"f0cf6c96","powerScale()":"ad81e4d6"},"id":77}