{"abi":[{"type":"function","name":"activeValidatorsLimit","inputs":[],"outputs":[{"name":"","type":"uint16","internalType":"uint16"}],"stateMutability":"view"},{"type":"function","name":"bootstrapped","inputs":[],"outputs":[{"name":"","type":"bool","internalType":"bool"}],"stateMutability":"view"},{"type":"function","name":"bottomUpCheckPeriod","inputs":[],"outputs":[{"name":"","type":"uint256","internalType":"uint256"}],"stateMutability":"view"},{"type":"function","name":"bottomUpCheckpointAtEpoch","inputs":[{"name":"epoch","type":"uint256","internalType":"uint256"}],"outputs":[{"name":"exists","type":"bool","internalType":"bool"},{"name":"checkpoint","type":"tuple","internalType":"struct BottomUpCheckpoint","components":[{"name":"subnetID","type":"tuple","internalType":"struct SubnetID","components":[{"name":"root","type":"uint64","internalType":"uint64"},{"name":"route","type":"address[]","internalType":"address[]"}]},{"name":"blockHeight","type":"uint256","internalType":"uint256"},{"name":"blockHash","type":"bytes32","internalType":"bytes32"},{"name":"nextConfigurationNumber","type":"uint64","internalType":"uint64"}]}],"stateMutability":"view"},{"type":"function","name":"bottomUpCheckpointHashAtEpoch","inputs":[{"name":"epoch","type":"uint256","internalType":"uint256"}],"outputs":[{"name":"","type":"bool","internalType":"bool"},{"name":"","type":"bytes32","internalType":"bytes32"}],"stateMutability":"view"},{"type":"function","name":"consensus","inputs":[],"outputs":[{"name":"","type":"uint8","internalType":"enum ConsensusType"}],"stateMutability":"view"},{"type":"function","name":"crossMsgsHash","inputs":[{"name":"messages","type":"tuple[]","internalType":"struct CrossMsg[]","components":[{"name":"message","type":"tuple","internalType":"struct StorableMsg","components":[{"name":"from","type":"tuple","internalType":"struct IPCAddress","components":[{"name":"subnetId","type":"tuple","internalType":"struct SubnetID","components":[{"name":"root","type":"uint64","internalType":"uint64"},{"name":"route","type":"address[]","internalType":"address[]"}]},{"name":"rawAddress","type":"tuple","internalType":"struct FvmAddress","components":[{"name":"addrType","type":"uint8","internalType":"uint8"},{"name":"payload","type":"bytes","internalType":"bytes"}]}]},{"name":"to","type":"tuple","internalType":"struct IPCAddress","components":[{"name":"subnetId","type":"tuple","internalType":"struct SubnetID","components":[{"name":"root","type":"uint64","internalType":"uint64"},{"name":"route","type":"address[]","internalType":"address[]"}]},{"name":"rawAddress","type":"tuple","internalType":"struct FvmAddress","components":[{"name":"addrType","type":"uint8","internalType":"uint8"},{"name":"payload","type":"bytes","internalType":"bytes"}]}]},{"name":"value","type":"uint256","internalType":"uint256"},{"name":"nonce","type":"uint64","internalType":"uint64"},{"name":"method","type":"bytes4","internalType":"bytes4"},{"name":"params","type":"bytes","internalType":"bytes"},{"name":"fee","type":"uint256","internalType":"uint256"}]},{"name":"wrapped","type":"bool","internalType":"bool"}]}],"outputs":[{"name":"","type":"bytes32","internalType":"bytes32"}],"stateMutability":"pure"},{"type":"function","name":"genesisBalances","inputs":[],"outputs":[{"name":"","type":"address[]","internalType":"address[]"},{"name":"","type":"uint256[]","internalType":"uint256[]"}],"stateMutability":"view"},{"type":"function","name":"genesisCircSupply","inputs":[],"outputs":[{"name":"","type":"uint256","internalType":"uint256"}],"stateMutability":"view"},{"type":"function","name":"genesisValidators","inputs":[],"outputs":[{"name":"","type":"tuple[]","internalType":"struct Validator[]","components":[{"name":"weight","type":"uint256","internalType":"uint256"},{"name":"addr","type":"address","internalType":"address"},{"name":"metadata","type":"bytes","internalType":"bytes"}]}],"stateMutability":"view"},{"type":"function","name":"getActiveValidatorsNumber","inputs":[],"outputs":[{"name":"","type":"uint16","internalType":"uint16"}],"stateMutability":"view"},{"type":"function","name":"getBootstrapNodes","inputs":[],"outputs":[{"name":"","type":"string[]","internalType":"string[]"}],"stateMutability":"view"},{"type":"function","name":"getConfigurationNumbers","inputs":[],"outputs":[{"name":"","type":"uint64","internalType":"uint64"},{"name":"","type":"uint64","internalType":"uint64"}],"stateMutability":"view"},{"type":"function","name":"getParent","inputs":[],"outputs":[{"name":"","type":"tuple","internalType":"struct SubnetID","components":[{"name":"root","type":"uint64","internalType":"uint64"},{"name":"route","type":"address[]","internalType":"address[]"}]}],"stateMutability":"view"},{"type":"function","name":"getRelayerReward","inputs":[{"name":"relayer","type":"address","internalType":"address"}],"outputs":[{"name":"","type":"uint256","internalType":"uint256"}],"stateMutability":"view"},{"type":"function","name":"getTotalCollateral","inputs":[],"outputs":[{"name":"","type":"uint256","internalType":"uint256"}],"stateMutability":"view"},{"type":"function","name":"getTotalConfirmedCollateral","inputs":[],"outputs":[{"name":"","type":"uint256","internalType":"uint256"}],"stateMutability":"view"},{"type":"function","name":"getTotalValidatorCollateral","inputs":[{"name":"validator","type":"address","internalType":"address"}],"outputs":[{"name":"","type":"uint256","internalType":"uint256"}],"stateMutability":"view"},{"type":"function","name":"getTotalValidatorsNumber","inputs":[],"outputs":[{"name":"","type":"uint16","internalType":"uint16"}],"stateMutability":"view"},{"type":"function","name":"getValidator","inputs":[{"name":"validatorAddress","type":"address","internalType":"address"}],"outputs":[{"name":"validator","type":"tuple","internalType":"struct ValidatorInfo","components":[{"name":"federatedPower","type":"uint256","internalType":"uint256"},{"name":"confirmedCollateral","type":"uint256","internalType":"uint256"},{"name":"totalCollateral","type":"uint256","internalType":"uint256"},{"name":"metadata","type":"bytes","internalType":"bytes"}]}],"stateMutability":"view"},{"type":"function","name":"hasSubmittedInLastBottomUpCheckpointHeight","inputs":[{"name":"validator","type":"address","internalType":"address"}],"outputs":[{"name":"","type":"bool","internalType":"bool"}],"stateMutability":"view"},{"type":"function","name":"ipcGatewayAddr","inputs":[],"outputs":[{"name":"","type":"address","internalType":"address"}],"stateMutability":"view"},{"type":"function","name":"isActiveValidator","inputs":[{"name":"validator","type":"address","internalType":"address"}],"outputs":[{"name":"","type":"bool","internalType":"bool"}],"stateMutability":"view"},{"type":"function","name":"isWaitingValidator","inputs":[{"name":"validator","type":"address","internalType":"address"}],"outputs":[{"name":"","type":"bool","internalType":"bool"}],"stateMutability":"view"},{"type":"function","name":"killed","inputs":[],"outputs":[{"name":"","type":"bool","internalType":"bool"}],"stateMutability":"view"},{"type":"function","name":"lastBottomUpCheckpointHeight","inputs":[],"outputs":[{"name":"","type":"uint256","internalType":"uint256"}],"stateMutability":"view"},{"type":"function","name":"majorityPercentage","inputs":[],"outputs":[{"name":"","type":"uint8","internalType":"uint8"}],"stateMutability":"view"},{"type":"function","name":"minActivationCollateral","inputs":[],"outputs":[{"name":"","type":"uint256","internalType":"uint256"}],"stateMutability":"view"},{"type":"function","name":"minCrossMsgFee","inputs":[],"outputs":[{"name":"","type":"uint256","internalType":"uint256"}],"stateMutability":"view"},{"type":"function","name":"minValidators","inputs":[],"outputs":[{"name":"","type":"uint64","internalType":"uint64"}],"stateMutability":"view"},{"type":"function","name":"powerScale","inputs":[],"outputs":[{"name":"","type":"int8","internalType":"int8"}],"stateMutability":"view"}],"bytecode":{"object":"0x6080806040523461001657611324908161001c8239f35b600080fdfe608060409080825260048036101561001657600080fd5b600091823560e01c90816306c4685314610c08575080631597bf7e14610bc25780631904bb2e14610af35780631f3a0e4114610acc5780632bc31eb314610a87578063332a5ac9146102e85780633354c3e114610a6157806335142c8c14610a3a57806338a210b314610a095780633da332411461085157806340550a1c146108125780634b0694e2146107ba5780634b27aa721461077f57806352d182d114610737578063599c7bd1146107125780636704287c146106f357806372d0a0e0146106d457806380f760211461061a5780638ef3f761146105db578063903e6930146104ae578063948628a91461048f5780639754b29e146104175780639e33bd02146103f8578063ad81e4d6146103d8578063b2bd295e146103a0578063c5ab224114610378578063c7cda76214610355578063cfca28241461032c578063d081be03146102ed578063d6eb5910146102e85763d92e8f121461017957600080fd5b346102e457816003193601126102e457919060019081549361019a85610dc7565b906101a785519283610d8c565b85825260209081830196878686527fb10e2d527612073b26eecdfd717e6a320cf44b4afac2b0732d9fcbe2b7fa0cf686915b8383106102605750505050508451948186019282875251809352808601818460051b8801019794915b84831061020f5787890388f35b909192939495848061024e839b603f198c8203018752858b518051835260018060a01b0385820151168584015201519060609081888201520190610c3f565b9a980196959491909101920190610202565b89959697999a989a51606081018181106001600160401b038211176102d157875282548152828c01546001600160a01b03168882015286518c926003928a926102b7816102b08160028b01610dde565b0382610d8c565b8a82015281520192019201919099979998969594986101d9565b634e487b7160e01b8c526041875260248cfd5b5080fd5b610c7f565b8284346102e45760203660031901126102e45760209161ffff9082906001600160a01b03610319610c24565b1681526016855220541615159051908152f35b8284346102e457816003193601126102e457600a5490516001600160a01b039091168152602090f35b8284346102e457816003193601126102e45760209061ffff601254169051908152f35b8284346102e457816003193601126102e4576020906001600160401b03600854169051908152f35b8284346102e45760203660031901126102e45760209181906001600160a01b036103c8610c24565b168152601d845220549051908152f35b8284346102e457816003193601126102e457601c549051910b8152602090f35b8284346102e457816003193601126102e4576020906006549051908152f35b50503461048c578060031936011261048c57610431611074565b825191602080840190808552835180925280868601968360051b870101940192955b8287106104605785850386f35b90919293828061047c600193603f198a82030186528851610c3f565b9601920196019592919092610453565b80fd5b8284346102e457816003193601126102e4576020906002549051908152f35b50346102e457816003193601126102e45791908254906104cd82610dc7565b936104da84519586610d8c565b828552601f1992836104eb82610dc7565b019060209136838901376104fe81610dc7565b9261050b87519485610d8c565b81845261051782610dc7565b8484019601368737845b828110610576575050508061053f8651978789988952880190610c9d565b928684038288015251928381520193925b82811061055f57505050500390f35b835185528695509381019392810192600101610550565b60019082879698999a959752818060a01b03817f8a35acfbc15ff81a39ae7d344fd709f28e8600b4aa8c65c6b64bfe7fe36bd19b015416806105b88388610e9b565b52865260038752898620546105cd828a610e9b565b520197969593949297610521565b5091346102e457816003193601126102e45760ff600e5416905191600182101561060757602083838152f35b634e487b7160e01b815260218452602490fd5b50503461048c578060031936011261048c57610634610dad565b5081519161064183610d71565b600c546001600160401b031683528051600d8054808352908452602093848301917fd7b6990105719101dabeb77144f2a3385c8033acd3af97e9423a695e81ad1eb5915b868282106106b75788906106b388886106a0818a0382610d8c565b8385015251928284938452830190610cda565b0390f35b83546001600160a01b031685529093019260019283019201610685565b8284346102e457816003193601126102e4576020906005549051908152f35b8284346102e457816003193601126102e457602090600b549051908152f35b8284346102e457816003193601126102e45760209060ff600a5460a01c169051908152f35b5091346102e457816003193601126102e45761ffff9081601554168260125416019282841161076c5750602093505191168152f35b634e487b7160e01b815260118552602490fd5b50903461048c57602036600319011261048c57506107a06106b39135610ec5565b839291925193849315158452806020850152830190610d03565b50903461048c57602036600319011261048c57506107d89035610ec5565b8251610801816107f360208201946020865287830190610d03565b03601f198101835282610d8c565b519020825191151582526020820152f35b8284346102e45760203660031901126102e45760209161ffff9082906001600160a01b0361083e610c24565b1681526013855220541615159051908152f35b5091903461048c57602092836003193601126102e4578035906001600160401b0390818311610a055736602384011215610a0557820135818111610a055760248301908060051b936024853692010111610a01579093855193849288840196818986018b8a525260608086019386010193819681925b8484106108f1575050505050506108e7925003601f198101835282610d8c565b5190209051908152f35b9193959092949650605f1989820301875261090c888361118a565b803560de19823603018112156109f957906109668e6109558f95948461094c91019680875260e061093d898061118a565b91880152610120870190611204565b9186018661118a565b848203603f19016060860152611204565b8d608090850135818501528661097e6060870161119e565b1660a08501528401359063ffffffff60e01b82168092036109fd57908f92916109c79060c092838701526109b560a08801886111b2565b878303603f190160e0890152906111e3565b9401356101008401520135908115158092036109f9576001928e928380930152990197019401918896979593916108c7565b8580fd5b8780fd5b8480fd5b8380fd5b50503461048c578060031936011261048c57506018548151906001600160401b03908181168352831c166020820152f35b8284346102e457816003193601126102e45760209060ff600e5460081c1690519015158152f35b8284346102e457816003193601126102e45760209061ffff600f5460081c169051908152f35b8284346102e45760203660031901126102e457806020926001610aa8610c24565b6005548352601e865283832090828060a01b03168352018452205415159051908152f35b8284346102e457816003193601126102e45760209060ff600e5460101c1690519015158152f35b50503461048c57602036600319011261048c57610b4990606080610b15610c24565b92855190610b2282610d40565b80825280602083015286820152015260018060a01b03166000526011602052604060002090565b6106b36003835192610b5a84610d40565b8054845260018101549460208501958652610b90600283015492828701938452610b8983518096819301610dde565b0384610d8c565b6060850192835280519586956020875251602087015251908501525160608401525160808084015260a0830190610c3f565b8284346102e45760203660031901126102e4576020906002610bff610be5610c24565b6001600160a01b0316600090815260116020526040902090565b01549051908152f35b8390346102e457816003193601126102e4576020906007548152f35b600435906001600160a01b0382168203610c3a57565b600080fd5b919082519283825260005b848110610c6b575050826000602080949584010152601f8019910116010190565b602081830181015184830182015201610c4a565b34610c3a576000366003190112610c3a576020601054604051908152f35b90815180825260208080930193019160005b828110610cbd575050505090565b83516001600160a01b031685529381019392810192600101610caf565b9060406020610d00936001600160401b0381511684520151918160208201520190610c9d565b90565b9060606001600160401b0381610d228551608086526080860190610cda565b94602081015160208601526040810151604086015201511691015290565b608081019081106001600160401b03821117610d5b57604052565b634e487b7160e01b600052604160045260246000fd5b604081019081106001600160401b03821117610d5b57604052565b90601f801991011681019081106001600160401b03821117610d5b57604052565b60405190610dba82610d71565b6060602083600081520152565b6001600160401b038111610d5b5760051b60200190565b80546000939260018083169383821c938515610e91575b6020958686108114610e7b57858552908115610e5c5750600114610e1b575b5050505050565b90939495506000929192528360002092846000945b838610610e4857505050500101903880808080610e14565b805485870183015294019385908201610e30565b60ff19168685015250505090151560051b010191503880808080610e14565b634e487b7160e01b600052602260045260246000fd5b93607f1693610df5565b8051821015610eaf5760209160051b010190565b634e487b7160e01b600052603260045260246000fd5b906040805192610ed484610d40565b610edc610dad565b8452600090816060602096828882015282868201520152815280845281812093825194610f0886610d40565b835191610f1483610d71565b6001600160401b0380835416845260018084019487519485858854918281520197895285892090895b8181106110585750505060048491610f598888999a038a610d8c565b868401988952838d528c8760028301549101528c8b600383015491015201541660608b01528751958693630c133d1360e31b8552856004860152606485019251166024850152519188604485015282518092528460848501930191885b81811061103757505050508190038173__$a0fe38a9a81205afccc10810b09a4d3f45$__5af493841561102e57508293610ff3575b505050159190565b9080929350813d8311611027575b61100b8183610d8c565b810103126102e4575190811515820361048c5750388080610feb565b503d611001565b513d84823e3d90fd5b83516001600160a01b03168552879689965094850194909301928201610fb6565b82546001600160a01b03168a5298870198918501918501610f3d565b6020805461108181610dc7565b9160409061109182519485610d8c565b828452601f196110a084610dc7565b018160005b82811061117a57505050821561117457815181818581520182600052817fc97bfaf2f8ee708c303a06d134f5ecd8389ae0432af62dc132a24118292866bb9160005b8588821061115e5750506110fd92500382610d8c565b60005b84811061110f57505050505090565b6001906001600160a01b036111248285610e9b565b5116600052601f84526102b061114286600020875192838092610dde565b61114c8289610e9b565b526111578188610e9b565b5001611100565b84548352600194850194869450920191016110e7565b50505090565b60608282890101520182906110a5565b9035603e1982360301811215610c3a570190565b35906001600160401b0382168203610c3a57565b9035601e1982360301811215610c3a5701602081359101916001600160401b038211610c3a578136038313610c3a57565b908060209392818452848401376000828201840152601f01601f1916010190565b9061120f828061118a565b906040815260808101926001600160401b03938461122c8561119e565b16604084015260209384810135601e1982360301811215610c3a5701908482359201958211610c3a578160051b36038613610c3a578190604060608601525260a08301949060005b8181106112c657505050808361128b92019061118a565b908281850391015280359060ff8216809203610c3a57836112b9604093928493610d009752858101906111b2565b93909482015201916111e3565b90919586359060018060a01b038216809203610c3a579081528501958501919060010161127456fea2646970667358221220bdb896b1855040d54a69e20b5c6af3642317a66ba3ca0f6854be6d8074bb1fde64736f6c63430008130033","linkReferences":{"src/lib/SubnetIDHelper.sol":{"SubnetIDHelper":[{"start":4067,"length":20}]}}},"methodIdentifiers":{"activeValidatorsLimit()":"3354c3e1","bootstrapped()":"35142c8c","bottomUpCheckPeriod()":"06c46853","bottomUpCheckpointAtEpoch(uint256)":"4b27aa72","bottomUpCheckpointHashAtEpoch(uint256)":"4b0694e2","consensus()":"8ef3f761","crossMsgsHash(((((uint64,address[]),(uint8,bytes)),((uint64,address[]),(uint8,bytes)),uint256,uint64,bytes4,bytes,uint256),bool)[])":"3da33241","genesisBalances()":"903e6930","genesisCircSupply()":"948628a9","genesisValidators()":"d92e8f12","getActiveValidatorsNumber()":"c7cda762","getBootstrapNodes()":"9754b29e","getConfigurationNumbers()":"38a210b3","getParent()":"80f76021","getRelayerReward(address)":"b2bd295e","getTotalCollateral()":"d6eb5910","getTotalConfirmedCollateral()":"332a5ac9","getTotalValidatorCollateral(address)":"1597bf7e","getTotalValidatorsNumber()":"52d182d1","getValidator(address)":"1904bb2e","hasSubmittedInLastBottomUpCheckpointHeight(address)":"2bc31eb3","ipcGatewayAddr()":"cfca2824","isActiveValidator(address)":"40550a1c","isWaitingValidator(address)":"d081be03","killed()":"1f3a0e41","lastBottomUpCheckpointHeight()":"72d0a0e0","majorityPercentage()":"599c7bd1","minActivationCollateral()":"9e33bd02","minCrossMsgFee()":"6704287c","minValidators()":"c5ab2241","powerScale()":"ad81e4d6"},"id":76}