{"abi":[{"type":"function","name":"applyType","inputs":[{"name":"message","type":"tuple","internalType":"struct StorableMsg","components":[{"name":"from","type":"tuple","internalType":"struct IPCAddress","components":[{"name":"subnetId","type":"tuple","internalType":"struct SubnetID","components":[{"name":"root","type":"uint64","internalType":"uint64"},{"name":"route","type":"address[]","internalType":"address[]"}]},{"name":"rawAddress","type":"tuple","internalType":"struct FvmAddress","components":[{"name":"addrType","type":"uint8","internalType":"uint8"},{"name":"payload","type":"bytes","internalType":"bytes"}]}]},{"name":"to","type":"tuple","internalType":"struct IPCAddress","components":[{"name":"subnetId","type":"tuple","internalType":"struct SubnetID","components":[{"name":"root","type":"uint64","internalType":"uint64"},{"name":"route","type":"address[]","internalType":"address[]"}]},{"name":"rawAddress","type":"tuple","internalType":"struct FvmAddress","components":[{"name":"addrType","type":"uint8","internalType":"uint8"},{"name":"payload","type":"bytes","internalType":"bytes"}]}]},{"name":"value","type":"uint256","internalType":"uint256"},{"name":"nonce","type":"uint64","internalType":"uint64"},{"name":"method","type":"bytes4","internalType":"bytes4"},{"name":"params","type":"bytes","internalType":"bytes"},{"name":"fee","type":"uint256","internalType":"uint256"}]},{"name":"currentSubnet","type":"tuple","internalType":"struct SubnetID","components":[{"name":"root","type":"uint64","internalType":"uint64"},{"name":"route","type":"address[]","internalType":"address[]"}]}],"outputs":[{"name":"","type":"IPCMsgType","internalType":"enum IPCMsgType"}],"stateMutability":"pure"},{"type":"function","name":"toHash","inputs":[{"name":"storableMsg","type":"tuple","internalType":"struct StorableMsg","components":[{"name":"from","type":"tuple","internalType":"struct IPCAddress","components":[{"name":"subnetId","type":"tuple","internalType":"struct SubnetID","components":[{"name":"root","type":"uint64","internalType":"uint64"},{"name":"route","type":"address[]","internalType":"address[]"}]},{"name":"rawAddress","type":"tuple","internalType":"struct FvmAddress","components":[{"name":"addrType","type":"uint8","internalType":"uint8"},{"name":"payload","type":"bytes","internalType":"bytes"}]}]},{"name":"to","type":"tuple","internalType":"struct IPCAddress","components":[{"name":"subnetId","type":"tuple","internalType":"struct SubnetID","components":[{"name":"root","type":"uint64","internalType":"uint64"},{"name":"route","type":"address[]","internalType":"address[]"}]},{"name":"rawAddress","type":"tuple","internalType":"struct FvmAddress","components":[{"name":"addrType","type":"uint8","internalType":"uint8"},{"name":"payload","type":"bytes","internalType":"bytes"}]}]},{"name":"value","type":"uint256","internalType":"uint256"},{"name":"nonce","type":"uint64","internalType":"uint64"},{"name":"method","type":"bytes4","internalType":"bytes4"},{"name":"params","type":"bytes","internalType":"bytes"},{"name":"fee","type":"uint256","internalType":"uint256"}]}],"outputs":[{"name":"","type":"bytes32","internalType":"bytes32"}],"stateMutability":"pure"}],"bytecode":{"object":"0x6109bf61003a600b82828239805160001a60731461002d57634e487b7160e01b600052600060045260246000fd5b30600052607381538281f3fe73000000000000000000000000000000000000000030146080604052600436106100405760003560e01c80632f64575314610045578063f47ad7eb1461006b575b600080fd5b6100586100533660046102d5565b61008b565b6040519081526020015b60405180910390f35b61007e610079366004610312565b6100bb565b604051610062919061037d565b60008160405160200161009e91906105ab565b604051602081830303815290604052805190602001209050919050565b6000806100cb602085018561067d565b6100d5908061067d565b6100de90610731565b905060006100ec858061067d565b6100f6908061067d565b6100ff90610731565b9050600061010c85610731565b604051631ccc893360e11b815273__$a0fe38a9a81205afccc10810b09a4d3f45$__916339991266916101449190879060040161085a565b600060405180830381865af4158015610161573d6000803e3d6000fd5b505050506040513d6000823e601f3d908101601f19168201604052610189919081019061087f565b604051631ccc893360e11b815290915060009073__$a0fe38a9a81205afccc10810b09a4d3f45$__906339991266906101c8908690889060040161085a565b600060405180830381865af41580156101e5573d6000803e3d6000fd5b505050506040513d6000823e601f3d908101601f1916820160405261020d919081019061087f565b60405163c836244d60e01b815290915073__$a0fe38a9a81205afccc10810b09a4d3f45$__9063c836244d90610249908590859060040161085a565b602060405180830381865af4158015610266573d6000803e3d6000fd5b505050506040513d601f19601f8201168201806040525081019061028a9190610960565b156102ae5780602001515183602001515111156102ae5760019450505050506102b7565b60009450505050505b92915050565b600060e082840312156102cf57600080fd5b50919050565b6000602082840312156102e757600080fd5b813567ffffffffffffffff8111156102fe57600080fd5b61030a848285016102bd565b949350505050565b6000806040838503121561032557600080fd5b823567ffffffffffffffff8082111561033d57600080fd5b610349868387016102bd565b9350602085013591508082111561035f57600080fd5b5083016040818603121561037257600080fd5b809150509250929050565b602081016002831061039f57634e487b7160e01b600052602160045260246000fd5b91905290565b60008235603e198336030181126103bb57600080fd5b90910192915050565b67ffffffffffffffff811681146103da57600080fd5b50565b6001600160a01b03811681146103da57600080fd5b6000808335601e1984360301811261040957600080fd5b830160208101925035905067ffffffffffffffff81111561042957600080fd5b80360382131561043857600080fd5b9250929050565b81835281816020850137506000828201602090810191909152601f909101601f19169091010190565b6000813560ff811680821461047c57600080fd5b84525061048c60208301836103f2565b604060208601526104a160408601828461043f565b95945050505050565b60006104b682836103a5565b604084526080840181356104c9816103c4565b67ffffffffffffffff90811660408701526020908382013536859003601e190181126104f457600080fd5b9093018181019390358181111561050a57600080fd5b8060051b360385131561051c57600080fd5b60406060890152928390525060009160a08701905b80841015610563578435610544816103dd565b6001600160a01b03168252938201936001939093019290820190610531565b50610570828701876103a5565b9350868103828801526105838185610468565b979650505050505050565b80356001600160e01b0319811681146105a657600080fd5b919050565b6020815260006105bb83846103a5565b60e060208401526105d06101008401826104aa565b90506105df60208501856103a5565b601f19808584030160408601526105f683836104aa565b92506040860135606086015260608601359150610612826103c4565b67ffffffffffffffff8216608086015261062e6080870161058e565b6001600160e01b0319811660a0870152915061064d60a08701876103f2565b9250818685030160c087015261066484848361043f565b935050505060c084013560e08401528091505092915050565b60008235603e1983360301811261069357600080fd5b9190910192915050565b634e487b7160e01b600052604160045260246000fd5b6040805190810167ffffffffffffffff811182821017156106d6576106d661069d565b60405290565b604051601f8201601f1916810167ffffffffffffffff811182821017156107055761070561069d565b604052919050565b600067ffffffffffffffff8211156107275761072761069d565b5060051b60200190565b60006040823603121561074357600080fd5b61074b6106b3565b8235610756816103c4565b815260208381013567ffffffffffffffff81111561077357600080fd5b840136601f82011261078457600080fd5b80356107976107928261070d565b6106dc565b81815260059190911b820183019083810190368311156107b657600080fd5b928401925b828410156107dd5783356107ce816103dd565b825292840192908401906107bb565b938501939093525091949350505050565b60006040830167ffffffffffffffff835116845260208084015160406020870152828151808552606088019150602083019450600092505b8083101561084f5784516001600160a01b03168252938301936001929092019190830190610826565b509695505050505050565b60408152600061086d60408301856107ee565b82810360208401526104a181856107ee565b6000602080838503121561089257600080fd5b825167ffffffffffffffff808211156108aa57600080fd5b90840190604082870312156108be57600080fd5b6108c66106b3565b82516108d1816103c4565b815282840151828111156108e457600080fd5b80840193505086601f8401126108f957600080fd5b825191506109096107928361070d565b82815260059290921b8301840191848101908884111561092857600080fd5b938501935b8385101561094f578451610940816103dd565b8252938501939085019061092d565b948201949094529695505050505050565b60006020828403121561097257600080fd5b8151801515811461098257600080fd5b939250505056fea264697066735822122089a1db274310b0ad2e53669e2e2be64008adae5106f64a385823f4110ef6c99564736f6c63430008160033","linkReferences":{"src/lib/SubnetIDHelper.sol":{"SubnetIDHelper":[{"start":341,"length":20},{"start":472,"length":20},{"start":601,"length":20}]}}},"methodIdentifiers":{"applyType(StorableMsg,SubnetID)":"f47ad7eb","toHash(StorableMsg)":"2f645753"},"id":66}