{"abi":[{"type":"function","name":"getNum","inputs":[],"outputs":[{"name":"","type":"uint8","internalType":"uint8"}],"stateMutability":"pure"}],"bytecode":{"object":"0x6080604052348015600f57600080fd5b50607780601d6000396000f3fe6080604052348015600f57600080fd5b506004361060285760003560e01c806367e0badb14602d575b600080fd5b604080516008815290519081900360200190f3fea26469706673582212209856febba61eaeaaeddc35cf98ddf418ef310941fd2558cb52d1c00ce6e6437564736f6c63430008160033","linkReferences":{}},"methodIdentifiers":{"getNum()":"67e0badb"},"id":82}