{
    "abi": [
        {
            "inputs": [],
            "name": "getNum",
            "outputs": [
                {
                    "internalType": "uint8",
                    "name": "",
                    "type": "uint8"
                }
            ],
            "stateMutability": "pure",
            "type": "function"
        }
    ],
    "bytecode": {
        "object": "0x6080604052348015600f57600080fd5b50607780601d6000396000f3fe6080604052348015600f57600080fd5b506004361060285760003560e01c806367e0badb14602d575b600080fd5b604080516007815290519081900360200190f3fea2646970667358221220144bdff0d89e4e21b299a2fb072ebeb90f3f1281371d2b7b0f151c4a9cb214e664736f6c63430008130033",
        "linkReferences": {}
    },
    "methodIdentifiers": {
        "getNum()": "67e0badb"
    },
    "id": 89
}