{
  "abi": [
    {
      "inputs": [],
      "name": "getNum",
      "outputs": [
        {
          "internalType": "uint8",
          "name": "",
          "type": "uint8"
        }
      ],
      "stateMutability": "pure",
      "type": "function"
    }
  ],
  "bytecode": {
    "object": "0x6080604052348015600f57600080fd5b50607780601d6000396000f3fe6080604052348015600f57600080fd5b506004361060285760003560e01c806367e0badb14602d575b600080fd5b604080516008815290519081900360200190f3fea26469706673582212207dff82d9817727cb8afa06aa876ecce28573fd59318320a748eb26266483f8b464736f6c63430008130033",
    "linkReferences": {}
  },
  "methodIdentifiers": {
    "getNum()": "67e0badb"
  },
  "id": 89
}