{"abi":[{"type":"function","name":"getNum","inputs":[],"outputs":[{"name":"","type":"uint8","internalType":"uint8"}],"stateMutability":"pure"}],"bytecode":{"object":"0x6080604052348015600f57600080fd5b50607780601d6000396000f3fe6080604052348015600f57600080fd5b506004361060285760003560e01c806367e0badb14602d575b600080fd5b604080516008815290519081900360200190f3fea2646970667358221220383fd925b3a5a24867354b0d7dd4c06c170f092fb1aff68cc88ad850a0480cbe64736f6c63430008130033","linkReferences":{}},"methodIdentifiers":{"getNum()":"67e0badb"},"id":89}