{
  "abi": [
    {
      "inputs": [
        {
          "internalType": "address",
          "name": "account",
          "type": "address"
        }
      ],
      "name": "AddressInsufficientBalance",
      "type": "error"
    },
    {
      "inputs": [],
      "name": "FailedInnerCall",
      "type": "error"
    },
    {
      "inputs": [],
      "name": "NoRewardToWithdraw",
      "type": "error"
    },
    {
      "anonymous": false,
      "inputs": [
        {
          "indexed": false,
          "internalType": "address",
          "name": "validator",
          "type": "address"
        },
        {
          "indexed": false,
          "internalType": "uint256",
          "name": "amount",
          "type": "uint256"
        }
      ],
      "name": "CollateralClaimed",
      "type": "event"
    },
    {
      "anonymous": false,
      "inputs": [
        {
          "indexed": false,
          "internalType": "uint64",
          "name": "number",
          "type": "uint64"
        }
      ],
      "name": "ConfigurationNumberConfirmed",
      "type": "event"
    },
    {
      "inputs": [],
      "name": "INITIAL_CONFIGURATION_NUMBER",
      "outputs": [
        {
          "internalType": "uint64",
          "name": "",
          "type": "uint64"
        }
      ],
      "stateMutability": "view",
      "type": "function"
    }
  ],
  "bytecode": {
    "object": "0x61025561003a600b82828239805160001a60731461002d57634e487b7160e01b600052600060045260246000fd5b30600052607381538281f3fe73000000000000000000000000000000000000000030146080604052600436106100405760003560e01c806321eef6061461004557806382985e0b1461006a575b600080fd5b61004d600181565b60405167ffffffffffffffff909116815260200160405180910390f35b81801561007657600080fd5b5061008a6100853660046101ef565b61008c565b005b6001600160a01b0381166000908152601c60205260408120548082036100c5576040516367300f9160e11b815260040160405180910390fd5b6001600160a01b038381166000908152601c840160205260408082209190915560098401549051636c712ab960e11b81526004810184905291169063d8e2557290602401600060405180830381600087803b15801561012357600080fd5b505af1158015610137573d6000803e3d6000fd5b5061014f925050506001600160a01b03841682610154565b505050565b8047101561017b5760405163cd78605960e01b815230600482015260240160405180910390fd5b6000826001600160a01b03168260405160006040518083038185875af1925050503d80600081146101c8576040519150601f19603f3d011682016040523d82523d6000602084013e6101cd565b606091505b505090508061014f57604051630a12f52160e11b815260040160405180910390fd5b60006020828403121561020157600080fd5b81356001600160a01b038116811461021857600080fd5b939250505056fea26469706673582212204bc18af9d83191e679744c98cf4f919493165a24fd54ac725d2c7efdcfe9989764736f6c63430008130033",
    "linkReferences": {}
  },
  "methodIdentifiers": {
    "INITIAL_CONFIGURATION_NUMBER()": "21eef606",
    "claimRewardForRelayer(address)": "82985e0b"
  },
  "id": 57
}