{"abi":[{"type":"function","name":"addBootstrapNode","inputs":[{"name":"netAddress","type":"string","internalType":"string"}],"outputs":[],"stateMutability":"nonpayable"},{"type":"function","name":"claim","inputs":[],"outputs":[],"stateMutability":"nonpayable"},{"type":"function","name":"claimRewardForRelayer","inputs":[],"outputs":[],"stateMutability":"nonpayable"},{"type":"function","name":"confirmChange","inputs":[{"name":"_configurationNumber","type":"uint64","internalType":"uint64"}],"outputs":[],"stateMutability":"nonpayable"},{"type":"function","name":"confirmNextChange","inputs":[],"outputs":[],"stateMutability":"nonpayable"},{"type":"function","name":"distributeRewardToRelayers","inputs":[{"name":"height","type":"uint256","internalType":"uint256"},{"name":"reward","type":"uint256","internalType":"uint256"},{"name":"kind","type":"uint8","internalType":"enum QuorumObjKind"}],"outputs":[],"stateMutability":"payable"},{"type":"function","name":"join","inputs":[{"name":"publicKey","type":"bytes","internalType":"bytes"}],"outputs":[],"stateMutability":"payable"},{"type":"function","name":"kill","inputs":[],"outputs":[],"stateMutability":"nonpayable"},{"type":"function","name":"leave","inputs":[],"outputs":[],"stateMutability":"nonpayable"},{"type":"function","name":"preFund","inputs":[],"outputs":[],"stateMutability":"payable"},{"type":"function","name":"preRelease","inputs":[{"name":"amount","type":"uint256","internalType":"uint256"}],"outputs":[],"stateMutability":"nonpayable"},{"type":"function","name":"stake","inputs":[],"outputs":[],"stateMutability":"payable"},{"type":"function","name":"submitBottomUpMsgBatch","inputs":[{"name":"batch","type":"tuple","internalType":"struct BottomUpMsgBatch","components":[{"name":"subnetID","type":"tuple","internalType":"struct SubnetID","components":[{"name":"root","type":"uint64","internalType":"uint64"},{"name":"route","type":"address[]","internalType":"address[]"}]},{"name":"blockHeight","type":"uint256","internalType":"uint256"},{"name":"msgs","type":"tuple[]","internalType":"struct CrossMsg[]","components":[{"name":"message","type":"tuple","internalType":"struct StorableMsg","components":[{"name":"from","type":"tuple","internalType":"struct IPCAddress","components":[{"name":"subnetId","type":"tuple","internalType":"struct SubnetID","components":[{"name":"root","type":"uint64","internalType":"uint64"},{"name":"route","type":"address[]","internalType":"address[]"}]},{"name":"rawAddress","type":"tuple","internalType":"struct FvmAddress","components":[{"name":"addrType","type":"uint8","internalType":"uint8"},{"name":"payload","type":"bytes","internalType":"bytes"}]}]},{"name":"to","type":"tuple","internalType":"struct IPCAddress","components":[{"name":"subnetId","type":"tuple","internalType":"struct SubnetID","components":[{"name":"root","type":"uint64","internalType":"uint64"},{"name":"route","type":"address[]","internalType":"address[]"}]},{"name":"rawAddress","type":"tuple","internalType":"struct FvmAddress","components":[{"name":"addrType","type":"uint8","internalType":"uint8"},{"name":"payload","type":"bytes","internalType":"bytes"}]}]},{"name":"value","type":"uint256","internalType":"uint256"},{"name":"nonce","type":"uint64","internalType":"uint64"},{"name":"method","type":"bytes4","internalType":"bytes4"},{"name":"params","type":"bytes","internalType":"bytes"},{"name":"fee","type":"uint256","internalType":"uint256"}]},{"name":"wrapped","type":"bool","internalType":"bool"}]}]},{"name":"signatories","type":"address[]","internalType":"address[]"},{"name":"signatures","type":"bytes[]","internalType":"bytes[]"}],"outputs":[],"stateMutability":"nonpayable"},{"type":"function","name":"submitCheckpoint","inputs":[{"name":"checkpoint","type":"tuple","internalType":"struct BottomUpCheckpoint","components":[{"name":"subnetID","type":"tuple","internalType":"struct SubnetID","components":[{"name":"root","type":"uint64","internalType":"uint64"},{"name":"route","type":"address[]","internalType":"address[]"}]},{"name":"blockHeight","type":"uint256","internalType":"uint256"},{"name":"blockHash","type":"bytes32","internalType":"bytes32"},{"name":"nextConfigurationNumber","type":"uint64","internalType":"uint64"}]},{"name":"signatories","type":"address[]","internalType":"address[]"},{"name":"signatures","type":"bytes[]","internalType":"bytes[]"}],"outputs":[],"stateMutability":"nonpayable"},{"type":"function","name":"unstake","inputs":[{"name":"amount","type":"uint256","internalType":"uint256"}],"outputs":[],"stateMutability":"nonpayable"},{"type":"function","name":"validateActiveQuorumSignatures","inputs":[{"name":"signatories","type":"address[]","internalType":"address[]"},{"name":"hash","type":"bytes32","internalType":"bytes32"},{"name":"signatures","type":"bytes[]","internalType":"bytes[]"}],"outputs":[],"stateMutability":"view"},{"type":"event","name":"BottomUpCheckpointExecuted","inputs":[{"name":"epoch","type":"uint256","indexed":false,"internalType":"uint256"},{"name":"submitter","type":"address","indexed":false,"internalType":"address"}],"anonymous":false},{"type":"event","name":"BottomUpCheckpointSubmitted","inputs":[{"name":"checkpoint","type":"tuple","indexed":false,"internalType":"struct BottomUpCheckpoint","components":[{"name":"subnetID","type":"tuple","internalType":"struct SubnetID","components":[{"name":"root","type":"uint64","internalType":"uint64"},{"name":"route","type":"address[]","internalType":"address[]"}]},{"name":"blockHeight","type":"uint256","internalType":"uint256"},{"name":"blockHash","type":"bytes32","internalType":"bytes32"},{"name":"nextConfigurationNumber","type":"uint64","internalType":"uint64"}]},{"name":"submitter","type":"address","indexed":false,"internalType":"address"}],"anonymous":false},{"type":"event","name":"NextBottomUpCheckpointExecuted","inputs":[{"name":"epoch","type":"uint256","indexed":false,"internalType":"uint256"},{"name":"submitter","type":"address","indexed":false,"internalType":"address"}],"anonymous":false},{"type":"event","name":"SubnetBootstrapped","inputs":[{"name":"","type":"tuple[]","indexed":false,"internalType":"struct Validator[]","components":[{"name":"weight","type":"uint256","internalType":"uint256"},{"name":"addr","type":"address","internalType":"address"},{"name":"metadata","type":"bytes","internalType":"bytes"}]}],"anonymous":false},{"type":"error","name":"AddressInsufficientBalance","inputs":[{"name":"account","type":"address","internalType":"address"}]},{"type":"error","name":"AddressShouldBeValidator","inputs":[]},{"type":"error","name":"CannotConfirmFutureChanges","inputs":[]},{"type":"error","name":"CannotReleaseZero","inputs":[]},{"type":"error","name":"CollateralIsZero","inputs":[]},{"type":"error","name":"EmptyAddress","inputs":[]},{"type":"error","name":"FailedInnerCall","inputs":[]},{"type":"error","name":"InvalidBatchEpoch","inputs":[]},{"type":"error","name":"InvalidCheckpointEpoch","inputs":[]},{"type":"error","name":"InvalidPublicKeyLength","inputs":[]},{"type":"error","name":"InvalidSignatureErr","inputs":[{"name":"","type":"uint8","internalType":"uint8"}]},{"type":"error","name":"MaxMsgsPerBatchExceeded","inputs":[]},{"type":"error","name":"MethodNotAllowed","inputs":[{"name":"reason","type":"string","internalType":"string"}]},{"type":"error","name":"NoCollateralToWithdraw","inputs":[]},{"type":"error","name":"NotAllValidatorsHaveLeft","inputs":[]},{"type":"error","name":"NotEnoughBalance","inputs":[]},{"type":"error","name":"NotEnoughCollateral","inputs":[]},{"type":"error","name":"NotEnoughFunds","inputs":[]},{"type":"error","name":"NotGateway","inputs":[]},{"type":"error","name":"NotOwnerOfPublicKey","inputs":[]},{"type":"error","name":"NotStakedBefore","inputs":[]},{"type":"error","name":"NotValidator","inputs":[{"name":"","type":"address","internalType":"address"}]},{"type":"error","name":"PQDoesNotContainAddress","inputs":[]},{"type":"error","name":"PQEmpty","inputs":[]},{"type":"error","name":"ReentrancyError","inputs":[]},{"type":"error","name":"SubnetAlreadyBootstrapped","inputs":[]},{"type":"error","name":"SubnetAlreadyKilled","inputs":[]},{"type":"error","name":"WithdrawExceedingCollateral","inputs":[]}],"bytecode":{"object":"0x6080806040523461001657614415908161001c8239f35b600080fdfe608080604052600436101561001357600080fd5b600090813560e01c9081630b7fbe60146113705750806310fd42611461120157806326811936146110535780632e17de781461102e578063350a14bf14610ffb5780633a4b66f114610fdf57806341c0e1b514610f3c5780634c860af614610ef05780634e71d92d14610d645780636170b1621461078957806366783c9b146106a8578063b9ee2bb914610290578063c7ebdaef1461024a578063cc2dc2b9146101ca578063d66d9e19146101875763ed7c4da1146100d157600080fd5b346101845780600319360112610184576000805160206143c083398151915260018154146101725780600183925573__$4a8700ca5e162cb61a0c4650a4871f1ad5$__803b1561016e5782602491604051928380926382985e0b60e01b82523360048301525af490811561016357839161014c575b50505580f35b61015590611468565b610160578138610146565b50fd5b6040513d85823e3d90fd5b5050fd5b6040516329f745a760e01b8152600490fd5b80fd5b50346101845780600319360112610184576101a0613828565b6000805160206143c08339815191526001815414610172578060018392556101c6613b9c565b5580f35b5034610184576060366003190112610184576001600160401b0360043581811161024657366023820112156102465761020d903690602481600401359101611578565b6044359182116102465736602383011215610246576102396102439236906024816004013591016115ce565b9060243590613f48565b80f35b8280fd5b50346101845780600319360112610184576001600160401b0360001981601c54160190811161027c5761024390611b58565b634e487b7160e01b82526011600452602482fd5b503461018457600319606036820112610508576001600160401b03600435116105085760806004356004019160043536030112610508576024356001600160401b038111610246576102e6903690600401611509565b91906044356001600160401b0381116106a457610307903690600401611509565b9160055494600b549561031a878261164d565b60246004350135141580610694575b610682576040519061036160208301836103438a83611728565b0393610357601f1995868101835282611496565b519020988261164d565b600435602401350361057f5750509161038461038c926103929697943691611578565b9336916115ce565b91613f48565b602460043501358252816020526040822090803560421960043536030181121561057b576004350191600483016001600160401b036103d082611779565b16936001600160401b031994858454161783556103f6600192602484860193019061178d565b91906001600160401b03831161056757600160401b831161056757815483835580841061054c575b509087526020872087959493929186905b838210610517575050505050600480356024810135600284015560448101356003840155606401949101906001600160401b0361046b86611779565b1690825416179055602460043501358252602260205261048f6040832033906118c6565b5060043560240135600555600e546001600160a01b0316803b15610246576040516347dc9b4f60e01b815291839183918290849082906104d29060048301611728565b03925af1801561050c576104f4575b50506104ef61024391611779565b611b58565b6104fd90611468565b6105085781386104e1565b5080fd5b6040513d84823e3d90fd5b809192939495969750359160018060a01b03831683036105485760208692019281850155018896959493929161042f565b8980fd5b828952602089206105619181019085016117c2565b3861041e565b634e487b7160e01b88526041600452602488fd5b8380fd5b94509450505050602460043501351461059757505080f35b60246004350135835282602052604083206040519060208201926020845260806040840152826101008101926001600160401b0381541660c083015260019081810191604060e085015282548096526101208401928a5260208a20908a5b878110610661575050506002810154606084015260038101546080840152600401546001600160401b031660a0830152039081018352610636915082611496565b519020146106415780f35b602460043501358152602260205261065d6040822033906118c6565b5080f35b82546001600160a01b031685528895506020909401939181019181016105f5565b60405163fae4eadb60e01b8152600490fd5b5080602460043501351415610329565b8480fd5b5034610184576020366003190112610184576004356000805160206143c08339815191526001815414610172576001815581156107775760ff60125460081c1661076557338352600360205281604084205410610753576101c6839233845260036020526040842061071b828254611edf565b905561072981600254611edf565b6002553384526003602052604084205415610745575b33613298565b61074e336142b8565b61073f565b60405163569d45cf60e11b8152600490fd5b604051631b39f2f360e11b8152600490fd5b604051631036b5ad60e31b8152600490fd5b50602036600319011261018457600435906001600160401b0382116101845736602383011215610184576001600160401b0382600401351161018457602436818460040135850101116105085760016000805160206143c083398151915254146101725760016000805160206143c083398151915255610807613828565b60125460ff8160081c1680918192610d56575b50610d26573415610d145760418460040135148015610d025761083c90612f16565b83600401356001116102465761085e36600486013560001901602587016114d2565b80516020909101206001600160a01b03163303610cf057610ae257336000908152601560205260409020600293908401906108a781600401356108a1845461194b565b84611a1b565b83601f826004013511600114610a6c578385918360040135610a5f575b5050816004013560011b91600019906004013560031b1c19161790555b6108eb343361340a565b601454600a54811015610912575b505090505b806000805160206143c08339815191525580f35b61ffff601654166001600160401b03600c5416116108f95761010061ff001960125416176012556040519360208501602086526001548091526040860160408260051b88010191600187527fb10e2d527612073b26eecdfd717e6a320cf44b4afac2b0732d9fcbe2b7fa0cf69187905b828210610a1457505050508585967f4914d88063275a25a13b2df37125e216745d812f94c56504be4bd78cf60c9593920390a16109cc60018060a01b03600e54169154809361164d565b92813b156106a45784926040519485938492637903ab2760e11b845260048401525af1801561050c57610a00575b806108f9565b610a0990611468565b6101845780386109fa565b9091929360206003610a516001938d603f1990820301865288548152848060a01b03858a0154168482015260609081604082015201898901611985565b960192019201909291610982565b83010135905083386108c4565b828552602085208592916004830135601f19165b808510610ac55760019450836004013511610aa6575b505060040135811b0190556108e1565b8201850135600019600484013560031b60f8161c191690553880610a96565b838201870135835560209485019460019093019290910190610a80565b610af33684600401358386016114d2565b926001600160401b03601c5416604051610b0c8161147b565b600281526020810195865233604082015281600052601d60205260406000209581516003811015610cdb5760ff80198954169116178755519586516001600160401b038111610cc657610b6f81610b66600185015461194b565b60018501611a1b565b6020601f8211600114610c44579080600293926000805160206143a0833981519152999a600092610c39575b50508160011b916000199060031b1c19161760018201555b0190604060018060a01b03910151166001600160601b0360a01b8254161790556001600160401b03610be482611b40565b166001600160401b0319601c541617601c55610c21604051938493600285523360208601526080604086015260808501918160040135910161308c565b9060608301520390a1610c34343361361f565b6108fe565b015190503880610b9b565b6001830160005260206000209860005b601f1984168110610cae5750916000805160206143a083398151915298996001926002959483601f19811610610c95575b505050811b016001820155610bb3565b015160001960f88460031b161c19169055388080610c85565b828201518b556001909a019960209283019201610c54565b85634e487b7160e01b60005260416004526000fd5b85634e487b7160e01b60005260216004526000fd5b604051634be9251d60e11b8152600490fd5b6040516318dca5e960e21b8152600490fd5b604051635a78c58160e11b8152600490fd5b50610d2f613312565b60405163015538b160e01b815260206004820152918291610d529183019061338f565b0390fd5b60ff915060101c163861081a565b50346101845780600319360112610184576001906000805160206143c08339815191528281541461017257828155336000908152601f602052604090209283549061ffff90818316928315610ede57829060101c16918391808795818a01915b610e58575b50505086610e3a937f197c586353eaed0a1c53e6e540445b94befab8f932c8115d112115ecbeeed514959363ffff000093899a54911693849260101b169063ffffffff19161717905515610e41575b610e228133613298565b60408051338152602081019290925290918291820190565b0390a15580f35b336000908152601f60205260409020859055610e18565b909193948381169682881015610ed55787600052602080918582526040600020604051610e8481611437565b89825492838352015493849101524310610eca5785949388968894610eab86958a9561164d565b9c60005252600082604082208281550155011696600019011694610dc4565b985050509493610dc9565b96509493610dc9565b6040516364b0557f60e01b8152600490fd5b50606036600319011261018457604435600281101561050857600e546001600160a01b03163303610f2a5761024390602435600435613d9d565b60405163e7e601db60e01b8152600490fd5b5034610184578060031936011261018457610f55613828565b61ffff610f6b8160195416826016541690611e7f565b16610fcd576012805463ff00000019166301000000179055600e5481906001600160a01b0316803b15610160578180916004604051809481936341c0e1b560e01b83525af1801561050c57610fbd5750f35b610fc690611468565b6101845780f35b604051636b62255160e11b8152600490fd5b508060031936011261018457610ff3613828565b610243613849565b5034610184576020366003190112610184576004356001600160401b03811681036110295761024390611b58565b600080fd5b503461018457602036600319011261018457611048613828565b6102436004356138d2565b503461018457600319606036820112610508576004356001600160401b039182821161057b5760608260040191833603011261057b576024358381116106a4576110a1903690600401611509565b91906044358581116111fd576110bb903690600401611509565b91602486013596600654968789106111eb5760446110da91018661178d565b91905060095416106111d9578794604051602081019061110c816110fe8985613116565b03601f198101835282611496565b51902096880361113d5750505050505060075414611128575080f35b8152602360205261065d6040822033906118c6565b61115793926103848896989361038c939a989a3691611578565b80602060405161116681611437565b848152015281600655600755825260236020526111876040832033906118c6565b50600e546001600160a01b031690813b1561016e5782916111be91604051948580948193630bed761560e01b835260048301613116565b03925af1801561050c576111d0575080f35b61024390611468565b60405163351c700760e01b8152600490fd5b60405163200c52f760e21b8152600490fd5b8680fd5b50346101845760209081600319360112610184576001600160401b03916004358381116102465736602382011215610246576112479036906024816004013591016114d2565b923383526017825261ffff60408420541615611358578351156113465733835260248252604083209184519182116113325761128d82611287855461194b565b85611a1b565b80601f83116001146112ce57508394829394926112c3575b50508160011b916000199060031b1c19161790555b61065d3361185d565b0151905038806112a5565b90601f198316958486528286209286905b88821061131a57505083600195969710611301575b505050811b0190556112ba565b015160001960f88460031b161c191690553880806112f4565b806001859682949686015181550195019301906112df565b634e487b7160e01b84526041600452602484fd5b604051637138356f60e01b8152600490fd5b604051633b4f6e2b60e21b8152336004820152602490fd5b905081600319360112610508573415611428575060ff60125460081c166107655733815260036020526040812054156113cf575b3381526003602052604081206113bb34825461164d565b90556113c93460025461164d565b60025580f35b600454600160401b811015611414576113f181600161140f93016004556117d9565b81546001600160a01b0360039290921b91821b19163390911b179055565b6113a4565b634e487b7160e01b82526041600452602482fd5b631036b5ad60e31b8152600490fd5b604081019081106001600160401b0382111761145257604052565b634e487b7160e01b600052604160045260246000fd5b6001600160401b03811161145257604052565b606081019081106001600160401b0382111761145257604052565b90601f801991011681019081106001600160401b0382111761145257604052565b6001600160401b03811161145257601f01601f191660200190565b9291926114de826114b7565b916114ec6040519384611496565b829481845281830111611029578281602093846000960137010152565b9181601f84011215611029578235916001600160401b038311611029576020808501948460051b01011161102957565b35906001600160401b038216820361102957565b6001600160401b0381116114525760051b60200190565b35906001600160a01b038216820361102957565b92916115838261154d565b916115916040519384611496565b829481845260208094019160051b810192831161102957905b8282106115b75750505050565b8380916115c384611564565b8152019101906115aa565b929190926115db8461154d565b916115e96040519384611496565b829480845260208094019060051b8301928284116110295780915b84831061161357505050505050565b82356001600160401b03811161102957820184601f8201121561102957869161164286838580953591016114d2565b815201920191611604565b9190820180921161165a57565b634e487b7160e01b600052601160045260246000fd5b9035603e1982360301811215611029570190565b9035601e19823603018112156110295701602081359101916001600160401b038211611029578160051b3603831361102957565b60408201916001600160401b036116ce83611539565b16815260606116e260209384810190611684565b839195604086839601525201929160005b828110611701575050505090565b909192938280600192838060a01b0361171989611564565b168152019501939291016116f3565b6020815260806001600160401b0361177260606117586117488780611670565b85602088015260a08701906116b8565b956020810135604087015260408101358287015201611539565b1691015290565b356001600160401b03811681036110295790565b903590601e198136030182121561102957018035906001600160401b03821161102957602001918160051b3603831361102957565b8181106117cd575050565b600081556001016117c2565b6004548110156118105760046000527f8a35acfbc15ff81a39ae7d344fd709f28e8600b4aa8c65c6b64bfe7fe36bd19b0190600090565b634e487b7160e01b600052603260045260246000fd5b6025548110156118105760256000527f401968ff42a154441da5f6c4c935ac46b8671f0e062baaa62a7545ba53bb6e4c0190600090565b6000818152602660205260408120546118c157602554600160401b8110156114145790826118ad61189684600160409601602555611826565b819391549060031b91821b91600019901b19161790565b905560255492815260266020522055600190565b905090565b9190600183016000908282528060205260408220541560001461194557845494600160401b861015611931576001860180825586101561191d57836040949596828552602085200155549382526020522055600190565b634e487b7160e01b83526032600452602483fd5b634e487b7160e01b83526041600452602483fd5b50925050565b90600182811c9216801561197b575b602083101461196557565b634e487b7160e01b600052602260045260246000fd5b91607f169161195a565b90600092918054916119968361194b565b9182825260019384811690816000146119f857506001146119b8575b50505050565b90919394506000526020928360002092846000945b8386106119e45750505050010190388080806119b2565b8054858701830152940193859082016119cd565b9294505050602093945060ff191683830152151560051b010190388080806119b2565b9190601f8111611a2a57505050565b611a56926000526020600020906020601f840160051c83019310611a58575b601f0160051c01906117c2565b565b9091508190611a49565b90808214611b3c57611a74815461194b565b906001600160401b038211611452578190611a9982611a93865461194b565b86611a1b565b600090601f8311600114611ad057600092611ac5575b50508160011b916000199060031b1c1916179055565b015490503880611aaf565b81526020808220858352818320935090601f1985169083905b828210611b23575050908460019594939210611b0a575b505050811b019055565b015460001960f88460031b161c19169055388080611b00565b8495819295850154815560018091019601940190611ae9565b5050565b9060016001600160401b038093160191821161165a57565b601c546001600160401b0382811692908083168410611b835760405163040aaa0560e11b8152600490fd5b808360401c1684106119b25780604093841c165b848282161115611bfe57505091602091611bd17f246f00b61ce672242f33bb680a47147cd54d3dfd04dbb76956ba42f88087bf6394611b40565b67ffffffffffffffff60401b601c5491831b169067ffffffffffffffff60401b191617601c5551908152a1565b611c1b816001600160401b0316600052601d602052604060002090565b60028181015482546001600160a01b03949293918516919060ff166003811015611e57578695818603611cad5750506001600160a01b039091166000908152601560205260409020611c7291600101908401611a62565b611c8f816001600160401b0316600052601d602052604060002090565b91600090818455600193611ca4858201611eec565b01550116611b97565b919394955091885193611ccf85611cc8816001809501611985565b0386611496565b602080868051810103126110295781818c9701519514600014611e0c578490611cf88285611f35565b601e54611d05904361164d565b92875190611d1282611437565b8482528282018481526001600160a01b0387166000908152601f602052604090209091909283549161ffff9384848180961695869160101c1690611d5591611e7f565b169c60009d8e5282870188528d209251835551910155611d7490611e6c565b1661ffff198254161790558b519384528301528982015260607f083b080788e20bd0930c2bca2ae4fbc51a59ced08c1b5992271f8cb439498a6391a1600e541690813b15610246578291602483928a5195869384926345f5448560e01b845260048401525af1908115611e0157509084939291611df2575b50611c72565b611dfb90611468565b38611dec565b8751903d90823e3d90fd5b505082935091611e1c9192611e95565b600e541690813b15611029578651916316989f6f60e21b83528260048160009485945af1908115611e0157509084939291611df25750611c72565b60246000634e487b7160e01b81526021600452fd5b90600161ffff8093160191821161165a57565b91909161ffff8080941691160191821161165a57565b90611a5691611ed760018060a01b03821692836000526015602052611ebf8160406000205461164d565b9360005260156020528360406000205560145461164d565b601455611fb8565b9190820391821161165a57565b611ef6815461194b565b9081611f00575050565b81601f60009311600114611f12575055565b908083918252611f31601f60208420940160051c8401600185016117c2565b5555565b90611f99611fa19260018060a01b0381169060008281526015602052611f5f856040832054611edf565b9281526015602052604081206001810184815481159081611faf575b5015611fa657509082600292611f949483555501611eec565b612325565b601454611edf565b601455565b92505055612325565b90501538611f7b565b919060018060a01b03928381169360008581526020956017875261ffff916040978389832054166122095783601354168460165416106121d55786611ffb612956565b9190911061214f5750828252601a815283898320541661206e5750505050506120697f19fe3ca603e87854a0747cc10abf06bac64d61bac73d6d15f2fd3ca448f15264939461204983612653565b516001600160a01b03909216825260208201929092529081906040820190565b0390a1565b61207d86959994989796612e6d565b92825260159081815284832054935b6001808b831611156121195781617fff911c1690818552601b83528b87862054168552838352858786205410156120cc576120c79082612fcc565b61208c565b505093516001600160a01b0390951685525050505060208101919091529092507fda148fac2e1063174be7bc0895576bdaba90fd14e575463fa26a967cb895cadd91508060408101612069565b50505050505061206991929395507fda148fac2e1063174be7bc0895576bdaba90fd14e575463fa26a967cb895cadd9450612049565b959650612069945090601a899493927ffaeb8de771b867cf357f6b459a7002b62ec45d544a8078a3ecd91200cc826d75999a9361218a612b25565b8352522054166121c7575b61219e84612ab3565b6121a783612653565b516001600160a01b03928316815292909116602083015281906040820190565b6121d084612840565b612195565b50505050506120697f2e8038f5812f763c6ef0c5427cb5a05ce6d7064af2ba7d1d270bc02660b019fd939461204983612ab3565b61221a869598979699949399612e36565b98825260159081815284832054986122318b612a42565b8560165416905b8681168281116122ed57828110156122d057508061225861225e92611e6c565b90612de4565b9c909c5b8c111561228157612273908d612f33565b61227c8c612a42565b612238565b505094516001600160a01b0390961686525050505060208201929092529193507f143db27bc2036653dc6f962ff9d0b803163d4af50c256ca9e6927b3d6dcd0197925081905060408101612069565b869d919d5260188452828887205416865284845287862054612262565b505050505050505061206991929395507f143db27bc2036653dc6f962ff9d0b803163d4af50c256ca9e6927b3d6dcd01979450612049565b9160018060a01b039283811692600091848352602094601a865261ffff9060409482868220541661251457818152601788528286822054161561250357841561247e5761237184612e36565b918152601580895286822054925b600180868316111561246d5781617fff911c169081845260188b528b89852054168452828b52848985205411156123bf576123ba9082612f33565b61237f565b5050505050919395509193505b6019541615612468576123dd612956565b906123e66129a0565b90921061242f57505091516001600160a01b03909216825260208201527f143db27bc2036653dc6f962ff9d0b803163d4af50c256ca9e6927b3d6dcd0197908060408101612069565b915091506120697ffaeb8de771b867cf357f6b459a7002b62ec45d544a8078a3ecd91200cc826d7593612460612b25565b6121956126d9565b505050565b5050505050919395509193506123cc565b50916124b1919597507f4a4c5d1a281180eea1e99d8177fa4798b9f7e019d5c57e7d8d73c6a22199aa5b94969350612c6e565b8451908152a1601954166124c25750565b6120697f2e8038f5812f763c6ef0c5427cb5a05ce6d7064af2ba7d1d270bc02660b019fd916124ef6129a0565b9290916124fa6126d9565b61204983612ab3565b8551632a55ca5360e01b8152600490fd5b9093959686989395981561261a579261fffe92949361253287612e6d565b9483526015918282528a8420549580976001968792831b168160195416925b6125a6575b50509a516001600160a01b039098168852505050506020840194909452509293507fda148fac2e1063174be7bc0895576bdaba90fd14e575463fa26a967cb895cadd925090508060408101612069565b818116838111612614578e90808511156125f8575050806125c96125cf92611e6c565b90612a59565b9990995b8910156125f3576125e4908a612fcc565b6125ed89612a42565b87612551565b612556565b8852601b8652872054841687528585528d8720549099906125d3565b50612556565b9550505050909361264c7f3168ba660eed6ef1dc2258b2247cc05fd0f2f350d39e6ad2e2ebc76a8000b40b9495612840565b51908152a1565b611a5690604061ffff6126698160195416611e6c565b9260018060a01b0316600091818352601a6020528383209085169061ffff19908282825416179055818452601b602052848420836001600160601b0360a01b8254161790556019541617601955815260156020522054906129ea565b61ffff908116600019019190821161165a57565b61ffff8060195416801561282e5760016126f582821115612f16565b6000818152601b60208181526040808420805487865282862080546001600160a01b03928316808952601a8752858920805461ffff199081168d17909155918416808a52868a20805484168c17905588885283546001600160a01b03199081169092179093558989528454169091179092559396919493929161278b918961277c836126c5565b16906019541617601955612e92565b8483528581528184842054168352601591828252848420549686809960028160195416925b6127c3575b505050505050505050505050565b818116838111612828578381101561280c5750806125c96127e392611e6c565b9b909b5b8b1015612807576127f8908c612fcc565b6128018b612a42565b896127b0565b6127b5565b889c919c528386528489892054168852868652888820546127e7565b506127b5565b6040516340d9b01160e01b8152600490fd5b61284990612e6d565b61ffff80601954169061285c8284612fcc565b80612866836126c5565b1661ffff19601954161760195561287c82612e92565b80831680921461246857919061fffe906000818152601b91602083815260018060a01b0360409481868620541685526015938484526128be878720548a6129ea565b85528083528186862054168552838352858520549780996001988992831b168160195416925b6128f657505050505050505050505050565b818116838111612828578381101561293a5750806125c961291692611e6c565b9b909b5b8b10156128075761292b908c612fcc565b6129348b612a42565b896128e4565b889c919c5283865284898920541688528686528888205461291a565b61ffff601654161561282e577ff3794665d3af9b6fb6f858b70185898134f96768ef31c325d52e04f0ac195a4d546001600160a01b03166000818152601560205260409020549091565b61ffff601954161561282e577f9fafca4c9c0d5c2cbf85f49fd8ab8212430ce78c2a0cb75b51e0f9c4f9ace003546001600160a01b03166000818152601560205260409020549091565b9190915b60018061ffff83161115612a3c5781617fff911c1690836000838152602090601b8252601560409260018060a01b03848420541683525220541015612a3c57612a379082612fcc565b6129ee565b50509050565b60011b906201fffe61fffe83169216820361165a57565b91909161ffff92604060008584168152601b60205260018060a01b0380838320541682526015602052828220549684168252601b602052828220541681526015602052205490818510612aac5750509190565b9350919050565b611a5690604061ffff612ac98160165416611e6c565b9260018060a01b031660009181835260176020528383209085169061ffff199082828254161790558184526018602052848420836001600160601b0360a01b825416179055601654161760165581526015602052205490612d92565b61ffff8060165416801561282e576001612b4182821115612f16565b6000818152601860208181526040808420805487865282862080546001600160a01b0392831680895260178752858920805461ffff199081168d17909155918416808a52868a20805484168c17905588885283546001600160a01b031990811690921790935589895284541690911790925593969194939291612bd79189612bc8836126c5565b16906016541617601655612ed4565b8483528581528184842054168352601591828252848420549686809960028160165416925b612c0e57505050505050505050505050565b8181168381116128285783811015612c52575080612258612c2e92611e6c565b9b909b5b8b111561280757612c43908c612f33565b612c4c8b612a42565b89612bfc565b889c919c52838652848989205416885286865288882054612c32565b612c7790612e36565b9061ffff90816016541691612c8c8385612f33565b80612c96846126c5565b1661ffff196016541617601655612cac83612ed4565b808416809314612d8c5760009280845260189360209185835260018060a01b03926040938085852054168452601592838352612ceb868620548b612d92565b845287825280858520541684528282528484205497612d098a612a42565b8760165416905b888116828111612d7d5782811015612d61575080612258612d3092611e6c565b9b909b5b8b1115612d5357612d45908c612f33565b612d4e8b612a42565b612d10565b505050505050505050915050565b879c919c52828552838888205416875285855287872054612d34565b50505050505050505050915050565b50915050565b9190915b60018061ffff83161115612a3c5781617fff911c169083600083815260209060188252601560409260018060a01b03848420541683525220541115612a3c57612ddf9082612f33565b612d96565b919061ffff604060008286168152601860205260018060a01b0380838320541682526015602052828220549385168252601860205282822054168152601560205220549384821115612aac5750509190565b6001600160a01b031660009081526017602052604090205461ffff16908115612e5b57565b60405163f2755e3760e01b8152600490fd5b6001600160a01b03166000908152601a602052604090205461ffff16908115612e5b57565b61ffff166000908152601b6020908152604080832080546001600160a01b031981169091556001600160a01b03168352601a9091529020805461ffff19169055565b61ffff16600090815260186020908152604080832080546001600160a01b031981169091556001600160a01b0316835260179091529020805461ffff19169055565b15612f1d57565b634e487b7160e01b600052600160045260246000fd5b612f5861ffff808060165416931693612f4e84861115612f16565b1691821115612f16565b6000828152601860208181526040808420805486865282862080546001600160a01b0392831680895260178752858920805461ffff19908116909b1790559216808852938720805490981689179097559390925284546001600160a01b031990811690931790945593909152825416179055565b612fe761ffff808060195416931693612f4e84861115612f16565b6000828152601b60208181526040808420805486865282862080546001600160a01b03928316808952601a8752858920805461ffff19908116909b1790559216808852938720805490981689179097559390925284546001600160a01b031990811690931790945593909152825416179055565b9035601e19823603018112156110295701602081359101916001600160401b03821161102957813603831361102957565b908060209392818452848401376000828201840152601f01601f1916010190565b6130d66130cb6130bd8380611670565b6040855260408501906116b8565b916020810190611670565b91602081830391015281359160ff831680930361102957613103604091613113948452602081019061305b565b919092816020820152019161308c565b90565b60208082526131258380611670565b606091828185015261313c608092838601906116b8565b613153604096838101358888015287810190611684565b939096601f199686888286030191015284835283830191848660051b8501019880986000955b88871061318e57505050505050505050505090565b909192939495969798999a828282030187526131aa8c85611670565b90813560de1983360301811215611029578782528201918a90888e6001600160401b036132216132116131fe6131f56131e38b80611670565b60e080988c01526101208b01906130ad565b978a018a611670565b96603f1997888a830301868b01526130ad565b928d8901358d8901528801611539565b169060a091828701528a8701359263ffffffff60e01b8416809403611029578f956132586132689460c096878b01528a018a61305b565b929091898503019089015261308c565b940135610100840152013590811515809203611029578a01529a8801999897966001019587019493929190613179565b8147106132fa576000918291829182916001600160a01b03165af13d156132f5573d6132c3816114b7565b906132d16040519283611496565b8152600060203d92013e5b156132e357565b604051630a12f52160e11b8152600490fd5b6132dc565b60405163cd78605960e01b8152306004820152602490fd5b60405190608082018281106001600160401b03821117611452576040526045825264185c1c195960da1b6060837f4d6574686f64206e6f7420616c6c6f776564206966207065726d697373696f6e60208201527f656420697320656e61626c656420616e64207375626e657420626f6f7473747260408201520152565b919082519283825260005b8481106133bb575050826000602080949584010152601f8019910116010190565b60208183018101518483018201520161339a565b600154811015611810576003906001600052027fb10e2d527612073b26eecdfd717e6a320cf44b4afac2b0732d9fcbe2b7fa0cf60190600090565b9061341f9061341981846135f8565b82611e95565b60ff60125460081c16156134305750565b60018054600082815b8381106135c7575b50501561344d57505050565b6001600160a01b038316600090815260156020526040902080546134a19490916002016040519261347d8461147b565b83526020936134a88585019260018060a01b03809516845260405198898092611985565b0388611496565b60408401968752600160401b8110156114525780866134c9920187556133cf565b9290926135b1576002935183558583019151166001600160601b0360a01b825416179055019251908151916001600160401b0383116114525761351683613510875461194b565b87611a1b565b81601f841160011461354f5750928293918392600094613544575b50501b916000199060031b1c1916179055565b015192503880613531565b919083601f1981168760005284600020946000905b88838310613597575050501061357e57505050811b019055565b015160001960f88460031b161c19169055388080611b00565b858701518855909601959485019487935090810190613564565b634e487b7160e01b600052600060045260246000fd5b816135d1826133cf565b5001546001600160a01b038781169116146135ee57018390613439565b5090508238613441565b60018060a01b0316600052601560205261361b600160406000200191825461164d565b9055565b9190604051928160208501526020845261363884611437565b6001600160401b03601c541693604051946136528661147b565b60008652602086019582875260018060a01b038416604082015281600052601d602052604060002096815160038110156138125760ff80198a54169116178855519687516001600160401b038111611452576136b581610b66600185015461194b565b6020601f82116001146137875761376e9492826000805160206143a0833981519152979593600293611a569c9d60009261377c575b50508160011b916000199060031b1c19161760018201555b0190604060018060a01b03910151166001600160601b0360a01b8254161790556001600160401b0361373382611b40565b166001600160401b0319601c541617601c556040519283926000845260018060a01b038716602085015260806040850152608084019061338f565b9060608301520390a16135f8565b0151905038806136ea565b6001830160005260206000209960005b601f19841681106137fa575092600183611a569b9c60029461376e99976000805160206143a08339815191529b9997601f198116106137e1575b505050811b016001820155613702565b015160001960f88460031b161c191690553880806137d1565b828201518c556001909b019a60209283019201613797565b634e487b7160e01b600052602160045260246000fd5b60ff60125460181c1661383757565b60405163248c8efb60e11b8152600490fd5b60125460ff8160101c166138a6573415610d145733600090815260156020526040902060010154156138945760081c60ff161561388a57611a56343361361f565b611a56343361340a565b60405163528fc16560e01b8152600490fd5b610d526138b1613312565b60405163015538b160e01b815260206004820152918291602483019061338f565b60125460ff8160101c166138a657811561394457336000908152601560205260409020600101548015611358578210156139335760081c60ff161561391b57611a5690336139a9565b80613929611a569233613956565b61073f8133611f35565b60405162d11df360e61b8152600490fd5b60405163c79cad7b60e01b8152600490fd5b6001600160a01b031660008181526015602052604090206001015490918082106139975761398391611edf565b906000526015602052600160406000200155565b60405163ac69360360e01b8152600490fd5b919060405192816020850152602084526139c284611437565b6001600160401b03601c541693604051946139dc8661147b565b60018652602086019582875260018060a01b038416604082015281600052601d602052604060002096815160038110156138125760ff80198a54169116178855519687516001600160401b03811161145257613a3f81610b66600185015461194b565b6020601f8211600114613b1157613af89492826000805160206143a0833981519152979593600293611a569c9d600092613b06575b50508160011b916000199060031b1c19161760018201555b0190604060018060a01b03910151166001600160601b0360a01b8254161790556001600160401b03613abd82611b40565b166001600160401b0319601c541617601c556040519283926001845260018060a01b038716602085015260806040850152608084019061338f565b9060608301520390a1613956565b015190503880613a74565b6001830160005260206000209960005b601f1984168110613b84575092600183611a569b9c600294613af899976000805160206143a08339815191529b9997601f19811610613b6b575b505050811b016001820155613a8c565b015160001960f88460031b161c19169055388080613b5b565b828201518c556001909b019a60209283019201613b21565b60125460ff8160081c169081613c91575b506138a65733600090815260156020526040902060010154801561135857613bd433613c9f565b5060009033825260246020528160408120613bef815461194b565b80613c54575b50505060ff60125460081c1615613c1157611a569150336139a9565b6040611a56923381526003602052205480613c32575b506139298133613956565b80613c42613c4e92600254611edf565b60025561073f336142b8565b38613c27565b82601f8211600114613c6c575050555b813880613bf5565b9091808252613c8a601f60208420940160051c8401600185016117c2565b5555613c64565b60ff915060101c1638613bad565b6000818152602660205260408120549091908015613d845760001990808201818111613d705760255490838201918211613d5c57808203613d28575b5050506025548015613d1457810190613cf382611826565b909182549160031b1b19169055602555815260266020526040812055600190565b634e487b7160e01b84526031600452602484fd5b613d46613d3761189693611826565b90549060031b1c928392611826565b9055845260266020526040842055388080613cdb565b634e487b7160e01b86526011600452602486fd5b634e487b7160e01b85526011600452602485fd5b505090565b80518210156118105760209160051b010190565b9190918215612468576040908151906020938483018381106001600160401b038211176114525784526000928390526002811015613f345780613e955750600b54613de791611edf565b8152602283528181208251808286829454938481520190855286852092855b88828210613e7f57505050613e1d92500382611496565b928351948515613e7757858110613e775785900493825b868110613e445750505050505050565b6001906001600160a01b03613e598285613d89565b5116855260218452858520613e6f88825461164d565b905501613e34565b505050505050565b8554845260019586019587955093019201613e06565b846001859214600014613ee557606491519063015538b160e01b82526004820152601f60248201527f72657761726473206e6f7420646566696e656420666f722062617463686573006044820152fd5b608491519063015538b160e01b82526004820152602360248201527f72657761726473206e6f7420646566696e656420666f72206f626a656374206b6044820152621a5b9960ea1b6064820152fd5b634e487b7160e01b83526021600452602483fd5b91825191613f558361154d565b93604094613f6586519182611496565b848152601f19613f748661154d565b0194602095368784013760005b81811061405057505060009461ffff8060165416600192839182945b613ffa575b505050505060ff600e5460a01c169485810295818704149015171561165a576064613fce9504916140dd565b9015613fd8575050565b60078110156138125760ff602492519163282ef1c160e01b8352166004820152fd5b90919293988a858b1683811161404857600090815260188552908120546001600160a01b03168152601560205260409020849392918691859161403e91549061164d565b9b01169493613f9d565b505098613fa2565b6001600160a01b03806140638387613d89565b51166000526017885261ffff896000205416156140b957906140a760019261408b8388613d89565b51166001600160a01b0316600090815260156020526040902090565b546140b28286613d89565b5201613f81565b88906140c760249387613d89565b519151633b4f6e2b60e21b815291166004820152fd5b845192946000949084156141df57825185148015906141d4575b6141c7579392919085945b84861061412557505050505050101561411d57600090600690565b600190600090565b90919293949561413f6141388884613d89565b51846141ec565b5090600491828110156141b2576141a0576001600160a01b03806141638b89613d89565b5116911603614190575061418460019161417d8988613d89565b519061164d565b96019493929190614102565b9897505050505050505060009190565b50505050505050505050600090600590565b602183634e487b7160e01b6000525260246000fd5b5050505050905090600190565b5083518514156140f7565b5050505050905090600290565b815191906041830361421d5761421692506020820151906060604084015193015160001a90614228565b9192909190565b505060009160029190565b91907f7fffffffffffffffffffffffffffffff5d576e7357a4501ddfe92f46681b20a084116142ac57926020929160ff608095604051948552168484015260408301526060820152600092839182805260015afa156142a05780516001600160a01b0381161561429757918190565b50809160019190565b604051903d90823e3d90fd5b50505060009160039190565b60049081549160005b8381106142ce5750505050565b6142d7816117d9565b90546003916001600160a01b039190831b1c8116858216146142fd5750506001016142c1565b92935093906000199182810190811161438a579061432e8461432161434d946117d9565b905490891b1c16916117d9565b90919082549060031b9160018060a01b03809116831b921b1916179055565b82548015614375570192614360846117d9565b81939154921b1b1916905555388080806119b2565b603184634e487b7160e01b6000525260246000fd5b601185634e487b7160e01b6000525260246000fdfe1c593a2b803c3f9038e8b6743ba79fbc4276d2770979a01d2768ed12bea3243f691bb03ffc16c56fc96b82fd16cd1b3715f0bc3cdc6407005f49bb6205860095a26469706673582212204480da3251702fca5a6b6138173a964a1ea33b719f579acc3e62a88b9d86ce6364736f6c63430008130033","linkReferences":{"src/lib/LibStaking.sol":{"LibStaking":[{"start":285,"length":20}]}}},"methodIdentifiers":{"addBootstrapNode(string)":"10fd4261","claim()":"4e71d92d","claimRewardForRelayer()":"ed7c4da1","confirmChange(uint64)":"350a14bf","confirmNextChange()":"c7ebdaef","distributeRewardToRelayers(uint256,uint256,uint8)":"4c860af6","join(bytes)":"6170b162","kill()":"41c0e1b5","leave()":"d66d9e19","preFund()":"0b7fbe60","preRelease(uint256)":"66783c9b","stake()":"3a4b66f1","submitBottomUpMsgBatch(((uint64,address[]),uint256,((((uint64,address[]),(uint8,bytes)),((uint64,address[]),(uint8,bytes)),uint256,uint64,bytes4,bytes,uint256),bool)[]),address[],bytes[])":"26811936","submitCheckpoint(((uint64,address[]),uint256,bytes32,uint64),address[],bytes[])":"b9ee2bb9","unstake(uint256)":"2e17de78","validateActiveQuorumSignatures(address[],bytes32,bytes[])":"cc2dc2b9"},"id":86}