{"abi":[{"type":"function","name":"addBootstrapNode","inputs":[{"name":"netAddress","type":"string","internalType":"string"}],"outputs":[],"stateMutability":"nonpayable"},{"type":"function","name":"claim","inputs":[],"outputs":[],"stateMutability":"nonpayable"},{"type":"function","name":"claimRewardForRelayer","inputs":[],"outputs":[],"stateMutability":"nonpayable"},{"type":"function","name":"confirmChange","inputs":[{"name":"_configurationNumber","type":"uint64","internalType":"uint64"}],"outputs":[],"stateMutability":"nonpayable"},{"type":"function","name":"confirmNextChange","inputs":[],"outputs":[],"stateMutability":"nonpayable"},{"type":"function","name":"distributeRewardToRelayers","inputs":[{"name":"height","type":"uint64","internalType":"uint64"},{"name":"reward","type":"uint256","internalType":"uint256"}],"outputs":[],"stateMutability":"payable"},{"type":"function","name":"join","inputs":[{"name":"publicKey","type":"bytes","internalType":"bytes"}],"outputs":[],"stateMutability":"payable"},{"type":"function","name":"kill","inputs":[],"outputs":[],"stateMutability":"nonpayable"},{"type":"function","name":"leave","inputs":[],"outputs":[],"stateMutability":"nonpayable"},{"type":"function","name":"preFund","inputs":[],"outputs":[],"stateMutability":"payable"},{"type":"function","name":"preRelease","inputs":[{"name":"amount","type":"uint256","internalType":"uint256"}],"outputs":[],"stateMutability":"nonpayable"},{"type":"function","name":"stake","inputs":[],"outputs":[],"stateMutability":"payable"},{"type":"function","name":"submitCheckpoint","inputs":[{"name":"checkpoint","type":"tuple","internalType":"struct BottomUpCheckpoint","components":[{"name":"subnetID","type":"tuple","internalType":"struct SubnetID","components":[{"name":"root","type":"uint64","internalType":"uint64"},{"name":"route","type":"address[]","internalType":"address[]"}]},{"name":"blockHeight","type":"uint64","internalType":"uint64"},{"name":"blockHash","type":"bytes32","internalType":"bytes32"},{"name":"nextConfigurationNumber","type":"uint64","internalType":"uint64"},{"name":"crossMessagesHash","type":"bytes32","internalType":"bytes32"}]},{"name":"messages","type":"tuple[]","internalType":"struct CrossMsg[]","components":[{"name":"message","type":"tuple","internalType":"struct StorableMsg","components":[{"name":"from","type":"tuple","internalType":"struct IPCAddress","components":[{"name":"subnetId","type":"tuple","internalType":"struct SubnetID","components":[{"name":"root","type":"uint64","internalType":"uint64"},{"name":"route","type":"address[]","internalType":"address[]"}]},{"name":"rawAddress","type":"tuple","internalType":"struct FvmAddress","components":[{"name":"addrType","type":"uint8","internalType":"uint8"},{"name":"payload","type":"bytes","internalType":"bytes"}]}]},{"name":"to","type":"tuple","internalType":"struct IPCAddress","components":[{"name":"subnetId","type":"tuple","internalType":"struct SubnetID","components":[{"name":"root","type":"uint64","internalType":"uint64"},{"name":"route","type":"address[]","internalType":"address[]"}]},{"name":"rawAddress","type":"tuple","internalType":"struct FvmAddress","components":[{"name":"addrType","type":"uint8","internalType":"uint8"},{"name":"payload","type":"bytes","internalType":"bytes"}]}]},{"name":"value","type":"uint256","internalType":"uint256"},{"name":"nonce","type":"uint64","internalType":"uint64"},{"name":"method","type":"bytes4","internalType":"bytes4"},{"name":"params","type":"bytes","internalType":"bytes"},{"name":"fee","type":"uint256","internalType":"uint256"}]},{"name":"wrapped","type":"bool","internalType":"bool"}]},{"name":"signatories","type":"address[]","internalType":"address[]"},{"name":"signatures","type":"bytes[]","internalType":"bytes[]"}],"outputs":[],"stateMutability":"nonpayable"},{"type":"function","name":"unstake","inputs":[{"name":"amount","type":"uint256","internalType":"uint256"}],"outputs":[],"stateMutability":"nonpayable"},{"type":"function","name":"validateActiveQuorumSignatures","inputs":[{"name":"signatories","type":"address[]","internalType":"address[]"},{"name":"hash","type":"bytes32","internalType":"bytes32"},{"name":"signatures","type":"bytes[]","internalType":"bytes[]"}],"outputs":[],"stateMutability":"view"},{"type":"event","name":"ActiveValidatorCollateralUpdated","inputs":[{"name":"validator","type":"address","indexed":false,"internalType":"address"},{"name":"newCollateral","type":"uint256","indexed":false,"internalType":"uint256"}],"anonymous":false},{"type":"event","name":"ActiveValidatorLeft","inputs":[{"name":"validator","type":"address","indexed":false,"internalType":"address"}],"anonymous":false},{"type":"event","name":"ActiveValidatorReplaced","inputs":[{"name":"oldValidator","type":"address","indexed":false,"internalType":"address"},{"name":"newValidator","type":"address","indexed":false,"internalType":"address"}],"anonymous":false},{"type":"event","name":"BottomUpCheckpointExecuted","inputs":[{"name":"epoch","type":"uint64","indexed":false,"internalType":"uint64"},{"name":"submitter","type":"address","indexed":false,"internalType":"address"}],"anonymous":false},{"type":"event","name":"BottomUpCheckpointSubmitted","inputs":[{"name":"checkpoint","type":"tuple","indexed":false,"internalType":"struct BottomUpCheckpoint","components":[{"name":"subnetID","type":"tuple","internalType":"struct SubnetID","components":[{"name":"root","type":"uint64","internalType":"uint64"},{"name":"route","type":"address[]","internalType":"address[]"}]},{"name":"blockHeight","type":"uint64","internalType":"uint64"},{"name":"blockHash","type":"bytes32","internalType":"bytes32"},{"name":"nextConfigurationNumber","type":"uint64","internalType":"uint64"},{"name":"crossMessagesHash","type":"bytes32","internalType":"bytes32"}]},{"name":"submitter","type":"address","indexed":false,"internalType":"address"}],"anonymous":false},{"type":"event","name":"CollateralClaimed","inputs":[{"name":"validator","type":"address","indexed":false,"internalType":"address"},{"name":"amount","type":"uint256","indexed":false,"internalType":"uint256"}],"anonymous":false},{"type":"event","name":"ConfigurationNumberConfirmed","inputs":[{"name":"number","type":"uint64","indexed":false,"internalType":"uint64"}],"anonymous":false},{"type":"event","name":"NewActiveValidator","inputs":[{"name":"validator","type":"address","indexed":false,"internalType":"address"},{"name":"collateral","type":"uint256","indexed":false,"internalType":"uint256"}],"anonymous":false},{"type":"event","name":"NewCollateralRelease","inputs":[{"name":"validator","type":"address","indexed":false,"internalType":"address"},{"name":"amount","type":"uint256","indexed":false,"internalType":"uint256"},{"name":"releaseBlock","type":"uint256","indexed":false,"internalType":"uint256"}],"anonymous":false},{"type":"event","name":"NewStakingChangeRequest","inputs":[{"name":"op","type":"uint8","indexed":false,"internalType":"enum StakingOperation"},{"name":"validator","type":"address","indexed":false,"internalType":"address"},{"name":"payload","type":"bytes","indexed":false,"internalType":"bytes"},{"name":"configurationNumber","type":"uint64","indexed":false,"internalType":"uint64"}],"anonymous":false},{"type":"event","name":"NewWaitingValidator","inputs":[{"name":"validator","type":"address","indexed":false,"internalType":"address"},{"name":"collateral","type":"uint256","indexed":false,"internalType":"uint256"}],"anonymous":false},{"type":"event","name":"NextBottomUpCheckpointExecuted","inputs":[{"name":"epoch","type":"uint64","indexed":false,"internalType":"uint64"},{"name":"submitter","type":"address","indexed":false,"internalType":"address"}],"anonymous":false},{"type":"event","name":"SubnetBootstrapped","inputs":[{"name":"","type":"tuple[]","indexed":false,"internalType":"struct Validator[]","components":[{"name":"weight","type":"uint256","internalType":"uint256"},{"name":"addr","type":"address","internalType":"address"},{"name":"metadata","type":"bytes","internalType":"bytes"}]}],"anonymous":false},{"type":"event","name":"WaitingValidatorCollateralUpdated","inputs":[{"name":"validator","type":"address","indexed":false,"internalType":"address"},{"name":"newCollateral","type":"uint256","indexed":false,"internalType":"uint256"}],"anonymous":false},{"type":"event","name":"WaitingValidatorLeft","inputs":[{"name":"validator","type":"address","indexed":false,"internalType":"address"}],"anonymous":false},{"type":"error","name":"AddressInsufficientBalance","inputs":[{"name":"account","type":"address","internalType":"address"}]},{"type":"error","name":"AddressShouldBeValidator","inputs":[]},{"type":"error","name":"CannotConfirmFutureChanges","inputs":[]},{"type":"error","name":"CannotReleaseZero","inputs":[]},{"type":"error","name":"CollateralIsZero","inputs":[]},{"type":"error","name":"EmptyAddress","inputs":[]},{"type":"error","name":"FailedInnerCall","inputs":[]},{"type":"error","name":"InvalidCheckpointEpoch","inputs":[]},{"type":"error","name":"InvalidCheckpointMessagesHash","inputs":[]},{"type":"error","name":"InvalidPublicKeyLength","inputs":[]},{"type":"error","name":"InvalidSignatureErr","inputs":[{"name":"","type":"uint8","internalType":"uint8"}]},{"type":"error","name":"MethodNotAllowed","inputs":[]},{"type":"error","name":"NoCollateralToWithdraw","inputs":[]},{"type":"error","name":"NotAllValidatorsHaveLeft","inputs":[]},{"type":"error","name":"NotEnoughBalance","inputs":[]},{"type":"error","name":"NotEnoughCollateral","inputs":[]},{"type":"error","name":"NotEnoughFunds","inputs":[]},{"type":"error","name":"NotGateway","inputs":[]},{"type":"error","name":"NotOwnerOfPublicKey","inputs":[]},{"type":"error","name":"NotStakedBefore","inputs":[]},{"type":"error","name":"NotValidator","inputs":[{"name":"","type":"address","internalType":"address"}]},{"type":"error","name":"PQDoesNotContainAddress","inputs":[]},{"type":"error","name":"PQEmpty","inputs":[]},{"type":"error","name":"ReentrancyError","inputs":[]},{"type":"error","name":"SubnetAlreadyBootstrapped","inputs":[]},{"type":"error","name":"SubnetAlreadyKilled","inputs":[]},{"type":"error","name":"WithdrawExceedingCollateral","inputs":[]}],"bytecode":{"object":"0x6080806040523461001657614245908161001c8239f35b600080fdfe608080604052600436101561001357600080fd5b600090813560e01c9081630b7fbe60146113955750806310fd42611461123f5780632e17de781461121a578063350a14bf146111fd5780633a4b66f1146111e157806341c0e1b5146111455780634e71d92d14610fb95780636170b162146109c057806366783c9b146108df578063a8284de3146102cd578063c7ebdaef14610285578063cc2dc2b914610208578063d66d9e19146101c5578063ed7c4da1146101115763f9002bb1146100c657600080fd5b604036600319011261010e576100da61151d565b6009546001600160a01b031633036100fc576100f99060243590611f1b565b80f35b60405163e7e601db60e01b8152600490fd5b80fd5b503461010e578060031936011261010e576000805160206141f083398151915260018154146101b35780600183925573__$4a8700ca5e162cb61a0c4650a4871f1ad5$__803b156101af5782602491604051928380926382985e0b60e01b82523360048301525af49081156101a457839161018d575b50505580f35b6101969061145c565b6101a1578138610187565b50fd5b6040513d85823e3d90fd5b5050fd5b6040516329f745a760e01b8152600490fd5b503461010e578060031936011261010e576000805160206141f083398151915260018154146101b3578060018392556101fc611ffc565b610204611e04565b5580f35b503461010e57606036600319011261010e576001600160401b0360043581811161028157366023820112156102815761024b9036906024816004013591016115a2565b6044359182116102815736602383011215610281576102776100f99236906024816004013591016115f8565b9060243590611c62565b8280fd5b503461010e578060031936011261010e576001600160401b036000198160175416019081116102b7576100f990612303565b634e487b7160e01b600052601160045260246000fd5b503461010e57608036600319011261010e576001600160401b036004351161010e5760a06004353603600319011261010e576024356001600160401b0381116108db5761031e903690600401611547565b91906044356001600160401b0381116102815761033f903690600401611547565b6064356001600160401b0381116108d75761035e903690600401611547565b9261036d602460043501611924565b926001600160401b03600554166001600160401b0360075416946001600160401b038061039a8885611950565b1691161415806108b7575b6108a5576040516020810190602082526103d6816103c88d60408301908d611acf565b03601f1981018352826114a5565b519020608460043501350361089357604051602081019060208252610407816103c860408201600435600401611c02565b519020946001600160401b038061042c610425602460043501611924565b9385611950565b1691161460001461075257509161044d6104559261045b96959436916115a2565b9336916115f8565b91611c62565b6001600160401b03610471602460043501611924565b168252816020526040822092600435600401359360421960043536030185121561074e576001600160401b036104ac60048781350101611924565b825467ffffffffffffffff1916911617815560043585013681900360221901602490910135121561074e576001600160401b0360048035870160248101350101351161074e57602460048035870182810135019081013560051b360391011361074e57600160401b60048035870160248101350101351161073a5760018101805460048035880160248101350101359182905590811161070f575b50600181018452602084209460246004358201818101350101855b600480358401602481013501013581106106e257505050839450600281016001600160401b03610596602460043501611924565b166001600160401b03198254161790556044600435013560038201556001600160401b036105c8606460043501611924565b166001600160401b03196004830154161760048201556005608460043501359101556001600160401b03610600602460043501611924565b168352601d602052610616604084203390612d75565b506001600160401b0361062d602460043501611924565b166001600160401b0319600554161760055560018060a01b036009541691823b156106dd5761069792849283604051809681958294637a2b59cf60e11b84526040600485015261068560448501600435600401611c02565b84810360031901602486015291611acf565b03925af180156106d2576106be575b50506100f96106b9606460043501611924565b612303565b6106c79061145c565b61010e5780386106a6565b6040513d84823e3d90fd5b505050fd5b8135916001600160a01b038316830361070b5760049160206001920193818b0155019050610562565b8780fd5b6001820185526020852061073491810190600480358901602481013501013501611742565b38610547565b634e487b7160e01b84526041600452602484fd5b8380fd5b9550505050929350506001600160401b03610771602460043501611924565b161461077c575b5080f35b6001600160401b03610792602460043501611924565b168252816020526040822060405160208101916020835260a06040830152816101208101916001600160401b0381541660e083015260019060018101916040610100850152825480955261014084019289526020892090895b8681106108725750505060028101546001600160401b0390811660608501526003820154608085015260048201541660a08401526005015460c083015203601f198101835261083b9150826114a5565b519020146108465780f35b6001600160401b0361085c602460043501611924565b168152601d602052610778604082203390612d75565b82546001600160a01b031685528795506020909401939181019181016107eb565b604051632d7f750360e21b8152600490fd5b60405163fae4eadb60e01b8152600490fd5b50806001600160401b036108cf602460043501611924565b1614156103a5565b8480fd5b5080fd5b503461010e57602036600319011261010e576004356000805160206141f083398151915260018154146101b3576001815581156109ae5760ff600d5460081c1661099c5733835260036020528160408420541061098a576102048392338452600360205260408420610952828254611917565b905561096081600254611917565b600255338452600360205260408420541561097c575b33612b85565b61098533612a9e565b610976565b60405163569d45cf60e11b8152600490fd5b604051631b39f2f360e11b8152600490fd5b604051631036b5ad60e31b8152600490fd5b50602036600319011261010e576001600160401b036004351161010e5736602360043501121561010e576001600160401b03600435600401351161010e573660246004356004013560043501011161010e5760016000805160206141f083398151915254146101b35760016000805160206141f083398151915255610a43611ffc565b600d5460ff8160081c1680918192610fab575b50610f99573415610f8757604160043560040135148015610f7557610a7a90612a81565b600435600401356001116108db57610aa23660001960043560040135016025600435016114e1565b80516020909101206001600160a01b03163303610f6357610d4257336000908152601060205260409020600201610ae960043560040135610ae38354611708565b83611759565b81601f6004356004013511600114610cbf57610b2990839060043560040135610caf575b5060043560040135908160011b916000199060031b1c19161790565b90555b610b36343361265a565b600f54600654811015610b5a575b505b806000805160206141f08339815191525580f35b61ffff601154166001600160401b0360075460401c1611610b44579061010061ff0019600d541617600d556040519160208301602084526001548091526040840160408260051b86010191600185527fb10e2d527612073b26eecdfd717e6a320cf44b4afac2b0732d9fcbe2b7fa0cf69185905b828210610c6457505050508383947f4914d88063275a25a13b2df37125e216745d812f94c56504be4bd78cf60c9593920390a160018060a01b036009541690610c1a60025480926116fb565b91803b156106dd57602484926040519485938492637903ab2760e11b845260048401525af180156106d257610c50575b50610b44565b610c599061145c565b61010e578038610c4a565b9091929360206003610ca1600193603f198c820301865260609089548152858060a01b03868b015416858201528160408201520160028901611881565b960192019201909291610bce565b6024915060043501013538610b0d565b8183526020832090835b600480350135601f19168110610d255750600480350135601f19811610610d00575b5050600160043560040135811b019055610b2c565b602460001960f86004356004013560031b161c19916004350101351690553880610ceb565b909160206001819260248660043501013581550193019101610cc9565b610d5836600435600401356024600435016114e1565b906001600160401b0360175416604051610d718161148a565b600281526020810193845233604082015281600052601860205260406000209381516003811015610f4d5760ff80198754169116178555518051906001600160401b038211610f3757610dd482610dcb6001890154611708565b60018901611759565b602090601f8311600114610eb457826002936000805160206141d0833981519152979893610e1993600092610ea9575b50508160011b916000199060031b1c19161790565b60018201555b0190604060018060a01b03910151166001600160601b0360a01b8254161790556001600160401b03610e5082611938565b166001600160401b0319601754161760175560405180916002825233602083015260806040830152610e916080830160043560040135602460043501611a45565b9060608301520390a1610ea43433612847565b610b46565b015190503880610e04565b906001870160005260206000209160005b601f1985168110610f1f5750926000805160206141d083398151915296979260019260029583601f19811610610f06575b505050811b016001820155610e1f565b015160001960f88460031b161c19169055388080610ef6565b91926020600181928685015181550194019201610ec5565b634e487b7160e01b600052604160045260246000fd5b634e487b7160e01b600052602160045260246000fd5b604051634be9251d60e11b8152600490fd5b6040516318dca5e960e21b8152600490fd5b604051635a78c58160e11b8152600490fd5b6040516341f8b8eb60e11b8152600490fd5b60ff915060101c1638610a56565b503461010e578060031936011261010e576001906000805160206141f0833981519152828154146101b357828155336000908152601a602052604090209283549061ffff9081831692831561113357829060101c16918391808795818a01915b6110ad575b5050508661108f937f197c586353eaed0a1c53e6e540445b94befab8f932c8115d112115ecbeeed514959363ffff000093899a54911693849260101b169063ffffffff19161717905515611096575b6110778133612b85565b60408051338152602081019290925290918291820190565b0390a15580f35b336000908152601a6020526040902085905561106d565b90919394838116968288101561112a57876000526020809185825260406000206040516110d98161146f565b8982549283835201549384910152431061111f578594938896889461110086958a956116fb565b9c60005252600082604082208281550155011696600019011694611019565b98505050949361101e565b9650949361101e565b6040516364b0557f60e01b8152600490fd5b503461010e578060031936011261010e5761115e611ffc565b61ffff6111748160145416826011541690612a6b565b166111cf57600d805463ff0000001916630100000017905560095481906001600160a01b0316803b156101a15781906004604051809481936341c0e1b560e01b83525af180156106d2576111c6575080f35b6100f99061145c565b604051636b62255160e11b8152600490fd5b508060031936011261010e576111f5611ffc565b6100f9611824565b503461010e57602036600319011261010e576100f96106b961151d565b503461010e57602036600319011261010e57611234611ffc565b6100f96004356117a0565b503461010e576020908160031936011261010e576001600160401b03916004358381116102815736602382011215610281576112859036906024816004013591016114e1565b923383526012825261ffff6040842054161561137d5783511561136b57338352601e82526040832091845191821161073a576112cb826112c58554611708565b85611759565b80601f83116001146113075750819084956112fb949592610ea95750508160011b916000199060031b1c19161790565b90555b61077833612d0e565b90601f198316958486528286209286905b8882106113535750508360019596971061133a575b505050811b0190556112fe565b015160001960f88460031b161c1916905538808061132d565b80600185968294968601518155019501930190611318565b604051637138356f60e01b8152600490fd5b604051633b4f6e2b60e21b8152336004820152602490fd5b9050816003193601126108db57341561144d575060ff600d5460081c1661099c5733815260036020526040812054156113f4575b3381526003602052604081206113e03482546116fb565b90556113ee346002546116fb565b60025580f35b600454600160401b811015611439576114168160016114349301600455611677565b81546001600160a01b0360039290921b91821b19163390911b179055565b6113c9565b634e487b7160e01b82526041600452602482fd5b631036b5ad60e31b8152600490fd5b6001600160401b038111610f3757604052565b604081019081106001600160401b03821117610f3757604052565b606081019081106001600160401b03821117610f3757604052565b90601f801991011681019081106001600160401b03821117610f3757604052565b6001600160401b038111610f3757601f01601f191660200190565b9291926114ed826114c6565b916114fb60405193846114a5565b829481845281830111611518578281602093846000960137010152565b600080fd5b600435906001600160401b038216820361151857565b35906001600160401b038216820361151857565b9181601f84011215611518578235916001600160401b038311611518576020808501948460051b01011161151857565b6001600160401b038111610f375760051b60200190565b35906001600160a01b038216820361151857565b92916115ad82611577565b916115bb60405193846114a5565b829481845260208094019160051b810192831161151857905b8282106115e15750505050565b8380916115ed8461158e565b8152019101906115d4565b9291909261160584611577565b9161161360405193846114a5565b829480845260208094019060051b8301928284116115185780915b84831061163d57505050505050565b82356001600160401b03811161151857820184601f8201121561151857869161166c86838580953591016114e1565b81520192019161162e565b6004548110156116ae5760046000527f8a35acfbc15ff81a39ae7d344fd709f28e8600b4aa8c65c6b64bfe7fe36bd19b0190600090565b634e487b7160e01b600052603260045260246000fd5b601f548110156116ae57601f6000527fa03837a25210ee280c2113ff4b77ca23440b19d4866cca721c801278fd08d8070190600090565b919082018092116102b757565b90600182811c92168015611738575b602083101461172257565b634e487b7160e01b600052602260045260246000fd5b91607f1691611717565b81811061174d575050565b60008155600101611742565b9190601f811161176857505050565b611794926000526020600020906020601f840160051c83019310611796575b601f0160051c0190611742565b565b9091508190611787565b600d5460ff8160101c16610f995781156118125733600090815260106020526040902060010154801561137d578210156118015760081c60ff16156117e957611794903361201d565b806117f76117949233612dfa565b6109768133612e96565b60405162d11df360e61b8152600490fd5b60405163c79cad7b60e01b8152600490fd5b600d5460ff8160101c16610f99573415610f8757336000908152601060205260409020600101541561186f5760081c60ff1615611865576117943433612847565b611794343361265a565b60405163528fc16560e01b8152600490fd5b80546000939261189082611708565b918282526020936001916001811690816000146118f857506001146118b7575b5050505050565b90939495506000929192528360002092846000945b8386106118e4575050505001019038808080806118b0565b8054858701830152940193859082016118cc565b60ff19168685015250505090151560051b0101915038808080806118b0565b919082039182116102b757565b356001600160401b03811681036115185790565b9060016001600160401b03809316019182116102b757565b9190916001600160401b03808094169116019182116102b757565b9035603e1982360301811215611518570190565b6001600160401b039190604082018361199783611533565b1683526020916020810135601e1982360301811215611518570192602084359401948411611518578360051b3603851361151857604060208201529083905260600192919060005b8281106119ed575050505090565b909192938280600192838060a01b03611a058961158e565b168152019501939291016119df565b9035601e19823603018112156115185701602081359101916001600160401b03821161151857813603831361151857565b908060209392818452848401376000828201840152601f01601f1916010190565b611a8f611a84611a76838061196b565b60408552604085019061197f565b91602081019061196b565b91602081830391015281359160ff831680930361151857611abc604091611acc9484526020810190611a14565b9190928160208201520191611a45565b90565b90918092808252602080920191808260051b86010194846000915b848310611afb575050505050505090565b90919293949596601f19828203018752611b15888461196b565b906040823560de198436030181121561151857830192818352611b38848061196b565b611b4e60e0918285870152610120860190611a66565b92611b5b8a87018761196b565b611b88611b76603f1996606093888a830301858b0152611a66565b91608093890135848901528801611533565b916001600160401b0360a09316838801528701359263ffffffff60e01b8416809403611518578b95611bc6611bd69460c096878b01528a018a611a14565b9290918985030190890152611a45565b940135610100840152013590811515809203611518578601529684019584019493926001019190611aea565b90608080611c21611c13858061196b565b60a0855260a085019061197f565b93611c2e60208201611533565b6001600160401b03809116602086015260408201356040860152611c5460608301611533565b166060850152013591015290565b9190825192611c7084611577565b604094611c8060405192836114a5565b808252611c8c81611577565b60209190601f1901368484013760005b818110611d7157505060009561ffff9081601154169060019384926001955b611d1b575b50505050505060ff60095460a01c16948581029581870414901517156102b7576064611ced950491612bff565b9015611cf65750565b6007811015610f4d5760405163282ef1c160e01b815260ff9091166004820152602490fd5b909192939499858b16828111611d6a57600090815260138452848120546001600160a01b03168152601060205260409020859493929187918691611d609154906116fb565b9c01169594611cbb565b5099611cc0565b9196916001600160a01b0380611d878388611f07565b51166000526012895261ffff84600020541615611de05790611dcb600192611daf8389611f07565b51166001600160a01b0316600090815260106020526040902090565b54611dd68287611f07565b5201969196611c9c565b8390611dee60249388611f07565b519151633b4f6e2b60e21b815291166004820152fd5b600d5460ff8160081c169081611ef9575b50610f995733600090815260106020526040902060010154801561137d57611e3c33612fc2565b50600090338252601e6020528160408120611e578154611708565b80611ebc575b50505060ff600d5460081c1615611e795761179491503361201d565b6040611794923381526003602052205480611e9a575b506117f78133612dfa565b80611eaa611eb692600254611917565b60025561097633612a9e565b38611e8f565b82601f8211600114611ed4575050555b813880611e5d565b9091808252611ef2601f60208420940160051c840160018501611742565b5555611ecc565b60ff915060101c1638611e15565b80518210156116ae5760209160051b010190565b8115611ff8576001600160401b0390818060075416911603908082116102b757600091168152602090601d60205260409060408120926040518085602082975493848152019085526020852092855b85828210611fe257505050611f81925003856114a5565b8351948515611fda57858110611fda5785900493825b868110611fa75750505050505050565b6001906001600160a01b03611fbc8285611f07565b51168552601c8452858520611fd28882546116fb565b905501611f97565b505050505050565b855484526001958601958a955093019201611f6a565b5050565b60ff600d5460181c1661200b57565b60405163248c8efb60e11b8152600490fd5b919060405192816020850152602084526120368461146f565b6001600160401b036017541660405161204e8161148a565b600181526020810186815260018060a01b038416604083015282600052601860205260406000209082516003811015610f4d5760ff80198454169116178255518051906001600160401b038211610f37576120b9826120b06001860154611708565b60018601611759565b602090601f83116001146121b75791806120ed9260029594600092610ea95750508160011b916000199060031b1c19161790565b60018201555b0190604060018060a01b03910151166001600160601b0360a01b8254161790556001600160401b0361212482611938565b166001600160401b03196017541617601755604051906001825260018060a01b03831660208301526080604083015285519081608084015260005b8281106121a15750611794959650828260a09260008484966000805160206141d0833981519152980101526060830152601f80199101168101030190a1612dfa565b80602080928a01015160a082870101520161215f565b906001840160005260206000209160005b601f1985168110612212575091839160019360029695601f198116106121f9575b505050811b0160018201556120f3565b015160001960f88460031b161c191690553880806121e9565b919260206001819286850151815501940192016121c8565b90808214611ff85761223c8154611708565b906001600160401b038211610f3757612259826112c58554611708565b600090601f83116001146122985761228992916000918361228d5750508160011b916000199060031b1c19161790565b9055565b015490503880610e04565b815260208082208483528183209291601f1985169083905b8282106122ea5750509084600195949392106122d1575b505050811b019055565b015460001960f88460031b161c191690553880806122c7565b84958192958501548155600180910196019401906122b0565b6017546001600160401b038281169290808316841061232e5760405163040aaa0560e11b8152600490fd5b808360401c1684106126195780604093841c165b8482821611156123a95750509160209161237c7f246f00b61ce672242f33bb680a47147cd54d3dfd04dbb76956ba42f88087bf6394611938565b67ffffffffffffffff60401b60175491831b169067ffffffffffffffff60401b19161760175551908152a1565b6123c6816001600160401b03166000526018602052604060002090565b60028181015482546001600160a01b03949293918516919060ff1660038110156126045786958186036124585750506001600160a01b03909116600090815260106020526040902061241d9160010190840161222a565b61243a816001600160401b03166000526018602052604060002090565b9160009081845560019361244f858201612e4d565b01550116612342565b9161247e9495965060019391939485916124778c518094819301611881565b03826114a5565b808051602092839181010312611518578101519385036125ba576124a28483612e96565b8360195443906124b1916116fb565b918b516124bd8161146f565b8381528181018381526001600160a01b0386166000908152601a6020526040902090988e919283549161ffff9b8c94848680961695869160101c169061250291612a6b565b60009e8f9116905282870188528d20925183555191015561252290612a58565b1661ffff198254161790558b519384528301528982015260607f083b080788e20bd0930c2bca2ae4fbc51a59ced08c1b5992271f8cb439498a6391a16009541690813b15610281578291602483928a5195869384926345f5448560e01b845260048401525af19081156125af575090849392916125a0575b5061241d565b6125a99061145c565b3861259a565b8751903d90823e3d90fd5b50829350916125c99192612f19565b6009541690813b15611518578651916316989f6f60e21b83528260048160009485945af19081156125af575090849392916125a0575061241d565b60246000634e487b7160e01b81526021600452fd5b50505050565b6001548110156116ae576003906001600052027fb10e2d527612073b26eecdfd717e6a320cf44b4afac2b0732d9fcbe2b7fa0cf60190600090565b9061266f906126698184612f63565b82612f19565b60ff600d5460081c16156126805750565b600060018054918160005b848110612816575b5050156126a0575b505050565b6001600160a01b038316600090815260106020526040902080546126f5949091600201604051926126d08461148a565b83526020946126fc602085019260018060a01b03809516845260405198898092611881565b03886114a5565b60408401968752600160401b811015610f3757808561271d9201865561261f565b929092612800576002935183558483019151166001600160601b0360a01b825416179055019251918251916001600160401b038311610f375761276a836127648754611708565b87611759565b602091601f841160011461279c575050819061228993600092610ea95750508160011b916000199060031b1c19161790565b91909383601f198116876000526020600020946000905b888383106127e657505050106127cd57505050811b019055565b015160001960f88460031b161c191690553880806122c7565b8587015188559096019594850194879350908101906127b3565b634e487b7160e01b600052600060045260246000fd5b816128208261261f565b5001546001600160a01b0387811691161461283d5701829061268b565b5090508138612693565b91906040928351602083818301528082526128618261146f565b6001600160401b0380601754169187519761287b8961148a565b600092838a52828a0199868b528281019060018060a01b0390818a169c8d84528888526018875285882091516003811015612a445760ff801984541691161782556001808301915190815191878311612a30576128e2836128dc8654611708565b86611759565b8a8a92601f85116001146129bd575092806002959361291d9360809c9b9a99989692610ea95750508160011b916000199060031b1c19161790565b90555b019151166001600160601b0360a01b82541617905561293e86611938565b166001600160401b03196017541617601755805199848b52838b01528901528351938460808a0152825b8581106129a9575050508683819360a093846000805160206141d0833981519152976117949b9c0101526060830152601f80199101168101030190a1612f63565b8181018301518a820160a001528201612968565b858d528b8d2093929150601f198516908d905b8d838310612a195750505092600192859260809c9b9a9998966002989610612a00575b505050811b019055612920565b015160001960f88460031b161c191690553880806129f3565b8186978293949787015181550196019401906129d0565b634e487b7160e01b8b52604160045260248bfd5b634e487b7160e01b89526021600452602489fd5b90600161ffff809316019182116102b757565b91909161ffff808094169116019182116102b757565b15612a8857565b634e487b7160e01b600052600160045260246000fd5b6004906004549160005b838110612ab55750505050565b612abe81611677565b90546003916001600160a01b039190831b1c811685821614612ae4575050600101612aa8565b929350939060001991828101908111612b705790612b1584612b08612b3394611677565b905490891b1c1691611677565b90919060018060a01b038084549260031b9316831b921b1916179055565b82548015612b5b570192612b4684611677565b81939154921b1b191690555538808080612619565b603184634e487b7160e01b6000525260246000fd5b601185634e487b7160e01b6000525260246000fd5b814710612be7576000918291829182916001600160a01b03165af13d15612be2573d612bb0816114c6565b90612bbe60405192836114a5565b8152600060203d92013e5b15612bd057565b604051630a12f52160e11b8152600490fd5b612bc9565b60405163cd78605960e01b8152306004820152602490fd5b84519294600094908415612d015782518514801590612cf6575b612ce9579392919085945b848610612c47575050505050501015612c3f57600090600690565b600190600090565b909192939495612c61612c5a8884611f07565b5184612f86565b509060049182811015612cd457612cc2576001600160a01b0380612c858b89611f07565b5116911603612cb25750612ca6600191612c9f8988611f07565b51906116fb565b96019493929190612c24565b9897505050505050505060009190565b50505050505050505050600090600590565b602183634e487b7160e01b6000525260246000fd5b5050505050905090600190565b508351851415612c19565b5050505050905090600290565b6000818152602080526040812054612d7057601f54600160401b811015611439579082612d5d612d4684600160409601601f556116c4565b819391549060031b91821b91600019901b19161790565b9055601f54928152602080522055600190565b905090565b91906001830160009082825280602052604082205415600014612df457845494600160401b861015612de05760018601808255861015612dcc57836040949596828552602085200155549382526020522055600190565b634e487b7160e01b83526032600452602483fd5b634e487b7160e01b83526041600452602483fd5b50925050565b6001600160a01b03166000818152601060205260409020600101549091808210612e3b57612e2791611917565b906000526010602052600160406000200155565b60405163ac69360360e01b8152600490fd5b612e578154611708565b9081612e61575050565b81601f60009311600114612e73575055565b908083918252612e92601f60208420940160051c840160018501611742565b5555565b90612efa612f029260018060a01b0381169060008281526010602052612ec0856040832054611917565b9281526010602052604081206001810184815481159081612f10575b5015612f0757509082600292612ef59483555501612e4d565b6130a9565b600f54611917565b600f55565b925050556130a9565b90501538612edc565b9061179491612f5b60018060a01b03821692836000526010602052612f43816040600020546116fb565b93600052601060205283604060002055600f546116fb565b600f55613427565b60018060a01b0316600052601060205261228960016040600020019182546116fb565b8151919060418303612fb757612fb092506020820151906060604084015193015160001a90613747565b9192909190565b505060009160029190565b6000818152602080805260408220549192909180156130a3576000199080820181811161308f57601f549083820191821161307b57808203613049575b505050601f54801561303557810190613017826116c4565b909182549160031b1b19169055601f55825280526040812055600190565b634e487b7160e01b85526031600452602485fd5b613067613058612d46936116c4565b90549060031b1c9283926116c4565b905585528380526040852055388080612fff565b634e487b7160e01b87526011600452602487fd5b634e487b7160e01b86526011600452602486fd5b50505090565b9160018060a01b0392838116926000918483526020946015865261ffff906040948286822054166132e65781815260128852828682205416156132d5578415613230576130f584613e91565b918152601080895286822054925b600180868316111561321f5781617fff911c169081845260138b528b89852054168452828b52848985205411156131435761313e9082613f4f565b613103565b5050505050919395509193505b601454161561269b57613161613a96565b9061316a613a3a565b9092106131b457505091516001600160a01b03909216825260208201527f143db27bc2036653dc6f962ff9d0b803163d4af50c256ca9e6927b3d6dcd01979080604081015b0390a1565b915091506131af7ffaeb8de771b867cf357f6b459a7002b62ec45d544a8078a3ecd91200cc826d75936131e5613c9d565b6131ed613ae0565b6131f684613c2b565b6131ff83613de8565b516001600160a01b03928316815292909116602083015281906040820190565b505050505091939550919350613150565b5091613263919597507f4a4c5d1a281180eea1e99d8177fa4798b9f7e019d5c57e7d8d73c6a22199aa5b94969350613912565b8451908152a1601454166132745750565b6131af7f2e8038f5812f763c6ef0c5427cb5a05ce6d7064af2ba7d1d270bc02660b019fd916132a1613a3a565b9290916132ac613ae0565b6132b583613c2b565b516001600160a01b03909216825260208201929092529081906040820190565b8551632a55ca5360e01b8152600490fd5b909395968698939598156133ee579261fffe92949361330487613e5a565b948352601091601082528a842054958097600196879260011b168160145416925b61337a575b50509a516001600160a01b039098168852505050506020840194909452509293507fda148fac2e1063174be7bc0895576bdaba90fd14e575463fa26a967cb895cadd9250905080604081016131af565b8181168381116133e8578e90808511156133cc5750508061339d6133a392612a58565b90614123565b9990995b8910156133c7576133b8908a613eb6565b6133c1896140ba565b87613325565b61332a565b885260168652872054841687528585528d8720549099906133a7565b5061332a565b955050505090936134207f3168ba660eed6ef1dc2258b2247cc05fd0f2f350d39e6ad2e2ebc76a8000b40b94956137eb565b51908152a1565b919060018060a01b03928381169360008581526020956012875261ffff9160409783898320541661362a5783600e54168460115416106135f6578661346a613a96565b9190911061359a5750828252601581528389832054166134b85750505050506131af7f19fe3ca603e87854a0747cc10abf06bac64d61bac73d6d15f2fd3ca448f1526493946132b583613de8565b6134c786959994989796613e5a565b9282526010906010815284832054935b6001808b831611156135645781617fff911c1690818552601683528b8786205416855283835285878620541015613517576135129082613eb6565b6134d7565b505093516001600160a01b0390951685525050505060208101919091529092507fda148fac2e1063174be7bc0895576bdaba90fd14e575463fa26a967cb895cadd915080604081016131af565b5050505050506131af91929395507fda148fac2e1063174be7bc0895576bdaba90fd14e575463fa26a967cb895cadd94506132b5565b9596506131af9450906015899493927ffaeb8de771b867cf357f6b459a7002b62ec45d544a8078a3ecd91200cc826d75999a936135d5613c9d565b8352522054166135e8576131f684613c2b565b6135f1846137eb565b6131ed565b50505050506131af7f2e8038f5812f763c6ef0c5427cb5a05ce6d7064af2ba7d1d270bc02660b019fd93946132b583613c2b565b61363b869598979699949399613e91565b9882526010906010815284832054986136538b6140ba565b8560115416905b86811682811161370f57828110156136f257508061367a61368092612a58565b9061417d565b9c909c5b8c11156136a357613695908d613f4f565b61369e8c6140ba565b61365a565b505094516001600160a01b0390961686525050505060208201929092529193507f143db27bc2036653dc6f962ff9d0b803163d4af50c256ca9e6927b3d6dcd01979250819050604081016131af565b869d919d5260138452828887205416865284845287862054613684565b50505050505050506131af91929395507f143db27bc2036653dc6f962ff9d0b803163d4af50c256ca9e6927b3d6dcd019794506132b5565b91907f7fffffffffffffffffffffffffffffff5d576e7357a4501ddfe92f46681b20a084116137cb57926020929160ff608095604051948552168484015260408301526060820152600092839182805260015afa156137bf5780516001600160a01b038116156137b657918190565b50809160019190565b604051903d90823e3d90fd5b50505060009160039190565b61ffff90811660001901919082116102b757565b6137f490613e5a565b61ffff8060145416906138078284613eb6565b80613811836137d7565b1661ffff19601454161760145561382782613fde565b80831680921461269b57919061fffe90600081815260169160206016815260018060a01b0360409481868620541685526010936010845261386b878720548a614062565b85526016835281868620541685526010835285852054978099600198899260011b168160145416925b6138a7575b505050505050505050505050565b81811683811161390c57838110156138f057508061339d6138c792612a58565b9b909b5b8b10156138eb576138dc908c613eb6565b6138e58b6140ba565b89613894565b613899565b889c919c528386528489892054168852868652888820546138cb565b50613899565b61391b90613e91565b9061ffff908160115416916139308385613f4f565b8061393a846137d7565b1661ffff19601154161760115561395083614020565b808416809314613a34576000928084526013936020916013835260018060a01b0392604093808585205416845260109260108352613991868620548b6140d1565b84526013825280858520541684526010825284842054976139b18a6140ba565b8760115416905b888116828111613a255782811015613a0957508061367a6139d892612a58565b9b909b5b8b11156139fb576139ed908c613f4f565b6139f68b6140ba565b6139b8565b505050505050505050915050565b879c919c528285528388882054168752858552878720546139dc565b50505050505050505050915050565b50915050565b61ffff6014541615613a84577f4c4dc693d7db52f85fe052106f4b4b920e78e8ef37dee82878a60ab8585faf49546001600160a01b03166000818152601060205260409020549091565b6040516340d9b01160e01b8152600490fd5b61ffff6011541615613a84577f4155c2f711f2cdd34f8262ab8fb9b7020a700fe7b6948222152f7670d1fdf34d546001600160a01b03166000818152601060205260409020549091565b61ffff80601454168015613a84576001613afc82821115612a81565b6000818152601660208181526040808420805487865282862080546001600160a01b0392831680895260158752858920805461ffff199081168d17909155918416808a52868a20805484168c17905588885283546001600160a01b031990811690921790935589895284541690911790925593969194939291613b929189613b83836137d7565b16906014541617601455613fde565b84835260168152818484205416835260109160108252848420549686809960028160145416925b613bcb57505050505050505050505050565b81811683811161390c5783811015613c0f57508061339d613beb92612a58565b9b909b5b8b10156138eb57613c00908c613eb6565b613c098b6140ba565b89613bb9565b889c919c52838652848989205416885286865288882054613bef565b61179490604061ffff613c418160115416612a58565b9260018060a01b031660009181835260126020528383209085169061ffff199082828254161790558184526013602052848420836001600160601b0360a01b8254161790556011541617601155815260106020522054906140d1565b61ffff80601154168015613a84576001613cb982821115612a81565b6000818152601360208181526040808420805487865282862080546001600160a01b0392831680895260128752858920805461ffff199081168d17909155918416808a52868a20805484168c17905588885283546001600160a01b031990811690921790935589895284541690911790925593969194939291613d4f9189613d40836137d7565b16906011541617601155614020565b84835260138152818484205416835260109160108252848420549686809960028160115416925b613d8857505050505050505050505050565b81811683811161390c5783811015613dcc57508061367a613da892612a58565b9b909b5b8b11156138eb57613dbd908c613f4f565b613dc68b6140ba565b89613d76565b889c919c52838652848989205416885286865288882054613dac565b61179490604061ffff613dfe8160145416612a58565b9260018060a01b031660009181835260156020528383209085169061ffff199082828254161790558184526016602052848420836001600160601b0360a01b825416179055601454161760145581526010602052205490614062565b6001600160a01b031660009081526015602052604090205461ffff16908115613e7f57565b60405163f2755e3760e01b8152600490fd5b6001600160a01b031660009081526012602052604090205461ffff16908115613e7f57565b613edb61ffff808060145416931693613ed184861115612a81565b1691821115612a81565b6000828152601660208181526040808420805486865282862080546001600160a01b0392831680895260158752858920805461ffff19908116909b1790559216808852938720805490981689179097559390925284546001600160a01b031990811690931790945593909152825416179055565b613f6a61ffff808060115416931693613ed184861115612a81565b6000828152601360208181526040808420805486865282862080546001600160a01b0392831680895260128752858920805461ffff19908116909b1790559216808852938720805490981689179097559390925284546001600160a01b031990811690931790945593909152825416179055565b61ffff16600090815260166020908152604080832080546001600160a01b031981169091556001600160a01b0316835260159091529020805461ffff19169055565b61ffff16600090815260136020908152604080832080546001600160a01b031981169091556001600160a01b0316835260129091529020805461ffff19169055565b9190915b60018061ffff831611156140b45781617fff911c169083600083815260209060168252601060409260018060a01b038484205416835252205410156140b4576140af9082613eb6565b614066565b50509050565b60011b906201fffe61fffe8316921682036102b757565b9190915b60018061ffff831611156140b45781617fff911c169083600083815260209060138252601060409260018060a01b038484205416835252205411156140b45761411e9082613f4f565b6140d5565b91909161ffff92604060008584168152601660205260018060a01b038083832054168252601060205282822054968416825260166020528282205416815260106020522054908185106141765750509190565b9350919050565b919061ffff604060008286168152601360205260018060a01b0380838320541682526010602052828220549385168252601360205282822054168152601060205220549384821115614176575050919056fe1c593a2b803c3f9038e8b6743ba79fbc4276d2770979a01d2768ed12bea3243f691bb03ffc16c56fc96b82fd16cd1b3715f0bc3cdc6407005f49bb6205860095a264697066735822122056b948aa827667b06722c6768e9bdc2a99ef2f946d8dedd66a78e07da8aef7f064736f6c63430008160033","linkReferences":{"src/lib/LibStaking.sol":{"LibStaking":[{"start":350,"length":20}]}}},"methodIdentifiers":{"addBootstrapNode(string)":"10fd4261","claim()":"4e71d92d","claimRewardForRelayer()":"ed7c4da1","confirmChange(uint64)":"350a14bf","confirmNextChange()":"c7ebdaef","distributeRewardToRelayers(uint64,uint256)":"f9002bb1","join(bytes)":"6170b162","kill()":"41c0e1b5","leave()":"d66d9e19","preFund()":"0b7fbe60","preRelease(uint256)":"66783c9b","stake()":"3a4b66f1","submitCheckpoint(((uint64,address[]),uint64,bytes32,uint64,bytes32),((((uint64,address[]),(uint8,bytes)),((uint64,address[]),(uint8,bytes)),uint256,uint64,bytes4,bytes,uint256),bool)[],address[],bytes[])":"a8284de3","unstake(uint256)":"2e17de78","validateActiveQuorumSignatures(address[],bytes32,bytes[])":"cc2dc2b9"},"id":86}