{"abi":[{"type":"function","name":"addBootstrapNode","inputs":[{"name":"netAddress","type":"string","internalType":"string"}],"outputs":[],"stateMutability":"nonpayable"},{"type":"function","name":"claim","inputs":[],"outputs":[],"stateMutability":"nonpayable"},{"type":"function","name":"claimRewardForRelayer","inputs":[],"outputs":[],"stateMutability":"nonpayable"},{"type":"function","name":"confirmChange","inputs":[{"name":"_configurationNumber","type":"uint64","internalType":"uint64"}],"outputs":[],"stateMutability":"nonpayable"},{"type":"function","name":"confirmNextChange","inputs":[],"outputs":[],"stateMutability":"nonpayable"},{"type":"function","name":"distributeRewardToRelayers","inputs":[{"name":"height","type":"uint64","internalType":"uint64"},{"name":"reward","type":"uint256","internalType":"uint256"}],"outputs":[],"stateMutability":"payable"},{"type":"function","name":"join","inputs":[{"name":"publicKey","type":"bytes","internalType":"bytes"}],"outputs":[],"stateMutability":"payable"},{"type":"function","name":"kill","inputs":[],"outputs":[],"stateMutability":"nonpayable"},{"type":"function","name":"leave","inputs":[],"outputs":[],"stateMutability":"nonpayable"},{"type":"function","name":"preFund","inputs":[],"outputs":[],"stateMutability":"payable"},{"type":"function","name":"preRelease","inputs":[{"name":"amount","type":"uint256","internalType":"uint256"}],"outputs":[],"stateMutability":"nonpayable"},{"type":"function","name":"stake","inputs":[],"outputs":[],"stateMutability":"payable"},{"type":"function","name":"submitCheckpoint","inputs":[{"name":"checkpoint","type":"tuple","internalType":"struct BottomUpCheckpoint","components":[{"name":"subnetID","type":"tuple","internalType":"struct SubnetID","components":[{"name":"root","type":"uint64","internalType":"uint64"},{"name":"route","type":"address[]","internalType":"address[]"}]},{"name":"blockHeight","type":"uint64","internalType":"uint64"},{"name":"blockHash","type":"bytes32","internalType":"bytes32"},{"name":"nextConfigurationNumber","type":"uint64","internalType":"uint64"},{"name":"crossMessagesHash","type":"bytes32","internalType":"bytes32"}]},{"name":"messages","type":"tuple[]","internalType":"struct CrossMsg[]","components":[{"name":"message","type":"tuple","internalType":"struct StorableMsg","components":[{"name":"from","type":"tuple","internalType":"struct IPCAddress","components":[{"name":"subnetId","type":"tuple","internalType":"struct SubnetID","components":[{"name":"root","type":"uint64","internalType":"uint64"},{"name":"route","type":"address[]","internalType":"address[]"}]},{"name":"rawAddress","type":"tuple","internalType":"struct FvmAddress","components":[{"name":"addrType","type":"uint8","internalType":"uint8"},{"name":"payload","type":"bytes","internalType":"bytes"}]}]},{"name":"to","type":"tuple","internalType":"struct IPCAddress","components":[{"name":"subnetId","type":"tuple","internalType":"struct SubnetID","components":[{"name":"root","type":"uint64","internalType":"uint64"},{"name":"route","type":"address[]","internalType":"address[]"}]},{"name":"rawAddress","type":"tuple","internalType":"struct FvmAddress","components":[{"name":"addrType","type":"uint8","internalType":"uint8"},{"name":"payload","type":"bytes","internalType":"bytes"}]}]},{"name":"value","type":"uint256","internalType":"uint256"},{"name":"nonce","type":"uint64","internalType":"uint64"},{"name":"method","type":"bytes4","internalType":"bytes4"},{"name":"params","type":"bytes","internalType":"bytes"},{"name":"fee","type":"uint256","internalType":"uint256"}]},{"name":"wrapped","type":"bool","internalType":"bool"}]},{"name":"signatories","type":"address[]","internalType":"address[]"},{"name":"signatures","type":"bytes[]","internalType":"bytes[]"}],"outputs":[],"stateMutability":"nonpayable"},{"type":"function","name":"unstake","inputs":[{"name":"amount","type":"uint256","internalType":"uint256"}],"outputs":[],"stateMutability":"nonpayable"},{"type":"function","name":"validateActiveQuorumSignatures","inputs":[{"name":"signatories","type":"address[]","internalType":"address[]"},{"name":"hash","type":"bytes32","internalType":"bytes32"},{"name":"signatures","type":"bytes[]","internalType":"bytes[]"}],"outputs":[],"stateMutability":"view"},{"type":"event","name":"ActiveValidatorCollateralUpdated","inputs":[{"name":"validator","type":"address","indexed":false,"internalType":"address"},{"name":"newCollateral","type":"uint256","indexed":false,"internalType":"uint256"}],"anonymous":false},{"type":"event","name":"ActiveValidatorLeft","inputs":[{"name":"validator","type":"address","indexed":false,"internalType":"address"}],"anonymous":false},{"type":"event","name":"ActiveValidatorReplaced","inputs":[{"name":"oldValidator","type":"address","indexed":false,"internalType":"address"},{"name":"newValidator","type":"address","indexed":false,"internalType":"address"}],"anonymous":false},{"type":"event","name":"BottomUpCheckpointExecuted","inputs":[{"name":"epoch","type":"uint64","indexed":false,"internalType":"uint64"},{"name":"submitter","type":"address","indexed":false,"internalType":"address"}],"anonymous":false},{"type":"event","name":"BottomUpCheckpointSubmitted","inputs":[{"name":"checkpoint","type":"tuple","indexed":false,"internalType":"struct BottomUpCheckpoint","components":[{"name":"subnetID","type":"tuple","internalType":"struct SubnetID","components":[{"name":"root","type":"uint64","internalType":"uint64"},{"name":"route","type":"address[]","internalType":"address[]"}]},{"name":"blockHeight","type":"uint64","internalType":"uint64"},{"name":"blockHash","type":"bytes32","internalType":"bytes32"},{"name":"nextConfigurationNumber","type":"uint64","internalType":"uint64"},{"name":"crossMessagesHash","type":"bytes32","internalType":"bytes32"}]},{"name":"submitter","type":"address","indexed":false,"internalType":"address"}],"anonymous":false},{"type":"event","name":"CollateralClaimed","inputs":[{"name":"validator","type":"address","indexed":false,"internalType":"address"},{"name":"amount","type":"uint256","indexed":false,"internalType":"uint256"}],"anonymous":false},{"type":"event","name":"ConfigurationNumberConfirmed","inputs":[{"name":"number","type":"uint64","indexed":false,"internalType":"uint64"}],"anonymous":false},{"type":"event","name":"NewActiveValidator","inputs":[{"name":"validator","type":"address","indexed":false,"internalType":"address"},{"name":"collateral","type":"uint256","indexed":false,"internalType":"uint256"}],"anonymous":false},{"type":"event","name":"NewCollateralRelease","inputs":[{"name":"validator","type":"address","indexed":false,"internalType":"address"},{"name":"amount","type":"uint256","indexed":false,"internalType":"uint256"},{"name":"releaseBlock","type":"uint256","indexed":false,"internalType":"uint256"}],"anonymous":false},{"type":"event","name":"NewStakingChangeRequest","inputs":[{"name":"op","type":"uint8","indexed":false,"internalType":"enum StakingOperation"},{"name":"validator","type":"address","indexed":false,"internalType":"address"},{"name":"payload","type":"bytes","indexed":false,"internalType":"bytes"},{"name":"configurationNumber","type":"uint64","indexed":false,"internalType":"uint64"}],"anonymous":false},{"type":"event","name":"NewWaitingValidator","inputs":[{"name":"validator","type":"address","indexed":false,"internalType":"address"},{"name":"collateral","type":"uint256","indexed":false,"internalType":"uint256"}],"anonymous":false},{"type":"event","name":"NextBottomUpCheckpointExecuted","inputs":[{"name":"epoch","type":"uint64","indexed":false,"internalType":"uint64"},{"name":"submitter","type":"address","indexed":false,"internalType":"address"}],"anonymous":false},{"type":"event","name":"SubnetBootstrapped","inputs":[{"name":"","type":"tuple[]","indexed":false,"internalType":"struct Validator[]","components":[{"name":"weight","type":"uint256","internalType":"uint256"},{"name":"addr","type":"address","internalType":"address"},{"name":"metadata","type":"bytes","internalType":"bytes"}]}],"anonymous":false},{"type":"event","name":"WaitingValidatorCollateralUpdated","inputs":[{"name":"validator","type":"address","indexed":false,"internalType":"address"},{"name":"newCollateral","type":"uint256","indexed":false,"internalType":"uint256"}],"anonymous":false},{"type":"event","name":"WaitingValidatorLeft","inputs":[{"name":"validator","type":"address","indexed":false,"internalType":"address"}],"anonymous":false},{"type":"error","name":"AddressInsufficientBalance","inputs":[{"name":"account","type":"address","internalType":"address"}]},{"type":"error","name":"AddressShouldBeValidator","inputs":[]},{"type":"error","name":"CannotConfirmFutureChanges","inputs":[]},{"type":"error","name":"CannotReleaseZero","inputs":[]},{"type":"error","name":"CollateralIsZero","inputs":[]},{"type":"error","name":"EmptyAddress","inputs":[]},{"type":"error","name":"FailedInnerCall","inputs":[]},{"type":"error","name":"InvalidCheckpointEpoch","inputs":[]},{"type":"error","name":"InvalidCheckpointMessagesHash","inputs":[]},{"type":"error","name":"InvalidPublicKeyLength","inputs":[]},{"type":"error","name":"InvalidSignatureErr","inputs":[{"name":"","type":"uint8","internalType":"uint8"}]},{"type":"error","name":"MethodNotAllowed","inputs":[]},{"type":"error","name":"NoCollateralToWithdraw","inputs":[]},{"type":"error","name":"NotAllValidatorsHaveLeft","inputs":[]},{"type":"error","name":"NotEnoughBalance","inputs":[]},{"type":"error","name":"NotEnoughCollateral","inputs":[]},{"type":"error","name":"NotEnoughFunds","inputs":[]},{"type":"error","name":"NotGateway","inputs":[]},{"type":"error","name":"NotOwnerOfPublicKey","inputs":[]},{"type":"error","name":"NotStakedBefore","inputs":[]},{"type":"error","name":"NotValidator","inputs":[{"name":"","type":"address","internalType":"address"}]},{"type":"error","name":"PQDoesNotContainAddress","inputs":[]},{"type":"error","name":"PQEmpty","inputs":[]},{"type":"error","name":"ReentrancyError","inputs":[]},{"type":"error","name":"SubnetAlreadyBootstrapped","inputs":[]},{"type":"error","name":"SubnetAlreadyKilled","inputs":[]},{"type":"error","name":"WithdrawExceedingCollateral","inputs":[]}],"bytecode":{"object":"0x608060405234801561001057600080fd5b50614454806100206000396000f3fe6080604052600436106100e85760003560e01c80636170b1621161008a578063cc2dc2b911610059578063cc2dc2b9146101f1578063d66d9e1914610211578063ed7c4da114610226578063f9002bb11461023b57600080fd5b80636170b1621461018957806366783c9b1461019c578063a8284de3146101bc578063c7ebdaef146101dc57600080fd5b8063350a14bf116100c6578063350a14bf146101375780633a4b66f11461015757806341c0e1b51461015f5780634e71d92d1461017457600080fd5b80630b7fbe60146100ed57806310fd4261146100f75780632e17de7814610117575b600080fd5b6100f561024e565b005b34801561010357600080fd5b506100f5610112366004613366565b610331565b34801561012357600080fd5b506100f56101323660046133b6565b6103ab565b34801561014357600080fd5b506100f56101523660046133e4565b610479565b6100f5610482565b34801561016b57600080fd5b506100f561052a565b34801561018057600080fd5b506100f56105cf565b6100f5610197366004613401565b610614565b3480156101a857600080fd5b506100f56101b73660046133b6565b610849565b3480156101c857600080fd5b506100f56101d73660046134b6565b610968565b3480156101e857600080fd5b506100f5610cd1565b3480156101fd57600080fd5b506100f561020c366004613660565b610ceb565b34801561021d57600080fd5b506100f5610d7c565b34801561023257600080fd5b506100f5610ece565b6100f561024936600461372a565b610f6d565b3460000361026f57604051631036b5ad60e31b815260040160405180910390fd5b600d54610100900460ff161561029857604051631b39f2f360e11b815260040160405180910390fd5b3360009081526003602052604081205490036102f157600480546001810182556000919091527f8a35acfbc15ff81a39ae7d344fd709f28e8600b4aa8c65c6b64bfe7fe36bd19b0180546001600160a01b031916331790555b336000908152600360205260408120805434929061031090849061376c565b90915550506002805434919060009061032a90849061376c565b9091555050565b61033c600e3361105d565b61036057604051633b4f6e2b60e21b81523360048201526024015b60405180910390fd5b805160000361038257604051637138356f60e01b815260040160405180910390fd5b336000908152601e6020526040902061039b828261381c565b506103a7601f33611075565b5050565b6103b361108a565b600d5462010000900460ff16156103dd576040516341f8b8eb60e11b815260040160405180910390fd5b806000036103fe5760405163c79cad7b60e01b815260040160405180910390fd5b336000908152601060205260408120600101549081900361043457604051633b4f6e2b60e21b8152336004820152602401610357565b8181116104535760405162d11df360e61b815260040160405180910390fd5b600d54610100900460ff1661046c576103a733836110b5565b6103a733836110e9565b50565b61047681611105565b61048a61108a565b600d5462010000900460ff16156104b4576040516341f8b8eb60e11b815260040160405180910390fd5b346000036104d557604051635a78c58160e11b815260040160405180910390fd5b336000908152601060205260409020600101546105055760405163528fc16560e01b815260040160405180910390fd5b600d54610100900460ff166105205761051e3334611441565b565b61051e333461160f565b61053261108a565b61053a61162b565b61ffff161561055c57604051636b62255160e11b815260040160405180910390fd5b600d805463ff00000019166301000000179055600954604080516341c0e1b560e01b815290516001600160a01b03909216916341c0e1b59160048082019260009290919082900301818387803b1580156105b557600080fd5b505af11580156105c9573d6000803e3d6000fd5b50505050565b6000805160206143ff833981519152805460001901610601576040516329f745a760e01b815260040160405180910390fd5b6001815561060e3361164d565b60009055565b6000805160206143ff833981519152805460001901610646576040516329f745a760e01b815260040160405180910390fd5b6001815561065261108a565b600d54610100900460ff1680156106715750600d5462010000900460ff165b1561068f576040516341f8b8eb60e11b815260040160405180910390fd5b346000036106b057604051635a78c58160e11b815260040160405180910390fd5b604182146106d1576040516318dca5e960e21b815260040160405180910390fd5b60006106dd84846116a6565b90506001600160a01b038116331461070857604051634be9251d60e11b815260040160405180910390fd5b600d54610100900460ff1661082b576107223385856116e6565b61072c3334611441565b60006107366116f5565b600654909150811061082557600754600160401b90046001600160401b031661075d611702565b61ffff161061082557600d805461ff0019166101001790556040517f4914d88063275a25a13b2df37125e216745d812f94c56504be4bd78cf60c9593906107a6906001906138d5565b60405180910390a16009546002546001600160a01b039091169063f207564e906107d0908461376c565b60025460405160e084901b6001600160e01b031916815260048101919091526024016000604051808303818588803b15801561080b57600080fd5b505af115801561081f573d6000803e3d6000fd5b50505050505b50610840565b61083633858561170f565b610840333461160f565b50600090555050565b6000805160206143ff83398151915280546000190161087b576040516329f745a760e01b815260040160405180910390fd5b6001815560008290036108a157604051631036b5ad60e31b815260040160405180910390fd5b600d54610100900460ff16156108ca57604051631b39f2f360e11b815260040160405180910390fd5b336000908152600360205260409020548211156108fa5760405163569d45cf60e11b815260040160405180910390fd5b33600090815260036020526040812080548492906109199084906139d1565b9091555050600280548391906000906109339084906139d1565b9091555050336000908152600360205260408120549003610957576109573361171e565b6109613383611818565b6000905550565b600754600554610984916001600160401b0390811691166139e4565b6001600160401b031661099d6040890160208a016133e4565b6001600160401b0316141580156109d757506005546001600160401b03166109cb6040890160208a016133e4565b6001600160401b031614155b156109f55760405163fae4eadb60e01b815260040160405180910390fd5b86608001358686604051602001610a0d929190613d39565b6040516020818303038152906040528051906020012014610a4157604051632d7f750360e21b815260040160405180910390fd5b600087604051602001610a549190613dbc565b60408051601f198184030181529190528051602090910120600754600554919250610a8b916001600160401b0391821691166139e4565b6001600160401b0316610aa460408a0160208b016133e4565b6001600160401b031603610c1e57610af685858080602002602001604051908101604052809392919081815260200183836020028082843760009201919091525085925061020c915086905087613dcf565b87600080610b0a60408401602085016133e4565b6001600160401b031681526020810191909152604001600020610b2d8282613e00565b50610b67905033601d6000610b4860408d0160208e016133e4565b6001600160401b03168152602081019190915260400160002090611075565b50610b786040890160208a016133e4565b6005805467ffffffffffffffff19166001600160401b0392909216919091179055600954604051637a2b59cf60e11b81526001600160a01b039091169063f456b39e90610bcd908b908b908b90600401613f6e565b600060405180830381600087803b158015610be757600080fd5b505af1158015610bfb573d6000803e3d6000fd5b50610c199250610c1491505060808a0160608b016133e4565b611105565b610cc7565b6005546001600160401b0316610c3a60408a0160208b016133e4565b6001600160401b031603610cc75760008080610c5c60408c0160208d016133e4565b6001600160401b03166001600160401b03168152602001908152602001600020604051602001610c8c9190613f94565b604051602081830303815290604052805190602001209050808203610cc557610cc333601d6000610b4860408e0160208f016133e4565b505b505b5050505050505050565b6017546001600160401b0316610476610c14600183614044565b6000610cf8600e856118af565b90506000610d06600e6119e1565b600954909150600090606490610d2690600160a01b900460ff1684613de9565b610d309190614064565b9050600080610d428886858a8a611a4c565b9150915081610cc757806006811115610d5d57610d5d614086565b60405163282ef1c160e01b815260ff9091166004820152602401610357565b6000805160206143ff833981519152805460001901610dae576040516329f745a760e01b815260040160405180910390fd5b60018155610dba61108a565b600d54610100900460ff168015610dd95750600d5462010000900460ff165b15610df7576040516341f8b8eb60e11b815260040160405180910390fd5b3360009081526010602052604081206001015490819003610e2d57604051633b4f6e2b60e21b8152336004820152602401610357565b610e38601f33611b98565b50336000908152601e60205260408120610e519161327b565b600d54610100900460ff16610ebd57336000908152600360205260409020548015610eac57336000908152600360205260028054839290610e939084906139d1565b90915550610ea290503361171e565b610eac3382611818565b610eb633836110b5565b505061060e565b610ec733826110e9565b5060009055565b6000805160206143ff833981519152805460001901610f00576040516329f745a760e01b815260040160405180910390fd5b600181556040516382985e0b60e01b815233600482015273__$4a8700ca5e162cb61a0c4650a4871f1ad5$__906382985e0b9060240160006040518083038186803b158015610f4e57600080fd5b505af4158015610f62573d6000803e3d6000fd5b505060009092555050565b610f75611bad565b80156103a757600754600090610f94906001600160401b031684614044565b6001600160401b0381166000908152601d6020526040812091925090610fb990611bd8565b80519091506000819003610fce575050505050565b80841015610fdd575050505050565b6000610fe98286614064565b905060005b8281101561105457816000601c0160008684815181106110105761101061409c565b60200260200101516001600160a01b03166001600160a01b031681526020019081526020016000206000828254611047919061376c565b9091555050600101610fee565b50505050505050565b600061106c6003840183611bec565b90505b92915050565b600061106c836001600160a01b038416611c12565b600d546301000000900460ff161561051e5760405163248c8efb60e11b815260040160405180910390fd5b60006110c3600e8484611c61565b6110d1600e82018484611ccf565b6110e46001600160a01b03841683611818565b505050565b60006110f760178484611daa565b6110e4600e82018484611c61565b60178054600091906001600160401b03908116908416106111395760405163040aaa0560e11b815260040160405180910390fd5b80546001600160401b03600160401b9091048116908416101561115b57505050565b8054600160401b90046001600160401b0316805b846001600160401b0316816001600160401b0316116113d1576001600160401b0381166000908152600184016020526040812060028181015482549293506001600160a01b03169160ff16818111156111ca576111ca614086565b036111ff576001600160a01b038116600090815260108701602052604090206002016111f960018401826140b2565b506113bd565b60008260010180546112109061377f565b80601f016020809104026020016040519081016040528092919081815260200182805461123c9061377f565b80156112895780601f1061125e57610100808354040283529160200191611289565b820191906000526020600020905b81548152906001019060200180831161126c57829003601f168201915b50505050508060200190518101906112a1919061417e565b90506001835460ff1660028111156112bb576112bb614086565b03611341576112ce600e88018383611ccf565b6112dc601988018383611e26565b60098701546040516345f5448560e01b8152600481018390526001600160a01b03909116906345f5448590602401600060405180830381600087803b15801561132457600080fd5b505af1158015611338573d6000803e3d6000fd5b505050506113bb565b61134f600e88018383611eb8565b8660090160009054906101000a90046001600160a01b03166001600160a01b0316635a627dbc826040518263ffffffff1660e01b81526004016000604051808303818588803b1580156113a157600080fd5b505af11580156113b5573d6000803e3d6000fd5b50505050505b505b6113c78584611f25565b505060010161116f565b506113dd8460016139e4565b82546fffffffffffffffff00000000000000001916600160401b6001600160401b039283160217835560405190851681527f246f00b61ce672242f33bb680a47147cd54d3dfd04dbb76956ba42f88087bf639060200160405180910390a150505050565b600061144f600e8484611f6c565b61145d600e82018484611eb8565b600d810154610100900460ff166110e4576001810154600090815b818110156114d257856001600160a01b031684600101828154811061149f5761149f61409c565b60009182526020909120600160039092020101546001600160a01b0316036114ca57600192506114d2565b600101611478565b5081611608576001600160a01b03851660008181526010850160208181526040808420805482516060810184528181528085018890529686529390925260029091018054929492918301916115269061377f565b80601f01602080910402602001604051908101604052809291908181526020018280546115529061377f565b801561159f5780601f106115745761010080835404028352916020019161159f565b820191906000526020600020905b81548152906001019060200180831161158257829003601f168201915b505050919092525050600186810180548083018255600091825260209182902084516003909202019081559083015191810180546001600160a01b0319166001600160a01b0390931692909217909155604082015191925082916002820190610cc3908261381c565b5050505050565b600061161d60178484611fa3565b6110e4600e82018484611f6c565b60115460145460009182916116479161ffff9081169116614197565b91505090565b60008061165b601984612010565b604080516001600160a01b0386168152602081018390529192507f197c586353eaed0a1c53e6e540445b94befab8f932c8115d112115ecbeeed51491015b60405180910390a1505050565b6000604182146116b8576116b86141b2565b60006116c783600181876141c8565b6040516116d59291906141f2565b604051908190039020949350505050565b60006105c9600e858585612088565b600f546000908190611647565b600080611647600e6120b0565b60006105c960178585856120c1565b60045460005b818110156110e457826001600160a01b03166000600401828154811061174c5761174c61409c565b6000918252602090912001546001600160a01b0316036118105760046117736001846139d1565b815481106117835761178361409c565b600091825260209091200154600480546001600160a01b0390921691839081106117af576117af61409c565b600091825260209091200180546001600160a01b0319166001600160a01b039290921691909117905560048054806117e9576117e9614202565b600082815260209020810160001990810180546001600160a01b0319169055019055505050565b600101611724565b8047101561183b5760405163cd78605960e01b8152306004820152602401610357565b6000826001600160a01b03168260405160006040518083038185875af1925050503d8060008114611888576040519150601f19603f3d011682016040523d82523d6000602084013e61188d565b606091505b50509050806110e457604051630a12f52160e11b815260040160405180910390fd5b80516060906000816001600160401b038111156118ce576118ce6132c9565b6040519080825280602002602001820160405280156118f7578160200160208202803683370190505b50905060005b828110156119d8576119288686838151811061191b5761191b61409c565b602002602001015161105d565b61196f5784818151811061193e5761193e61409c565b6020026020010151604051633b4f6e2b60e21b815260040161035791906001600160a01b0391909116815260200190565b8560020160008683815181106119875761198761409c565b60200260200101516001600160a01b03166001600160a01b03168152602001908152602001600020600001548282815181106119c5576119c561409c565b60209081029190910101526001016118fd565b50949350505050565b6000806119f3836003015461ffff1690565b905060015b8161ffff168161ffff1611611a455761ffff811660009081526005850160205260409020546001600160a01b0316611a308582612140565b611a3a908561376c565b9350506001016119f8565b5050919050565b805160009081906001908290808203611a6d57505015915060029050611b8e565b895181141580611a7e575088518114155b15611a9157505015915060019050611b8e565b60005b81811015611b6d57600080611ac28a8a8581518110611ab557611ab561409c565b602002602001015161215e565b5090925090506000816003811115611adc57611adc614086565b14611af4578515600597509750505050505050611b8e565b8c8381518110611b0657611b0661409c565b60200260200101516001600160a01b0316826001600160a01b031614611b39578515600497509750505050505050611b8e565b8b8381518110611b4b57611b4b61409c565b602002602001015185611b5e919061376c565b94508260010192505050611a94565b50878210611b845782600094509450505050611b8e565b5050159150600690505b9550959350505050565b600061106c836001600160a01b0384166121ab565b6009546001600160a01b0316331461051e5760405163e7e601db60e01b815260040160405180910390fd5b60606000611be5836122a5565b9392505050565b6001600160a01b038116600090815260018301602052604081205461ffff16151561106c565b6000818152600183016020526040812054611c595750815460018181018455600084815260208082209093018490558454848252828601909352604090209190915561106f565b50600061106f565b6001600160a01b038216600090815260028401602052604090206001015481811015611ca05760405163ac69360360e01b815260040160405180910390fd5b611caa82826139d1565b6001600160a01b03909316600090815260029094016020525050604090912060010155565b6001600160a01b0382166000908152600284016020526040812054611cf59083906139d1565b6001600160a01b038416600090815260028601602052604090206001015490915081158015611d22575080155b15611d61576001600160a01b0384166000908152600280870160205260408220828155600181018390559190611d5a9083018261327b565b5050611d7f565b6001600160a01b038416600090815260028601602052604090208290555b611d8a858584612301565b82856001016000828254611d9e91906139d1565b90915550505050505050565b600081604051602001611dbf91815260200190565b60405160208183030381529060405290506000611ddf85856001856125be565b90507f1c593a2b803c3f9038e8b6743ba79fbc4276d2770979a01d2768ed12bea3243f6001858484604051611e17949392919061423a565b60405180910390a15050505050565b8254600090611e35904361376c565b60408051808201825282815260208082018690526001600160a01b0387166000908152600189019091529190912091925090611e7190826126b5565b604080516001600160a01b0386168152602081018590529081018390527f083b080788e20bd0930c2bca2ae4fbc51a59ced08c1b5992271f8cb439498a6390606001611e17565b6001600160a01b0382166000908152600284016020526040812054611ede90839061376c565b6001600160a01b038416600090815260028601602052604081208290556001860180549293508492909190611f1490849061376c565b909155506105c99050848483612721565b6001600160401b0381166000908152600180840160205260408220805460ff191681559190611f569083018261327b565b5060020180546001600160a01b03191690555050565b6001600160a01b038216600090815260028401602052604081206001018054839290611f9990849061376c565b9091555050505050565b600081604051602001611fb891815260200190565b60405160208183030381529060405290506000611fd885856000856125be565b90507f1c593a2b803c3f9038e8b6743ba79fbc4276d2770979a01d2768ed12bea3243f6000858484604051611e17949392919061423a565b6001600160a01b038116600090815260018301602052604081208190819061203790612947565b915091508061ffff1660000361206d576001600160a01b03841660009081526001860160205260409020805463ffffffff191690555b6120806001600160a01b03851683611818565b509392505050565b6001600160a01b038316600090815260028086016020526040909120016116088284836142b7565b600061106f826003015461ffff1690565b60006121068585600286868080601f0160208091040260200160405190810160405280939291908181526020018383808284376000920191909152506125be92505050565b90507f1c593a2b803c3f9038e8b6743ba79fbc4276d2770979a01d2768ed12bea3243f600285858585604051611e17959493929190614370565b6001600160a01b031660009081526002909101602052604090205490565b600080600083516041036121985760208401516040850151606086015160001a61218a88828585612a3b565b9550955095505050506121a4565b50508151600091506002905b9250925092565b600081815260018301602052604081205480156122945760006121cf6001836139d1565b85549091506000906121e3906001906139d1565b90508181146122485760008660000182815481106122035761220361409c565b90600052602060002001549050808760000184815481106122265761222661409c565b6000918252602080832090910192909255918252600188019052604090208390555b855486908061225957612259614202565b60019003818190600052602060002001600090559055856001016000868152602001908152602001600020600090556001935050505061106f565b600091505061106f565b5092915050565b6060816000018054806020026020016040519081016040528092919081815260200182805480156122f557602002820191906000526020600020905b8154815260200190600101908083116122e1575b50505050509050919050565b61230e6006840183611bec565b156123af578060000361236257612329600684018484612b0a565b6040516001600160a01b03831681527f3168ba660eed6ef1dc2258b2247cc05fd0f2f350d39e6ad2e2ebc76a8000b40b90602001611699565b612370600684018484612ba2565b604080516001600160a01b0384168152602081018390527fda148fac2e1063174be7bc0895576bdaba90fd14e575463fa26a967cb895cadd9101611699565b6123bc6003840183611bec565b6123d957604051632a55ca5360e01b815260040160405180910390fd5b806000036124a8576123ef600384018484612bca565b6040516001600160a01b03831681527f4a4c5d1a281180eea1e99d8177fa4798b9f7e019d5c57e7d8d73c6a22199aa5b9060200160405180910390a1600683015461ffff16156110e4576000806124496006860186612c5a565b909250905061245b6006860186612c9c565b612469600386018684612cfa565b604080516001600160a01b0384168152602081018390527f2e8038f5812f763c6ef0c5427cb5a05ce6d7064af2ba7d1d270bc02660b019fd9101611e17565b6124b6600384018484612d80565b600683015461ffff166000036124cb57505050565b6000806124db6003860186612c5a565b90925090506000806124f06006880188612c5a565b915091508083101561257f576125096003880188612d9a565b6125166006880188612c9c565b612524600388018884612cfa565b612532600688018886612df8565b604080516001600160a01b038087168252841660208201527ffaeb8de771b867cf357f6b459a7002b62ec45d544a8078a3ecd91200cc826d7591015b60405180910390a150505050505050565b604080516001600160a01b0388168152602081018790527f143db27bc2036653dc6f962ff9d0b803163d4af50c256ca9e6927b3d6dcd0197910161256e565b835460408051606081019091526001600160401b0390911690808460028111156125ea576125ea614086565b815260208082018590526001600160a01b0387166040928301526001600160401b03841660009081526001808a01909252919091208251815491929091839160ff199091169083600281111561264257612642614086565b02179055506020820151600182019061265b908261381c565b5060409190910151600290910180546001600160a01b0319166001600160a01b039092169190911790556126908160016139e4565b855467ffffffffffffffff19166001600160401b039190911617909455509192915050565b815461ffff808216916000916126d49184916201000090910416614197565b61ffff8116600090815260018087016020908152604090922086518155918601519181019190915590915061270a908390614197565b845461ffff191661ffff9190911617909355505050565b61272e6003840183611bec565b1561278057612741600384018484612e7e565b604080516001600160a01b0384168152602081018390527f143db27bc2036653dc6f962ff9d0b803163d4af50c256ca9e6927b3d6dcd01979101611699565b825461ffff166000612797600386015461ffff1690565b90508061ffff168261ffff1611156127f6576127b7600386018686612cfa565b604080516001600160a01b0386168152602081018590527f2e8038f5812f763c6ef0c5427cb5a05ce6d7064af2ba7d1d270bc02660b019fd9101611e17565b6000806128066003880188612c5a565b915091508481101561289b5761281f6003880188612d9a565b61282c6006880187611bec565b1561283f5761283f600688018888612b0a565b61284d600388018888612cfa565b61285b600688018884612df8565b604080516001600160a01b038085168252881660208201527ffaeb8de771b867cf357f6b459a7002b62ec45d544a8078a3ecd91200cc826d75910161256e565b6128a86006880187611bec565b156128fa576128bb600688018888612ea6565b604080516001600160a01b0388168152602081018790527fda148fac2e1063174be7bc0895576bdaba90fd14e575463fa26a967cb895cadd910161256e565b612908600688018888612df8565b604080516001600160a01b0388168152602081018790527f19fe3ca603e87854a0747cc10abf06bac64d61bac73d6d15f2fd3ca448f15264910161256e565b8054600090819061ffff16808203612972576040516364b0557f60e01b815260040160405180910390fd5b835462010000900461ffff168160005b8361ffff168361ffff161015612a105761ffff831660009081526001808901602090815260409283902083518085019094528054808552920154908301524310156129cd5750612a10565b60208101516129dc908361376c565b61ffff8516600090815260018a81016020526040822082815581019190915590940193600019939093019291506129829050565b865463ffffffff19166201000061ffff9485160261ffff191617928216929092179095559492505050565b600080807f7fffffffffffffffffffffffffffffff5d576e7357a4501ddfe92f46681b20a0841115612a765750600091506003905082612b00565b604080516000808252602082018084528a905260ff891692820192909252606081018790526080810186905260019060a0016020604051602081039080840390855afa158015612aca573d6000803e3d6000fd5b5050604051601f1901519150506001600160a01b038116612af657506000925060019150829050612b00565b9250600091508190505b9450945094915050565b6000612b168483612ec0565b845490915061ffff16612b2a858383612f00565b612b356001826143bd565b855461ffff191661ffff91909116178555612b508582612fb5565b8161ffff168161ffff1603612b66575050505050565b6000612b73868685612ffa565b9050612b818686858461302c565b612b8c868685612ffa565b9050612b9a86868584613070565b505050505050565b6000612bae8483612ec0565b90506000612bbc8484612140565b905061160885858484613070565b6000612bd68483612ec0565b845490915061ffff16612bea858383612f00565b612bf56001826143bd565b855461ffff191661ffff91909116178555612c108582612fb5565b8161ffff168161ffff1603612c26575050505050565b6000612c33868685612ffa565b9050612c41868685846130fc565b612c4c868685612ffa565b9050612b9a86868584613140565b600080612c66846131d1565b600160009081526002850160205260408120546001600160a01b031690612c8d8583612140565b919350909150505b9250929050565b612ca5826131d1565b815461ffff16612cb783600183612f00565b612cc26001826143bd565b835461ffff191661ffff91909116178355612cdd8382612fb5565b6000612ceb84846001612ffa565b90506105c98484600184613070565b8254600090612d0e9061ffff166001614197565b6001600160a01b03831660008181526001870160209081526040808320805461ffff871661ffff19918216811790925581855260028b0190935290832080546001600160a01b0319169094179093558754169091178655909150612d728484612140565b9050611608858584846130fc565b6000612d8c8483612ec0565b90506000612d728484612140565b612da3826131d1565b815461ffff16612db583600183612f00565b612dc06001826143bd565b835461ffff191661ffff91909116178355612ddb8382612fb5565b6000612de984846001612ffa565b90506105c98484600184613140565b8254600090612e0c9061ffff166001614197565b6001600160a01b03831660008181526001870160209081526040808320805461ffff871661ffff19918216811790925581855260028b0190935290832080546001600160a01b0319169094179093558754169091178655909150612e708484612140565b90506116088585848461302c565b6000612e8a8483612ec0565b90506000612e988484612140565b905061160885858484613140565b6000612eb28483612ec0565b90506000612e708484612140565b6001600160a01b038116600090815260018301602052604081205461ffff169081900361106f5760405163f2755e3760e01b815260040160405180910390fd5b825461ffff9081169083161115612f1957612f196141b2565b825461ffff9081169082161115612f3257612f326141b2565b61ffff9182166000818152600285016020818152604080842080549690971680855281852080546001600160a01b039889168088526001909b018552838720805461ffff19908116909417905590971680865291852080549091168617905591905283546001600160a01b03199081169096179093555281549092169091179055565b61ffff166000908152600282016020908152604080832080546001600160a01b031981169091556001600160a01b031683526001909301905220805461ffff19169055565b61ffff811660009081526002840160205260408120546001600160a01b03166130238482612140565b95945050505050565b6000805b60018461ffff161115612b9a57617fff600185901c169150613053868684612ffa565b905080831115612b9a57613068868386612f00565b819350613030565b83546201fffe600184901b169060009061ffff165b8061ffff168361ffff1611611054578061ffff168361ffff1610156130c4576130ba8787856130b5816001614197565b6131f7565b90935091506130d2565b6130cf878785612ffa565b91505b83821115611054576130e5878487612f00565b8294508460026130f591906143d8565b9250613085565b6000805b60018461ffff161115612b9a57617fff600185901c169150613123868684612ffa565b905080831015612b9a57613138868386612f00565b819350613100565b600061314d8360026143d8565b855490915060009061ffff165b8061ffff168361ffff1611611054578061ffff168361ffff1610156131995761318f87878561318a816001614197565b61323b565b90935091506131a7565b6131a4878785612ffa565b91505b83821015611054576131ba878487612f00565b8294508460026131ca91906143d8565b925061315a565b805461ffff16600003610476576040516340d9b01160e01b815260040160405180910390fd5b60008080613206878787612ffa565b90506000613215888887612ffa565b90508181111561322b5784935091506132329050565b5084925090505b94509492505050565b6000808061324a878787612ffa565b90506000613259888887612ffa565b905081811061326d57508492509050613232565b939793965092945050505050565b5080546132879061377f565b6000825580601f10613297575050565b601f01602090049060005260206000209081019061047691905b808211156132c557600081556001016132b1565b5090565b634e487b7160e01b600052604160045260246000fd5b604051601f8201601f191681016001600160401b0381118282101715613307576133076132c9565b604052919050565b60006001600160401b03831115613328576133286132c9565b61333b601f8401601f19166020016132df565b905082815283838301111561334f57600080fd5b828260208301376000602084830101529392505050565b60006020828403121561337857600080fd5b81356001600160401b0381111561338e57600080fd5b8201601f8101841361339f57600080fd5b6133ae8482356020840161330f565b949350505050565b6000602082840312156133c857600080fd5b5035919050565b6001600160401b038116811461047657600080fd5b6000602082840312156133f657600080fd5b8135611be5816133cf565b6000806020838503121561341457600080fd5b82356001600160401b038082111561342b57600080fd5b818501915085601f83011261343f57600080fd5b81358181111561344e57600080fd5b86602082850101111561346057600080fd5b60209290920196919550909350505050565b60008083601f84011261348457600080fd5b5081356001600160401b0381111561349b57600080fd5b6020830191508360208260051b8501011115612c9557600080fd5b60008060008060008060006080888a0312156134d157600080fd5b87356001600160401b03808211156134e857600080fd5b9089019060a0828c0312156134fc57600080fd5b9097506020890135908082111561351257600080fd5b61351e8b838c01613472565b909850965060408a013591508082111561353757600080fd5b6135438b838c01613472565b909650945060608a013591508082111561355c57600080fd5b506135698a828b01613472565b989b979a50959850939692959293505050565b60006001600160401b03821115613595576135956132c9565b5060051b60200190565b6001600160a01b038116811461047657600080fd5b60006135c76135c28461357c565b6132df565b8381529050602080820190600585901b8401868111156135e657600080fd5b845b818110156136355780356001600160401b038111156136075760008081fd5b8601601f810189136136195760008081fd5b61362789823586840161330f565b8552509282019282016135e8565b505050509392505050565b600082601f83011261365157600080fd5b61106c838335602085016135b4565b60008060006060848603121561367557600080fd5b83356001600160401b038082111561368c57600080fd5b818601915086601f8301126136a057600080fd5b813560206136b06135c28361357c565b82815260059290921b8401810191818101908a8411156136cf57600080fd5b948201945b838610156136f65785356136e78161359f565b825294820194908201906136d4565b975050870135945050604086013591508082111561371357600080fd5b5061372086828701613640565b9150509250925092565b6000806040838503121561373d57600080fd5b8235613748816133cf565b946020939093013593505050565b634e487b7160e01b600052601160045260246000fd5b8082018082111561106f5761106f613756565b600181811c9082168061379357607f821691505b6020821081036137b357634e487b7160e01b600052602260045260246000fd5b50919050565b5b818110156103a757600081556001016137ba565b601f8211156110e457806000526020600020601f840160051c810160208510156137f55750805b611608601f850160051c8301826137b9565b600019600383901b1c191660019190911b1790565b81516001600160401b03811115613835576138356132c9565b61384981613843845461377f565b846137ce565b602080601f83116001811461387857600084156138665750858301515b6138708582613807565b865550612b9a565b600085815260208120601f198616915b828110156138a757888601518255948401946001909101908401613888565b50858210156138c55787850151600019600388901b60f8161c191681555b5050505050600190811b01905550565b6000602080830181845280855480835260408601915060408160051b87010192506000878152848120815b838110156139c357888603603f190185528154865260018201546001600160a01b03168787015260606040870152600282018054849061393f8161377f565b8060608b0152600182166000811461395e576001811461397a576139a9565b60ff19831660808c0152608082151560051b8c010193506139a9565b8488528b8820885b838110156139a05781548d8201608001526001909101908d01613982565b8c016080019450505b509198505050948701945060039190910190600101613900565b509398975050505050505050565b8181038181111561106f5761106f613756565b6001600160401b0381811683821601908082111561229e5761229e613756565b60008235603e19833603018112613a1a57600080fd5b90910192915050565b6000604083018235613a34816133cf565b6001600160401b0390811685526020908482013536869003601e19018112613a5b57600080fd5b850160208101903582811115613a7057600080fd5b8060051b3603821315613a8257600080fd5b6040602089015293849052926060870191506000905b80821015613aca578435613aab8161359f565b6001600160a01b03168352938301939183019160019190910190613a98565b50909695505050505050565b6000808335601e19843603018112613aed57600080fd5b83016020810192503590506001600160401b03811115613b0c57600080fd5b803603821315612c9557600080fd5b81835281816020850137506000828201602090810191909152601f909101601f19169091010190565b6000613b508283613a04565b60408452613b616040850182613a23565b9050613b706020840184613a04565b8482036020860152803560ff8116808214613b8a57600080fd5b835250613b9a6020820182613ad6565b915060406020840152613bb1604084018383613b1b565b9695505050505050565b80356001600160e01b031981168114613bd357600080fd5b919050565b80358015158114613bd357600080fd5b60008383855260208086019550808560051b830101846000805b88811015613d2b57858403601f19018a52613c1d8389613a04565b6040813560de19833603018112613c32578485fd5b8187528201613c418180613a04565b60e080848a0152613c566101208a0183613b44565b9150613c648a840184613a04565b603f196060818c860301818d0152613c7c8584613b44565b94506080925086860135838d015280860135965050613c9a866133cf565b60a06001600160401b038716818d0152613cb5838701613bbb565b965060c09250613cd0838d01886001600160e01b0319169052565b613cdc81870187613ad6565b97509050818c860301848d0152613cf4858883613b1b565b96505050808401356101008b015250505050613d11878301613bd8565b151595870195909552509884019891840191600101613c02565b509198975050505050505050565b6020815260006133ae602083018486613be8565b6000613d598283613a04565b60a08452613d6a60a0850182613a23565b90506020830135613d7a816133cf565b6001600160401b0380821660208701526040850135604087015260608501359150613da4826133cf565b16606085015260809283013592909301919091525090565b60208152600061106c6020830184613d4d565b600061106c3684846135b4565b6000813561106f816133cf565b808202811582820484141761106f5761106f613756565b8135603e19833603018112613e1457600080fd5b82018035613e21816133cf565b825467ffffffffffffffff19166001600160401b038216178355506001808301602080840135601e19853603018112613e5957600080fd5b939093019283356001600160401b03811115613e7457600080fd5b81850194508060051b3603851315613e8b57600080fd5b600160401b811115613e9f57613e9f6132c9565b825481845580821015613ec4578360005282600020613ec28282018483016137b9565b505b506000928352818320925b81811015613ef1578535613ee28161359f565b84820155948201948401613ecf565b5050613f22613f01828801613ddc565b600287016001600160401b0382166001600160401b03198254161781555050565b5050505060408201356003820155613f60613f3f60608401613ddc565b600483016001600160401b0382166001600160401b03198254161781555050565b608082013560058201555050565b604081526000613f816040830186613d4d565b8281036020840152613bb1818587613be8565b602080825260a08282015282546001600160401b031660c0830152604060e083015260018084018054610100850181905260009182528382209193929084906101208701905b808310156140005784546001600160a01b03168252938301939183019190850190613fda565b5060028801546001600160401b03908116604089015260038901546060890152600489015416608088015260059097015460a0909601959095525093949350505050565b6001600160401b0382811682821603908082111561229e5761229e613756565b60008261408157634e487b7160e01b600052601260045260246000fd5b500490565b634e487b7160e01b600052602160045260246000fd5b634e487b7160e01b600052603260045260246000fd5b8181036140bd575050565b6140c7825461377f565b6001600160401b038111156140de576140de6132c9565b6140ec81613843845461377f565b6000601f82116001811461411a57600083156141085750848201545b6141128482613807565b855550611608565b600085815260209020601f19841690600086815260209020845b838110156141545782860154825560019586019590910190602001614134565b50858310156138c55793015460001960f8600387901b161c19169092555050600190811b01905550565b60006020828403121561419057600080fd5b5051919050565b61ffff81811683821601908082111561229e5761229e613756565b634e487b7160e01b600052600160045260246000fd5b600080858511156141d857600080fd5b838611156141e557600080fd5b5050820193919092039150565b8183823760009101908152919050565b634e487b7160e01b600052603160045260246000fd5b6003811061423657634e487b7160e01b600052602160045260246000fd5b9052565b6142448186614218565b6000602060018060a01b038616602084015260806040840152845180608085015260005b818110156142845786810183015185820160a001528201614268565b50600060a0828601015260a0601f19601f830116850101925050506001600160401b038316606083015295945050505050565b6001600160401b038311156142ce576142ce6132c9565b6142e2836142dc835461377f565b836137ce565b6000601f84116001811461431057600085156142fe5750838201355b6143088682613807565b845550611608565b600083815260209020601f19861690835b828110156143415786850135825560209485019460019092019101614321565b508682101561435e5760001960f88860031b161c19848701351681555b505060018560011b0183555050505050565b61437a8187614218565b6001600160a01b03851660208201526080604082018190526000906143a29083018587613b1b565b90506001600160401b03831660608301529695505050505050565b61ffff82811682821603908082111561229e5761229e613756565b61ffff8181168382160280821691908281146143f6576143f6613756565b50509291505056fe691bb03ffc16c56fc96b82fd16cd1b3715f0bc3cdc6407005f49bb6205860095a264697066735822122007d62166fa3b74d5058dcdabf6a79b5c26fe66de08f37b5aa68e128d9a698a0664736f6c63430008160033","linkReferences":{"src/lib/LibStaking.sol":{"LibStaking":[{"start":3897,"length":20}]}}},"methodIdentifiers":{"addBootstrapNode(string)":"10fd4261","claim()":"4e71d92d","claimRewardForRelayer()":"ed7c4da1","confirmChange(uint64)":"350a14bf","confirmNextChange()":"c7ebdaef","distributeRewardToRelayers(uint64,uint256)":"f9002bb1","join(bytes)":"6170b162","kill()":"41c0e1b5","leave()":"d66d9e19","preFund()":"0b7fbe60","preRelease(uint256)":"66783c9b","stake()":"3a4b66f1","submitCheckpoint(((uint64,address[]),uint64,bytes32,uint64,bytes32),((((uint64,address[]),(uint8,bytes)),((uint64,address[]),(uint8,bytes)),uint256,uint64,bytes4,bytes,uint256),bool)[],address[],bytes[])":"a8284de3","unstake(uint256)":"2e17de78","validateActiveQuorumSignatures(address[],bytes32,bytes[])":"cc2dc2b9"},"id":91}