{"abi":[{"type":"function","name":"addBootstrapNode","inputs":[{"name":"netAddress","type":"string","internalType":"string"}],"outputs":[],"stateMutability":"nonpayable"},{"type":"function","name":"claim","inputs":[],"outputs":[],"stateMutability":"nonpayable"},{"type":"function","name":"claimRewardForRelayer","inputs":[],"outputs":[],"stateMutability":"nonpayable"},{"type":"function","name":"distributeRewardToRelayers","inputs":[{"name":"height","type":"uint64","internalType":"uint64"},{"name":"reward","type":"uint256","internalType":"uint256"}],"outputs":[],"stateMutability":"payable"},{"type":"function","name":"join","inputs":[{"name":"publicKey","type":"bytes","internalType":"bytes"}],"outputs":[],"stateMutability":"payable"},{"type":"function","name":"kill","inputs":[],"outputs":[],"stateMutability":"nonpayable"},{"type":"function","name":"leave","inputs":[],"outputs":[],"stateMutability":"nonpayable"},{"type":"function","name":"preFund","inputs":[],"outputs":[],"stateMutability":"payable"},{"type":"function","name":"preRelease","inputs":[{"name":"amount","type":"uint256","internalType":"uint256"}],"outputs":[],"stateMutability":"nonpayable"},{"type":"function","name":"stake","inputs":[],"outputs":[],"stateMutability":"payable"},{"type":"function","name":"submitCheckpoint","inputs":[{"name":"checkpoint","type":"tuple","internalType":"struct BottomUpCheckpoint","components":[{"name":"subnetID","type":"tuple","internalType":"struct SubnetID","components":[{"name":"root","type":"uint64","internalType":"uint64"},{"name":"route","type":"address[]","internalType":"address[]"}]},{"name":"blockHeight","type":"uint64","internalType":"uint64"},{"name":"blockHash","type":"bytes32","internalType":"bytes32"},{"name":"nextConfigurationNumber","type":"uint64","internalType":"uint64"},{"name":"crossMessagesHash","type":"bytes32","internalType":"bytes32"}]},{"name":"messages","type":"tuple[]","internalType":"struct CrossMsg[]","components":[{"name":"message","type":"tuple","internalType":"struct StorableMsg","components":[{"name":"from","type":"tuple","internalType":"struct IPCAddress","components":[{"name":"subnetId","type":"tuple","internalType":"struct SubnetID","components":[{"name":"root","type":"uint64","internalType":"uint64"},{"name":"route","type":"address[]","internalType":"address[]"}]},{"name":"rawAddress","type":"tuple","internalType":"struct FvmAddress","components":[{"name":"addrType","type":"uint8","internalType":"uint8"},{"name":"payload","type":"bytes","internalType":"bytes"}]}]},{"name":"to","type":"tuple","internalType":"struct IPCAddress","components":[{"name":"subnetId","type":"tuple","internalType":"struct SubnetID","components":[{"name":"root","type":"uint64","internalType":"uint64"},{"name":"route","type":"address[]","internalType":"address[]"}]},{"name":"rawAddress","type":"tuple","internalType":"struct FvmAddress","components":[{"name":"addrType","type":"uint8","internalType":"uint8"},{"name":"payload","type":"bytes","internalType":"bytes"}]}]},{"name":"value","type":"uint256","internalType":"uint256"},{"name":"nonce","type":"uint64","internalType":"uint64"},{"name":"method","type":"bytes4","internalType":"bytes4"},{"name":"params","type":"bytes","internalType":"bytes"},{"name":"fee","type":"uint256","internalType":"uint256"}]},{"name":"wrapped","type":"bool","internalType":"bool"}]},{"name":"signatories","type":"address[]","internalType":"address[]"},{"name":"signatures","type":"bytes[]","internalType":"bytes[]"}],"outputs":[],"stateMutability":"nonpayable"},{"type":"function","name":"unstake","inputs":[{"name":"amount","type":"uint256","internalType":"uint256"}],"outputs":[],"stateMutability":"nonpayable"},{"type":"function","name":"validateActiveQuorumSignatures","inputs":[{"name":"signatories","type":"address[]","internalType":"address[]"},{"name":"hash","type":"bytes32","internalType":"bytes32"},{"name":"signatures","type":"bytes[]","internalType":"bytes[]"}],"outputs":[],"stateMutability":"view"},{"type":"event","name":"BottomUpCheckpointExecuted","inputs":[{"name":"epoch","type":"uint64","indexed":false,"internalType":"uint64"},{"name":"submitter","type":"address","indexed":false,"internalType":"address"}],"anonymous":false},{"type":"event","name":"BottomUpCheckpointSubmitted","inputs":[{"name":"checkpoint","type":"tuple","indexed":false,"internalType":"struct BottomUpCheckpoint","components":[{"name":"subnetID","type":"tuple","internalType":"struct SubnetID","components":[{"name":"root","type":"uint64","internalType":"uint64"},{"name":"route","type":"address[]","internalType":"address[]"}]},{"name":"blockHeight","type":"uint64","internalType":"uint64"},{"name":"blockHash","type":"bytes32","internalType":"bytes32"},{"name":"nextConfigurationNumber","type":"uint64","internalType":"uint64"},{"name":"crossMessagesHash","type":"bytes32","internalType":"bytes32"}]},{"name":"submitter","type":"address","indexed":false,"internalType":"address"}],"anonymous":false},{"type":"event","name":"NextBottomUpCheckpointExecuted","inputs":[{"name":"epoch","type":"uint64","indexed":false,"internalType":"uint64"},{"name":"submitter","type":"address","indexed":false,"internalType":"address"}],"anonymous":false},{"type":"event","name":"SubnetBootstrapped","inputs":[{"name":"","type":"tuple[]","indexed":false,"internalType":"struct Validator[]","components":[{"name":"weight","type":"uint256","internalType":"uint256"},{"name":"addr","type":"address","internalType":"address"},{"name":"metadata","type":"bytes","internalType":"bytes"}]}],"anonymous":false},{"type":"error","name":"AddressInsufficientBalance","inputs":[{"name":"account","type":"address","internalType":"address"}]},{"type":"error","name":"AddressShouldBeValidator","inputs":[]},{"type":"error","name":"CannotConfirmFutureChanges","inputs":[]},{"type":"error","name":"CannotReleaseZero","inputs":[]},{"type":"error","name":"CollateralIsZero","inputs":[]},{"type":"error","name":"EmptyAddress","inputs":[]},{"type":"error","name":"FailedInnerCall","inputs":[]},{"type":"error","name":"InvalidCheckpointEpoch","inputs":[]},{"type":"error","name":"InvalidCheckpointMessagesHash","inputs":[]},{"type":"error","name":"InvalidPublicKeyLength","inputs":[]},{"type":"error","name":"InvalidSignatureErr","inputs":[{"name":"","type":"uint8","internalType":"uint8"}]},{"type":"error","name":"MethodNotAllowed","inputs":[]},{"type":"error","name":"NoCollateralToWithdraw","inputs":[]},{"type":"error","name":"NotAllValidatorsHaveLeft","inputs":[]},{"type":"error","name":"NotEnoughBalance","inputs":[]},{"type":"error","name":"NotEnoughCollateral","inputs":[]},{"type":"error","name":"NotEnoughFunds","inputs":[]},{"type":"error","name":"NotGateway","inputs":[]},{"type":"error","name":"NotOwnerOfPublicKey","inputs":[]},{"type":"error","name":"NotStakedBefore","inputs":[]},{"type":"error","name":"NotValidator","inputs":[{"name":"","type":"address","internalType":"address"}]},{"type":"error","name":"PQDoesNotContainAddress","inputs":[]},{"type":"error","name":"PQEmpty","inputs":[]},{"type":"error","name":"ReentrancyError","inputs":[]},{"type":"error","name":"SubnetAlreadyBootstrapped","inputs":[]},{"type":"error","name":"SubnetAlreadyKilled","inputs":[]},{"type":"error","name":"WithdrawExceedingCollateral","inputs":[]}],"bytecode":{"object":"0x608080604052346100165761415a908161001c8239f35b600080fdfe608080604052600436101561001357600080fd5b600090813560e01c9081630b7fbe60146112a95750806310fd42611461114e5780632e17de78146111295780633a4b66f11461110d57806341c0e1b5146110715780634e71d92d14610ee55780636170b1621461092557806366783c9b14610844578063a8284de31461027f578063cc2dc2b914610202578063d66d9e19146101bf578063ed7c4da11461010b5763f9002bb1146100b057600080fd5b6040366003190112610108576004356001600160401b0381168103610103576009546001600160a01b031633036100f1576100ee9060243590613b9f565b80f35b60405163e7e601db60e01b8152600490fd5b600080fd5b80fd5b503461010857806003193601126101085760008051602061410583398151915260018154146101ad5780600183925573__$4a8700ca5e162cb61a0c4650a4871f1ad5$__803b156101a95782602491604051928380926382985e0b60e01b82523360048301525af490811561019e578391610187575b50505580f35b61019090611370565b61019b578138610181565b50fd5b6040513d85823e3d90fd5b5050fd5b6040516329f745a760e01b8152600490fd5b50346101085780600319360112610108576101d8613637565b60008051602061410583398151915260018154146101ad578060018392556101fe6139a1565b5580f35b5034610108576060366003190112610108576001600160401b0360043581811161027b573660238201121561027b5761024590369060248160040135910161149d565b60443591821161027b573660238301121561027b576102716100ee9236906024816004013591016114f3565b9060243590613c77565b8280fd5b5034610108576080366003190112610108576001600160401b03600435116101085760a060043536036003190112610108576024356001600160401b038111610840576102d0903690600401611442565b91906044356001600160401b03811161027b576102f1903690600401611442565b6064356001600160401b0381116106b857610310903690600401611442565b9261031f602460043501611586565b926001600160401b03600554166001600160401b0360075416946001600160401b038061034c88856115c8565b169116141580610820575b61080e576040516020810190602082526103888161037a8d60408301908d611744565b03601f1981018352826113cf565b51902060846004350135036107fc576040516020808201526103b68161037a60408201600435600401611878565b60208151910120946001600160401b03806103df6103d8602460043501611586565b93856115c8565b169116146000146106bc5750916104006104089261040e969594369161149d565b9336916114f3565b91613c77565b6001600160401b03610424602460043501611586565b168252816020526040822092600435600401356042196004353603018112156106b457600435016001600160401b0361045f60048301611586565b166001600160401b0319865416178555602481013590602219813603018212156106b85701936001600160401b036004860135116106b457600485013560051b360360248601136106b457600160401b6004860135116106a05760019485820180546004830135825580600484013510610681575b506024820190865260208620865b600484013581106106595750505050839450600281016001600160401b0361050e602460043501611586565b166001600160401b03198254161790556044600435013560038201556001600160401b03610540606460043501611586565b1660048201906001600160401b03198254161790556005608460043501359101556001600160401b03610577602460043501611586565b168352601d60205261058d6040842033906119d9565b506001600160401b036105a4602460043501611586565b166001600160401b0319600554161760055560018060a01b036009541691823b156106545761060e92849283604051809681958294637a2b59cf60e11b8452604060048501526105fc60448501600435600401611878565b84810360031901602486015291611744565b03925af1801561064957610635575b50506100ee610630606460043501611586565b611c53565b61063e90611370565b61010857803861061d565b6040513d84823e3d90fd5b505050fd5b82356001600160a01b038116810361067d57828201556020929092019188016104e2565b8880fd5b8187526020872061069a918101906004850135016118d7565b386104d4565b634e487b7160e01b84526041600452602484fd5b8380fd5b8480fd5b9550505050929350506001600160401b036106db602460043501611586565b16146106e6575b5080f35b6001600160401b036106fc602460043501611586565b168252816020526040822060405160208101916020835260a06040830152816101208101916001600160401b0381541660e0830152600190818101916040610100850152825480955261014084019289526020892090895b8681106107db5750505060028101546001600160401b0390811660608501526003820154608085015260048201541660a08401526005015460c083015203601f19810183526107a49150826113cf565b519020146107af5780f35b6001600160401b036107c5602460043501611586565b168152601d6020526106e26040822033906119d9565b82546001600160a01b03168552879550602090940193918101918101610754565b604051632d7f750360e21b8152600490fd5b60405163fae4eadb60e01b8152600490fd5b50806001600160401b03610838602460043501611586565b161415610357565b5080fd5b50346101085760203660031901126101085760043560008051602061410583398151915260018154146101ad576001815581156109135760ff600d5460081c16610901573383526003602052816040842054106108ef576101fe83923384526003602052604084206108b7828254611fe7565b90556108c581600254611fe7565b60025533845260036020526040842054156108e1575b33613163565b6108ea33613ffd565b6108db565b60405163569d45cf60e11b8152600490fd5b604051631b39f2f360e11b8152600490fd5b604051631036b5ad60e31b8152600490fd5b50602036600319011261010857600435906001600160401b0382116101085736602383011215610108576001600160401b03826004013511610108576024368184600401358501011161084057600160008051602061410583398151915254146101ad576001600080516020614105833981519152556109a3613637565b600d5460ff8160081c1680918192610ed7575b50610ec5573415610eb35760418460040135148015610ea1576109d89061301e565b836004013560011161027b576109fa366004860135600019016025870161140b565b80516020909101206001600160a01b03163303610e8f57610c815733600090815260106020526040902060029390840190610a438160040135610a3d8454611a5e565b84611b2e565b83601f826004013511600114610c0b578385918360040135610bfe575b5050816004013560011b91600019906004013560031b1c19161790555b610a873433613218565b600f54600654811015610aae575b505090505b806000805160206141058339815191525580f35b61ffff601154166001600160401b0360075460401c1611610a955761010061ff0019600d541617600d556040519360208501602086526001548091526040860160408260051b88010191600187527fb10e2d527612073b26eecdfd717e6a320cf44b4afac2b0732d9fcbe2b7fa0cf69187905b828210610bb357505050508585967f4914d88063275a25a13b2df37125e216745d812f94c56504be4bd78cf60c9593920390a1610b6b60018060a01b036009541691548093611f67565b92813b156106b85784926040519485938492637903ab2760e11b845260048401525af1801561064957610b9f575b80610a95565b610ba890611370565b610108578038610b99565b9091929360206003610bf06001938d603f1990820301865288548152848060a01b03858a0154168482015260609081604082015201898901611a98565b960192019201909291610b21565b8301013590508338610a60565b828552602085208592916004830135601f19165b808510610c645760019450836004013511610c45575b505060040135811b019055610a7d565b8201850135600019600484013560031b60f8161c191690553880610c35565b838201870135835560209485019460019093019290910190610c1f565b610c9236846004013583860161140b565b926001600160401b0360175416604051610cab816113b4565b600281526020810195865233604082015281600052601860205260406000209581516003811015610e7a5760ff80198954169116178755519586516001600160401b038111610e6557610d0e81610d056001850154611a5e565b60018501611b2e565b6020601f8211600114610de3579080600293926000805160206140e5833981519152999a600092610dd8575b50508160011b916000199060031b1c19161760018201555b0190604060018060a01b03910151166001600160601b0360a01b8254161790556001600160401b03610d838261159a565b166001600160401b03196017541617601755610dc060405193849360028552336020860152608060408601526080850191816004013591016116ba565b9060608301520390a1610dd3343361342d565b610a9a565b015190503880610d3a565b6001830160005260206000209860005b601f1984168110610e4d5750916000805160206140e583398151915298996001926002959483601f19811610610e34575b505050811b016001820155610d52565b015160001960f88460031b161c19169055388080610e24565b828201518b556001909a019960209283019201610df3565b85634e487b7160e01b60005260416004526000fd5b85634e487b7160e01b60005260216004526000fd5b604051634be9251d60e11b8152600490fd5b6040516318dca5e960e21b8152600490fd5b604051635a78c58160e11b8152600490fd5b6040516341f8b8eb60e11b8152600490fd5b60ff915060101c16386109b6565b5034610108578060031936011261010857600190600080516020614105833981519152828154146101ad57828155336000908152601a602052604090209283549061ffff9081831692831561105f57829060101c16918391808795818a01915b610fd9575b50505086610fbb937f197c586353eaed0a1c53e6e540445b94befab8f932c8115d112115ecbeeed514959363ffff000093899a54911693849260101b169063ffffffff19161717905515610fc2575b610fa38133613163565b60408051338152602081019290925290918291820190565b0390a15580f35b336000908152601a60205260409020859055610f99565b909193948381169682881015611056578760005260208091858252604060002060405161100581611399565b8982549283835201549384910152431061104b578594938896889461102c86958a95611f67565b9c60005252600082604082208281550155011696600019011694610f45565b985050509493610f4a565b96509493610f4a565b6040516364b0557f60e01b8152600490fd5b503461010857806003193601126101085761108a613637565b61ffff6110a08160145416826011541690611f87565b166110fb57600d805463ff0000001916630100000017905560095481906001600160a01b0316803b1561019b5781906004604051809481936341c0e1b560e01b83525af18015610649576110f2575080f35b6100ee90611370565b604051636b62255160e11b8152600490fd5b508060031936011261010857611121613637565b6100ee613658565b503461010857602036600319011261010857611143613637565b6100ee6004356136b5565b50346101085760209081600319360112610108576001600160401b039160043583811161027b573660238201121561027b5761119490369060248160040135910161140b565b923383526012825261ffff604084205416156112915783511561127f57338352601e8252604083209184519182116106a0576111da826111d48554611a5e565b85611b2e565b80601f831160011461121b5750839482939492611210575b50508160011b916000199060031b1c19161790555b6106e233611972565b0151905038806111f2565b90601f198316958486528286209286905b8882106112675750508360019596971061124e575b505050811b019055611207565b015160001960f88460031b161c19169055388080611241565b8060018596829496860151815501950193019061122c565b604051637138356f60e01b8152600490fd5b604051633b4f6e2b60e21b8152336004820152602490fd5b905081600319360112610840573415611361575060ff600d5460081c16610901573381526003602052604081205415611308575b3381526003602052604081206112f4348254611f67565b905561130234600254611f67565b60025580f35b600454600160401b81101561134d5761132a81600161134893016004556118ee565b81546001600160a01b0360039290921b91821b19163390911b179055565b6112dd565b634e487b7160e01b82526041600452602482fd5b631036b5ad60e31b8152600490fd5b6001600160401b03811161138357604052565b634e487b7160e01b600052604160045260246000fd5b604081019081106001600160401b0382111761138357604052565b606081019081106001600160401b0382111761138357604052565b90601f801991011681019081106001600160401b0382111761138357604052565b6001600160401b03811161138357601f01601f191660200190565b929192611417826113f0565b9161142560405193846113cf565b829481845281830111610103578281602093846000960137010152565b9181601f84011215610103578235916001600160401b038311610103576020808501948460051b01011161010357565b6001600160401b0381116113835760051b60200190565b35906001600160a01b038216820361010357565b92916114a882611472565b916114b660405193846113cf565b829481845260208094019160051b810192831161010357905b8282106114dc5750505050565b8380916114e884611489565b8152019101906114cf565b9291909261150084611472565b9161150e60405193846113cf565b829480845260208094019060051b8301928284116101035780915b84831061153857505050505050565b82356001600160401b03811161010357820184601f82011215610103578691611567868385809535910161140b565b815201920191611529565b35906001600160401b038216820361010357565b356001600160401b03811681036101035790565b9060016001600160401b03809316019182116115b257565b634e487b7160e01b600052601160045260246000fd5b9190916001600160401b03808094169116019182116115b257565b9035603e1982360301811215610103570190565b6001600160401b039190604082018361160f83611572565b16835260209182810135601e19823603018112156101035701928284359401948411610103578360051b36038513610103576040818401529083905260600192919060005b828110611662575050505090565b909192938280600192838060a01b0361167a89611489565b16815201950193929101611654565b9035601e19823603018112156101035701602081359101916001600160401b03821161010357813603831361010357565b908060209392818452848401376000828201840152601f01601f1916010190565b6117046116f96116eb83806115e3565b6040855260408501906115f7565b9160208101906115e3565b91602081830391015281359160ff8316809303610103576117316040916117419484526020810190611689565b91909281602082015201916116ba565b90565b90918092808252602080920191808260051b86010194846000915b848310611770575050505050505090565b90919293949596601f1982820301875261178a88846115e3565b90813560de1983360301811215610103578201916040908183526117ae84806115e3565b6117c460e09182858701526101208601906116db565b926117d18a8701876115e3565b6001600160401b036118066117f4603f1997606094898b830301868c01526116db565b926080948a0135858a01528901611572565b169160a092838801528701359263ffffffff60e01b8416809403610103578b9561183c61184c9460c096878b01528a018a611689565b92909189850301908901526116ba565b94013561010084015201359081151580920361010357860152968401958401949392600101919061175f565b9060808061189761188985806115e3565b60a0855260a08501906115f7565b936001600160401b03806118ad60208401611572565b166020860152604082013560408601526118c960608301611572565b166060850152013591015290565b8181106118e2575050565b600081556001016118d7565b6004548110156119255760046000527f8a35acfbc15ff81a39ae7d344fd709f28e8600b4aa8c65c6b64bfe7fe36bd19b0190600090565b634e487b7160e01b600052603260045260246000fd5b601f5481101561192557601f6000527fa03837a25210ee280c2113ff4b77ca23440b19d4866cca721c801278fd08d8070190600090565b60008181526020805260408120546119d457601f54600160401b81101561134d5790826119c16119aa84600160409601601f5561193b565b819391549060031b91821b91600019901b19161790565b9055601f54928152602080522055600190565b905090565b91906001830160009082825280602052604082205415600014611a5857845494600160401b861015611a445760018601808255861015611a3057836040949596828552602085200155549382526020522055600190565b634e487b7160e01b83526032600452602483fd5b634e487b7160e01b83526041600452602483fd5b50925050565b90600182811c92168015611a8e575b6020831014611a7857565b634e487b7160e01b600052602260045260246000fd5b91607f1691611a6d565b9060009291805491611aa983611a5e565b918282526001938481169081600014611b0b5750600114611acb575b50505050565b90919394506000526020928360002092846000945b838610611af7575050505001019038808080611ac5565b805485870183015294019385908201611ae0565b9294505050602093945060ff191683830152151560051b01019038808080611ac5565b9190601f8111611b3d57505050565b611b69926000526020600020906020601f840160051c83019310611b6b575b601f0160051c01906118d7565b565b9091508190611b5c565b90808214611c4f57611b878154611a5e565b906001600160401b038211611383578190611bac82611ba68654611a5e565b86611b2e565b600090601f8311600114611be357600092611bd8575b50508160011b916000199060031b1c1916179055565b015490503880611bc2565b81526020808220858352818320935090601f1985169083905b828210611c36575050908460019594939210611c1d575b505050811b019055565b015460001960f88460031b161c19169055388080611c13565b8495819295850154815560018091019601940190611bfc565b5050565b6017546001600160401b0382811692908083168410611c7e5760405163040aaa0560e11b8152600490fd5b808360401c168410611ac55780604093841c165b848282161115611cf957505091602091611ccc7f246f00b61ce672242f33bb680a47147cd54d3dfd04dbb76956ba42f88087bf639461159a565b67ffffffffffffffff60401b60175491831b169067ffffffffffffffff60401b19161760175551908152a1565b611d16816001600160401b03166000526018602052604060002090565b60028181015482546001600160a01b03949293918516919060ff166003811015611f52578695818603611da85750506001600160a01b039091166000908152601060205260409020611d6d91600101908401611b75565b611d8a816001600160401b03166000526018602052604060002090565b91600090818455600193611d9f858201611ff4565b01550116611c92565b919394955091885193611dca85611dc3816001809501611a98565b03866113cf565b602080868051810103126101035781818c9701519514600014611f07578490611df3828561203d565b601954611e009043611f67565b92875190611e0d82611399565b8482528282018481526001600160a01b0387166000908152601a602052604090209091909283549161ffff9384848180961695869160101c1690611e5091611f87565b169c60009d8e5282870188528d209251835551910155611e6f90611f74565b1661ffff198254161790558b519384528301528982015260607f083b080788e20bd0930c2bca2ae4fbc51a59ced08c1b5992271f8cb439498a6391a16009541690813b1561027b578291602483928a5195869384926345f5448560e01b845260048401525af1908115611efc57509084939291611eed575b50611d6d565b611ef690611370565b38611ee7565b8751903d90823e3d90fd5b505082935091611f179192611f9d565b6009541690813b15610103578651916316989f6f60e21b83528260048160009485945af1908115611efc57509084939291611eed5750611d6d565b60246000634e487b7160e01b81526021600452fd5b919082018092116115b257565b90600161ffff809316019182116115b257565b91909161ffff808094169116019182116115b257565b90611b6991611fdf60018060a01b03821692836000526010602052611fc781604060002054611f67565b93600052601060205283604060002055600f54611f67565b600f556120c0565b919082039182116115b257565b611ffe8154611a5e565b9081612008575050565b81601f6000931160011461201a575055565b908083918252612039601f60208420940160051c8401600185016118d7565b5555565b906120a16120a99260018060a01b0381169060008281526010602052612067856040832054611fe7565b92815260106020526040812060018101848154811590816120b7575b50156120ae5750908260029261209c9483555501611ff4565b61242d565b600f54611fe7565b600f55565b9250505561242d565b90501538612083565b919060018060a01b03928381169360008581526020956012875261ffff916040978389832054166123115783600e54168460115416106122dd5786612103612a5e565b919091106122575750828252601581528389832054166121765750505050506121717f19fe3ca603e87854a0747cc10abf06bac64d61bac73d6d15f2fd3ca448f1526493946121518361275b565b516001600160a01b03909216825260208201929092529081906040820190565b0390a1565b61218586959994989796612f75565b92825260109081815284832054935b6001808b831611156122215781617fff911c1690818552601683528b87862054168552838352858786205410156121d4576121cf90826130d4565b612194565b505093516001600160a01b0390951685525050505060208101919091529092507fda148fac2e1063174be7bc0895576bdaba90fd14e575463fa26a967cb895cadd91508060408101612171565b50505050505061217191929395507fda148fac2e1063174be7bc0895576bdaba90fd14e575463fa26a967cb895cadd9450612151565b9596506121719450906015899493927ffaeb8de771b867cf357f6b459a7002b62ec45d544a8078a3ecd91200cc826d75999a93612292612c2d565b8352522054166122cf575b6122a684612bbb565b6122af8361275b565b516001600160a01b03928316815292909116602083015281906040820190565b6122d884612948565b61229d565b50505050506121717f2e8038f5812f763c6ef0c5427cb5a05ce6d7064af2ba7d1d270bc02660b019fd939461215183612bbb565b612322869598979699949399612f3e565b98825260109081815284832054986123398b612b4a565b8560115416905b8681168281116123f557828110156123d857508061236061236692611f74565b90612eec565b9c909c5b8c11156123895761237b908d61303b565b6123848c612b4a565b612340565b505094516001600160a01b0390961686525050505060208201929092529193507f143db27bc2036653dc6f962ff9d0b803163d4af50c256ca9e6927b3d6dcd0197925081905060408101612171565b869d919d526013845282888720541686528484528786205461236a565b505050505050505061217191929395507f143db27bc2036653dc6f962ff9d0b803163d4af50c256ca9e6927b3d6dcd01979450612151565b9160018060a01b0392838116926000918483526020946015865261ffff9060409482868220541661261c57818152601288528286822054161561260b5784156125865761247984612f3e565b918152601080895286822054925b60018086831611156125755781617fff911c169081845260138b528b89852054168452828b52848985205411156124c7576124c2908261303b565b612487565b5050505050919395509193505b6014541615612570576124e5612a5e565b906124ee612aa8565b90921061253757505091516001600160a01b03909216825260208201527f143db27bc2036653dc6f962ff9d0b803163d4af50c256ca9e6927b3d6dcd0197908060408101612171565b915091506121717ffaeb8de771b867cf357f6b459a7002b62ec45d544a8078a3ecd91200cc826d7593612568612c2d565b61229d6127e1565b505050565b5050505050919395509193506124d4565b50916125b9919597507f4a4c5d1a281180eea1e99d8177fa4798b9f7e019d5c57e7d8d73c6a22199aa5b94969350612d76565b8451908152a1601454166125ca5750565b6121717f2e8038f5812f763c6ef0c5427cb5a05ce6d7064af2ba7d1d270bc02660b019fd916125f7612aa8565b9290916126026127e1565b61215183612bbb565b8551632a55ca5360e01b8152600490fd5b90939596869893959815612722579261fffe92949361263a87612f75565b9483526010918282528a8420549580976001968792831b168160145416925b6126ae575b50509a516001600160a01b039098168852505050506020840194909452509293507fda148fac2e1063174be7bc0895576bdaba90fd14e575463fa26a967cb895cadd925090508060408101612171565b81811683811161271c578e9080851115612700575050806126d16126d792611f74565b90612b61565b9990995b8910156126fb576126ec908a6130d4565b6126f589612b4a565b87612659565b61265e565b885260168652872054841687528585528d8720549099906126db565b5061265e565b955050505090936127547f3168ba660eed6ef1dc2258b2247cc05fd0f2f350d39e6ad2e2ebc76a8000b40b9495612948565b51908152a1565b611b6990604061ffff6127718160145416611f74565b9260018060a01b031660009181835260156020528383209085169061ffff199082828254161790558184526016602052848420836001600160601b0360a01b825416179055601454161760145581526010602052205490612af2565b61ffff90811660001901919082116115b257565b61ffff806014541680156129365760016127fd8282111561301e565b6000818152601660208181526040808420805487865282862080546001600160a01b0392831680895260158752858920805461ffff199081168d17909155918416808a52868a20805484168c17905588885283546001600160a01b0319908116909217909355898952845416909117909255939691949392916128939189612884836127cd565b16906014541617601455612f9a565b8483528581528184842054168352601091828252848420549686809960028160145416925b6128cb575b505050505050505050505050565b81811683811161293057838110156129145750806126d16128eb92611f74565b9b909b5b8b101561290f57612900908c6130d4565b6129098b612b4a565b896128b8565b6128bd565b889c919c528386528489892054168852868652888820546128ef565b506128bd565b6040516340d9b01160e01b8152600490fd5b61295190612f75565b61ffff80601454169061296482846130d4565b8061296e836127cd565b1661ffff19601454161760145561298482612f9a565b80831680921461257057919061fffe906000818152601691602083815260018060a01b0360409481868620541685526010938484526129c6878720548a612af2565b85528083528186862054168552838352858520549780996001988992831b168160145416925b6129fe57505050505050505050505050565b8181168381116129305783811015612a425750806126d1612a1e92611f74565b9b909b5b8b101561290f57612a33908c6130d4565b612a3c8b612b4a565b896129ec565b889c919c52838652848989205416885286865288882054612a22565b61ffff6011541615612936577f4155c2f711f2cdd34f8262ab8fb9b7020a700fe7b6948222152f7670d1fdf34d546001600160a01b03166000818152601060205260409020549091565b61ffff6014541615612936577f4c4dc693d7db52f85fe052106f4b4b920e78e8ef37dee82878a60ab8585faf49546001600160a01b03166000818152601060205260409020549091565b9190915b60018061ffff83161115612b445781617fff911c169083600083815260209060168252601060409260018060a01b03848420541683525220541015612b4457612b3f90826130d4565b612af6565b50509050565b60011b906201fffe61fffe8316921682036115b257565b91909161ffff92604060008584168152601660205260018060a01b03808383205416825260106020528282205496841682526016602052828220541681526010602052205490818510612bb45750509190565b9350919050565b611b6990604061ffff612bd18160115416611f74565b9260018060a01b031660009181835260126020528383209085169061ffff199082828254161790558184526013602052848420836001600160601b0360a01b825416179055601154161760115581526010602052205490612e9a565b61ffff80601154168015612936576001612c498282111561301e565b6000818152601360208181526040808420805487865282862080546001600160a01b0392831680895260128752858920805461ffff199081168d17909155918416808a52868a20805484168c17905588885283546001600160a01b031990811690921790935589895284541690911790925593969194939291612cdf9189612cd0836127cd565b16906011541617601155612fdc565b8483528581528184842054168352601091828252848420549686809960028160115416925b612d1657505050505050505050505050565b8181168381116129305783811015612d5a575080612360612d3692611f74565b9b909b5b8b111561290f57612d4b908c61303b565b612d548b612b4a565b89612d04565b889c919c52838652848989205416885286865288882054612d3a565b612d7f90612f3e565b9061ffff90816011541691612d94838561303b565b80612d9e846127cd565b1661ffff196011541617601155612db483612fdc565b808416809314612e945760009280845260139360209185835260018060a01b03926040938085852054168452601092838352612df3868620548b612e9a565b845287825280858520541684528282528484205497612e118a612b4a565b8760115416905b888116828111612e855782811015612e69575080612360612e3892611f74565b9b909b5b8b1115612e5b57612e4d908c61303b565b612e568b612b4a565b612e18565b505050505050505050915050565b879c919c52828552838888205416875285855287872054612e3c565b50505050505050505050915050565b50915050565b9190915b60018061ffff83161115612b445781617fff911c169083600083815260209060138252601060409260018060a01b03848420541683525220541115612b4457612ee7908261303b565b612e9e565b919061ffff604060008286168152601360205260018060a01b0380838320541682526010602052828220549385168252601360205282822054168152601060205220549384821115612bb45750509190565b6001600160a01b031660009081526012602052604090205461ffff16908115612f6357565b60405163f2755e3760e01b8152600490fd5b6001600160a01b031660009081526015602052604090205461ffff16908115612f6357565b61ffff16600090815260166020908152604080832080546001600160a01b031981169091556001600160a01b0316835260159091529020805461ffff19169055565b61ffff16600090815260136020908152604080832080546001600160a01b031981169091556001600160a01b0316835260129091529020805461ffff19169055565b1561302557565b634e487b7160e01b600052600160045260246000fd5b61306061ffff8080601154169316936130568486111561301e565b169182111561301e565b6000828152601360208181526040808420805486865282862080546001600160a01b0392831680895260128752858920805461ffff19908116909b1790559216808852938720805490981689179097559390925284546001600160a01b031990811690931790945593909152825416179055565b6130ef61ffff8080601454169316936130568486111561301e565b6000828152601660208181526040808420805486865282862080546001600160a01b0392831680895260158752858920805461ffff19908116909b1790559216808852938720805490981689179097559390925284546001600160a01b031990811690931790945593909152825416179055565b8147106131c5576000918291829182916001600160a01b03165af13d156131c0573d61318e816113f0565b9061319c60405192836113cf565b8152600060203d92013e5b156131ae57565b604051630a12f52160e11b8152600490fd5b6131a7565b60405163cd78605960e01b8152306004820152602490fd5b600154811015611925576003906001600052027fb10e2d527612073b26eecdfd717e6a320cf44b4afac2b0732d9fcbe2b7fa0cf60190600090565b9061322d906132278184613406565b82611f9d565b60ff600d5460081c161561323e5750565b60018054600082815b8381106133d5575b50501561325b57505050565b6001600160a01b038316600090815260106020526040902080546132af9490916002016040519261328b846113b4565b83526020936132b68585019260018060a01b03809516845260405198898092611a98565b03886113cf565b60408401968752600160401b8110156113835780866132d7920187556131dd565b9290926133bf576002935183558583019151166001600160601b0360a01b825416179055019251908151916001600160401b038311611383576133248361331e8754611a5e565b87611b2e565b81601f841160011461335d5750928293918392600094613352575b50501b916000199060031b1c1916179055565b01519250388061333f565b919083601f1981168760005284600020946000905b888383106133a5575050501061338c57505050811b019055565b015160001960f88460031b161c19169055388080611c13565b858701518855909601959485019487935090810190613372565b634e487b7160e01b600052600060045260246000fd5b816133df826131dd565b5001546001600160a01b038781169116146133fc57018390613247565b509050823861324f565b60018060a01b031660005260106020526134296001604060002001918254611f67565b9055565b919060409283516020838183015280825261344782611399565b6001600160401b03806017541691875197613461896113b4565b600092838a52828a0199868b528281019060018060a01b0390818a169c8d845288885260188752858820915160038110156136235760ff80198454169116178255600180830191519081519187831161360f576134c283611ba68654611a5e565b89908b601f85116001146135a15793600295938193829360809d9c9b9a999794613596575b50501b916000199060031b1c19161790555b019151166001600160601b0360a01b8254161790556135178661159a565b166001600160401b03196017541617601755805199848b52838b01528901528351938460808a0152825b858110613582575050508683819360a093846000805160206140e583398151915297611b699b9c0101526060830152601f80199101168101030190a1613406565b8181018301518a820160a001528201613541565b0151925038806134e7565b50848c528a8c209293929190601f1984168d5b8d8282106135fb5750509160809b9a999897959391856002989694106135e2575b505050811b0190556134f9565b015160001960f88460031b161c191690553880806135d5565b8385015186559487019493840193016135b4565b634e487b7160e01b8b52604160045260248bfd5b634e487b7160e01b89526021600452602489fd5b60ff600d5460181c1661364657565b60405163248c8efb60e11b8152600490fd5b600d5460ff8160101c16610ec5573415610eb35733600090815260106020526040902060010154156136a35760081c60ff161561369957611b69343361342d565b611b693433613218565b60405163528fc16560e01b8152600490fd5b600d5460ff8160101c16610ec557811561372757336000908152601060205260409020600101548015611291578210156137165760081c60ff16156136fe57611b69903361378c565b8061370c611b699233613739565b6108db813361203d565b60405162d11df360e61b8152600490fd5b60405163c79cad7b60e01b8152600490fd5b6001600160a01b0316600081815260106020526040902060010154909180821061377a5761376691611fe7565b906000526010602052600160406000200155565b60405163ac69360360e01b8152600490fd5b919060405192816020850152602084526137a584611399565b6001600160401b03806017541690604051916137c0836113b4565b60018352602083019187835260018060a01b03938486166040820152600093838552601860205260408520908251600381101561398d5760ff8019845416911617825551805184811161397957908291600189940191613824826111d48554611a5e565b602090601f831160011461390c57918060029492604096948c92613901575b50508160011b916000199060031b1c19161790555b01920151166001600160601b0360a01b8254161790556138778261159a565b166001600160401b0319601754161760175560405192600184528416602084015260806040840152865191826080850152805b8381106138eb5750611b69969750928260a0926000805160206140e583398151915295848496850101526060830152601f80199101168101030190a1613739565b80602080928b01015160a08288010152016138aa565b015190503880613843565b838a5260208a209190601f1984168b5b81811061395e5750926001928592604098966002989610613945575b505050811b019055613858565b015160001960f88460031b161c19169055388080613938565b8284015185558d98506001909401936020938401930161391c565b634e487b7160e01b87526041600452602487fd5b634e487b7160e01b87526021600452602487fd5b600d5460ff8160081c169081613a96575b50610ec557336000908152601060205260409020600101548015611291576139d933613aa4565b50600090338252601e60205281604081206139f48154611a5e565b80613a59575b50505060ff600d5460081c1615613a1657611b6991503361378c565b6040611b69923381526003602052205480613a37575b5061370c8133613739565b80613a47613a5392600254611fe7565b6002556108db33613ffd565b38613a2c565b82601f8211600114613a71575050555b8138806139fa565b9091808252613a8f601f60208420940160051c8401600185016118d7565b5555613a69565b60ff915060101c16386139b2565b600081815260208080526040822054919290918015613b855760001990808201818111613b7157601f5490838201918211613b5d57808203613b2b575b505050601f548015613b1757810190613af98261193b565b909182549160031b1b19169055601f55825280526040812055600190565b634e487b7160e01b85526031600452602485fd5b613b49613b3a6119aa9361193b565b90549060031b1c92839261193b565b905585528380526040852055388080613ae1565b634e487b7160e01b87526011600452602487fd5b634e487b7160e01b86526011600452602486fd5b50505090565b80518210156119255760209160051b010190565b8115611c4f576001600160401b0390818060075416911603908082116115b257600091168152602090601d8252604090818120928251808583829754938481520190855283852092855b85828210613c6157505050613c00925003856113cf565b8351948515613c5957858110613c595785900493825b868110613c265750505050505050565b6001906001600160a01b03613c3b8285613b8b565b51168552601c8452858520613c51888254611f67565b905501613c16565b505050505050565b855484526001958601958a955093019201613be9565b91825191613c8483611472565b93604094613c94865191826113cf565b848152601f19613ca386611472565b0194602095368784013760005b818110613d9557505060009461ffff8060115416600192839182945b613d3f575b505050505060ff60095460a01c16948581029581870414901517156115b2576064613cfd950491613e22565b9015613d07575050565b6007811015613d295760ff602492519163282ef1c160e01b8352166004820152fd5b634e487b7160e01b600052602160045260246000fd5b90919293988a858b16838111613d8d57600090815260138552908120546001600160a01b031681526010602052604090208493929186918591613d83915490611f67565b9b01169493613ccc565b505098613cd1565b6001600160a01b0380613da88387613b8b565b51166000526012885261ffff89600020541615613dfe5790613dec600192613dd08388613b8b565b51166001600160a01b0316600090815260106020526040902090565b54613df78286613b8b565b5201613cb0565b8890613e0c60249387613b8b565b519151633b4f6e2b60e21b815291166004820152fd5b84519294600094908415613f245782518514801590613f19575b613f0c579392919085945b848610613e6a575050505050501015613e6257600090600690565b600190600090565b909192939495613e84613e7d8884613b8b565b5184613f31565b509060049182811015613ef757613ee5576001600160a01b0380613ea88b89613b8b565b5116911603613ed55750613ec9600191613ec28988613b8b565b5190611f67565b96019493929190613e47565b9897505050505050505060009190565b50505050505050505050600090600590565b602183634e487b7160e01b6000525260246000fd5b5050505050905090600190565b508351851415613e3c565b5050505050905090600290565b8151919060418303613f6257613f5b92506020820151906060604084015193015160001a90613f6d565b9192909190565b505060009160029190565b91907f7fffffffffffffffffffffffffffffff5d576e7357a4501ddfe92f46681b20a08411613ff157926020929160ff608095604051948552168484015260408301526060820152600092839182805260015afa15613fe55780516001600160a01b03811615613fdc57918190565b50809160019190565b604051903d90823e3d90fd5b50505060009160039190565b60049081549160005b8381106140135750505050565b61401c816118ee565b90546003916001600160a01b039190831b1c811685821614614042575050600101614006565b9293509390600019918281019081116140cf579061407384614066614092946118ee565b905490891b1c16916118ee565b90919082549060031b9160018060a01b03809116831b921b1916179055565b825480156140ba5701926140a5846118ee565b81939154921b1b191690555538808080611ac5565b603184634e487b7160e01b6000525260246000fd5b601185634e487b7160e01b6000525260246000fdfe1c593a2b803c3f9038e8b6743ba79fbc4276d2770979a01d2768ed12bea3243f691bb03ffc16c56fc96b82fd16cd1b3715f0bc3cdc6407005f49bb6205860095a26469706673582212201bd328937014623bc18771973bb438b33ffd886c29c6d3abecc351703dc724cc64736f6c63430008130033","linkReferences":{"src/lib/LibStaking.sol":{"LibStaking":[{"start":344,"length":20}]}}},"methodIdentifiers":{"addBootstrapNode(string)":"10fd4261","claim()":"4e71d92d","claimRewardForRelayer()":"ed7c4da1","distributeRewardToRelayers(uint64,uint256)":"f9002bb1","join(bytes)":"6170b162","kill()":"41c0e1b5","leave()":"d66d9e19","preFund()":"0b7fbe60","preRelease(uint256)":"66783c9b","stake()":"3a4b66f1","submitCheckpoint(((uint64,address[]),uint64,bytes32,uint64,bytes32),((((uint64,address[]),(uint8,bytes)),((uint64,address[]),(uint8,bytes)),uint256,uint64,bytes4,bytes,uint256),bool)[],address[],bytes[])":"a8284de3","unstake(uint256)":"2e17de78","validateActiveQuorumSignatures(address[],bytes32,bytes[])":"cc2dc2b9"},"id":75}