{"abi":[{"type":"function","name":"addBootstrapNode","inputs":[{"name":"netAddress","type":"string","internalType":"string"}],"outputs":[],"stateMutability":"nonpayable"},{"type":"function","name":"claim","inputs":[],"outputs":[],"stateMutability":"nonpayable"},{"type":"function","name":"claimRewardForRelayer","inputs":[],"outputs":[],"stateMutability":"nonpayable"},{"type":"function","name":"distributeRewardToRelayers","inputs":[{"name":"height","type":"uint64","internalType":"uint64"},{"name":"reward","type":"uint256","internalType":"uint256"}],"outputs":[],"stateMutability":"payable"},{"type":"function","name":"join","inputs":[{"name":"publicKey","type":"bytes","internalType":"bytes"}],"outputs":[],"stateMutability":"payable"},{"type":"function","name":"kill","inputs":[],"outputs":[],"stateMutability":"nonpayable"},{"type":"function","name":"leave","inputs":[],"outputs":[],"stateMutability":"nonpayable"},{"type":"function","name":"preFund","inputs":[],"outputs":[],"stateMutability":"payable"},{"type":"function","name":"preRelease","inputs":[{"name":"amount","type":"uint256","internalType":"uint256"}],"outputs":[],"stateMutability":"nonpayable"},{"type":"function","name":"stake","inputs":[],"outputs":[],"stateMutability":"payable"},{"type":"function","name":"submitCheckpoint","inputs":[{"name":"checkpoint","type":"tuple","internalType":"struct BottomUpCheckpoint","components":[{"name":"subnetID","type":"tuple","internalType":"struct SubnetID","components":[{"name":"root","type":"uint64","internalType":"uint64"},{"name":"route","type":"address[]","internalType":"address[]"}]},{"name":"blockHeight","type":"uint64","internalType":"uint64"},{"name":"blockHash","type":"bytes32","internalType":"bytes32"},{"name":"nextConfigurationNumber","type":"uint64","internalType":"uint64"},{"name":"crossMessagesHash","type":"bytes32","internalType":"bytes32"}]},{"name":"messages","type":"tuple[]","internalType":"struct CrossMsg[]","components":[{"name":"message","type":"tuple","internalType":"struct StorableMsg","components":[{"name":"from","type":"tuple","internalType":"struct IPCAddress","components":[{"name":"subnetId","type":"tuple","internalType":"struct SubnetID","components":[{"name":"root","type":"uint64","internalType":"uint64"},{"name":"route","type":"address[]","internalType":"address[]"}]},{"name":"rawAddress","type":"tuple","internalType":"struct FvmAddress","components":[{"name":"addrType","type":"uint8","internalType":"uint8"},{"name":"payload","type":"bytes","internalType":"bytes"}]}]},{"name":"to","type":"tuple","internalType":"struct IPCAddress","components":[{"name":"subnetId","type":"tuple","internalType":"struct SubnetID","components":[{"name":"root","type":"uint64","internalType":"uint64"},{"name":"route","type":"address[]","internalType":"address[]"}]},{"name":"rawAddress","type":"tuple","internalType":"struct FvmAddress","components":[{"name":"addrType","type":"uint8","internalType":"uint8"},{"name":"payload","type":"bytes","internalType":"bytes"}]}]},{"name":"value","type":"uint256","internalType":"uint256"},{"name":"nonce","type":"uint64","internalType":"uint64"},{"name":"method","type":"bytes4","internalType":"bytes4"},{"name":"params","type":"bytes","internalType":"bytes"},{"name":"fee","type":"uint256","internalType":"uint256"}]},{"name":"wrapped","type":"bool","internalType":"bool"}]},{"name":"signatories","type":"address[]","internalType":"address[]"},{"name":"signatures","type":"bytes[]","internalType":"bytes[]"}],"outputs":[],"stateMutability":"nonpayable"},{"type":"function","name":"unstake","inputs":[{"name":"amount","type":"uint256","internalType":"uint256"}],"outputs":[],"stateMutability":"nonpayable"},{"type":"function","name":"validateActiveQuorumSignatures","inputs":[{"name":"signatories","type":"address[]","internalType":"address[]"},{"name":"hash","type":"bytes32","internalType":"bytes32"},{"name":"signatures","type":"bytes[]","internalType":"bytes[]"}],"outputs":[],"stateMutability":"view"},{"type":"event","name":"ActiveValidatorCollateralUpdated","inputs":[{"name":"validator","type":"address","indexed":false,"internalType":"address"},{"name":"newCollateral","type":"uint256","indexed":false,"internalType":"uint256"}],"anonymous":false},{"type":"event","name":"ActiveValidatorLeft","inputs":[{"name":"validator","type":"address","indexed":false,"internalType":"address"}],"anonymous":false},{"type":"event","name":"ActiveValidatorReplaced","inputs":[{"name":"oldValidator","type":"address","indexed":false,"internalType":"address"},{"name":"newValidator","type":"address","indexed":false,"internalType":"address"}],"anonymous":false},{"type":"event","name":"BottomUpCheckpointExecuted","inputs":[{"name":"epoch","type":"uint64","indexed":false,"internalType":"uint64"},{"name":"submitter","type":"address","indexed":false,"internalType":"address"}],"anonymous":false},{"type":"event","name":"BottomUpCheckpointSubmitted","inputs":[{"name":"checkpoint","type":"tuple","indexed":false,"internalType":"struct BottomUpCheckpoint","components":[{"name":"subnetID","type":"tuple","internalType":"struct SubnetID","components":[{"name":"root","type":"uint64","internalType":"uint64"},{"name":"route","type":"address[]","internalType":"address[]"}]},{"name":"blockHeight","type":"uint64","internalType":"uint64"},{"name":"blockHash","type":"bytes32","internalType":"bytes32"},{"name":"nextConfigurationNumber","type":"uint64","internalType":"uint64"},{"name":"crossMessagesHash","type":"bytes32","internalType":"bytes32"}]},{"name":"submitter","type":"address","indexed":false,"internalType":"address"}],"anonymous":false},{"type":"event","name":"CollateralClaimed","inputs":[{"name":"validator","type":"address","indexed":false,"internalType":"address"},{"name":"amount","type":"uint256","indexed":false,"internalType":"uint256"}],"anonymous":false},{"type":"event","name":"ConfigurationNumberConfirmed","inputs":[{"name":"number","type":"uint64","indexed":false,"internalType":"uint64"}],"anonymous":false},{"type":"event","name":"NewActiveValidator","inputs":[{"name":"validator","type":"address","indexed":false,"internalType":"address"},{"name":"collateral","type":"uint256","indexed":false,"internalType":"uint256"}],"anonymous":false},{"type":"event","name":"NewCollateralRelease","inputs":[{"name":"validator","type":"address","indexed":false,"internalType":"address"},{"name":"amount","type":"uint256","indexed":false,"internalType":"uint256"},{"name":"releaseBlock","type":"uint256","indexed":false,"internalType":"uint256"}],"anonymous":false},{"type":"event","name":"NewStakingChangeRequest","inputs":[{"name":"op","type":"uint8","indexed":false,"internalType":"enum StakingOperation"},{"name":"validator","type":"address","indexed":false,"internalType":"address"},{"name":"payload","type":"bytes","indexed":false,"internalType":"bytes"},{"name":"configurationNumber","type":"uint64","indexed":false,"internalType":"uint64"}],"anonymous":false},{"type":"event","name":"NewWaitingValidator","inputs":[{"name":"validator","type":"address","indexed":false,"internalType":"address"},{"name":"collateral","type":"uint256","indexed":false,"internalType":"uint256"}],"anonymous":false},{"type":"event","name":"NextBottomUpCheckpointExecuted","inputs":[{"name":"epoch","type":"uint64","indexed":false,"internalType":"uint64"},{"name":"submitter","type":"address","indexed":false,"internalType":"address"}],"anonymous":false},{"type":"event","name":"SubnetBootstrapped","inputs":[{"name":"","type":"tuple[]","indexed":false,"internalType":"struct Validator[]","components":[{"name":"weight","type":"uint256","internalType":"uint256"},{"name":"addr","type":"address","internalType":"address"},{"name":"metadata","type":"bytes","internalType":"bytes"}]}],"anonymous":false},{"type":"event","name":"WaitingValidatorCollateralUpdated","inputs":[{"name":"validator","type":"address","indexed":false,"internalType":"address"},{"name":"newCollateral","type":"uint256","indexed":false,"internalType":"uint256"}],"anonymous":false},{"type":"event","name":"WaitingValidatorLeft","inputs":[{"name":"validator","type":"address","indexed":false,"internalType":"address"}],"anonymous":false},{"type":"error","name":"AddressInsufficientBalance","inputs":[{"name":"account","type":"address","internalType":"address"}]},{"type":"error","name":"AddressShouldBeValidator","inputs":[]},{"type":"error","name":"CannotConfirmFutureChanges","inputs":[]},{"type":"error","name":"CannotReleaseZero","inputs":[]},{"type":"error","name":"CollateralIsZero","inputs":[]},{"type":"error","name":"EmptyAddress","inputs":[]},{"type":"error","name":"FailedInnerCall","inputs":[]},{"type":"error","name":"InvalidCheckpointEpoch","inputs":[]},{"type":"error","name":"InvalidCheckpointMessagesHash","inputs":[]},{"type":"error","name":"InvalidPublicKeyLength","inputs":[]},{"type":"error","name":"InvalidSignatureErr","inputs":[{"name":"","type":"uint8","internalType":"uint8"}]},{"type":"error","name":"MethodNotAllowed","inputs":[]},{"type":"error","name":"NoCollateralToWithdraw","inputs":[]},{"type":"error","name":"NotAllValidatorsHaveLeft","inputs":[]},{"type":"error","name":"NotEnoughBalance","inputs":[]},{"type":"error","name":"NotEnoughCollateral","inputs":[]},{"type":"error","name":"NotEnoughFunds","inputs":[]},{"type":"error","name":"NotGateway","inputs":[]},{"type":"error","name":"NotOwnerOfPublicKey","inputs":[]},{"type":"error","name":"NotStakedBefore","inputs":[]},{"type":"error","name":"NotValidator","inputs":[{"name":"","type":"address","internalType":"address"}]},{"type":"error","name":"PQDoesNotContainAddress","inputs":[]},{"type":"error","name":"PQEmpty","inputs":[]},{"type":"error","name":"ReentrancyError","inputs":[]},{"type":"error","name":"SubnetAlreadyBootstrapped","inputs":[]},{"type":"error","name":"SubnetAlreadyKilled","inputs":[]},{"type":"error","name":"WithdrawExceedingCollateral","inputs":[]}],"bytecode":{"object":"0x608060405234801561001057600080fd5b506143d6806100206000396000f3fe6080604052600436106100c25760003560e01c80636170b1621161007f578063cc2dc2b911610059578063cc2dc2b914610196578063d66d9e19146101b6578063ed7c4da1146101cb578063f9002bb1146101e057600080fd5b80636170b1621461014357806366783c9b14610156578063a8284de31461017657600080fd5b80630b7fbe60146100c757806310fd4261146100d15780632e17de78146100f15780633a4b66f11461011157806341c0e1b5146101195780634e71d92d1461012e575b600080fd5b6100cf6101f3565b005b3480156100dd57600080fd5b506100cf6100ec3660046132e8565b6102d6565b3480156100fd57600080fd5b506100cf61010c366004613338565b610350565b6100cf61041e565b34801561012557600080fd5b506100cf6104c6565b34801561013a57600080fd5b506100cf61056b565b6100cf610151366004613351565b6105b0565b34801561016257600080fd5b506100cf610171366004613338565b6107e5565b34801561018257600080fd5b506100cf610191366004613406565b610904565b3480156101a257600080fd5b506100cf6101b13660046135b0565b610c6d565b3480156101c257600080fd5b506100cf610cfe565b3480156101d757600080fd5b506100cf610e50565b6100cf6101ee36600461368f565b610eef565b3460000361021457604051631036b5ad60e31b815260040160405180910390fd5b600d54610100900460ff161561023d57604051631b39f2f360e11b815260040160405180910390fd5b33600090815260036020526040812054900361029657600480546001810182556000919091527f8a35acfbc15ff81a39ae7d344fd709f28e8600b4aa8c65c6b64bfe7fe36bd19b0180546001600160a01b031916331790555b33600090815260036020526040812080543492906102b59084906136d1565b9091555050600280543491906000906102cf9084906136d1565b9091555050565b6102e1600e33610fdf565b61030557604051633b4f6e2b60e21b81523360048201526024015b60405180910390fd5b805160000361032757604051637138356f60e01b815260040160405180910390fd5b336000908152601e602052604090206103408282613781565b5061034c601f33610ff7565b5050565b61035861100c565b600d5462010000900460ff1615610382576040516341f8b8eb60e11b815260040160405180910390fd5b806000036103a35760405163c79cad7b60e01b815260040160405180910390fd5b33600090815260106020526040812060010154908190036103d957604051633b4f6e2b60e21b81523360048201526024016102fc565b8181116103f85760405162d11df360e61b815260040160405180910390fd5b600d54610100900460ff166104115761034c3383611037565b61034c338361106b565b50565b61042661100c565b600d5462010000900460ff1615610450576040516341f8b8eb60e11b815260040160405180910390fd5b3460000361047157604051635a78c58160e11b815260040160405180910390fd5b336000908152601060205260409020600101546104a15760405163528fc16560e01b815260040160405180910390fd5b600d54610100900460ff166104bc576104ba3334611087565b565b6104ba3334611255565b6104ce61100c565b6104d6611271565b61ffff16156104f857604051636b62255160e11b815260040160405180910390fd5b600d805463ff00000019166301000000179055600954604080516341c0e1b560e01b815290516001600160a01b03909216916341c0e1b59160048082019260009290919082900301818387803b15801561055157600080fd5b505af1158015610565573d6000803e3d6000fd5b50505050565b60008051602061438183398151915280546000190161059d576040516329f745a760e01b815260040160405180910390fd5b600181556105aa33611293565b60009055565b6000805160206143818339815191528054600019016105e2576040516329f745a760e01b815260040160405180910390fd5b600181556105ee61100c565b600d54610100900460ff16801561060d5750600d5462010000900460ff165b1561062b576040516341f8b8eb60e11b815260040160405180910390fd5b3460000361064c57604051635a78c58160e11b815260040160405180910390fd5b6041821461066d576040516318dca5e960e21b815260040160405180910390fd5b600061067984846112ec565b90506001600160a01b03811633146106a457604051634be9251d60e11b815260040160405180910390fd5b600d54610100900460ff166107c7576106be33858561132c565b6106c83334611087565b60006106d261133b565b60065490915081106107c157600754600160401b90046001600160401b03166106f9611348565b61ffff16106107c157600d805461ff0019166101001790556040517f4914d88063275a25a13b2df37125e216745d812f94c56504be4bd78cf60c9593906107429060019061383a565b60405180910390a16009546002546001600160a01b039091169063f207564e9061076c90846136d1565b60025460405160e084901b6001600160e01b031916815260048101919091526024016000604051808303818588803b1580156107a757600080fd5b505af11580156107bb573d6000803e3d6000fd5b50505050505b506107dc565b6107d2338585611355565b6107dc3334611255565b50600090555050565b600080516020614381833981519152805460001901610817576040516329f745a760e01b815260040160405180910390fd5b60018155600082900361083d57604051631036b5ad60e31b815260040160405180910390fd5b600d54610100900460ff161561086657604051631b39f2f360e11b815260040160405180910390fd5b336000908152600360205260409020548211156108965760405163569d45cf60e11b815260040160405180910390fd5b33600090815260036020526040812080548492906108b5908490613936565b9091555050600280548391906000906108cf908490613936565b90915550503360009081526003602052604081205490036108f3576108f333611364565b6108fd338361145e565b6000905550565b600754600554610920916001600160401b039081169116613949565b6001600160401b03166109396040890160208a01613969565b6001600160401b03161415801561097357506005546001600160401b03166109676040890160208a01613969565b6001600160401b031614155b156109915760405163fae4eadb60e01b815260040160405180910390fd5b866080013586866040516020016109a9929190613cbb565b60405160208183030381529060405280519060200120146109dd57604051632d7f750360e21b815260040160405180910390fd5b6000876040516020016109f09190613d3e565b60408051601f198184030181529190528051602090910120600754600554919250610a27916001600160401b039182169116613949565b6001600160401b0316610a4060408a0160208b01613969565b6001600160401b031603610bba57610a928585808060200260200160405190810160405280939291908181526020018383602002808284376000920191909152508592506101b1915086905087613d51565b87600080610aa66040840160208501613969565b6001600160401b031681526020810191909152604001600020610ac98282613d82565b50610b03905033601d6000610ae460408d0160208e01613969565b6001600160401b03168152602081019190915260400160002090610ff7565b50610b146040890160208a01613969565b6005805467ffffffffffffffff19166001600160401b0392909216919091179055600954604051637a2b59cf60e11b81526001600160a01b039091169063f456b39e90610b69908b908b908b90600401613ef0565b600060405180830381600087803b158015610b8357600080fd5b505af1158015610b97573d6000803e3d6000fd5b50610bb59250610bb091505060808a0160608b01613969565b6114f5565b610c63565b6005546001600160401b0316610bd660408a0160208b01613969565b6001600160401b031603610c635760008080610bf860408c0160208d01613969565b6001600160401b03166001600160401b03168152602001908152602001600020604051602001610c289190613f16565b604051602081830303815290604052805190602001209050808203610c6157610c5f33601d6000610ae460408e0160208f01613969565b505b505b5050505050505050565b6000610c7a600e85611831565b90506000610c88600e611963565b600954909150600090606490610ca890600160a01b900460ff1684613d6b565b610cb29190613fc6565b9050600080610cc48886858a8a6119ce565b9150915081610c6357806006811115610cdf57610cdf613fe8565b60405163282ef1c160e01b815260ff90911660048201526024016102fc565b600080516020614381833981519152805460001901610d30576040516329f745a760e01b815260040160405180910390fd5b60018155610d3c61100c565b600d54610100900460ff168015610d5b5750600d5462010000900460ff165b15610d79576040516341f8b8eb60e11b815260040160405180910390fd5b3360009081526010602052604081206001015490819003610daf57604051633b4f6e2b60e21b81523360048201526024016102fc565b610dba601f33611b1a565b50336000908152601e60205260408120610dd3916131fd565b600d54610100900460ff16610e3f57336000908152600360205260409020548015610e2e57336000908152600360205260028054839290610e15908490613936565b90915550610e24905033611364565b610e2e338261145e565b610e383383611037565b50506105aa565b610e49338261106b565b5060009055565b600080516020614381833981519152805460001901610e82576040516329f745a760e01b815260040160405180910390fd5b600181556040516382985e0b60e01b815233600482015273__$4a8700ca5e162cb61a0c4650a4871f1ad5$__906382985e0b9060240160006040518083038186803b158015610ed057600080fd5b505af4158015610ee4573d6000803e3d6000fd5b505060009092555050565b610ef7611b2f565b801561034c57600754600090610f16906001600160401b031684613ffe565b6001600160401b0381166000908152601d6020526040812091925090610f3b90611b5a565b80519091506000819003610f50575050505050565b80841015610f5f575050505050565b6000610f6b8286613fc6565b905060005b82811015610fd657816000601c016000868481518110610f9257610f9261401e565b60200260200101516001600160a01b03166001600160a01b031681526020019081526020016000206000828254610fc991906136d1565b9091555050600101610f70565b50505050505050565b6000610fee6003840183611b6e565b90505b92915050565b6000610fee836001600160a01b038416611b94565b600d546301000000900460ff16156104ba5760405163248c8efb60e11b815260040160405180910390fd5b6000611045600e8484611be3565b611053600e82018484611c51565b6110666001600160a01b0384168361145e565b505050565b600061107960178484611d2c565b611066600e82018484611be3565b6000611095600e8484611da8565b6110a3600e82018484611ddf565b600d810154610100900460ff16611066576001810154600090815b8181101561111857856001600160a01b03168460010182815481106110e5576110e561401e565b60009182526020909120600160039092020101546001600160a01b0316036111105760019250611118565b6001016110be565b508161124e576001600160a01b038516600081815260108501602081815260408084208054825160608101845281815280850188905296865293909252600290910180549294929183019161116c906136e4565b80601f0160208091040260200160405190810160405280929190818152602001828054611198906136e4565b80156111e55780601f106111ba576101008083540402835291602001916111e5565b820191906000526020600020905b8154815290600101906020018083116111c857829003601f168201915b505050919092525050600186810180548083018255600091825260209182902084516003909202019081559083015191810180546001600160a01b0319166001600160a01b0390931692909217909155604082015191925082916002820190610c5f9082613781565b5050505050565b600061126360178484611e4c565b611066600e82018484611da8565b601154601454600091829161128d9161ffff9081169116614034565b91505090565b6000806112a1601984611eb9565b604080516001600160a01b0386168152602081018390529192507f197c586353eaed0a1c53e6e540445b94befab8f932c8115d112115ecbeeed51491015b60405180910390a1505050565b6000604182146112fe576112fe61404f565b600061130d8360018187614065565b60405161131b92919061408f565b604051908190039020949350505050565b6000610565600e858585611f31565b600f54600090819061128d565b60008061128d600e611f59565b60006105656017858585611f6a565b60045460005b8181101561106657826001600160a01b0316600060040182815481106113925761139261401e565b6000918252602090912001546001600160a01b0316036114565760046113b9600184613936565b815481106113c9576113c961401e565b600091825260209091200154600480546001600160a01b0390921691839081106113f5576113f561401e565b600091825260209091200180546001600160a01b0319166001600160a01b0392909216919091179055600480548061142f5761142f61409f565b600082815260209020810160001990810180546001600160a01b0319169055019055505050565b60010161136a565b804710156114815760405163cd78605960e01b81523060048201526024016102fc565b6000826001600160a01b03168260405160006040518083038185875af1925050503d80600081146114ce576040519150601f19603f3d011682016040523d82523d6000602084013e6114d3565b606091505b505090508061106657604051630a12f52160e11b815260040160405180910390fd5b60178054600091906001600160401b03908116908416106115295760405163040aaa0560e11b815260040160405180910390fd5b80546001600160401b03600160401b9091048116908416101561154b57505050565b8054600160401b90046001600160401b0316805b846001600160401b0316816001600160401b0316116117c1576001600160401b0381166000908152600184016020526040812060028181015482549293506001600160a01b03169160ff16818111156115ba576115ba613fe8565b036115ef576001600160a01b038116600090815260108701602052604090206002016115e960018401826140b5565b506117ad565b6000826001018054611600906136e4565b80601f016020809104026020016040519081016040528092919081815260200182805461162c906136e4565b80156116795780601f1061164e57610100808354040283529160200191611679565b820191906000526020600020905b81548152906001019060200180831161165c57829003601f168201915b50505050508060200190518101906116919190614181565b90506001835460ff1660028111156116ab576116ab613fe8565b03611731576116be600e88018383611c51565b6116cc601988018383611fe9565b60098701546040516345f5448560e01b8152600481018390526001600160a01b03909116906345f5448590602401600060405180830381600087803b15801561171457600080fd5b505af1158015611728573d6000803e3d6000fd5b505050506117ab565b61173f600e88018383611ddf565b8660090160009054906101000a90046001600160a01b03166001600160a01b0316635a627dbc826040518263ffffffff1660e01b81526004016000604051808303818588803b15801561179157600080fd5b505af11580156117a5573d6000803e3d6000fd5b50505050505b505b6117b7858461207b565b505060010161155f565b506117cd846001613949565b82546fffffffffffffffff00000000000000001916600160401b6001600160401b039283160217835560405190851681527f246f00b61ce672242f33bb680a47147cd54d3dfd04dbb76956ba42f88087bf639060200160405180910390a150505050565b80516060906000816001600160401b038111156118505761185061324b565b604051908082528060200260200182016040528015611879578160200160208202803683370190505b50905060005b8281101561195a576118aa8686838151811061189d5761189d61401e565b6020026020010151610fdf565b6118f1578481815181106118c0576118c061401e565b6020026020010151604051633b4f6e2b60e21b81526004016102fc91906001600160a01b0391909116815260200190565b8560020160008683815181106119095761190961401e565b60200260200101516001600160a01b03166001600160a01b03168152602001908152602001600020600001548282815181106119475761194761401e565b602090810291909101015260010161187f565b50949350505050565b600080611975836003015461ffff1690565b905060015b8161ffff168161ffff16116119c75761ffff811660009081526005850160205260409020546001600160a01b03166119b285826120c2565b6119bc90856136d1565b93505060010161197a565b5050919050565b8051600090819060019082908082036119ef57505015915060029050611b10565b895181141580611a00575088518114155b15611a1357505015915060019050611b10565b60005b81811015611aef57600080611a448a8a8581518110611a3757611a3761401e565b60200260200101516120e0565b5090925090506000816003811115611a5e57611a5e613fe8565b14611a76578515600597509750505050505050611b10565b8c8381518110611a8857611a8861401e565b60200260200101516001600160a01b0316826001600160a01b031614611abb578515600497509750505050505050611b10565b8b8381518110611acd57611acd61401e565b602002602001015185611ae091906136d1565b94508260010192505050611a16565b50878210611b065782600094509450505050611b10565b5050159150600690505b9550959350505050565b6000610fee836001600160a01b03841661212d565b6009546001600160a01b031633146104ba5760405163e7e601db60e01b815260040160405180910390fd5b60606000611b6783612227565b9392505050565b6001600160a01b038116600090815260018301602052604081205461ffff161515610fee565b6000818152600183016020526040812054611bdb57508154600181810184556000848152602080822090930184905584548482528286019093526040902091909155610ff1565b506000610ff1565b6001600160a01b038216600090815260028401602052604090206001015481811015611c225760405163ac69360360e01b815260040160405180910390fd5b611c2c8282613936565b6001600160a01b03909316600090815260029094016020525050604090912060010155565b6001600160a01b0382166000908152600284016020526040812054611c77908390613936565b6001600160a01b038416600090815260028601602052604090206001015490915081158015611ca4575080155b15611ce3576001600160a01b0384166000908152600280870160205260408220828155600181018390559190611cdc908301826131fd565b5050611d01565b6001600160a01b038416600090815260028601602052604090208290555b611d0c858584612283565b82856001016000828254611d209190613936565b90915550505050505050565b600081604051602001611d4191815260200190565b60405160208183030381529060405290506000611d618585600185612540565b90507f1c593a2b803c3f9038e8b6743ba79fbc4276d2770979a01d2768ed12bea3243f6001858484604051611d9994939291906141bc565b60405180910390a15050505050565b6001600160a01b038216600090815260028401602052604081206001018054839290611dd59084906136d1565b9091555050505050565b6001600160a01b0382166000908152600284016020526040812054611e059083906136d1565b6001600160a01b038416600090815260028601602052604081208290556001860180549293508492909190611e3b9084906136d1565b909155506105659050848483612637565b600081604051602001611e6191815260200190565b60405160208183030381529060405290506000611e818585600085612540565b90507f1c593a2b803c3f9038e8b6743ba79fbc4276d2770979a01d2768ed12bea3243f6000858484604051611d9994939291906141bc565b6001600160a01b0381166000908152600183016020526040812081908190611ee09061285d565b915091508061ffff16600003611f16576001600160a01b03841660009081526001860160205260409020805463ffffffff191690555b611f296001600160a01b0385168361145e565b509392505050565b6001600160a01b0383166000908152600280860160205260409091200161124e828483614239565b6000610ff1826003015461ffff1690565b6000611faf8585600286868080601f01602080910402602001604051908101604052809392919081815260200183838082843760009201919091525061254092505050565b90507f1c593a2b803c3f9038e8b6743ba79fbc4276d2770979a01d2768ed12bea3243f600285858585604051611d999594939291906142f2565b8254600090611ff890436136d1565b60408051808201825282815260208082018690526001600160a01b03871660009081526001890190915291909120919250906120349082612951565b604080516001600160a01b0386168152602081018590529081018390527f083b080788e20bd0930c2bca2ae4fbc51a59ced08c1b5992271f8cb439498a6390606001611d99565b6001600160401b0381166000908152600180840160205260408220805460ff1916815591906120ac908301826131fd565b5060020180546001600160a01b03191690555050565b6001600160a01b031660009081526002909101602052604090205490565b6000806000835160410361211a5760208401516040850151606086015160001a61210c888285856129bd565b955095509550505050612126565b50508151600091506002905b9250925092565b60008181526001830160205260408120548015612216576000612151600183613936565b855490915060009061216590600190613936565b90508181146121ca5760008660000182815481106121855761218561401e565b90600052602060002001549050808760000184815481106121a8576121a861401e565b6000918252602080832090910192909255918252600188019052604090208390555b85548690806121db576121db61409f565b600190038181906000526020600020016000905590558560010160008681526020019081526020016000206000905560019350505050610ff1565b6000915050610ff1565b5092915050565b60608160000180548060200260200160405190810160405280929190818152602001828054801561227757602002820191906000526020600020905b815481526020019060010190808311612263575b50505050509050919050565b6122906006840183611b6e565b1561233157806000036122e4576122ab600684018484612a8c565b6040516001600160a01b03831681527f3168ba660eed6ef1dc2258b2247cc05fd0f2f350d39e6ad2e2ebc76a8000b40b906020016112df565b6122f2600684018484612b24565b604080516001600160a01b0384168152602081018390527fda148fac2e1063174be7bc0895576bdaba90fd14e575463fa26a967cb895cadd91016112df565b61233e6003840183611b6e565b61235b57604051632a55ca5360e01b815260040160405180910390fd5b8060000361242a57612371600384018484612b4c565b6040516001600160a01b03831681527f4a4c5d1a281180eea1e99d8177fa4798b9f7e019d5c57e7d8d73c6a22199aa5b9060200160405180910390a1600683015461ffff1615611066576000806123cb6006860186612bdc565b90925090506123dd6006860186612c1e565b6123eb600386018684612c7c565b604080516001600160a01b0384168152602081018390527f2e8038f5812f763c6ef0c5427cb5a05ce6d7064af2ba7d1d270bc02660b019fd9101611d99565b612438600384018484612d02565b600683015461ffff1660000361244d57505050565b60008061245d6003860186612bdc565b90925090506000806124726006880188612bdc565b91509150808310156125015761248b6003880188612d1c565b6124986006880188612c1e565b6124a6600388018884612c7c565b6124b4600688018886612d7a565b604080516001600160a01b038087168252841660208201527ffaeb8de771b867cf357f6b459a7002b62ec45d544a8078a3ecd91200cc826d7591015b60405180910390a150505050505050565b604080516001600160a01b0388168152602081018790527f143db27bc2036653dc6f962ff9d0b803163d4af50c256ca9e6927b3d6dcd019791016124f0565b835460408051606081019091526001600160401b03909116908084600281111561256c5761256c613fe8565b815260208082018590526001600160a01b0387166040928301526001600160401b03841660009081526001808a01909252919091208251815491929091839160ff19909116908360028111156125c4576125c4613fe8565b0217905550602082015160018201906125dd9082613781565b5060409190910151600290910180546001600160a01b0319166001600160a01b03909216919091179055612612816001613949565b855467ffffffffffffffff19166001600160401b039190911617909455509192915050565b6126446003840183611b6e565b1561269657612657600384018484612e00565b604080516001600160a01b0384168152602081018390527f143db27bc2036653dc6f962ff9d0b803163d4af50c256ca9e6927b3d6dcd019791016112df565b825461ffff1660006126ad600386015461ffff1690565b90508061ffff168261ffff16111561270c576126cd600386018686612c7c565b604080516001600160a01b0386168152602081018590527f2e8038f5812f763c6ef0c5427cb5a05ce6d7064af2ba7d1d270bc02660b019fd9101611d99565b60008061271c6003880188612bdc565b91509150848110156127b1576127356003880188612d1c565b6127426006880187611b6e565b1561275557612755600688018888612a8c565b612763600388018888612c7c565b612771600688018884612d7a565b604080516001600160a01b038085168252881660208201527ffaeb8de771b867cf357f6b459a7002b62ec45d544a8078a3ecd91200cc826d7591016124f0565b6127be6006880187611b6e565b15612810576127d1600688018888612e28565b604080516001600160a01b0388168152602081018790527fda148fac2e1063174be7bc0895576bdaba90fd14e575463fa26a967cb895cadd91016124f0565b61281e600688018888612d7a565b604080516001600160a01b0388168152602081018790527f19fe3ca603e87854a0747cc10abf06bac64d61bac73d6d15f2fd3ca448f1526491016124f0565b8054600090819061ffff16808203612888576040516364b0557f60e01b815260040160405180910390fd5b835462010000900461ffff168160005b8361ffff168361ffff1610156129265761ffff831660009081526001808901602090815260409283902083518085019094528054808552920154908301524310156128e35750612926565b60208101516128f290836136d1565b61ffff8516600090815260018a81016020526040822082815581019190915590940193600019939093019291506128989050565b865463ffffffff19166201000061ffff9485160261ffff191617928216929092179095559492505050565b815461ffff808216916000916129709184916201000090910416614034565b61ffff811660009081526001808701602090815260409092208651815591860151918101919091559091506129a6908390614034565b845461ffff191661ffff9190911617909355505050565b600080807f7fffffffffffffffffffffffffffffff5d576e7357a4501ddfe92f46681b20a08411156129f85750600091506003905082612a82565b604080516000808252602082018084528a905260ff891692820192909252606081018790526080810186905260019060a0016020604051602081039080840390855afa158015612a4c573d6000803e3d6000fd5b5050604051601f1901519150506001600160a01b038116612a7857506000925060019150829050612a82565b9250600091508190505b9450945094915050565b6000612a988483612e42565b845490915061ffff16612aac858383612e82565b612ab760018261433f565b855461ffff191661ffff91909116178555612ad28582612f37565b8161ffff168161ffff1603612ae8575050505050565b6000612af5868685612f7c565b9050612b0386868584612fae565b612b0e868685612f7c565b9050612b1c86868584612ff2565b505050505050565b6000612b308483612e42565b90506000612b3e84846120c2565b905061124e85858484612ff2565b6000612b588483612e42565b845490915061ffff16612b6c858383612e82565b612b7760018261433f565b855461ffff191661ffff91909116178555612b928582612f37565b8161ffff168161ffff1603612ba8575050505050565b6000612bb5868685612f7c565b9050612bc38686858461307e565b612bce868685612f7c565b9050612b1c868685846130c2565b600080612be884613153565b600160009081526002850160205260408120546001600160a01b031690612c0f85836120c2565b919350909150505b9250929050565b612c2782613153565b815461ffff16612c3983600183612e82565b612c4460018261433f565b835461ffff191661ffff91909116178355612c5f8382612f37565b6000612c6d84846001612f7c565b90506105658484600184612ff2565b8254600090612c909061ffff166001614034565b6001600160a01b03831660008181526001870160209081526040808320805461ffff871661ffff19918216811790925581855260028b0190935290832080546001600160a01b0319169094179093558754169091178655909150612cf484846120c2565b905061124e8585848461307e565b6000612d0e8483612e42565b90506000612cf484846120c2565b612d2582613153565b815461ffff16612d3783600183612e82565b612d4260018261433f565b835461ffff191661ffff91909116178355612d5d8382612f37565b6000612d6b84846001612f7c565b905061056584846001846130c2565b8254600090612d8e9061ffff166001614034565b6001600160a01b03831660008181526001870160209081526040808320805461ffff871661ffff19918216811790925581855260028b0190935290832080546001600160a01b0319169094179093558754169091178655909150612df284846120c2565b905061124e85858484612fae565b6000612e0c8483612e42565b90506000612e1a84846120c2565b905061124e858584846130c2565b6000612e348483612e42565b90506000612df284846120c2565b6001600160a01b038116600090815260018301602052604081205461ffff1690819003610ff15760405163f2755e3760e01b815260040160405180910390fd5b825461ffff9081169083161115612e9b57612e9b61404f565b825461ffff9081169082161115612eb457612eb461404f565b61ffff9182166000818152600285016020818152604080842080549690971680855281852080546001600160a01b039889168088526001909b018552838720805461ffff19908116909417905590971680865291852080549091168617905591905283546001600160a01b03199081169096179093555281549092169091179055565b61ffff166000908152600282016020908152604080832080546001600160a01b031981169091556001600160a01b031683526001909301905220805461ffff19169055565b61ffff811660009081526002840160205260408120546001600160a01b0316612fa584826120c2565b95945050505050565b6000805b60018461ffff161115612b1c57617fff600185901c169150612fd5868684612f7c565b905080831115612b1c57612fea868386612e82565b819350612fb2565b83546201fffe600184901b169060009061ffff165b8061ffff168361ffff1611610fd6578061ffff168361ffff1610156130465761303c878785613037816001614034565b613179565b9093509150613054565b613051878785612f7c565b91505b83821115610fd657613067878487612e82565b829450846002613077919061435a565b9250613007565b6000805b60018461ffff161115612b1c57617fff600185901c1691506130a5868684612f7c565b905080831015612b1c576130ba868386612e82565b819350613082565b60006130cf83600261435a565b855490915060009061ffff165b8061ffff168361ffff1611610fd6578061ffff168361ffff16101561311b5761311187878561310c816001614034565b6131bd565b9093509150613129565b613126878785612f7c565b91505b83821015610fd65761313c878487612e82565b82945084600261314c919061435a565b92506130dc565b805461ffff1660000361041b576040516340d9b01160e01b815260040160405180910390fd5b60008080613188878787612f7c565b90506000613197888887612f7c565b9050818111156131ad5784935091506131b49050565b5084925090505b94509492505050565b600080806131cc878787612f7c565b905060006131db888887612f7c565b90508181106131ef575084925090506131b4565b939793965092945050505050565b508054613209906136e4565b6000825580601f10613219575050565b601f01602090049060005260206000209081019061041b91905b808211156132475760008155600101613233565b5090565b634e487b7160e01b600052604160045260246000fd5b604051601f8201601f191681016001600160401b03811182821017156132895761328961324b565b604052919050565b60006001600160401b038311156132aa576132aa61324b565b6132bd601f8401601f1916602001613261565b90508281528383830111156132d157600080fd5b828260208301376000602084830101529392505050565b6000602082840312156132fa57600080fd5b81356001600160401b0381111561331057600080fd5b8201601f8101841361332157600080fd5b61333084823560208401613291565b949350505050565b60006020828403121561334a57600080fd5b5035919050565b6000806020838503121561336457600080fd5b82356001600160401b038082111561337b57600080fd5b818501915085601f83011261338f57600080fd5b81358181111561339e57600080fd5b8660208285010111156133b057600080fd5b60209290920196919550909350505050565b60008083601f8401126133d457600080fd5b5081356001600160401b038111156133eb57600080fd5b6020830191508360208260051b8501011115612c1757600080fd5b60008060008060008060006080888a03121561342157600080fd5b87356001600160401b038082111561343857600080fd5b9089019060a0828c03121561344c57600080fd5b9097506020890135908082111561346257600080fd5b61346e8b838c016133c2565b909850965060408a013591508082111561348757600080fd5b6134938b838c016133c2565b909650945060608a01359150808211156134ac57600080fd5b506134b98a828b016133c2565b989b979a50959850939692959293505050565b60006001600160401b038211156134e5576134e561324b565b5060051b60200190565b6001600160a01b038116811461041b57600080fd5b6000613517613512846134cc565b613261565b8381529050602080820190600585901b84018681111561353657600080fd5b845b818110156135855780356001600160401b038111156135575760008081fd5b8601601f810189136135695760008081fd5b613577898235868401613291565b855250928201928201613538565b505050509392505050565b600082601f8301126135a157600080fd5b610fee83833560208501613504565b6000806000606084860312156135c557600080fd5b83356001600160401b03808211156135dc57600080fd5b818601915086601f8301126135f057600080fd5b81356020613600613512836134cc565b82815260059290921b8401810191818101908a84111561361f57600080fd5b948201945b83861015613646578535613637816134ef565b82529482019490820190613624565b975050870135945050604086013591508082111561366357600080fd5b5061367086828701613590565b9150509250925092565b6001600160401b038116811461041b57600080fd5b600080604083850312156136a257600080fd5b82356136ad8161367a565b946020939093013593505050565b634e487b7160e01b600052601160045260246000fd5b80820180821115610ff157610ff16136bb565b600181811c908216806136f857607f821691505b60208210810361371857634e487b7160e01b600052602260045260246000fd5b50919050565b5b8181101561034c576000815560010161371f565b601f82111561106657806000526020600020601f840160051c8101602085101561375a5750805b61124e601f850160051c83018261371e565b600019600383901b1c191660019190911b1790565b81516001600160401b0381111561379a5761379a61324b565b6137ae816137a884546136e4565b84613733565b602080601f8311600181146137dd57600084156137cb5750858301515b6137d5858261376c565b865550612b1c565b600085815260208120601f198616915b8281101561380c578886015182559484019460019091019084016137ed565b508582101561382a5787850151600019600388901b60f8161c191681555b5050505050600190811b01905550565b6000602080830181845280855480835260408601915060408160051b87010192506000878152848120815b8381101561392857888603603f190185528154865260018201546001600160a01b0316878701526060604087015260028201805484906138a4816136e4565b8060608b015260018216600081146138c357600181146138df5761390e565b60ff19831660808c0152608082151560051b8c0101935061390e565b8488528b8820885b838110156139055781548d8201608001526001909101908d016138e7565b8c016080019450505b509198505050948701945060039190910190600101613865565b509398975050505050505050565b81810381811115610ff157610ff16136bb565b6001600160401b03818116838216019080821115612220576122206136bb565b60006020828403121561397b57600080fd5b8135611b678161367a565b60008235603e1983360301811261399c57600080fd5b90910192915050565b60006040830182356139b68161367a565b6001600160401b0390811685526020908482013536869003601e190181126139dd57600080fd5b8501602081019035828111156139f257600080fd5b8060051b3603821315613a0457600080fd5b6040602089015293849052926060870191506000905b80821015613a4c578435613a2d816134ef565b6001600160a01b03168352938301939183019160019190910190613a1a565b50909695505050505050565b6000808335601e19843603018112613a6f57600080fd5b83016020810192503590506001600160401b03811115613a8e57600080fd5b803603821315612c1757600080fd5b81835281816020850137506000828201602090810191909152601f909101601f19169091010190565b6000613ad28283613986565b60408452613ae360408501826139a5565b9050613af26020840184613986565b8482036020860152803560ff8116808214613b0c57600080fd5b835250613b1c6020820182613a58565b915060406020840152613b33604084018383613a9d565b9695505050505050565b80356001600160e01b031981168114613b5557600080fd5b919050565b80358015158114613b5557600080fd5b60008383855260208086019550808560051b830101846000805b88811015613cad57858403601f19018a52613b9f8389613986565b6040813560de19833603018112613bb4578485fd5b8187528201613bc38180613986565b60e080848a0152613bd86101208a0183613ac6565b9150613be68a840184613986565b603f196060818c860301818d0152613bfe8584613ac6565b94506080925086860135838d015280860135965050613c1c8661367a565b60a06001600160401b038716818d0152613c37838701613b3d565b965060c09250613c52838d01886001600160e01b0319169052565b613c5e81870187613a58565b97509050818c860301848d0152613c76858883613a9d565b96505050808401356101008b015250505050613c93878301613b5a565b151595870195909552509884019891840191600101613b84565b509198975050505050505050565b602081526000613330602083018486613b6a565b6000613cdb8283613986565b60a08452613cec60a08501826139a5565b90506020830135613cfc8161367a565b6001600160401b0380821660208701526040850135604087015260608501359150613d268261367a565b16606085015260809283013592909301919091525090565b602081526000610fee6020830184613ccf565b6000610fee368484613504565b60008135610ff18161367a565b8082028115828204841417610ff157610ff16136bb565b8135603e19833603018112613d9657600080fd5b82018035613da38161367a565b825467ffffffffffffffff19166001600160401b038216178355506001808301602080840135601e19853603018112613ddb57600080fd5b939093019283356001600160401b03811115613df657600080fd5b81850194508060051b3603851315613e0d57600080fd5b600160401b811115613e2157613e2161324b565b825481845580821015613e46578360005282600020613e4482820184830161371e565b505b506000928352818320925b81811015613e73578535613e64816134ef565b84820155948201948401613e51565b5050613ea4613e83828801613d5e565b600287016001600160401b0382166001600160401b03198254161781555050565b5050505060408201356003820155613ee2613ec160608401613d5e565b600483016001600160401b0382166001600160401b03198254161781555050565b608082013560058201555050565b604081526000613f036040830186613ccf565b8281036020840152613b33818587613b6a565b602080825260a08282015282546001600160401b031660c0830152604060e083015260018084018054610100850181905260009182528382209193929084906101208701905b80831015613f825784546001600160a01b03168252938301939183019190850190613f5c565b5060028801546001600160401b03908116604089015260038901546060890152600489015416608088015260059097015460a0909601959095525093949350505050565b600082613fe357634e487b7160e01b600052601260045260246000fd5b500490565b634e487b7160e01b600052602160045260246000fd5b6001600160401b03828116828216039080821115612220576122206136bb565b634e487b7160e01b600052603260045260246000fd5b61ffff818116838216019080821115612220576122206136bb565b634e487b7160e01b600052600160045260246000fd5b6000808585111561407557600080fd5b8386111561408257600080fd5b5050820193919092039150565b8183823760009101908152919050565b634e487b7160e01b600052603160045260246000fd5b8181036140c0575050565b6140ca82546136e4565b6001600160401b038111156140e1576140e161324b565b6140ef816137a884546136e4565b6000601f82116001811461411d576000831561410b5750848201545b614115848261376c565b85555061124e565b600085815260209020601f19841690600086815260209020845b838110156141575782860154825560019586019590910190602001614137565b508583101561382a5793015460001960f8600387901b161c19169092555050600190811b01905550565b60006020828403121561419357600080fd5b5051919050565b600381106141b857634e487b7160e01b600052602160045260246000fd5b9052565b6141c6818661419a565b6000602060018060a01b038616602084015260806040840152845180608085015260005b818110156142065786810183015185820160a0015282016141ea565b50600060a0828601015260a0601f19601f830116850101925050506001600160401b038316606083015295945050505050565b6001600160401b038311156142505761425061324b565b6142648361425e83546136e4565b83613733565b6000601f84116001811461429257600085156142805750838201355b61428a868261376c565b84555061124e565b600083815260209020601f19861690835b828110156142c357868501358255602094850194600190920191016142a3565b50868210156142e05760001960f88860031b161c19848701351681555b505060018560011b0183555050505050565b6142fc818761419a565b6001600160a01b03851660208201526080604082018190526000906143249083018587613a9d565b90506001600160401b03831660608301529695505050505050565b61ffff828116828216039080821115612220576122206136bb565b61ffff818116838216028082169190828114614378576143786136bb565b50509291505056fe691bb03ffc16c56fc96b82fd16cd1b3715f0bc3cdc6407005f49bb6205860095a2646970667358221220d4af68ffd32ccaa4081a97c6f05fbf1e7bf4245c497760cea9eafe969c21ac7b64736f6c63430008160033","linkReferences":{"src/lib/LibStaking.sol":{"LibStaking":[{"start":3771,"length":20}]}}},"methodIdentifiers":{"addBootstrapNode(string)":"10fd4261","claim()":"4e71d92d","claimRewardForRelayer()":"ed7c4da1","distributeRewardToRelayers(uint64,uint256)":"f9002bb1","join(bytes)":"6170b162","kill()":"41c0e1b5","leave()":"d66d9e19","preFund()":"0b7fbe60","preRelease(uint256)":"66783c9b","stake()":"3a4b66f1","submitCheckpoint(((uint64,address[]),uint64,bytes32,uint64,bytes32),((((uint64,address[]),(uint8,bytes)),((uint64,address[]),(uint8,bytes)),uint256,uint64,bytes4,bytes,uint256),bool)[],address[],bytes[])":"a8284de3","unstake(uint256)":"2e17de78","validateActiveQuorumSignatures(address[],bytes32,bytes[])":"cc2dc2b9"},"id":75}