{"abi":[{"type":"function","name":"addBootstrapNode","inputs":[{"name":"netAddress","type":"string","internalType":"string"}],"outputs":[],"stateMutability":"nonpayable"},{"type":"function","name":"claim","inputs":[],"outputs":[],"stateMutability":"nonpayable"},{"type":"function","name":"claimRewardForRelayer","inputs":[],"outputs":[],"stateMutability":"nonpayable"},{"type":"function","name":"distributeRewardToRelayers","inputs":[{"name":"height","type":"uint256","internalType":"uint256"},{"name":"reward","type":"uint256","internalType":"uint256"},{"name":"kind","type":"uint8","internalType":"enum QuorumObjKind"}],"outputs":[],"stateMutability":"payable"},{"type":"function","name":"join","inputs":[{"name":"publicKey","type":"bytes","internalType":"bytes"}],"outputs":[],"stateMutability":"payable"},{"type":"function","name":"kill","inputs":[],"outputs":[],"stateMutability":"nonpayable"},{"type":"function","name":"leave","inputs":[],"outputs":[],"stateMutability":"nonpayable"},{"type":"function","name":"preFund","inputs":[],"outputs":[],"stateMutability":"payable"},{"type":"function","name":"preRelease","inputs":[{"name":"amount","type":"uint256","internalType":"uint256"}],"outputs":[],"stateMutability":"nonpayable"},{"type":"function","name":"stake","inputs":[],"outputs":[],"stateMutability":"payable"},{"type":"function","name":"submitBottomUpMsgBatch","inputs":[{"name":"batch","type":"tuple","internalType":"struct BottomUpMsgBatch","components":[{"name":"subnetID","type":"tuple","internalType":"struct SubnetID","components":[{"name":"root","type":"uint64","internalType":"uint64"},{"name":"route","type":"address[]","internalType":"address[]"}]},{"name":"blockHeight","type":"uint256","internalType":"uint256"},{"name":"msgs","type":"tuple[]","internalType":"struct CrossMsg[]","components":[{"name":"message","type":"tuple","internalType":"struct StorableMsg","components":[{"name":"from","type":"tuple","internalType":"struct IPCAddress","components":[{"name":"subnetId","type":"tuple","internalType":"struct SubnetID","components":[{"name":"root","type":"uint64","internalType":"uint64"},{"name":"route","type":"address[]","internalType":"address[]"}]},{"name":"rawAddress","type":"tuple","internalType":"struct FvmAddress","components":[{"name":"addrType","type":"uint8","internalType":"uint8"},{"name":"payload","type":"bytes","internalType":"bytes"}]}]},{"name":"to","type":"tuple","internalType":"struct IPCAddress","components":[{"name":"subnetId","type":"tuple","internalType":"struct SubnetID","components":[{"name":"root","type":"uint64","internalType":"uint64"},{"name":"route","type":"address[]","internalType":"address[]"}]},{"name":"rawAddress","type":"tuple","internalType":"struct FvmAddress","components":[{"name":"addrType","type":"uint8","internalType":"uint8"},{"name":"payload","type":"bytes","internalType":"bytes"}]}]},{"name":"value","type":"uint256","internalType":"uint256"},{"name":"nonce","type":"uint64","internalType":"uint64"},{"name":"method","type":"bytes4","internalType":"bytes4"},{"name":"params","type":"bytes","internalType":"bytes"},{"name":"fee","type":"uint256","internalType":"uint256"}]},{"name":"wrapped","type":"bool","internalType":"bool"}]}]},{"name":"signatories","type":"address[]","internalType":"address[]"},{"name":"signatures","type":"bytes[]","internalType":"bytes[]"}],"outputs":[],"stateMutability":"nonpayable"},{"type":"function","name":"submitCheckpoint","inputs":[{"name":"checkpoint","type":"tuple","internalType":"struct BottomUpCheckpoint","components":[{"name":"subnetID","type":"tuple","internalType":"struct SubnetID","components":[{"name":"root","type":"uint64","internalType":"uint64"},{"name":"route","type":"address[]","internalType":"address[]"}]},{"name":"blockHeight","type":"uint256","internalType":"uint256"},{"name":"blockHash","type":"bytes32","internalType":"bytes32"},{"name":"nextConfigurationNumber","type":"uint64","internalType":"uint64"}]},{"name":"signatories","type":"address[]","internalType":"address[]"},{"name":"signatures","type":"bytes[]","internalType":"bytes[]"}],"outputs":[],"stateMutability":"nonpayable"},{"type":"function","name":"unstake","inputs":[{"name":"amount","type":"uint256","internalType":"uint256"}],"outputs":[],"stateMutability":"nonpayable"},{"type":"function","name":"validateActiveQuorumSignatures","inputs":[{"name":"signatories","type":"address[]","internalType":"address[]"},{"name":"hash","type":"bytes32","internalType":"bytes32"},{"name":"signatures","type":"bytes[]","internalType":"bytes[]"}],"outputs":[],"stateMutability":"view"},{"type":"event","name":"BottomUpCheckpointExecuted","inputs":[{"name":"epoch","type":"uint256","indexed":false,"internalType":"uint256"},{"name":"submitter","type":"address","indexed":false,"internalType":"address"}],"anonymous":false},{"type":"event","name":"BottomUpCheckpointSubmitted","inputs":[{"name":"checkpoint","type":"tuple","indexed":false,"internalType":"struct BottomUpCheckpoint","components":[{"name":"subnetID","type":"tuple","internalType":"struct SubnetID","components":[{"name":"root","type":"uint64","internalType":"uint64"},{"name":"route","type":"address[]","internalType":"address[]"}]},{"name":"blockHeight","type":"uint256","internalType":"uint256"},{"name":"blockHash","type":"bytes32","internalType":"bytes32"},{"name":"nextConfigurationNumber","type":"uint64","internalType":"uint64"}]},{"name":"submitter","type":"address","indexed":false,"internalType":"address"}],"anonymous":false},{"type":"event","name":"NextBottomUpCheckpointExecuted","inputs":[{"name":"epoch","type":"uint256","indexed":false,"internalType":"uint256"},{"name":"submitter","type":"address","indexed":false,"internalType":"address"}],"anonymous":false},{"type":"event","name":"SubnetBootstrapped","inputs":[{"name":"","type":"tuple[]","indexed":false,"internalType":"struct Validator[]","components":[{"name":"weight","type":"uint256","internalType":"uint256"},{"name":"addr","type":"address","internalType":"address"},{"name":"metadata","type":"bytes","internalType":"bytes"}]}],"anonymous":false},{"type":"error","name":"AddressInsufficientBalance","inputs":[{"name":"account","type":"address","internalType":"address"}]},{"type":"error","name":"AddressShouldBeValidator","inputs":[]},{"type":"error","name":"BatchWithNoMessages","inputs":[]},{"type":"error","name":"CannotConfirmFutureChanges","inputs":[]},{"type":"error","name":"CannotReleaseZero","inputs":[]},{"type":"error","name":"CollateralIsZero","inputs":[]},{"type":"error","name":"EmptyAddress","inputs":[]},{"type":"error","name":"FailedInnerCall","inputs":[]},{"type":"error","name":"InvalidBatchEpoch","inputs":[]},{"type":"error","name":"InvalidCheckpointEpoch","inputs":[]},{"type":"error","name":"InvalidPublicKeyLength","inputs":[]},{"type":"error","name":"InvalidSignatureErr","inputs":[{"name":"","type":"uint8","internalType":"uint8"}]},{"type":"error","name":"MaxMsgsPerBatchExceeded","inputs":[]},{"type":"error","name":"MethodNotAllowed","inputs":[{"name":"reason","type":"string","internalType":"string"}]},{"type":"error","name":"NoCollateralToWithdraw","inputs":[]},{"type":"error","name":"NotAllValidatorsHaveLeft","inputs":[]},{"type":"error","name":"NotEnoughBalance","inputs":[]},{"type":"error","name":"NotEnoughCollateral","inputs":[]},{"type":"error","name":"NotEnoughFunds","inputs":[]},{"type":"error","name":"NotGateway","inputs":[]},{"type":"error","name":"NotOwnerOfPublicKey","inputs":[]},{"type":"error","name":"NotStakedBefore","inputs":[]},{"type":"error","name":"NotValidator","inputs":[{"name":"","type":"address","internalType":"address"}]},{"type":"error","name":"PQDoesNotContainAddress","inputs":[]},{"type":"error","name":"PQEmpty","inputs":[]},{"type":"error","name":"ReentrancyError","inputs":[]},{"type":"error","name":"SubnetAlreadyBootstrapped","inputs":[]},{"type":"error","name":"SubnetAlreadyKilled","inputs":[]},{"type":"error","name":"WithdrawExceedingCollateral","inputs":[]}],"bytecode":{"object":"0x60808060405234610016576143af908161001c8239f35b600080fdfe608080604052600436101561001357600080fd5b600090813560e01c9081630b7fbe60146113055750806310fd4261146111965780632681193614610fc45780632e17de7814610f9f5780633a4b66f114610f8357806341c0e1b514610ee05780634c860af614610e945780634e71d92d14610d085780636170b1621461072d57806366783c9b1461064c578063b9ee2bb914610234578063cc2dc2b9146101b4578063d66d9e19146101715763ed7c4da1146100bb57600080fd5b3461016e578060031936011261016e5760008051602061435a833981519152600181541461015c5780600183925573__$4a8700ca5e162cb61a0c4650a4871f1ad5$__803b156101585782602491604051928380926382985e0b60e01b82523360048301525af490811561014d578391610136575b50505580f35b61013f906113fd565b61014a578138610130565b50fd5b6040513d85823e3d90fd5b5050fd5b6040516329f745a760e01b8152600490fd5b80fd5b503461016e578060031936011261016e5761018a6137c2565b60008051602061435a833981519152600181541461015c578060018392556101b0613b36565b5580f35b503461016e57606036600319011261016e576001600160401b036004358181116102305736602382011215610230576101f79036906024816004013591016114fe565b60443591821161023057366023830112156102305761022361022d923690602481600401359101611554565b9060243590613ee2565b80f35b8280fd5b503461016e576003196060368201126104ac576001600160401b03600435116104ac57608060043560040191600435360301126104ac576024356001600160401b0381116102305761028a9036906004016114a3565b91906044356001600160401b038111610648576102ab9036906004016114a3565b9160055494600b54956102be87826115d3565b60246004350135141580610638575b610626576040519061030560208301836102e78a836116c2565b03936102fb601f199586810183528261142b565b51902098826115d3565b6004356024013503610523575050916103286103309261033696979436916114fe565b933691611554565b91613ee2565b602460043501358252816020526040822090803560421960043536030181121561051f576004350191600483016001600160401b0361037482611713565b16936001600160401b0319948584541617835561039a6001926024848601930190611727565b91906001600160401b03831161050b57600160401b831161050b5781548383558084106104f0575b509087526020872087959493929186905b8382106104bb575050505050600480356024810135600284015560448101356003840155606401949101906001600160401b0361040f86611713565b16908254161790556024600435013582526022602052610433604083203390611860565b5060043560240135600555600e546001600160a01b0316803b15610230576040516347dc9b4f60e01b8152918391839182908490829061047690600483016116c2565b03925af180156104b057610498575b505061049361022d91611713565b611af2565b6104a1906113fd565b6104ac578138610485565b5080fd5b6040513d84823e3d90fd5b809192939495969750359160018060a01b03831683036104ec576020869201928185015501889695949392916103d3565b8980fd5b8289526020892061050591810190850161175c565b386103c2565b634e487b7160e01b88526041600452602488fd5b8380fd5b94509450505050602460043501351461053b57505080f35b60246004350135835282602052604083206040519060208201926020845260806040840152826101008101926001600160401b0381541660c083015260019081810191604060e085015282548096526101208401928a5260208a20908a5b878110610605575050506002810154606084015260038101546080840152600401546001600160401b031660a08301520390810183526105da91508261142b565b519020146105e55780f35b6024600435013581526022602052610601604082203390611860565b5080f35b82546001600160a01b03168552889550602090940193918101918101610599565b60405163fae4eadb60e01b8152600490fd5b50806024600435013514156102cd565b8480fd5b503461016e57602036600319011261016e5760043560008051602061435a833981519152600181541461015c5760018155811561071b5760ff60125460081c16610709573383526003602052816040842054106106f7576101b083923384526003602052604084206106bf828254611e79565b90556106cd81600254611e79565b60025533845260036020526040842054156106e9575b33613232565b6106f233614252565b6106e3565b60405163569d45cf60e11b8152600490fd5b604051631b39f2f360e11b8152600490fd5b604051631036b5ad60e31b8152600490fd5b50602036600319011261016e57600435906001600160401b03821161016e573660238301121561016e576001600160401b0382600401351161016e57602436818460040135850101116104ac57600160008051602061435a833981519152541461015c57600160008051602061435a833981519152556107ab6137c2565b60125460ff8160081c1680918192610cfa575b50610cca573415610cb85760418460040135148015610ca6576107e090612eb0565b8360040135600111610230576108023660048601356000190160258701611467565b80516020909101206001600160a01b03163303610c9457610a86573360009081526015602052604090206002939084019061084b816004013561084584546118e5565b846119b5565b83601f826004013511600114610a10578385918360040135610a03575b5050816004013560011b91600019906004013560031b1c19161790555b61088f34336133a4565b601454600a548110156108b6575b505090505b8060008051602061435a8339815191525580f35b61ffff601654166001600160401b03600c54161161089d5761010061ff001960125416176012556040519360208501602086526001548091526040860160408260051b88010191600187527fb10e2d527612073b26eecdfd717e6a320cf44b4afac2b0732d9fcbe2b7fa0cf69187905b8282106109b857505050508585967f4914d88063275a25a13b2df37125e216745d812f94c56504be4bd78cf60c9593920390a161097060018060a01b03600e5416915480936115d3565b92813b156106485784926040519485938492637903ab2760e11b845260048401525af180156104b0576109a4575b8061089d565b6109ad906113fd565b61016e57803861099e565b90919293602060036109f56001938d603f1990820301865288548152848060a01b03858a015416848201526060908160408201520189890161191f565b960192019201909291610926565b8301013590508338610868565b828552602085208592916004830135601f19165b808510610a695760019450836004013511610a4a575b505060040135811b019055610885565b8201850135600019600484013560031b60f8161c191690553880610a3a565b838201870135835560209485019460019093019290910190610a24565b610a97368460040135838601611467565b926001600160401b03601c5416604051610ab081611410565b600281526020810195865233604082015281600052601d60205260406000209581516003811015610c7f5760ff80198954169116178755519586516001600160401b038111610c6a57610b1381610b0a60018501546118e5565b600185016119b5565b6020601f8211600114610be85790806002939260008051602061433a833981519152999a600092610bdd575b50508160011b916000199060031b1c19161760018201555b0190604060018060a01b03910151166001600160601b0360a01b8254161790556001600160401b03610b8882611ada565b166001600160401b0319601c541617601c55610bc56040519384936002855233602086015260806040860152608085019181600401359101613026565b9060608301520390a1610bd834336135b9565b6108a2565b015190503880610b3f565b6001830160005260206000209860005b601f1984168110610c5257509160008051602061433a83398151915298996001926002959483601f19811610610c39575b505050811b016001820155610b57565b015160001960f88460031b161c19169055388080610c29565b828201518b556001909a019960209283019201610bf8565b85634e487b7160e01b60005260416004526000fd5b85634e487b7160e01b60005260216004526000fd5b604051634be9251d60e11b8152600490fd5b6040516318dca5e960e21b8152600490fd5b604051635a78c58160e11b8152600490fd5b50610cd36132ac565b60405163015538b160e01b815260206004820152918291610cf691830190613329565b0390fd5b60ff915060101c16386107be565b503461016e578060031936011261016e5760019060008051602061435a8339815191528281541461015c57828155336000908152601f602052604090209283549061ffff90818316928315610e8257829060101c16918391808795818a01915b610dfc575b50505086610dde937f197c586353eaed0a1c53e6e540445b94befab8f932c8115d112115ecbeeed514959363ffff000093899a54911693849260101b169063ffffffff19161717905515610de5575b610dc68133613232565b60408051338152602081019290925290918291820190565b0390a15580f35b336000908152601f60205260409020859055610dbc565b909193948381169682881015610e795787600052602080918582526040600020604051610e28816113cc565b89825492838352015493849101524310610e6e5785949388968894610e4f86958a956115d3565b9c60005252600082604082208281550155011696600019011694610d68565b985050509493610d6d565b96509493610d6d565b6040516364b0557f60e01b8152600490fd5b50606036600319011261016e5760443560028110156104ac57600e546001600160a01b03163303610ece5761022d90602435600435613d37565b60405163e7e601db60e01b8152600490fd5b503461016e578060031936011261016e57610ef96137c2565b61ffff610f0f8160195416826016541690611e19565b16610f71576012805463ff00000019166301000000179055600e5481906001600160a01b0316803b1561014a578180916004604051809481936341c0e1b560e01b83525af180156104b057610f615750f35b610f6a906113fd565b61016e5780f35b604051636b62255160e11b8152600490fd5b508060031936011261016e57610f976137c2565b61022d6137e3565b503461016e57602036600319011261016e57610fb96137c2565b61022d60043561386c565b503461016e576003196060368201126104ac576004356001600160401b039182821161051f5760608260040191833603011261051f57602435838111610648576110129036906004016114a3565b91906044358581116111925761102c9036906004016114a3565b9160248601359660065496878910611180576044019061104c8287611727565b919050600954161061116e576110629085611727565b90501561115c578794604051602081019061108f8161108189856130b0565b03601f19810183528261142b565b5190209688036110c057505050505050600754146110ab575080f35b81526023602052610601604082203390611860565b6110da939261032888969893610330939a989a36916114fe565b8060206040516110e9816113cc565b8481520152816006556007558252602360205261110a604083203390611860565b50600e546001600160a01b031690813b1561015857829161114191604051948580948193630bed761560e01b8352600483016130b0565b03925af180156104b057611153575080f35b61022d906113fd565b6040516338d2307f60e01b8152600490fd5b60405163351c700760e01b8152600490fd5b60405163200c52f760e21b8152600490fd5b8680fd5b503461016e576020908160031936011261016e576001600160401b03916004358381116102305736602382011215610230576111dc903690602481600401359101611467565b923383526017825261ffff604084205416156112ed578351156112db5733835260248252604083209184519182116112c7576112228261121c85546118e5565b856119b5565b80601f83116001146112635750839482939492611258575b50508160011b916000199060031b1c19161790555b610601336117f7565b01519050388061123a565b90601f198316958486528286209286905b8882106112af57505083600195969710611296575b505050811b01905561124f565b015160001960f88460031b161c19169055388080611289565b80600185968294968601518155019501930190611274565b634e487b7160e01b84526041600452602484fd5b604051637138356f60e01b8152600490fd5b604051633b4f6e2b60e21b8152336004820152602490fd5b9050816003193601126104ac5734156113bd575060ff60125460081c16610709573381526003602052604081205415611364575b3381526003602052604081206113503482546115d3565b905561135e346002546115d3565b60025580f35b600454600160401b8110156113a9576113868160016113a49301600455611773565b81546001600160a01b0360039290921b91821b19163390911b179055565b611339565b634e487b7160e01b82526041600452602482fd5b631036b5ad60e31b8152600490fd5b604081019081106001600160401b038211176113e757604052565b634e487b7160e01b600052604160045260246000fd5b6001600160401b0381116113e757604052565b606081019081106001600160401b038211176113e757604052565b90601f801991011681019081106001600160401b038211176113e757604052565b6001600160401b0381116113e757601f01601f191660200190565b9291926114738261144c565b91611481604051938461142b565b82948184528183011161149e578281602093846000960137010152565b600080fd5b9181601f8401121561149e578235916001600160401b03831161149e576020808501948460051b01011161149e57565b6001600160401b0381116113e75760051b60200190565b35906001600160a01b038216820361149e57565b9291611509826114d3565b91611517604051938461142b565b829481845260208094019160051b810192831161149e57905b82821061153d5750505050565b838091611549846114ea565b815201910190611530565b92919092611561846114d3565b9161156f604051938461142b565b829480845260208094019060051b83019282841161149e5780915b84831061159957505050505050565b82356001600160401b03811161149e57820184601f8201121561149e5786916115c88683858095359101611467565b81520192019161158a565b919082018092116115e057565b634e487b7160e01b600052601160045260246000fd5b9035603e198236030181121561149e570190565b35906001600160401b038216820361149e57565b9035601e198236030181121561149e5701602081359101916001600160401b03821161149e578160051b3603831361149e57565b60408201916001600160401b036116688361160a565b168152606061167c6020938481019061161e565b839195604086839601525201929160005b82811061169b575050505090565b909192938280600192838060a01b036116b3896114ea565b1681520195019392910161168d565b6020815260806001600160401b0361170c60606116f26116e287806115f6565b85602088015260a0870190611652565b95602081013560408701526040810135828701520161160a565b1691015290565b356001600160401b038116810361149e5790565b903590601e198136030182121561149e57018035906001600160401b03821161149e57602001918160051b3603831361149e57565b818110611767575050565b6000815560010161175c565b6004548110156117aa5760046000527f8a35acfbc15ff81a39ae7d344fd709f28e8600b4aa8c65c6b64bfe7fe36bd19b0190600090565b634e487b7160e01b600052603260045260246000fd5b6025548110156117aa5760256000527f401968ff42a154441da5f6c4c935ac46b8671f0e062baaa62a7545ba53bb6e4c0190600090565b60008181526026602052604081205461185b57602554600160401b8110156113a9579082611847611830846001604096016025556117c0565b819391549060031b91821b91600019901b19161790565b905560255492815260266020522055600190565b905090565b919060018301600090828252806020526040822054156000146118df57845494600160401b8610156118cb57600186018082558610156118b757836040949596828552602085200155549382526020522055600190565b634e487b7160e01b83526032600452602483fd5b634e487b7160e01b83526041600452602483fd5b50925050565b90600182811c92168015611915575b60208310146118ff57565b634e487b7160e01b600052602260045260246000fd5b91607f16916118f4565b9060009291805491611930836118e5565b9182825260019384811690816000146119925750600114611952575b50505050565b90919394506000526020928360002092846000945b83861061197e57505050500101903880808061194c565b805485870183015294019385908201611967565b9294505050602093945060ff191683830152151560051b0101903880808061194c565b9190601f81116119c457505050565b6119f0926000526020600020906020601f840160051c830193106119f2575b601f0160051c019061175c565b565b90915081906119e3565b90808214611ad657611a0e81546118e5565b906001600160401b0382116113e7578190611a3382611a2d86546118e5565b866119b5565b600090601f8311600114611a6a57600092611a5f575b50508160011b916000199060031b1c1916179055565b015490503880611a49565b81526020808220858352818320935090601f1985169083905b828210611abd575050908460019594939210611aa4575b505050811b019055565b015460001960f88460031b161c19169055388080611a9a565b8495819295850154815560018091019601940190611a83565b5050565b9060016001600160401b03809316019182116115e057565b601c546001600160401b0382811692908083168410611b1d5760405163040aaa0560e11b8152600490fd5b808360401c16841061194c5780604093841c165b848282161115611b9857505091602091611b6b7f246f00b61ce672242f33bb680a47147cd54d3dfd04dbb76956ba42f88087bf6394611ada565b67ffffffffffffffff60401b601c5491831b169067ffffffffffffffff60401b191617601c5551908152a1565b611bb5816001600160401b0316600052601d602052604060002090565b60028181015482546001600160a01b03949293918516919060ff166003811015611df1578695818603611c475750506001600160a01b039091166000908152601560205260409020611c0c916001019084016119fc565b611c29816001600160401b0316600052601d602052604060002090565b91600090818455600193611c3e858201611e86565b01550116611b31565b919394955091885193611c6985611c6281600180950161191f565b038661142b565b6020808680518101031261149e5781818c9701519514600014611da6578490611c928285611ecf565b601e54611c9f90436115d3565b92875190611cac826113cc565b8482528282018481526001600160a01b0387166000908152601f602052604090209091909283549161ffff9384848180961695869160101c1690611cef91611e19565b169c60009d8e5282870188528d209251835551910155611d0e90611e06565b1661ffff198254161790558b519384528301528982015260607f083b080788e20bd0930c2bca2ae4fbc51a59ced08c1b5992271f8cb439498a6391a1600e541690813b15610230578291602483928a5195869384926345f5448560e01b845260048401525af1908115611d9b57509084939291611d8c575b50611c0c565b611d95906113fd565b38611d86565b8751903d90823e3d90fd5b505082935091611db69192611e2f565b600e541690813b1561149e578651916316989f6f60e21b83528260048160009485945af1908115611d9b57509084939291611d8c5750611c0c565b60246000634e487b7160e01b81526021600452fd5b90600161ffff809316019182116115e057565b91909161ffff808094169116019182116115e057565b906119f091611e7160018060a01b03821692836000526015602052611e59816040600020546115d3565b936000526015602052836040600020556014546115d3565b601455611f52565b919082039182116115e057565b611e9081546118e5565b9081611e9a575050565b81601f60009311600114611eac575055565b908083918252611ecb601f60208420940160051c84016001850161175c565b5555565b90611f33611f3b9260018060a01b0381169060008281526015602052611ef9856040832054611e79565b9281526015602052604081206001810184815481159081611f49575b5015611f4057509082600292611f2e9483555501611e86565b6122bf565b601454611e79565b601455565b925050556122bf565b90501538611f15565b919060018060a01b03928381169360008581526020956017875261ffff916040978389832054166121a357836013541684601654161061216f5786611f956128f0565b919091106120e95750828252601a81528389832054166120085750505050506120037f19fe3ca603e87854a0747cc10abf06bac64d61bac73d6d15f2fd3ca448f152649394611fe3836125ed565b516001600160a01b03909216825260208201929092529081906040820190565b0390a1565b61201786959994989796612e07565b92825260159081815284832054935b6001808b831611156120b35781617fff911c1690818552601b83528b8786205416855283835285878620541015612066576120619082612f66565b612026565b505093516001600160a01b0390951685525050505060208101919091529092507fda148fac2e1063174be7bc0895576bdaba90fd14e575463fa26a967cb895cadd91508060408101612003565b50505050505061200391929395507fda148fac2e1063174be7bc0895576bdaba90fd14e575463fa26a967cb895cadd9450611fe3565b959650612003945090601a899493927ffaeb8de771b867cf357f6b459a7002b62ec45d544a8078a3ecd91200cc826d75999a93612124612abf565b835252205416612161575b61213884612a4d565b612141836125ed565b516001600160a01b03928316815292909116602083015281906040820190565b61216a846127da565b61212f565b50505050506120037f2e8038f5812f763c6ef0c5427cb5a05ce6d7064af2ba7d1d270bc02660b019fd9394611fe383612a4d565b6121b4869598979699949399612dd0565b98825260159081815284832054986121cb8b6129dc565b8560165416905b868116828111612287578281101561226a5750806121f26121f892611e06565b90612d7e565b9c909c5b8c111561221b5761220d908d612ecd565b6122168c6129dc565b6121d2565b505094516001600160a01b0390961686525050505060208201929092529193507f143db27bc2036653dc6f962ff9d0b803163d4af50c256ca9e6927b3d6dcd0197925081905060408101612003565b869d919d52601884528288872054168652848452878620546121fc565b505050505050505061200391929395507f143db27bc2036653dc6f962ff9d0b803163d4af50c256ca9e6927b3d6dcd01979450611fe3565b9160018060a01b039283811692600091848352602094601a865261ffff906040948286822054166124ae57818152601788528286822054161561249d5784156124185761230b84612dd0565b918152601580895286822054925b60018086831611156124075781617fff911c169081845260188b528b89852054168452828b5284898520541115612359576123549082612ecd565b612319565b5050505050919395509193505b6019541615612402576123776128f0565b9061238061293a565b9092106123c957505091516001600160a01b03909216825260208201527f143db27bc2036653dc6f962ff9d0b803163d4af50c256ca9e6927b3d6dcd0197908060408101612003565b915091506120037ffaeb8de771b867cf357f6b459a7002b62ec45d544a8078a3ecd91200cc826d75936123fa612abf565b61212f612673565b505050565b505050505091939550919350612366565b509161244b919597507f4a4c5d1a281180eea1e99d8177fa4798b9f7e019d5c57e7d8d73c6a22199aa5b94969350612c08565b8451908152a16019541661245c5750565b6120037f2e8038f5812f763c6ef0c5427cb5a05ce6d7064af2ba7d1d270bc02660b019fd9161248961293a565b929091612494612673565b611fe383612a4d565b8551632a55ca5360e01b8152600490fd5b909395968698939598156125b4579261fffe9294936124cc87612e07565b9483526015918282528a8420549580976001968792831b168160195416925b612540575b50509a516001600160a01b039098168852505050506020840194909452509293507fda148fac2e1063174be7bc0895576bdaba90fd14e575463fa26a967cb895cadd925090508060408101612003565b8181168381116125ae578e90808511156125925750508061256361256992611e06565b906129f3565b9990995b89101561258d5761257e908a612f66565b612587896129dc565b876124eb565b6124f0565b8852601b8652872054841687528585528d87205490999061256d565b506124f0565b955050505090936125e67f3168ba660eed6ef1dc2258b2247cc05fd0f2f350d39e6ad2e2ebc76a8000b40b94956127da565b51908152a1565b6119f090604061ffff6126038160195416611e06565b9260018060a01b0316600091818352601a6020528383209085169061ffff19908282825416179055818452601b602052848420836001600160601b0360a01b825416179055601954161760195581526015602052205490612984565b61ffff90811660001901919082116115e057565b61ffff806019541680156127c857600161268f82821115612eb0565b6000818152601b60208181526040808420805487865282862080546001600160a01b03928316808952601a8752858920805461ffff199081168d17909155918416808a52868a20805484168c17905588885283546001600160a01b03199081169092179093558989528454169091179092559396919493929161272591896127168361265f565b16906019541617601955612e2c565b8483528581528184842054168352601591828252848420549686809960028160195416925b61275d575b505050505050505050505050565b8181168381116127c257838110156127a657508061256361277d92611e06565b9b909b5b8b10156127a157612792908c612f66565b61279b8b6129dc565b8961274a565b61274f565b889c919c52838652848989205416885286865288882054612781565b5061274f565b6040516340d9b01160e01b8152600490fd5b6127e390612e07565b61ffff8060195416906127f68284612f66565b806128008361265f565b1661ffff19601954161760195561281682612e2c565b80831680921461240257919061fffe906000818152601b91602083815260018060a01b036040948186862054168552601593848452612858878720548a612984565b85528083528186862054168552838352858520549780996001988992831b168160195416925b61289057505050505050505050505050565b8181168381116127c257838110156128d45750806125636128b092611e06565b9b909b5b8b10156127a1576128c5908c612f66565b6128ce8b6129dc565b8961287e565b889c919c528386528489892054168852868652888820546128b4565b61ffff60165416156127c8577ff3794665d3af9b6fb6f858b70185898134f96768ef31c325d52e04f0ac195a4d546001600160a01b03166000818152601560205260409020549091565b61ffff60195416156127c8577f9fafca4c9c0d5c2cbf85f49fd8ab8212430ce78c2a0cb75b51e0f9c4f9ace003546001600160a01b03166000818152601560205260409020549091565b9190915b60018061ffff831611156129d65781617fff911c1690836000838152602090601b8252601560409260018060a01b038484205416835252205410156129d6576129d19082612f66565b612988565b50509050565b60011b906201fffe61fffe8316921682036115e057565b91909161ffff92604060008584168152601b60205260018060a01b0380838320541682526015602052828220549684168252601b602052828220541681526015602052205490818510612a465750509190565b9350919050565b6119f090604061ffff612a638160165416611e06565b9260018060a01b031660009181835260176020528383209085169061ffff199082828254161790558184526018602052848420836001600160601b0360a01b825416179055601654161760165581526015602052205490612d2c565b61ffff806016541680156127c8576001612adb82821115612eb0565b6000818152601860208181526040808420805487865282862080546001600160a01b0392831680895260178752858920805461ffff199081168d17909155918416808a52868a20805484168c17905588885283546001600160a01b031990811690921790935589895284541690911790925593969194939291612b719189612b628361265f565b16906016541617601655612e6e565b8483528581528184842054168352601591828252848420549686809960028160165416925b612ba857505050505050505050505050565b8181168381116127c25783811015612bec5750806121f2612bc892611e06565b9b909b5b8b11156127a157612bdd908c612ecd565b612be68b6129dc565b89612b96565b889c919c52838652848989205416885286865288882054612bcc565b612c1190612dd0565b9061ffff90816016541691612c268385612ecd565b80612c308461265f565b1661ffff196016541617601655612c4683612e6e565b808416809314612d265760009280845260189360209185835260018060a01b03926040938085852054168452601592838352612c85868620548b612d2c565b845287825280858520541684528282528484205497612ca38a6129dc565b8760165416905b888116828111612d175782811015612cfb5750806121f2612cca92611e06565b9b909b5b8b1115612ced57612cdf908c612ecd565b612ce88b6129dc565b612caa565b505050505050505050915050565b879c919c52828552838888205416875285855287872054612cce565b50505050505050505050915050565b50915050565b9190915b60018061ffff831611156129d65781617fff911c169083600083815260209060188252601560409260018060a01b038484205416835252205411156129d657612d799082612ecd565b612d30565b919061ffff604060008286168152601860205260018060a01b0380838320541682526015602052828220549385168252601860205282822054168152601560205220549384821115612a465750509190565b6001600160a01b031660009081526017602052604090205461ffff16908115612df557565b60405163f2755e3760e01b8152600490fd5b6001600160a01b03166000908152601a602052604090205461ffff16908115612df557565b61ffff166000908152601b6020908152604080832080546001600160a01b031981169091556001600160a01b03168352601a9091529020805461ffff19169055565b61ffff16600090815260186020908152604080832080546001600160a01b031981169091556001600160a01b0316835260179091529020805461ffff19169055565b15612eb757565b634e487b7160e01b600052600160045260246000fd5b612ef261ffff808060165416931693612ee884861115612eb0565b1691821115612eb0565b6000828152601860208181526040808420805486865282862080546001600160a01b0392831680895260178752858920805461ffff19908116909b1790559216808852938720805490981689179097559390925284546001600160a01b031990811690931790945593909152825416179055565b612f8161ffff808060195416931693612ee884861115612eb0565b6000828152601b60208181526040808420805486865282862080546001600160a01b03928316808952601a8752858920805461ffff19908116909b1790559216808852938720805490981689179097559390925284546001600160a01b031990811690931790945593909152825416179055565b9035601e198236030181121561149e5701602081359101916001600160401b03821161149e57813603831361149e57565b908060209392818452848401376000828201840152601f01601f1916010190565b61307061306561305783806115f6565b604085526040850190611652565b9160208101906115f6565b91602081830391015281359160ff831680930361149e5761309d6040916130ad9484526020810190612ff5565b9190928160208201520191613026565b90565b60208082526130bf83806115f6565b60609182818501526130d660809283860190611652565b6130ed60409683810135888801528781019061161e565b939096601f199686888286030191015284835283830191848660051b8501019880986000955b88871061312857505050505050505050505090565b909192939495969798999a828282030187526131448c856115f6565b90813560de198336030181121561149e578782528201918a90888e6001600160401b036131bb6131ab61319861318f61317d8b806115f6565b60e080988c01526101208b0190613047565b978a018a6115f6565b96603f1997888a830301868b0152613047565b928d8901358d890152880161160a565b169060a091828701528a8701359263ffffffff60e01b841680940361149e578f956131f26132029460c096878b01528a018a612ff5565b9290918985030190890152613026565b94013561010084015201359081151580920361149e578a01529a8801999897966001019587019493929190613113565b814710613294576000918291829182916001600160a01b03165af13d1561328f573d61325d8161144c565b9061326b604051928361142b565b8152600060203d92013e5b1561327d57565b604051630a12f52160e11b8152600490fd5b613276565b60405163cd78605960e01b8152306004820152602490fd5b60405190608082018281106001600160401b038211176113e7576040526045825264185c1c195960da1b6060837f4d6574686f64206e6f7420616c6c6f776564206966207065726d697373696f6e60208201527f656420697320656e61626c656420616e64207375626e657420626f6f7473747260408201520152565b919082519283825260005b848110613355575050826000602080949584010152601f8019910116010190565b602081830181015184830182015201613334565b6001548110156117aa576003906001600052027fb10e2d527612073b26eecdfd717e6a320cf44b4afac2b0732d9fcbe2b7fa0cf60190600090565b906133b9906133b38184613592565b82611e2f565b60ff60125460081c16156133ca5750565b60018054600082815b838110613561575b5050156133e757505050565b6001600160a01b0383166000908152601560205260409020805461343b9490916002016040519261341784611410565b83526020936134428585019260018060a01b0380951684526040519889809261191f565b038861142b565b60408401968752600160401b8110156113e757808661346392018755613369565b92909261354b576002935183558583019151166001600160601b0360a01b825416179055019251908151916001600160401b0383116113e7576134b0836134aa87546118e5565b876119b5565b81601f84116001146134e957509282939183926000946134de575b50501b916000199060031b1c1916179055565b0151925038806134cb565b919083601f1981168760005284600020946000905b88838310613531575050501061351857505050811b019055565b015160001960f88460031b161c19169055388080611a9a565b8587015188559096019594850194879350908101906134fe565b634e487b7160e01b600052600060045260246000fd5b8161356b82613369565b5001546001600160a01b03878116911614613588570183906133d3565b50905082386133db565b60018060a01b031660005260156020526135b560016040600020019182546115d3565b9055565b919060405192816020850152602084526135d2846113cc565b6001600160401b03601c541693604051946135ec86611410565b60008652602086019582875260018060a01b038416604082015281600052601d602052604060002096815160038110156137ac5760ff80198a54169116178855519687516001600160401b0381116113e75761364f81610b0a60018501546118e5565b6020601f82116001146137215761370894928260008051602061433a8339815191529795936002936119f09c9d600092613716575b50508160011b916000199060031b1c19161760018201555b0190604060018060a01b03910151166001600160601b0360a01b8254161790556001600160401b036136cd82611ada565b166001600160401b0319601c541617601c556040519283926000845260018060a01b0387166020850152608060408501526080840190613329565b9060608301520390a1613592565b015190503880613684565b6001830160005260206000209960005b601f19841681106137945750926001836119f09b9c600294613708999760008051602061433a8339815191529b9997601f1981161061377b575b505050811b01600182015561369c565b015160001960f88460031b161c1916905538808061376b565b828201518c556001909b019a60209283019201613731565b634e487b7160e01b600052602160045260246000fd5b60ff60125460181c166137d157565b60405163248c8efb60e11b8152600490fd5b60125460ff8160101c16613840573415610cb857336000908152601560205260409020600101541561382e5760081c60ff1615613824576119f034336135b9565b6119f034336133a4565b60405163528fc16560e01b8152600490fd5b610cf661384b6132ac565b60405163015538b160e01b8152602060048201529182916024830190613329565b60125460ff8160101c166138405781156138de573360009081526015602052604090206001015480156112ed578210156138cd5760081c60ff16156138b5576119f09033613943565b806138c36119f092336138f0565b6106e38133611ecf565b60405162d11df360e61b8152600490fd5b60405163c79cad7b60e01b8152600490fd5b6001600160a01b031660008181526015602052604090206001015490918082106139315761391d91611e79565b906000526015602052600160406000200155565b60405163ac69360360e01b8152600490fd5b9190604051928160208501526020845261395c846113cc565b6001600160401b03601c5416936040519461397686611410565b60018652602086019582875260018060a01b038416604082015281600052601d602052604060002096815160038110156137ac5760ff80198a54169116178855519687516001600160401b0381116113e7576139d981610b0a60018501546118e5565b6020601f8211600114613aab57613a9294928260008051602061433a8339815191529795936002936119f09c9d600092613aa0575b50508160011b916000199060031b1c19161760018201555b0190604060018060a01b03910151166001600160601b0360a01b8254161790556001600160401b03613a5782611ada565b166001600160401b0319601c541617601c556040519283926001845260018060a01b0387166020850152608060408501526080840190613329565b9060608301520390a16138f0565b015190503880613a0e565b6001830160005260206000209960005b601f1984168110613b1e5750926001836119f09b9c600294613a92999760008051602061433a8339815191529b9997601f19811610613b05575b505050811b016001820155613a26565b015160001960f88460031b161c19169055388080613af5565b828201518c556001909b019a60209283019201613abb565b60125460ff8160081c169081613c2b575b50613840573360009081526015602052604090206001015480156112ed57613b6e33613c39565b5060009033825260246020528160408120613b8981546118e5565b80613bee575b50505060ff60125460081c1615613bab576119f0915033613943565b60406119f0923381526003602052205480613bcc575b506138c381336138f0565b80613bdc613be892600254611e79565b6002556106e333614252565b38613bc1565b82601f8211600114613c06575050555b813880613b8f565b9091808252613c24601f60208420940160051c84016001850161175c565b5555613bfe565b60ff915060101c1638613b47565b6000818152602660205260408120549091908015613d1e5760001990808201818111613d0a5760255490838201918211613cf657808203613cc2575b5050506025548015613cae57810190613c8d826117c0565b909182549160031b1b19169055602555815260266020526040812055600190565b634e487b7160e01b84526031600452602484fd5b613ce0613cd1611830936117c0565b90549060031b1c9283926117c0565b9055845260266020526040842055388080613c75565b634e487b7160e01b86526011600452602486fd5b634e487b7160e01b85526011600452602485fd5b505090565b80518210156117aa5760209160051b010190565b9190918215612402576040908151906020938483018381106001600160401b038211176113e75784526000928390526002811015613ece5780613e2f5750600b54613d8191611e79565b8152602283528181208251808286829454938481520190855286852092855b88828210613e1957505050613db79250038261142b565b928351948515613e1157858110613e115785900493825b868110613dde5750505050505050565b6001906001600160a01b03613df38285613d23565b5116855260218452858520613e098882546115d3565b905501613dce565b505050505050565b8554845260019586019587955093019201613da0565b846001859214600014613e7f57606491519063015538b160e01b82526004820152601f60248201527f72657761726473206e6f7420646566696e656420666f722062617463686573006044820152fd5b608491519063015538b160e01b82526004820152602360248201527f72657761726473206e6f7420646566696e656420666f72206f626a656374206b6044820152621a5b9960ea1b6064820152fd5b634e487b7160e01b83526021600452602483fd5b91825191613eef836114d3565b93604094613eff8651918261142b565b848152601f19613f0e866114d3565b0194602095368784013760005b818110613fea57505060009461ffff8060165416600192839182945b613f94575b505050505060ff600e5460a01c16948581029581870414901517156115e0576064613f68950491614077565b9015613f72575050565b60078110156137ac5760ff602492519163282ef1c160e01b8352166004820152fd5b90919293988a858b16838111613fe257600090815260188552908120546001600160a01b031681526015602052604090208493929186918591613fd89154906115d3565b9b01169493613f37565b505098613f3c565b6001600160a01b0380613ffd8387613d23565b51166000526017885261ffff8960002054161561405357906140416001926140258388613d23565b51166001600160a01b0316600090815260156020526040902090565b5461404c8286613d23565b5201613f1b565b889061406160249387613d23565b519151633b4f6e2b60e21b815291166004820152fd5b84519294600094908415614179578251851480159061416e575b614161579392919085945b8486106140bf5750505050505010156140b757600090600690565b600190600090565b9091929394956140d96140d28884613d23565b5184614186565b50906004918281101561414c5761413a576001600160a01b03806140fd8b89613d23565b511691160361412a575061411e6001916141178988613d23565b51906115d3565b9601949392919061409c565b9897505050505050505060009190565b50505050505050505050600090600590565b602183634e487b7160e01b6000525260246000fd5b5050505050905090600190565b508351851415614091565b5050505050905090600290565b81519190604183036141b7576141b092506020820151906060604084015193015160001a906141c2565b9192909190565b505060009160029190565b91907f7fffffffffffffffffffffffffffffff5d576e7357a4501ddfe92f46681b20a0841161424657926020929160ff608095604051948552168484015260408301526060820152600092839182805260015afa1561423a5780516001600160a01b0381161561423157918190565b50809160019190565b604051903d90823e3d90fd5b50505060009160039190565b60049081549160005b8381106142685750505050565b61427181611773565b90546003916001600160a01b039190831b1c81168582161461429757505060010161425b565b92935093906000199182810190811161432457906142c8846142bb6142e794611773565b905490891b1c1691611773565b90919082549060031b9160018060a01b03809116831b921b1916179055565b8254801561430f5701926142fa84611773565b81939154921b1b19169055553880808061194c565b603184634e487b7160e01b6000525260246000fd5b601185634e487b7160e01b6000525260246000fdfe1c593a2b803c3f9038e8b6743ba79fbc4276d2770979a01d2768ed12bea3243f691bb03ffc16c56fc96b82fd16cd1b3715f0bc3cdc6407005f49bb6205860095a2646970667358221220b5dc620127a5a01ad84d8bfc4c7ce23bbd1bba0760e56b9ad2e01628b0a8152e64736f6c63430008130033","linkReferences":{"src/lib/LibStaking.sol":{"LibStaking":[{"start":263,"length":20}]}}},"methodIdentifiers":{"addBootstrapNode(string)":"10fd4261","claim()":"4e71d92d","claimRewardForRelayer()":"ed7c4da1","distributeRewardToRelayers(uint256,uint256,uint8)":"4c860af6","join(bytes)":"6170b162","kill()":"41c0e1b5","leave()":"d66d9e19","preFund()":"0b7fbe60","preRelease(uint256)":"66783c9b","stake()":"3a4b66f1","submitBottomUpMsgBatch(((uint64,address[]),uint256,((((uint64,address[]),(uint8,bytes)),((uint64,address[]),(uint8,bytes)),uint256,uint64,bytes4,bytes,uint256),bool)[]),address[],bytes[])":"26811936","submitCheckpoint(((uint64,address[]),uint256,bytes32,uint64),address[],bytes[])":"b9ee2bb9","unstake(uint256)":"2e17de78","validateActiveQuorumSignatures(address[],bytes32,bytes[])":"cc2dc2b9"},"id":77}