{"abi":[{"type":"function","name":"addBootstrapNode","inputs":[{"name":"netAddress","type":"string","internalType":"string"}],"outputs":[],"stateMutability":"nonpayable"},{"type":"function","name":"claim","inputs":[],"outputs":[],"stateMutability":"nonpayable"},{"type":"function","name":"claimRewardForRelayer","inputs":[],"outputs":[],"stateMutability":"nonpayable"},{"type":"function","name":"distributeRewardToRelayers","inputs":[{"name":"height","type":"uint256","internalType":"uint256"},{"name":"reward","type":"uint256","internalType":"uint256"},{"name":"kind","type":"uint8","internalType":"enum QuorumObjKind"}],"outputs":[],"stateMutability":"payable"},{"type":"function","name":"join","inputs":[{"name":"publicKey","type":"bytes","internalType":"bytes"}],"outputs":[],"stateMutability":"payable"},{"type":"function","name":"kill","inputs":[],"outputs":[],"stateMutability":"nonpayable"},{"type":"function","name":"leave","inputs":[],"outputs":[],"stateMutability":"nonpayable"},{"type":"function","name":"preFund","inputs":[],"outputs":[],"stateMutability":"payable"},{"type":"function","name":"preRelease","inputs":[{"name":"amount","type":"uint256","internalType":"uint256"}],"outputs":[],"stateMutability":"nonpayable"},{"type":"function","name":"stake","inputs":[],"outputs":[],"stateMutability":"payable"},{"type":"function","name":"submitBottomUpMsgBatch","inputs":[{"name":"batch","type":"tuple","internalType":"struct BottomUpMsgBatch","components":[{"name":"subnetID","type":"tuple","internalType":"struct SubnetID","components":[{"name":"root","type":"uint64","internalType":"uint64"},{"name":"route","type":"address[]","internalType":"address[]"}]},{"name":"blockHeight","type":"uint256","internalType":"uint256"},{"name":"msgs","type":"tuple[]","internalType":"struct CrossMsg[]","components":[{"name":"message","type":"tuple","internalType":"struct StorableMsg","components":[{"name":"from","type":"tuple","internalType":"struct IPCAddress","components":[{"name":"subnetId","type":"tuple","internalType":"struct SubnetID","components":[{"name":"root","type":"uint64","internalType":"uint64"},{"name":"route","type":"address[]","internalType":"address[]"}]},{"name":"rawAddress","type":"tuple","internalType":"struct FvmAddress","components":[{"name":"addrType","type":"uint8","internalType":"uint8"},{"name":"payload","type":"bytes","internalType":"bytes"}]}]},{"name":"to","type":"tuple","internalType":"struct IPCAddress","components":[{"name":"subnetId","type":"tuple","internalType":"struct SubnetID","components":[{"name":"root","type":"uint64","internalType":"uint64"},{"name":"route","type":"address[]","internalType":"address[]"}]},{"name":"rawAddress","type":"tuple","internalType":"struct FvmAddress","components":[{"name":"addrType","type":"uint8","internalType":"uint8"},{"name":"payload","type":"bytes","internalType":"bytes"}]}]},{"name":"value","type":"uint256","internalType":"uint256"},{"name":"nonce","type":"uint64","internalType":"uint64"},{"name":"method","type":"bytes4","internalType":"bytes4"},{"name":"params","type":"bytes","internalType":"bytes"},{"name":"fee","type":"uint256","internalType":"uint256"}]},{"name":"wrapped","type":"bool","internalType":"bool"}]}]},{"name":"signatories","type":"address[]","internalType":"address[]"},{"name":"signatures","type":"bytes[]","internalType":"bytes[]"}],"outputs":[],"stateMutability":"nonpayable"},{"type":"function","name":"submitCheckpoint","inputs":[{"name":"checkpoint","type":"tuple","internalType":"struct BottomUpCheckpoint","components":[{"name":"subnetID","type":"tuple","internalType":"struct SubnetID","components":[{"name":"root","type":"uint64","internalType":"uint64"},{"name":"route","type":"address[]","internalType":"address[]"}]},{"name":"blockHeight","type":"uint256","internalType":"uint256"},{"name":"blockHash","type":"bytes32","internalType":"bytes32"},{"name":"nextConfigurationNumber","type":"uint64","internalType":"uint64"}]},{"name":"signatories","type":"address[]","internalType":"address[]"},{"name":"signatures","type":"bytes[]","internalType":"bytes[]"}],"outputs":[],"stateMutability":"nonpayable"},{"type":"function","name":"unstake","inputs":[{"name":"amount","type":"uint256","internalType":"uint256"}],"outputs":[],"stateMutability":"nonpayable"},{"type":"function","name":"validateActiveQuorumSignatures","inputs":[{"name":"signatories","type":"address[]","internalType":"address[]"},{"name":"hash","type":"bytes32","internalType":"bytes32"},{"name":"signatures","type":"bytes[]","internalType":"bytes[]"}],"outputs":[],"stateMutability":"view"},{"type":"event","name":"BottomUpCheckpointExecuted","inputs":[{"name":"epoch","type":"uint256","indexed":false,"internalType":"uint256"},{"name":"submitter","type":"address","indexed":false,"internalType":"address"}],"anonymous":false},{"type":"event","name":"BottomUpCheckpointSubmitted","inputs":[{"name":"checkpoint","type":"tuple","indexed":false,"internalType":"struct BottomUpCheckpoint","components":[{"name":"subnetID","type":"tuple","internalType":"struct SubnetID","components":[{"name":"root","type":"uint64","internalType":"uint64"},{"name":"route","type":"address[]","internalType":"address[]"}]},{"name":"blockHeight","type":"uint256","internalType":"uint256"},{"name":"blockHash","type":"bytes32","internalType":"bytes32"},{"name":"nextConfigurationNumber","type":"uint64","internalType":"uint64"}]},{"name":"submitter","type":"address","indexed":false,"internalType":"address"}],"anonymous":false},{"type":"event","name":"NextBottomUpCheckpointExecuted","inputs":[{"name":"epoch","type":"uint256","indexed":false,"internalType":"uint256"},{"name":"submitter","type":"address","indexed":false,"internalType":"address"}],"anonymous":false},{"type":"event","name":"SubnetBootstrapped","inputs":[{"name":"","type":"tuple[]","indexed":false,"internalType":"struct Validator[]","components":[{"name":"weight","type":"uint256","internalType":"uint256"},{"name":"addr","type":"address","internalType":"address"},{"name":"metadata","type":"bytes","internalType":"bytes"}]}],"anonymous":false},{"type":"error","name":"AddressInsufficientBalance","inputs":[{"name":"account","type":"address","internalType":"address"}]},{"type":"error","name":"AddressShouldBeValidator","inputs":[]},{"type":"error","name":"CannotConfirmFutureChanges","inputs":[]},{"type":"error","name":"CannotReleaseZero","inputs":[]},{"type":"error","name":"CollateralIsZero","inputs":[]},{"type":"error","name":"EmptyAddress","inputs":[]},{"type":"error","name":"FailedInnerCall","inputs":[]},{"type":"error","name":"InvalidBatchEpoch","inputs":[]},{"type":"error","name":"InvalidCheckpointEpoch","inputs":[]},{"type":"error","name":"InvalidPublicKeyLength","inputs":[]},{"type":"error","name":"InvalidSignatureErr","inputs":[{"name":"","type":"uint8","internalType":"uint8"}]},{"type":"error","name":"MaxMsgsPerBatchExceeded","inputs":[]},{"type":"error","name":"MethodNotAllowed","inputs":[{"name":"reason","type":"string","internalType":"string"}]},{"type":"error","name":"NoCollateralToWithdraw","inputs":[]},{"type":"error","name":"NotAllValidatorsHaveLeft","inputs":[]},{"type":"error","name":"NotEnoughBalance","inputs":[]},{"type":"error","name":"NotEnoughCollateral","inputs":[]},{"type":"error","name":"NotEnoughFunds","inputs":[]},{"type":"error","name":"NotGateway","inputs":[]},{"type":"error","name":"NotOwnerOfPublicKey","inputs":[]},{"type":"error","name":"NotStakedBefore","inputs":[]},{"type":"error","name":"NotValidator","inputs":[{"name":"","type":"address","internalType":"address"}]},{"type":"error","name":"PQDoesNotContainAddress","inputs":[]},{"type":"error","name":"PQEmpty","inputs":[]},{"type":"error","name":"ReentrancyError","inputs":[]},{"type":"error","name":"SubnetAlreadyBootstrapped","inputs":[]},{"type":"error","name":"SubnetAlreadyKilled","inputs":[]},{"type":"error","name":"WithdrawExceedingCollateral","inputs":[]}],"bytecode":{"object":"0x608080604052346100165761438d908161001c8239f35b600080fdfe608080604052600436101561001357600080fd5b600090813560e01c9081630b7fbe60146112e35750806310fd4261146111745780632681193614610fc65780632e17de7814610fa15780633a4b66f114610f8557806341c0e1b514610ee25780634c860af614610e965780634e71d92d14610d0a5780636170b1621461072f57806366783c9b1461064e578063b9ee2bb914610234578063cc2dc2b9146101b4578063d66d9e19146101715763ed7c4da1146100bb57600080fd5b3461016e578060031936011261016e57600080516020614338833981519152600181541461015c5780600183925573__$4a8700ca5e162cb61a0c4650a4871f1ad5$__803b156101585782602491604051928380926382985e0b60e01b82523360048301525af490811561014d578391610136575b50505580f35b61013f906113db565b61014a578138610130565b50fd5b6040513d85823e3d90fd5b5050fd5b6040516329f745a760e01b8152600490fd5b80fd5b503461016e578060031936011261016e5761018a6137a0565b600080516020614338833981519152600181541461015c578060018392556101b0613b14565b5580f35b503461016e57606036600319011261016e576001600160401b036004358181116102305736602382011215610230576101f79036906024816004013591016114dc565b60443591821161023057366023830112156102305761022361022d923690602481600401359101611532565b9060243590613ec0565b80f35b8280fd5b503461016e576003196060368201126104ac576001600160401b03600435116104ac57608060043560040191600435360301126104ac576024356001600160401b0381116102305761028a903690600401611481565b91906044356001600160401b03811161064a576102ab903690600401611481565b9160055494600b54956102be87826115b1565b6024600435013514158061063a575b610628576040519061030560208301836102e78a836116a0565b03936102fb601f1995868101835282611409565b51902098826115b1565b6004356024013503610525575050916103286103309261033696979436916114dc565b933691611532565b91613ec0565b6024600435013582528160205260408220908035604219600435360301811215610521576004350191600483016001600160401b03610374826116f1565b16936001600160401b0319948584541617835561039a6001926024848601930190611705565b91906001600160401b03831161050d57600160401b831161050d5781548383558084106104f2575b509087959493929190865260208620865b8381106104bb575050505050600480356024810135600284015560448101356003840155606401949101906001600160401b0361040f866116f1565b1690825416179055602460043501358252602260205261043360408320339061183e565b5060043560240135600555600e546001600160a01b0316803b15610230576040516347dc9b4f60e01b8152918391839182908490829061047690600483016116a0565b03925af180156104b057610498575b505061049361022d916116f1565b611ad0565b6104a1906113db565b6104ac578138610485565b5080fd5b6040513d84823e3d90fd5b909180939495969750359060018060a01b03821682036104ee5760208692940193818401550190889695949392916103d3565b8980fd5b8289526020892061050791810190850161173a565b386103c2565b634e487b7160e01b88526041600452602488fd5b8380fd5b94509450505050602460043501351461053d57505080f35b60246004350135835282602052604083206040519060208201926020845260806040840152826101008101926001600160401b0381541660c083015260019081810191604060e085015282548096526101208401928a5260208a20908a5b878110610607575050506002810154606084015260038101546080840152600401546001600160401b031660a08301520390810183526105dc915082611409565b519020146105e75780f35b602460043501358152602260205261060360408220339061183e565b5080f35b82546001600160a01b0316855288955060209094019391810191810161059b565b60405163fae4eadb60e01b8152600490fd5b50806024600435013514156102cd565b8480fd5b503461016e57602036600319011261016e57600435600080516020614338833981519152600181541461015c5760018155811561071d5760ff60125460081c1661070b573383526003602052816040842054106106f9576101b083923384526003602052604084206106c1828254611e57565b90556106cf81600254611e57565b60025533845260036020526040842054156106eb575b33613210565b6106f433614230565b6106e5565b60405163569d45cf60e11b8152600490fd5b604051631b39f2f360e11b8152600490fd5b604051631036b5ad60e31b8152600490fd5b50602036600319011261016e57600435906001600160401b03821161016e573660238301121561016e576001600160401b0382600401351161016e57602436818460040135850101116104ac576001600080516020614338833981519152541461015c576001600080516020614338833981519152556107ad6137a0565b60125460ff8160081c1680918192610cfc575b50610ccc573415610cba5760418460040135148015610ca8576107e290612e8e565b8360040135600111610230576108043660048601356000190160258701611445565b80516020909101206001600160a01b03163303610c9657610a88573360009081526015602052604090206002939084019061084d816004013561084784546118c3565b84611993565b83601f826004013511600114610a12578385918360040135610a05575b5050816004013560011b91600019906004013560031b1c19161790555b6108913433613382565b601454600a548110156108b8575b505090505b806000805160206143388339815191525580f35b61ffff601654166001600160401b03600c54161161089f5761010061ff001960125416176012556040519360208501602086526001548091526040860160408260051b88010191600187527fb10e2d527612073b26eecdfd717e6a320cf44b4afac2b0732d9fcbe2b7fa0cf69187905b8282106109ba57505050508585967f4914d88063275a25a13b2df37125e216745d812f94c56504be4bd78cf60c9593920390a161097260018060a01b03600e5416915480936115b1565b92813b1561064a5784926040519485938492637903ab2760e11b845260048401525af180156104b0576109a6575b8061089f565b6109af906113db565b61016e5780386109a0565b90919293602060036109f76001938d603f1990820301865288548152848060a01b03858a01541684820152606090816040820152018989016118fd565b960192019201909291610928565b830101359050833861086a565b828552602085208592916004830135601f19165b808510610a6b5760019450836004013511610a4c575b505060040135811b019055610887565b8201850135600019600484013560031b60f8161c191690553880610a3c565b838201870135835560209485019460019093019290910190610a26565b610a99368460040135838601611445565b926001600160401b03601c5416604051610ab2816113ee565b600281526020810195865233604082015281600052601d60205260406000209581516003811015610c815760ff80198954169116178755519586516001600160401b038111610c6c57610b1581610b0c60018501546118c3565b60018501611993565b6020601f8211600114610bea57908060029392600080516020614318833981519152999a600092610bdf575b50508160011b916000199060031b1c19161760018201555b0190604060018060a01b03910151166001600160601b0360a01b8254161790556001600160401b03610b8a82611ab8565b166001600160401b0319601c541617601c55610bc76040519384936002855233602086015260806040860152608085019181600401359101613004565b9060608301520390a1610bda3433613597565b6108a4565b015190503880610b41565b6001830160005260206000209860005b601f1984168110610c5457509160008051602061431883398151915298996001926002959483601f19811610610c3b575b505050811b016001820155610b59565b015160001960f88460031b161c19169055388080610c2b565b828201518b556001909a019960209283019201610bfa565b85634e487b7160e01b60005260416004526000fd5b85634e487b7160e01b60005260216004526000fd5b604051634be9251d60e11b8152600490fd5b6040516318dca5e960e21b8152600490fd5b604051635a78c58160e11b8152600490fd5b50610cd561328a565b60405163015538b160e01b815260206004820152918291610cf891830190613307565b0390fd5b60ff915060101c16386107c0565b503461016e578060031936011261016e576001906000805160206143388339815191528281541461015c57828155336000908152601f602052604090209283549061ffff90818316928315610e8457829060101c16918391808795818a01915b610dfe575b50505086610de0937f197c586353eaed0a1c53e6e540445b94befab8f932c8115d112115ecbeeed514959363ffff000093899a54911693849260101b169063ffffffff19161717905515610de7575b610dc88133613210565b60408051338152602081019290925290918291820190565b0390a15580f35b336000908152601f60205260409020859055610dbe565b909193948381169682881015610e7b5787600052602080918582526040600020604051610e2a816113aa565b89825492838352015493849101524310610e705785949388968894610e5186958a956115b1565b9c60005252600082604082208281550155011696600019011694610d6a565b985050509493610d6f565b96509493610d6f565b6040516364b0557f60e01b8152600490fd5b50606036600319011261016e5760443560028110156104ac57600e546001600160a01b03163303610ed05761022d90602435600435613d15565b60405163e7e601db60e01b8152600490fd5b503461016e578060031936011261016e57610efb6137a0565b61ffff610f118160195416826016541690611df7565b16610f73576012805463ff00000019166301000000179055600e5481906001600160a01b0316803b1561014a578180916004604051809481936341c0e1b560e01b83525af180156104b057610f635750f35b610f6c906113db565b61016e5780f35b604051636b62255160e11b8152600490fd5b508060031936011261016e57610f996137a0565b61022d6137c1565b503461016e57602036600319011261016e57610fbb6137a0565b61022d60043561384a565b503461016e576003196060368201126104ac576004356001600160401b0391828211610521576060826004019183360301126105215760243583811161064a57611014903690600401611481565b91906044358581116111705761102e903690600401611481565b916024860135966006549687891061115e57604461104d910186611705565b919050600954161061114c578794604051602081019061107f81611071898561308e565b03601f198101835282611409565b5190209688036110b0575050505050506007541461109b575080f35b8152602360205261060360408220339061183e565b6110ca939261032888969893610330939a989a36916114dc565b8060206040516110d9816113aa565b848152015281600655600755825260236020526110fa60408320339061183e565b50600e546001600160a01b031690813b1561015857829161113191604051948580948193630bed761560e01b83526004830161308e565b03925af180156104b057611143575080f35b61022d906113db565b60405163351c700760e01b8152600490fd5b60405163200c52f760e21b8152600490fd5b8680fd5b503461016e576020908160031936011261016e576001600160401b03916004358381116102305736602382011215610230576111ba903690602481600401359101611445565b923383526017825261ffff604084205416156112cb578351156112b95733835260248252604083209184519182116112a557611200826111fa85546118c3565b85611993565b80601f83116001146112415750839482939492611236575b50508160011b916000199060031b1c19161790555b610603336117d5565b015190503880611218565b90601f198316958486528286209286905b88821061128d57505083600195969710611274575b505050811b01905561122d565b015160001960f88460031b161c19169055388080611267565b80600185968294968601518155019501930190611252565b634e487b7160e01b84526041600452602484fd5b604051637138356f60e01b8152600490fd5b604051633b4f6e2b60e21b8152336004820152602490fd5b9050816003193601126104ac57341561139b575060ff60125460081c1661070b573381526003602052604081205415611342575b33815260036020526040812061132e3482546115b1565b905561133c346002546115b1565b60025580f35b600454600160401b811015611387576113648160016113829301600455611751565b81546001600160a01b0360039290921b91821b19163390911b179055565b611317565b634e487b7160e01b82526041600452602482fd5b631036b5ad60e31b8152600490fd5b604081019081106001600160401b038211176113c557604052565b634e487b7160e01b600052604160045260246000fd5b6001600160401b0381116113c557604052565b606081019081106001600160401b038211176113c557604052565b90601f801991011681019081106001600160401b038211176113c557604052565b6001600160401b0381116113c557601f01601f191660200190565b9291926114518261142a565b9161145f6040519384611409565b82948184528183011161147c578281602093846000960137010152565b600080fd5b9181601f8401121561147c578235916001600160401b03831161147c576020808501948460051b01011161147c57565b6001600160401b0381116113c55760051b60200190565b35906001600160a01b038216820361147c57565b92916114e7826114b1565b916114f56040519384611409565b829481845260208094019160051b810192831161147c57905b82821061151b5750505050565b838091611527846114c8565b81520191019061150e565b9291909261153f846114b1565b9161154d6040519384611409565b829480845260208094019060051b83019282841161147c5780915b84831061157757505050505050565b82356001600160401b03811161147c57820184601f8201121561147c5786916115a68683858095359101611445565b815201920191611568565b919082018092116115be57565b634e487b7160e01b600052601160045260246000fd5b9035603e198236030181121561147c570190565b35906001600160401b038216820361147c57565b9035601e198236030181121561147c5701602081359101916001600160401b03821161147c578160051b3603831361147c57565b60408201916001600160401b03611646836115e8565b168152606061165a602093848101906115fc565b839195604086839601525201929160005b828110611679575050505090565b909192938280600192838060a01b03611691896114c8565b1681520195019392910161166b565b6020815260806001600160401b036116ea60606116d06116c087806115d4565b85602088015260a0870190611630565b9560208101356040870152604081013582870152016115e8565b1691015290565b356001600160401b038116810361147c5790565b903590601e198136030182121561147c57018035906001600160401b03821161147c57602001918160051b3603831361147c57565b818110611745575050565b6000815560010161173a565b6004548110156117885760046000527f8a35acfbc15ff81a39ae7d344fd709f28e8600b4aa8c65c6b64bfe7fe36bd19b0190600090565b634e487b7160e01b600052603260045260246000fd5b6025548110156117885760256000527f401968ff42a154441da5f6c4c935ac46b8671f0e062baaa62a7545ba53bb6e4c0190600090565b60008181526026602052604081205461183957602554600160401b81101561138757908261182561180e8460016040960160255561179e565b819391549060031b91821b91600019901b19161790565b905560255492815260266020522055600190565b905090565b919060018301600090828252806020526040822054156000146118bd57845494600160401b8610156118a9576001860180825586101561189557836040949596828552602085200155549382526020522055600190565b634e487b7160e01b83526032600452602483fd5b634e487b7160e01b83526041600452602483fd5b50925050565b90600182811c921680156118f3575b60208310146118dd57565b634e487b7160e01b600052602260045260246000fd5b91607f16916118d2565b906000929180549161190e836118c3565b9182825260019384811690816000146119705750600114611930575b50505050565b90919394506000526020928360002092846000945b83861061195c57505050500101903880808061192a565b805485870183015294019385908201611945565b9294505050602093945060ff191683830152151560051b0101903880808061192a565b9190601f81116119a257505050565b6119ce926000526020600020906020601f840160051c830193106119d0575b601f0160051c019061173a565b565b90915081906119c1565b90808214611ab4576119ec81546118c3565b906001600160401b0382116113c5578190611a1182611a0b86546118c3565b86611993565b600090601f8311600114611a4857600092611a3d575b50508160011b916000199060031b1c1916179055565b015490503880611a27565b81526020808220858352818320935090601f1985169083905b828210611a9b575050908460019594939210611a82575b505050811b019055565b015460001960f88460031b161c19169055388080611a78565b8495819295850154815560018091019601940190611a61565b5050565b9060016001600160401b03809316019182116115be57565b601c546001600160401b0382811692908083168410611afb5760405163040aaa0560e11b8152600490fd5b808360401c16841061192a5780604093841c165b848282161115611b7657505091602091611b497f246f00b61ce672242f33bb680a47147cd54d3dfd04dbb76956ba42f88087bf6394611ab8565b67ffffffffffffffff60401b601c5491831b169067ffffffffffffffff60401b191617601c5551908152a1565b611b93816001600160401b0316600052601d602052604060002090565b60028181015482546001600160a01b03949293918516919060ff166003811015611dcf578695818603611c255750506001600160a01b039091166000908152601560205260409020611bea916001019084016119da565b611c07816001600160401b0316600052601d602052604060002090565b91600090818455600193611c1c858201611e64565b01550116611b0f565b919394955091885193611c4785611c408160018095016118fd565b0386611409565b6020808680518101031261147c5781818c9701519514600014611d84578490611c708285611ead565b601e54611c7d90436115b1565b92875190611c8a826113aa565b8482528282018481526001600160a01b0387166000908152601f602052604090209091909283549161ffff9384848180961695869160101c1690611ccd91611df7565b169c60009d8e5282870188528d209251835551910155611cec90611de4565b1661ffff198254161790558b519384528301528982015260607f083b080788e20bd0930c2bca2ae4fbc51a59ced08c1b5992271f8cb439498a6391a1600e541690813b15610230578291602483928a5195869384926345f5448560e01b845260048401525af1908115611d7957509084939291611d6a575b50611bea565b611d73906113db565b38611d64565b8751903d90823e3d90fd5b505082935091611d949192611e0d565b600e541690813b1561147c578651916316989f6f60e21b83528260048160009485945af1908115611d7957509084939291611d6a5750611bea565b60246000634e487b7160e01b81526021600452fd5b90600161ffff809316019182116115be57565b91909161ffff808094169116019182116115be57565b906119ce91611e4f60018060a01b03821692836000526015602052611e37816040600020546115b1565b936000526015602052836040600020556014546115b1565b601455611f30565b919082039182116115be57565b611e6e81546118c3565b9081611e78575050565b81601f60009311600114611e8a575055565b908083918252611ea9601f60208420940160051c84016001850161173a565b5555565b90611f11611f199260018060a01b0381169060008281526015602052611ed7856040832054611e57565b9281526015602052604081206001810184815481159081611f27575b5015611f1e57509082600292611f0c9483555501611e64565b61229d565b601454611e57565b601455565b9250505561229d565b90501538611ef3565b919060018060a01b03928381169360008581526020956017875261ffff9160409783898320541661218157836013541684601654161061214d5786611f736128ce565b919091106120c75750828252601a8152838983205416611fe6575050505050611fe17f19fe3ca603e87854a0747cc10abf06bac64d61bac73d6d15f2fd3ca448f152649394611fc1836125cb565b516001600160a01b03909216825260208201929092529081906040820190565b0390a1565b611ff586959994989796612de5565b92825260159081815284832054935b6001808b831611156120915781617fff911c1690818552601b83528b87862054168552838352858786205410156120445761203f9082612f44565b612004565b505093516001600160a01b0390951685525050505060208101919091529092507fda148fac2e1063174be7bc0895576bdaba90fd14e575463fa26a967cb895cadd91508060408101611fe1565b505050505050611fe191929395507fda148fac2e1063174be7bc0895576bdaba90fd14e575463fa26a967cb895cadd9450611fc1565b959650611fe1945090601a899493927ffaeb8de771b867cf357f6b459a7002b62ec45d544a8078a3ecd91200cc826d75999a93612102612a9d565b83525220541661213f575b61211684612a2b565b61211f836125cb565b516001600160a01b03928316815292909116602083015281906040820190565b612148846127b8565b61210d565b5050505050611fe17f2e8038f5812f763c6ef0c5427cb5a05ce6d7064af2ba7d1d270bc02660b019fd9394611fc183612a2b565b612192869598979699949399612dae565b98825260159081815284832054986121a98b6129ba565b8560165416905b86811682811161226557828110156122485750806121d06121d692611de4565b90612d5c565b9c909c5b8c11156121f9576121eb908d612eab565b6121f48c6129ba565b6121b0565b505094516001600160a01b0390961686525050505060208201929092529193507f143db27bc2036653dc6f962ff9d0b803163d4af50c256ca9e6927b3d6dcd0197925081905060408101611fe1565b869d919d52601884528288872054168652848452878620546121da565b5050505050505050611fe191929395507f143db27bc2036653dc6f962ff9d0b803163d4af50c256ca9e6927b3d6dcd01979450611fc1565b9160018060a01b039283811692600091848352602094601a865261ffff9060409482868220541661248c57818152601788528286822054161561247b5784156123f6576122e984612dae565b918152601580895286822054925b60018086831611156123e55781617fff911c169081845260188b528b89852054168452828b5284898520541115612337576123329082612eab565b6122f7565b5050505050919395509193505b60195416156123e0576123556128ce565b9061235e612918565b9092106123a757505091516001600160a01b03909216825260208201527f143db27bc2036653dc6f962ff9d0b803163d4af50c256ca9e6927b3d6dcd0197908060408101611fe1565b91509150611fe17ffaeb8de771b867cf357f6b459a7002b62ec45d544a8078a3ecd91200cc826d75936123d8612a9d565b61210d612651565b505050565b505050505091939550919350612344565b5091612429919597507f4a4c5d1a281180eea1e99d8177fa4798b9f7e019d5c57e7d8d73c6a22199aa5b94969350612be6565b8451908152a16019541661243a5750565b611fe17f2e8038f5812f763c6ef0c5427cb5a05ce6d7064af2ba7d1d270bc02660b019fd91612467612918565b929091612472612651565b611fc183612a2b565b8551632a55ca5360e01b8152600490fd5b90939596869893959815612592579261fffe9294936124aa87612de5565b9483526015918282528a8420549580976001968792831b168160195416925b61251e575b50509a516001600160a01b039098168852505050506020840194909452509293507fda148fac2e1063174be7bc0895576bdaba90fd14e575463fa26a967cb895cadd925090508060408101611fe1565b81811683811161258c578e90808511156125705750508061254161254792611de4565b906129d1565b9990995b89101561256b5761255c908a612f44565b612565896129ba565b876124c9565b6124ce565b8852601b8652872054841687528585528d87205490999061254b565b506124ce565b955050505090936125c47f3168ba660eed6ef1dc2258b2247cc05fd0f2f350d39e6ad2e2ebc76a8000b40b94956127b8565b51908152a1565b6119ce90604061ffff6125e18160195416611de4565b9260018060a01b0316600091818352601a6020528383209085169061ffff19908282825416179055818452601b602052848420836001600160601b0360a01b825416179055601954161760195581526015602052205490612962565b61ffff90811660001901919082116115be57565b61ffff806019541680156127a657600161266d82821115612e8e565b6000818152601b60208181526040808420805487865282862080546001600160a01b03928316808952601a8752858920805461ffff199081168d17909155918416808a52868a20805484168c17905588885283546001600160a01b03199081169092179093558989528454169091179092559396919493929161270391896126f48361263d565b16906019541617601955612e0a565b8483528581528184842054168352601591828252848420549686809960028160195416925b61273b575b505050505050505050505050565b8181168381116127a0578381101561278457508061254161275b92611de4565b9b909b5b8b101561277f57612770908c612f44565b6127798b6129ba565b89612728565b61272d565b889c919c5283865284898920541688528686528888205461275f565b5061272d565b6040516340d9b01160e01b8152600490fd5b6127c190612de5565b61ffff8060195416906127d48284612f44565b806127de8361263d565b1661ffff1960195416176019556127f482612e0a565b8083168092146123e057919061fffe906000818152601b91602083815260018060a01b036040948186862054168552601593848452612836878720548a612962565b85528083528186862054168552838352858520549780996001988992831b168160195416925b61286e57505050505050505050505050565b8181168381116127a057838110156128b257508061254161288e92611de4565b9b909b5b8b101561277f576128a3908c612f44565b6128ac8b6129ba565b8961285c565b889c919c52838652848989205416885286865288882054612892565b61ffff60165416156127a6577ff3794665d3af9b6fb6f858b70185898134f96768ef31c325d52e04f0ac195a4d546001600160a01b03166000818152601560205260409020549091565b61ffff60195416156127a6577f9fafca4c9c0d5c2cbf85f49fd8ab8212430ce78c2a0cb75b51e0f9c4f9ace003546001600160a01b03166000818152601560205260409020549091565b9190915b60018061ffff831611156129b45781617fff911c1690836000838152602090601b8252601560409260018060a01b038484205416835252205410156129b4576129af9082612f44565b612966565b50509050565b60011b906201fffe61fffe8316921682036115be57565b91909161ffff92604060008584168152601b60205260018060a01b0380838320541682526015602052828220549684168252601b602052828220541681526015602052205490818510612a245750509190565b9350919050565b6119ce90604061ffff612a418160165416611de4565b9260018060a01b031660009181835260176020528383209085169061ffff199082828254161790558184526018602052848420836001600160601b0360a01b825416179055601654161760165581526015602052205490612d0a565b61ffff806016541680156127a6576001612ab982821115612e8e565b6000818152601860208181526040808420805487865282862080546001600160a01b0392831680895260178752858920805461ffff199081168d17909155918416808a52868a20805484168c17905588885283546001600160a01b031990811690921790935589895284541690911790925593969194939291612b4f9189612b408361263d565b16906016541617601655612e4c565b8483528581528184842054168352601591828252848420549686809960028160165416925b612b8657505050505050505050505050565b8181168381116127a05783811015612bca5750806121d0612ba692611de4565b9b909b5b8b111561277f57612bbb908c612eab565b612bc48b6129ba565b89612b74565b889c919c52838652848989205416885286865288882054612baa565b612bef90612dae565b9061ffff90816016541691612c048385612eab565b80612c0e8461263d565b1661ffff196016541617601655612c2483612e4c565b808416809314612d045760009280845260189360209185835260018060a01b03926040938085852054168452601592838352612c63868620548b612d0a565b845287825280858520541684528282528484205497612c818a6129ba565b8760165416905b888116828111612cf55782811015612cd95750806121d0612ca892611de4565b9b909b5b8b1115612ccb57612cbd908c612eab565b612cc68b6129ba565b612c88565b505050505050505050915050565b879c919c52828552838888205416875285855287872054612cac565b50505050505050505050915050565b50915050565b9190915b60018061ffff831611156129b45781617fff911c169083600083815260209060188252601560409260018060a01b038484205416835252205411156129b457612d579082612eab565b612d0e565b919061ffff604060008286168152601860205260018060a01b0380838320541682526015602052828220549385168252601860205282822054168152601560205220549384821115612a245750509190565b6001600160a01b031660009081526017602052604090205461ffff16908115612dd357565b60405163f2755e3760e01b8152600490fd5b6001600160a01b03166000908152601a602052604090205461ffff16908115612dd357565b61ffff166000908152601b6020908152604080832080546001600160a01b031981169091556001600160a01b03168352601a9091529020805461ffff19169055565b61ffff16600090815260186020908152604080832080546001600160a01b031981169091556001600160a01b0316835260179091529020805461ffff19169055565b15612e9557565b634e487b7160e01b600052600160045260246000fd5b612ed061ffff808060165416931693612ec684861115612e8e565b1691821115612e8e565b6000828152601860208181526040808420805486865282862080546001600160a01b0392831680895260178752858920805461ffff19908116909b1790559216808852938720805490981689179097559390925284546001600160a01b031990811690931790945593909152825416179055565b612f5f61ffff808060195416931693612ec684861115612e8e565b6000828152601b60208181526040808420805486865282862080546001600160a01b03928316808952601a8752858920805461ffff19908116909b1790559216808852938720805490981689179097559390925284546001600160a01b031990811690931790945593909152825416179055565b9035601e198236030181121561147c5701602081359101916001600160401b03821161147c57813603831361147c57565b908060209392818452848401376000828201840152601f01601f1916010190565b61304e61304361303583806115d4565b604085526040850190611630565b9160208101906115d4565b91602081830391015281359160ff831680930361147c5761307b60409161308b9484526020810190612fd3565b9190928160208201520191613004565b90565b602080825261309d83806115d4565b60609182818501526130b460809283860190611630565b6130cb6040968381013588880152878101906115fc565b939096601f199686888286030191015284835283830191848660051b8501019880986000955b88871061310657505050505050505050505090565b909192939495969798999a828282030187526131228c856115d4565b90813560de198336030181121561147c578782528201918a90888e6001600160401b0361319961318961317661316d61315b8b806115d4565b60e080988c01526101208b0190613025565b978a018a6115d4565b96603f1997888a830301868b0152613025565b928d8901358d89015288016115e8565b169060a091828701528a8701359263ffffffff60e01b841680940361147c578f956131d06131e09460c096878b01528a018a612fd3565b9290918985030190890152613004565b94013561010084015201359081151580920361147c578a01529a88019998979660010195870194939291906130f1565b814710613272576000918291829182916001600160a01b03165af13d1561326d573d61323b8161142a565b906132496040519283611409565b8152600060203d92013e5b1561325b57565b604051630a12f52160e11b8152600490fd5b613254565b60405163cd78605960e01b8152306004820152602490fd5b60405190608082018281106001600160401b038211176113c5576040526045825264185c1c195960da1b6060837f4d6574686f64206e6f7420616c6c6f776564206966207065726d697373696f6e60208201527f656420697320656e61626c656420616e64207375626e657420626f6f7473747260408201520152565b919082519283825260005b848110613333575050826000602080949584010152601f8019910116010190565b602081830181015184830182015201613312565b600154811015611788576003906001600052027fb10e2d527612073b26eecdfd717e6a320cf44b4afac2b0732d9fcbe2b7fa0cf60190600090565b90613397906133918184613570565b82611e0d565b60ff60125460081c16156133a85750565b60018054600082815b83811061353f575b5050156133c557505050565b6001600160a01b03831660009081526015602052604090208054613419949091600201604051926133f5846113ee565b83526020936134208585019260018060a01b038095168452604051988980926118fd565b0388611409565b60408401968752600160401b8110156113c557808661344192018755613347565b929092613529576002935183558583019151166001600160601b0360a01b825416179055019251908151916001600160401b0383116113c55761348e8361348887546118c3565b87611993565b81601f84116001146134c757509282939183926000946134bc575b50501b916000199060031b1c1916179055565b0151925038806134a9565b919083601f1981168760005284600020946000905b8883831061350f57505050106134f657505050811b019055565b015160001960f88460031b161c19169055388080611a78565b8587015188559096019594850194879350908101906134dc565b634e487b7160e01b600052600060045260246000fd5b8161354982613347565b5001546001600160a01b03878116911614613566570183906133b1565b50905082386133b9565b60018060a01b0316600052601560205261359360016040600020019182546115b1565b9055565b919060405192816020850152602084526135b0846113aa565b6001600160401b03601c541693604051946135ca866113ee565b60008652602086019582875260018060a01b038416604082015281600052601d6020526040600020968151600381101561378a5760ff80198a54169116178855519687516001600160401b0381116113c55761362d81610b0c60018501546118c3565b6020601f82116001146136ff576136e69492826000805160206143188339815191529795936002936119ce9c9d6000926136f4575b50508160011b916000199060031b1c19161760018201555b0190604060018060a01b03910151166001600160601b0360a01b8254161790556001600160401b036136ab82611ab8565b166001600160401b0319601c541617601c556040519283926000845260018060a01b0387166020850152608060408501526080840190613307565b9060608301520390a1613570565b015190503880613662565b6001830160005260206000209960005b601f19841681106137725750926001836119ce9b9c6002946136e699976000805160206143188339815191529b9997601f19811610613759575b505050811b01600182015561367a565b015160001960f88460031b161c19169055388080613749565b828201518c556001909b019a6020928301920161370f565b634e487b7160e01b600052602160045260246000fd5b60ff60125460181c166137af57565b60405163248c8efb60e11b8152600490fd5b60125460ff8160101c1661381e573415610cba57336000908152601560205260409020600101541561380c5760081c60ff1615613802576119ce3433613597565b6119ce3433613382565b60405163528fc16560e01b8152600490fd5b610cf861382961328a565b60405163015538b160e01b8152602060048201529182916024830190613307565b60125460ff8160101c1661381e5781156138bc573360009081526015602052604090206001015480156112cb578210156138ab5760081c60ff1615613893576119ce9033613921565b806138a16119ce92336138ce565b6106e58133611ead565b60405162d11df360e61b8152600490fd5b60405163c79cad7b60e01b8152600490fd5b6001600160a01b0316600081815260156020526040902060010154909180821061390f576138fb91611e57565b906000526015602052600160406000200155565b60405163ac69360360e01b8152600490fd5b9190604051928160208501526020845261393a846113aa565b6001600160401b03601c54169360405194613954866113ee565b60018652602086019582875260018060a01b038416604082015281600052601d6020526040600020968151600381101561378a5760ff80198a54169116178855519687516001600160401b0381116113c5576139b781610b0c60018501546118c3565b6020601f8211600114613a8957613a709492826000805160206143188339815191529795936002936119ce9c9d600092613a7e575b50508160011b916000199060031b1c19161760018201555b0190604060018060a01b03910151166001600160601b0360a01b8254161790556001600160401b03613a3582611ab8565b166001600160401b0319601c541617601c556040519283926001845260018060a01b0387166020850152608060408501526080840190613307565b9060608301520390a16138ce565b0151905038806139ec565b6001830160005260206000209960005b601f1984168110613afc5750926001836119ce9b9c600294613a7099976000805160206143188339815191529b9997601f19811610613ae3575b505050811b016001820155613a04565b015160001960f88460031b161c19169055388080613ad3565b828201518c556001909b019a60209283019201613a99565b60125460ff8160081c169081613c09575b5061381e573360009081526015602052604090206001015480156112cb57613b4c33613c17565b5060009033825260246020528160408120613b6781546118c3565b80613bcc575b50505060ff60125460081c1615613b89576119ce915033613921565b60406119ce923381526003602052205480613baa575b506138a181336138ce565b80613bba613bc692600254611e57565b6002556106e533614230565b38613b9f565b82601f8211600114613be4575050555b813880613b6d565b9091808252613c02601f60208420940160051c84016001850161173a565b5555613bdc565b60ff915060101c1638613b25565b6000818152602660205260408120549091908015613cfc5760001990808201818111613ce85760255490838201918211613cd457808203613ca0575b5050506025548015613c8c57810190613c6b8261179e565b909182549160031b1b19169055602555815260266020526040812055600190565b634e487b7160e01b84526031600452602484fd5b613cbe613caf61180e9361179e565b90549060031b1c92839261179e565b9055845260266020526040842055388080613c53565b634e487b7160e01b86526011600452602486fd5b634e487b7160e01b85526011600452602485fd5b505090565b80518210156117885760209160051b010190565b91909182156123e0576040908151906020938483018381106001600160401b038211176113c55784526000928390526002811015613eac5780613e0d5750600b54613d5f91611e57565b8152602283528181208251808286829454938481520190855286852092855b88828210613df757505050613d9592500382611409565b928351948515613def57858110613def5785900493825b868110613dbc5750505050505050565b6001906001600160a01b03613dd18285613d01565b5116855260218452858520613de78882546115b1565b905501613dac565b505050505050565b8554845260019586019587955093019201613d7e565b846001859214600014613e5d57606491519063015538b160e01b82526004820152601f60248201527f72657761726473206e6f7420646566696e656420666f722062617463686573006044820152fd5b608491519063015538b160e01b82526004820152602360248201527f72657761726473206e6f7420646566696e656420666f72206f626a656374206b6044820152621a5b9960ea1b6064820152fd5b634e487b7160e01b83526021600452602483fd5b91825191613ecd836114b1565b93604094613edd86519182611409565b848152601f19613eec866114b1565b0194602095368784013760005b818110613fc857505060009461ffff8060165416600192839182945b613f72575b505050505060ff600e5460a01c16948581029581870414901517156115be576064613f46950491614055565b9015613f50575050565b600781101561378a5760ff602492519163282ef1c160e01b8352166004820152fd5b90919293988a858b16838111613fc057600090815260188552908120546001600160a01b031681526015602052604090208493929186918591613fb69154906115b1565b9b01169493613f15565b505098613f1a565b6001600160a01b0380613fdb8387613d01565b51166000526017885261ffff89600020541615614031579061401f6001926140038388613d01565b51166001600160a01b0316600090815260156020526040902090565b5461402a8286613d01565b5201613ef9565b889061403f60249387613d01565b519151633b4f6e2b60e21b815291166004820152fd5b84519294600094908415614157578251851480159061414c575b61413f579392919085945b84861061409d57505050505050101561409557600090600690565b600190600090565b9091929394956140b76140b08884613d01565b5184614164565b50906004918281101561412a57614118576001600160a01b03806140db8b89613d01565b511691160361410857506140fc6001916140f58988613d01565b51906115b1565b9601949392919061407a565b9897505050505050505060009190565b50505050505050505050600090600590565b602183634e487b7160e01b6000525260246000fd5b5050505050905090600190565b50835185141561406f565b5050505050905090600290565b81519190604183036141955761418e92506020820151906060604084015193015160001a906141a0565b9192909190565b505060009160029190565b91907f7fffffffffffffffffffffffffffffff5d576e7357a4501ddfe92f46681b20a0841161422457926020929160ff608095604051948552168484015260408301526060820152600092839182805260015afa156142185780516001600160a01b0381161561420f57918190565b50809160019190565b604051903d90823e3d90fd5b50505060009160039190565b60049081549160005b8381106142465750505050565b61424f81611751565b90546003916001600160a01b039190831b1c811685821614614275575050600101614239565b92935093906000199182810190811161430257906142a6846142996142c594611751565b905490891b1c1691611751565b90919082549060031b9160018060a01b03809116831b921b1916179055565b825480156142ed5701926142d884611751565b81939154921b1b19169055553880808061192a565b603184634e487b7160e01b6000525260246000fd5b601185634e487b7160e01b6000525260246000fdfe1c593a2b803c3f9038e8b6743ba79fbc4276d2770979a01d2768ed12bea3243f691bb03ffc16c56fc96b82fd16cd1b3715f0bc3cdc6407005f49bb6205860095a264697066735822122073f3e73171aa754047d671c12bae614e16bb67e5408fc9f03dd054d658dcfff164736f6c63430008130033","linkReferences":{"src/lib/LibStaking.sol":{"LibStaking":[{"start":263,"length":20}]}}},"methodIdentifiers":{"addBootstrapNode(string)":"10fd4261","claim()":"4e71d92d","claimRewardForRelayer()":"ed7c4da1","distributeRewardToRelayers(uint256,uint256,uint8)":"4c860af6","join(bytes)":"6170b162","kill()":"41c0e1b5","leave()":"d66d9e19","preFund()":"0b7fbe60","preRelease(uint256)":"66783c9b","stake()":"3a4b66f1","submitBottomUpMsgBatch(((uint64,address[]),uint256,((((uint64,address[]),(uint8,bytes)),((uint64,address[]),(uint8,bytes)),uint256,uint64,bytes4,bytes,uint256),bool)[]),address[],bytes[])":"26811936","submitCheckpoint(((uint64,address[]),uint256,bytes32,uint64),address[],bytes[])":"b9ee2bb9","unstake(uint256)":"2e17de78","validateActiveQuorumSignatures(address[],bytes32,bytes[])":"cc2dc2b9"},"id":77}