{"abi":[{"type":"function","name":"appliedTopDownNonce","inputs":[],"outputs":[{"name":"","type":"uint64","internalType":"uint64"}],"stateMutability":"view"},{"type":"function","name":"bottomUpCheckPeriod","inputs":[],"outputs":[{"name":"","type":"uint256","internalType":"uint256"}],"stateMutability":"view"},{"type":"function","name":"bottomUpCheckpoint","inputs":[{"name":"e","type":"uint256","internalType":"uint256"}],"outputs":[{"name":"","type":"tuple","internalType":"struct BottomUpCheckpoint","components":[{"name":"subnetID","type":"tuple","internalType":"struct SubnetID","components":[{"name":"root","type":"uint64","internalType":"uint64"},{"name":"route","type":"address[]","internalType":"address[]"}]},{"name":"blockHeight","type":"uint256","internalType":"uint256"},{"name":"blockHash","type":"bytes32","internalType":"bytes32"},{"name":"nextConfigurationNumber","type":"uint64","internalType":"uint64"}]}],"stateMutability":"view"},{"type":"function","name":"bottomUpMessages","inputs":[{"name":"e","type":"uint256","internalType":"uint256"}],"outputs":[{"name":"","type":"tuple[]","internalType":"struct CrossMsg[]","components":[{"name":"message","type":"tuple","internalType":"struct StorableMsg","components":[{"name":"from","type":"tuple","internalType":"struct IPCAddress","components":[{"name":"subnetId","type":"tuple","internalType":"struct SubnetID","components":[{"name":"root","type":"uint64","internalType":"uint64"},{"name":"route","type":"address[]","internalType":"address[]"}]},{"name":"rawAddress","type":"tuple","internalType":"struct FvmAddress","components":[{"name":"addrType","type":"uint8","internalType":"uint8"},{"name":"payload","type":"bytes","internalType":"bytes"}]}]},{"name":"to","type":"tuple","internalType":"struct IPCAddress","components":[{"name":"subnetId","type":"tuple","internalType":"struct SubnetID","components":[{"name":"root","type":"uint64","internalType":"uint64"},{"name":"route","type":"address[]","internalType":"address[]"}]},{"name":"rawAddress","type":"tuple","internalType":"struct FvmAddress","components":[{"name":"addrType","type":"uint8","internalType":"uint8"},{"name":"payload","type":"bytes","internalType":"bytes"}]}]},{"name":"value","type":"uint256","internalType":"uint256"},{"name":"nonce","type":"uint64","internalType":"uint64"},{"name":"method","type":"bytes4","internalType":"bytes4"},{"name":"params","type":"bytes","internalType":"bytes"},{"name":"fee","type":"uint256","internalType":"uint256"}]},{"name":"wrapped","type":"bool","internalType":"bool"}]}],"stateMutability":"view"},{"type":"function","name":"bottomUpNonce","inputs":[],"outputs":[{"name":"","type":"uint64","internalType":"uint64"}],"stateMutability":"view"},{"type":"function","name":"crossMsgFee","inputs":[],"outputs":[{"name":"","type":"uint256","internalType":"uint256"}],"stateMutability":"view"},{"type":"function","name":"getAppliedTopDownNonce","inputs":[{"name":"subnetId","type":"tuple","internalType":"struct SubnetID","components":[{"name":"root","type":"uint64","internalType":"uint64"},{"name":"route","type":"address[]","internalType":"address[]"}]}],"outputs":[{"name":"","type":"bool","internalType":"bool"},{"name":"","type":"uint64","internalType":"uint64"}],"stateMutability":"view"},{"type":"function","name":"getBottomUpRetentionHeight","inputs":[],"outputs":[{"name":"","type":"uint256","internalType":"uint256"}],"stateMutability":"view"},{"type":"function","name":"getCheckpointCurrentWeight","inputs":[{"name":"h","type":"uint256","internalType":"uint256"}],"outputs":[{"name":"","type":"uint256","internalType":"uint256"}],"stateMutability":"view"},{"type":"function","name":"getCheckpointInfo","inputs":[{"name":"h","type":"uint256","internalType":"uint256"}],"outputs":[{"name":"","type":"tuple","internalType":"struct QuorumInfo","components":[{"name":"hash","type":"bytes32","internalType":"bytes32"},{"name":"rootHash","type":"bytes32","internalType":"bytes32"},{"name":"threshold","type":"uint256","internalType":"uint256"},{"name":"currentWeight","type":"uint256","internalType":"uint256"},{"name":"reached","type":"bool","internalType":"bool"}]}],"stateMutability":"view"},{"type":"function","name":"getCurrentBottomUpCheckpoint","inputs":[],"outputs":[{"name":"exists","type":"bool","internalType":"bool"},{"name":"epoch","type":"uint256","internalType":"uint256"},{"name":"checkpoint","type":"tuple","internalType":"struct BottomUpCheckpoint","components":[{"name":"subnetID","type":"tuple","internalType":"struct SubnetID","components":[{"name":"root","type":"uint64","internalType":"uint64"},{"name":"route","type":"address[]","internalType":"address[]"}]},{"name":"blockHeight","type":"uint256","internalType":"uint256"},{"name":"blockHash","type":"bytes32","internalType":"bytes32"},{"name":"nextConfigurationNumber","type":"uint64","internalType":"uint64"}]}],"stateMutability":"view"},{"type":"function","name":"getCurrentConfigurationNumber","inputs":[],"outputs":[{"name":"","type":"uint64","internalType":"uint64"}],"stateMutability":"view"},{"type":"function","name":"getCurrentMembership","inputs":[],"outputs":[{"name":"","type":"tuple","internalType":"struct Membership","components":[{"name":"validators","type":"tuple[]","internalType":"struct Validator[]","components":[{"name":"weight","type":"uint256","internalType":"uint256"},{"name":"addr","type":"address","internalType":"address"},{"name":"metadata","type":"bytes","internalType":"bytes"}]},{"name":"configurationNumber","type":"uint64","internalType":"uint64"}]}],"stateMutability":"view"},{"type":"function","name":"getIncompleteCheckpointHeights","inputs":[],"outputs":[{"name":"","type":"uint256[]","internalType":"uint256[]"}],"stateMutability":"view"},{"type":"function","name":"getIncompleteCheckpoints","inputs":[],"outputs":[{"name":"","type":"tuple[]","internalType":"struct BottomUpCheckpoint[]","components":[{"name":"subnetID","type":"tuple","internalType":"struct SubnetID","components":[{"name":"root","type":"uint64","internalType":"uint64"},{"name":"route","type":"address[]","internalType":"address[]"}]},{"name":"blockHeight","type":"uint256","internalType":"uint256"},{"name":"blockHash","type":"bytes32","internalType":"bytes32"},{"name":"nextConfigurationNumber","type":"uint64","internalType":"uint64"}]}],"stateMutability":"view"},{"type":"function","name":"getLastConfigurationNumber","inputs":[],"outputs":[{"name":"","type":"uint64","internalType":"uint64"}],"stateMutability":"view"},{"type":"function","name":"getLastMembership","inputs":[],"outputs":[{"name":"","type":"tuple","internalType":"struct Membership","components":[{"name":"validators","type":"tuple[]","internalType":"struct Validator[]","components":[{"name":"weight","type":"uint256","internalType":"uint256"},{"name":"addr","type":"address","internalType":"address"},{"name":"metadata","type":"bytes","internalType":"bytes"}]},{"name":"configurationNumber","type":"uint64","internalType":"uint64"}]}],"stateMutability":"view"},{"type":"function","name":"getLatestParentFinality","inputs":[],"outputs":[{"name":"","type":"tuple","internalType":"struct ParentFinality","components":[{"name":"height","type":"uint256","internalType":"uint256"},{"name":"blockHash","type":"bytes32","internalType":"bytes32"}]}],"stateMutability":"view"},{"type":"function","name":"getNetworkName","inputs":[],"outputs":[{"name":"","type":"tuple","internalType":"struct SubnetID","components":[{"name":"root","type":"uint64","internalType":"uint64"},{"name":"route","type":"address[]","internalType":"address[]"}]}],"stateMutability":"view"},{"type":"function","name":"getParentFinality","inputs":[{"name":"blockNumber","type":"uint256","internalType":"uint256"}],"outputs":[{"name":"","type":"tuple","internalType":"struct ParentFinality","components":[{"name":"height","type":"uint256","internalType":"uint256"},{"name":"blockHash","type":"bytes32","internalType":"bytes32"}]}],"stateMutability":"view"},{"type":"function","name":"getQuorumThreshold","inputs":[{"name":"totalWeight","type":"uint256","internalType":"uint256"}],"outputs":[{"name":"","type":"uint256","internalType":"uint256"}],"stateMutability":"view"},{"type":"function","name":"getSignatureBundle","inputs":[{"name":"h","type":"uint256","internalType":"uint256"}],"outputs":[{"name":"ch","type":"tuple","internalType":"struct BottomUpCheckpoint","components":[{"name":"subnetID","type":"tuple","internalType":"struct SubnetID","components":[{"name":"root","type":"uint64","internalType":"uint64"},{"name":"route","type":"address[]","internalType":"address[]"}]},{"name":"blockHeight","type":"uint256","internalType":"uint256"},{"name":"blockHash","type":"bytes32","internalType":"bytes32"},{"name":"nextConfigurationNumber","type":"uint64","internalType":"uint64"}]},{"name":"info","type":"tuple","internalType":"struct QuorumInfo","components":[{"name":"hash","type":"bytes32","internalType":"bytes32"},{"name":"rootHash","type":"bytes32","internalType":"bytes32"},{"name":"threshold","type":"uint256","internalType":"uint256"},{"name":"currentWeight","type":"uint256","internalType":"uint256"},{"name":"reached","type":"bool","internalType":"bool"}]},{"name":"signatories","type":"address[]","internalType":"address[]"},{"name":"signatures","type":"bytes[]","internalType":"bytes[]"}],"stateMutability":"view"},{"type":"function","name":"getSubnet","inputs":[{"name":"subnetId","type":"tuple","internalType":"struct SubnetID","components":[{"name":"root","type":"uint64","internalType":"uint64"},{"name":"route","type":"address[]","internalType":"address[]"}]}],"outputs":[{"name":"","type":"bool","internalType":"bool"},{"name":"","type":"tuple","internalType":"struct Subnet","components":[{"name":"stake","type":"uint256","internalType":"uint256"},{"name":"genesisEpoch","type":"uint256","internalType":"uint256"},{"name":"circSupply","type":"uint256","internalType":"uint256"},{"name":"topDownNonce","type":"uint64","internalType":"uint64"},{"name":"appliedBottomUpNonce","type":"uint64","internalType":"uint64"},{"name":"status","type":"uint8","internalType":"enum Status"},{"name":"id","type":"tuple","internalType":"struct SubnetID","components":[{"name":"root","type":"uint64","internalType":"uint64"},{"name":"route","type":"address[]","internalType":"address[]"}]}]}],"stateMutability":"view"},{"type":"function","name":"getSubnetTopDownMsgsLength","inputs":[{"name":"subnetId","type":"tuple","internalType":"struct SubnetID","components":[{"name":"root","type":"uint64","internalType":"uint64"},{"name":"route","type":"address[]","internalType":"address[]"}]}],"outputs":[{"name":"","type":"uint256","internalType":"uint256"}],"stateMutability":"view"},{"type":"function","name":"listSubnets","inputs":[],"outputs":[{"name":"","type":"tuple[]","internalType":"struct Subnet[]","components":[{"name":"stake","type":"uint256","internalType":"uint256"},{"name":"genesisEpoch","type":"uint256","internalType":"uint256"},{"name":"circSupply","type":"uint256","internalType":"uint256"},{"name":"topDownNonce","type":"uint64","internalType":"uint64"},{"name":"appliedBottomUpNonce","type":"uint64","internalType":"uint64"},{"name":"status","type":"uint8","internalType":"enum Status"},{"name":"id","type":"tuple","internalType":"struct SubnetID","components":[{"name":"root","type":"uint64","internalType":"uint64"},{"name":"route","type":"address[]","internalType":"address[]"}]}]}],"stateMutability":"view"},{"type":"function","name":"majorityPercentage","inputs":[],"outputs":[{"name":"","type":"uint64","internalType":"uint64"}],"stateMutability":"view"},{"type":"function","name":"minStake","inputs":[],"outputs":[{"name":"","type":"uint256","internalType":"uint256"}],"stateMutability":"view"},{"type":"function","name":"postbox","inputs":[{"name":"id","type":"bytes32","internalType":"bytes32"}],"outputs":[{"name":"storableMsg","type":"tuple","internalType":"struct StorableMsg","components":[{"name":"from","type":"tuple","internalType":"struct IPCAddress","components":[{"name":"subnetId","type":"tuple","internalType":"struct SubnetID","components":[{"name":"root","type":"uint64","internalType":"uint64"},{"name":"route","type":"address[]","internalType":"address[]"}]},{"name":"rawAddress","type":"tuple","internalType":"struct FvmAddress","components":[{"name":"addrType","type":"uint8","internalType":"uint8"},{"name":"payload","type":"bytes","internalType":"bytes"}]}]},{"name":"to","type":"tuple","internalType":"struct IPCAddress","components":[{"name":"subnetId","type":"tuple","internalType":"struct SubnetID","components":[{"name":"root","type":"uint64","internalType":"uint64"},{"name":"route","type":"address[]","internalType":"address[]"}]},{"name":"rawAddress","type":"tuple","internalType":"struct FvmAddress","components":[{"name":"addrType","type":"uint8","internalType":"uint8"},{"name":"payload","type":"bytes","internalType":"bytes"}]}]},{"name":"value","type":"uint256","internalType":"uint256"},{"name":"nonce","type":"uint64","internalType":"uint64"},{"name":"method","type":"bytes4","internalType":"bytes4"},{"name":"params","type":"bytes","internalType":"bytes"},{"name":"fee","type":"uint256","internalType":"uint256"}]},{"name":"wrapped","type":"bool","internalType":"bool"}],"stateMutability":"view"},{"type":"function","name":"subnets","inputs":[{"name":"h","type":"bytes32","internalType":"bytes32"}],"outputs":[{"name":"subnet","type":"tuple","internalType":"struct Subnet","components":[{"name":"stake","type":"uint256","internalType":"uint256"},{"name":"genesisEpoch","type":"uint256","internalType":"uint256"},{"name":"circSupply","type":"uint256","internalType":"uint256"},{"name":"topDownNonce","type":"uint64","internalType":"uint64"},{"name":"appliedBottomUpNonce","type":"uint64","internalType":"uint64"},{"name":"status","type":"uint8","internalType":"enum Status"},{"name":"id","type":"tuple","internalType":"struct SubnetID","components":[{"name":"root","type":"uint64","internalType":"uint64"},{"name":"route","type":"address[]","internalType":"address[]"}]}]}],"stateMutability":"view"},{"type":"function","name":"totalSubnets","inputs":[],"outputs":[{"name":"","type":"uint64","internalType":"uint64"}],"stateMutability":"view"}],"bytecode":{"object":"0x6080806040523461001657611cd4908161001c8239f35b600080fdfe6080604052600436101561001257600080fd5b60003560e01c806302e30f9a146112885780630338150f1461123f57806304a1d59914610e7957806306572c1a14610e4a57806306c4685314610e2c5780632472942514610e0e5780632da5794a14610d8f578063375b3c0a14610d715780633e37cfa214610d5357806341b6a2e814610d29578063544dddff14610d02578063599c7bd114610ce15780635d02968514610bc25780636ad21bb014610ae15780637edeac9214610a905780638789f83b14610a665780638cfd78e7146109ce57806394074b0314610912578063970427661461076b5780639d3070b5146107265780639e530b57146106f5578063a2b67158146106cb578063a517218f14610615578063ac12d76314610573578063b1ba49b01461054c578063b3ab3f741461051d578063c66c66a1146104ca578063d6c5c3971461035b578063e15cdca7146102505763f32291311461016657600080fd5b3461024b57600036600319011261024b5761017f611a94565b5060405161018c816115d6565b600654906101998261162d565b6101a6604051918261160c565b8281526020908181019360066000527ff652222313e28459528d920b65115c16c04f3efc82aaedc97be59f3f377c0d3f946000905b828210610207578386526007546001600160401b03168587015260405180610203888261142f565b0390f35b600385600192604051610219816115f1565b8a548152848060a01b03858c0154168382015261023860028c016117df565b60408201528152019701910190956101db565b600080fd5b3461024b5760208060031936011261024b576004356000526009815260406000209081549161027e8361162d565b9261028c604051948561160c565b8084528284018092600052836000206000915b83831061031c5750505050604051918083019381845251809452604083019360408160051b85010192916000955b8287106102da5785850386f35b909192938280600192603f198982030185528751908280610304845160408552604085019061150b565b930151151591015296019201960195929190926102cd565b600d86600192604099989951610331816115d6565b61033a866118f6565b815260ff600c8701541615158382015281520192019201919095949561029f565b3461024b57600036600319011261024b576103746117b3565b5061037d6117b3565b50601e5480156104b4576001600160401b03908082431604906001820180921161049e576103aa91611c8b565b8060005261040f60209260088452836040600020604051926103cb84611585565b60046103d683611738565b9283865260028101548587015260038101546040870152015416606084015260405180948192630c133d1360e31b835260048301611ae6565b038173__$a0fe38a9a81205afccc10810b09a4d3f45$__5af49182156104925760009261045a575b5061020391926040519485941585528401526060604084015260608301906113aa565b91508382813d831161048b575b610471818361160c565b8101031261024b5761048561020392611ad9565b91610437565b503d610467565b6040513d6000823e3d90fd5b634e487b7160e01b600052601160045260246000fd5b634e487b7160e01b600052601260045260246000fd5b3461024b576104fe6104f66104f16104e1366116ed565b6104e961196d565b503690611644565b611b84565b9190916119ac565b906102036040519283921515835260406020840152604083019061132c565b3461024b57602036600319011261024b57600435600052600c6020526020600360406000200154604051908152f35b3461024b57600036600319011261024b5760206001600160401b0360075416604051908152f35b3461024b57602036600319011261024b5761058c611aae565b50600435600052600c60205260a0604060002060ff6004604051926105b0846115a0565b80548452600181015460208501526002810154604085015260038101546060850152015416151560808201526106136040518092608080918051845260208101516020850152604081015160408501526060810151606085015201511515910152565bf35b3461024b57600036600319011261024b5760405180600d5480835260208093018091600d6000527fd7b6990105719101dabeb77144f2a3385c8033acd3af97e9423a695e81ad1eb59060005b868282106106b75786866106778288038361160c565b604051928392818401908285525180915260408401929160005b8281106106a057505050500390f35b835185528695509381019392810192600101610691565b835485529093019260019283019201610661565b3461024b57600036600319011261024b5760206001600160401b03601d5460881c16604051908152f35b3461024b5760406001600160401b03610715610710366116ed565b611a16565b835191151582529091166020820152f35b3461024b57602036600319011261024b576004356001600160401b0380821161024b57600361075e6104f16020943690600401611644565b9050015416604051908152f35b3461024b57600036600319011261024b5760405180600d54808352816020809401600d6000527fd7b6990105719101dabeb77144f2a3385c8033acd3af97e9423a695e81ad1eb59260005b868282106108fc57846107cb8186038261160c565b80516107d68161162d565b906107e4604051928361160c565b808252601f196107f38261162d565b018460005b8281106108e65750505060005b6001600160401b0390818116838110156108885790610880828461082b6001958a611a6a565b51166000526008895260406000208560046040519261084984611585565b61085281611738565b845260028101548d8501526003810154604085015201541660608201526108798289611a6a565b5286611a6a565b500116610805565b604080518881528651818a01819052600092600582901b8301810191898c01918c9085015b8287106108ba5785850386f35b9091929382806108d6600193603f198a820301865288516113aa565b96019201960195929190926108ad565b6108ee6117b3565b8282870101520185906107f8565b85548452600195860195879550930192016107b6565b3461024b57600036600319011261024b5761092b61171e565b50604051610938816115d6565b6001600160401b0360195416815260405180601a54808352816020809401601a6000527f057c384a7d1c54f3a1b2e5e67b2617b8224fdfd1ea7234eea573a6ff665ff63e9260005b868282106109af575050506109979250038261160c565b818301526102036040519282849384528301906112d1565b85546001600160a01b0316845260019586019587955093019201610980565b3461024b57602036600319011261024b57600060c06040516109ef816115bb565b6109f7611a48565b8152610a01611a48565b6020820152826040820152826060820152826080820152606060a082015201526004356000526003602052610a5a6040600020610a4560ff600c83015416916118f6565b9060405192839260408452604084019061150b565b90151560208301520390f35b3461024b57600036600319011261024b5760206001600160401b03601d5460481c16604051908152f35b3461024b57602036600319011261024b5760006020604051610ab1816115d6565b8281520152610203610ac4600435611b45565b604051918291829190916020806040830194805184520151910152565b3461024b57600036600319011261024b57610afa611a94565b50604051610b07816115d6565b60045490610b148261162d565b610b21604051918261160c565b8281526020908181019360046000527f8a35acfbc15ff81a39ae7d344fd709f28e8600b4aa8c65c6b64bfe7fe36bd19b946000905b828210610b7e578386526005546001600160401b03168587015260405180610203888261142f565b600385600192604051610b90816115f1565b8a548152848060a01b03858c01541683820152610baf60028c016117df565b6040820152815201970191019095610b56565b3461024b57600036600319011261024b57601854610bdf8161162d565b90610bed604051928361160c565b808252601f19610bfc8261162d565b0160005b818110610cca57505060005b818110610c72576040805160208082528551818301819052600093600582901b8401810192808901929185015b828710610c465785850386f35b909192938280610c62600193603f198a8203018652885161132c565b9601920196019592919092610c39565b806001917fb13d2d76d1f4b7be834882e410b3e3a8afaf69f83600ae24db354391d2378d2e01546000526000602052610cae60406000206119ac565b610cb88286611a6a565b52610cc38185611a6a565b5001610c0c565b602090610cd561196d565b82828701015201610c00565b3461024b57600036600319011261024b57602060ff601d5416604051908152f35b3461024b57600036600319011261024b5760206001600160401b0360055416604051908152f35b3461024b57600036600319011261024b5760206001600160401b03601d5460081c16604051908152f35b3461024b57600036600319011261024b576020600b54604051908152f35b3461024b57600036600319011261024b576020601b54604051908152f35b3461024b57602036600319011261024b57610da86117b3565b50600435600052600860205261020360406000206001600160401b03600460405192610dd384611585565b610ddc81611738565b8452600281015460208501526003810154604085015201541660608201526040519182916020835260208301906113aa565b3461024b57600036600319011261024b576020601c54604051908152f35b3461024b57600036600319011261024b576020601e54604051908152f35b3461024b57602036600319011261024b5760206064610e7060ff601d5416600435611c8b565b04604051908152f35b3461024b57602036600319011261024b57600435610e956117b3565b50610e9e611aae565b508060005260086020526040600020906001600160401b03600460405193610ec585611585565b610ece81611738565b855260028101546020860152600381015460408601520154166060830152604051906308a6ad2560e01b8252600a6004830152602482015260008160448173__$dd40c2ca5826d197ed7e2b6aae8146ec7b$__5af4908115610492576000809160009361102f575b5090610f55939291610f8a6040519586956101008088528701906113aa565b916020860190608080918051845260208101516020850152604081015160408501526060810151606085015201511515910152565b83810360c08501526020808351928381520192019060005b81811061100d5750505082810360e0840152815180825260208201916020808360051b8301019401926000915b838310610fdc5786860387f35b919395509193602080610ffb600193601f19868203018752895161140a565b97019301930190928695949293610fcf565b82516001600160a01b0316845286955060209384019390920191600101610fa2565b925050503d806000833e611043818361160c565b818181010360e0811261024b5760a01361024b57604051611063816115a0565b8251815260208301516020820152604083015160408201526060830151606082015261109160808401611ad9565b608082015260a08301516001600160401b03811161024b57830192601f92808201848601121561024b5784516110c68161162d565b956110d4604051978861160c565b81875260208088019260051b82010190838501821161024b57602001915b81831061121f5750505060c08201516001600160401b03811161024b578183018582850101121561024b57808301519161112b8361162d565b95611139604051978861160c565b838752602087019180860160208660051b86890101011161024b57602084870101925b60208660051b8689010101841061117d575050505050505091909184610f36565b83516001600160401b03811161024b57828801603f82888b010101121561024b57602081878a010101516001600160401b03811161120957604051926111cc828701601f19166020018561160c565b818452848a01888b01840183016040011161024b57836111fc602095938c604088978d89809901930101016113e7565b815201940193905061115c565b634e487b7160e01b600052604160045260246000fd5b82516001600160a01b038116810361024b578152602092830192016110f2565b3461024b57600036600319011261024b5760006020604051611260816115d6565b828152015260006020604051611275816115d6565b8281520152610203610ac4600254611b45565b3461024b57602036600319011261024b576112a161196d565b5060043560005260006020526102036112bd60406000206119ac565b60405191829160208352602083019061132c565b60609060408301906001600160401b03815116845260209283809201519460408382015285518094520193019160005b82811061130f575050505090565b83516001600160a01b031685529381019392810192600101611301565b908151815260208201516020820152604082015160408201526001600160401b03806060840151166060830152608083015116608082015260a08201519160068310156113945760c060e0916113919460a08501520151918160c082015201906112d1565b90565b634e487b7160e01b600052602160045260246000fd5b9060606001600160401b03816113c985516080865260808601906112d1565b94602081015160208601526040810151604086015201511691015290565b60005b8381106113fa5750506000910152565b81810151838201526020016113ea565b90602091611423815180928185528580860191016113e7565b601f01601f1916010190565b602091828252606092838301918051946040938484870152865180915260808601918460808360051b8901019801926000915b838310611481575050505050906001600160401b039101511691015290565b909192939886806114c08a856001958f8f83918591607f19908503018c525180518452898060a01b03888201511688850152015193820152019061140a565b9b019301930191939290611462565b6040602061139193816114e98551858452858401906112d1565b940151908281860391015260ff8151168452015191816020820152019061140a565b9060c08061157c61153a611528865160e0875260e08701906114cf565b602087015186820360208801526114cf565b604086015160408601526001600160401b03606087015116606086015263ffffffff60e01b608087015116608086015260a086015185820360a087015261140a565b93015191015290565b608081019081106001600160401b0382111761120957604052565b60a081019081106001600160401b0382111761120957604052565b60e081019081106001600160401b0382111761120957604052565b604081019081106001600160401b0382111761120957604052565b606081019081106001600160401b0382111761120957604052565b90601f801991011681019081106001600160401b0382111761120957604052565b6001600160401b0381116112095760051b60200190565b919060408382031261024b576040519261165d846115d6565b836001600160401b038235818116810361024b5782526020928381013591821161024b57019280601f8501121561024b5783356116998161162d565b946116a7604051968761160c565b818652848087019260051b82010192831161024b578401905b8282106116ce575050500152565b81356001600160a01b038116810361024b5781529084019084016116c0565b6003199060208183011261024b57600435916001600160401b03831161024b578260409203011261024b5760040190565b6040519061172b826115d6565b6060602083600081520152565b90604051611745816115d6565b80926001600160401b03815416825260018091019160405191828481955492838652602080960191600052856000209060005b8786821061179457505050506117909250038461160c565b0152565b83546001600160a01b0316855289955090930192918101918101611778565b604051906117c082611585565b60006060836117cd61171e565b81528260208201528260408201520152565b90604051906000835490600182811c908084169687156118a6575b602094858410891461189257879884899798995290816000146118705750600114611831575b50505061182f9250038361160c565b565b600090815285812095935091905b81831061185857505061182f9350820101388080611820565b8554888401850152948501948794509183019161183f565b9250505061182f94925060ff191682840152151560051b820101388080611820565b634e487b7160e01b85526022600452602485fd5b91607f16916117fa565b90604051916118be836115d6565b6020836118ca83611738565b81526118ee6003604051946118de866115d6565b60ff6002820154168652016117df565b828401520152565b90604051611903816115bb565b60c0600b8294611912816118b0565b8452611920600482016118b0565b60208501526008810154604085015260098101546001600160401b038116606086015260a01b6001600160e01b0319166080850152611961600a82016117df565b60a08501520154910152565b6040519061197a826115bb565b81600080825280602083015280604083015280606083015280608083015260a082015260c06119a761171e565b910152565b906040516119b9816115bb565b809280548252600181015460208301526002810154604083015260ff60038201546001600160401b0380821660608601528160401c16608085015260801c169060068210156113945760046119a79160c09360a086015201611738565b6104f1611a24913690611644565b9015611a3f5760036001600160401b03910154169060019190565b50600090600090565b60405190611a55826115d6565b81611a5e61171e565b815260206119a761171e565b8051821015611a7e5760209160051b010190565b634e487b7160e01b600052603260045260246000fd5b60405190611aa1826115d6565b6000602083606081520152565b60405190611abb826115a0565b60006080838281528260208201528260408201528260608201520152565b5190811515820361024b57565b906020908183528160808160608601936001600160401b038151168288015201519460408082015285518094520193019160005b828110611b28575050505090565b83516001600160a01b031685529381019392810192600101611b1a565b60006020604051611b55816115d6565b828152015260005260016020526040600020600160405191611b76836115d6565b805483520154602082015290565b611bbb73__$a0fe38a9a81205afccc10810b09a4d3f45$__91604051906390ba52cf60e01b82528180602094859360048301611ae6565b0381865af490811561049257600091611c5c575b5090611c0b916000526000815280604060002093611bef60048601611738565b906040518080968194630c133d1360e31b835260048301611ae6565b03915af490811561049257600091611c25575b5090501591565b82813d8311611c55575b611c39818361160c565b81010312611c525750611c4b90611ad9565b8038611c1e565b80fd5b503d611c2f565b908282813d8311611c84575b611c72818361160c565b81010312611c52575051611c0b611bcf565b503d611c68565b8181029291811591840414171561049e5756fea264697066735822122091b1695069bbe32535b27d1a8413cf75cd36356d372dcc4d36adb47b00948deb64736f6c63430008130033","linkReferences":{"src/lib/LibQuorum.sol":{"LibQuorum":[{"start":3882,"length":20}]},"src/lib/SubnetIDHelper.sol":{"SubnetIDHelper":[{"start":1071,"length":20},{"start":7077,"length":20}]}}},"methodIdentifiers":{"appliedTopDownNonce()":"8789f83b","bottomUpCheckPeriod()":"06c46853","bottomUpCheckpoint(uint256)":"2da5794a","bottomUpMessages(uint256)":"e15cdca7","bottomUpNonce()":"41b6a2e8","crossMsgFee()":"24729425","getAppliedTopDownNonce((uint64,address[]))":"9e530b57","getBottomUpRetentionHeight()":"3e37cfa2","getCheckpointCurrentWeight(uint256)":"b3ab3f74","getCheckpointInfo(uint256)":"ac12d763","getCurrentBottomUpCheckpoint()":"d6c5c397","getCurrentConfigurationNumber()":"544dddff","getCurrentMembership()":"6ad21bb0","getIncompleteCheckpointHeights()":"a517218f","getIncompleteCheckpoints()":"97042766","getLastConfigurationNumber()":"b1ba49b0","getLastMembership()":"f3229131","getLatestParentFinality()":"0338150f","getNetworkName()":"94074b03","getParentFinality(uint256)":"7edeac92","getQuorumThreshold(uint256)":"06572c1a","getSignatureBundle(uint256)":"04a1d599","getSubnet((uint64,address[]))":"c66c66a1","getSubnetTopDownMsgsLength((uint64,address[]))":"9d3070b5","listSubnets()":"5d029685","majorityPercentage()":"599c7bd1","minStake()":"375b3c0a","postbox(bytes32)":"8cfd78e7","subnets(bytes32)":"02e30f9a","totalSubnets()":"a2b67158"},"id":44}